:100000000C94C4070C94EC070C94EC070C94D80DDA
:100010000C94D80D0C94D80D0C94EC070C94EC07B0
:100020000C94EC070C94EC070C94EC070C94EC0784
:100030000C94EC070C94EC070C94EC070C94EC0774
:100040000C944C140C94EC070C94A60D0C94800D9D
:100050000C94EC070C94EC070C94EC070C94EC0754
:100060000C94EC070C94EC070122572068207920AF
:100070008A209B20AC20B920D02072656164657213
:1000800041727261795365747570282920627569AF
:100090006C64696E67206172726179206F6620728C
:1000A0006561646572732E004C65643A3A537461FD
:1000B00072747570426C696E6B282900524649440F
:1000C00020496D6D6F62696C697A65722061646D3B
:1000D000696E20636F6E736F6C652C2000537461C2
:1000E0007274696E672053657269616C4D656E75D7
:1000F000002C207769746820454550524F4D207080
:10010000726F78696D6974792073746174653A20CF
:10011000005374617274696E6720524649442072BC
:1001200065616465723A2000524649443A3A626514
:1001300067696E2829207265616465722D3E72655B
:10014000616465725F6E616D653A2000526561643D
:100150006572735B325D2D3E7265616465725F6EC0
:10016000616D653A20002C2000426F6F74696E67E4
:10017000205246494420496D6D6F62696C697A6509
:10018000722C200054616720656E74657265643A54
:10019000200046726565204D656D6F72793A206E5C
:1001A0002F610044656C6574652054616700456E7D
:1001B000746572206120746167206E756D6265726E
:1001C0002028756E7369676E6564206C6F6E672991
:1001D00020746F2073746F72653A2000416464204C
:1001E000546167006D656E7553656C656374656415
:1001F0004D61696E4974656D20636F6E76657274CA
:10020000656420627974653A20006D656E7553658A
:100210006C65637465644D61696E4974656D2072C7
:100220006563656976656420627974653A20005477
:100230007970652061206E65772076616C75652028
:10024000666F722073657474696E673A2000656E1C
:1002500061626C655F64656275673A200061646D18
:10026000696E5F74696D656F75743A200070726FA6
:1002700078696D6974795F73746174653A200052AE
:1002800045414445525F504F5745525F434F4E548E
:10029000524F4C5F50494E3A20005245414445521E
:1002A0005F4359434C455F484947485F4455524175
:1002B00054494F4E3A20005245414445525F4359FC
:1002C000434C455F4C4F575F4455524154494F4E44
:1002D0003A20005441475F524541445F534C4545E5
:1002E000505F494E54455256414C3A2000544147C4
:1002F0005F4C4153545F524541445F54494D454F13
:1003000055543A20006D656E7553656C6563746570
:100310006453657474696E67207365742073656CCB
:1003200065637465645F6D656E755F6974656D2086
:10033000746F3A20006D656E7553656C6563746506
:100340006453657474696E67207265636569766568
:100350006420627974653A2000532E75706461746C
:100360006553657474696E672829207570646174BB
:10037000696E672027656E61626C655F6465627592
:10038000672720776974683A2000532E757064617E
:10039000746553657474696E67282920757064618B
:1003A00074696E6720275245414445525F43594363
:1003B0004C455F484947485F4455524154494F4E68
:1003C0002720776974683A2000532E757064617431
:1003D0006553657474696E6728292075706461744B
:1003E000696E6720275441475F4C4153545F524523
:1003F00041445F54494D454F5554272077697468EF
:100400003A2000532E757064617465536574746985
:100410006E672829207570646174696E6720276192
:10042000646D696E5F74696D656F75742720776997
:1004300074683A2000532E75706461746553657456
:1004400074696E6728292063616C6C656420776924
:10045000746820696E6465783A200072756E436135
:100460006C6C6261636B732829206E6F20636F6E02
:10047000646974696F6E207761732073656C65635E
:100480007465640072756E43616C6C6261636B735A
:1004900028292063616C6C20746F20532E75706462
:1004A00061746553657474696E6728292066616993
:1004B0006C65640072756E43616C6C6261636B7332
:1004C000282920696E707574417661696C61626C6F
:1004D0006520666F7220757064617465536574740D
:1004E000696E673A200072756E43616C6C6261637D
:1004F0006B73282920696E707574417661696C612F
:10050000626C6520666F72206D656E7553656C65F3
:100510006374656453657474696E670072756E43C5
:10052000616C6C6261636B73282920696E707574ED
:10053000417661696C61626C6520666F72206D65E1
:100540006E7553656C65637465644D61696E49745D
:10055000656D0072756E43616C6C6261636B7328CC
:10056000292063616C6C20746F206164645461673E
:10057000537472696E6728627566662920666169C0
:100580006C65640072756E43616C6C6261636B7361
:10059000282920696E707574417661696C61626C9E
:1005A0006520666F72206164645461675374726978
:1005B0006E6700596F7520656E74657265643A20C8
:1005C000006765744C696E652829206279742C2057
:1005D000627566663A2000636865636B536572698D
:1005E000616C506F72742829207573657220696E72
:1005F0007075742077697468206E6F206D61746304
:1006000068696E6720696E707574206D6F64653AF5
:100610002000636865636B53657269616C506F722B
:10062000742829207265636569766564206279742F
:10063000653A20004C65643A3A4F666628290045C1
:100640006E746572696E672072756E206D6F646579
:100650000D0A000D0A53657269616C4D656E752057
:1006600073657474696E672072756E5F6D6F646513
:1006700020746F2030202772756E27004C65643A15
:100680003A53746561647928292C205F696E74651A
:100690007276616C735B305D3A20004C65643A3A67
:1006A00046617374426C696E6B28290070726F78B2
:1006B000696D6974795374617465436F6E74726F98
:1006C0006C6C65722829206E6F20636F6E6469748C
:1006D000696F6E20776173206D657420286E6F746A
:1006E000206E65636573736172696C792061207037
:1006F000726F626C656D290070726F78696D6974D4
:10070000795374617465436F6E74726F6C6C65724B
:100710002829207374696C6C20594F554E4700701E
:10072000726F78696D6974795374617465436F6E23
:1007300074726F6C6C65722829204147494E4700DE
:1007400070726F78696D6974795374617465436F01
:100750006E74726F6C6C657228292054494D454F38
:1007600055540070726F78696D697479537461744F
:1007700065436F6E74726F6C6C6572282920737498
:1007800061727475702047524143452070657269EB
:100790006F642074696D656F75742C206E6F2074A2
:1007A000616720666F756E64002A2A2A007461678B
:1007B0004C6173745265616454696D656F757458EA
:1007C0003130303028293A20006D735F72656164E2
:1007D00065725F6379636C655F746F74616C3A20F6
:1007E000006D7353696E63654C6173745265616427
:1007F0006572506F7765724379636C6528293A207A
:10080000006D7353696E63654C6173745461675214
:1008100065616428293A20006C6173745F726561B8
:100820006465725F706F7765725F6379636C655F33
:100830006D733A20006C6173745F7461675F7265F9
:1008400061645F6D733A20002A2A2A2050524F5863
:10085000494D495459202A2A2A006379636C65520C
:100860006561646572506F776572282920736574BD
:1008700074696E672072656164657220706F776558
:1008800072204C4F57006E65766572002073656369
:100890006F6E64732061676F002C20726561646500
:1008A00072206379636C65643A20006E65766572C8
:1008B00000207365636F6E64732061676F006379F6
:1008C000636C65526561646572506F776572282943
:1008D0002074616720726561643A20006379636CFB
:1008E00065526561646572506F776572282920735F
:1008F000657474696E672072656164657220706FDB
:10090000776572204849474800494E56414C494452
:10091000207461673A200056616C696420746167D5
:100920003A200054616720726573756C742066729A
:100930006F6D205265616465723A200052464944E9
:100940003A3A70726F63657373546167446174619E
:1009500028292063616C6C696E672072656164652B
:10096000722D3E70726F6365737354616744617476
:1009700061285F7461672900524649443A3A7072AF
:100980006F636573735461674461746128292072D1
:1009900065636569766564206275666665722C209C
:1009A0007573696E67207265616465723A2000290B
:1009B000002800524649443A3A706F6C6C526561A7
:1009C0006465722829207265616465722D3E7261CA
:1009D000775F7461675F6C656E6774683A20005278
:1009E0004649443A3A706F6C6C526561646572288E
:1009F00029207265616465722D3E7265616465725D
:100A00005F6E616D653A20002A2A2A00532E5245F6
:100A1000414445525F4359434C455F4C4F575F44F7
:100A200055524154494F4E3A200052504348442AAF
:100A3000313030303A2000726561646572506F77F2
:100A400065724379636C654869676844757261745F
:100A5000696F6E2829007461674C61737452656117
:100A60006454696D656F7574583130303028293A97
:100A700020006D735F7265616465725F6379636C9A
:100A8000655F746F74616C3A20006D7353696E63B7
:100A9000654C617374526561646572506F776572FD
:100AA0004379636C6528293A20006D7353696E633E
:100AB000654C6173745461675265616428293A20FA
:100AC000006C6173745F7265616465725F706F77EB
:100AD00065725F6379636C655F6D733A20006C616A
:100AE00073745F7461675F726561645F6D733A20F0
:100AF000006379636C655F686967685F66696E69E2
:100B000073685F6D733A20006379636C655F6C6F27
:100B1000775F66696E6973685F6D733A20002A2A91
:100B20002A2052464944204C4F4F502042454749C5
:100B30004E20004C65643A3A536C6F77426C696E94
:100B40006B282900436F6E737472756374696E67E6
:100B50002052656164657220666F723A20004572AA
:100B6000726F723A20596F752061726520617474DA
:100B7000656D7074696E6720746F2063616C6C20A2
:100B800070726F636573735461674461746128297F
:100B9000206F6E207468652067656E6572696320DA
:100BA00052656164657220636C6173730052444DD9
:100BB0003633303020546167207375636365737317
:100BC0003A200052444D363330303A3A70726F63F7
:100BD000657373546167446174612829207769746F
:100BE0006820696E7075743A200052373934314587
:100BF0002054616720726561643A20002C2063688C
:100C000065636B73756D2028646563293A20002C39
:100C10002069645F6C656E3A20002C2069645F6512
:100C20006E643A200069645F626567696E3A20000D
:100C30005237393431453A3A70726F636573735481
:100C400061674461746128292077697468200057BE
:100C50004C3132352054616720737563636573735B
:100C60003A20002C20636865636B73756D202863E0
:100C70006861727320726570726573656E74696EF7
:100C80006720686578293A20002C2069645F6C65CC
:100C90006E3A20002C2069645F656E643A2000691A
:100CA000645F626567696E3A2000574C3132353AAD
:100CB0003A70726F6365737354616744617461283D
:100CC00029207769746820696E7075743A20007500
:100CD000706461746541646D696E54696D656F75AA
:100CE000742829207365636F6E64733A20007365FE
:100CF00074496E7075744D6F6465282920746F3A5D
:100D0000200073657443616C6C6261636B46756E41
:100D10006374696F6E282920746F3A20004C6564F3
:100D20003A3A626567696E207769746820696E7403
:100D3000657276616C732063757272656E742C20B7
:100D40006E65773A004C65643A3A75706461746513
:100D5000207769746820696E74657276616C73209F
:100D600063757272656E742C206E65773A004C65FF
:100D7000643A3A757064617465205F696E74657277
:100D800076616C735B305D3A200043616C6C696E18
:100D90006720454550524F4D2E7570646174652033
:100DA000776974682070726F78696D6974795F73A0
:100DB000746174653A2000000000002300260029B9
:100DC0000000000000250028002B00040404040497
:100DD00004040402020202020203030303030301E8
:100DE00002040810204080010204081020010204BF
:100DF00008102000000000240027002A0000000046
:100E000008000201000003040700000000000000C9
:100E10000053657269616C4D656E753A3A6279741A
:100E200065546F41736369694368724E756D2072D2
:100E30006563656976656420627974653A20003877
:100E40002E20656E61626C655F64656275673A202D
:100E500000372E2061646D696E5F74696D656F7512
:100E6000743A2000362E2070726F78696D6974793B
:100E70005F73746174653A2000352E2052454144F9
:100E800045525F504F5745525F434F4E54524F4C5F
:100E90005F50494E3A2000342E205245414445527D
:100EA0005F4359434C455F484947485F4455524169
:100EB00054494F4E3A2000332E205245414445526A
:100EC0005F4359434C455F4C4F575F445552415423
:100ED000494F4E3A2000322E205441475F5245413F
:100EE000445F534C4545505F494E54455256414C22
:100EF0003A2000312E205441475F4C4153545F52F9
:100F00004541445F54494D454F55543A2000302ED9
:100F10002052657475726E20746F206D61696E2049
:100F20006D656E753A200053657474696E67730061
:100F3000352E2053657474696E677300342E205308
:100F4000686F772066726565206D656D6F727900D8
:100F5000332E2044656C6574652074616700322E01
:100F6000204164642074616700312E204C697374E1
:100F7000207461677300302E2045786974004D65D8
:100F80006E7500000A23F42211241FBECFEFD8E0B3
:100F9000DEBFCDBF24E0A2E4B2E001C01D92A237C3
:100FA000B207E1F712E0A0E0B1E0E0E7F4E502C04B
:100FB00005900D92A234B107D9F717E0C3ECD7E042
:100FC00004C02197FE010E940A26C23CD107C9F73E
:100FD0000E9496140C942B2A0C940000CF92DF925E
:100FE000EF92FF920F931F93CF93DF936C017A01DF
:100FF0008B01C0E0D0E0CE15DF0581F0D8016D9106
:101000008D01D601ED91FC910190F081E02DC6019A
:101010000995892B11F02196EECF7E01C701DF9152
:10102000CF911F910F91FF90EF90DF90CF90089597
:10103000FC01538D448D252F30E0842F90E0821BDE
:10104000930B541710F0CF96089501970895FC0163
:10105000918D828D981761F0828DDF01A80FB11DEF
:101060005D968C91928D9F5F9F73928F90E0089513
:101070008FEF9FEF0895FC01918D828D981731F0CD
:10108000828DE80FF11D858D90E008958FEF9FEF21
:101090000895FC01918D228D892F90E0805C9F4FF7
:1010A000821B91098F739927089586E892E00E9428
:1010B000490821E0892B09F420E0822F0895FC01E2
:1010C000848DDF01A80FB11DA35ABF4F2C91848DD1
:1010D00090E001968F739927848FA689B7892C9306
:1010E000A089B1898C91837080648C93938D848D59
:1010F000981306C00288F389E02D80818F7D80835C
:101100000895EF92FF920F931F93CF93DF93EC011B
:1011100081E0888F9B8D8C8D981305C0E889F989B3
:10112000808185FD26C0F62E0B8D10E00F5F1F4FCE
:101130000F731127E02E8C8DE8120CC00FB607FC40
:10114000FACFE889F989808185FFF5CFCE010E9429
:101150005F08F1CF8B8DFE01E80FF11DE35AFF4FC1
:10116000F0829FB7F8940B8FEA89FB8980818062B7
:101170000AC09FB7F894EE89FF896083E889F989EE
:1011800080818370806480839FBF81E090E0DF91E5
:10119000CF911F910F91FF90EF900895CF93DF9320
:1011A000EC01888D8823C9F0EA89FB89808185FD5F
:1011B00005C0A889B9898C9186FD0FC00FB607FCC0
:1011C000F5CF808185FFF2CFA889B9898C9185FF01
:1011D000EDCFCE010E945F08E7CFDF91CF91089558
:1011E00080E090E0892B29F00E94550881110C9431
:1011F0000000089520918402309185022817390754
:1012000071F49091820280918302981741F0E091ED
:101210008202F0E0EE5BFD4F808190E008958FEF59
:101220009FEF089508951F93CF93DF93DC015C96A1
:101230008D919C915D97009739F421E030E01396F1
:101240003C932E9312973BC05196ED91FC9152978F
:1012500050962C915097322F30951FB75E964C9137
:101260005E97742F727041FD6095F89440817723EA
:1012700011F0422B01C043234083EC012197F1F789
:1012800048E0508160FF02C0522B01C053235083BD
:10129000EC012197F1F76695415099F7808177230A
:1012A00019F08323808302C0282B20831FBF5C9604
:1012B0008D919C915D970197F1F781E090E0DF912E
:1012C000CF911F91089520918402309185022817B3
:1012D000390771F4809183022091820290E0805C52
:1012E0009F4F821B910960E470E00E94F6250895EB
:1012F00080E090E0089520918402309185022817C3
:101300003907B9F49091820280918302981789F08D
:10131000E0918202F0E0EE5BFD4F8081209182023D
:1013200030E02F5F3F4F2F7333272093820290E0EE
:1013300008958FEF9FEF0895089580E090E008955D
:101340000E9445276115710579F0FB01019000208D
:10135000E9F73197AF01461B570BDC01ED91FC918A
:101360000280F381E02D099480E090E008958F924F
:101370009F92AF92BF92EF92FF920F931F93CF93E2
:10138000DF93CDB7DEB7A1970FB6F894DEBF0FBEDF
:10139000CDBF7C01FA01CB0119A2223008F42AE06A
:1013A0008E010F5D1F4F822E912CA12CB12CBF01FD
:1013B000A50194010E948325F901CA010150110978
:1013C0006A3014F4605D01C0695CD8016C93232B12
:1013D000242B252B61F7B801C7010E94A209A19611
:1013E0000FB6F894DEBF0FBECDBFDF91CF911F9136
:1013F0000F91FF90EF90BF90AF909F908F900895C6
:101400006EE272E00C94A2090F931F93CF93DF93C7
:10141000EC010E94A2098C01CE010E94000A800FFB
:10142000911FDF91CF911F910F9108959A01452B44
:1014300039F4DC01ED91FC910190F081E02D0994EB
:10144000462F50E060E070E00C94B709DC01ED91AC
:10145000FC910190F081E02D09940C94A209EF9287
:10146000FF920F931F93CF93DF938C017B01C0E01A
:10147000D0E0F701EC0FFD1F6491662361F0D80105
:10148000ED91FC910190F081E02DC8010995892B27
:1014900011F02196EECFCE01DF91CF911F910F91E8
:1014A000FF90EF9008950F931F93CF93DF93EC017C
:1014B0000E942F0A8C01CE010E94000A800F911F0A
:1014C000DF91CF911F910F91089580913A039091F0
:1014D0003B03892B31F06EE57BE086E892E00E94C9
:1014E000530A60E070E0CB0108956F927F928F9273
:1014F0009F92AF92BF92CF92DF92EF92FF920F93A3
:101500001F93CF93DF93CDB7DEB78C016B016DB620
:101510007EB680913A0390913B03892B31F06AEAC1
:101520007CE086E892E00E942F0A80913A03909135
:101530003B03892B31F06FE97CE086E892E00E9462
:101540002F0A80913A0390913B03892B41F04AE0A6
:1015500050E0F801638986E892E00E94160A8091C3
:101560003A0390913B03892B31F064E97CE086E8F3
:1015700092E00E942F0A80913A0390913B03892BBD
:1015800041F04AE050E0F801648986E892E00E9468
:10159000160AF80144894F5F8389F42EF81A809166
:1015A0003A0390913B03892B31F069E87CE086E8AF
:1015B00092E00E942F0A80913A0390913B03892B7D
:1015C00039F04AE050E06F2D86E892E00E94160A5A
:1015D00080913A0390913B03892B31F063E67CE0E4
:1015E00086E892E00E942F0A80913A0390913B0393
:1015F000892B41F04AE050E0F601638586E892E0ED
:101600000E94160A80913A0390913B03892B31F096
:10161000F601648586E892E00E94D0104F2D50E0DC
:101620004F5F5F4F8DB79EB7841B950B0FB6F89435
:101630009EBF0FBE8DBFEDB7FEB731967F0163E24F
:1016400071E0CF010E945727F80183895601A80E47
:10165000B11C81E3882E82E0982EF801848990E005
:1016600095012C193D0982179307C4F0F5012191CA
:101670005F01F70101900020E9F71F922F939F92DD
:101680008F92CF0101979F938F930E9478270F909D
:101690000F900F900F900F900F90DFCF40E150E030
:1016A00060E070E0C7010E9451244B015C01809111
:1016B0003A0390913B03892B31F06FE47CE086E89C
:1016C00092E00E942F0A80913A0390913B03892B6C
:1016D00029F0B70186E892E00E942D0A80913A0332
:1016E00090913B03892B31F061ED71E086E892E047
:1016F0000E942D0A80913A0390913B03892B31F08F
:10170000B501A40186E892E00E94B410C501B401BD
:101710000FB6F8947EBE0FBE6DBEDF91CF911F91C4
:101720000F91FF90EF90DF90CF90BF90AF909F9080
:101730008F907F906F9008956F927F928F929F927B
:10174000AF92BF92CF92DF92EF92FF920F931F93CF
:10175000CF93DF93CDB7DEB78C015B016DB67EB65C
:1017600080913A0390913B03892B31F060E37CE058
:1017700086E892E00E942F0A80913A0390913B0301
:10178000892B31F065E27CE086E892E00E942F0A26
:1017900080913A0390913B03892B41F04AE050E05D
:1017A000F801638986E892E00E94160A80913A0364
:1017B00090913B03892B31F06AE17CE086E892E06E
:1017C0000E942F0A80913A0390913B03892B41F0AC
:1017D0004AE050E0F801648986E892E00E94160A27
:1017E000F801448950E08389481B51094F5F5F4FDE
:1017F000F42EFF0C80913A0390913B03892B31F03A
:101800006FE07CE086E892E00E942F0A80913A0324
:1018100090913B03892B39F04AE050E06F2D86E828
:1018200092E00E94160A80913A0390913B03892B23
:1018300031F06CEF7BE086E892E00E942F0A809105
:101840003A0390913B03892B31F0F501608586E8DE
:1018500092E00E94D0104F2D50E04F5F5F4F8DB748
:101860009EB7841B950B0FB6F8949EBF0FBE8DBF1D
:10187000EDB7FEB731967F0163E271E0CF010E94C0
:101880005727F80183896501C80ED11C84E3882E8F
:1018900082E0982EF801848990E096012A193B098C
:1018A00082179307C4F0F60121916F01F7010190AF
:1018B0000020E9F71F922F939F928F92CF010197FB
:1018C0009F938F930E9478270F900F900F900F9007
:1018D0000F900F90DFCF40E150E060E070E0C70173
:1018E0000E9451244B015C0180913A0390913B038B
:1018F000892B31F06AEE7BE086E892E00E942F0AA5
:1019000080913A0390913B03892B29F0B70186E837
:1019100092E00E942D0A80913A0390913B03892B1B
:1019200031F061ED71E086E892E00E942D0A80912D
:101930003A0390913B03892B31F0B501A40186E86D
:1019400092E00E94B410C501B4010FB6F8947EBEB7
:101950000FBE6DBEDF91CF911F910F91FF90EF9061
:10196000DF90CF90BF90AF909F908F907F906F90BF
:1019700008956F927F928F929F92AF92BF92CF9273
:10198000DF92EF92FF920F931F93CF93DF93CDB728
:10199000DEB76C015B016DB67EB680913A03909123
:1019A0003B03892B31F063EC7BE086E892E00E94F8
:1019B0002F0A80913A0390913B03892B89F040E1F3
:1019C00050E060E070E0C5010E945124AB01BC0111
:1019D00086E892E00E94A20F86E892E00E94000A48
:1019E000F601F38844894F1950E04F5F5F4F8DB780
:1019F0009EB7841B950B0FB6F8949EBF0FBE8DBF8C
:101A00000DB71EB70F5F1F4F63E271E0C8010E9460
:101A10005727F501EF0DF11D7F0181E3882E82E04C
:101A2000982EF601848990E097012A193B098217C4
:101A30009307C4F0F70121917F01F8010190002084
:101A4000E9F71F922F939F928F92CF0101979F9357
:101A50008F930E9478270F900F900F900F900F9008
:101A60000F90DFCF40E150E060E070E0C8010E94DD
:101A700051246B017C0180913A0390913B03892BA7
:101A800031F06DEA7BE086E892E00E942F0A8091B7
:101A90003A0390913B03892B29F0B80186E892E044
:101AA0000E942D0A80913A0390913B03892B31F0DB
:101AB00061ED71E086E892E00E942D0A80913A0380
:101AC00090913B03892B31F0B701A60186E892E0A3
:101AD0000E94B410C701B6010FB6F8947EBE0FBEC7
:101AE0006DBEDF91CF911F910F91FF90EF90DF902E
:101AF000CF90BF90AF909F908F907F906F90089500
:101B00001F920F920FB60F9211242F933F934F9372
:101B10005F936F937F938F939F93AF93BF93EF9355
:101B2000FF9386E892E00E945F08FF91EF91BF91DA
:101B3000AF919F918F917F916F915F914F913F9165
:101B40002F910F900FBE0F901F9018951F920F921C
:101B50000FB60F9211242F938F939F93EF93FF93C0
:101B6000E0919602F09197028081E0919C02F091C1
:101B70009D0282FD12C0908180919F028F5F8F73C2
:101B80002091A002821751F0E0919F02F0E0EA5705
:101B9000FD4F958F80939F0201C08081FF91EF914F
:101BA0009F918F912F910F900FBE0F901F901895BE
:101BB0001F920F920FB60F9211242F933F934F93C2
:101BC0005F936F937F938F939F93AF93BF93EF93A5
:101BD000FF93E0918402F0918502309709F451C09F
:101BE000968DA685B785858591FF04C09C91892334
:101BF00029F447C09C91892309F043C0A389B48983
:101C00009C918589809589238C93868997890197F2
:101C1000F1F7608D718DA685B785558538E020E098
:101C2000CB010197F1F7822F90E095958795282FAA
:101C30004C91452309F02068315091F7868D81FD44
:101C400020958091830290E001968F7399273091BF
:101C50008202381749F0A0918302B0E0AE5BBD4F1D
:101C60002C938093830203C0868D8160868F828D42
:101C7000938D0197F1F7A389B4899C918589892B6C
:101C80008C93FF91EF91BF91AF919F918F917F9135
:101C90006F915F914F913F912F910F900FBE0F90D9
:101CA0001F901895E0918402F0918502E817F907DA
:101CB00069F4A389B4899C918589809589238C9343
:101CC000109285021092840281E0089580E00895C8
:101CD000EF920F93CF93DF93FC01EB0188E291E049
:101CE00091838083428B238B048BE58A40E150E013
:101CF000CF0102960E94692780913A0390913B039D
:101D0000892B31F064E47BE086E892E00E942F0AA0
:101D100080913A0390913B03892B49F0BE0186E8FC
:101D200092E0DF91CF910F91EF900C94040ADF9134
:101D3000CF910F91EF9008950F931F93CF93DF935F
:101D4000CDB7DEB7A8970FB6F894DEBF0FBECDBFF4
:101D50008C0180913A0390913B03892B31F063E32E
:101D60007BE086E892E00E94530ABE016F5F7F4FDE
:101D700088E2FB0111928A95E9F784EF91E09A835A
:101D800089839C838B83C8010E942710A8960FB675
:101D9000F894DEBF0FBECDBFDF91CF911F910F91A1
:101DA000089580E090E0FB0121913191BF0112166E
:101DB000130624F4019684319105A9F708950F9331
:101DC0001F93CF93DF938B010E94D10EAC01990F2B
:101DD000660B770B86E892E00E94A20F61E272E048
:101DE00086E892E00E942D0AE801085D1F4F62ED2F
:101DF00071E086E892E00E942D0A49915991052EE2
:101E0000000C660B770B86E892E00E94A20FC017C9
:101E1000D10769F760E372E086E892E0DF91CF9145
:101E20001F910F910C94040A0F931F93CF93DF938C
:101E3000EC01162F042F1B821A8288EE93E0A0E09B
:101E4000B0E08C839D83AE83BF8380E591E099836E
:101E500088831F8A1E8A198E188E1B8E1A8E1D8EDD
:101E60001C8E6E8D6E7F6D7F6E8F6695617081E0CA
:101E70006827842F0E94B01361E0802F0E94DF1337
:101E8000802F90E0FC01E152F24FE491E88BFC01DD
:101E9000E553F24FE491F0E0EE0FFF1FEF53F24FE6
:101EA000859194919A8B898B60E0812F0E94DF133A
:101EB0008E8D81FD04C061E0812F0E94B0131C87CC
:101EC000812F90E0FC01E152F24FE491ED87FC019B
:101ED000E553F24FE491F0E0EE0FFF1FE954F24FAB
:101EE000859194919F878E87DF91CF911F910F915C
:101EF0000895CF93DF93EC018A8D9B8D892BF1F0B0
:101F00008091840290918502C817D907B9F0009793
:101F100011F00E94520E8E8D8E7F8E8F1092830252
:101F200010928202D0938502C0938402EB89FC89CF
:101F300090818D89892B808381E001C080E0DF91D1
:101F4000CF910895CF92DF92EF92FF920F931F935C
:101F5000CF93DF9377FF1DC06A017B01EC016DE237
:101F60000E94260A8C0144275527BA014C195D09A5
:101F70006E097F092AE0CE010E94B709800F911FE8
:101F8000DF91CF911F910F91FF90EF90DF90CF9055
:101F900008952AE0DF91CF911F910F91FF90EF906C
:101FA000DF90CF900C94B7090F931F93CF93DF93DB
:101FB000EC01AB01770F660B770B0E94A20F8C012F
:101FC000CE010E94000A800F911FDF91CF911F91D7
:101FD0000F9108959093600380935F03009769F4D5
:101FE00043E050E060E070E040936D0350936E0377
:101FF00060936F037093700308C010926D0310928A
:102000006E0310926F031092700320913803309189
:102010003903909339038093380382179307B1F003
:102020006AE87DE086E892E00E942F0A609138031A
:102030007091390386E892E00E94D40F80913803B2
:102040009091390390934D0380934C030895EF9240
:10205000FF920F931F93CF93DF93EC018B0180913D
:102060003A0390913B03892B31F06EE67DE086E8E0
:1020700092E00E942F0A80913A0390913B03892BB2
:1020800039F0F8016081718186E892E00E94D40FF6
:1020900080913A0390913B039E012E5E3F4F790160
:1020A000892B71F065E47DE086E892E00E94530A96
:1020B000B701CE010E94DF0EB801CE010E94DF0EF3
:1020C00088859985892B59F4B801CE010E94D10EDB
:1020D000AC01B701C8010E944A27892BF1F1809118
:1020E0003A0390913B03892B71F06DE17DE086E826
:1020F00092E00E94530AB701CE010E94DF0EB801A0
:10210000CE010E94DF0E61E088810E94DF131B82F6
:102110001A821D821C821F821E8219861886D8018F
:10212000F701CE01CA962D913D9121933193E81785
:10213000F907C9F781E090E09F838E832A893B8964
:102140001216130614F49B838A838A859B85AC85BB
:10215000BD858E879F87A88BB98BDF91CF911F910B
:102160000F91FF90EF9008950F931F93CF93DF93FC
:10217000EC012AE00E94B7098C01CE010E94000AFE
:10218000800F911FDF91CF911F910F910895EEE481
:10219000F3E0108A80E1DF011D928A95E9F7089546
:1021A0000F931F93CF93DF93EC014AE050E00E941E
:1021B000160A8C01CE010E94000A800F911FDF9148
:1021C000CF911F910F910895CF92DF92EF92FF92DE
:1021D0000E941B146B017C010E941B14DC01CB01CB
:1021E0008C199D09AE09BF09883E9340A105B10530
:1021F00098F3FF90EF90DF90CF900895FC01138E3D
:10220000128E118E108E178A168A8DE991E0958FA5
:10221000848F9485963108F04EC02DEB30E0378BDB
:10222000268B2BE931E0318F208F2CE231E0338F88
:10223000228F30916800983058F021E09E3008F4E9
:1022400020E091E0892F01C0880F2A95EAF701C0AC
:1022500084E0832B809368008485883038F08E304A
:1022600040F0863148F020E030E008C02DE630E054
:1022700005C02BE630E002C02CE630E0348B238B27
:10228000883030F491E001C0990F8A95EAF70EC0CA
:10229000282F30E08E3018F42850310902C02E501B
:1022A000310991E001C0990F2A95EAF7958B848D49
:1022B000958D0197F1F7CF010C94790F48E150E02B
:1022C000BC018AED93E00E94692780913A039091C6
:1022D0003B03892B31F062E07DE086E892E00E94CA
:1022E0002F0A80913A0390913B03892B31F06AEDDC
:1022F00073E086E892E00C94040A089540E150E00F
:102300006EEE71E088EB93E00E94692780913A03BA
:1023100090913B03892B31F06EEE7CE086E892E0F1
:102320000E942F0A80913A0390913B03892B31F050
:1023300068EB73E086E892E00C94040A089580E16B
:10234000E8ECF3E0DF011D928A95E9F71092D903DA
:102350001092D8030895CF92DF92EF92FF926B0113
:102360007C018091B4039091B503A091B603B09124
:10237000B7038C159D05AE05BF0561F06FEC7CE0E1
:1023800086E892E00E942F0AB701A60186E892E053
:102390000E94B410C092B403D092B503E092B60389
:1023A000F092B70381E090E09093AF038093AE0387
:1023B0000E9440146093B0037093B1038093B20302
:1023C0009093B303FF90EF90DF90CF90089520910A
:1023D000D8033091D903232B61F42091C80312163E
:1023E00044F4BC018AED93E00E94602721E0892B30
:1023F00009F020E0822F0895CF92DF92EF92FF92B2
:10240000CF93DF9369E372E08091AC039091AD03C9
:102410000E94040AC2EFD3E0C12CD12C760188813E
:102420009981AA81BB81892B8A2B8B2B19F1B7014A
:10243000A6018091AC039091AD030E94A20F6EE3C0
:1024400072E08091AC039091AD030E942D0A488107
:1024500059816A817B812AE08091AC039091AD0320
:102460000E94B70960E372E08091AC039091AD03E4
:102470000E94040A24968FEFC81AD80AE80AF80ABC
:1024800085E0C816D104E104F10449F660E372E086
:102490008091AC039091AD030E94040A0E947E11CA
:1024A00084ED91E0DF91CF91FF90EF90DF90CF909E
:1024B0000C945E11CF93DF93CCEAD3E06EE77FE01C
:1024C000888199810E94530A66E77FE0888199811B
:1024D0000E94530A69E67FE0888199810E94530A2D
:1024E0006EE57FE0888199810E94530A60E57FE074
:1024F000888199810E94530A6CE37FE088819981E9
:102500000E94530A60E37FE0888199810E94530A08
:1025100060E372E0888199810E94040A0E949F1101
:102520000E947E1184ED91E0DF91CF910C945E11B9
:102530000F931F93CF93DF93CCEAD3E08FEF9FEFFE
:10254000909307048093060467E27FE08881998175
:102550000E94530A6EE07FE0888199810E94530AAD
:1025600063EF7EE0888199810E942F0A03E213E0E5
:10257000F8014081518162817381888199810E9433
:10258000B41066ED7EE0888199810E942F0AF801DF
:102590004481558166817781888199810E94B41038
:1025A00067EB7EE0888199810E942F0AF8014085BF
:1025B000518562857385888199810E94B41067E98D
:1025C0007EE0888199810E942F0AF8014485558513
:1025D00066857785888199810E94B41069E77EE0DD
:1025E000888199810E942F0AF801608988819981E8
:1025F0000E94D01064E67EE0888199810E942F0AB3
:10260000F80165897689888199810E94D40F61E5F6
:102610007EE0888199810E942F0AF80141895289C0
:1026200063897489888199810E94B4106FE37EE088
:10263000888199810E942F0AF8016789708D8881AD
:1026400099810E94D40F60E372E0888199810E9491
:10265000040A0E947E1188EF91E0DF91CF911F91D3
:102660000F910C945E11CF93DF931F92CDB7DEB71D
:10267000898380913A0390913B03892B31F061E18A
:102680007EE086E892E00E942F0A80913A039091C2
:102690003B03892B29F0698186E892E00E94260A93
:1026A00080913A0390913B03892B31F063EF71E005
:1026B00086E892E00E942D0A80913A0390913B03B4
:1026C000892B29F0698186E892E00E94260A809190
:1026D0003A0390913B03892B31F066EF71E086E875
:1026E00092E00E94040A898180538A3050F44AE0C3
:1026F00050E060E070E0CE0101960E945124CB01D1
:1027000002C080E390E00F90DF91CF910895833075
:1027100081F028F4813099F08230A1F0089587305B
:10272000A9F08830B9F08430D1F4809180008F7D99
:1027300003C0809180008F7780938000089584B5D6
:102740008F7702C084B58F7D84BD08958091B000DD
:102750008F7703C08091B0008F7D8093B000089583
:102760001F93CF93DF93282F30E0F901E350F24F0E
:102770008491F901E152F24FD491F901E553F24FFE
:10278000C491CC23C1F0162F81110E948713EC2F26
:10279000F0E0EE0FFF1FEF53F24FA591B4919FB7FA
:1027A000F894111104C08C91D095D82302C0EC91FB
:1027B000DE2BDC939FBFDF91CF911F910895CF93C4
:1027C000DF9390E0FC01E152F24F2491FC01E553CC
:1027D000F24F8491882361F190E0880F991FFC01EA
:1027E000ED50F24FC591D491FC01EF53F24FA591FA
:1027F000B491611109C09FB7F89488812095822314
:102800008883EC912E230BC0623061F49FB7F8945B
:102810008881322F309583238883EC912E2B2C9343
:102820009FBF06C08FB7F894E8812E2B28838FBFF7
:10283000DF91CF9108953FB7F8948091680490910B
:102840006904A0916A04B0916B0426B5A89B05C0E9
:102850002F3F19F00196A11DB11D3FBFBA2FA92F1F
:10286000982F8827820F911DA11DB11DBC01CD019C
:1028700042E0660F771F881F991F4A95D1F7089588
:102880002FB7F89460916404709165048091660498
:10289000909167042FBF08951F920F920FB60F9269
:1028A00011242F933F938F939F93AF93BF93809166
:1028B000640490916504A0916604B091670430911E
:1028C000630423E0230F2D3720F40196A11DB11DD1
:1028D00005C026E8230F0296A11DB11D20936304B5
:1028E0008093640490936504A0936604B093670496
:1028F0008091680490916904A0916A04B0916B047E
:102900000196A11DB11D8093680490936904A09362
:102910006A04B0936B04BF91AF919F918F913F91E7
:102920002F910F900FBE0F901F901895CF93DF93AC
:10293000CDB7DEB7AC970FB6F894DEBF0FBECDBFF4
:10294000789484B5826084BD84B5816084BD85B58A
:10295000826085BD85B5816085BD80916E00816096
:1029600080936E001092810080918100826080933C
:10297000810080918100816080938100809180003E
:102980008160809380008091B10084608093B10069
:102990008091B00081608093B00080917A00846063
:1029A00080937A0080917A00826080937A0080918F
:1029B0007A00816080937A0080917A0080688093A9
:1029C0007A001092C100E0919602F091970282E0A5
:1029D0008083E0919602F09197021082E09192023A
:1029E000F09193021082E0919402F091950280E1BF
:1029F000808310929E02E0919A02F0919B0286E001
:102A00008083E0919802F0919902808180618083B7
:102A1000E0919802F0919902808188608083E09132
:102A20009802F0919902808180688083E0919802F9
:102A3000F091990280818F7D808369E671E086E85C
:102A400092E00E942F0A60E771E086E892E00E941F
:102A50002D0A66E671E086E892E00E942F0A6CE794
:102A600071E086E892E00E94040A62E08BE00E9436
:102A7000DF13E8E0FEE08491EAEEFDE00491E6ED8C
:102A8000FDE014911123A1F081110E948713E12F21
:102A9000F0E0EE0FFF1FE954F24FA591B491EC91D5
:102AA000E02391E080E009F490E0092F182F02C0A4
:102AB00000E010E062E971E086E892E00E942D0AF1
:102AC000B80186E892E00E94D40F012B61F46CE912
:102AD00071E086E892E00E94040A81E090E0909321
:102AE0003B0380933A036AE770E086E892E00E9435
:102AF000530A86E190E00E9424266C01EE24E394C0
:102B00000AE023E04EE06BEB71E00E94680E8AE081
:102B100091E0D6018D939C93E0918B03F0918C030F
:102B2000D182C08286E190E00E9424266C0107E0F9
:102B300024E04AE064EC71E00E94680E80E191E0DC
:102B4000F60191838083E0918B03F0918C03D38213
:102B5000C28286E190E00E9424266C01E12C0AE00A
:102B600023E04DE06AEC71E00E94680E86E191E09E
:102B7000D6018D939C93E0918B03F0918C03D582C9
:102B8000C48280913A0390913B03892B31F06CE42D
:102B900071E086E892E00E942F0A80913A039091BA
:102BA0003B03892B61F0E0918B03F0918C036481EE
:102BB00075816E5F7F4F86E892E00E94040A8091E3
:102BC0003A0390913B03892B31F068EA70E086E884
:102BD00092E00E94530A8E010F5F1F4F88E2F801B6
:102BE00011928A95E9F780EE91E09A83898384E1D6
:102BF00090E09C838B83B80189E294E00E942710C7
:102C00008AE094E00E94FE106DED70E086E892E0AC
:102C10000E94530A6CEB70E08091AC039091AD037D
:102C20000E942F0A60E771E08091AC039091AD03A0
:102C30000E942D0A61ED71E08091AC039091AD038B
:102C40000E942D0A6CE771E08091AC039091AD0376
:102C50000E94040A60E372E08091AC039091AD039E
:102C60000E94040A62E070E080E090E00E94AB11F4
:102C70000E949F110E947E1184ED91E00E945E11DE
:102C80008DE893E00E94FE10809138039091390303
:102C90009093600380935F0380913A0390913B038C
:102CA000892B31F068E271E086E892E00E942F0AF9
:102CB00080913A0390913B03892B51F060918903F5
:102CC00070918A036E5F7F4F86E892E00E94040A4B
:102CD00061E171E086E892E00E942F0A6091890329
:102CE00070918A036E5F7F4F86E892E00E942D0A02
:102CF00061EF70E086E892E00E942F0A60915F0326
:102D00007091600386E892E00E94D40F60915F03A7
:102D10008DE00E94B013E0918903F0918A036589E8
:102D2000809133030E94B0139E012F5F3F4F190122
:102D3000B8EE4B2EB3E05B2E612C712C0E94401438
:102D40004B015C0160933304709334048093350429
:102D500090933604E0902D04F0902E048091370477
:102D600090913804A0913904B0913A04B501A401BE
:102D7000481B590B6A0B7B0BF701EE0FFF1FE55C3D
:102D8000FB4F80819181092E000CAA0BBB0B4817C9
:102D900059076A077B0708F458C06BE374E089E2BF
:102DA00094E00E94D10E0197E816F906DCF010922B
:102DB0002E0410922D0480912F04909130040196DE
:102DC0009093300480932F0480913B0490913C04B5
:102DD0001816190674F541E050E050932C04409306
:102DE0002B042BC0C701019690932E0480932D04D1
:102DF000009751F420912F04309130042F5F3F4F02
:102E00003093300420932F04880F991FFC01E55C58
:102E1000FB4F80819181181619065CF4C701029658
:102E200062E070E00E94F62590932C0480932B04BE
:102E300004C010922C0410922B04809237049092BC
:102E40003804A0923904B0923A0460912B04809126
:102E500029040E94B0138091AE039091AF0318161D
:102E600019060CF072C18AE094E00E94790F0E946A
:102E7000E4108091AE039091AF030197C9F44091A3
:102E8000B4035091B5036091B6037091B70380917C
:102E9000340390913503A0913603B091370348175E
:102EA00059076A077B0721F460E08DE00E94B013A8
:102EB0000E9440142091AE033091AF03232B09F4FC
:102EC00048C0C090B003D090B103E090B203F0903E
:102ED000B3036C197D098E099F09A30192010E9419
:102EE00083258091B4039091B503A091B603B0916E
:102EF000B70382179307A407B50758F563E576E093
:102F000086E892E00E94530A6FE376E08091AC037A
:102F10009091AD030E94530AE0900804F0900904D8
:102F200080913A0390913B03892B31F064E376E082
:102F300086E892E00E94530AD801E8E21D92EA95E1
:102F4000E9F7B801C7010E9427101092AF03109251
:102F5000AE038091AC039091AD03DC01ED91FC9147
:102F60000084F185E02D0995892B09F4E1C0809159
:102F7000AC039091AD03DC01ED91FC910084F185EF
:102F8000E02D0995892B09F4C9C08091AC0390917B
:102F9000AD03DC01ED91FC910284F385E02D0995F0
:102FA000F82E80913A0390913B03892B31F062E136
:102FB00076E086E892E00E942F0A80913A03909191
:102FC0003B03892B49F06F2D86E892E00E94260A88
:102FD00086E892E00E94000A68EB73E089EE91E0D7
:102FE0000E946027892B19F4F092C803C0CF68EBC8
:102FF00073E08EEE91E00E946027892B09F073C088
:1030000080913A0390913B03892B31F061EC75E09C
:1030100086E892E00E942F0A80913A0390913B0348
:10302000892B29F06F2D86E892E00E94260A809174
:103030003A0390913B03892B31F061ED71E086E812
:1030400092E00E942D0A80913A0390913B03892BD4
:1030500031F068EC73E086E892E00E94040A809107
:10306000D8039091D903FC01E455FC4FF48E0196EE
:103070009093D9038093D8038091AC039091AD03D2
:10308000DC01ED91FC910190F081E02D6F2D09950F
:10309000BDE0FB1619F0EAE0FE1269CF60E372E0D2
:1030A0008091AC039091AD030E94040A63EB75E03C
:1030B0008091AC039091AD030E942F0A68EC73E0FD
:1030C0008091AC039091AD030E94040A60E372E02A
:1030D0008091AC039091AD030E94040A1092D90331
:1030E0001092D80344CF67ED75E086E892E00E9425
:1030F000530A8091AC039091AD03DC01ED91FC91FA
:103100000190F081E02D6F2D099560E372E08091D0
:10311000AC039091AD030E94040A29CF609134035F
:103120007091350380913603909137030E94AB1163
:103130008091D8039091D903892B09F033C68091EF
:10314000C80318160CF432C62DC68DE893E00E9411
:10315000790F80913A0390913B03892B31F06EE116
:103160007BE086E892E00E942F0A0E944014AB01A7
:10317000BC014093610350936203609363037093B7
:10318000640380913A0390913B03892B29F02AE054
:1031900086E892E00E94B70980913A0390913B0340
:1031A000892B31F06AE172E086E892E00E94040A1D
:1031B000C0906903D0906A03E0906B03F0906C03B9
:1031C00080912B0390912C03A0912D03B0912E039D
:1031D000C80ED91EEA1EFB1EC0927D03D0927E034C
:1031E000E0927F03F092800320916D0330916E0393
:1031F00040916F0350917003211531054105510530
:1032000041F420912F0330913003409131035091CC
:103210003203A8EEB3E00E94A525C60ED71EE81E15
:10322000F91EC0928103D0928203E0928303F09250
:10323000840380913A0390913B03892B31F068E03D
:103240007BE086E892E00E942F0A80913A039091F9
:103250003B03892B61F040917D0350917E03609187
:103260007F037091800386E892E00E94B410809101
:103270003A0390913B03892B31F061EF7AE086E8C5
:1032800092E00E942F0A80913A0390913B03892B90
:1032900061F04091810350918203609183037091AA
:1032A000840386E892E00E94B410C0902703D09077
:1032B0002803E0902903F0902A0380912B0390913A
:1032C0002C03A0912D03B0912E03C80ED91EEA1E27
:1032D000FB1E20912F033091300340913103509118
:1032E0003203A8EEB3E00E94A525C60ED71EE81E45
:1032F000F91EC0927903D0927A03E0927B03F09298
:103300007C0380913A0390913B03892B31F06EED61
:103310007AE086E892E00E942F0A80913A03909129
:103320003B03892B61F040916503509166036091E6
:1033300067037091680386E892E00E94B410809160
:103340003A0390913B03892B31F061EC7AE086E8F7
:1033500092E00E942F0A80913A0390913B03892BBF
:1033600061F04091690350916A0360916B03709121
:103370006C0386E892E00E94B41080913A03909129
:103380003B03892B31F06AEA7AE086E892E00E94FA
:103390002F0A80913A0390913B03892BC1F0409111
:1033A00061035091620360916303709164038091A3
:1033B000650390916603A0916703B0916803481B71
:1033C000590B6A0B7B0B86E892E00E94B410809147
:1033D0003A0390913B03892B31F06AE87AE086E862
:1033E00092E00E942F0A80913A0390913B03892B2F
:1033F000C1F0409161035091620360916303709149
:1034000064038091690390916A03A0916B03B0916A
:103410006C03481B590B6A0B7B0B86E892E00E94F9
:10342000B41080913A0390913B03892B31F062E70D
:103430007AE086E892E00E942F0A80913A03909108
:103440003B03892B61F04091790350917A0360919D
:103450007B0370917C0386E892E00E94B410809117
:103460003A0390913B03892B31F066E57AE086E8D8
:1034700092E00E942F0A80913A0390913B03892B9E
:1034800091F0209123033091240340912503509122
:103490002603A8EEB3E00E94A525AB01BC0186E897
:1034A00092E00E94B41080913A0390913B03892BE3
:1034B00031F067E37AE086E892E00E942F0A80917B
:1034C0003A0390913B03892BC9F040916D035091D1
:1034D0006E0360916F037091700341155105610592
:1034E000710541F440912F035091300360913103F5
:1034F0007091320386E892E00E94B41080913A0302
:1035000090913B03892B31F06AE27AE086E892E001
:103510000E942F0A80913A0390913B03892BF9F086
:1035200020916D0330916E0340916F0350917003B1
:10353000211531054105510541F420912F033091AA
:1035400030034091310350913203A8EEB3E00E9462
:10355000A525AB01BC0186E892E00E94B4108091E1
:103560003A0390913B03892B31F06CE07AE086E8D6
:1035700092E00E942F0A80913A0390913B03892B9D
:1035800061F040912B0350912C0360912D037091B9
:103590002E0386E892E00E94B41080913A03909145
:1035A0003B03892B31F068E07AE086E892E00E94E4
:1035B000530A8091610390916203A0916303B091DB
:1035C00064034091650350916603609167037091B5
:1035D0006803841B950BA60BB70B409127035091F2
:1035E00028036091290370912A03481759076A0735
:1035F0007B0708F0D5C380913A0390913B03892B58
:1036000031F06FED79E086E892E00E942F0A809118
:103610003A0390913B03892B51F06091890370919B
:103620008A036E5F7F4F86E892E00E94040A8091D1
:103630003A0390913B03892B31F063EB79E086E804
:1036400092E00E942F0A80913A0390913B03892BCC
:1036500049F0E0918903F0918A03628986E892E05B
:103660000E94D0108091850390918603DC01ED913A
:10367000FC910084F185E02D0995892B09F46FC137
:103680008091850390918603DC01ED91FC9100848B
:10369000F185E02D0995892B09F449C2F0905E036C
:1036A000BFE0BF1538F0E0918903F0918A03828969
:1036B000F81618F00E94C710E3CF8091850390910F
:1036C0008603DC01ED91FC910284F385E02D0995E0
:1036D000EF2DF0E0E25BFC4F808380913A03909104
:1036E0003B03892B31F061EB79E086E892E00E94A0
:1036F0002F0A80913A0390913B03892B41F04AE0D5
:1037000050E060915E0386E892E00E94160A809184
:103710003A0390913B03892B31F06FEA79E086E818
:1037200092E00E942F0AE0915E03F0E0E25BFC4F22
:10373000608180ED860F8A3028F0862F8F7D81543E
:10374000863050F480913A0390913B03892B21F00D
:1037500086E892E00E94260A80913A0390913B030A
:10376000892B31F06FE172E086E892E00E942D0A29
:1037700080913A0390913B03892B61F0E0915E03C5
:10378000F0E0E25BFC4F40E150E0608186E892E0CF
:103790000E94160A80913A0390913B03892B31F0E5
:1037A0006FE172E086E892E00E942D0A80913A0370
:1037B00090913B03892B61F0E0915E03F0E0E25BC6
:1037C000FC4F4AE050E0608186E892E00E94160AD1
:1037D000E0918903F0918A03E289E15080915E03D0
:1037E000811106C090914E03923009F063CFF9C663
:1037F000E81316C0F0E0E25BFC4F9081933039F1A2
:103800000E94C71080913A0390913B03892B09F4E1
:1038100037CF60E372E086E892E00E94040A30CF7E
:10382000E81770F3803160F78E1798F48F5F8093FC
:103830005E0380913A0390913B03892B09F420CFDA
:1038400061E272E086E892E00E942D0A19CF803191
:10385000B8F680913A0390913B03892B31F060E3F5
:1038600072E086E892E00E94040A80913A03909107
:103870003B03892B31F068E779E086E892E00E940B
:103880002F0A80913A0390913B03892B51F060916C
:10389000890370918A036E5F7F4F86E892E00E94F1
:1038A000040A80913A0390913B03892B31F06CE339
:1038B00079E086E892E00E94530A80918903909112
:1038C0008A03DC01ED91FC910190F081E02D6EE422
:1038D00073E009956B017C0180913A0390913B0361
:1038E000892B31F063E279E086E892E00E942F0AAA
:1038F00080913A0390913B03892B31F0B701A601E7
:1039000086E892E00E94B410C114D104E104F104ED
:10391000B9F081E090E00E94EA0F809161039091FC
:103920006203A0916303B091640380936503909355
:103930006603A0936703B093680367E179E002C070
:1039400069E079E086E892E00E942F0AB701A601BB
:1039500086E892E00E94B4100E94C710E8C0C090B0
:103960006103D0906203E0906303F0906403809061
:10397000650390906603A0906703B0906803A70169
:103980009601281939094A095B0929A73AA74BA7C3
:103990005CA720916D0330916E0340916F035091AD
:1039A0007003211531054105510541F420912F0384
:1039B000309130034091310350913203A8EEB3E0CF
:1039C0000E94A52529A53AA54BA55CA562177307FA
:1039D0008407950728F089288A288B2809F0A7C032
:1039E0008091810390918203A0918303B09184031D
:1039F000C816D906EA06FB0668F48091690390911F
:103A00006A03A0916B03B0916C03892B8A2B8B2BDB
:103A100009F007C56EEB78E086E892E00E942F0A75
:103A2000C0906503D0906603E0906703F090680350
:103A3000C114D104E104F10409F4EDC480916103DF
:103A400090916203A0916303B0916403BC01CD0126
:103A50006C197D098E099F09A30192010E9483259B
:103A6000BA01A9012AE086E892E00E94B70961EB59
:103A700078E086E892E00E942F0A69E978E086E81B
:103A800092E00E942F0AC0906903D0906A03E090F0
:103A90006B03F0906C03C114D104E104F10409F448
:103AA000BDC48091610390916203A0916303B091C2
:103AB0006403BC01CD016C197D098E099F09A30126
:103AC00092010E948325BA01A9012AE086E892E0CA
:103AD0000E94B7096CE878E086E892E00E94530AF9
:103AE00080913A0390913B03892B31F06AE578E0AD
:103AF00086E892E00E94530AE0918903F0918A03DC
:103B0000658931E06327809133030E94B01380916F
:103B1000610390916203A0916303B0916403809369
:103B2000690390936A03A0936B03B0936C03809135
:103B30003A0390913B03892B31F068E478E086E802
:103B400092E00E94530A80913A0390913B03892BA3
:103B500031F065E378E086E892E00E942F0A8091D8
:103B60003A0390913B03892B61F04091650350919A
:103B70006603609167037091680386E892E00E9493
:103B8000B41080913A0390913B03892B31F068E1A6
:103B900078E086E892E00E942F0A80913A039091A3
:103BA0003B03892B61F04091690350916A03609156
:103BB0006B0370916C0386E892E00E94B4108091D0
:103BC0003A0390913B03892B31F061E078E086E87D
:103BD00092E00E942F0A80913A0390913B03892B37
:103BE000C1F0409161035091620360916303709151
:103BF00064038091650390916603A0916703B0917F
:103C00006803481B590B6A0B7B0B86E892E00E9405
:103C1000B41080913A0390913B03892B31F061EE0F
:103C200077E086E892E00E942F0A80913A03909113
:103C30003B03892BC1F04091610350916203609175
:103C40006303709164038091690390916A03A0916A
:103C50006B03B0916C03481B590B6A0B7B0B86E816
:103C600092E00E94B41080913A0390913B03892B1B
:103C700031F069EC77E086E892E00E942F0A8091AB
:103C80003A0390913B03892B61F040917903509165
:103C90007A0360917B0370917C0386E892E00E9436
:103CA000B41080913A0390913B03892B31F06DEA77
:103CB00077E086E892E00E942F0A80913A03909183
:103CC0003B03892B91F020912303309124034091F1
:103CD000250350912603A8EEB3E00E94A525AB0171
:103CE000BC0186E892E00E94B41080913A03909162
:103CF0003B03892B31F069EA77E086E892E00E9485
:103D0000530A8091650390916603A0916703B09177
:103D1000680389A79AA7ABA7BCA7E0913A03F091E3
:103D20003B03C0906103D0906203E0906303F09086
:103D30006403892B8A2B8B2B09F097C3809169032D
:103D400090916A03A0916B03B0916C030097A10559
:103D5000B10509F48AC3A7019601281B390B4A0B48
:103D60005B0BDA01C901813D9740A105B10508F45B
:103D70007CC3EF2B31F063E677E086E892E00E94A7
:103D8000530A80918703909188030E949C0E80E0E3
:103D900090E00E94EA0F60915F038DE00E94B013F3
:103DA0000E94E4100E94F0080C949E1683E292E0B8
:103DB0000E94E711882309F456C080913A0390913C
:103DC0003B03892B31F064E875E086E892E00E94BD
:103DD000530A8091C8038D3009F40DC38A3009F469
:103DE0000AC364E871E08091AC039091AD030E9436
:103DF0002F0A68EC73E08091AC039091AD030E94B0
:103E0000040A60E372E08091AC039091AD030E94DC
:103E1000040A4AE050E060E070E088EC93E00E9421
:103E20005124E2EFF3E020E030E0C190D190E19046
:103E3000F190CD28CE28CF2881F4220F331F220FF6
:103E4000331FF901EE50FC4F6083718382839383AB
:103E500080E392E00E945E1192C02F5F3F4F2530B9
:103E6000310519F7C8C284ED91E00E94E71188235B
:103E700009F4BDC080913A0390913B03892B31F046
:103E80006CE175E086E892E00E94530AF090C80366
:103E900080913A0390913B03892B31F06AE072E004
:103EA00086E892E00E942F0A80913A0390913B03AA
:103EB000892B29F06F2D86E892E00E94260A8091D6
:103EC0003A0390913B03892B31F063EF71E086E870
:103ED00092E00E942D0A80913A0390913B03892B36
:103EE00029F06F2D86E892E00E94260A80913A031D
:103EF00090913B03892B31F066EF71E086E892E008
:103F00000E94040A8F2D0E9433139093070480931C
:103F1000060480913A0390913B03892B31F064EEC3
:103F200071E086E892E00E942F0A80913A03909116
:103F30003B03892B41F0609106047091070486E8E9
:103F400092E00E94D40FB2E3FB16E1F0BF153CF003
:103F5000E0E3FE1671F0F1E3FF1689F052C224E3AC
:103F6000F216B1F1F2161CF135E3F31609F431C281
:103F700048C260E070E0CB010E94AB1139C20E94E0
:103F8000FC1136C26CED71E08091AC039091AD03F1
:103F90000E94530A6EEA71E08091AC039091AD03E8
:103FA0000E942F0A0E947E1188E191E01FC263EAFD
:103FB00071E08091AC039091AD030E94530A60E3DD
:103FC00072E08091AC039091AD030E94040A10C28C
:103FD00062E971E08091AC039091AD030E94530AB5
:103FE0008091AC039091AD030E94000A01C288EF5A
:103FF00091E00E94E711882309F4F1C080913A030F
:1040000090913B03892B31F066EE74E086E892E0F4
:104010000E94530AF090C80380913A0390913B03A9
:10402000892B31F065E373E086E892E00E942F0A65
:1040300080913A0390913B03892B49F06F2D86E8DC
:1040400092E00E94260A86E892E00E94000A8F2DE4
:104050000E943313909307048093060480913A03DF
:1040600090913B03892B31F065E073E086E892E0A4
:104070000E942F0A80913A0390913B03892B41F0D3
:10408000609106047091070486E892E00E94D40FC4
:104090008F2DFF0C990BAA0BBB0BFC01F097E9309D
:1040A000F10508F096C1EC5CFF4F0C940A266DEE0A
:1040B00072E08091AC039091AD030E942F0A409171
:1040C000230350912403609125037091260361C05E
:1040D00063ED72E08091AC039091AD030E942F0AD2
:1040E00040912703509128036091290370912A037E
:1040F00050C067EB72E08091AC039091AD030E94D9
:104100002F0A40912B0350912C0360912D03709145
:104110002E033FC06AE972E08091AC039091AD0339
:104120000E942F0A40912F03509130036091310378
:10413000709132032EC06FE772E08091AC039091D2
:10414000AD030E942F0A609133038091AC039091DC
:10415000AD030E94D01036C06DE672E08091AC03D2
:104160009091AD030E942F0A60913803709139033A
:1041700023C06DE572E08091AC039091AD030E9485
:104180002F0A4091340350913503609136037091AA
:1041900037038091AC039091AD030E94B41012C01C
:1041A0006EE472E08091AC039091AD030E942F0AFF
:1041B00060913A0370913B038091AC039091AD0301
:1041C0000E94D40F6FE272E08091AC039091AD0336
:1041D0000E942F0A0E947E118CE092E007C18CE0C1
:1041E00092E00E94E711882309F4F6C080913A0317
:1041F00090913B03892B31F064EB74E086E892E008
:104200000E942F0A80913A0390913B03892B61F021
:104210004091060450910704052E000C660B770BA5
:1042200086E892E00E94A20F80913A0390913B03AE
:10423000892B31F061ED71E086E892E00E942D0A51
:1042400080913A0390913B03892B31F068EC73E045
:1042500086E892E00E94040AE0900604F0900704C9
:1042600080913A0390913B03892B31F065E374E030
:1042700086E892E00E942F0A80913A0390913B03D6
:10428000892B29F0B70186E892E00E94D40F44E020
:10429000E416F10409F46FC0ECF4EA94EF2809F095
:1042A000B3C069EC73E086E892E00E942F0A4AE00E
:1042B00050E060E070E088EC93E00E945124AB0194
:1042C000BC01409323035093240360932503709310
:1042D00026036BC097E0E916F104E1F0A8E0EA16C6
:1042E000F10409F091C069E573E086E892E00E946C
:1042F0002F0A4AE050E060E070E088EC93E00E9412
:10430000512470933B0360933A0386E892E00E9445
:10431000D40F4FC063E074E086E892E00E942F0A59
:104320004AE050E060E070E088EC93E00E945124A5
:104330006A3071058105910548F0609334037093EC
:10434000350380933603909337030CC02AE030E0A6
:1043500040E050E02093340330933503409336031C
:1043600050933703409134035091350360913603E5
:10437000709137031AC06AE873E086E892E00E9401
:104380002F0A4AE050E060E070E088EC93E00E9481
:104390005124AB01770F660B770B40932F0350939B
:1043A0003003609331037093320386E892E00E94F9
:1043B000B41060913403709135038091360390916D
:1043C00037030E94AB114FEF5FEF50930704409308
:1043D00006040E9498120CC06BE574E086E892E037
:1043E0000E94530A0E947E1184ED91E00E945E11AA
:1043F0000E949F11D7CC63E575E086E892E00E94A9
:10440000530A0E945A12F4CF64E874E086E892E0FE
:104410000E94530AD8CF6BEA78E02BCB66E878E0AD
:104420005BCB80917D0390917E03A0917F03B0913F
:104430008003C816D906EA06FB0608F478CB8091FB
:104440003A0390913B03892B31F06CED78E086E8DC
:1044500092E00E94530AE0918903F0918A036589F2
:10446000809133030E94B01362CB4601570189A5A6
:104470009AA5ABA5BCA5881A990AAA0ABB0A2091DD
:104480002303309124034091250350912603A8EE85
:10449000B3E00E94A525681579058A059B0518F5E6
:1044A0002091690330916A0340916B0350916C0332
:1044B0002115310541055105B1F0C21AD30AE40AAC
:1044C000F50AC814D904EA04FB0468F441EDC416E3
:1044D00047E0D406E104F10430F0EF2B09F451CCAD
:1044E00060E477E04ACC29A53AA54BA55CA5232B2F
:1044F000242B252B09F46BC0C0907903D0907A034C
:10450000E0907B03F0907C03C814D904EA04FB0418
:1045100050F5681579058A059B0508F458C0EF2BFE
:1045200031F06FE177E086E892E00E94530AE09074
:104530008703F090880380913A0390913B03892B85
:1045400031F06BE976E086E892E00E94530AD101EF
:10455000E8E21D92EA95E9F726E430E03A83298300
:104560003C832B832DC0EF2B31F068EF76E086E89B
:1045700092E00E94530AE0908703F09088038091B4
:104580003A0390913B03892B31F06CE776E086E8A3
:1045900092E00E942F0AD101E8E21D92EA95E9F724
:1045A00028EE33E03A83298380913A0390913B03CC
:1045B000892B31F068EE73E086E892E00E94D40F18
:1045C000B101C7010E94271081E090E0E2CBEF2B00
:1045D00009F4E1CB6CEA76E086E892E00E94530AA7
:1045E000DACBE11123C906C9CF93DF93C0E5D1E04F
:1045F000D0938E03C0938D038DE893E00E94520EFA
:10460000D0930B04C0930A048AE094E0DF91CF9129
:104610000C94520ECF92DF92FF920F931F93CF9381
:10462000DF93E6E8F2E01382128288EE93E0A0E0E6
:10463000B0E084839583A683B78322E631E031839B
:10464000208325EC30E03587248724EC30E0378761
:10465000268720EC30E0318B208B21EC30E0338B4F
:10466000228B22EC30E0358B248B26EC30E0378B2C
:10467000268B118E128E138E148EC3E2D3E04FE080
:1046800050E060E070E0488359836A837B838C83C9
:104690009D83AE83BF8386E990E0A0E0B0E0888789
:1046A0009987AA87BB8785E090E0A0E0B0E08C877F
:1046B0009D87AE87BF87888B8CE390E0A0E0B0E059
:1046C000898B9A8BAB8BBC8B188E1F8A87E0EAE2B2
:1046D000F1E0ACE3B3E001900D928A95E1F7E3E4F9
:1046E000F3E089E0DF011D928A95E9F781E090E02F
:1046F0009AA789A79E8B8D8B86E090E00E94242646
:10470000EC0190938C0380938B0309E214E088E022
:1047100090E0F801918380831382128215821482C3
:1047200017821682118610860E944014D8011A96AC
:104730006D937D938D939C931D97F8011686178634
:10474000108A118A88E2EBE3F4E0DF011D928A957A
:10475000E9F743E062E08AE094E00E94140F8CEAFB
:1047600093E02AE034E0FC013183208325E0EAE392
:10477000F1E0A8EBB3E001900D922A95E1F7EDEBA3
:10478000F3E02BE0DF011D922A95E9F720E1F22EFC
:10479000E8ECF3E0DF012F2D1D922A95E9F7DC010B
:1047A0009D961C921E929C971092DB031092DA0346
:1047B000ECEDF3E086E1DF011D928A95E9F7E2EF87
:1047C000F3E084E1DF011D928A95E9F78DEC9BEA25
:1047D000A4E3B2E180839183A283B38384E392E173
:1047E000ADECBBEA8093F6039093F703A093F80334
:1047F000B093F9038CE69DE7AEE8BFE98093FA0336
:104800009093FB03A093FC03B093FD031093090462
:104810000093080446E064E08DE893E00E94140FE2
:10482000CC80DD80CEE4D3E0FE011192FA94E9F76A
:10483000188A1A8A198A0E9440146B8B7C8B8D8B84
:104840009E8B1F8A188E198E1A8E1B8E1C8E1D8EA3
:104850001E8E1F8E18A219A21AA21BA21CA21DA294
:104860001EA21FA218A619A61AA61BA61CA61DA644
:104870001EA61FA618AA19AA1AAA1BAA1CAA1DAA14
:104880001EAA8DE893E098AF8FAB1AAF09AFDCAEEC
:10489000CBAEDF91CF911F910F91FF90DF90CF9022
:1048A0000895A0E0B0E0E7E5F4E20C94B1255C01E6
:1048B0006B017A016115710519F0FB019183808309
:1048C000E114F10429F0C7010297839708F0E5C0CD
:1048D000E5012196F5011081812F90E00E94672566
:1048E000892B11F05E01F4CF1D3229F42196F501D8
:1048F000118101E007C01B3221F4E5012296F50188
:10490000118100E0E114F10409F1F0E1EF16F10486
:1049100029F43FC010E3E114F10421F128E0E2168C
:10492000F10401F154F4E2E0EE16F10421F5812CDA
:10493000912CA12CB0E4BB2E3EC0FAE0EF16F1049E
:1049400039F020E1E216F104B1F430C0103319F16E
:10495000FAE0EF2EF12CACEC8A2E982CA82CACE0CF
:10496000BA2E29C078E0E72EF12C812C912CA12CB5
:10497000E0E1BE2E20C060E070E080E090E89701AA
:104980000F2C000C440B550B0E94832549015A0142
:1049900012C0103359F488818F7D883509F0BACF61
:1049A00019812296026080E1E82EF12C812C912C55
:1049B000A12C68E0B62E40E060E070E0CB0127015A
:1049C0000F2C000C66087708FE0150ED352E310ED5
:1049D00029E0231570F42FEB210F2A3118F439EC5C
:1049E000332E06C02FE9210F2A3118F529EA322E7D
:1049F000310E232D30E02E153F05DCF447FD16C0A7
:104A000086169706A806B90670F0A30192010E94C7
:104A10007325630D711D811D911D61307105810527
:104A200020E8920710F04FEF01C041E0219610817D
:104A3000CBCF202F2170C114D10471F0442329F071
:104A40002197F601D183C08307C001FF19C02297C7
:104A5000F601D183C08314C047FF12C0222329F07E
:104A600060E070E080E090E804C06FEF7FEF8FEFD0
:104A70009FE722E230E030936D0420936C0409C07C
:104A8000222381F090958095709561957F4F8F4F8F
:104A90009F4F462F372F282F12C040E030E020E0F4
:104AA00090E00DC097FFF5CF82E290E090936D0407
:104AB00080936C046FEF7FEF8FEF9FE7EACF642F57
:104AC000732F822FCDB7DEB7E1E10C94CD25911184
:104AD0000C947025803219F089508550C8F70895DC
:104AE000992788270895DB018F939F930E94A5251E
:104AF000BF91AF91A29F800D911DA39F900DB29F7A
:104B0000900D11240895A1E21A2EAA1BBB1BFD01D2
:104B10000DC0AA1FBB1FEE1FFF1FA217B307E4079C
:104B2000F50720F0A21BB30BE40BF50B661F771FF4
:104B3000881F991F1A9469F76095709580959095D4
:104B40009B01AC01BD01CF0108950E94E725A59FFF
:104B5000900DB49F900DA49F800D911D1124089578
:104B60002F923F924F925F926F927F928F929F927D
:104B7000AF92BF92CF92DF92EF92FF920F931F936B
:104B8000CF93DF93CDB7DEB7CA1BDB0B0FB6F8941C
:104B9000DEBF0FBECDBF09942A88398848885F845C
:104BA0006E847D848C849B84AA84B984C884DF80CD
:104BB000EE80FD800C811B81AA81B981CE0FD11DB1
:104BC0000FB6F894DEBF0FBECDBFED010895A29FD2
:104BD000B001B39FC001A39F700D811D1124911DD1
:104BE000B29F700D811D1124911D089597FB072E12
:104BF00016F4009407D077FD09D00E94102607FC18
:104C000005D03EF4909581959F4F089570956195DC
:104C10007F4F0895EE0FFF1F0590F491E02D09944A
:104C2000AA1BBB1B51E107C0AA1FBB1FA617B707D2
:104C300010F0A61BB70B881F991F5A95A9F78095EE
:104C40009095BC01CD0108950F931F93CF93DF93EF
:104C50008230910510F482E090E0E0917004F091D0
:104C6000710420E030E0A0E0B0E0309719F140811D
:104C700051810281138148175907C8F0841795079D
:104C800069F4109731F012960C93129713961C93B7
:104C900027C0009370041093710422C021153105C0
:104CA00019F04217530718F49A01BD01EF01DF0113
:104CB000F801DBCF21153105F9F0281B390B243021
:104CC000310580F48A819B816115710521F0FB011A
:104CD0009383828304C09093710480937004FE01D7
:104CE000329644C0FE01E20FF31F8193919322504C
:104CF0003109398328833AC020916E0430916F04C2
:104D0000232B41F4209102013091030130936F0471
:104D100020936E042091000130910101211531058D
:104D200041F42DB73EB74091040150910501241B79
:104D3000350BE0916E04F0916F04E217F307A0F4D5
:104D40002E1B3F0B2817390778F0AC014E5F5F4FE1
:104D50002417350748F04E0F5F1F50936F044093A0
:104D60006E048193919302C0E0E0F0E0CF01DF9107
:104D7000CF911F910F910895CF93DF93009709F47E
:104D800081C0FC01329713821282A0917004B0910D
:104D90007104109781F420813181820F931F20913B
:104DA0006E0430916F042817390751F5F0936F04A2
:104DB000E0936E0467C0ED0120E030E0CE17DF071E
:104DC00040F44A815B819E0141155105F1F0EA01F1
:104DD000F5CFD383C28340815181840F951FC817BB
:104DE000D90759F488819981840F951F0296918380
:104DF00080838A819B81938382832115310529F4E5
:104E0000F0937104E09370043DC0E901FB83EA83F1
:104E100049915991C40FD51FEC17FD0761F48081AA
:104E20009181840F951F0296E9019983888382817D
:104E300093819B838A83E0E0F0E012968D919C91B0
:104E40001397009719F0FD01DC01F7CF8D919C912C
:104E500011979D012E5F3F4F820F931F20916E048B
:104E600030916F042817390769F4309729F41092AC
:104E700071041092700402C013821282B0936F0406
:104E8000A0936E04DF91CF91089581E090E0F894B3
:104E90000C942B2AFB01DC0104C08D910190801938
:104EA00021F441505040C8F7881B990B0895FB012D
:104EB000DC0102C001900D9241505040D8F7089596
:104EC000FB01DC018D91019080190110D9F3990B40
:104ED0000895FB01DC014150504048F001900D92D3
:104EE0000020C9F701C01D9241505040E0F70895DD
:104EF000AEE0B0E0EEE7F7E20C94BE250D891E8926
:104F000086E08C831A8309838FEF9FE79E838D83CE
:104F1000AE01475E5F4F6F89788DCE0101960E948A
:104F20009A27EF81F885E00FF11F10822E96E4E0BA
:104F30000C94DA25ABE0B0E0E0EAF7E20C94B0259F
:104F40006C017B018A01FC0117821682838181FF3B
:104F5000CCC1CE0101963C01F6019381F70193FD8E
:104F6000859193FF81917F01882309F4BAC185322D
:104F700039F493FD859193FF81917F01853229F466
:104F8000B60190E00E949129E7CF912C212C312C81
:104F9000FFE1F315D8F08B3279F038F4803279F0F4
:104FA0008332A1F4232D20611DC08D3261F0803346
:104FB00069F4232D216016C0832D8260382EE32DE5
:104FC000E4603E2E2AC0F32DF8601DC037FC2DC0D2
:104FD00020ED280F2A3040F08E32B9F436FC81C122
:104FE000232D2064322E19C036FE06C08AE0989E1A
:104FF000200D1124922E11C0EAE02E9E200D1124C6
:10500000222EF32DF0623F2E08C08C3621F4832D22
:105010008068382E02C0883641F4F70193FD8591EF
:1050200093FF81917F018111B3CF982F9F7D95547C
:10503000933028F40C5F1F4F9FE399830DC0833694
:1050400031F0833771F0833509F059C021C0F80180
:10505000808189830E5F1F4F88248394912C530194
:1050600013C02801F2E04F0E511CF801A080B1805E
:1050700036FE03C0692D70E002C06FEF7FEFC501FF
:105080000E9486294C018201F32DFF773F2E16C026
:10509000280122E0420E511CF801A080B18036FEAA
:1050A00003C0692D70E002C06FEF7FEFC5010E9461
:1050B0007B294C01F32DF0683F2E820133FC1BC08D
:1050C000822D90E088169906B0F4B60180E290E057
:1050D0000E9491292A94F4CFF50137FC859137FE7F
:1050E00081915F01B60190E00E94912921102A94DC
:1050F00021E0821A91088114910471F7E8C0843686
:1051000011F0893641F5F80137FE07C060817181E1
:10511000828193810C5F1F4F08C060817181072ECF
:10512000000C880B990B0E5F1F4FF32DFF763F2E5F
:1051300097FF09C090958095709561957F4F8F4F2F
:105140009F4FF0683F2E2AE030E0A3010E94CD2956
:10515000882E861845C0853731F4232D2F7EB22E38
:105160002AE030E025C0932D997FB92E8F36C1F00B
:1051700018F4883579F0B5C0803719F0883721F0F8
:10518000B0C0E92FE061BE2EB4FE0DC0FB2DF4606F
:10519000BF2E09C034FE0AC0292F2660B22E06C0D9
:1051A00028E030E005C020E130E002C020E132E03C
:1051B000F801B7FE07C060817181828193810C5F25
:1051C0001F4F06C06081718180E090E00E5F1F4F2D
:1051D000A3010E94CD29882E8618FB2DFF773F2E34
:1051E00036FE0DC0232D2E7FA22E891458F434FED6
:1051F0000BC032FC09C0832D8E7EA82E05C0B82CB2
:10520000A32C03C0B82C01C0B92CA4FE0FC0FE0112
:10521000E80DF11D8081803321F49A2D997EA92E0D
:1052200009C0A2FE06C0B394B39404C08A2D867848
:1052300009F0B394A3FC11C0A0FE06C0B21488F418
:10524000280C922C9B180EC0B21460F4B60180E2B8
:1052500090E00E949129B394F7CFB21418F42B1860
:1052600002C0982C212CA4FE10C0B60180E390E06F
:105270000E949129A2FE17C0A1FC03C088E790E01C
:1052800002C088E590E0B6010CC08A2D867859F0FE
:10529000A1FE02C08BE201C080E2A7FC8DE2B60154
:1052A00090E00E949129891438F4B60180E390E0DF
:1052B0000E9491299A94F7CF8A94F301E80DF11D89
:1052C0008081B60190E00E9491298110F5CF2220C3
:1052D00009F442CEB60180E290E00E9491292A941E
:1052E000F6CFF6018681978102C08FEF9FEF2B9654
:1052F000E2E10C94CC25FC01059061507040011056
:10530000D8F7809590958E0F9F1F0895FC016150EE
:10531000704001900110D8F7809590958E0F9F1FD7
:1053200008950F931F93CF93DF93FB01238121FDFA
:1053300003C08FEF9FEF2CC022FF16C0468157811C
:10534000248135814217530744F4A081B1819D0126
:105350002F5F3F4F318320838C93268137812F5FCE
:105360003F4F3783268314C08B01EC01FB0100847F
:10537000F185E02D0995892BE1F6D80116968D91DE
:105380009C911797019617969C938E931697CE0132
:10539000DF91CF911F910F910895FA01AA2728302C
:1053A00051F1203181F1E8946F936E7F6E5F7F4FF2
:1053B0008F4F9F4FAF4FB1E03ED0B4E03CD0670F6E
:1053C000781F891F9A1FA11D680F791F8A1F911DC1
:1053D000A11D6A0F711D811D911DA11D20D009F411
:1053E00068943F912AE0269F11243019305D319353
:1053F000DEF6CF010895462F4770405D4193B3E03C
:105400000FD0C9F7F6CF462F4F70405D4A3318F0E2
:10541000495D31FD4052419302D0A9F7EACFB4E093
:10542000A6959795879577956795BA95C9F700974B
:105430006105710508959B01AC010A2E06945795EC
:10544000479537952795BA95C9F7620F731F841F43
:10545000951FA01D089517E0C3ECD7E004C0FE011E
:105460000E940A262196C43CD107C9F7F894FFCFC1
:1054700000007204800000000000B90C0000000071
:105480009C0B00000000750A6D656E7541646454E4
:105490006167000000000000650A574C2D3132356D
:1054A000000000000000000000006D656E75000047
:1054B00000000000000000000000230300000000C6
:1054C0001309EE079D09120963097B09FA08000018
:1054D00000008108EE071808CE08490827083B0895
:1054E000302E312E302E7072653833004A756E20A2
:1054F000323620323031392C2031353A35323A3398
:10550000370050696E204431313A200050696E20D6
:10551000443131204C4F57202E2E2E20656E616273
:105520006C696E672064656275670052444D2D3664
:1055300033303000373934314500574C2D31323556
:10554000002C20006D656E7553656C656374656431
:105550004D61696E4974656D0063686172006C69C4
:105560006E650020280029006D656E7553656C65B9
:105570006374656453657474696E67007570646103
:10558000746553657474696E6700202A2A2A003A8C
:10559000002C006D656E75416464546167000D0AEE
:1055A00000256300253032780054616773002E2097
:0255B0000000F9
:00000001FF
