:100000000C9424070C944C070C944C070C94B02DC2
:100010000C94B02D0C94B02D0C944C070C94B22C75
:100020000C944C070C944C070C944C070C944C0704
:100030000C944C070C944C070C944C070C944C07F4
:100040000C94662D0C944C070C94342D0C940E2DAE
:100050000C944C070C944C070C944C070C944C07D4
:100060000C944C070C944C074374726C2063616CC5
:100070006C696E6720454550524F4D2E7570646116
:10008000746520772F73746174653A20002920000D
:10009000465245452052414D2028002530326C699A
:1000A0003A2530326C693A2530326C692E252D3371
:1000B0006C690025734552524F523A200025735700
:1000C00041524E3A200025732020005246494420D8
:1000D00061646D696E20636F6E736F6C652C2000B8
:1000E00075706461746541646D696E54696D656FA6
:1000F000757428292000456E746572696E672072D8
:10010000756E206D6F6465002073657474696E6729
:100110002052756E4D6F646520746F2030004D6500
:100120006E752E6578697441646D696E2829004D7D
:10013000656E752E636C65617253657269616C5092
:100140006F72742829004D656E752E726573657423
:10015000496E7075744275666665722829004D6532
:100160006E752E62756666657252656164792829BE
:100170003A20004D656E752E67657454616746724E
:100180006F6D5363616E6E6572282920666F756EA0
:1001900064207461672000636865636B53657269EE
:1001A000616C506F727420454F4C20696E64783AD0
:1001B0002000636865636B53657269616C506F7290
:1001C000742829207263766420627974653A20006D
:1001D0006164645461672829207375636365737370
:1001E000006164645461672829206661696C6564F4
:1001F0003A2046756C6C006164645461672829205C
:100200006661696C65643A20447570650061646478
:1002100054616728292061626F727465643A2049CD
:100220006E76616C696420636F6465006164645418
:10023000616728292000746167206C6973742069E4
:10024000732066756C6C0074616720697320647537
:10025000706C696361746500696E76616C696420B5
:100260007461672D696420737472696E67007375B9
:100270006363657373004164645461672829207265
:100280006573756C743A200054616720656E7465FF
:100290007265643A200064656C65746554616749F1
:1002A0006E64657828293A200064656C657465542D
:1002B0006167282920726573756C743A2000646543
:1002C0006C65746554616728292061626F7274657A
:1002D00064004D656E752E64656C65746554616768
:1002E00028290064656C657465416C6C54616773A2
:1002F00028290064656C657465416C6C5461677392
:1003000028292061626F727465640075706461747D
:100310006553657474696E6728292061626F727411
:100320006564004D656E752E757064617465536506
:100330007474696E6728293A20004D656E752E62C7
:10034000797465546F41736369694368724E756D62
:10035000207263766420627974653A20006D656E60
:100360007553656C65637465644D61696E49746548
:100370006D20627974657320746F206E756D3A20FC
:10038000006D656E7553656C65637465644D616978
:100390006E4974656D207263766420646174613A9D
:1003A0002000456E746572206F72207363616E2049
:1003B0006120746167206E756D62657220746F20B4
:1003C00073746F7265006D656E7541646454616726
:1003D0002829006D656E7544656C657465546167A8
:1003E0002829006D656E7544656C657465416C6C9B
:1003F0005461677328290046726565204D656D6FED
:1004000072793A20006D656E7553686F7746726534
:10041000654D656D6F72792829006D656E75526541
:10042000626F6F7428290053656C656374206120C6
:1004300073657474696E6720746F206564697400F5
:100440006D656E7553657474696E67732829005401
:100450007970652061206E65772076616C75652006
:10046000666F722073657474696E67003A20006D60
:10047000656E7553656C6563746564536574746902
:100480006E67207365742073656C65637465645F63
:100490006D656E755F6974656D20746F3A20006DCF
:1004A000656E7553656C65637465645365747469D2
:1004B0006E67282900536176652073657474696ED0
:1004C00067733F205B792F4E5D0053657474696ECE
:1004D00067732068617665206E6F74206368616E53
:1004E0006765640053746F7261676520757064613D
:1004F0007465640053746F72616765207570646120
:100500007465206E6F74206E656564656400537455
:100510006E672E7361766520726573756C7420004A
:1005200053617665206E6F74206E65656465640046
:1005300053756363657373210043616C6C696E6707
:1005400020532E736176652829006D656E754861AC
:100550006E646C655361766553657474696E677318
:1005600028290053656C656374206120726561649D
:100570006572006D656E754C697374526561646572
:10058000727328290053656C65637465643A2000B2
:10059000456E7465722041542B20636F6D6D616EE2
:1005A00064004E2F4100436D643A20005061737324
:1005B000776F726400002E00002E005057730054B5
:1005C000726965642070757368696E67206E756CFA
:1005D0006C70747220746F20737461636B002532C9
:1005E000692020257320202573005265616465729F
:1005F00073004C6F6164696E672072656164657237
:1006000020004261736520526561646572206361F8
:100610006C6C65642070726F6365737354616744BA
:1006200061746100546167206E6F742076616C693B
:10063000642F617574686F72697A656420787800D8
:10064000417574686F72697A656420746167207897
:10065000780020002070726F6365737354616720A7
:1006600072637664206275666665723A203078201F
:10067000002C20696E74657276616C206D732000A9
:100680006E6576657200732061676F002C20637958
:10069000636C656420006E65766572007320616727
:1006A0006F006379636C65526561646572506F7742
:1006B0006572207461672072656164200052656113
:1006C000646572206C697374656E002070726F636C
:1006D0006573735461674461746120002C20636802
:1006E00065636B73756D2028646563293A20002C5F
:1006F0002069645F6C656E20002C2069645F656E04
:1007000064200069645F626567696E200020707212
:100710006F636573735461674461746120002C20BA
:1007200063686B736D20286865782920002C206928
:10073000645F6C656E20002C2069645F656E6420C8
:100740000069645F626567696E20002070726F6384
:1007500065737354616744617461200053746172FE
:1007600074757020737461746500000000000000EF
:100770000000000000000047130000CA15000053ED
:100780007461727475702074696D656F75740000A2
:1007900000000000000000000000881200004F155B
:1007A000000041646D696E2074696D656F75740039
:1007B000000000000000000000000000005D1300C9
:1007C00000DB150000536F66742074696D656F75EA
:1007D00074000000000000000000000000000000A5
:1007E00079130000FC150000486172642074696D83
:1007F000656F75740000000000000000000000003C
:10080000000000C9130000301600005265616465E5
:1008100072206379636C6500000000000000000036
:10082000000000000000441200001815000052658E
:10083000616465720000000000000000000000001C
:1008400000000000000000000008130000AA1500CE
:1008500000526561646572206379636C65206C6F1A
:100860007720286D73290000000000009513000018
:100870000E160000546167207265616420736C6518
:10088000657020286D73290000000000000000AF93
:100890001300001F1600004C6F67206C6576656CB6
:1008A0000000000000000000000000000000000048
:1008B00000005E120000291500004C6F6720746F65
:1008C0002042540000000000000000000000000072
:1008D000000000000073120000391500004465623A
:1008E0007567206C6F67206C6576656C0000000092
:1008F000000000000000000032130000BA150000E4
:1009000048572073657269616C20626175640000EC
:100910000000000000000000000000EC1200009742
:1009200015000053572073657269616C2062617510
:100930006400000000000000000000000000D01271
:100940000000841500005265616465722073657251
:1009500069616C20626175640000000000000000A5
:1009600000B412000071150000546F6E65206672AD
:1009700065710000000000000000000000000000A1
:10098000000000009E1200006015000041646D69C7
:100990006E2070617373776F726400000000000056
:1009A00000000000000000371200005B1600002568
:1009B0006C7500256C7500256C7500256C7500251F
:1009C0006C75002569002575002569202825732987
:1009D00000256C6900256C6900256C69002569009B
:1009E0002569002569002568687500256C75002A51
:1009F0002A2A2A2A0000000000240027002A0000DA
:100A000000000800020100000304070000000000CD
:100A100000000002537472672E4C6F61642063689B
:100A20006B736D206D69736D6174636800557369D4
:100A30006E672064656661756C7420736574746993
:100A40006E67732027005573696E672073746F7229
:100A500065642073657474696E677320270053742E
:100A60006E67204C6F616428292063686B736D206A
:100A70006D69736D61746368004661696C7361666A
:100A80006520656E61626C65640053746E67204C0E
:100A90006F6164282920424547494E0053657474AC
:100AA000696E67206F7574707420737769746368FA
:100AB0003A20002C206F75742070696E20002C2065
:100AC000737461746520005374617274696E672079
:100AD000436F6E74726F6C6C6572207769746820F6
:100AE00000537472672E4C6F61642063686B736D82
:100AF000206D69736D617463680054616773206C65
:100B00006F6164656400546167732E4C6F61642883
:100B10002920636865636B73756D206D69736D6102
:100B2000746368004D656E752E426567696E28298D
:100B3000004C6F674C6576656C28292000532E6445
:100B4000656275674D6F6465282920002C20004878
:100B5000572C2053572073657269616C2040200028
:100B600027206F662073697A6520002720776974D3
:100B70006820636865636B73756D20273078004C5F
:100B80006F616465642027002C20002C20632B2BD0
:100B90002000426F6F74696E67205246494420708E
:100BA000726F78696D69747920636F6E74726F6C9F
:100BB0002C20002C200048572C205357207365729E
:100BC00069616C20402000524649442070726F7861
:100BD000696D6974792073656E736F7220707265C8
:100BE0002D626F6F7400636865636B41646D696E3D
:100BF00054696D656F75742829206D6F64652C20AC
:100C000061646D2D746D6F75742C206E6F772C2060
:100C1000707265762D6D733A20004D454E55204C0F
:100C20004F4F5020454E44004D454E55204C4F4FA0
:100C30005020424547494E20004652455348004106
:100C400047494E470054494D454F55540054494D6E
:100C5000454F55540053746F726167652075706419
:100C6000617465640053746F7261676520757064A8
:100C7000617465206E6F74206E656564656400251F
:100C800032692020252D31306C7520203078256C7C
:100C900078002C2073697A652000546167732C20DA
:100CA00063686B736D203078006D656E754C697389
:100CB0007454616773282900253269202025730048
:100CC000457869740000000000000000000000008A
:100CD000F02500000000416464207461670000009A
:100CE00000000000000079210000000044656C65F0
:100CF0007465207461670000000000000225000098
:100D0000000044656C65746520616C6C20746167DB
:100D10007300ED24000000004C6973742074616757
:100D200073000000000000001725000000004C695F
:100D300073742052656164657273000000002C2199
:100D40000000000053686F772066726565206D654E
:100D50006D0000000B240000000042542041542B81
:100D600020636D640000000000003D2500000000CD
:100D700053657474696E6773000000000000000022
:100D80004F2100000000536176652073657474691B
:100D90006E6773000000E922000000005265737462
:100DA000617274000000000000000000D51F000008
:100DB00000004D656E75006D656E754D61696E283C
:100DC00029003A20002532692020252D3238732051
:100DD0002573002C2073697A65200053657474694B
:100DE0006E67732C2063686B736D20307800000091
:100DF0000000230026002900000000002500280034
:100E00002B0004040404040404040202020202028B
:100E100003030303030301020408102040800102BE
:100E2000040810200102040810204D656E752E7212
:100E30006561644C696E655769746843616C6C6286
:100E400061636B282900282E11241FBECFEFD8E044
:100E5000DEBFCDBF12E0A0E0B1E0EEE2F9E702C0F4
:100E600005900D92A43DB107D9F724E0A4EDB2E0BE
:100E700001C01D92AB37B207E1F717E0C4E2D7E03B
:100E800004C02197FE010E941D3CC332D107C9F75F
:100E90000E945C2E0C94953C0C940000FC01208177
:100EA00031811216130644F48281938118161906B3
:100EB00034F482E090E0089590E080E0089581E0CD
:100EC00090E00895CF92DF92EF92FF926B017C0148
:100ED000E0915803F091590382E08083C11481EEC0
:100EE000D806E104F104A1F060E079E08DE390E040
:100EF000A70196010E94633B215031094109510924
:100F00005695479537952795211580E13807A8F024
:100F1000E0915803F0915903108260E874E88EE183
:100F200090E0A70196010E94633B215031094109DD
:100F300051095695479537952795E0915403F091BF
:100F400055033083E0915603F091570320831092AC
:100F50006003E0915C03F0915D0386E08083E091A3
:100F60005A03F0915B03808180618083E0915A0392
:100F7000F0915B03808188608083E0915A03F09157
:100F80005B03808180688083E0915A03F0915B036A
:100F900080818F7D8083FF90EF90DF90CF900895C8
:100FA0002FEF3FEF90E080E0FC01EE0FFF1FEE0F10
:100FB000FF1FE750FC4F40815181628173814115D1
:100FC00051056105710549F42F3F320709F49C0171
:100FD00001968530910544F308950097C9F32F3F9A
:100FE0003207B1F3D901AA0FBB1FAA0FBB1FA7502D
:100FF000BC4F4D935D936D937C9313971082118238
:1010000012821382C9012FEF3FEFE2CFEF92FF92DE
:101010000F931F93CF93DF938C017B01D0E0C0E04F
:10102000F701EC0FFD1F6491662361F0D801ED918B
:10103000FC910190F081E02DC8010995892B11F0F8
:101040002196EECFCE01DF91CF911F910F91FF90AE
:10105000EF900895AF92BF92CF92DF92EF92FF92FE
:101060000F931F93CF93DF936C017B018B01040FD0
:10107000151FEB015E01AE18BF08C017D10759F06C
:101080006991D601ED91FC910190F081E02DC601AE
:101090000995892B79F7C501DF91CF911F910F91A8
:1010A000FF90EF90DF90CF90BF90AF900895FC013C
:1010B000538D448D252F30E0842F90E0821B930BBD
:1010C000541710F0CF96089501970895FC01918D63
:1010D000828D981761F0A28DAE0FBF2FB11D5D9666
:1010E0008C91928D9F5F9F73928F90E008958FEF08
:1010F0009FEF0895FC01918D828D981731F0828DBC
:10110000E80FF11D858D90E008958FEF9FEF089512
:10111000FC01918D228D892F90E0805C9F4F821B76
:1011200091098F739927089588E493E00E948808B5
:1011300021E0892B09F420E0822F089580E090E0DF
:10114000892B29F00E94940881110C9400000895C5
:10115000FC01A48DA80FB92FB11DA35ABF4F2C912C
:10116000848D90E001968F739927848FA689B78923
:101170002C93A089B1898C91837080648C93938D1A
:10118000848D981306C00288F389E02D80818F7DBD
:1011900080830895EF92FF920F931F93CF93DF9375
:1011A000EC0181E0888F9B8D8C8D98131AC0E889A3
:1011B000F989808185FF15C09FB7F894EE89FF8972
:1011C0006083E889F98980818370806480839FBF10
:1011D00081E090E0DF91CF911F910F91FF90EF9010
:1011E0000895F62E0B8D10E00F5F1F4F0F73112720
:1011F000E02E8C8D8E110CC00FB607FCFACFE8895B
:10120000F989808185FFF5CFCE010E94A808F1CF32
:10121000EB8DEC0FFD2FF11DE35AFF4FF0829FB7CE
:10122000F8940B8FEA89FB8980818062CFCFCF93BE
:10123000DF93EC01888D8823B9F0AA89BB89E889FE
:10124000F9898C9185FD03C0808186FD0DC00FB6A4
:1012500007FCF7CF8C9185FFF2CF808185FFEDCF22
:10126000CE010E94A808E9CFDF91CF910895833085
:1012700081F028F4813099F08230A9F00895873008
:10128000A9F08830C9F08430B1F4809180008F7D5E
:1012900003C0809180008F7780938000089584B58B
:1012A0008F7784BD089584B58F7DFBCF8091B0008A
:1012B0008F778093B00008958091B0008F7DF9CF33
:1012C000CF93DF93282F30E0F901E150F64F84915E
:1012D000F901EA5EF14FD491F901EE5FF14FC4914B
:1012E000CC23A1F081110E943709EC2FF0E0EE0F22
:1012F000FF1FE251F24FA591B491EC91ED2381E0F3
:1013000090E009F480E0DF91CF91089580E090E0D3
:10131000FACF88E00E946009892B19F08091470379
:10132000089581E008951F93CF93DF93282F30E035
:10133000F901E150F64F8491F901EA5EF14FD49141
:10134000F901EE5FF14FC491CC23A9F0162F811162
:101350000E943709EC2FF0E0EE0FFF1FE850F24F2C
:10136000A591B4918FB7F894EC91111108C0D09564
:10137000DE23DC938FBFDF91CF911F910895DE2B89
:10138000F8CF9091000189130BC0E3E1FAE0E491FA
:101390009FEF90930001E13049F028F0E23061F0D6
:1013A00060E00C94930910926E00FACF90916F0058
:1013B0009D7F90936F00F4CF909170009D7F9093EC
:1013C000700091E09093B0009091B100987F94608C
:1013D0009093B1001092B300E3CFCF93DF9390E0EE
:1013E000FC01EA5EF14F24918E5F914FFC018491E4
:1013F0008823C9F090E0880F991FFC01EB50F64F4D
:10140000A591B491FC01E850F24FC591D4916111BE
:101410000DC09FB7F8948C91209582238C9388817E
:10142000282328839FBFDF91CF910895623051F424
:101430009FB7F8943C91822F809583238C93E88109
:101440002E2BEFCF8FB7F894EC912E2B2C938FBFD0
:10145000EACF0F931F93CF93DF93EC01162F042F46
:101460001B821A8288EE93E0A0E0B0E08C839D831B
:10147000AE83BF8381E591E0998388831F8A1E8AAA
:10148000198E188E1B8E1A8E1D8E1C8E6E8D6E7F81
:101490006D7F6E8F6695617081E06827842F0E9452
:1014A000930961E0802F0E94ED09802F90E0FC01FC
:1014B000EA5EF14FE491E88BFC01EE5FF14FE491BD
:1014C000F0E0EE0FFF1FE850F24F859194919A8B58
:1014D000898B60E0812F0E94ED098E8D81FD04C013
:1014E00061E0812F0E9493091C87812F90E0FC010D
:1014F000EA5EF14FE491ED87FC01EE5FF14FE4917C
:10150000F0E0EE0FFF1FE251F24F859194919F871B
:101510008E87DF91CF911F910F9108953FB7F89477
:101520008091270390912803A0912903B0912A0369
:1015300026B5A89B05C02F3F19F00196A11DB11D2E
:101540003FBFBA2FA92F982F8827BC01CD01620F6A
:10155000711D811D911D42E0660F771F881F991F25
:101560004A95D1F708958F929F92AF92BF92CF92F2
:10157000DF92EF92FF924B015C010E948E0A6B0199
:101580007C010E948E0A6C197D098E099F09683EB4
:10159000734081059105A8F321E0821A9108A10802
:1015A000B10888EEC80E83E0D81EE11CF11C81143E
:1015B0009104A104B10429F7FF90EF90DF90CF9040
:1015C000BF90AF909F908F9008952FB7F89460913F
:1015D00023037091240380912503909126032FBF4C
:1015E000089520912003309121032817390771F4C1
:1015F00090911F0380911E03981741F0E0911F0303
:10160000F0E0E252FD4F808190E008958FEF9FEF70
:1016100008950895EF92FF920F931F93CF93DF9356
:10162000DC015C96ED90FC905D97E114F10479F497
:1016300081E090E013969C938E93129790E080E067
:10164000DF91CF911F910F91FF90EF9008955196E8
:10165000ED91FC91529750968C915097982F9095C0
:101660000FB75E962C915E97122F127021FD609538
:10167000F8942081112319F1282B2083E701219769
:10168000F1F728E0462F50E0308160FF1AC0382B78
:101690003083E7012197F1F7BA01759567952150DD
:1016A00089F7112381F08081892380830FBF5C96A5
:1016B0008D919C910197F1F781E090E0C1CF2923B2
:1016C000DCCF3923E5CF9081892BEFCF2091200308
:1016D000309121032817390771F480911E0320915E
:1016E0001F0390E0805C9F4F821B910960E470E0D3
:1016F0000E94D63B089590E080E008952091200359
:101700003091210328173907B9F490911F03809174
:101710001E03981789F0E0911F03F0E0E252FD4F9D
:10172000808120911F0330E02F5F3F4F2F733327BD
:1017300020931F0390E008958FEF9FEF0895CF93BC
:10174000DF93FC01828D938D892B41F1A0912003C1
:10175000B0912103AE17BF0709F1109751F05396CE
:10176000CD91DC915497988155968C9180958923E1
:101770008883868D8E7F868F10921E0310921F03A2
:10178000F0932103E0932003A389B4898C91958978
:10179000892B8C9381E0DF91CF91089580E0FBCF7E
:1017A000CF93DF93EC019A01AB011B8E1A8E198E39
:1017B000188E1F8A1E8A60E079E08DE390E00E9417
:1017C000EA3BF901C90103972430310510F481E0A7
:1017D00090E09D8F8C8F6C85663108F052C0C901F6
:1017E000969587958431910508F450C043979F8B57
:1017F0008E8BC9010597369710F481E090E0998FA0
:10180000888FC901880F991F280F391F3695279592
:10181000369527952D303105E0F12C5031093B8F5D
:101820002A8F9091680084E0683048F021E06E30A3
:1018300008F420E081E001C0880F2A95EAF7892B9F
:10184000809368009C852DE630E0983050F02BE6C0
:1018500030E09E3030F02CE630E0963110F030E091
:1018600020E03C8B2B8B292F30E09830A8F481E0CE
:1018700001C0880F9A95EAF78D8B8C8D9D8D01970D
:10188000F1F7CE01DF91CF910C949F0B81E090E0B6
:10189000AECF21E030E0C3CF9E3040F42850310974
:1018A00081E001C0880F2A95EAF7E6CF2E50310972
:1018B000F7CFFC014281538113821282DC01BC010B
:1018C000685D7F4F90E080E02C9111963C911197DC
:1018D0002327322723278227932712966A177B070D
:1018E00099F7538342830895CF93DF93EC010E94CD
:1018F000590C2A813B812817390731F421503109CD
:1019000081E02E3F3F4F08F080E0DF91CF910895B6
:10191000CF93DF93EC0182E00E946009892B31F0C4
:101920008C8591E08927DF91CF910895809168049B
:10193000882341F08091010190910201892B61F48B
:1019400081E0F1CF88E00E946009892B99F38091B2
:1019500047038111EFCFE4CF809137039091380393
:10196000892BF1F6EDCF90E080E0089581E991E0D8
:10197000089588E991E008958EE991E008958F92A5
:101980009F92AF92BF92CF92DF92EF92FF920F930E
:101990001F93E62FDC0193968D909D90AD90BC90A7
:1019A000969720914C0430914D0440914E045091F3
:1019B0004F04A8EEB3E00E94853B6B017C018114CB
:1019C0009104A104B10409F449C0AE2FB0E0A5010F
:1019D00094010E94853B24E630E040E050E00E9404
:1019E000633B49015A0120914804309149044091D8
:1019F0004A0450914B04A8EEB3E00E94853B970146
:101A000086010150110921093109081519052A0516
:101A10003B0550F0681579058A059B0560F5801631
:101A20009106A206B30658F0601771078207930764
:101A300030F0C701B601685E7340810991096B01FE
:101A40007C01B8EECB16B3E0DB06E104F10430F420
:101A500088EEC82E83E0D82EE12CF12CC701B60108
:101A60001F910F91FF90EF90DF90CF90BF90AF90BC
:101A70009F908F900895C501B401E1CF81E191E07D
:101A80000895FC012689378937FF04C060E070E0C3
:101A9000CB010895220F331F220F331F820F931F94
:101AA000FC0162817381848195810895CF93DF93D6
:101AB000FC012689378937FF07C060E070E080E0CD
:101AC00090E0DF91CF910895EC010190F081E02D3D
:101AD0000480F581E02D09952E893F892150310937
:101AE0003F8B2E8BEECFDC018FEF9FEF57969C93B1
:101AF0008E93569713961C921E92129715961C92CF
:101B00001E92149717961C921E92169719961C9265
:101B10001E9218971B961C921E921A971D961C9245
:101B20001E921C971F961C921E921E9751961C92F5
:101B30001E92509753961C921E92529755961C9245
:101B40001E9254974115510511F460FF08C0ED91A4
:101B5000FC9111970190F081E02DCD010994089539
:101B60007F928F929F92AF92BF92CF92DF92EF922D
:101B7000FF920F931F93CF93DF93EC016B01742EB1
:101B8000E881F9810480F581E02D09954B015C0124
:101B90008E899F8997FD0BC08401750181E0E82241
:101BA000FF248114910489F4E114F104B1F5DF916B
:101BB000CF911F910F91FF90EF90DF90CF90BF904A
:101BC000AF909F908F907F900895772039F0E881B3
:101BD000F9810280F381E02DCE010995C50195952B
:101BE0008795C80FD91FEF2839F088819981880E11
:101BF000991EF40100811181B601CE01F801DF9137
:101C0000CF911F910F91FF90EF90DF90CF90BF90F9
:101C1000AF909F908F907F9009947110D8CFC5019D
:101C200095958795C80FD91FE0CF0E948909882311
:101C300019F0809156040895809169040895FC017B
:101C40004281538113821282DC01BC0168597F4FAB
:101C500090E080E02C9111963C9111972327322738
:101C600023278227932712966A177B0799F75383B6
:101C700042830895CF93DF93EC010E941F0E2A81C7
:101C80003B812817390731F42150310981E02E3F7B
:101C90003F4F08F080E0DF91CF9108958F929F929F
:101CA000AF92BF92CF92DF92EF92FF921F93CF93AA
:101CB000DF93EC01898D9A8DEF80F8848D849E846A
:101CC000AF84B88849895A896B897C89841A950AB6
:101CD000A60AB70AF701EE0FFF1FE80FF91F4081B0
:101CE0005181052E000C660B770B481559056A05C6
:101CF0007B05A0F50E944E070197B7016F5F7F4FEC
:101D0000E816F9067CF02B853C852115310541F05C
:101D100089859A8501969A8789878217930780F427
:101D200070E060E0CE01DF91CF911F91FF90EF90C6
:101D3000DF90CF90BF90AF909F908F900C945B11ED
:101D4000CE01DF91CF911F91FF90EF90DF90CF9068
:101D5000BF90AF909F908F900C94D1118D899E89E8
:101D60004B8D5C8D288139814217530799F44D8D35
:101D70005E8D2D813E814217530761F42F8D38A16E
:101D80002817390739F449A15AA12F89388D4217EC
:101D9000530721F1009761F48F89988D892B09F001
:101DA000FCC10E94150E6D8188810E94930916C0A6
:101DB000181619060CF0F1C10E94150E8D819E8136
:101DC000892B09F4E6C1CD88DE888881998120912C
:101DD0000001281709F12F3F09F483C00E94150E56
:101DE000888199819C8F8B8F8D819E819E8F8D8F15
:101DF0008D899E8998A38F8F8F89988D9AA389A3A7
:101E0000DF91CF911F91FF90EF90DF90CF90BF9027
:101E1000AF909F908F900895E3E1FAE0149117FD41
:101E2000DDCF61E00E94ED09112319F0123009F0B5
:101E30005DC1F12CE12C60E072E18AE790E0A7013E
:101E400096010E94EA3B49015A01DA01C901019752
:101E5000A109B1098F3F9105A105B10509F00CF465
:101E600029C160E472E48FE090E0A70196010E942E
:101E7000EA3B2150310941095109123009F0AAC049
:101E800082E02F3F31054105510509F00CF4E3C014
:101E900060E970ED83E090E0A70196010E94EA3BC3
:101EA000215031094109510983E02F3F3105410596
:101EB000510509F00CF4CFC068E478EE81E090E0C1
:101EC000A70196010E94EA3B2150310941095109BD
:101ED0002F3F31054105510511F00CF0CBC084E0D6
:101EE000BAC080930001E3E1FAE014911F3F09F4C6
:101EF00075CF113039F148F0123009F445C017FDA3
:101F00006DCF61E00E94ED0991CF14BC15BC24B5E2
:101F1000226024BD25B5216025BD9C013327F90130
:101F2000EE5FF14FE491F0E0EE0FFF1FE850F24F4B
:101F300045915491F901EA5EF14FE491E093D502A5
:101F400010E06FCF109280001092810020918100EC
:101F500028602093810020918100216020938100DE
:101F60009C013327F901EE5FF14FE491F0E0EE0FB1
:101F7000FF1FE850F24F45915491F901EA5EF14F8D
:101F8000E491E093D4024DCF1092B0001092B100D2
:101F90002091B00022602093B0002091B100216018
:101FA0002093B1009C013327F901EE5FF14FE491DA
:101FB000F0E0EE0FFF1FE850F24F4591549150931F
:101FC0002C0340932B03F901EA5EF14FE491E09377
:101FD0002D0327CF2F3F31054105510509F00CF4A2
:101FE00083C068E478EE81E090E0A70196010E944A
:101FF000EA3B2150310941095109112309F452C129
:102000002F3F31054105510509F00CF468CF62E11D
:102010007AE780E090E0A70196010E94EA3B215018
:10202000310941095109112309F425C186E02F3FE7
:1020300031054105510579F070F08AE0B594A79417
:10204000979487948A95D1F7A5019401215031097D
:102050004109510987E09091B100987F892B8093C5
:10206000B100113009F46DC0123009F47FC01111B4
:10207000B5CE28C064E274EF80E090E0A70196013D
:102080000E94EA3B215031094109510985E02F3F67
:10209000310541055105F9F2F0F262E17AE780E09D
:1020A00090E0A70196010E94EA3B215031094109C5
:1020B0005109BCCF9C0181E01111CDCF95B5987F1E
:1020C000892B85BD27BD8FEF9FEFDC018093DA025E
:1020D0009093DB02A093DC02B093DD0280916E004E
:1020E000826080936E007ACE82E0E6CFF12CE12C04
:1020F00060E072E18AE790E0A70196010E94EA3B66
:10210000215031094109510991E02115310581E042
:10211000480751056CF068E478EE81E090E0A70193
:1021200096010E94EA3B215031094109510993E08F
:10213000113009F096CF80918100887F892B8093A0
:10214000810030938900209388008FEF9FEFDC019E
:102150008093D6029093D702A093D802B093D9026D
:1021600080916F00826080936F0038CE2093B3001F
:102170008FEF9FEFDC0180932E0390932F03A093AA
:102180003003B093310380917000826080937000BF
:1021900025CE88810E94C10921CE8F89988D18167D
:1021A00019060CF01BCE0E94150E8D819E81892B85
:1021B00009F459C0EF88F88CC880D98061E08C2D73
:1021C0000E94ED09E114F10419F460E08C2DEDCDCD
:1021D0008FEFE816F10411F461E0F8CFF601FF2764
:1021E000E150F64FE491E33021F148F4E130B9F0E9
:1021F000E230D1F080E8E816F10474F7E6CFE7307A
:1022000011F1E83041F1E430A9F78091800080625B
:1022100080938000F0928B00E0928A00DFCD84B53D
:10222000806884BDE7BCDACD84B5806284BDE8BC3B
:10223000D5CD80918000806880938000F0928900E5
:10224000E0928800CBCD8091B00080688093B00090
:10225000E092B300C3CD8091B00080628093B00063
:10226000E092B400BBCD188161E0812F0E94ED099E
:1022700060E0812F9ACD84E02F3F31054105510563
:1022800009F008F41BCF9AE0B594A794979487942B
:102290009A95D1F7A50194012150310941095109BD
:1022A00085E00CCF83E02F3F31054105510509F052
:1022B0000CF404CFACCECF93DF93EC0178876F831F
:1022C000CB01880F991FE98DFA8DE80FF91F8081E6
:1022D000918118161906BCF4CB01019662E070E0FA
:1022E0000E94D63B9E838D830E94E50A6D877E8780
:1022F0008F87988B698B7A8B8B8B9C8BCE01DF9130
:10230000CF910C944E0E1E821D82EECFCF92DF92A3
:10231000EF92FF920F931F93CF93DF93EC017B011A
:102320008A01000F111F000F111F015A1E4F8B85CC
:102330009C858617970779F4C98CDA8CC016D1066C
:1023400039F1C8010E944E07892B29F4C6010E9469
:102350004E07892BE9F01E821D8218861F821A867D
:102360001986FC86EB861A8F098F0E94150E853020
:1023700010F00E94150E70E060E0CE01DF91CF9169
:102380001F910F91FF90EF90DF90CF900C945B1115
:10239000DF91CF911F910F91FF90EF90DF90CF9041
:1023A000089541E050E070E060E00C948611CF9316
:1023B000DF93EC010E94E50A6D877E878F87988BFB
:1023C000CE01DF91CF910C944E0EEF92FF920F93BE
:1023D0001F93CF93DF93EC01142F052F790179839D
:1023E00068831E821D8218861F821A8619861C86A3
:1023F0001B860E94E50A6D877E878F87988B198AD6
:102400001A8A1B8A1C8AFE8AED8A188E1F8A83E626
:1024100091E09A8F898FFE017B9688E0DF011D9203
:102420008A95E9F70F931F9387EA91E09F938F9323
:102430001F9283E08F93CE0102969F938F930E9409
:10244000423C61E088810E94ED098DB79EB70896F5
:102450000FB6F8949EBF0FBE8DBF60E08881DF91FC
:10246000CF911F910F91FF90EF900C9493098FEEF5
:1024700099E09F938F937F936F930E9499380F9069
:102480000F900F900F900895FC0186AD8F9385AD4E
:102490008F9384AD8F9383AD8F938BEE99E09F9351
:1024A0008F937F936F930E9499388DB79EB708964C
:1024B0000FB6F8949EBF0FBE8DBF0895845A9F4FEC
:1024C000FC0180811F928F9386EE99E09F938F93FA
:1024D0007F936F930E9499380F900F900F900F90F9
:1024E0000F900F900895855A9F4FFC0180811F9295
:1024F0008F9383EE99E09F938F937F936F930E94C6
:1025000099380F900F900F900F900F900F900895A3
:10251000FC01E75AFF4F81818F9380818F9380EE7A
:1025200099E09F938F937F936F930E9499380F90B8
:102530000F900F900F900F900F900895FC01E95AA3
:10254000FF4F81818F9380818F938DED99E09F93D1
:102550008F937F936F930E9499380F900F900F90F5
:102560000F900F900F900895FC01ED5AFF4F83815B
:102570008F9382818F9381818F9380818F9389ED57
:1025800099E09F938F937F936F930E9499388DB7B3
:102590009EB708960FB6F8949EBF0FBE8DBF0895E4
:1025A000FC01E15BFF4F83818F9382818F93818157
:1025B0008F9380818F9385ED99E09F938F937F9385
:1025C0006F930E9499388DB79EB708960FB6F8940E
:1025D0009EBF0FBE8DBF0895FC01E55BFF4F838159
:1025E0008F9382818F9381818F9380818F9381EDEF
:1025F00099E09F938F937F936F930E9499388DB743
:102600009EB708960FB6F8949EBF0FBE8DBF089573
:10261000865B9F4FFC012081422F4150550BCA0120
:1026200043305105E0F4880F991FFC01E75DFE4F30
:10263000808191819F938F931F922F9389EC99E0D2
:102640009F938F937F936F930E9499388DB79EB716
:1026500008960FB6F8949EBF0FBE8DBF08958AEA04
:1026600091E0E8CF875B9F4FFC0180811F928F93A1
:1026700086EC99E09F938F937F936F930E94993894
:102680000F900F900F900F900F900F900895FC01F6
:10269000E95BFF4F81818F9380818F9383EC99E079
:1026A0009F938F937F936F930E9499380F900F9011
:1026B0000F900F900F900F900895FC01ED5BFF4F6E
:1026C00083818F9382818F9381818F9380818F9378
:1026D0008FEB99E09F938F937F936F930E9499382C
:1026E0008DB79EB708960FB6F8949EBF0FBE8DBFEC
:1026F0000895FC01FF9623812F9322812F9321813E
:102700002F93FC0187AD8F938BEB99E09F938F9371
:102710007F936F930E9499388DB79EB708960FB636
:10272000F8949EBF0FBE8DBF0895FC0182AD8F93BC
:1027300081AD8F9380AD8F9387A98F9387EB99E0BD
:102740009F938F937F936F930E9499388DB79EB715
:1027500008960FB6F8949EBF0FBE8DBF0895FC017A
:1027600086A98F9385A98F9384A98F9383A98F932B
:1027700083EB99E09F938F937F936F930E94993897
:102780008DB79EB708960FB6F8949EBF0FBE8DBF4B
:102790000895FC0182A98F9381A98F9380A98F93BB
:1027A00087A58F938FEA99E09F938F937F936F9381
:1027B0000E9499388DB79EB708960FB6F8949EBFC1
:1027C0000FBE8DBF0895FB0101900020E9F73197FE
:1027D000AF01461B570BDC01ED91FC910280F381A8
:1027E000E02D09948F929F92AF92BF92EF92FF9249
:1027F0000F931F93CF93DF93CDB7DEB7A1970FB69B
:10280000F894DEBF0FBECDBF7C01FA01CB0119A247
:10281000223008F42AE08E010F5D1F4F822E912C8A
:10282000B12CA12CBF01A50194010E94633BF901C9
:10283000CA016A300CF5605DD8016E938D01232BBF
:10284000242B252B79F790E080E0109721F0BD0133
:10285000C7010E94E313A1960FB6F894DEBF0FBE26
:10286000CDBFDF91CF911F910F91FF90EF90BF905F
:10287000AF909F908F900895695CDECFCF92DF92EA
:10288000EF92FF920F931F93CF93DF9377FF21C0B7
:102890006A017B01EC01E881F9810190F081E02D72
:1028A0006DE209958C0144275527BA014C195D0941
:1028B0006E097F092AE0CE010E94F213800F911F5A
:1028C000DF91CF911F910F91FF90EF90DF90CF900C
:1028D00008952AE0DF91CF911F910F91FF90EF9023
:1028E000DF90CF900C94F213AB01770F660B770B50
:1028F0000C943E14242FAB0170E060E00C94F213B2
:1029000060EB71E00C94E3130F931F93CF93DF936D
:102910008C01D0E0C0E06115710519F00E94E3134D
:10292000EC01C8010E9480148C0F9D1FDF91CF9194
:102930001F910F910895CF93DF93882391F0C09159
:102940004503D0914603209751F0CE010E94880C98
:10295000882329F06AE472E0CE010E948414109268
:102960003203DF91CF910895CF92DF92EF92FF92E1
:102970000F931F93CF93DF9300D0CDB7DEB77C01C9
:1029800020917504309176042115310511F42BE75F
:1029900034E08E010F5F1F4F021B130BC0904503E5
:1029A000D0904603C6010E94880C8823D9F060E9C4
:1029B00070E0C6010E940608B8018091450390911D
:1029C00046030E9474146DE870E080914503909175
:1029D00046030E940608B701809145039091460383
:1029E0000E948414C8010F900F90DF91CF911F9126
:1029F0000F91FF90EF90DF90CF9008950F931F936A
:102A0000CF93DF93EC010E9406088C01CE010E9457
:102A10008014800F911FDF91CF911F910F91089526
:102A20006115710511F00C94E31390E080E00895B6
:102A3000CF93DF93EC01CB014AE050E070E060E01F
:102A40000E941C376BAF7CAF8DAF9EAFDF91CF91F3
:102A50000895CF93DF93EC01CB014AE050E070E0A2
:102A600060E00E941C37C45ADF4F6883DF91CF912A
:102A70000895CF93DF93EC01CB014AE050E070E082
:102A800060E00E941C37C55ADF4F21E0672B682B9E
:102A9000692B09F420E02883DF91CF910895CF932B
:102AA000DF93EC01CB014AE050E070E060E00E946F
:102AB0001C37C75ADF4F79836883DF91CF91089520
:102AC000CF93DF93EC01CB014AE050E070E060E08F
:102AD0000E941C37C95ADF4F79836883DF91CF91F9
:102AE0000895CF93DF93EC01CB014AE050E070E012
:102AF00060E00E941C37CD5ADF4F688379838A8358
:102B00009B83DF91CF910895CF93DF93EC01CB01AD
:102B10004AE050E070E060E00E941C37C15BDF4F8C
:102B2000688379838A839B83DF91CF910895CF93C4
:102B3000DF93EC01CB014AE050E070E060E00E94DE
:102B40001C37C55BDF4F688379838A839B83DF9162
:102B5000CF910895CF93DF93EC01CB014AE050E091
:102B600070E060E00E941C37C65BDF4F6883DF9136
:102B7000CF910895CF93DF93EC01CB014AE050E071
:102B800070E060E00E941C37C75BDF4F6883DF9115
:102B9000CF910895CF93DF93EC01CB014AE050E051
:102BA00070E060E00E941C37C95BDF4F7983688367
:102BB000DF91CF910895CF93DF93EC01CB014AE0F1
:102BC00050E070E060E00E941C37CD5BDF4F6A3060
:102BD00071058105910538F0688379838A839B8329
:102BE000DF91CF9108958AE090E0A0E0B0E0888383
:102BF0009983AA83BB83F4CFCF93DF93EC01CB01FE
:102C00004AE050E070E060E00E941C37EF96688375
:102C100079838A839B83DF91CF910895CF93DF934C
:102C2000EC01CB014AE050E070E060E00E941C370C
:102C30006FAB78AF89AF9AAFDF91CF910895CF9303
:102C4000DF93EC01CB014AE050E070E060E00E94CD
:102C50001C376BAB7CAB8DAB9EABDF91CF910895F6
:102C6000CF93DF93EC01CB014AE050E070E060E0ED
:102C70000E941C376FA778AB89AB9AABDF91CF91DD
:102C80000895CF93DF93EC018CEB92E099838883D6
:102C90001B821A8240E150E063EB71E0CE010496A2
:102CA0000E945538649684E1FE0111928A95E9F7F5
:102CB000DF91CF910895FB0101900020E9F7319752
:102CC000AF01461B570B4C30510520F4835A9F4FE0
:102CD0000C9455380895CF93DF93EC0180E293E094
:102CE000998388831B821A8240E150E066E772E094
:102CF000CE0104960E9455388EE190E0A0E0B0E04D
:102D00008FA798ABA9ABBAAB88EE93E0A0E0B0E098
:102D10008BAB9CABADABBEAB85E090E0A0E0B0E090
:102D20008FAB98AFA9AFBAAF8AE090E0A0E0B0E077
:102D30008BAF9CAFADAFBEAFFE01FF9684E190E0DC
:102D4000A0E0B0E080839183A283B38334968CE3C8
:102D500090E0A0E0B0E080839183A283B3833496B7
:102D600082E090E091838083329685E08083319683
:102D700083E08083319680E092ECA1E0B0E0808334
:102D80009183A283B383349680E091EEA0E0B0E01B
:102D900080839183A283B383349680E895E2A0E098
:102DA000B0E080839183A283B383349680EF9AE06E
:102DB00091838083329687E090E09183808332967E
:102DC0001082319684E080834BE150E068EB71E043
:102DD000CE0144960E9455384BE050E069EC71E01A
:102DE000CE01835A9F4FDF91CF910C9455388F922B
:102DF0009F92AF92BF92CF92DF92EF92FF920F938A
:102E00001F93CF93DF93CDB7DEB7A3970FB6F89498
:102E1000DEBF0FBECDBF8C015B014A01790183E2A9
:102E20009E012F5F3F4F6901D901E82F1D92EA955E
:102E3000E9F79B0121503109829FB001839F700DFA
:102E40001124645A784F43E250E0C6010E943C3896
:102E5000B601C4010E942C3CF2E1AF16B104E4F4C7
:102E6000EC8DFD8D8E8D9F8D9C01217033273097C9
:102E700019F42115310581F095958795800F911FE3
:102E8000232B41F0DC012D913C91E20FF31F0190C7
:102E9000F081E02DB7010995A3960FB6F894DEBF37
:102EA0000FBECDBFDF91CF911F910F91FF90EF909B
:102EB000DF90CF90BF90AF909F908F9008953F92FA
:102EC0004F925F926F927F928F929F92AF92BF923A
:102ED000CF92DF92EF92FF920F931F93CF93DF93E6
:102EE000CDB7DEB7CE55D1090FB6F894DEBF0FBE11
:102EF000CDBF3C016BED7DE00E9406088DE094E0C3
:102F00000E941F0E40E150E0BC01C3010E947A14F0
:102F100063ED7DE0C3010E9406084AE050E068E6E8
:102F200070E0C3010E947A14C3010E94801401E082
:102F300010E083E3382ECE0101965C019BE1492E1F
:102F40007E0194E3E90EF11C6E01EFE4CE0ED11C7C
:102F500020E1522E35EC832E3DE0932EF501832D9A
:102F600011928A95E9F7F701842D11928A95E9F774
:102F7000F601852D11928A95E9F79601A701B8010E
:102F80008DE094E00E94F716DF92CF92FF92EF92CD
:102F90001F930F939F928F92BF92AF920E94993886
:102FA000B501C3010E9484140F5F1F4F0FB6F89440
:102FB000DEBF0FBECDBF0231110581F6C25ADF4F11
:102FC0000FB6F894DEBF0FBECDBFDF91CF911F913A
:102FD0000F91FF90EF90DF90CF90BF90AF909F90B8
:102FE0008F907F906F905F904F903F900895FC017D
:102FF000168A069620E1FC0111922A95E9F70895B8
:103000003F924F925F926F927F928F929F92AF9278
:10301000BF92CF92DF92EF92FF920F931F93CF93C5
:10302000DF93CDB7DEB769970FB6F894DEBF0FBE5A
:10303000CDBF6C016AEE75E00E94FE1489E2E82EB5
:1030400081E0F82E01E010E04E018AE1880E911C2B
:103050009EED692E95E0792E29E1322EFE01319602
:103060005F011982FE0132961192E815F905E1F728
:10307000F70120813181F2E0EF0EF11C80915704BD
:1030800080171106B1F58FEC91E03F932F939F933A
:103090008F931F930F937F926F921F923F92BF92D5
:1030A000AF920E946938B501C6010E9484140FB620
:1030B000F894DEBF0FBECDBF0F5F1F4F0430110568
:1030C00081F669960FB6F894DEBF0FBECDBFDF91D3
:1030D000CF911F910F91FF90EF90DF90CF90BF9015
:1030E000AF909F908F907F906F905F904F903F90A8
:1030F000089581E492E0C9CF4F925F926F927F92E0
:10310000AF92BF92CF92DF92EF92FF920F931F93F5
:10311000CF93DF935C0186E190E00E94F735D82FD2
:10312000C92F80913203811187C081E080933203DF
:103130008091010190910201892B09F065C00E94E4
:10314000E50A6B017C018DE090E00E94F7358C016F
:10315000C701B60128EE33E040E050E00E94633B37
:103160009F938F937F936F938CE3482E512C612C08
:10317000712CCA01B901A30192010E94633B9F9384
:103180008F937F936F93C701B60120E63AEE40E03C
:1031900050E00E94633BCA01B901A30192010E9461
:1031A000633B9F938F937F936F93C701B60120E892
:1031B0003EEE46E350E00E94633B5F934F933F93A4
:1031C0002F938BE990E09F938F931F928DE08F93C5
:1031D0001F930F930E9469381F930F9386EC90E022
:1031E0009F938F931F9286E18F93CF93DF930E94DB
:1031F0006938C8010E9493368DB79EB74E960FB6B8
:10320000F8949EBF0FBE8DBF92E0A916B10429F1BC
:1032100083E0A816B10481F4CF93DF938DEB90E0A7
:103220009F938F93CF93DF930E9499380F900F90C5
:103230000F900F900F900F908D2F9C2FDF91CF91BB
:103240001F910F91FF90EF90DF90CF90BF90AF90C4
:103250007F906F905F904F900895CF93DF9383EBB3
:1032600090E0DECFEF92FF920F931F93CF93DF9307
:10327000C82FD62F0E94150E853060F185E090E0B2
:103280000E947C187C0100914503109146030115B2
:103290001105A1F0C8010E94880C882379F0B701BC
:1032A000C8010E9410154C2F50E070E060E020E152
:1032B00080914503909146030E94F2138D2F0E9446
:1032C0009B14C701DF91CF911F910F91FF90EF9059
:1032D0000C949336DF91CF911F910F91FF90EF9057
:1032E00008958F929F92AF92BF92FF920F931F9378
:1032F000CF93DF93EC014A015B01F22E0E94150E81
:103300008C1758F1CE010E947C188C01C0914503A6
:10331000D0914603209791F0CE010E94880C88231B
:1033200069F0B801CE010E9410152AE0B501A40190
:1033300080914503909146030E94F2138F2D0E94C5
:103340009B14C801DF91CF911F910F91FF90BF9007
:10335000AF909F908F900C949336DF91CF911F91F7
:103360000F91FF90BF90AF909F908F900895CF9254
:10337000DF92FF920F931F93CF93DF93EC016B01CA
:10338000F42E0E94150E8C1738F1CE010E947C1885
:103390008C01C0914503D0914603209781F0CE0166
:1033A0000E94880C882359F0B801CE010E941015A4
:1033B000B60180914503909146030E9474148F2DAD
:1033C0000E949B14C801DF91CF911F910F91FF9034
:1033D000DF90CF900C949336DF91CF911F910F9196
:1033E000FF90DF90CF900895EF92FF920F931F937D
:1033F000CF93DF93182F092FC62FD42F0E94150EBD
:10340000811760F1812F902F0E947C187C01009120
:1034100045031091460301151105A1F0C8010E9452
:10342000880C882379F0B701C8010E9410154C2F31
:1034300050E070E060E02AE08091450390914603FF
:103440000E94F2138D2F0E949B14C701DF91CF9130
:103450001F910F91FF90EF900C949336DF91CF91D5
:103460001F910F91FF90EF900895CF92DF92FF92FE
:103470000F931F93CF93DF93EC016B01F42E0E9407
:10348000150E8C1738F1CE010E947C188C01C0916A
:103490004503D0914603209781F0CE010E94880C0D
:1034A000882359F0B801CE010E941015B601809111
:1034B0004503909146030E9410158F2D0E949B1486
:1034C000C801DF91CF911F910F91FF90DF90CF90B6
:1034D0000C949336DF91CF911F910F91FF90DF9065
:1034E000CF9008958F929F92AF92BF92FF920F93C9
:1034F0001F93CF93DF93EC014A015B01F22E0E94F0
:10350000150E8C1750F1CE010E947C188C01C091D1
:103510004503D0914603209789F0CE010E94880C84
:10352000882361F0B801CE010E941015B501A401F5
:1035300080914503909146030E943E148F2D0E9476
:103540009B14C801DF91CF911F910F91FF90BF9005
:10355000AF909F908F900C949336DF91CF911F91F5
:103560000F91FF90BF90AF909F908F900895CF9252
:10357000DF92FF920F931F93CF93DF93EC016B01C8
:10358000F42E0E94150E8C1738F1CE010E947C1883
:103590008C01C0914503D0914603209781F0CE0164
:1035A0000E94880C882359F0B801CE010E941015A2
:1035B000B60180914503909146030E9406088F2D25
:1035C0000E949B14C801DF91CF911F910F91FF9032
:1035D000DF90CF900C949336DF91CF911F910F9194
:1035E000FF90DF90CF9008956F927F928F929F927D
:1035F000AF92BF92CF92DF92EF92FF920F931F9301
:10360000CF93DF93CDB7DEB78C015B016DB67EB68D
:10361000DC01ED91FC910280F381E02D099540E001
:10362000BC0185E090E00E94351A40E06BE477E051
:1036300085E090E00E94B71A40E061E477E085E021
:1036400090E00E94B71A40E0F801638185E090E0C5
:103650000E94F41940E067E377E085E090E00E9483
:10366000B71A40E0D80114966C9185E090E00E9472
:10367000F419F80164816F5F8381F62EF81A40E037
:103680006DE277E085E090E00E94B71A40E06F2D90
:1036900085E090E00E94F41940E06EE177E085E07B
:1036A00090E00E94B71A61E0D5011B968C910E94B0
:1036B00032196F2D70E0CB010196EDB7FEB7E81B14
:1036C000F90B0FB6F894FEBF0FBEEDBF2DB73EB796
:1036D0002F5F3F4F6901118232966150710910F0DE
:1036E0001192FBCFD8011396EC90EA0CFB2CF11C45
:1036F00081ED882E81E0982EF8012481C7018A1976
:103700009B0928171906C4F0D7012D917D01F601F8
:1037100001900020E9F7CF011F922F939F928F9283
:1037200001979F938F930E94723C0F900F900F9080
:103730000F900F900F90E0CF40E150E070E060E01C
:10374000C6010E941C370FB6F8947EBE0FBE6DBE38
:10375000DF91CF911F910F91FF90EF90DF90CF906D
:10376000BF90AF909F908F907F906F9008956F92D1
:103770007F928F929F92AF92BF92CF92DF92EF9201
:10378000FF920F931F93CF93DF93CDB7DEB78C01DA
:103790005B016DB67EB6DC01ED91FC910280F38198
:1037A000E02D099540E0BC0185E090E00E94351ACB
:1037B00040E06DE077E085E090E00E94B71A40E0DD
:1037C00063E077E085E090E00E94B71A40E0F801FE
:1037D000638185E090E00E94F41940E069EF76E0B3
:1037E00085E090E00E94B71A40E0D80114966C91F1
:1037F00085E090E00E94F419F80164818381681BE0
:10380000770B6F5F7F4FF62EFF0C40E06FEE76E098
:1038100085E090E00E94B71A40E06F2D85E090E0CF
:103820000E94F41940E06CED76E085E090E00E94A3
:10383000B71A41E0D50118966C9185E090E00E949E
:10384000F4196F2D70E0CB010196EDB7FEB7E81BC0
:10385000F90B0FB6F894FEBF0FBEEDBF2DB73EB704
:103860002F5F3F4F6901118232966150710910F04C
:103870001192FBCFD8011396EC90EA0CFB2CF11CB3
:1038800084ED882E81E0982EF8012481C7018A19E1
:103890009B0928171906C4F0D7012D917D01F60167
:1038A00001900020E9F7CF011F922F939F928F92F2
:1038B00001979F938F930E94723C0F900F900F90EF
:1038C0000F900F900F90E0CF40E150E070E060E08B
:1038D000C6010E941C370FB6F8947EBE0FBE6DBEA7
:1038E000DF91CF911F910F91FF90EF90DF90CF90DC
:1038F000BF90AF909F908F907F906F9008956F9240
:103900007F928F929F92AF92BF92CF92DF92EF926F
:10391000FF920F931F93CF93DF93CDB7DEB77C0158
:103920005B016DB67EB6DC01ED91FC910280F38106
:10393000E02D099540E0BC0185E090E00E94351A39
:1039400040E06BEC76E085E090E00E94B71A40E141
:1039500050E070E060E0C5010E941C37AB01BC0183
:1039600021E085E090E00E94721AF70103818481D2
:10397000801B90E09C012F5F3F4F4DB75EB7421B0D
:10398000530B0FB6F8945EBF0FBE4DBFADB7BEB7B9
:1039900011966D01EDB7FEB711823296019710F0C6
:1039A0001192FCCF0A0D1B2D111D81ED882E81E097
:1039B000982ED70114962C91C8018A199B092817B3
:1039C0001906C4F0F80121918F01D6010D90002055
:1039D000E9F7CD011F922F939F928F9201979F93AA
:1039E0008F930E94723C0F900F900F900F900F904A
:1039F0000F90DFCF40E150E070E060E0C6010E9430
:103A00001C370FB6F8947EBE0FBE6DBEDF91CF910E
:103A10001F910F91FF90EF90DF90CF90BF90AF90EC
:103A20009F908F907F906F9008954F925F926F92CA
:103A30007F928F929F92AF92BF92CF92DF92EF923E
:103A4000FF920F931F93CF93DF93EC0188A999A95D
:103A5000209120033091210382179307C1F00E9427
:103A60009F0B41E06DEB76E086E090E00E94B71A94
:103A700064E670E080E090E00E94B30A28A939A9CA
:103A8000809120039091210328173907E9F70E94BC
:103A9000E50A6F8B788F898F9A8FCF8CD8A0E9A099
:103AA000FAA00091440410914504209146043091FD
:103AB0004704C00ED11EE21EF31ECFA2D8A6E9A66F
:103AC000FAA60B8D1C8D2D8D3E8D601B710B820B0C
:103AD000930B0091400410914104209142043091D5
:103AE0004304061717072807390708F0B0C188A94B
:103AF00099A9DC01ED91FC910084F185E02D0995F7
:103B0000892B09F4D7C088A999A9DC01ED91FC9112
:103B10000084F185E02D0995892B09F498C18E89DF
:103B2000803118F49A81891720F0CE010E94F7178E
:103B3000EACF88A999A9DC01ED91FC910284F38573
:103B4000E02D09959E89FE01E90FF11D86832A81EA
:103B50002150911106C08E81823039F7211109C0A0
:103B6000E4CF921309C0833001F79031F0F6921739
:103B700030F49F5F9E8BC7CF2917B8F2F6CF7E0136
:103B8000B6E0EB0EF11CE881F9810280F381E02DB3
:103B9000CE01099540E0BC0185E090E00E94351A15
:103BA00040E064E576E085E090E00E94B71A0E946C
:103BB000150E8530F0F067012A81C6018E199F0924
:103BC0002817190679F074F060E0F60181916F0111
:103BD0000E94321940E062E576E085E090E00E94C4
:103BE000B71AEACF41E06AE472E085E090E00E9413
:103BF000351AE881F9810190F081E02DB701CE01FD
:103C000009956B017C01C114D104E104F10429F18F
:103C1000E0913F03F09140031682158260E08081BD
:103C20000E94930945E050E061E070E08091430319
:103C3000909144030E948611E9EFF3E08DE094E057
:103C40004191519161917191C416D506E606F7062E
:103C500009F41CC18E179F0799F740E064E276E0F3
:103C600084E090E00E94B71AC701B60120E137E274
:103C700040E050E00E94633BAB01BC0121E084E0E6
:103C800090E00E947119CBA6DCA6EDA6FEA6CE019F
:103C9000DF91CF911F910F91FF90EF90DF90CF9028
:103CA000BF90AF909F908F907F906F905F904F905C
:103CB0000C94F717CF88D88CE98CFA8C4B8C5C8CE1
:103CC0006D8C7E8C4601570184189508A608B708AC
:103CD00064E6CE010E94BF0C8B019C0136952795AE
:103CE00017950795081519052A053B0540F0452845
:103CF0004628472821F02FA5222309F4A8C08FA029
:103D000098A4A9A4BAA4680D791D8A1D9B1DC61686
:103D1000D706E806F90648F48F8D98A1A9A1BAA1A3
:103D2000892B8A2B8B2B09F0A3C08FA58111BAC0D8
:103D300040E062EA76E085E090E00E94B71ACB8C22
:103D4000DC8CED8CFE8C40E066E976E0C114D10499
:103D5000E104F104C1F06F89788D898D9A8D6C1919
:103D60007D098E099F0928EE33E040E050E00E9473
:103D7000633BBA01A90120E085E090E00E9471193F
:103D800040E06CE976E085E090E00E94B71A40E000
:103D90006CE876E085E090E00E94B71ACF8CD8A05E
:103DA000E9A0FAA040E060E876E0C114D104E104A3
:103DB000F104C1F06F89788D898D9A8D6C197D0918
:103DC0008E099F0928EE33E040E050E00E94633BFB
:103DD000BA01A90120E085E090E00E94711940E05D
:103DE00066E876E085E090E00E94B71A40E061E77F
:103DF00076E085E090E00E94B71A64E6CE010E946A
:103E0000BF0CAB01BC0121E085E090E00E9471197C
:103E10008BA19CA1ADA1BEA1892B8A2B8B2B41F03C
:103E200066E9CE010E94BF0C6BA37CA38DA39EA369
:103E30006D8111E0612787E00E9493098F89988D39
:103E4000A98DBA8D8F8F98A3A9A3BAA31FA7DF91BD
:103E5000CF911F910F91FF90EF90DF90CF90BF9087
:103E6000AF909F908F907F906F905F904F9008954C
:103E7000C814D904EA04FB0450F38FA5882339F34E
:103E80006D8187E00E9493091FA6E1CF8F89988DED
:103E9000A98DBA8D8B8F9C8FAD8FBE8F40E060E473
:103EA00076E0DECEC814D904EA04FB0480F2E8CF41
:103EB00041E062E076E082E090E00E94B71A60E0C4
:103EC00070E0CB0108950F93CF93DF93EC018DE069
:103ED00091E0998388836A834B832C830D83FE0151
:103EE000369680E1DF011D928A95E9F71E8A0E94CD
:103EF000E50A6F8B788F898F9A8F1B8E1C8E1D8E93
:103F00001E8E1F8E18A219A21AA21BA21CA21DA2ED
:103F10001EA21FA218A619A61AA61BA61CA61DA69D
:103F20001EA61FA619AA18AA40E062EF75E084E059
:103F300090E0DF91CF910F910C94B71A0F93CF932C
:103F4000DF93EC0100E02AE043E06DE00E94631F94
:103F500085E291E09983888341E061E971E084E042
:103F600090E0DF91CF910F910C94351A41155105D6
:103F700011F460FF13C0FC01268937892F5F3F4F82
:103F8000378B268B220F331F220F331F280F391F29
:103F9000F9014283538364837583089541E06FEB95
:103FA00075E083E090E00C94B71A41E06AE174E0B8
:103FB00086E090E00E94B71AF0E0E0E00994EF920A
:103FC000FF920F931F93CF93DF93EC0140E069EDD5
:103FD00071E086E090E00E94351A8E017E0188E152
:103FE000E80EF11CF80167A1062E000C770B40E0EB
:103FF00086E090E00E94B71940E06EEE71E086E046
:1040000090E00E94351AF80187A18A3041F18D3085
:1040100031F10F5F1F4F0E151F0521F710E041E032
:104020006AE472E086E090E00E94351A112379F08C
:1040300040E06EE571E086E090E00E94B71ABE01B4
:10404000695D7F4F41E086E090E00E94351A812F44
:10405000DF91CF911F910F91FF90EF90089511E0A4
:10406000DECFCF93DF93EC0141E066E471E086E0C0
:1040700090E00E94B71AFE01B79688E1DF011D9219
:104080008A95E9F7789611821082CD5BDF4F19820D
:104090001882DF91CF910895CF93DF93EC0141E037
:1040A0006FE271E086E090E00E94B71A888D998DEA
:1040B000009799F0DC01ED91FC910084F185E02DF1
:1040C0000995892B51F0888D998DDC01ED91FC913A
:1040D0000284F385E02D0995E9CFDF91CF91089512
:1040E000CF92DF92EF92FF921F93CF93DF93EC0179
:1040F0006A017B01122F41E06AE27EE086E090E0F7
:104100000E94B71AE881F9810190F081E02DB70192
:10411000A601CE010995E881F9810190F081E02D99
:104120004FEC56E270E060E0CE010995CE010E94AE
:104130004C20CE010E943120112351F08A8D9B8D9D
:104140000E94F717CD5BDF4F81E090E09983888371
:10415000DF91CF911F91FF90EF90DF90CF90089566
:104160008F929F92AF92BF92EF92FF920F93CF9355
:10417000DF93EC017B0149015A01FB018081882317
:1041800081F0E88DF98D848581111AC0B701888D81
:10419000998D0E94101562EC7DE0888D998D0E94AA
:1041A0000608202FB501A401CE01DF91CF910F9118
:1041B000FF90EF90BF90AF909F908F900C947020E5
:1041C00082E00E946009019709F7EBCF4F925F925E
:1041D0006F927F928F929F92AF92BF92CF92DF9217
:1041E000EF92FF920F93CF93DF93CDB7DEB74C01E1
:1041F0006B0129013A01ADB6BEB6CB010E944C3825
:1042000001962DB73EB7281B390B0FB6F8943EBF69
:104210000FBE2DBF8DB79EB701967C01B6010E94DF
:104220004538A3019201B701C4010E94B0200FB626
:10423000F894BEBE0FBEADBEDF91CF910F91FF903F
:10424000EF90DF90CF90BF90AF909F908F907F9036
:104250006F905F904F9008950F93CF93DF93EC0191
:1042600041E063E775E086E090E00E94B71A888D30
:10427000998D0E9400186AE472E0888D998D0E94E1
:10428000841423E133E250E040E000E063E675E0AF
:10429000CE010E94E620DF91CF910F9108950F93F8
:1042A000CF93DF93EC0141E060E474E086E090E0BE
:1042B0000E94B71AFE01EF5BFF4F8FEF9FEF9183D4
:1042C0008083888D998D0E945F176AE472E0888DE3
:1042D000998D0E94841428E733E250E040E000E02A
:1042E00067E274E0CE010E94E620DF91CF910F914A
:1042F00008950F93CF93DF93EC0141E066EC73E0F8
:1043000086E090E00E94B71A25EF3AE250E040E0E4
:1043100001E062EA73E0CE010E94E620DF91CF91D6
:104320000F9108950F93CF93DF93EC01E881F9810A
:104330000084F185E02D40E050E0BA01099521E4C8
:1043400032E250E040E000E060EF71E0CE010E9418
:10435000B020DF91CF910F9108952F923F924F920D
:104360005F926F927F928F929F92AF92BF92CF9205
:10437000DF92EF92FF920F931F93CF93DF93CDB70E
:10438000DEB7AB970FB6F894DEBF0FBECDBF7C0192
:1043900041E067EB7DE086E090E00E94B71A62EBB7
:1043A0007DE0F701808D918D0E94FE1480ECC82E77
:1043B0008CE0D82E10E000E096E1292ECE01019687
:1043C0004C0123E1322E2E0199E1490E511C38EBAC
:1043D000632E3CE0732E5E01E7E1AE0EB11CF401EA
:1043E000822D11928A95E9F746E150E0B601C401A9
:1043F0000E943C38188E1F8AF201832D11928A95F3
:10440000E9F79F928F921F930F937F926F92BF92C3
:10441000AF920E949938B501F701808D918D0E946D
:1044200084140F5F1F4FF6E1CF0ED11C0FB6F89426
:10443000DEBF0FBECDBF0B30110589F66AE472E016
:10444000F701808D918D0E948414C7010E949221F2
:10445000AB960FB6F894DEBF0FBECDBFDF91CF9104
:104460001F910F91FF90EF90DF90CF90BF90AF9092
:104470009F908F907F906F905F904F903F902F9084
:104480000895CF92DF92EF92FF920F931F93CF93F5
:10449000DF93CDB7DEB767970FB6F894DEBF0FBED8
:1044A000CDBF7C016B0140E061E873E086E090E005
:1044B0000E94B71A41E0B60186E090E00E94351AEA
:1044C000D6018C918F8B40E06AE373E086E090E048
:1044D0000E94B71A6F89062E000C770B41E086E028
:1044E00090E00E94B7198F89805387010F5B1F4F9F
:1044F0008A3008F453C08FEF9FEFF80191838083D7
:1045000040E06DE573E086E090E00E94B71AF801A4
:104510006081718141E086E090E00E94B719D80186
:104520002D913C912B30310508F04FC046E1CE0172
:104530000196FC01542F11925A95E9F7429FB00160
:10454000439F700D11246054734F46E150E00E9468
:104550003C38E989FA892B893C89C9019595879569
:104560008E0D9F1D20FF08C0DC012D913C91E20FB4
:10457000F31F0190F081E02D6D897E890995679682
:104580000FB6F894DEBF0FBECDBFDF91CF911F9164
:104590000F91FF90EF90DF90CF9008954AE050E0A8
:1045A00070E060E0CE0147960E941C376F3F7F4F5E
:1045B00009F4A1CF4AE050E070E060E0C6010E943B
:1045C0001C37D8016D937C939BCFC7010E94AD210E
:1045D000D6CF0F93CF93DF93EC018DE094E00E9450
:1045E0003A0E81110EC022EE3BE250E040E000E0C6
:1045F00065EB74E0CE010E94E620DF91CF910F9130
:1046000008956AEC74E0888D998D0E94FE146AE426
:1046100072E0888D998D0E948414CE01DF91CF9134
:104620000F910C94AD21EF92FF921F93CF93DF93E4
:10463000EC017B014AE050E070E060E0C7010E94BD
:104640001C37162F8FEF810F833080F5109357049E
:1046500065E875E0888D998D0E940608812F81504C
:10466000990BFC01EE0FFF1FE75DFE4F608171812A
:10467000888D998D0E9484146AE472E0888D998DEA
:104680000E948414888D998D0E9400186AE472E05B
:10469000888D998D0E94841470E060E0CE01DF91D6
:1046A000CF911F91FF90EF900C94E922112341F0DC
:1046B0009DE0E916F10421F08AE0E816F10441F4E6
:1046C000CE01DF91CF911F91FF90EF900C94AD211F
:1046D0006AE472E0888D998D0E94841470E060E035
:1046E000CE01DF91CF911F91FF90EF900C942C2180
:1046F000CF92DF92EF92FF920F931F93CF93DF93AE
:10470000CDB7DEB7AB970FB6F894DEBF0FBECDBF07
:104710007C016B0141E06FE974E086E090E00E946B
:10472000B71A4AE050E070E060E0C6010E941C3712
:1047300087010F5B1F4FF8017183608340E06FE6D4
:1047400074E086E090E00E94B71AF8016081718100
:1047500041E086E090E00E94B719F8016081718124
:10476000CB010197419708F042C0CE0101966C0140
:104770008BE1F60111928A95E9F78E01045E1F4FD5
:1047800080E1F80111928A95E9F79801A6018DE080
:1047900094E00E94F716B601F701808D918D0E947A
:1047A00010156CE674E0F701808D918D0E9406086B
:1047B000B801F701808D918D0E94841429E236E2C0
:1047C00050E040E000E06FE474E0C7010E94E620A2
:1047D000AB960FB6F894DEBF0FBECDBFDF91CF9181
:1047E0001F910F91FF90EF90DF90CF900895F60109
:1047F0008081803321F08D3011F08A3031F470E007
:1048000060E0C7010E94E922E3CF70E060E0C701E9
:104810000E944F21DDCFEF92FF920F931F93CF9312
:10482000DF93EC0141E065E074E086E090E00E94F7
:10483000B71A8AE492E00E94B4147C0167EF73E037
:10484000888D998D0E940608088D198DB701C801C1
:104850000E947414C8010E948014888D998D0E9452
:104860008014CE01DF91CF911F910F91FF90EF90B7
:104870000C9492212F923F924F925F926F927F926F
:104880008F929F92AF92BF92CF92DF92EF92FF9260
:104890000F931F93CF93DF93CDB7DEB76D970FB60E
:1048A000F894DEBF0FBECDBF1C017B0129013A0188
:1048B00041E069EA7CE086E090E00E94B71AF101ED
:1048C000C08CD18C6AE97CE0C6010E940608609128
:1048D000E7037091E80340E150E0C6010E947A14BA
:1048E00062E97CE0C6010E9406084AE050E062E00E
:1048F00070E0C6010E947A14C6010E94801489EFFC
:1049000093E09D8F8C8F10E000E04E0193E0890EC4
:10491000911CFE0131965F01EC8DFD8D819191918D
:10492000A191B191FD8FEC8F0F5F1F4F0097A105F3
:10493000B10511F11A821982F40129E111922A9527
:10494000E9F7BF93AF939F938F93BF93AF939F93D9
:104950008F931F930F938FE79CE09F938F93BF924A
:10496000AF920E949938B501C6010E9484140FB617
:10497000F894DEBF0FBECDBF0530110569F66AE4BD
:1049800072E0F101808D918D0E94841441145104D4
:1049900001F100E0A3019201B701C1010E94B02022
:1049A0006D960FB6F894DEBF0FBECDBFDF91CF91ED
:1049B0001F910F91FF90EF90DF90CF90BF90AF903D
:1049C0009F908F907F906F905F904F903F902F902F
:1049D0000895C1010E949221E3CFCF93DF93EC01B0
:1049E00041E063EE73E086E090E00E94B71A2DE5A7
:1049F0003AE250E040E063E072E0CE01DF91CF9117
:104A00000C943A24CF93DF93EC0141E063ED73E023
:104A100086E090E00E94B71A27E83AE250E040E0D2
:104A20006AE172E0CE01DF91CF910C943A2420E04C
:104A300030E0A9010C943A240F93CF93DF93EC015B
:104A4000E881F9810084F185E02D40E050E0BA0171
:104A50000995CE010E944C20CE010E94312026ED06
:104A600038E250E040E000E06CEA75E0CE010E94E0
:104A7000E620DF91CF910F9108950F93CF93DF93AD
:104A8000EC0182E00E946009E88DF98D019749F5FB
:104A90008485882331F1E0910000F09101000084C9
:104AA000F185E02D40E050E0BA0190E080E009950A
:104AB00090E080E00E944C2090E080E00E94312055
:104AC00025E839E250E040E000E060E975E08091DF
:104AD000390390913A030E94E620DF91CF910F9124
:104AE000089562EA75E0CF010E94FE146AE472E064
:104AF000888D998D0E948414CE01DF91CF910F9102
:104B00000C94AD21E0913903F0913A03808D918DA1
:104B10000E948414E0913903F0913A036AE472E050
:104B2000808D918D0E94841470E060E08091390343
:104B300090913A030C943D25CF93DF93EC0141E033
:104B40006EE171E085E090E00E94B71ACE010E940C
:104B50003120E881F9810084F185E02D40E050E0CA
:104B6000BA01CE0109958091010190910201892B32
:104B7000A1F1BE01645E7F4F40E085E090E00E94BD
:104B8000351A41E068E071E085E090E00E94B71AD4
:104B900041E066EF70E084E090E00E94B71A41E0E7
:104BA0006AE472E084E090E00E94351A88E00E9496
:104BB000600921E0892B09F020E02093470310923F
:104BC0000201109201010E948909882331F084E3D7
:104BD00092E0DF91CF910C94B414DF91CF910895BE
:104BE000CF92DF92EF92FF92CF93DF93EC016B01B4
:104BF000770FEE08FF088BA19CA1ADA1BEA18C157B
:104C00009D05AE05BF0571F040E060EE70E085E007
:104C100090E00E94B71A21E0B701A60185E090E07C
:104C20000E947119CBA2DCA2EDA2FEA281E090E06D
:104C300090930201809301010E94E50A6F8F78A38F
:104C400089A39AA3DF91CF91FF90EF90DF90CF904F
:104C50000895AF92BF92CF92DF92EF92FF920F939F
:104C60001F93CF93DF93CDB7DEB7EE970FB6F894CF
:104C7000DEBF0FBECDBF8C016B0140E063E273E08D
:104C800085E090E00E94B71A780131E4E30EF11C50
:104C9000D7016D917C9140E085E090E00E94B719CA
:104CA00040E060E472E085E090E00E94351A41E067
:104CB000B60185E090E00E94351AF60180818D30C2
:104CC00021F08A3011F0811122C041E06BE073E0E5
:104CD00085E090E00E94B71A8FEF9FEFF701918374
:104CE000808370E060E0C8010E944F21EE960FB60D
:104CF000F894DEBF0FBECDBFDF91CF911F910F9112
:104D0000FF90EF90DF90CF90BF90AF900895D701C4
:104D10008D919C9182319105D4F523E2FE0131966B
:104D20005F01DF01E22F1D92EA95E9F70197289FC5
:104D3000B001299F700D1124645A784F43E250E06E
:104D4000C5010E943C38CE0184962BE1DC011D9206
:104D50002A95E9F7B5010E942C3CE8A1F9A130970A
:104D600019F48AA180FF13C02AA13BA1C90195951E
:104D70008795835F9B4F20FF08C0DC012D913C91FC
:104D8000E20FF31F0190F081E02DB60109956091CB
:104D9000500470915104C8010E94F0259DCFCF921C
:104DA000DF92EF92FF920F931F93CF93DF93CDB7D4
:104DB000DEB768970FB6F894DEBF0FBECDBF8C018B
:104DC0007C0183E4E80EF11CD7018D919C91892B25
:104DD00009F480C0D8015A96ED91FC9188EE93E0D9
:104DE000A0E0B0E083A394A3A5A3B6A3F801828DAD
:104DF000938D0E94151DD8015A96ED91FC9183A5C3
:104E000094A5A5A5B6A5892B8A2B8B2B09F462C086
:104E100040E063E771E086E090E00E94B71AD801B5
:104E20005A96ED91FC9143A554A565A576A521E080
:104E300086E090E00E947119D8015A96ED91FC919C
:104E400086A58F9385A58F9384A58F9383A58F9334
:104E500083E492E09F938F93FE0131966F01FF935D
:104E6000EF930E94723C48E150E0B6016801F7E21E
:104E7000CF0ED11CC6010E945538F6010FB6F8942A
:104E8000DEBF0FBECDBF90E080E041919C012F5F5F
:104E90003F4F411128C0800F911F4AE0DC019796D7
:104EA0004C93F801E20FF31F17A2F801FF9631832C
:104EB0002083D8015A96ED91FC915B9713A614A616
:104EC00015A616A65A968D919C910E94F717F70188
:104ED00011821082D80158968D919C91FC012585F4
:104EE000222331F0FFCFC9012831310571F6E1CF1E
:104EF0000190F081E02D0084F185E02D0995892B4A
:104F000009F463C08091370390913803892B71F4C1
:104F1000109338030093370347E050E061E070E0FE
:104F200080913D0390913E030E9486116091500450
:104F300070915104C8010E94F025F701118210827E
:104F4000C801CF966C01D80158968D919C91DC01D7
:104F5000ED91FC910084F185E02D0995892BA9F153
:104F6000C8010E94DF1F811130C0F801808D918D32
:104F7000DC01ED91FC910284F385E02D0995F82E7A
:104F800040E062EB71E086E090E00E94B71A6F2D7E
:104F90000F2C000C770B41E086E090E00E94B719DF
:104FA000BBE1FB1631F0F6018081918148970CF44A
:104FB0004FC08AE0D80197968C93979798961C9249
:104FC00081E090E0F60191838083C8010E94DF1F99
:104FD000882379F1B801695D7F4F48E150E0CE0147
:104FE00001960E945538C8010E943120D801ED91E8
:104FF000FC910280F381E02DC8010995F801E08C55
:10500000F18CD701ED91FC910190F081E02D6AE0E7
:10501000C7010995C7010E948014D801ED91FC9148
:105020000680F781E02D41E0BE016F5F7F4FC80130
:10503000099568960FB6F894DEBF0FBECDBFDF911D
:10504000CF911F910F91FF90EF90DF90CF90089537
:1050500080913703909138030817190709F057C05A
:10506000D80158968D919C91DC01ED91FC910190B5
:10507000F081E02D6F2D0995BFE7FB1230C08091C4
:1050800037039091380308171907C1F1F6018081A1
:105090009181019791838083800F911FDC01979606
:1050A0001C92BDE0FB1619F0EAE0FE124CCF40E086
:1050B00067E971E086E090E00E94B71AD6016D9131
:1050C0007C916150710941E086E090E00E94B7193F
:1050D000D601ED91FC91E00FF11F17A234CFE8E06B
:1050E000FE1669F2F60180819181F801E80FF91F3F
:1050F000F7A20196D6018D939C93D3CF67E472E01B
:10510000D80158968D919C910E941015BFCFBFE792
:10511000FB1609F4BBCFE8E0FE12E4CFB7CFCF9384
:10512000DF93EC0160916604709167040E94F025A2
:10513000CE010E943120CE010E944C20888D998D95
:10514000009789F10E94880C8823E1F06BEC70E0F5
:10515000888D998D0E9406086BE472E0888D998D88
:105160000E94101560E472E0888D998D0E941015E0
:1051700069E572E0888D998D0E948414888D998DDF
:105180000E948014E88DF98D84854CE155E28111EF
:1051900002C041E452E270E060E020E0CE01DF9125
:1051A000CF910C947020DF91CF9108956F927F92F0
:1051B0008F929F92AF92BF92CF92DF92EF92FF9227
:1051C0000F931F93CF93DF93CDB7DEB76C018DB6EE
:1051D0009EB6FB0101900020E9F7AF014150510953
:1051E000461B570B7A01F1E0EF1AF1088DB79EB715
:1051F000841B950B0FB6F8949EBF0FBE8DBF0DB7E5
:105200001EB70F5F1F4FC8010E9455380E94150E30
:10521000853008F456C041E06BEB75E085E090E026
:105220000E94B71A5801C501801B910B8E159F056E
:105230009CF4F50161915F01062E000C770B40E0B4
:1052400085E090E00E94B71940E069EB75E085E0E9
:1052500090E00E94B71AE7CF41E068EB75E085E087
:1052600090E00E94B71A8AE6A82E84E0B82EF12CAE
:10527000E12C3501F30101900020E9F7CF018B56B5
:105280009440E816F906B4F4F50161915F01062E29
:10529000000C770B40E085E090E00E94B71940E0F9
:1052A00066EB75E085E090E00E94B71AFFEFEF1A19
:1052B000FF0AE0CF41E065EB75E085E090E00E94F9
:1052C000B71A6AE674E0C8010E94233C892BB9F43E
:1052D000C6010E94AD210FB6F8949EBE0FBE8DBED2
:1052E000DF91CF911F910F91FF90EF90DF90CF90C2
:1052F000BF90AF909F908F907F906F90089570E0D7
:1053000060E0C6010E941C25E6CFCF93DF93CDB7A6
:10531000DEB7A0970FB6F894DEBF0FBECDBFDB019E
:105320000D900020E9F7AD01461B570B1A82198238
:10533000FE0133968EE1DF011D928A95E9F7425016
:105340005109CE0101960E94333CE0913903F0915E
:105350003A0366EA75E0808D918D0E940608E0911F
:105360003903F0913A03BE016F5F7F4F808D918DBD
:105370000E948414E0913903F0913A036AE472E0E8
:10538000808D918D0E94841489818134D9F4BE016D
:105390006F5F7F4F80911800909119000E948414D4
:1053A00042E855E270E060E020E090E080E00E949A
:1053B0007020A0960FB6F894DEBF0FBECDBFDF9170
:1053C000CF910895E0910000F09101000084F185F3
:1053D000E02D40E050E0BA0190E080E0099590E0D7
:1053E00080E00E944C2090E080E00E94312080917B
:1053F000390390913A030E94AD21DBCFFF920F93C6
:105400001F93CF93DF93EC01F62E08811981C80119
:105410000E943D3BF81621F06F2DC8010E94453BCC
:10542000CE01DF91CF911F910F91FF900895EF92E0
:10543000FF920F931F93CF93DF9300D0CDB7DEB7CA
:105440000E94D00785EE93E00E94740C41E065E66F
:105450007CE0811125C085EE93E00E94590C909369
:10546000E8038093E7038091E5039091E60305EE5E
:1054700013E09C01255E33407901C701800F911F25
:105480009A838983F80161918F01CE0101960E9470
:10549000FE29F4E00D301F0781F741E065E57CE06F
:1054A00084E090E00E94B71A0F900F90DF91CF91A7
:1054B0001F910F91FF90EF900895CF93DF93EC0130
:1054C000DB018C918F7D8935D9F441E063EE72E088
:1054D00084E090E00E94B71AE9EFF3E084E1DF0195
:1054E0001D928A95E9F70E94172A888D998D0E944E
:1054F000801470E060E0CE01DF91CF910C9417250D
:1055000063EF72E0888D998D0E94FE14EECFCF92EA
:10551000DF92EF92FF920F931F93CF93DF93EC01F3
:105520008B0141E062ED72E086E090E00E94B71AE4
:105530004AE050E070E060E0C8010E941C376B0157
:10554000CB01181619064CF4F80120812D3029F0F2
:105550002A3019F066307105BCF06EEB72E0888D70
:10556000998D0E94FE14888D998D0E94801470E0A0
:1055700060E0CE01DF91CF911F910F91FF90EF90EE
:10558000DF90CF900C94172586010150110940E05F
:1055900066E972E084E090E00E94B71A41E0B80149
:1055A00084E090E00E94B719F4E0CF0ED11CF60120
:1055B000EE0FFF1FEE0FFF1FEB51FC4F1082118209
:1055C000128213820E94172A69EA72E0888D998DEF
:1055D0000E940608E88CF98C70E060E0C7010E9428
:1055E0007414C7010E948014BECF8F929F92AF9215
:1055F000BF92EF92FF920F931F93CF93DF938C0193
:105600007B01FB0180818D30D9F18A30C9F188237B
:10561000B9F14AE050E070E060E0C7010E941C3739
:105620004B015C0140E06CE272E085E090E00E949A
:10563000B71A21E0B501A40185E090E00E9471193C
:105640000E94D007A9EFB3E0FD0190E080E0419116
:10565000519161917191452B462B472B09F0019691
:1056600024E0ED30F20799F781149104A104B1040C
:1056700051F441E06DE072E083E090E00E94B71ADF
:10568000C1E0D0E01AC04D915D916D917D9184167D
:105690009506A606B70609F48BC0EA17FB0799F72B
:1056A000853091050CF45FC041E061EE71E083E06C
:1056B00090E00E94B71AC3E0D0E068E872E0F80119
:1056C000808D918D0E940608B701F801808D918D23
:1056D0000E94841466E772E0F801808D918D0E942B
:1056E0000608BE01F801808D918D0E94741460E45B
:1056F00072E0F801808D918D0E941015F801808D67
:10570000918DC230D10509F44DC0C330D10509F4E3
:105710004CC0C130D105F1F16EE672E00E94FE147A
:1057200047E050E061E070E080913D0390913E03DE
:105730000E9486116AE472E0F801808D918D0E94CA
:105740008414C8010E94312070E060E0C801DF913C
:10575000CF911F910F91FF90EF90BF90AF909F90CE
:105760008F900C941725880F991F880F991FFC01A3
:10577000E750FC4F80829182A282B3820E94172A56
:1057800041E060ED71E084E090E00E94B71AD0E063
:10579000C0E093CF68E572E00E94FE1446E050E05E
:1057A000BE01C2CF67E472E0F7CF66E372E0F4CFE8
:1057B00041E067EF71E083E090E00E94B71AC2E039
:1057C000D0E07BCFCF92DF92EF92FF920F931F93A7
:1057D000CF93DF9300D0CDB7DEB77C018B0141E0E2
:1057E0006AE475E086E090E00E94B71AF8018081D3
:1057F000982F9F7D993511F08133E9F541E069E3F8
:1058000075E085E090E00E94B71A4BE150E06FE64A
:1058100072E081E294E00E9455388DE094E00E94AD
:105820003A0E8823B1F141E064EF74E084E090E047
:105830000E94B71A10E000E040E06EE075E085E0FD
:1058400090E00E94B71A41E0B80185E090E00E9424
:10585000B719F701808D918D60E375E0012B11F48C
:1058600060E275E00E94FE146AE472E0F701808D48
:10587000918D0E948414C7010E94AD210F900F905A
:10588000DF91CF911F910F91FF90EF90DF90CF901C
:1058900008958DE094E00E941F0E90931004809371
:1058A0000F0480910D0490910E040DE014E09C0112
:1058B0002D5034406901C601800F911F9A8389835E
:1058C000F80161918F01CE0101960E94FE29F4E05A
:1058D00005371F0781F741E064EE74E084E090E053
:1058E0000E94B71A01E010E0A7CF0F931F93CF9348
:1058F000DF9300D0CDB7DEB78C018091010190918C
:105900000201892B29F5F8018081918171836083DF
:1059100086179707E9F080915404909155040297F7
:10592000B9F440E068E670E084E090E00E94B71AC5
:10593000F8016081718141E084E090E00E94B71934
:10594000F80160811A821982CE0101960E94FE2917
:10595000F801808191810F900F90DF91CF911F917D
:105960000F9108951F920F920FB60F9211242F934B
:105970003F934F935F936F937F938F939F93AF93D7
:10598000BF93EF93FF9380912E0390912F03A091EB
:105990003003B0913103892B8A2B8B2BD1F190915D
:1059A0002D03E0912B03F0912C03808189278083C4
:1059B00080912E0390912F03A0913003B091310379
:1059C000181619061A061B069CF480912E03909156
:1059D0002F03A0913003B09131030197A109B109C0
:1059E00080932E0390932F03A0933003B093310341
:1059F000FF91EF91BF91AF919F918F917F916F91A7
:105A00005F914F913F912F910F900FBE0F901F907C
:105A10001895809100010E94C109EACF1F920F9250
:105A20000FB60F9211242F933F934F935F936F9371
:105A30007F938F939F93AF93BF93EF93FF9388E4EC
:105A400093E00E94A808FF91EF91BF91AF919F91C1
:105A50008F917F916F915F914F913F912F910F9017
:105A60000FBE0F901F9018951F920F920FB60F92B6
:105A700011242F938F939F93EF93FF93E0915803FB
:105A8000F09159038081E0915E03F0915F0382FD04
:105A90001BC09081809161038F5F8F73209162039F
:105AA000821741F0E0916103F0E0E85BFC4F958FD5
:105AB00080936103FF91EF919F918F912F910F90B0
:105AC0000FBE0F901F9018958081F4CF1F920F92F8
:105AD0000FB60F9211242F933F938F939F93AF9301
