:100000000C942A060C9452060C9452060C948012FE
:100010000C9480120C9480120C9452060C94F810DC
:100020000C9452060C9452060C9452060C945206F0
:100030000C9452060C9452060C9452060C945206E0
:100040000C94C8260C9452060C944E120C94281250
:100050000C9452060C9452060C9452060C945206C0
:100060000C9452060C945206480761077A079307CE
:10007000AE07C907CC07CF07DC07F70712082D0822
:10008000A50AAC0AB20ABD0AC70AE60AEA0A3C0B8C
:100090004C0B5C0B6C0B7C0B9E0BAA0BB60BBE0BBC
:1000A000CE0BDE0BEE0B53746F726167653A3A4C00
:1000B0006F6164282920454E440073697A656F6634
:1000C000285429200073697A656F66282A6F626A4E
:1000D0006563745F7265662920006F626A65637488
:1000E0005F7265662D3E73746F726167655F6E61E6
:1000F0006D65202700656570726F6D5F6164647265
:10010000657373200053746F726167653A3A4C6F80
:100110006164282920636865636B73756D206D6960
:10012000736D617463680053746F726167653A3A06
:100130004C6F6164282920424547494E005365743D
:1001400074696E67733A3A4C6F6164282920454E92
:10015000440053657474696E67733A3A4C6F616416
:100160002829207573696E67206C6F61646564204F
:1001700073657474696E67732027005365747469BE
:100180006E67733A3A4C6F61642829207573696E03
:10019000672064656661756C742073657474696E3C
:1001A000677320270053657474696E67733A3A4C1D
:1001B0006F616428292063686B736D206D69736DAE
:1001C0006174636820736F206372656174696E6720
:1001D0002064656661756C742053657474696E671C
:1001E00073282900272063686B736D2030780027FF
:1001F0002073657474696E67735F6E616D65202727
:100200000053657474696E67733A3A4C6F61642881
:10021000292073746F726167655F6E616D65202759
:10022000004661696C73616665206C6F6164696E1C
:10023000672064656661756C742073657474696E9B
:1002400067730053657474696E67733A3A4C6F61F3
:1002500064282920424547494E0053657474696EED
:1002600067206F7574707574207377697463682084
:100270007065722070726F78696D6974795F7374DC
:100280006174653A200053746F726167653A3A4C45
:100290006F6164282920454E440073697A656F6652
:1002A000285429200073697A656F66282A6F626A6C
:1002B0006563745F7265662920006F626A656374A6
:1002C0005F7265662D3E73746F726167655F6E6104
:1002D0006D65202700656570726F6D5F6164647283
:1002E000657373200053746F726167653A3A4C6F9F
:1002F0006164282920636865636B73756D206D697F
:10030000736D617463680053746F726167653A3A24
:100310004C6F6164282920424547494E005461676B
:10032000733A3A4C6F6164282920454E4400546169
:1003300067733A3A4C6F6164282920636865636B80
:1003400073756D206D69736D617463682C206372C1
:10035000656174696E67206E6577207461672D73BF
:10036000657400546167733A3A4C6F6164282920C0
:10037000424547494E004D656E753A3A4265676998
:100380006E2829002C207769746820454550524F0B
:100390004D2070726F78696D69747920737461741F
:1003A0006520005374617274696E6720436F6E74C8
:1003B000726F6C6C65722077697468207265616415
:1003C0006572200044656275672070696E204C4F2D
:1003D00057202E2E2E20656E61626C696E67206438
:1003E000656275670044656275672070696E207389
:1003F00074617475733A20002C2000426F6F746929
:100400006E6720436F6E74726F6C6C657220496DFD
:100410006D6F62696C697A65722C200027206F66A7
:100420002073697A6520004C6F61646564205365B0
:100430007474696E677320270052652D696E697444
:1004400069616C697A65642073657269616C20709A
:100450006F72742077697468206C6F6164656420C2
:1004600073657474696E67733A2000496E697469C4
:10047000616C697A65642064656661756C7420736B
:10048000657269616C20706F727420402035373658
:10049000303020626175640020004C65643A3A6631
:1004A00061737442656570282920004C65643A3A8E
:1004B00073746561647928292000746F6E655F66C6
:1004C00072657175656E637900524649445F4241B9
:1004D00055440042545F424155440048575F5345DC
:1004E0005249414C5F424155440044454641554CB8
:1004F000545F52454144455200656E61626C655FD0
:1005000064656275670070726F78696D6974795F90
:1005100073746174655F7374617274757000616483
:100520006D696E5F74696D656F7574005245414405
:1005300045525F4359434C455F484947485F4455DE
:10054000524154494F4E005245414445525F435930
:10055000434C455F4C4F575F4455524154494F4EB1
:10056000005441475F524541445F534C4545505FFD
:10057000494E54455256414C005441475F4C4153FB
:10058000545F524541445F54494D454F55540061B5
:10059000646454616728292073756363657373000D
:1005A0006164645461672829206661696C65643AF6
:1005B0002044757065006164645461672829206671
:1005C00061696C65643A2046756C6C0061646454C2
:1005D000616728292061626F727465643A20496EF0
:1005E00076616C696420636F646500616464546162
:1005F00067282920006661696C65642C2074616736
:10060000206973206475706C69636174650066614C
:10061000696C65642C20746167206C69737420694F
:10062000732066756C6C0061626F727465642C2057
:10063000696E76616C6964207461672D69642073EA
:100640007472696E670073756363657373004164E8
:1006500064546167282920726573756C743A2000B0
:1006600054616720656E74657265643A2000646544
:100670006C657465546167496E64657828293A2011
:100680000044656C65746554616728292072657340
:10069000756C743A200064656C65746554616728F4
:1006A000292061626F727465640064656C657465AD
:1006B000416C6C5461677328290064656C657465CE
:1006C000416C6C5461677328292061626F72746594
:1006D000640075706461746553657474696E67282D
:1006E000292063616C6C20746F20532E75706461D7
:1006F000746553657474696E672829206661696C36
:1007000065640075706461746553657474696E67BF
:1007100028292061626F72746564004672656520E5
:100720004D656D6F72793A20003A2000436F6E7309
:100730007472756374696E67205265616465723A9C
:1007400020007905610547052C051E050605F904FD
:10075000EA04DB04D304C904BA0453746F726167FA
:10076000653A3A73617665282920454E44005374F2
:100770006F726167653A3A7361766528292063680C
:100780006B736D206D69736D617463682C20636198
:100790006C6C696E6720454550524F4D2E707574D4
:1007A00028290053746F726167653A3A7361766500
:1007B000282920454E440053746F726167653A3AA8
:1007C00073617665282920454550524F4D2075703C
:1007D00064617465206E6F74206E65636573736108
:1007E0007279002073697A656F6628542920002782
:1007F00020746F2061646472657373200053746F9A
:10080000726167653A3A736176652829202700533B
:10081000746F726167653A3A736176652829204280
:100820004547494E0053657474696E67733A3A736D
:10083000617665282920726573756C743A200053BF
:10084000746F726167653A3A73617665282920454D
:100850004E440053746F726167653A3A736176650E
:1008600028292063686B736D206D69736D617463F3
:10087000682C2063616C6C696E6720454550524F4F
:100880004D2E70757428290053746F726167653A34
:100890003A73617665282920454E440053746F727F
:1008A0006167653A3A73617665282920454550525B
:1008B0004F4D20757064617465206E6F74206E6595
:1008C00063657373617279002073697A656F662856
:1008D000542920002720746F20616464726573734B
:1008E000200053746F726167653A3A7361766528C8
:1008F0002920270053746F726167653A3A736176F5
:1009000065282920424547494E0020746F206164C4
:1009100064726573732000536176696E6720746139
:100920006773207769746820636865636B73756D9E
:10093000203078000243616C6C696E672045455039
:10094000524F4D2E7570646174652077697468200C
:1009500070726F78696D6974795F73746174653AE8
:1009600020002C20002C20004C45442070776D3A4C
:1009700020002C20002C20004C454420746F6E6514
:100980003A20002C20004C45442077726974653A67
:1009900020004C65643A3A6F6666282920004C6551
:1009A000643A3A736C6F77426C696E6B2829200049
:1009B0004C65643A3A66617374426C696E6B2829BF
:1009C00020004C65643A3A73746172747570426CBD
:1009D000696E6B2829200029200046524545205287
:1009E000414D2028002C20757074696D653A2000F7
:1009F0006E6576657200207365636F6E6473206147
:100A0000676F002C20726561646572206379636C86
:100A100065643A20006E6576657200207365636FC9
:100A20006E64732061676F006379636C6552656102
:100A3000646572506F77657228292074616720722F
:100A40006561643A20004C65643A3A6F6E636528CC
:100A5000292000556E617574686F72697A6564202B
:100A60006F7220696E76616C6964207461673A20E8
:100A700000417574686F72697A6564207461673AC1
:100A8000200020004C65643A3A66617374426565E3
:100A900070282920004C65643A3A626567696E20C7
:100AA00063757272656E742C206E65773A004C65C2
:100AB000643A3A757064617465282920736B6970B3
:100AC00070696E6720626567696E2829004C6564ED
:100AD0003A3A7570646174652063757272656E74FC
:100AE0002C206E65773A20004C65643A3A75706444
:100AF000617465205F696E74657276616C735B30DA
:100B00005D3A200000000000240027002A000000B9
:100B100000080002010000030407000000000000BC
:100B200000002C2073697A65200053657474696E27
:100B300067732C2063686B736D203078002E200063
:100B40002C2073697A652000546167732C206368D8
:100B50006B736D20307800362E2044656C657465AB
:100B600020616C6C207461677300352E20536574AE
:100B700074696E677300342E2053686F7720667235
:100B80006565206D656D6F727900332E2044656C4C
:100B90006574652074616700322E2041646420749E
:100BA000616700312E204C69737420746167730093
:100BB000302E2045786974004D656E750000000088
:100BC0000023002600290000000000250028002B3B
:100BD00000040404040404040402020202020203E6
:100BE00003030303030102040810204080010204F0
:100BF0000810200102040810205246494420616474
:100C00006D696E20636F6E736F6C652C200075705C
:100C10006461746541646D696E54696D656F757466
:100C200028293A20003A2000456E746572696E6783
:100C30002072756E206D6F64650020736574746931
:100C40006E672072756E5F6D6F6465203D3E20306B
:100C500000008E2D11241FBECFEFD8E0DEBFCDBF28
:100C600013E0A0E0B1E0E4E4FCE602C005900D92E0
:100C7000A43AB107D9F725E0A4EAB3E001C01D9278
:100C8000A135B207E1F716E0CAE2D6E004C0219729
:100C9000FE010E942833C932D107C9F70E941227EA
:100CA0000C9420360C94000060E070E0CB010895B5
:100CB000FC012689378937FF04C060E070E0CB0172
:100CC0000895220F331F220F331FFC01E20FF31F81
:100CD00062817381848195810895CF93DF93FC01B4
:100CE0002689378937FF05C060E070E080E090E03A
:100CF0000EC0EC010190F081E02D0480F581E02D23
:100D000009952E893F89215031093F8B2E8BDF9128
:100D1000CF9108952FEF3FEFDC0157963C932E9330
:100D20005697FC019C012C5E3F4F13821282158264
:100D300014823496E217F307C1F74115510511F4F7
:100D400060FF07C0DC01ED91FC910190F081E02D86
:100D5000099408959F92AF92BF92CF92DF92EF9243
:100D6000FF920F931F93CF93DF93EC018B01942E8F
:100D7000E881F9810480F581E02D09956B017C0102
:100D80008E899F8997FD3AC0570181E0A822BB2434
:100D9000C114D10421F4A114B10469F52FC0992024
:100DA00039F0E881F9810280F381E02DCE010995C7
:100DB000AB2871F0F701F595E795EC0FFD1F019059
:100DC000F081E02DEC0DFD1D0190F081E02D01C0C2
:100DD000F601C70195958795B8018C0F9D1FDF918E
:100DE000CF911F910F91FF90EF90DF90CF90BF9028
:100DF000AF909F9009949920E9F2D3CFDF91CF91E2
:100E00001F910F91FF90EF90DF90CF90BF90AF9028
:100E10009F900895FC014115510511F460FF11C028
:100E2000268937892F5F3F4F378B268B220F331F41
:100E3000220F331FE20FF31F4283538364837583B2
:100E400008956AE172E08FE094E00C940212EF9250
:100E5000FF920F931F93CF93DF93EC01CA01122FE0
:100E6000032F7B0121E0E21AF108F701EE0FFF1FCB
:100E7000EE5BF84F659174910E9402308CE0E816A9
:100E8000F10408F0FEC0F701EC5CFF4F0C9428332E
:100E90008FA98F938EA98F938DA98F938CA98F93F0
:100EA0008AE392E09F938F930F931F930E946D3379
:100EB0008DB79EB708960FB6F8949EBF0FBE8DBF34
:100EC000E0C08BAD8F938AAD8F9389AD8F9388AD42
:100ED0008F938AE392E09F938F930F931F930E94C7
:100EE0006D338DB79EB708960FB6F8949EBF0FBEB0
:100EF0008DBFC7C08FAD8F938EAD8F938DAD8F9308
:100F00008CAD8F938AE392E09F938F930F931F93FF
:100F10000E946D338DB79EB708960FB6F8949EBFAA
:100F20000FBE8DBFAEC0C05CDF4F8B818F938A81B7
:100F30008F9389818F9388818F938AE392E09F9327
:100F40008F930F931F930E946D338DB79EB70896B2
:100F50000FB6F8949EBF0FBE8DBF93C0CC5BDF4F22
:100F60008B818F938A818F9389818F9388818F93CF
:100F70008AE392E09F938F930F931F930E946D33A8
:100F80008DB79EB708960FB6F8949EBF0FBE8DBF63
:100F900078C0C85BDF4F63C0C65BDF4F60C0BE0177
:100FA000645B7F4F812F902FDF91CF911F910F9125
:100FB000FF90EF900C946633C45ADF4F8B818F9370
:100FC0008A818F9389818F9388818F9381E492E0C6
:100FD0009F938F930F931F930E946D338DB79EB78E
:100FE00008960FB6F8949EBF0FBE8DBF4AC0C05A78
:100FF000DF4F8B818F938A818F9389818F93888133
:101000008F9381E492E09F938F930F931F930E949D
:101010006D338DB79EB708960FB6F8949EBF0FBE7E
:101020008DBF2FC0CC59DF4F8B818F938A818F93D7
:1010300089818F9388818F9381E492E09F938F932E
:101040000F931F930E946D338DB79EB708960FB60E
:10105000F8949EBF0FBE8DBF14C0C859DF4F898161
:101060008F9388818F938EE392E09F938F930F935A
:101070001F930E946D330F900F900F900F900F9061
:101080000F90DF91CF911F910F91FF90EF900895F6
:101090006F927F928F929F92AF92BF92CF92DF9288
:1010A000EF92FF920F931F93CF93DF93CDB7DEB7ED
:1010B0006C014B016DB67EB6FC01F38844894F5F2D
:1010C0004F1950E04F5F5F4F8DB79EB7841B950B54
:1010D0000FB6F8949EBF0FBE8DBF0DB71EB70F5F42
:1010E0001F4F65E171E0C8010E945433F401EF0D18
:1010F000F11D7F0185E4A82E82E0B82EF6018489D7
:1011000090E097012819390982179307C4F0F70175
:1011100021917F01F80101900020E9F71F922F93A0
:10112000BF92AF92CF0101979F938F930E946D332F
:101130000F900F900F900F900F900F90DFCF40E126
:1011400050E060E070E0C8010E94E32E0FB6F89412
:101150007EBE0FBE6DBEDF91CF911F910F91FF90AC
:10116000EF90DF90CF90BF90AF909F908F907F9047
:101170006F9008956F927F928F929F92AF92BF92DD
:10118000CF92DF92EF92FF920F931F93CF93DF9353
:10119000CDB7DEB76C014B016DB67EB6FC0103899D
:1011A000448950E010E0401B510B4F5F5F4F440FEC
:1011B00050E04F5F5F4F8DB79EB7841B950B0FB606
:1011C000F8949EBF0FBE8DBFEDB7FEB731967F017D
:1011D00065E171E0CF010E945433080D191D88E4C8
:1011E000A82E82E0B82EF601848990E09801281993
:1011F000390982179307C4F0F80121918F01F70193
:1012000001900020E9F71F922F93BF92AF92CF0178
:1012100001979F938F930E946D330F900F900F90C3
:101220000F900F900F90DFCF40E150E060E070E052
:10123000C7010E94E32E0FB6F8947EBE0FBE6DBEAE
:10124000DF91CF911F910F91FF90EF90DF90CF90A2
:10125000BF90AF909F908F907F906F9008956F9206
:101260007F928F929F92AF92BF92CF92DF92EF9236
:10127000FF920F931F93CF93DF93CDB7DEB76C012F
:101280004B016DB67EB6FC01F38844894F1950E0DE
:101290004F5F5F4F8DB79EB7841B950B0FB6F894C9
:1012A0009EBF0FBE8DBF0DB71EB70F5F1F4F65E10D
:1012B00071E0C8010E945433F401EF0DF11D7F016C
:1012C00085E4A82E82E0B82EF601848990E097018B
:1012D0002819390982179307C4F0F70121917F017A
:1012E000F80101900020E9F71F922F93BF92AF926F
:1012F000CF0101979F938F930E946D330F900F90B2
:101300000F900F900F900F90DFCF40E150E060E022
:1013100070E0C8010E94E32E0FB6F8947EBE0FBEA7
:101320006DBEDF91CF911F910F91FF90EF90DF90F5
:10133000CF90BF90AF909F908F907F906F900895C7
:10134000CF92DF92EF920F93CF93DF93EC016B017B
:101350008AE191E0998388834A8B2B8B0C8BED8AF1
:10136000FE01769680E1DF011D928A95E9F71EA2C3
:101370000E94BC266FA378A789A79AA71BA61CA6C4
:101380001DA61EA61FA618AA19AA1AAA1BAA1CAA3D
:101390001DAA1EAA1FAA18AE19AE1AAE1BAE1CAE0D
:1013A0001DAE1EAEFE01FF961082118212821382C4
:1013B0003496108211821282138234961082118226
:1013C000128213823496108211821282138240E1BB
:1013D00050E0B601CE0102960E9409306CE277E03F
:1013E0008FE094E00E945B11B6018FE094E0DF9102
:1013F000CF910F91EF90DF90CF900C940212EF926B
:10140000FF920F931F93CF93DF93CDB7DEB7E09793
:101410000FB6F894DEBF0FBECDBF7C018B014AE052
:1014200050E060E070E0C8010E94E32EF701EF5B3E
:10143000FF4F718360839B01215031092B303105AF
:1014400060F59E012F5D3F4FAE014F5F5F4F86ED10
:1014500094E00E942707BE016F5F7F4FF701808DE8
:10146000918D0E94261269E277E0F701808D918DBF
:101470000E945B11BE016F5D7F4FF701808D918DE2
:101480000E9402122EEF3AE040E050E000E06DE4EE
:1014900072E0C7010E94D0220FC0F8018081803322
:1014A00021F08D3011F08A3021F4C7010E94892388
:1014B00003C0C7010E945724E0960FB6F894DEBF20
:1014C0000FBECDBFDF91CF911F910F91FF90EF9095
:1014D0000895CF92DF92EF92FF920F931F93CF93D5
:1014E000DF931F92CDB7DEB77C016B01DB018C91DE
:1014F0008983805387010F5B1F4F8A3030F08FEF55
:101500009FEFF8019183808315C04AE050E060E0CE
:1015100070E0CE0101960E94E32E6F3F7F4F79F37A
:101520004AE050E060E070E0C6010E94E32ED8017E
:101530006D937C93D801ED91FC91E730F10508F0B3
:1015400050C0E05CFF4F0C94283340E050E0BA01FB
:10155000C7010E94142348C020E030E0A90160E0E8
:1015600070E011C028EC3CE040E050E001E06AE6A9
:1015700072E0C7010E94D02237C02FE53CE040E076
:1015800050E060EA72E0C7010E94C9232DC08DE1DE
:1015900093E00E94F9168C016BE177E0F701808DF2
:1015A000918D0E945B11B801D70158968D919C9145
:1015B00059970E94E61CF701808D918D0E94EC11D5
:1015C0006AEB72E0C7010E94F5220EC0C7010E94BB
:1015D00057240AC020E33CE040E050E06DEC72E0AC
:1015E000D2CFC7010E9489230F90DF91CF911F9125
:1015F0000F91FF90EF90DF90CF900895AF92BF9240
:10160000CF92DF92EF92FF920F931F93CF93DF93CE
:10161000CDB7DEB7A0970FB6F894DEBF0FBECDBF33
:101620006C018B01FB01808196012F5B3F4F5901BB
:101630008D3021F08A3011F0811103C063E077E032
:10164000F2C0F901E080F180F1E0EF1AF108F70152
:10165000EE0FFF1FEE5BF84F65917491CE0101967E
:101660000E9402302CE0E216F10408F0DAC0F70123
:10167000E95BFF4F0C9428334AE050E060E070E0F3
:10168000C8010E94E32E60930A0570930B058093B6
:101690000C0590930D05ADC04AE050E060E070E0AD
:1016A000C8010E94E32E60930E0570930F0580938E
:1016B0001005909311059DC04AE050E060E070E095
:1016C000C8010E94E32E6093120570931305809366
:1016D0001405909315058DC04AE050E060E070E07D
:1016E000C8010E94E32E609316057093170580933E
:1016F0001805909319057DC04AE050E060E070E065
:10170000C8010E94E32E6A3071058105910548F0F9
:1017100060931A0570931B0580931C0590931D051B
:1017200068C08AE090E0A0E0B0E080931A05909352
:101730001B05A0931C05B0931D055BC04AE050E05B
:1017400060E070E0C8010E94E32E70931F05609373
:101750001E054FC04AE050E060E070E0C8010E9402
:10176000E32E709321056093200543C040E150E0D3
:10177000B80182E295E00E9409303BC04AE050E0A7
:1017800060E070E0C8010E94E32E60933205709320
:10179000330580933405909335052BC04AE050E023
:1017A00060E070E0C8010E94E32E609336057093FC
:1017B000370580933805909339051BC04AE050E007
:1017C00060E070E0C8010E94E32E60933A057093D8
:1017D0003B0580933C0590933D050BC04AE050E0EB
:1017E00060E070E0C8010E94E32E70933F056093B3
:1017F0003E0540E250E064EE72E08AEE94E00E9422
:10180000093086ED94E00E94ED1440911A05509144
:101810001B0560911C0570911D05C6010E941423D3
:1018200006C062ED76E08FE094E00E9414128FEF24
:101830009FEFF50191838083C6010E945724A096F3
:101840000FB6F894DEBF0FBECDBFDF91CF911F91D1
:101850000F91FF90EF90DF90CF90BF90AF900895E1
:10186000CF93DF93EC01DB018C918F7D893591F46F
:101870006AEA76E08FE094E00E94141284E1E0ECE2
:10188000F4E0DF011D928A95E9F78CEA94E00E946A
:10189000B61306C06AEB76E0888D998D0E9414120B
:1018A000888D998D0E94EC1120E030E0A90160E064
:1018B00070E0CE010E94C923DF91CF910895CF92AD
:1018C000DF92EF92FF920F931F93CF93DF93EC0180
:1018D0008B014AE050E060E070E0C8010E94E32E16
:1018E0006B017C01CB01181619064CF4F80120811C
:1018F0002D3029F02A3019F0653071053CF066E989
:1019000076E0888D998D0E9414122DC086010150B9
:1019100011096EE676E08FE094E00E945B11B80159
:101920008FE094E00E94E61CF4E0CF0ED11CC601CB
:10193000880F991F880F991FFC01E455FB4F1082F7
:101940001182128213828CEA94E00E94B61361E83D
:1019500076E0888D998D0E945B1160E070E0888D43
:10196000998D0E94E61C888D998D0E94EC1120E0D3
:1019700030E0A90160E070E0CE010E94C923DF9150
:10198000CF911F910F91FF90EF90DF90CF9008952E
:101990008F929F92AF92BF92EF92FF920F931F93FD
:1019A000CF93DF938C017B01FB0180818D3009F4A3
:1019B0006DC08A3009F46AC0882309F467C04AE020
:1019C00050E060E070E0C7010E94E32E4B015C0133
:1019D0006BEE75E08FE094E00E945B11C501B401ED
:1019E0000E94091E8CEA94E00E947013E0ECF4E07F
:1019F000DF0180E090E04D915D916D917D91452BEF
:101A0000462B472B09F0019624E0A43DB20799F735
:101A100081149104A104B10439F46CEC75E08FE0F9
:101A200094E00E94141232C0853091054CF066EBB0
:101A300075E08FE094E00E941412C2E0D0E028C06C
:101A4000419151916191719184169506A606B70650
:101A500009F477C024E0E43DF20791F7880F991F5D
:101A6000880F991FFC01E054FB4F80829182A28273
:101A7000B3828CEA94E00E94B6136FE875E08FE0C1
:101A800094E00E941412C0E0D0E002C0C1E0D0E0B7
:101A900060E676E0F801808D918D0E945B11B701C0
:101AA000F801808D918D0E9402126EE476E0F801BB
:101AB000808D918D0E945B11BE01F801808D918D0A
:101AC0000E94B01C64EF72E0F801808D918D0E943D
:101AD0002612F801808D918DC230D10559F0C330A6
:101AE000D10559F0219719F066E476E008C067E265
:101AF00076E005C06EE076E002C065EF75E00E941A
:101B00005B11F801808D918D0E94EC11F801808DA0
:101B1000918D0E94EC11C8010E94D02120E030E09C
:101B2000A90160E070E0C8010E94C923DF91CF9154
:101B30001F910F91FF90EF90BF90AF909F908F906B
:101B4000089560EA75E08FE094E00E941412C3E00B
:101B5000D0E09ECF3F924F925F926F927F928F9292
:101B60009F92AF92BF92CF92DF92EF92FF920F932C
:101B70001F93CF93DF93CDB7DEB7C056D1090FB611
:101B8000F894DEBF0FBECDBF2B0101E010E08EE266
:101B9000382E3E0183E0680E711C6E0191E5C90E7E
:101BA000D11C7E01E1E3EE0EF11C97EF892E92E04D
:101BB000992ECE0101965C011A821982F301832DC0
:101BC00011928A95E9F79601A701B80186ED94E094
:101BD0000E942707DF92CF92FF92EF921F930F93FD
:101BE0009F928F92BF92AF920E946D33B501C20156
:101BF0000E9402120F5F1F4F0FB6F894DEBF0FBE98
:101C0000CDBF0D301105C1F6C05ADF4F0FB6F894A5
:101C1000DEBF0FBECDBFDF91CF911F910F91FF901F
:101C2000EF90DF90CF90BF90AF909F908F907F907C
:101C30006F905F904F903F900895CF93DF93EC01AA
:101C400040E150E06BEE72E004960E94093080E2C1
:101C500093E0998388838EE190E0A0E0B0E08CABC4
:101C60009DABAEABBFAB88EE93E0A0E0B0E088AF39
:101C700099AFAAAFBBAF86E990E0A0E0B0E08CAF2F
:101C80009DAFAEAFBFAFFE01E05CFF4F8FE090E0D5
:101C9000A0E0B0E080839183A283B38334968CE389
:101CA00090E0A0E0B0E080839183A283B383349678
:101CB00081E090E091838083329611821082729647
:101CC00080E091EEA0E0B0E080839183A283B383B3
:101CD000349680E895E2A0E0B0E080839183A2830F
:101CE000B383349680839183A283B383349680E058
:101CF00094E09183808340E250E069E072E0CE019D
:101D000044960E94093040E150E065E073E0CE0166
:101D1000845B9F4FDF91CF910C940930EF920F932A
:101D2000CF93DF93EC01E12C0AE023E04DE065E086
:101D300073E00E94A0098CE291E099838883DF918F
:101D4000CF910F91EF900895EF920F93CF93DF9380
:101D5000EC01EE24E39407E024E04AE06CE073E059
:101D60000E94A00986E291E099838883DF91CF9158
:101D70000F91EF900895EF920F93CF93DF93EC01C3
:101D8000EE24E3940AE023E04EE062E173E00E9477
:101D9000A00980E291E099838883DF91CF910F9130
:101DA000EF900895DC0196961C92FC01769620E156
:101DB000DF011D922A95E9F70895CF93FC01428136
:101DC000538113821282DC01BC0166597F4F80E08F
:101DD00090E02C9130E0322F22271196CC91119770
:101DE0002C2B8227932712966A177B0791F7538330
:101DF0004283CF910895CF92DF92EF92FF920F939B
:101E00001F93CF93DF936C017A018B01C0E0D0E088
:101E1000CE15DF0581F0D8016D918D01D601ED91D0
:101E2000FC910190F081E02DC6010995892B11F0FC
:101E30002196EECF7E01C701DF91CF911F910F91C7
:101E4000FF90EF90DF90CF900895FC01538D448D6B
:101E5000252F30E0842F90E0821B930B541710F055
:101E6000CF96089501970895FC01918D828D981762
:101E700061F0828DDF01A80FB11D5D968C91928D6E
:101E80009F5F9F73928F90E008958FEF9FEF08956B
:101E9000FC01918D828D981731F0828DE80FF11D34
:101EA000858D90E008958FEF9FEF0895FC01918D4F
:101EB000228D892F90E0805C9F4F821B91098F7348
:101EC000992708958FE094E00E94560F21E0892B16
:101ED00009F420E0822F0895FC01848DDF01A80F12
:101EE000B11DA35ABF4F2C91848D90E001968F7342
:101EF0009927848FA689B7892C93A089B1898C9161
:101F0000837080648C93938D848D981306C00288AF
:101F1000F389E02D80818F7D80830895EF92FF9279
:101F20000F931F93CF93DF93EC0181E0888F9B8DFC
:101F30008C8D981305C0E889F989808185FD26C0BC
:101F4000F62E0B8D10E00F5F1F4F0F731127E02E41
:101F50008C8DE8120CC00FB607FCFACFE889F9891E
:101F6000808185FFF5CFCE010E946C0FF1CF8B8D64
:101F7000FE01E80FF11DE35AFF4FF0829FB7F8947E
:101F80000B8FEA89FB89808180620AC09FB7F89431
:101F9000EE89FF896083E889F98980818370806494
:101FA00080839FBF81E090E0DF91CF911F910F91DF
:101FB000FF90EF900895CF93DF93EC01888D8823F5
:101FC000C9F0EA89FB89808185FD05C0A889B989A6
:101FD0008C9186FD0FC00FB607FCF5CF808185FF81
:101FE000F2CFA889B9898C9185FFEDCFCE010E94EF
:101FF0006C0FE7CFDF91CF91089580E090E0892BBF
:1020000029F00E94620F81110C9400000895209124
:102010000D0430910E042817390771F49091FC03D8
:102020008091FB03981741F0E091FC03F0E0E55448
:10203000FC4F808190E008958FEF9FEF0895089501
:102040001F93CF93DF93DC015C968D919C915D97FC
:10205000009739F421E030E013963C932E931297C9
:102060003BC05196ED91FC91529750962C91509710
:10207000322F30951FB75E964C915E97742F727019
:1020800041FD6095F8944081772311F0422B01C007
:1020900043234083EC012197F1F748E0508160FF32
:1020A00002C0522B01C053235083EC012197F1F75A
:1020B0006695415099F78081772319F083238083B7
:1020C00002C0282B20831FBF5C968D919C915D9749
:1020D0000197F1F781E090E0DF91CF911F91089592
:1020E00020910D0430910E042817390771F4809166
:1020F000FB032091FC0390E0805C9F4F821B9109C1
:1021000060E470E00E94F532089580E090E0089568
:1021100020910D0430910E0428173907B9F49091DD
:10212000FC038091FB03981789F0E091FC03F0E039
:10213000E554FC4F80812091FC0330E02F5F3F4F3E
:102140002F7333272093FC0390E008958FEF9FEFC8
:102150000895089580E090E00895CF93FC014281B6
:10216000538113821282DC01BC01665D7F4F80E0E7
:1021700090E02C9130E0322F22271196CC911197CC
:102180002C2B8227932712966A177B0791F753838C
:102190004283CF9108950E944233909100018913A8
:1021A00024C0E4E3F9E0E4919FEF90930001E13073
:1021B000B9F098F0E230C9F4909170009D7F90934F
:1021C000700091E09093B0009091B100987F94607E
:1021D0009093B1001092B30008C010926E0005C039
:1021E00090916F009D7F90936F0060E00C94C224EB
:1021F0001F920F920FB60F9211242F933F934F937C
:102200005F936F937F938F939F93AF93BF93EF935E
:10221000FF938091B7039091B803A091B903B09157
:10222000BA03892B8A2B8B2B51F19091B603E09145
:10223000B403F091B5038081892780838091B7032F
:102240009091B803A091B903B091BA03181619067A
:102250001A061B06C4F48091B7039091B803A091AD
:10226000B903B091BA030197A109B1098093B703EB
:102270009093B803A093B903B093BA0304C08091BC
:1022800000010E94CD10FF91EF91BF91AF919F91FE
:102290008F917F916F915F914F913F912F910F900F
:1022A0000FBE0F901F901895DC01ED91FC910190ED
:1022B000F081E02D0994EF92FF920F931F93CF933B
:1022C000DF938C017B01C0E0D0E0F701EC0FFD1F34
:1022D0006491662361F0D801ED91FC910190F08149
:1022E000E02DC8010995892B11F02196EECFCE0182
:1022F000DF91CF911F910F91FF90EF90089561159D
:10230000710579F0FB0101900020E9F73197AF01E9
:10231000461B570BDC01ED91FC910280F381E02D0F
:10232000099480E090E008958F929F92AF92BF92BF
:10233000EF92FF920F931F93CF93DF93CDB7DEB74A
:10234000A1970FB6F894DEBF0FBECDBF7C01FA0196
:10235000CB0119A2223008F42AE08E010F5D1F4F35
:10236000822E912CA12CB12CBF01A50194010E94B9
:102370004630F901CA01015011096A3014F4605D58
:1023800001C0695CD8016C93232B242B252B61F7AA
:10239000B801C7010E947F11A1960FB6F894DEBF65
:1023A0000FBECDBFDF91CF911F910F91FF90EF90A6
:1023B000BF90AF909F908F9008959A01452B39F46C
:1023C000DC01ED91FC910190F081E02D0994AB01CD
:1023D00060E070E00C9494116BE173E00C947F1159
:1023E0000F931F93CF93DF93EC010E94DD118C01BB
:1023F000CE010E94EC11800F911FDF91CF911F91B0
:102400000F9108950F931F93CF93DF93EC010E94D8
:102410007F118C01CE010E94EC11800F911FDF9182
:10242000CF911F910F9108950F931F93CF93DF9337
:10243000EC010E945B118C01CE010E94EC11800F17
:10244000911FDF91CF911F910F9108950C947F11EF
:102450001F920F920FB60F9211242F933F934F9319
:102460005F936F937F938F939F93AF93BF93EF93FC
:10247000FF938FE094E00E946C0FFF91EF91BF916A
:10248000AF919F918F917F916F915F914F913F910C
:102490002F910F900FBE0F901F9018951F920F92C3
:1024A0000FB60F9211242F938F939F93EF93FF9367
:1024B000E0911F04F09120048081E0912504F091C7
:1024C000260482FD12C09081809128048F5F8F7353
:1024D00020912904821751F0E0912804F0E0E15F97
:1024E000FB4F958F8093280401C08081FF91EF916D
:1024F0009F918F912F910F900FBE0F901F90189565
:102500001F920F920FB60F9211242F933F934F9368
:102510005F936F937F938F939F93AF93BF93EF934B
:10252000FF93E0910D04F0910E04309709F451C02F
:10253000968DA685B785858591FF04C09C918923DA
:1025400029F447C09C91892309F043C0A389B48929
:102550009C918589809589238C9386899789019799
:10256000F1F7608D718DA685B785558538E020E03F
:10257000CB010197F1F7822F90E095958795282F51
:102580004C91452309F02068315091F7868D81FDEB
:1025900020958091FB0390E001968F7399273091ED
:1025A000FC03381749F0A091FB03B0E0A554BC4FE1
:1025B0002C938093FB0303C0868D8160868F828D70
:1025C000938D0197F1F7A389B4899C918589892B13
:1025D0008C93FF91EF91BF91AF919F918F917F91DC
:1025E0006F915F914F913F912F910F900FBE0F9080
:1025F0001F901895CF93DF93FC01828D938D892BCB
:1026000031F1A0910D04B0910E04EA17FB07F9F027
:10261000109751F05396CD91DC915497988155962F
:102620008C91809589238883868D8E7F868F1092EA
:10263000FB031092FC03F0930E04E0930D04A389B6
:10264000B4899C918589892B8C9381E001C080E0BD
:10265000DF91CF910895EF92FF920F931F93CF9345
:102660007C010E94AD108C01F701828193810817D3
:10267000190731F4C1E0C80101978E3F9F4F08F060
:10268000C0E06EE173E08FE094E00E942612F70153
:102690006281738140E150E08FE094E00E94DD119F
:1026A00066E373E08FE094E00E94261240E150E080
:1026B000B8018FE094E00E94DD116AE373E08FE0DF
:1026C00094E00E9426126C2F70E08FE094E00E944C
:1026D000E61C8C2FCF911F910F91FF90EF900895E2
:1026E000CF92DF92EF92FF9220E030E04FEF5FEF6A
:1026F000D901AA0FBB1FAA0FBB1FA80FB91F549661
:10270000CD90DD90ED90FC905797C114D104E10479
:10271000F10431F44F3F6FEF5607F1F4A9011CC0EB
:1027200021153105C9F04F3F6FEF5607A9F0FA01A7
:102730003596EE0FFF1FEE0FFF1FE80FF91FC08247
:10274000D182E282F38254961D921D921D921C92B8
:1027500057979A014FEF5FEF2F5F3F4F25303105BD
:102760003CF2FF90EF90DF90CF900895CF92DF92F0
:10277000EF92FF920F931F93CF93DF9300D0CDB7CB
:10278000DEB78C010E94701367E179E08FE094E07E
:102790000E945B11C8010E94AD1040E150E0BC01F5
:1027A0008FE094E00E94DD116AE079E08FE094E030
:1027B0000E945B11F801608171818FE094E00E94BA
:1027C000E61C7801F4E1EF0EF11C680188E2C80E06
:1027D000D11CF70141915191619171917F012AE0E2
:1027E0008FE094E00E9494116BEF71E08FE094E031
:1027F0000E942612CE14DF0461F78FE094E00E945D
:10280000EC11F801E080F18064EF78E08FE094E073
:102810000E941412F7FC03C0F801F182E08262EE1C
:1028200078E08FE094E00E945B11B8016C5F7F4F0D
:102830008FE094E00E94261264ED78E08FE094E04F
:102840000E945B11F801608171818FE094E00E9429
:10285000B01C68EC78E08FE094E00E945B114AE0E5
:1028600050E06AE270E08FE094E00E94F011C8014D
:102870000E942B13811126C063E578E08FE094E07D
:102880000E941412C8010E94AD10F8019383828344
:10289000E080F1806801FAE2CF0ED11CE01AF10A63
:1028A000C701800F911FF80161918F019A8389837D
:1028B000CE0101960E945C1C0C151D0589F76FE383
:1028C00078E008C06CE978E08FE094E00E94141290
:1028D00068E878E08FE094E00E9414120F900F9067
:1028E000DF91CF911F910F91FF90EF90DF90CF90EC
:1028F00008950F931F93CF93DF93EC018C010C5F2E
:102900001F4F40E150E06AE473E0C8010E940930C3
:102910008CEB92E099838883FE01749684E1DF0159
:102920001D928A95E9F7F9A7E8A78C8181110BC060
:1029300040E150E06FE473E0C801DF91CF911F9157
:102940000F910C940930DF91CF911F910F91089551
:10295000EF92FF920F931F93CF937C010E94DD0EA5
:102960008C01F701828193810817190731F4C1E0C6
:10297000C80101978E3F9F4F08F0C0E06EE173E001
:102980008FE094E00E942612F7016281738140E19A
:1029900050E08FE094E00E94DD1166E373E08FE089
:1029A00094E00E94261240E150E0B8018FE094E0EC
:1029B0000E94DD116AE373E08FE094E00E9426122A
:1029C0006C2F70E08FE094E00E94E61C8C2FCF917A
:1029D0001F910F91FF90EF900895CF92DF92EF92A9
:1029E000FF920F931F93CF93DF9300D0CDB7DEB745
:1029F0008C016FE078E08FE094E00E9414126DEF9C
:102A000077E08FE094E00E945B11B8016C5F7F4F2C
:102A10008FE094E00E9426126FEE77E08FE094E062
:102A20000E945B11F801608171818FE094E00E9447
:102A3000B01C63EE77E08FE094E00E945B114AE007
:102A400050E06AE670E08FE094E00E94F011C80167
:102A50000E94A81481112CC06EE677E08FE094E00C
:102A60000E941412C8010E94DD0EF8019383828334
:102A7000E080F1806801FAE6CF0ED11CE01AF10A7D
:102A8000C701800F911FF80161918F019A8389839B
:102A9000CE0101960E945C1C0C151D0589F76AE5A4
:102AA00077E08FE094E00E94141200E010E00EC086
:102AB00067EB77E08FE094E00E94141263EA77E01E
:102AC0008FE094E00E94141201E010E065E278E0EB
:102AD0008FE094E00E945B11B8018FE094E00E94C7
:102AE000E61CC8010F900F90DF91CF911F910F91BD
:102AF000FF90EF90DF90CF900895CF93DF93EC019C
:102B00008BE00E949924892B59F0C65BDF4F81E04E
:102B100090E0288139812130310521F080E002C028
:102B200081E090E0DF91CF910895AF92BF92CF9274
:102B3000DF92EF92FF920F931F93CF93DF93CDB766
:102B4000DEB7A1970FB6F894DEBF0FBECDBF8C01E4
:102B50005C0123E4A20EB11CD5018D919C91892BBF
:102B600009F460C0F801828D938D0E941C1ED8016B
:102B70005A96ED91FC915B97E55BFF4F80819181C7
:102B8000A281B3810097A105B10509F44BC0BF93A1
:102B9000AF939F938F938AE392E09F938F937E01ED
:102BA000B9E1EB0EF11CFF92EF920E946D3348E108
:102BB00050E0B7017801E7E2EE0EF11CC7010E9478
:102BC0000930F7010FB6F894DEBF0FBECDBF80E02D
:102BD00090E041919C012F5F3F4F41110EC0F801E1
:102BE000E80FF91F4AE047A3F801E20FF31F17A20D
:102BF000F801FF963183208304C0C90128313105D3
:102C000041F7D8015A968D919C915B97FC01E55B49
:102C1000FF4F10821182128213820E94D20EF501A0
:102C20001182108264EE71E0C8014C960E945D33FF
:102C3000892B31F5D8015896ED90FC905997C70132
:102C40000E94FA1280910D0490910E04E816F90684
:102C500039F062E070E080E090E00E945D26F2CF03
:102C6000F50180819181892B29F461E070E080E099
:102C700090E004C06AE070E080E090E00E945D2691
:102C8000D80158968D919C915997DC01ED91FC915A
:102C90000084F185E02D0995F801B7966F01980140
:102CA000215C3F4F7901892B41F11093A5030093DB
:102CB000A40340911A0550911B0560911C05709169
:102CC0001D05C8010E941423D5011D921C92F80114
:102CD000808D918DDC01ED91FC910084F185E02DDA
:102CE0000995892B51F0F60181918A3031F08D30B0
:102CF00021F0EE16FF06C1F70AC0F60181918A3075
:102D0000E9F08D30D9F0EE15FF05C1F761C0F8018B
:102D1000808D918DDC01ED91FC910284F385E02D95
:102D20000995B82EBBE18B1332C08AE0F80187A366
:102D300010A681E090E0D7018D939C9348E150E08C
:102D4000B601CE0101960E940930C8010E94D0212F
:102D5000D801ED91FC910280F381E02DC801099525
:102D6000F801E08CF18C6AE0C7010E945411C701A0
:102D70000E94EC11D801ED91FC910680F781E02DC5
:102D800041E0BE016F5F7F4FC801099521C0F80186
:102D9000808D918DDC01ED91FC910190F081E02D11
:102DA0006B2D0995F70180819181F801E80FF91FDA
:102DB000B7A20196D7018D939C93BDE0BB1619F085
:102DC000EAE0BE1284CFF801E80FF91F17A27FCF07
:102DD000A1960FB6F894DEBF0FBECDBFDF91CF91A5
:102DE0001F910F91FF90EF90DF90CF90BF90AF9029
:102DF0000895EF92FF920F931F93CF93DF9300D02C
:102E0000CDB7DEB77C0120914B0530914C052115E3
:102E1000310511F421E535E08E010F5F1F4F021BD4
:102E2000130B6AED79E08FE094E00E945B11B8012A
:102E30008FE094E00E94B01C67ED79E08FE094E0B1
:102E40000E945B11B7018FE094E00E940212C8015A
:102E50000F900F90DF91CF911F910F91FF90EF9006
:102E600008950F931F93CF93DF93CDB7DEB7649789
:102E70000FB6F894DEBF0FBECDBF8C0186ED94E097
:102E80000E947D15892B31F062EC79E08FE094E0AF
:102E90000E945B1186ED94E00E947D15892B39F02C
:102EA000B8016E5F7F4F8FE094E00E940212AE0186
:102EB0004F5F5F4F84E1FA0111928A95E9F786ED41
:102EC00091E09A8389838EE190E09C838B8360E01C
:102ED00070E0C8010E94F81C64960FB6F894DEBF3B
:102EE0000FBECDBFDF91CF911F910F9108950F932A
:102EF0001F93CF93DF93CDB7DEB764970FB6F894E7
:102F0000DEBF0FBECDBF8C0186ED94E00E947D1523
:102F1000892B31F060EB79E08FE094E00E945B1147
:102F200086ED94E00E947D15892B39F0B8016E5F23
:102F30007F4F8FE094E00E940212AE014F5F5F4F1F
:102F400084E1FA0111928A95E9F786E490E09A8388
:102F500089839C838B8360E070E0C8010E94F81C29
:102F600064960FB6F894DEBF0FBECDBFDF91CF9150
:102F70001F910F9108950F931F93CF93DF93CDB7B8
:102F8000DEB764970FB6F894DEBF0FBECDBF8C01DD
:102F900086ED94E00E947D15892B31F06EE979E091
:102FA0008FE094E00E945B1186ED94E00E947D1515
:102FB000892B39F0B8016E5F7F4F8FE094E00E945B
:102FC0000212AE014F5F5F4F84E1FA0111928A95C0
:102FD000E9F784EF91E09A8389839C838B8360E097
:102FE00070E0C8010E94F81C64960FB6F894DEBF2A
:102FF0000FBECDBFDF91CF911F910F9108950F9319
:103000001F93CF93DF93CDB7DEB764970FB6F894D5
:10301000DEBF0FBECDBF8C0186ED94E00E947D1512
:10302000892B31F062E979E08FE094E00E945B1136
:1030300086ED94E00E947D15892B39F0B8016E5F12
:103040007F4F8FE094E00E940212AE014F5F5F4F0E
:1030500084E1FA0111928A95E9F760E070E0C80115
:103060000E94F81C64960FB6F894DEBF0FBECDBF69
:10307000DF91CF911F910F910895FC0170876783B5
:103080006115710581F4818592850196928781870A
:10309000238534851216130634F4281739071CF4D7
:1030A000168215820895DB01AA0FBB1FAE0FBF1F4A
:1030B00059968D919C915A97181619064CF4CB018C
:1030C000019662E070E00E94F5329683858302C02B
:1030D0001682158285859685A785B089818B928B0E
:1030E000A38BB48B089580E090E0FB012191319196
:1030F000BF011216130624F401968A309105A9F730
:1031000008950F931F93CF93DF938B010E94731841
:10311000BC018FE094E00E94B01C6BEF71E08FE087
:1031200094E00E942612E8010C5E1F4F65EF72E0EA
:103130008FE094E00E942612699179918FE094E0EB
:103140000E94B01CC017D10789F76DE173E08FE0D2
:1031500094E0DF91CF911F910F910C9402128F9206
:103160009F92AF92BF92CF92DF92EF92FF920F9316
:103170001F93CF93DF93EC010E94BC266D877E875F
:103180008F87988B0F811885C988DA88EB88FC882F
:10319000DC01CB018C199D09AE09BF09F801EE0FC6
:1031A000FF1FEC0FFD1FC18CD28C0D2C000CEE0804
:1031B000FF088C159D05AE05BF0598F0BE01675E42
:1031C0007F4FCE010E9473180197081719071CF052
:1031D00060E070E003C0B8016F5F7F4FCE010E94D6
:1031E0003D188D899E890097C1F58F89988D892B0F
:1031F00009F031C286ED94E00E947D15892B31F0F3
:1032000066E879E08FE094E00E945B1186ED94E03F
:103210000E947D15892B31F0688179818FE094E0DF
:103220000E94B01C86ED94E00E947D15892B31F040
:1032300063E879E08FE094E00E945B1186ED94E012
:103240000E947D15892B31F06D817E818FE094E0A5
:103250000E94E61C6D818881AEC2181619060CF01A
:10326000FAC186ED94E00E947D15892B31F068E764
:1032700079E08FE094E00E945B1186ED94E00E947B
:103280007D15892B31F0688179818FE094E00E946F
:10329000B01C86ED94E00E947D15892B31F065E726
:1032A00079E08FE094E00E945B1186ED94E00E944B
:1032B0007D15892B31F06D817E818FE094E00E9435
:1032C000B01C86ED94E00E947D15892B31F062E7F9
:1032D00079E08FE094E00E945B1186ED94E00E941B
:1032E0007D15892B31F06D897E898FE094E00E94F5
:1032F000E61C8D819E81892B09F49EC10D891E8952
:103300008881998120910001281721F02F3F09F031
:10331000C6C204C0E4E3F9E0C49179C0809300011F
:10332000E4E3F9E0C491CF3F09F4B9C2C13009F434
:1033300048C050F1C23009F06AC01092B00010923B
:10334000B1002091B00022602093B0002091B10024
:1033500021602093B1009C013327F901EF52F44F13
:10336000E491F0E0EE0FFF1FE953F44F45915491C3
:103370005093B5034093B403F901EB51F44FE4913A
:10338000E093B603C2E087C214BC15BC24B522602A
:1033900024BD25B5216025BD9C013327F901EF52DD
:1033A000F44FE491F0E0EE0FFF1FE953F44F459125
:1033B0005491F901EB51F44FE491E093FE03C0E026
:1033C0006AC21092800010928100209181002860D2
:1033D00020938100209181002160209381009C0135
:1033E0003327F901EF52F44FE491F0E0EE0FFF1FA5
:1033F000E953F44F45915491F901EB51F44FE491A5
:10340000E093FD0361E00E947F25C1E0A4C0C7FDF9
:1034100046C261E00E947F258C2F8D7F09F09BC002
:103420006801E12CF12C60E072E18AE790E0A701ED
:1034300096010E94093349015A01BA01A90141507C
:103440005109610971094F3F51056105710509F085
:1034500008F445C060E472E48FE090E0A7019601B3
:103460000E940933BA01A90141505109610971094A
:10347000C230E9F44F3F51056105710509F008F4C8
:10348000AAC160E970ED83E090E0A70196010E9477
:103490000933BA01A90141505109610971094F3F2E
:1034A00051056105710509F020F583E04DC04F3FDE
:1034B000510561057105A9F0A0F068E478EE81E09E
:1034C00090E0A70196010E940933BA01A901415079
:1034D000510961097109CC2309F47FC1D4C181E08C
:1034E00001C082E0C11130C095B5987F892B85BDA0
:1034F00069C068E478EE81E090E0A70196010E943F
:103500000933BA01A90141505109610971094F3FBD
:1035100051056105710509F008F45BC164E274EFBF
:1035200080E090E0A70196010E940933BA01A90149
:1035300041505109610971094F3F510561057105FC
:1035400011F008F079C185E09091B100987F892B46
:103550008093B10031C06801E12CF12C60E072E190
:103560008AE790E0A70196010E940933BA01A901F8
:1035700041505109610971094115510581E0680700
:10358000710580F068E478EE81E090E0A701960193
:103590000E940933BA01A901415051096109710919
:1035A00083E001C081E0C13039F490918100987FBF
:1035B000892B8093810018C0C130B1F0C23049F12D
:1035C000C1116DC147BD8FEF9FEFDC0180930304F4
:1035D00090930404A0930504B093060480916E00B8
:1035E000826080936E005BC1509389004093880095
:1035F0008FEF9FEFDC018093FF0390930004A09373
:103600000104B093020480916F00826080936F0088
:1036100046C14093B3008FEF9FEFDC018093B70367
:103620009093B803A093B903B093BA03809170004C
:1036300082608093700033C18881DF91CF911F91A8
:103640000F91FF90EF90DF90CF90BF90AF909F9041
:103650008F900C94CD108F89988D181619060CF048
:103660001EC186ED94E00E947D15892B31F068E63D
:1036700079E08FE094E00E945B1186ED94E00E9477
:103680007D15892B31F0688179818FE094E00E946B
:10369000B01C86ED94E00E947D15892B31F065E623
:1036A00079E08FE094E00E945B1186ED94E00E9447
:1036B0007D15892B31F06D817E818FE094E00E9431
:1036C000B01C86ED94E00E947D15892B31F062E6F6
:1036D00079E08FE094E00E945B1186ED94E00E9417
:1036E0007D15892B31F06F89788D8FE094E00E94F1
:1036F000E61C8D819E81892B09F456C00F89188D97
:103700000990D881C02D61E08C2F0E947F25011582
:10371000110509F44EC00F3F110509F443C0FE0125
:10372000FF27E25FF44FE491E330F9F048F4E13031
:10373000B9F0E230A1F584B5806284BD08BDAFC0A8
:10374000E730E9F0E83019F1E43049F58091800084
:1037500080628093800010938B0000938A009FC04A
:1037600084B5806884BD07BD9AC080918000806860
:1037700080938000109389000093880090C080910E
:10378000B00080688093B0000093B30088C080913F
:10379000B00080628093B0000093B40080C0003815
:1037A00011053CF061E006C0C88161E08C2F0E94E9
:1037B0007F2560E08C2FDF91CF911F910F91FF90BB
:1037C000EF90DF90CF90BF90AF909F908F900C9430
:1037D000C22484E0B9CE82E0B7CE4F3F51056105E7
:1037E000710541F138F162E17AE780E090E0A701EC
:1037F00096010E940933BA01A9014150510961099A
:1038000071094F3F51056105710591F088F0D501AF
:10381000C4013AE0B595A795979587953A95D1F764
:10382000AC01BD01415051096109710985E05CCECF
:1038300084E05ACE83E058CE62E17AE780E090E0FF
:10384000A70196010E940933BA01A901415051090B
:10385000610971094F3F51056105710591F088F0CB
:10386000D501C4012AE0B595A795979587952A9526
:10387000D1F7AC01BD01415051096109710987E0DF
:1038800063CE86E061CE4F3F51056105710509F0B9
:1038900098F684E027CE61E00E947F25C1CDDF91BC
:1038A000CF911F910F91FF90EF90DF90CF90BF903D
:1038B000AF909F908F900895FF920F931F93CF9397
:1038C000DF93EC01F62E08811981C8010E94203097
:1038D000F81621F06F2DC8010E942830CE01DF912B
:1038E000CF911F910F91FF9008950F931F93CF9346
:1038F000DF9300D0CDB7DEB78C0180914005909169
:103900004105892B19F5F8018081918171836083CC
:1039100086179707D9F080911E0590911F05029791
:10392000A9F465E379E08FE094E00E945B11F8016F
:10393000608171818FE094E00E94E61CF801608153
:103940001A821982CE0101960E945C1CF8018081C6
:1039500091810F900F90DF91CF911F910F9108955A
:10396000CF92DF92EF92FF920F931F93CF93DF934B
:103970006B01770FEE08FF08F7FE1BC0EC016DE24C
:103980000E9454118C0144275527BA014C195D0936
:103990006E097F092AE0CE010E949411800F911FC9
:1039A000DF91CF911F910F91FF90EF90DF90CF901B
:1039B00008952AE0B701A601DF91CF911F910F91E1
:1039C000FF90EF90DF90CF900C9494110F931F9382
:1039D000CF93DF93EC010E94B01C8C01CE010E94BA
:1039E000EC11800F911FDF91CF911F910F910895DE
:1039F000CF92DF92EF92FF920F931F93CF93DF93BB
:103A0000EC017B018A0186ED94E00E947D15892BF3
:103A100031F068EE7AE08FE094E00E945B1186ED71
:103A200094E00E947D15892B39F0F8016081718145
:103A30008FE094E00E94E61C86ED94E00E947D15E4
:103A40009E01275E3F4F6901892BA9F06DEC7AE05A
:103A50008FE094E00E945B11BE016E5F7F4F8FE0AC
:103A600094E00E940212B601CE010E948118B801B2
:103A7000CE010E9481188B859C858E159F0549F586
:103A80004AE050E0B601C8010E944733892B61F03B
:103A9000B801CE010E947318892BD9F4B601CE016A
:103AA0000E947318892BA9F486ED94E00E947D157D
:103AB000892B09F449C06EEA7AE08FE094E0DF9147
:103AC000CF911F910F91FF90EF90DF90CF900C94CA
:103AD000141286ED94E00E947D15892BA9F065E90A
:103AE0007AE08FE094E00E945B11BE016E5F7F4F31
:103AF0008FE094E00E940212B601CE010E9481186C
:103B0000B801CE010E9481181E821D8218861F8274
:103B10001A861986FC86EB86D801F601CE018D96B1
:103B20002D913D9121933193E817F907C9F760E092
:103B300070E0CE01DF91CF911F910F91FF90EF9038
:103B4000DF90CF900C943D18DF91CF911F910F9192
:103B5000FF90EF90DF90CF9008950F931F93CF9336
:103B6000DF93CDB7DEB764970FB6F894DEBF0FBE14
:103B7000CDBF8C0186ED94E00E947D15892B31F03C
:103B800064E87AE08FE094E00E945B1186ED94E0B7
:103B90000E947D15892B39F0B8016E5F7F4F8FE051
:103BA00094E00E94261286ED94E00E947D15892BF8
:103BB00031F062E87AE08FE094E00E945B1186EDDC
:103BC00094E00E947D15892B31F063E070E08FE076
:103BD00094E00E94E61CAE014F5F5F4F84E1FA0162
:103BE00011928A95E9F784EF91E09A8389839C8307
:103BF0008B8363E070E0C8010E94F81C64960FB6E6
:103C0000F894DEBF0FBECDBFDF91CF911F910F9112
:103C10000895CF93DF93AB01BC012AE08FE094E0DD
:103C20000E949411EC018FE094E00E94EC118C0F43
:103C30009D1FDF91CF9108952F923F924F925F92F7
:103C40006F927F928F929F92AF92BF92CF92DF92AC
:103C5000EF92FF920F931F93CF93DF93CDB7DEB711
:103C60006C970FB6F894DEBF0FBECDBF8C015C0120
:103C70002FE4A20EB11CD5018D919C910E94FA12E5
:103C8000F5012081318180910D0490910E04281757
:103C9000390739F062E070E080E090E00E945D2634
:103CA000EFCF64E170E080E090E00E945D260E942A
:103CB000BC266D8B7E8B8F8B988FD80197966D93DA
:103CC0007D938D939C939A97C0901205D090130585
:103CD000E0901405F09015059F964D905D906D90C5
:103CE0007C90D2974C0C5D1C6E1C7F1CF801ED5B28
:103CF000FF4FFA8FE98F4082518262827382F8010E
:103D000023A934A945A956A9F0911605E0911705F4
:103D10009090180580901905211531054105510530
:103D200021F42F2F3E2F492D582D180187E4280EFE
:103D3000311CA8EEB3E00E946830460E571E681E84
:103D4000791ED1014D925D926D927C9213974090B5
:103D50000E0550900F0560901005709011059801A8
:103D6000215C3F4F3C8F2B8FA8EEB3E02F2F3E2FCF
:103D7000492D582D0E946830C40CD51CE61CF71C38
:103D8000DC01CB018C0D9D1DAE1DBF1DEB8DFC8D8F
:103D900080839183A283B383F80183A594A5A5A50D
:103DA000B6A52D893E894F89588D281B390B4A0BA2
:103DB0005B0B421653066406750608F066C2D50111
:103DC0008D919C91DC01ED91FC910084F185E02DB9
:103DD0000995892B09F4ADC0F50180819181DC0141
:103DE000ED91FC910084F185E02D0995892B09F472
:103DF0004CC2F801F6A0FFE0FF1528F0D80152965A
:103E00008C91F81620F0C8010E94D20EE5CFF50182
:103E100080819181DC01ED91FC910284F385E02D9C
:103E20000995F801EF0DF11D868BF80186A19289A5
:103E30009150811104C02689223029F706C28913C6
:103E400007C0F801E80FF11D96899330E1F60BC029
:103E50009817C8F28031B8F6891738F48F5FD80107
:103E600096968C93B9CF803170F6D801ED91FC9184
:103E70000190F081E02DB8016A5E7F4FC80109957D
:103E80004B015C01672B682B692B19F463E57AE021
:103E9000EAC1E0910704F09108041682158260E0FF
:103EA00080810E94C224E0900B04F0900C0486ED07
:103EB00094E00E947D15892B31F066E47AE08FE072
:103EC00094E00E945B1186ED94E00E947D15892BA1
:103ED00039F0B7016E5F7F4F8FE094E00E940212CD
:103EE000F701168215821086178212861186AE019E
:103EF0004F5F5F4F84E1DA011D928A95E9F786E40E
:103F000090E09A83898361E070E0C7010E94F81C09
:103F1000E0ECF4E081919191A191B191881699061C
:103F2000AA06BB0609F494C1B4E0E43DFB0791F78F
:103F3000ADCFF801C7A0D0A4E1A4F2A483A494A4B7
:103F4000A5A4B6A426013701481859086A087B08B9
:103F500023A934A945A956A92115310541055105C3
:103F600041F42091160530911705409118055091A4
:103F70001905A8EEB3E00E94683064157505860542
:103F8000970528F089288A288B2809F07EC1F1013D
:103F900080819181A281B381C816D906EA06FB0609
:103FA00050F4F80187A590A9A1A9B2A9892B8A2B61
:103FB0008B2B09F038C168E27AE08FE094E00E9430
:103FC0005B11D8019B96CD90DD90ED90FC909E9773
:103FD000C114D104E104F104E1F097968D919D9113
:103FE0000D90BC91A02DBC01CD016C197D098E09ED
:103FF0009F0928EE33E040E050E00E944630BA01CD
:10400000A9012AE08FE094E00E9494116BE17AE02C
:1040100002C065E17AE08FE094E00E945B1163E00A
:104020007AE08FE094E00E945B11F801C7A4D0A869
:10403000E1A8F2A8C114D104E104F104D1F087A1F0
:1040400090A5A1A5B2A5BC01CD016C197D098E0971
:104050009F0928EE33E040E050E00E944630BA016C
:10406000A9012AE08FE094E00E94941166EF79E0C4
:1040700002C060EF79E08FE094E00E945B1165EE92
:1040800079E08FE094E00E945B110E94BC260E94C0
:10409000CC3120E030E04AE754E40E942B3120E0AC
:1040A00030E040E752E40E942B316B017C014B0170
:1040B0005C019B01AC010E94F032882319F06CE591
:1040C00073E01AC026013701E89477F82FEF3FEF2D
:1040D0004FE75FE7C301B2010E94F032811111C0C6
:1040E0002FEF3FEF4FE75FE7C301B2010E94263198
:1040F00018163CF460E673E08FE094E00E947F11B4
:104100007CC02FEF3FEF4FE75FE4C701B6010E948D
:104110007E3218161CF464E673E0EECF2FEF3FEF0B
:104120004FE75FECC701B6010E94263187FDF3CF50
:1041300020E030E0A901C701B6010E94263187FFC7
:104140000BC06DE28FE094E00E94541146015701CC
:10415000B7FAB094B7F8B0942AE037ED43EA5BE3DE
:10416000C501B4010E94BA304B015C010E949D312F
:104170006B017C010E94CC319B01AC01C501B401F3
:104180000E94B9304B015C012AE0B701A6018FE023
:1041900094E00E9494116EE28FE094E00E9454112A
:1041A00020E030E040E251E4C501B4010E948332D6
:1041B0004B015C010E949D316B017C014AE050E0A3
:1041C0008FE094E00E94DD11B60180E090E00E9453
:1041D000CC319B01AC01C501B4010E94B93020E093
:1041E00030E040E251E40E9483320E949D314AE077
:1041F00050E08FE094E00E94DD118FE094E00E9497
:10420000EC11D80155966C9181E0682785E00E94F9
:10421000C224F80187A190A5A1A5B2A587A790AB5C
:10422000A1ABB2AB32C0E98DFA8D80819181A281C0
:10423000B381C816D906EA06FB0638F1D8015596AF
:104240006C9185E00E94C22420C0911107CEF9CD67
:10425000F80187A190A5A1A5B2A583A794A7A5A7BA
:10426000B6A761E77AE08FE094E00E945B11C50198
:10427000B4010E94091EF801E55BFF4F8082918224
:10428000A282B382C8010E94D20E6C960FB6F89437
:10429000DEBF0FBECDBFDF91CF911F910F91FF9079
:1042A000EF90DF90CF90BF90AF909F908F907F90D6
:1042B0006F905F904F903F902F900895CF92DF9234
:1042C000EF92FF926B017C01E0911F04F0912004BA
:1042D00082E08083C11481EED806E104F104B1F0DC
:1042E00060E079E08DE390E0A70196010E944630FE
:1042F000DA01C9010197A109B109B695A79597956A
:1043000087959C01211580E13807B8F0E0911F04E2
:10431000F0912004108260E874E88EE190E0A7013B
:1043200096010E944630DA01C9010197A109B1093D
:10433000B695A795979587959C01E0911B04F09100
:104340001C043083E0911D04F0911E042083109220
:104350002704E0912304F091240486E08083E09117
:104360002104F0912204808180618083E091210406
:10437000F0912204808188608083E0912104F09193
:104380002204808180688083E0912104F0912204DE
:1043900080818F7D8083FF90EF90DF90CF90089594
:1043A000FC01B79628E1DF011D922A95E9F778967E
:1043B000118210823496118210820895833081F028
:1043C00028F4813099F08230A1F008958730A9F067
:1043D0008830B9F08430D1F4809180008F7D03C0A3
:1043E000809180008F7780938000089584B58F77C7
:1043F00002C084B58F7D84BD08958091B0008F7711
:1044000003C08091B0008F7D8093B00008951F930A
:10441000CF93DF93EC01122FE881F9810190F081B5
:10442000E02D0995E881F9810190F081E02D45E9C1
:1044300055E160E070E0CE010995888D998DDC0131
:10444000ED91FC910084F185E02D0995892B51F0C7
:10445000888D998DDC01ED91FC910284F385E02D2E
:104460000995EBCFCE010E94D021112331F0CD5B15
:10447000DF4F81E090E099838883DF91CF911F9196
:104480000895CF93DF93EC019A01AB011B8E1A8E36
:10449000198E188E1F8A1E8A60E079E08DE390E005
:1044A0000E940933F9012430310518F0C90103973E
:1044B00002C081E090E09D8F8C8F6C85663108F0A2
:1044C0006AC0C901969587958431910510F043978C
:1044D00002C081E090E09F8B8E8B369718F0C90167
:1044E000059702C081E090E0998F888FC901880FFD
:1044F000991F280F391F36952795369527952D300A
:10450000310518F02C50310902C021E030E03B8F1A
:104510002A8F30916800683058F021E06E3008F43E
:1045200020E091E0892F01C0880F2A95EAF701C0A9
:1045300084E0832B809368009C85983038F09E300F
:1045400040F0963148F020E030E008C02DE630E041
:1045500005C02BE630E002C02CE630E03C8B2B8B14
:10456000983030F481E001C0880F9A95EAF70EC0C8
:10457000292F30E09E3018F42850310902C02E5007
:10458000310981E001C0880F2A95EAF78D8B8C8D67
:104590009D8D0197F1F7CE01DF91CF910C94FA1226
:1045A000CF92DF92EF92FF920F93CF93DF93EC01C4
:1045B00069017A01FB018081882321F0888D998D22
:1045C0000E942612202FB701A601CE010E940722C9
:1045D00065E27CE0888D998DDF91CF910F91FF90FE
:1045E000EF90DF90CF900C945B11EF92FF920F93BE
:1045F000CF93DF93EC017B01E881F9810084F185A1
:10460000E02D40E050E0BA01099529E63AE040E0AB
:1046100050E000E0B701CE010E94D022DF91CF919F
:104620000F91FF90EF900895CF92DF92EF92FF925B
:10463000CF93DF93EC016A017B018BA19CA1ADA11B
:10464000BEA184179507A607B70751F06EE07CE07E
:104650008FE094E00E945B11C701B6010E94091E21
:10466000CBA2DCA2EDA2FEA281E090E090934105F6
:10467000809340050E94BC266F8F78A389A39AA3DC
:10468000DF91CF91FF90EF90DF90CF900895CF937F
:10469000DF93EC0142E050E060E070E00E94142300
:1046A000CE010E94D02161EE71E0CE014C960E94B5
:1046B0005D33892B19F169EF7BE0888D998D0E941C
:1046C0005B116CE871E0888D998D0E94261264EF71
:1046D00072E0888D998D0E94261268E673E0888DBD
:1046E000998D0E940212888D998D0E94EC116DE1C6
:1046F00073E0CE01DF91CF910C94F52249E65AE0A8
:1047000060E070E020E0CE010E940722DF91CF91AF
:104710000895CF93DF93EC0168EB7BE0888D998D52
:104720000E94141260EB7BE0888D998D0E94141218
:1047300063EA7BE0888D998D0E94141268E97BE022
:10474000888D998D0E9414126AE87BE0888D998D7E
:104750000E94141266E77BE0888D998D0E941412E6
:104760006AE67BE0888D998D0E94141267E57BE0F4
:10477000888D998D0E9414126DE173E0888D998D5A
:104780000E9402126AEB72E0CE01DF91CF910C948D
:10479000F5228F929F92AF92BF92CF92DF92EF92CB
:1047A000FF920F931F93CF93DF93EC016B014901AD
:1047B0005A0168E47BE0888D998D0E945B116091BD
:1047C000AE047091AF0440E150E0888D998D0E9455
:1047D000DD1160E47BE0888D998D0E945B114AE0D9
:1047E00050E06AE270E0888D998D0E94F0118CEAA9
:1047F000E82E84E0F82E01E010E0F7018489958925
:10480000A689B789892B8A2B8B2BD9F0B801888D83
:10481000998D0E94B01C6DE37BE0888D998D0E947C
:104820005B11F70144895589668977892AE0888D6B
:10483000998D0E9494116DE173E0888D998D0E948D
:1048400002120F5F1F4FF4E0EF0EF11C063011054E
:10485000A1F66DE173E0888D998D0E94021281149A
:104860009104A1F000E0A5019401B601CE010E94DF
:10487000D022DF91CF911F910F91FF90EF90DF90A9
:10488000CF90BF90AF909F908F9008956AEB72E0A9
:10489000CE01DF91CF911F910F91FF90EF90DF90AC
:1048A000CF90BF90AF909F908F900C94F5220F9374
:1048B000CF93DF93EC01FC01EF5BFF4F8FEF9FEF96
:1048C000918380836AE27BE0888D998D0E945B11E1
:1048D00086ED94E00E94DD0E40E150E0BC01888D41
:1048E000998D0E94DD1162E27BE0888D998D0E9496
:1048F0005B114AE050E06AE670E0888D998D0E9475
:10490000F011688D798D86ED94E00E94AA0D888D56
:10491000998D0E94EC112FEF39E040E050E000E06B
:104920006EE773E0CE010E94D022DF91CF910F910C
:104930000895CF93DF93282F30E0F901E25FF44F21
:104940008491F901EB51F44FD491F901EF52F44FF6
:10495000C491CC2391F081110E94DE21EC2FF0E074
:10496000EE0FFF1FE354F44FA591B491EC91ED23AA
:1049700081E090E021F480E002C080E090E0DF91EF
:10498000CF9108951F93CF93DF93282F30E0F90143
:10499000E25FF44F8491F901EB51F44FD491F901A6
:1049A000EF52F44FC491CC23C1F0162F81110E9415
:1049B000DE21EC2FF0E0EE0FFF1FE953F44FA5913D
:1049C000B4919FB7F894111104C08C91D095D8235D
:1049D00002C0EC91DE2BDC939FBFDF91CF911F9142
:1049E0000895CF92DF92EF92FF920F931F93CF9390
:1049F000DF93EC0100914005109141050130110554
:104A0000A9F44BA15CA16DA17EA180911A059091A2
:104A10001B05A0911C05B0911D05481759076A0791
:104A20007B0721F460E08DE00E94C2240E94BC2636
:104A3000CF8CD8A0E9A0FAA06C197D098E099F0936
:104A400028EE33E040E050E00E9446308BA19CA16C
:104A5000ADA1BEA182179307A407B50710F0012BE3
:104A6000E1F5CE010E94D021E881F9810084F18531
:104A7000E02D40E050E0BA01CE010995809140055B
:104A800090914105892B49F1BE01645E7F4F8FE013
:104A900094E00E9426126AE37CE08FE094E00E949A
:104AA00014128FE094E00E94EC1168E27CE0888DA3
:104AB000998D0E941412888D998D0E94EC1110928C
:104AC00041051092400586ED94E00E947D15892BEA
:104AD00021F087E993E00E94F916E881F9810680C8
:104AE000F781E02D40E060E070E0CE01DF91CF91F2
:104AF0001F910F91FF90EF90DF90CF900994CF938B
:104B0000DF9390E0FC01EB51F44F2491FC01EF5254
:104B1000F44F8491882361F190E0880F991FFC0184
:104B2000EC5FF44FC591D491FC01E953F44FA5918A
:104B3000B491611109C09FB7F894888120958223B0
:104B40008883EC912E230BC0623061F49FB7F894F8
:104B50008881322F309583238883EC912E2B2C93E0
:104B60009FBF06C08FB7F894E8812E2B28838FBF94
:104B7000DF91CF9108950F931F93CF93DF93EC01B3
:104B8000162F042F1B821A8288EE93E0A0E0B0E07B
:104B90008C839D83AE83BF8384E691E09983888371
:104BA0001F8A1E8A198E188E1B8E1A8E1D8E1C8EC1
:104BB0006E8D6E7F6D7F6E8F6695617081E0682768
:104BC000842F0E94C22461E0802F0E947F25802FC5
:104BD00090E0FC01EB51F44FE491E88BFC01EF52C3
:104BE000F44FE491F0E0EE0FFF1FE953F44F85918D
:104BF00094919A8B898B60E0812F0E947F258E8D06
:104C000081FD04C061E0812F0E94C2241C87812F96
:104C100090E0FC01EB51F44FE491ED87FC01EF5281
:104C2000F44FE491F0E0EE0FFF1FE354F44F859151
:104C300094919F878E87DF91CF911F910F91089557
:104C4000EF92FF920F931F93CF93DF93EC018A01B2
:104C50007901798368831E821D8218861F821A86D5
:104C600019861C861B860E94BC266D877E878F87CF
:104C7000988B198A1A8A1B8A1C8AFE8AED8A188EDA
:104C80001F8AFE01799684E1DF011D928A95E9F77A
:104C900043E050E0B801CE0102960E94093061E085
:104CA00088810E947F2560E08881DF91CF911F91EC
:104CB0000F91FF90EF900C94C2248F929F92AF922D
:104CC000BF92CF92DF92EF92FF926B017C010E9424
:104CD00097264B015C01C114D104E104F104F1F009
:104CE0000E949726DC01CB0188199909AA09BB0902
:104CF000883E9340A105B10570F321E0C21AD108A6
:104D0000E108F10888EE880E83E0981EA11CB11C12
:104D1000C114D104E104F10419F7DDCFFF90EF9045
:104D2000DF90CF90BF90AF909F908F9008953FB746
:104D3000F8948091470590914805A0914905B0915C
:104D40004A0526B5A89B05C02F3F19F00196A11D65
:104D5000B11D3FBFBA2FA92F982F8827820F911D11
:104D6000A11DB11DBC01CD0142E0660F771F881F58
:104D7000991F4A95D1F708952FB7F894609143058C
:104D80007091440580914505909146052FBF089587
:104D90001F920F920FB60F9211242F933F938F9370
:104DA0009F93AF93BF938091430590914405A09149
:104DB0004505B09146053091420523E0230F2D377C
:104DC00020F40196A11DB11D05C026E8230F02960F
:104DD000A11DB11D20934205809343059093440586
:104DE000A0934505B09346058091470590914805ED
:104DF000A0914905B0914A050196A11DB11D80936E
:104E0000470590934805A0934905B0934A05BF9183
:104E1000AF919F918F913F912F910F900FBE0F9067
:104E20001F901895CF93DF93CDB7DEB7C155D10949
:104E30000FB6F894DEBF0FBECDBF789484B5826004
:104E400084BD84B5816084BD85B5826085BD85B52E
:104E5000816085BD80916E00816080936E001092AC
:104E60008100809181008260809381008091810027
:104E700081608093810080918000816080938000B8
:104E80008091B10084608093B1008091B000816016
:104E90008093B00080917A00846080937A00809142
:104EA0007A00826080937A0080917A00816080939A
:104EB0007A0080917A00806880937A001092C10015
:104EC00062E08CE00E947F2560E071EE80E090E07F
:104ED0000E945E216FE070E080E090E00E945D261D
:104EE0006BE674E08FE094E00E94141282E791E098
:104EF0000E94F91663E472E08FE094E00E941412BD
:104F00008CE00E949924892B19F461E272E066C05A
:104F100067E271E08FE094E00E94141266EDE62EE5
:104F200064E0F62E00E213E0C8010E942030D701B1
:104F30008D937D010F5F1F4F0A38B3E01B07A1F768
:104F400080E293E09093D7048093D60486ED94E0BA
:104F50000E94A814811106C065E071E08FE094E022
:104F60000E94141265EF70E08FE094E00E945B11E4
:104F700060E273E08FE094E00E94E61C6AED70E06E
:104F80008FE094E00E945B116AED74E08FE094E0A2
:104F90000E9426126AE871E08FE094E00E940212FB
:104FA00065EC70E08FE094E00E945B114AE050E015
:104FB0006AE670E08FE094E00E94F0116AEB70E026
:104FC0008FE094E00E945B114AE050E06AE670E0F6
:104FD0008FE094E00E94F01166EA70E08FE094E0C8
:104FE0000E94141261E072E08FE094E00E945B1175
:104FF0006AED74E08FE094E00E9426126FEE71E09B
:105000008FE094E00E945B116AEE74E08FE094E020
:105010000E94261264EE71E08FE094E00E945B1122
:105020006091D8047091D90440E150E08FE094E0A1
:105030000E94F01186ED94E00E94A814882331F0BC
:105040008CE00E949924892B09F06EC465EA71E016
:105050008FE094E00E9414128AE690E00E94C22D34
:105060008C010E941D0E40E250E069E072E0C80130
:1050700044960E94093080E293E0D8018D939C937E
:105080008CE00E949924892B19F0C8010E94ED142C
:105090006BE771E08FE094E00E945B11B8016C5EF9
:1050A0007F4F8FE094E00E9426126AE871E08FE063
:1050B00094E00E9402126DE371E08FE094E00E94A0
:1050C00014128FE094E00E94DB0F60913205709122
:1050D000330580913405909135050E945E216FE083
:1050E00070E080E090E00E945D2669E374E08FE06C
:1050F00094E00E945B11C0903205D0903305E0909F
:105100003405F0903505F7FE0EC06DE28FE094E0B7
:105110000E94541144275527BA014C195D096E09A4
:105120007F092AE003C02AE0B701A6018FE094E0DE
:105130000E9494118FE094E00E94EC1167E274E009
:105140008FE094E00E945B116AEE74E08FE094E0DF
:105150000E9426126CE174E08FE094E00E945B11E3
:105160004AE050E06AE670E08FE094E00E94F011BF
:105170006BEF73E08FE094E00E945B116CE871E0EC
:105180008FE094E00E94261268EF73E08FE094E0D5
:105190000E945B116AE971E08FE094E00E940212C4
:1051A00062E08BE00E947F258BE00E9499248C01B5
:1051B00065EE73E08FE094E00E945B11B8018FE030
:1051C00094E00E94E61C012B61F464EC73E08FE034
:1051D00094E00E94141281E090E090932105809366
:1051E00020058FE094E00E94EC116FE074E086ED02
:1051F00094E00E94AA0D8FE094E00E94EC1186EDED
:1052000094E00E947D15892B21F080EB91E00E94B3
:10521000F9168DE290E00E94C22D8C0120E030E072
:1052200044EC51E068E070E00E94202610930804EE
:10523000009307048DE290E00E94C22D8C0120E0D3
:1052400030E047EC51E067E070E00E9420261093C8
:105250000A04009309048DE290E00E94C22D8C01A3
:1052600020E030E04AEC51E066E070E00E94202649
:1052700010930C0400930B048DE290E00E94C22D69
:105280008C0128EE33E04DEC51E069E070E00E94C3
:1052900020261093B3030093B2038FE190E00E94A5
:1052A000C22D8C0143E062E00E94BB251093AB034A
:1052B0000093AA038FE190E00E94C22D8C0144E18B
:1052C00064E00E94BB251093A9030093A803FE018C
:1052D00031961F01CF010E94BB0E86ED94E00E9423
:1052E0007D15892B21F080ED91E00E94F91662E294
:1052F00075E0CE0103960E945D33892BD1F1C10187
:105300000E94A40E86ED94E00E947D15892B21F069
:1053100080ED91E00E94F91662E275E0CE010396FD
:105320000E945D33892B41F481E590E00E94C22DFB
:105330007C010E94A40E24C0C1010E948E0E86ED45
:1053400094E00E947D15892B21F080ED91E00E9470
:10535000F91662E275E0CE0103960E945D33892B57
:1053600041F481E590E00E94C22D7C010E948E0EE6
:1053700007C081E590E00E94C22D7C010E94BB0E17
:105380008701F092A703E092A603F701E15BFF4FCC
:105390008091A8039091A9039183808385E490E094
:1053A0000E94C22D5C0124E1822EFC013296DF01B5
:1053B000282D1D922A95E9F7EE24EA94FE2CDC01B3
:1053C0005796FC92EE9256974BE0C42E41E0D42EB5
:1053D0001196DC92CE928FE094E059969C938E9336
:1053E00058975B961C930E935A97F501178E10A24F
:1053F00011A212A293961D921D921D921C92969735
:1054000058E1952EB796DF01292D1D922A95E9F7CF
:105410007896118210823296F182E0823296118261
:10542000108243E050E061EE71E0C5014C960E94AD
:105430000930B092AF03A092AE0385E490E00E94E1
:10544000C22D8C018091A6039091A7032091AA03FD
:105450003091AB03F8013296DF011D928A94E9F78F
:10546000F801F78AE68AD182C082318F208F938F2C
:10547000828F178E10A211A212A213A214A215A23B
:1054800016A2B796DF011D929A94E9F778961182D9
:1054900010823296F182E08232961182108243E0CD
:1054A00050E064EE71E0C8014C960E940930109300
:1054B000AD030093AC0388E090E00E94C22D8C0104
:1054C000E090B203F090B303C090A603D090A7037E
:1054D00080911E0590911F058230910529F480E08E
:1054E00090E00E94203090E0F80191838083D38285
:1054F000C28287E094E095838483F782E6821093EA
:10550000B1030093B00386ED94E00E947D15892BD2
:1055100021F087EE91E00E94F9160091B0031091FE
:10552000B10361E08DE00E947F256AE572E08FE0C3
:1055300094E00E945B11D8016D917C918FE094E022
:105540000E94E61CF80160818DE00E94C224D8010F
:105550008D919C9111971496ED91FC911597892B43
:1055600019F08281938102C0808191810E9431175C
:105570004091360550913705609138057091390595
:105580008091AA039091AB030E94412263E673E0ED
:105590008FE094E00E94141267E073E08FE094E0E3
:1055A0000E9414129CEAE92E94E0F92E0CEB12E012
:1055B000C8010E942030F70181937F010F5F1F4FC8
:1055C000063EF2E01F07A1F78CEB92E09093AD044A
:1055D0008093AC048CEA94E00E942B13811106C0E6
:1055E00065EE72E08FE094E00E94141265ED72E0C7
:1055F0008FE094E00E945B116CEB72E08FE094E02E
:105600000E94E61C6AEB72E08FE094E00E945B115E
:1056100060EB74E08FE094E00E9426126AE871E08B
:105620008FE094E00E94021265EA72E08FE094E05D
:105630000E945B114AE050E06AE270E08FE094E083
:105640000E94F0116AE972E08FE094E00E945B1121
:105650004AE050E06AE270E08FE094E00E94F011CE
:1056600066E872E08FE094E00E94141200EC14E00F
:1056700084EDE82E84E0F82ED8014D915D916D9176
:105680007D918D012AE08FE094E00E9494116BEFF0
:1056900071E08FE094E00E942612E016F10661F7B7
:1056A0008FE094E00E94EC118CEA94E00E942B13AE
:1056B000811111C06EE273E08FE094E00E94141239
:1056C0008AE290E00E94C22D8C010E947914C801E8
:1056D0000E94B61302C00CEA14E0C8010E947013C5
:1056E0006DE173E08FE094E00E94141266E773E0CE
:1056F0008FE094E00E9414128091AE039091AF036A
:105700000E9447238091AC039091AD030E944723F0
:1057100040913A0550913B0560913C0570913D05E3
:105720008091A8039091A9030E9441220091B003A7
:105730001091B10361E085E00E947F2563EA73E088
:105740008FE094E00E945B11F801628173816E5FCB
:105750007F4F8FE094E00E94261264E873E08FE0B0
:1057600094E00E945B11D8016D917C918FE094E0F0
:105770000E94E61CD8011296ED91FC911397658961
:1057800081E0682785E00E94C22462E370E080E047
:1057900090E00E945D26D8011296ED91FC9113973E
:1057A000658985E00E94C2248DEF91E00E94F91680
:1057B0008FE094E00E94EC1180910704909108041E
:1057C0000E94AF188091090490910A040E94AF18BA
:1057D00080910B0490910C040E94AF188091B20349
:1057E0009091B3030E94AF188091400590914105BC
:1057F0001816190614F52091A4033091A503809181
:10580000AE039091AF032115310519F02817390720
:1058100011F40E94F1242091A4033091A5038091FA
:10582000AC039091AD032115310521F028173907FC
:1058300009F077C00E94F12474C0892B09F071C06F
:105840000091B0031091B103F801828193810E940D
:105850001C1ED8011296ED91FC91139743A454A4F9
:1058600065A476A4C7A0D0A4E1A4F2A44114510475
:1058700061047104B1F487A590A9A1A9B2A9009708
:10588000A105B10571F0A7019601281B390B4A0B40
:105890005B0BDA01C901813D9740A105B10508F014
:1058A0005CC04601570184189508A608B7082091E6
:1058B0000A0530910B0540910C0550910D05A8EE9D
:1058C000B3E00E946830681579058A059B0548F4A5
:1058D00027A530A941A952A9211531054105510536
:1058E00061F545284628472889F0FF96C080D18079
:1058F000E280F380C814D904EA04FB0408F0C2C0B3
:10590000681579058A059B0508F051C0809140050E
:1059100090914105892B29F4F80160818DE00E9466
:10592000C2240E94FD0F48CF62E571E08FE094E051
:105930000E945B1106ED14E0B1CBC21AD30AE40A4F
:10594000F50AC814D904EA04FB0458F641EDC4165C
:1059500047E0D406E104F10420F2D8011496ED9159
:10596000FC911597808191810E94BB17D8011496F4
:10597000ED91FC911597828193810E94FF17F801A8
:10598000868197810E94AD1D60E070E0C8010E9491
:10599000751CD8011296ED91FC91139723E030E02D
:1059A00040E050E023AB34AB45AB56ABAFCFD801B2
:1059B0008D919C9111971496ED91FC911597892BDF
:1059C00061F0828193810E947717D8011496ED913E
:1059D000FC911597808191810BC0808191810E94FB
:1059E0007717D8011496ED91FC91159782819381D8
:1059F0000E94FF17F801E680F78086ED94E00E9490
:105A00007D15892B31F06AE974E08FE094E00E9403
:105A10005B1186ED94E00E947D15892B39F0B7016A
:105A20006E5F7F4F8FE094E00E94261286ED94E037
:105A30000E947D15892B31F068E974E08FE094E0D5
:105A40000E945B1186ED94E00E947D15892B31F058
:105A500060E070E08FE094E00E94E61CD101E4E198
:105A60001D92EA95E9F726E430E03A8329833C83E6
:105A70002B83A10160E070E0C7010E94F81C61E087
:105A800070E084CFD8011496ED91FC911597E280D7
:105A9000F38086ED94E00E947D15892B31F06BEA4E
:105AA00074E08FE094E00E945B1186ED94E00E9428
:105AB0007D15892B39F0B7016E5F7F4F8FE094E041
:105AC0000E940212D101E4E11D92EA95E9F728EE65
:105AD00033E03A832983A10160E070E0C7010E94AE
