:100000000C94FB050C9423060C9423060C94A52752
:100010000C94A5270C94A5270C9423060C94402639
:100020000C9423060C9423060C9423060C942306AC
:100030000C9423060C9423060C9423060C9423069C
:100040000C941A290C9423060C9473270C944D27B6
:100050000C9423060C9423060C9423060C9423067C
:100060000C9423060C942306A709BC09C209CD09E8
:10007000D709DE09E209030A070A0B0A3D0F480FF8
:10008000530F5E0F690F860F8D0F940F990FA40FFA
:10009000AF0FBA0FC10FC80FD30FC313DC13F51383
:1000A0000E142914441447144A1472148D14A814FD
:1000B000C314C614CC14D41443616C6C696E6720ED
:1000C000454550524F4D2E757064617465207769B7
:1000D00074682070726F782D73746174653A2000B3
:1000E000292000465245452052414D202800616498
:1000F00064546167282920737563636573730061B5
:1001000064645461672829206661696C65643A20DB
:1001100044757065006164645461672829206661D4
:10012000696C65643A2046756C6C00616464546166
:100130006728292061626F727465643A20496E767F
:10014000616C696420636F64650061646454616715
:10015000282920006661696C65642C207461672021
:100160006973206475706C696361746500666169A8
:100170006C65642C20746167206C697374206973EA
:100180002066756C6C0061626F727465642C206906
:100190006E76616C6964207461672D696420737484
:1001A00072696E670073756363657373004164649D
:1001B000546167282920726573756C743A20005465
:1001C000616720656E74657265643A200064656CD1
:1001D000657465546167496E64657828293A200022
:1001E00044656C6574655461672829207265737570
:1001F0006C743A200064656C6574655461672829E5
:100200002061626F727465640064656C6574654139
:100210006C6C5461677328290064656C6574654172
:100220006C6C5461677328292061626F7274656415
:100230000075706461746553657474696E6728290C
:100240002063616C6C20746F20532E757064617430
:100250006553657474696E672829206661696C65E9
:10026000640075706461746553657474696E6728A1
:10027000292061626F727465640046726565204D65
:10028000656D6F72793A20003A200053746F726185
:1002900067653A3A4C6F6164282920636865636B2F
:1002A00073756D206D69736D617463680053657457
:1002B00074696E67733A3A4C6F61642829207573CC
:1002C000696E672073746F726564207365747469F6
:1002D0006E677320270053657474696E67733A3ACA
:1002E0004C6F61642829207573696E6720646566A8
:1002F00061756C742073657474696E677320270070
:1003000053657474696E67733A3A4C6F6164282957
:100310002063686B736D206D69736D617463682011
:100320006F72206661696C736166650053657474F1
:10033000696E67733A3A4C6F616428292063686B71
:10034000736D206D69736D61746368004661696CDB
:100350007361666520656E61626C65642C20736BE9
:10036000697070696E672073746F7265642073655D
:100370007474696E67730053657474696E67733A59
:100380003A4C6F6164282920424547494E004C6F22
:100390006164696E67207265616465723A20004C21
:1003A0006F6164696E67207265616465723A2000EE
:1003B00053657474696E67206F75747074207377F9
:1003C00069746368207065722070726F782D737421
:1003D0006174653A20002C2073776974636820701B
:1003E000696E20002C2070726F78696D69747920B5
:1003F000005374617274696E6720436F6E74726F1C
:100400006C6C65722077697468200053746F726138
:1004100067653A3A4C6F6164282920636865636BAD
:1004200073756D206D69736D6174636800546167E5
:10043000733A3A4C6F6164282920636865636B7373
:10044000756D206D69736D617463682C20637265CE
:100450006174696E67206E6577207461672D7365BE
:10046000740054616773206C6F61646564004D654E
:100470006E753A3A426567696E2829004C6F674C81
:100480006576656C28293A2000446562756720709E
:10049000696E207374617475733A2000496E6974D3
:1004A00069616C697A656420485720736572696177
:1004B0006C20706F72742040200027206F662073BC
:1004C000697A65200027207769746820636865630E
:1004D0006B73756D20273078004C6F616465642004
:1004E00053657474696E67732027002C20002C20DC
:1004F000632B2B2000426F6F74696E672052464950
:10050000442070726F78696D6974792073656E73B9
:100510006F722C2000496E697469616C697A656438
:100520002048572073657269616C20706F72742067
:100530004020353736303000524649442070726FC3
:1005400078696D6974792073656E736F722070724B
:10055000652D626F6F740050617373005041535387
:10056000004672657368004652455348004167690A
:100570006E67004147494E470054696D656F757459
:100580003A2067656E6572616C0054494D454F5560
:10059000543A2067656E6572616C0054696D656FD1
:1005A00075743A2067726163650054494D454F5533
:1005B000543A20677261636520706572696F6400E8
:1005C0002A2A2A006D735F7265616465725F6379C0
:1005D000636C655F746F74616C20006D7353696E3A
:1005E00063654C617374526561646572506F7765C1
:1005F000724379636C65282920006D7353696E63BB
:10060000654C6173745461675265616428292000E8
:100610006C6173745F7265616465725F706F77653A
:10062000725F6379636C655F6D7320006C617374D6
:100630005F7461675F726561645F6D7320002A2A71
:100640002A2070726F78696D69747953746174656A
:10065000436F6E74726F6C6C65722829006C6F67E3
:100660005F6C6576656C006C6F675F746F5F62745A
:100670000061646D696E5F737461727475705F742C
:10068000696D656F757400746F6E655F6672657114
:1006900075656E637900726669645F626175640096
:1006A00062745F626175640068775F736572696127
:1006B0006C5F626175640064656661756C745F721D
:1006C000656164657200656E61626C655F64656238
:1006D00075670070726F78696D6974795F737461A2
:1006E00074655F737461727475700061646D696EB6
:1006F0005F74696D656F7574007265616465725FC2
:100700006379636C655F686967685F64757261745B
:10071000696F6E007265616465725F6379636C65B1
:100720005F6C6F775F6475726174696F6E0074617E
:10073000675F726561645F736C6565705F696E7435
:10074000657276616C007461675F6C6173745F726F
:100750006561645F74696D656F75740053656C6580
:10076000637465643A2000290052656164657273A0
:1007700020280043616C6C65642070726F63657340
:1007800073546167446174612829206F6E2062612F
:1007900073652052656164657220636C61737300D8
:1007A0004C6F6164696E67207265616465723A209E
:1007B0000052444D363330302074616720726561D9
:1007C000643A200052444D363330302070726373E7
:1007D0002074616720696E70743A20005237393492
:1007E00031452074616720726561643A20002C20D5
:1007F000636865636B73756D2028646563293A20AF
:10080000002C2069645F6C656E3A20002C206964BE
:100810005F656E643A200069645F626567696E3A7D
:10082000200052373934314520707263732074616F
:100830006720696E70743A2000574C31323520724F
:100840006561643A20002C20636865636B73756D85
:100850002028686578293A20002C2069645F6C653F
:100860006E3A20002C2069645F656E643A2000694E
:10087000645F626567696E3A2000574C31323520FB
:10088000707263732074616720696E70743A20001F
:1008900046072E071407F906EB06D306C606B70669
:1008A000A806A00696068706710667065D062C2038
:1008B00073697A65200053657474696E67732C20C0
:1008C00063686B736D20307800456E746572696E75
:1008D000672072756E206D6F646500207365747497
:1008E000696E672052756E4D6F6465203D3E203005
:1008F000006379636C65526561646572506F7765FA
:100900007228292073657474696E6720706F77652B
:1009100072204C4F57002C20757074696D65200053
:100920006E6576657200732061676F002C206379B5
:10093000636C656420006E65766572007320616784
:100940006F006379636C65526561646572506F779F
:1009500065722829207461672072656164200063D4
:1009600079636C65526561646572506F7765722852
:10097000292073657474696E6720706F77657220C3
:100980004849474800556E617574686F72697A65A9
:1009900064206F7220696E76616C6964207461678F
:1009A0003A2000417574686F72697A6564207461D9
:1009B000673A20005461672072736C742066726F0E
:1009C0006D2070726F636573735461674461746105
:1009D00028293A20002070726F6365737354616731
:1009E000282920726563656976656420627566668C
:1009F000657200290028002C200052656164657230
:100A00003A3A706F6C6C5265616465722829206E89
:100A1000616D652C206C656E3A200052454144455D
:100A200052204C4F4F5020454E4420006D735F7252
:100A300065616465725F6379636C655F746F74612F
:100A40006C20006D7353696E63654C6173745265FD
:100A500061646572506F7765724379636C652829AC
:100A600020006D7353696E63654C617374546167E4
:100A700052656164282920006C6173745F7265613E
:100A80006465725F706F7765725F6379636C655FD1
:100A90006D7320006C6173745F7461675F72656170
:100AA000645F6D732000524541444552204C4F4FC6
:100AB0005020424547494E200000000000240027F6
:100AC000002A0000000008000201000003040700E3
:100AD000000000000000002E20002C2073697A65C1
:100AE0002000546167732C2063686B736D2030782D
:100AF000004E2F4100392E20425420636F6D6D61EE
:100B00006E6400382E205265737461727400372E43
:100B1000204C697374207265616465727300362EAF
:100B20002053686F772066726565206D656D6F7202
:100B30007900352E2053657474696E677300342E06
:100B40002044656C65746520616C6C20746167730A
:100B500000332E2044656C65746520746167003233
:100B60002E204164642074616700312E204C69732B
:100B700074207461677300302E2045786974004DCD
:100B8000656E75003A200000000000230026002951
:100B90000000000000250028002B000404040404C9
:100BA000040404020202020202030303030303011A
:100BB00002040810204080010204081020010204F1
:100BC000081020524649442061646D696E20636FAD
:100BD0006E736F6C652C200053657474696E677357
:100BE0003A3A73617665282920726573756C743A98
:100BF00020000200DA3011241FBECFEFD8E0DEBFA4
:100C0000CDBF14E0A0E0B1E0EAEBFEE602C0059043
:100C10000D92A633B107D9F725E0A6E3B4E001C0F1
:100C20001D92A63DB207E1F715E0CBEFD5E004C079
:100C30002197FE010E943834CA3FD107C9F70E94AC
:100C400064290C945B370C940000EF92FF920F9391
:100C50001F93CF93DF93CDB7DEB7E0970FB6F8942D
:100C6000DEBF0FBECDBF7C018B014AE050E060E0EB
:100C700070E0C8010E942F32F701EF5BFF4F7183D4
:100C800060839B01215031092F30310560F59E01B1
:100C90002F5D3F4FAE014F5F5F4F8BE195E00E94AC
:100CA000A213BE016F5F7F4FF701808D918D0E946F
:100CB000152768E872E0F701808D918D0E94172753
:100CC000BE016F5D7F4FF701808D918D0E94E926F7
:100CD00027EF3EE040E050E000E062EB71E0C7014A
:100CE0000E9488200FC0F8018081803321F08D3070
:100CF00011F08A3021F4C7010E94C82003C0C70147
:100D00000E943421E0960FB6F894DEBF0FBECDBF2F
:100D1000DF91CF911F910F91FF90EF900895FC010B
:100D2000B79628E1DF011D922A95E9F7789611829E
:100D300010823496118210820895AF92BF92CF92A2
:100D4000DF92EF92FF920F931F93CF93DF93CDB774
:100D5000DEB7A1970FB6F894DEBF0FBECDBF8C01F2
:100D60005C0123E4A20EB11CD5018D919C91892BCD
:100D700009F45CC0F801828D938D0E941D1BD8017F
:100D80005A96ED91FC915B9783A994A9A5A9B6A960
:100D90000097A105B10509F449C0BF93AF939F9394
:100DA0008F938FEC91E09F938F937E01B9E1EB0ECF
:100DB000F11CFF92EF920E94A83448E150E0B70185
:100DC0007801E7E2EE0EF11CC7010E945533F701EE
:100DD0000FB6F894DEBF0FBECDBF80E090E041912A
:100DE0009C012F5F3F4F41110EC0F801E80FF91F22
:100DF0004AE047A3F801E20FF31F17A2F801FF969C
:100E00003183208304C0C9012831310541F7D8015D
:100E10005A968D919C915B97FC0113AA14AA15AA6E
:100E200016AA0E948516D5011D921C9263ED71E0F1
:100E3000C8014C960E946034892BA1F0F801808D86
:100E4000918DDC01ED91FC910084F185E02D0995F7
:100E5000F801B7966F019801215C3F4F7901892B0A
:100E6000C1F458C0D8015896ED90FC9059978091E4
:100E7000540490915504E816F90601F3C7010E9445
:100E80001F288091540490915504E816F906E9F75B
:100E9000D5CF80914A0490914B04892B21F4109373
:100EA0004B0400934A0480915F0590916005A091E6
:100EB0006105B0916205F80183A394A3A5A3B6A32D
:100EC00081E090E090930101809300010E940E293F
:100ED000D8015F966D937D938D939C939297F501C6
:100EE00011821082D80158968D919C915997DC01FE
:100EF000ED91FC910084F185E02D0995892B51F04D
:100F0000F60181918A3031F08D3021F0EE16FF0626
:100F1000C1F70AC0F60181918A30E9F08D30D9F02D
:100F2000EE16FF06C1F768C0F801808D918DDC01D7
:100F3000ED91FC910284F385E02D0995B82EBBE17B
:100F40008B1332C08AE0F80187A310A681E090E0FD
:100F5000D7018D939C9348E150E0B601CE010196F4
:100F60000E945533C8010E948F06D801ED91FC9173
:100F70000280F381E02DC8010995F801E08CF18C25
:100F80006AE0C7010E940E27C7010E94E526D8012A
:100F9000ED91FC910680F781E02D41E0BE016F5F8D
:100FA0007F4FC801099528C080914A0490914B0455
:100FB0000817190759F4F801808D918DDC01ED9126
:100FC000FC910190F081E02D6B2D0995F701808156
:100FD0009181F801E80FF91FB7A20196D7018D930F
:100FE0009C93BDE0BB1619F0EAE0BE127BCFF8017E
:100FF000E80FF91F17A276CFA1960FB6F894DEBFBF
:101000000FBECDBFDF91CF911F910F91FF90EF9059
:10101000DF90CF90BF90AF900895CF93DF93EC0116
:10102000888D998DDC01ED91FC910084F185E02D96
:101030000995892B51F0888D998DDC01ED91FC91FA
:101040000284F385E02D0995EBCFDF91CF910895D0
:101050008F929F92AF92BF92CF92DF92EF92FF92C8
:10106000CF93DF930E940E296B017C018DE090E00D
:101070000E940E31D82FC92FC701B60128EE33E0E8
:1010800040E050E00E9492339F938F937F936F9341
:101090008CE3882E912CA12CB12CCA01B901A50199
:1010A00094010E9492339F938F937F936F93C70114
:1010B000B60120E63AEE40E050E00E949233CA01C9
:1010C000B901A50194010E9492339F938F937F935E
:1010D0006F93C701B60120E83EEE46E350E00E9460
:1010E00092335F934F933F932F9386ED91E09F93BD
:1010F0008F931F928DE08F93CF93DF930E9478346C
:101100008DB79EB746960FB6F8949EBF0FBE8DBFA3
:101110008D2F9C2FDF91CF91FF90EF90DF90CF909C
:10112000BF90AF909F908F900895EF92FF920F9392
:101130001F93CF93DF938C0180E190E00E940E31EA
:10114000D82FC92F80914004811142C081E0809343
:1011500040048091000190910101892BB1F40E941B
:1011600028087C01FF928F938EEE91E09F938F93DE
:10117000CF93DF930E94A834C7010E94A6310F903D
:101180000F900F900F900F900F900230110581F08B
:101190000330110541F001301105D1F4CF93DF93F5
:1011A00084E092E009C0CF93DF9383EF91E004C025
:1011B000CF93DF938BEF91E09F938F93CF93DF9348
:1011C0000E94A8340F900F900F900F900F900F90E7
:1011D0008D2F9C2FDF91CF911F910F91FF90EF905A
:1011E00008958AE00E942222892BE1F480917805FB
:1011F000882339F08091000190910101892B59F4E5
:1012000013C08BE00E942222892BA1F38091490414
:101210008111F0CF07C081E020914A0430914B0446
:10122000232B19F080E0089581E00895CF93C82F13
:101230000E94F108882359F0CC2399F062E274E00F
:1012400080915204909153040E94E92602C0CC235D
:1012500041F062E274E086E594E00E94E926109293
:101260004004CF910895EF92FF920F931F93CF9375
:10127000DF9300D0CDB7DEB77C012091D00530914F
:10128000D1052115310511F426ED35E08E010F5FF2
:101290001F4F021B130B63EE70E086E594E00E9483
:1012A0001727B80186E594E00E94281A60EE70E0E6
:1012B00086E594E00E941727B70186E594E00E9436
:1012C000E926C8010F900F90DF91CF911F910F91E8
:1012D000FF90EF900895CF92DF92EF92FF920F93DD
:1012E0001F93CF93DF931F92CDB7DEB77C016B01C5
:1012F000DB018C918983805387010F5B1F4F8A30FC
:1013000030F08FEF9FEFF8019183808315C04AE0A2
:1013100050E060E070E0CE0101960E942F326F3FF6
:101320007F4F79F34AE050E060E070E0C6010E9430
:101330002F32D8016D937C93D801ED91FC91EA3066
:10134000F10508F06CC0EC5CFF4F0C943834F701E9
:1013500013A214A215A216A281E090E090930101BD
:10136000809300010E940E29D7015F966D937D93B3
:101370008D939C93929756C020E030E0A90160E0E5
:1013800070E011C029EB30E140E050E001E06DE099
:1013900072E0C7010E94882045C02CE430E140E0A3
:1013A00050E063E472E0C7010E9459213BC02EE186
:1013B00030E140E050E06DE572E0F5CFC7010E94FA
:1013C000342130C082E294E00E9433096C016AE764
:1013D00072E0F701808D918D0E941727D7015896F2
:1013E0000D911C915997B601C8010E94281AC80195
:1013F0000E94E526F701808D918D0E94E526C701A8
:101400000E94AD200FC0C7010E9418210BC0E0E070
:10141000F0E0099507C0C7010E94AA2203C0C701D6
:101420000E94C8200F90DF91CF911F910F91FF90E4
:10143000EF90DF90CF9008958BE195E00E94DF2838
:1014400020917905882349F0809165059091660582
:10145000422F50E04817590714F0822F90E008956A
:1014600041E050E060E070E00C942E1AFB018081B6
:1014700091811816190644F4828193811816190671
:1014800034F482E090E0089580E090E0089581E0F7
:1014900090E00895FC01708767836115710581F400
:1014A000238534852115310559F0818592852817CA
:1014B000390718F41682158208950196928781875C
:1014C000A18DB28DCB01880F991FA80FB91F8D91E7
:1014D0009C91181619064CF4CB01019662E070E05D
:1014E0000E9405349683858302C016821582858505
:1014F0009685A785B089818B928BA38BB48B089539
:101500008F929F92AF92BF92CF92DF92EF92FF9213
:101510001F93CF93DF93EC010E940E296D877E8786
:101520008F87988B298D3A8DEF80F88489889A88E7
:10153000AB88BC88DC01CB0188199909AA09BB09D1
:10154000F701EE0FFF1FE20FF31F80809180092C3F
:10155000000CAA08BB0888159905AA05BB0588F0E8
:10156000B901CE010E94360A0197E816F9061CF06F
:1015700060E070E003C0B7016F5F7F4FCE010E9453
:101580004A0AE880F9808B8D9C8DCD88DE888E1587
:101590009F05A1F42D8D3E8D8D819E8128173907E1
:1015A00069F48F8D98A18C159D0541F429A13AA16C
:1015B0008F89988D2817390709F417C2C114D104EF
:1015C00039F48F89988D892B09F0AEC16D810AC2DB
:1015D0001C141D040CF0A8C18D819E81892B09F477
:1015E0009FC1809102018E1521F08F3F09F0FDC14E
:1015F00004C0E2EFFBE014917AC0E0920201E2EF56
:10160000FBE014911F3F09F4F0C1113009F448C008
:1016100050F1123009F06BC01092B0001092B1007E
:101620008091B00082608093B0008091B1008160B1
:101630008093B100C7019927FC01E556F44FE4916E
:10164000F0E0EE0FFF1FEF56F44F259134913093E9
:101650007F0520937E05FC01E155F44FE491E09372
:10166000800512E040C214BC15BC84B5826084BD04
:1016700085B5816085BDC7019927FC01E556F44F0A
:10168000E491F0E0EE0FFF1FEF56F44F25913491F7
:10169000FC01E155F44FE491E093370410E023C2DC
:1016A0001092800010928100809181008860809368
:1016B000810080918100816080938100C70199271A
:1016C000FC01E556F44FE491F0E0EE0FFF1FEF56FA
:1016D000F44F25913491FC01E155F44FE491E093EE
:1016E000360461E08E2D0E941F2311E0A7C017FD74
:1016F0007CC161E08E2D0E941F23812F8D7F09F018
:101700009DC00D2C000CEE08FF0860E072E18AE736
:1017100090E0A70196010E94193449015A01DA01AB
:10172000C9010197A109B1098F3F9105A105B10533
:1017300009F00CF445C060E472E48FE090E0A7018A
:1017400096010E941934BA01A90141505109610959
:1017500071091230E9F44F3F51056105710509F037
:101760000CF461C160E970ED83E090E0A70196019F
:101770000E941934BA01A901415051096109710946
:101780004F3F51056105710509F034F583E04FC005
:101790004F3F510561057105B9F0B4F068E478EE8A
:1017A00081E090E0A70196010E941934BA01A901D5
:1017B0004150510961097109112309F465C15CC1E6
:1017C000AC01BD0181E001C082E0111130C095B5CE
:1017D000987F892B85BD6AC068E478EE81E090E04F
:1017E000A70196010E941934BA01A901415051097B
:1017F000610971094F3F51056105710509F00CF44C
:1018000010C164E274EF80E090E0A70196010E94AD
:101810001934BA01A90141505109610971094F3FB9
:1018200051056105710511F008F0FFC085E0909148
:10183000B100987F892B8093B10032C00D2C000C31
:10184000EE08FF0860E072E18AE790E0A7019601E8
:101850000E941934DA01C9010197A109B109009761
:1018600021E0A207B10524F4AC01BD0181E00FC065
:1018700068E478EE81E090E0A70196010E941934B7
:10188000BA01A901415051096109710983E0113080
:1018900039F490918100987F892B8093810018C042
:1018A0001130B1F0123049F111119FC047BD8FEFD7
:1018B0009FEFDC0180933C0490933D04A0933E0491
:1018C000B0933F0480916E00826080936E008DC063
:1018D00050938900409388008FEF9FEFDC01809345
:1018E000380490933904A0933A04B0933B04809158
:1018F0006F00826080936F0078C04093B3008FEFD9
:101900009FEFDC018093810590938205A09383056E
:10191000B09384058091700082608093700065C0F0
:101920008E2D0E94152661C0CF88D88C1C141D04F2
:101930000CF05BC08D819E8161E0892B09F44EC063
:101940008E2D0E941F238FEFC816D10409F444C0C6
:10195000F701FF27ED53F54FE491E330F9F048F438
:10196000E130B9F0E230A1F584B5806284BDC8BC35
:101970003CC0E730E9F0E83019F1E43049F58091F6
:101980008000806280938000D0928B00C0928A0099
:101990002CC084B5806884BDC7BC27C080918000FE
:1019A000806880938000D0928900C09288001DC01A
:1019B0008091B00080688093B000C092B30015C0E1
:1019C0008091B00080628093B000C092B4000DC0DE
:1019D00020E8C216D1042CF061E004C08E2D0E94D4
:1019E0001F2360E08E2D0E94F022888199819C8FB8
:1019F0008B8F8D819E819E8F8D8F8D899E8998A3DF
:101A00008F8F8F89988D9AA389A3DF91CF911F9192
:101A1000FF90EF90DF90CF90BF90AF909F908F900E
:101A2000089584E004CF82E002CF62E17AE780E0AB
:101A300090E0A70196010E941934BA01A901415012
:101A40005109610971094F3F51056105710591F017
:101A500088F0D501C4013AE0B595A795979587958B
:101A60003A95D1F7AC01BD014150510961097109A5
:101A700087E0DDCE86E0DBCE4F3F51056105710585
:101A800009F098F684E0A1CE4F3F5105610571053C
:101A900041F138F162E17AE780E090E0A701960138
:101AA0000E941934BA01A901415051096109710913
:101AB0004F3F51056105710591F088F0D501C401D2
:101AC0002AE0B595A795979587952A95D1F7AC010A
:101AD000BD01415051096109710985E078CE84E06A
:101AE00076CE83E074CE61E08E2D0E941F2309CE56
:101AF000CF92DF92EF92FF921F93CF93DF93EC018F
:101B00006A017B01122F0E941C0A8C179D079CF111
:101B1000CE010E949508EC010E94F108882389F00B
:101B2000BE0180915204909153040E9415272AE02F
:101B300030E0B701A60180915204909153040E94B5
:101B4000FB26BE0186E594E00E9415272AE030E0DE
:101B5000B701A60186E594E00E94FB26812F0E9432
:101B60001609CE01DF91CF911F91FF90EF90DF908A
:101B7000CF900C94A631DF91CF911F91FF90EF9001
:101B8000DF90CF900895FF920F931F93CF93DF9331
:101B9000EC01F62E08811981C8010E946C33F816F9
:101BA00021F06F2DC8010E947433CE01DF91CF91D7
:101BB0001F910F91FF900895CF92DF92EF92FF92C5
:101BC0001F93CF93DF936A017B01122F0E94950828
:101BD000EC010E94F108882379F0BE018091520443
:101BE000909153040E941527B701A60180915204D9
:101BF000909153040E94F619BE0186E594E00E947C
:101C00001527B701A60186E594E00E94F619812FF9
:101C10000E941609CE01DF91CF911F91FF90EF90A6
:101C2000DF90CF900C94A631FF920F931F93CF9328
:101C3000DF93EC018B01F42E0E941C0A8C179D0788
:101C40005CF1CE010E949508EC010E94F108882306
:101C500071F0BE0180915204909153040E941527A7
:101C6000B80180915204909153040E94281ABE0139
:101C700086E594E00E941527B80186E594E00E946D
:101C8000281A8F2D0E941609CE01DF91CF911F9146
:101C90000F91FF900C94A631DF91CF911F910F917E
:101CA000FF900895CF93DF93FC01C281D38113820B
:101CB0001282DC0160E070E080E090E02C9130E086
:101CC000522F44276E35710529F011962C911197EA
:101CD00030E002C020E030E0242B352B8227932710
:101CE0006E5F7F4F12966036710541F7D383C283D2
:101CF000DF91CF910895FF920F931F93CF93DF93BE
:101D0000EC018B01F42E0E941C0A8C179D075CF1DC
:101D1000CE010E949508EC010E94F108882371F021
:101D2000BE0180915204909153040E941527B8017E
:101D300080915204909153040E941527BE0186E5BC
:101D400094E00E941527B80186E594E00E941527CB
:101D50008F2D0E941609CE01DF91CF911F910F9117
:101D6000FF900C94A631DF91CF911F910F91FF90BE
:101D70000895FF920F931F93CF93DF93EC018B0194
:101D8000F42E0E941C0A8C179D075CF1CE010E9464
:101D90009508EC010E94F108882371F0BE01809142
:101DA0005204909153040E941527B8018091520467
:101DB000909153040E941727BE0186E594E00E948B
:101DC0001527B80186E594E00E9417278F2D0E9401
:101DD0001609CE01DF91CF911F910F91FF900C94C6
:101DE000A631DF91CF911F910F91FF900895AF928F
:101DF000BF92CF92DF92EF92FF920F931F93CF93F8
:101E0000DF93CDB7DEB7A0970FB6F894DEBF0FBE55
:101E1000CDBF6C018B01FB01808196012F5B3F4F91
:101E200059018D3021F08A3011F0811106C041E056
:101E300062E672E084E090E0E6C0F901E080F180C3
:101E4000F1E0EF1AF108F701EE0FFF1FE057F74F2F
:101E500065917491CE0101960E944E332FE0E216F7
:101E6000F10408F0CBC0F701E25CFF4F4AE050E01C
:101E700060E070E0C8010C9438340E942F32609307
:101E80004F057093500580935105909352058FC074
:101E90000E942F326093530570935405809355052B
:101EA0009093560584C00E942F326093570570931B
:101EB00058058093590590935A0579C00E942F3296
:101EC00060935B0570935C0580935D0590935E0560
:101ED0006EC00E942F326A3071058105910548F06D
:101EE00060935F0570936005809361059093620530
:101EF0005EC08AE090E0A0E0B0E080935F05909340
:101F00006005A0936105B093620551C00E942F3215
:101F100070936405609363054AC00E942F327093EA
:101F200066056093650543C00E942F326093670584
:101F30003EC00E942F3260936805709369058093BC
:101F40006A0590936B0533C00E942F3260936C0535
:101F500070936D0580936E0590936F0528C00E9465
:101F60002F32609370057093710580937205909382
:101F700073051DC00E942F32709375056093740520
:101F800016C00E942F3270937705609376050FC0BC
:101F90000E942F3221E0672B682B692B09F420E087
:101FA0002093780504C00E942F326093790540E2A7
:101FB00050E064E772E08FE295E00E9455338BE1D8
:101FC00095E00E94942880915F0590916005A09112
:101FD0006105B0916205F60183A394A3A5A3B6A3FE
:101FE00081E090E090930101809300010E940E290E
:101FF000F601678F70A381A392A307C041E061E35C
:1020000072E082E090E00E94B90E8FEF9FEFF50141
:1020100091838083C6010E943421A0960FB6F89464
:10202000DEBF0FBECDBFDF91CF911F910F91FF900B
:10203000EF90DF90CF90BF90AF900895CF93DF9354
:10204000EC01DB018C918F7D893589F441E069E0F9
:1020500072E084E090E00E94B90E84E1E7E0F5E0F0
:10206000DF011D928A95E9F70E94EA2106C069E125
:1020700072E0888D998D0E943B27888D998D0E94F2
:10208000E52620E030E0A90160E070E0CE010E948A
:102090005921DF91CF910895CF92DF92EF92FF9275
:1020A0000F931F93CF93DF93EC018B014AE050E035
:1020B00060E070E0C8010E942F326B017C01CB010F
:1020C000181619064CF4F80120812D3029F02A3019
:1020D00019F0653071053CF065EF71E0888D998DE0
:1020E0000E943B2731C086010150110940E06DEC90
:1020F00071E084E090E00E94B90E41E0B80184E014
:1021000090E00E94140EF4E0CF0ED11CC601880F9F
:10211000991F880F991FFC01ED50FB4F108211820F
:10212000128213820E94EA2160EE71E0888D998DFF
:102130000E941727E88CF98C60E070E0C7010E94CC
:10214000281AC7010E94E526888D998D0E94E526F0
:1021500020E030E0A90160E070E0CE010E9459214A
:10216000DF91CF911F910F91FF90EF90DF90CF9073
:1021700008958F929F92AF92BF92EF92FF920F932A
:102180001F93CF93DF938C017B01FB0180818D3006
:1021900009F470C08A3009F46DC0882309F46AC05C
:1021A0004AE050E060E070E0C7010E942F324B012E
:1021B0005C0140E06AE471E084E090E00E94B90EC6
:1021C00021E0B501A40184E090E00E94780D0E9416
:1021D000AF1FE7E0F5E0DF0180E090E04D915D9119
:1021E0006D917D91452B462B472B09F0019625E0FB
:1021F000AB31B20799F781149104A104B10441F401
:1022000041E06BE271E083E090E00E94B90E32C0E1
:102210008530910554F041E065E171E083E090E0A4
:102220000E94B90EC2E0D0E027C041915191619166
:10223000719184169506A606B70609F476C025E0C6
:10224000EB31F20791F7880F991F880F991FFC0156
:10225000E95FFA4F80829182A282B3820E94EA21D2
:1022600041E06EEE70E084E090E00E94B90EC0E0C4
:10227000D0E002C0C1E0D0E06FEB71E0F801808DEA
:10228000918D0E941727B701F801808D918D0E94D2
:10229000E9266DEA71E0F801808D918D0E94172783
:1022A000BE01F801808D918D0E94281A64E872E0C9
:1022B000F801808D918D0E941527F801808D918DF8
:1022C000C230D10559F0C330D10559F0219719F02A
:1022D00065EA71E008C066E871E005C06DE671E08E
:1022E00002C064E571E00E941727F801808D918D8E
:1022F0000E94E526F801808D918D0E94E526C80197
:102300000E948F0620E030E0A90160E070E0C80183
:102310000E945921DF91CF911F910F91FF90EF9073
:10232000BF90AF909F908F90089541E06FEF70E065
:1023300083E090E00E94B90EC3E0D0E09DCF0F9300
:102340001F93CF93DF9300D0CDB7DEB78C01809180
:10235000000190910101892B29F5F801808191817B
:102360007183608386179707E9F0809163059091E8
:1023700064050297B9F440E068EB70E084E090E017
:102380000E94B90EF8016081718141E084E090E023
:102390000E94140EF80160811A821982CE01019602
:1023A0000E94C30DF801808191810F900F90DF9101
:1023B000CF911F910F91089588EF92E0089582EFD9
:1023C00092E0089583E393E0089580E391E0089517
:1023D000FC012689378937FF04C060E070E0CB013B
:1023E0000895220F331F220F331FFC01E20FF31F4A
:1023F00062817381848195810895CF93DF93FC017D
:102400002689378937FF05C060E070E080E090E002
:102410000EC0EC010190F081E02D0480F581E02DEB
:1024200009952E893F89215031093F8B2E8BDF91F1
:10243000CF9108952FEF3FEFDC0157963C932E93F9
:102440005697FC019C012C5E3F4F1382128215822D
:1024500014823496E217F307C1F74115510511F4C0
:1024600060FF07C0DC01ED91FC910190F081E02D4F
:10247000099408959F92AF92BF92CF92DF92EF920C
:10248000FF920F931F93CF93DF93EC018B01942E58
:10249000E881F9810480F581E02D09956B017C01CB
:1024A0008E899F8997FD3AC0570181E0A822BB24FD
:1024B000C114D10421F4A114B10469F52FC09920ED
:1024C00039F0E881F9810280F381E02DCE01099590
:1024D000AB2871F0F701F595E795EC0FFD1F019022
:1024E000F081E02DEC0DFD1D0190F081E02D01C08B
:1024F000F601C70195958795B8018C0F9D1FDF9157
:10250000CF911F910F91FF90EF90DF90CF90BF90F0
:10251000AF909F9009949920E9F2D3CFDF91CF91AA
:102520001F910F91FF90EF90DF90CF90BF90AF90F1
:102530009F90089541E063E777E082E090E00E9499
:10254000B90E60E070E0CB010895E0917A05F0915A
:102550007B05808D918D0E94E926E0917A05F091AE
:102560007B0562E274E0808D918D0E94E926809166
:102570007A0590917B050C94AA22CF93DF93CDB777
:10258000DEB7A0970FB6F894DEBF0FBECDBFFB013C
:1025900001900020E9F7AF01461B570B1A82198200
:1025A000FE0133968EE1DF011D928A95E9F74250D4
:1025B0005109CE0101960E946934298180917C05E0
:1025C00090917D052134A1F4BE016F5F7F4FFC0126
:1025D000808D918D0E94E92645EA52E160E070E02D
:1025E00020E080917C0590917D050E94F11A1CC02D
:1025F000DC01ED91FC910084F185E02D40E050E09C
:10260000BA01099580917C0590917D050E940D0885
:1026100080917C0590917D050E948F0680917A05BE
:1026200090917B050E94C820A0960FB6F894DEBF5B
:102630000FBECDBFDF91CF910895AF92BF92CF92E1
:10264000DF92EF92FF920F931F93CF93DF93CDB75B
:10265000DEB7A0970FB6F894DEBF0FBECDBF8C01DA
:102660007B014AE050E060E070E0C7010E942F3239
:102670006B015B0121E0A21AB10883E0A816B10446
:10268000C0F56CE577E0F801808D918D0E941727E9
:10269000B501660F771FFB01E85BFE4F608171811A
:1026A000F801808D918D0E94E92662E274E0F801C4
:1026B000808D918D0E94E926EEE9F8E06591749194
:1026C000CE0101960E944E334AE050E060E070E097
:1026D000C7010E942F326093670540E250E064E733
:1026E00072E08FE295E00E9455338BE195E00E9405
:1026F000942862E274E0F801808D918D0E94E926B1
:10270000CD2841F0FDE0EF16F10421F02AE0E216B9
:10271000F10421F4C8010E94C82003C0C8010E942E
:102720001821A0960FB6F894DEBF0FBECDBFDF9183
:10273000CF911F910F91FF90EF90DF90CF90BF90BE
:10274000AF900895EF92FF920F931F93CF93DF9373
:10275000EC01CA01122F032F7B0121E0E21AF108DC
:10276000F701EE0FFF1FE057F74F659174910E943C
:102770004E338FE0E816F10408F029C1F701E35B5E
:10278000FF4F0C9438348FA98F938EA98F938DA906
:102790008F938CA98F938FEC91E09F938F930F93DE
:1027A0001F930E94A8348DB79EB708960FB6F89471
:1027B0009EBF0FBE8DBF0BC18BAD8F938AAD8F9324
:1027C00089AD8F9388AD8F938FEC91E09F938F931A
:1027D0000F931F930E94A8348DB79EB708960FB62B
:1027E000F8949EBF0FBE8DBFF2C08FAD8F938EAD9C
:1027F0008F938DAD8F938CAD8F938FEC91E09F93E2
:102800008F930F931F930E94A8348DB79EB708969D
:102810000FB6F8949EBF0FBE8DBFD9C0C05CDF4F0E
:102820008B818F938A818F9389818F9388818F93F6
:102830008FEC91E09F938F930F931F930E94A83486
:102840008DB79EB708960FB6F8949EBF0FBE8DBF8A
:10285000BEC0CC5BDF4F8B818F938A818F93898140
:102860008F9388818F938FEC91E09F938F930F9339
:102870001F930E94A8348DB79EB708960FB6F894A0
:102880009EBF0FBE8DBFA3C0C85BDF4F81C0C65BBC
:10289000DF4F7EC0C45BDF4F2881822F90E001971D
:1028A0008330910540F4880F991FFC01E85BFE4FCF
:1028B0008081918102C08CE393E09F938F931F925C
:1028C0002F9385E493E09F938F930F931F930E9420
:1028D000A8348DB79EB708960FB6F8949EBF0FBE6A
:1028E0008DBF75C0C35BDF4F8B818F938A818F93C0
:1028F00089818F9388818F938DE493E09F938F9349
:102900000F931F930E94A8348DB79EB708960FB6F9
:10291000F8949EBF0FBE8DBF5AC0CF5ADF4F8B8138
:102920008F938A818F9389818F9388818F938DE490
:1029300093E09F938F930F931F930E94A8348DB7BA
:102940009EB708960FB6F8949EBF0FBE8DBF3FC0CE
:10295000CB5ADF4F8B818F938A818F9389818F939D
:1029600088818F938DE493E09F938F930F931F93B0
:102970000E94A8348DB79EB708960FB6F8949EBFF4
:102980000FBE8DBF24C0C75ADF4F02C0C55ADF4FEC
:1029900089818F93888104C0C35ADF4F88811F9239
:1029A0008F9382E493E007C0C25ADF4F88811F9261
:1029B0008F9381E593E09F938F930F931F930E94D2
:1029C000A8340F900F900F900F900F900F90DF9101
:1029D000CF911F910F91FF90EF9008953F924F92EA
:1029E0005F926F927F928F929F92AF92BF92CF929F
:1029F000DF92EF92FF920F931F93CF93DF93CDB7A8
:102A0000DEB7C056D1090FB6F894DEBF0FBECDBFFA
:102A10002B0166EB78E0C2010E9417278BE195E05D
:102A20000E94520E40E150E0BC01C2010E94082702
:102A30006EEA78E0C2010E9417274AE050E06FE595
:102A400070E0C2010E940827C2010E94E52601E051
:102A500010E08EE2382E3E0183E0680E711C6E019C
:102A600091E5C90ED11C7E01E1E3EE0EF11C96E565
:102A7000892E93E0992ECE0101965C011A8219826B
:102A8000F301832D11928A95E9F79601A701B80108
:102A90008BE195E00E94A213DF92CF92FF92EF921A
:102AA0001F930F939F928F92BF92AF920E94A83470
:102AB000B501C2010E94E9260F5F1F4F0FB6F894BF
:102AC000DEBF0FBECDBF00311105C1F6C05ADF4FCA
:102AD0000FB6F894DEBF0FBECDBFDF91CF911F912F
:102AE0000F91FF90EF90DF90CF90BF90AF909F90AD
:102AF0008F907F906F905F904F903F900895CF930D
:102B0000DF93EC0180E293E0998388831B821A8231
:102B100040E150E06BE772E0CE0104960E9455332D
:102B20008EE190E0A0E0B0E08CAB9DABAEABBFAB74
:102B300088EE93E0A0E0B0E088AF99AFAAAFBBAF5A
:102B400086E990E0A0E0B0E08CAF9DAFAEAFBFAF44
:102B5000FE01E05CFF4F8FE090E0A0E0B0E08083FA
:102B60009183A283B38334968CE390E0A0E0B0E03D
:102B700080839183A283B383349681E090E0918334
:102B80008083329685E090E091838083329683E063
:102B90008083319680E091EEA0E0B0E08083918365
:102BA000A283B383349680839183A283B3833496C4
:102BB00080E895E2A0E0B0E080839183A283B383B4
:102BC000349680EF9AE091838083329687E090E09C
:102BD0009183808332961082319684E0808340E234
:102BE00050E062E273E0CE014496DF91CF910C9405
:102BF0005533BF92CF92DF92EF92FF920F931F93C4
:102C0000CF93DF93C62E8A01B22E0E949508EC0165
:102C10000E94F108D12CE12CF12C882381F0BE0117
:102C200080915204909153040E9415279801B70196
:102C3000A60180915204909153040E94FB26BE018C
:102C400086E594E00E9415279801B701A60186E564
:102C500094E00E94FB268B2D0E941609CE01DF9185
:102C6000CF911F910F91FF90EF90DF90CF90BF9089
:102C70000C94A631CF92DF92EF92FF921F93CF93E5
:102C8000DF93EC01C62E142F0E941C0A8C179D079F
:102C9000A4F1CE010E949508EC010E94F108D12C0C
:102CA000E12CF12C882381F0BE0180915204909197
:102CB00053040E9415272AE0B701A601809152040F
:102CC000909153040E949C26BE0186E594E00E94E8
:102CD00015272AE0B701A60186E594E00E949C260C
:102CE000812F0E941609CE01DF91CF911F91FF9095
:102CF000EF90DF90CF900C94A631DF91CF911F9190
:102D0000FF90EF90DF90CF900895DC0156961C92D3
:102D1000FC01369620E1DF011D922A95E9F708951E
:102D20000F93CF93DF93EC018CE291E0998388833A
:102D30006A834B832C830D83FE01369680E1DF018D
:102D40001D928A95E9F71E8A0E940E296F8B788F53
:102D5000898F9A8F1B8E1C8E1D8E1E8E1F8E18A221
:102D600019A21AA21BA21CA21DA21EA21FA218A673
:102D700019A61AA61BA61CA61DA61EA61FA618AA43
:102D800019AA1AAA1BAA1CAA1DAA1EAA18AE1FAA13
:102D9000DF91CF910F9108952F923F924F925F92C2
:102DA0006F927F928F929F92AF92BF92CF92DF925B
:102DB000EF92FF920F931F93CF93DF93CDB7DEB7C0
:102DC00068970FB6F894DEBF0FBECDBF7C0169E6F1
:102DD00077E00E94172763E070E0C7010E94281A7D
:102DE00067E677E0C7010E943B2788E4C82E81E0B0
:102DF000D82E01E010E096E1292E2E0183E0480E46
:102E0000511C26E6822E23E0922E38E1332EFE015D
:102E100031965F011A821982F201822D11928A95F0
:102E2000E9F7F60120813181F2E0CF0ED11C8091CB
:102E3000670590E08017910719F484E693E002C0DB
:102E400081EF91E03F932F939F938F931F930F9365
:102E50009F928F921F923F92BF92AF920E947834BE
:102E6000B501C7010E94E9260FB6F894DEBF0FBE78
:102E7000CDBF0F5F1F4F0430110561F668960FB686
:102E8000F894DEBF0FBECDBFDF91CF911F910F91A0
:102E9000FF90EF90DF90CF90BF90AF909F908F907A
:102EA0007F906F905F904F903F902F9008950F9379
:102EB000CF93DF93EC0101E02AE043E06EE00E9453
:102EC000901684E491E09983888340E060EA77E09B
:102ED00084E090E00E94B90E41E063E373E084E097
:102EE00090E0DF91CF910F910C947B0E6F927F92C7
:102EF0008F929F92AF92BF92CF92DF92EF92FF920A
:102F00000F931F93CF93DF93CDB7DEB78C015B0197
:102F10006DB67EB640E06AE778E085E090E00E941A
:102F2000B90E40E06FE678E085E090E00E94B90ECF
:102F300040E0F801638185E090E00E943A1640E0AD
:102F400064E678E085E090E00E94B90E40E0F80188
:102F5000648185E090E00E943A16F80144814F5F59
:102F60008381F42EF81A40E069E578E085E090E08E
:102F70000E94B90E40E06F2D85E090E00E943A1665
:102F800040E066E478E085E090E00E94B90EF5014B
:102F9000E3840E941C0A059744F021E040E150E0E0
:102FA0006E2D85E090E00E94F9154F2D50E04F5FA7
:102FB0005F4F8DB79EB7841B950B0FB6F8949EBFDD
:102FC0000FBE8DBFEDB7FEB731967F0167E271E0AE
:102FD000CF010E945734F80183816501C80ED11CCE
:102FE00081E7882E83E0982EF801848190E0960195
:102FF0002A193B0982179307C4F0F60121916F014A
:10300000F70101900020E9F71F922F939F928F9272
:10301000CF0101979F938F930E94A8340F900F9038
:103020000F900F900F900F90DFCF40E150E060E0E5
:1030300070E0C7010E942F324B015C0140E069E360
:1030400078E086E090E00E94B90E40E0B70186E0AB
:1030500090E00E947B0E40E064E872E086E090E041
:103060000E947B0E21E0B501A40186E090E00E9461
:10307000780DC501B4010FB6F8947EBE0FBE6DBECB
:10308000DF91CF911F910F91FF90EF90DF90CF9044
:10309000BF90AF909F908F907F906F9008956F92A8
:1030A0007F928F929F92AF92BF92CF92DF92EF92D8
:1030B000FF920F931F93CF93DF93CDB7DEB78C01B1
:1030C0005B016DB67EB640E062E278E085E090E0BC
:1030D0000E94B90E40E067E178E085E090E00E9450
:1030E000B90E40E0F801638185E090E00E943A1655
:1030F00040E06CE078E085E090E00E94B90E40E0AE
:10310000F801648185E090E00E943A16F80144815C
:1031100050E08381481B51094F5F5F4FF42EFF0C35
:1031200040E061E078E085E090E00E94B90E40E088
:103130006F2D85E090E00E943A1640E06EEE77E059
:1031400085E090E00E94B90E41E0F501608585E0E0
:1031500090E00E943A164F2D50E04F5F5F4F8DB7C1
:103160009EB7841B950B0FB6F8949EBF0FBE8DBF04
:10317000EDB7FEB731967F0167E271E0CF010E94A3
:103180005734F80183816501C80ED11C84E7882E6D
:1031900083E0982EF801848190E096012A193B097A
:1031A00082179307C4F0F60121916F01F701019096
:1031B0000020E9F71F922F939F928F92CF010197E2
:1031C0009F938F930E94A8340F900F900F900F90B1
:1031D0000F900F90DFCF40E150E060E070E0C7015A
:1031E0000E942F324B015C0140E06CED77E086E0FD
:1031F00090E00E94B90E40E0B70186E090E00E94A6
:103200007B0E40E064E872E086E090E00E947B0E76
:1032100021E0B501A40186E090E00E94780DC5018F
:10322000B4010FB6F8947EBE0FBE6DBEDF91CF9194
:103230001F910F91FF90EF90DF90CF90BF90AF90D4
:103240009F908F907F906F9008952F923F924F9212
:103250005F926F927F928F929F92AF92BF92CF9226
:10326000DF92EF92FF920F931F93CF93DF93CDB72F
:10327000DEB76C015B016DB67EB640E064EC77E0D2
:1032800085E090E00E94B90E40E150E060E070E01F
:10329000C5010E942F321B012C010E941C0A0597B8
:1032A0003CF021E0B201A10185E090E00E94DC0D3C
:1032B000F601F38044814F1950E04F5F5F4F8DB7A7
:1032C0009EB7841B950B0FB6F8949EBF0FBE8DBFA3
:1032D0000DB71EB70F5F1F4F67E271E0C8010E9474
:1032E0005734F501EF0DF11D7F0181E7882E83E052
:1032F000982EF601848190E097012A193B098217E4
:103300009307C4F0F70121917F01F801019000209B
:10331000E9F71F922F939F928F92CF0101979F936E
:103320008F930E94A8340F900F900F900F900F90E2
:103330000F90DFCF40E150E060E070E0C8010E94F4
:103340002F326B017C0140E061EB77E086E090E09A
:103350000E94B90E40E0B80186E090E00E947B0E2A
:1033600040E064E872E086E090E00E947B0E21E09D
:10337000B701A60186E090E00E94780DC701B60172
:103380000FB6F8947EBE0FBE6DBEDF91CF911F9138
:103390000F91FF90EF90DF90CF90BF90AF909F90F4
:1033A0008F907F906F905F904F903F902F900895F7
:1033B000FC014115510511F460FF11C026893789C0
:1033C0002F5F3F4F378B268B220F331F220F331F68
:1033D000E20FF31F4283538364837583089541E0B2
:1033E00069E773E083E090E00C947B0ECF92DF926C
:1033F000EF92FF920F931F93CF93DF9377FF1DC040
:103400006A017B01EC016DE20E940E278C014427CA
:103410005527BA014C195D096E097F092AE0CE01D2
:103420000E949C26800F911FDF91CF911F910F91D9
:10343000FF90EF90DF90CF9008952AE0DF91CF9139
:103440001F910F91FF90EF90DF90CF900C949C26EE
:10345000AB01770F660B770B0C94F619CF92DF92C6
:10346000EF92FF920F931F93CF93DF93EC016B01C9
:103470008B859C858A01000F111F000F111F861775
:10348000970799F4E98CFA8CB801605B7E4FE616D9
:10349000F70661F1CE010E94360A892B31F4B7019B
:1034A000CE010E94360A892B09F10E941C0A059759
:1034B00024F00E941C0A0E941C0A1E821D8218868B
:1034C0001F821A861986DC86CB86005B1E4F1A8FF8
:1034D000098F60E070E0CE01DF91CF911F910F91D5
:1034E000FF90EF90DF90CF900C944A0ADF91CF913C
:1034F0001F910F91FF90EF90DF90CF900895CF92A2
:10350000DF92EF92FF926B017C01E0916604F091F3
:10351000670482E08083C11481EED806E104F104DF
:10352000B1F060E079E08DE390E0A70196010E94A0
:103530009233DA01C9010197A109B109B695A7959E
:10354000979587959C01211580E13807B8F0E091A7
:103550006604F0916704108260E874E88EE190E000
:10356000A70196010E949233DA01C9010197A109CE
:10357000B109B695A795979587959C01E09162044E
:10358000F09163043083E0916404F091650420833A
:1035900010926E04E0916A04F0916B0486E08083DF
:1035A000E0916804F0916904808180618083E091FA
:1035B0006804F0916904808188608083E0916804E8
:1035C000F0916904808180688083E0916804F091C3
:1035D000690480818F7D8083FF90EF90DF90CF9092
:1035E00008951F93CF93DF93EC01122FE881F981A7
:1035F0000190F081E02D0995E881F9810190F08139
:10360000E02D4DE956E060E070E0CE010995CE0175
:103610000E940D08CE010E948F06112351F08A8D61
:103620009B8D0E948516CD5BDF4F81E090E09983F2
:103630008883DF91CF911F9108954F925F926F928F
:103640007F928F929F92AF92BF92CF92DF92EF9232
:10365000FF920F931F93CF93DF93EC018FA998AD47
:10366000209154043091550482179307B1F00E94C1
:103670001F2864E670E080E090E00E9412242FA9E9
:1036800038AD80915404909155042817390729F0DA
:1036900062E070E080E090E0F0CF40E066EA7AE03F
:1036A00086E090E00E94B90E0E940E29AB01BC0199
:1036B0004F8B588F698F7A8F21E086E090E00E94CF
:1036C000780D8090570590905805A0905905B090BE
:1036D0005A05CF8CD8A0E9A0FAA0C80CD91CEA1CC6
:1036E000FB1CCBA6DCA6EDA6FEA62BA13CA14DA102
:1036F0005EA100915B0510915C05F0915D05E09184
:103700005E05211531054105510519F498014F2F2A
:103710005E2FA8EEB3E00E94B433C60ED71EE81E9B
:10372000F91ECFA6D8AAE9AAFAAA809153059091CA
:103730005405A0915505B0915605880E991EAA1EF4
:10374000BB1EA8EEB3E098014F2F5E2F0E94B4334A
:10375000DC01CB01880D991DAA1DBB1D8FA398A765
:10376000A9A7BAA740E064E97AE086E090E00E9469
:10377000B90E4B8D5C8D6D8D7E8D21E086E090E0E5
:103780000E94780D40E068E77AE086E090E00E94D1
:10379000B90E4F8D58A169A17AA121E086E090E091
:1037A0000E94780D40E062E67AE086E090E00E94B8
:1037B000B90E4F89588D698D7A8D8B8D9C8DAD8D0D
:1037C000BE8D481B590B6A0B7B0B21E086E090E015
:1037D0000E94780D40E063E47AE086E090E00E9489
:1037E000B90E4F89588D698D7A8D8F8D98A1A9A1B9
:1037F000BAA1481B590B6A0B7B0B21E086E090E0D5
:103800000E94780D40E06CE27AE086E090E00E9451
:10381000B90E4FA158A569A57AA521E086E090E0F0
:103820000E94780D8F89988DA98DBA8D4B8D5C8DF6
:103830006D8D7E8D841B950BA60BB70B40915305A8
:1038400050915405609155057091560548175907D8
:103850006A077B0708F028C240E06AEF79E086E05B
:1038600090E00E94B90EE881F9810280F381E02D99
:10387000CE01099540E0BC0186E090E00E947B0EFD
:1038800040E067EF79E086E090E00E94B90E41E009
:103890006A8186E090E00E943A168FA998ADDC011B
:1038A000ED91FC910084F185E02D0995892B09F4B7
:1038B00036C18FA998ADDC01ED91FC910084F185B2
:1038C000E02D0995892B09F4EFC11E89103118F4F8
:1038D0008A81181720F0CE010E948516EACF8FA9A1
:1038E00098ADDC01ED91FC910284F385E02D099502
:1038F000FE01E10FF11D868340E065EF79E086E08F
:1039000090E00E94B90E40E06E8986E090E00E944F
:103910003A1640E063EF79E086E090E00E94B90E4D
:103920008E89FE01E80FF11D168180ED810F8A302E
:1039300028F0812F8F7D8154863058F50E941C0A13
:1039400006973CF186E090E00E9495087C010E9479
:10395000F108882371F0B7018091520490915304CB
:103960000E941527612F80915204909153040E9468
:103970000E27B70186E594E00E941527612F86E5A2
:1039800094E00E940E2780E00E941609C7010E9461
:10399000A63140E069E973E086E090E00E947B0E8A
:1039A0008E89FE01E80FF11D16810E941C0A069700
:1039B00044F020E040E150E0612F86E090E00E947A
:1039C000F91540E069E973E086E090E00E947B0E23
:1039D0008E89FE01E80FF11D16810E941C0A0697D0
:1039E00044F020E04AE050E0612F86E090E00E9441
:1039F000F9159A8191508E89811105C02E8122304E
:103A000009F069CF9FC198130DC0FE01E90FF11DA8
:103A100096819330B9F0CE010E94851641E062E2B2
:103A200074E00BC09817B8F38031A8F7891760F4D9
:103A30008F5F8E8B40E06BE973E086E090E00E9440
:103A40007B0E37CF803138F741E062E274E086E0E8
:103A500090E00E947B0EE881F9810280F381E02DE5
:103A6000CE01099540E0BC0185E090E00E947B0E0C
:103A700041E065ED79E085E090E00E94B90EE881D3
:103A8000F9810190F081E02DBE016A5F7F4FCE0188
:103A900009956B017C0140E064EB79E085E090E002
:103AA0000E94B90E21E0B701A60185E090E00E94D6
:103AB000780DC114D104E104F10421F440E065E87B
:103AC00079E04EC1E0914C04F0914D0416821582CC
:103AD00060E080810E94F022E0915004F091510456
:103AE00016821582108617821286118645E050E0F4
:103AF00061E070E0CF010E942E1AE7E0F5E08BE173
:103B000095E04191519161917191C416D506E606F7
:103B1000F70609F41AC18E179F0799F7CFCFCF8800
:103B2000D88CE98CFA8C8B8C9C8CAD8CBE8C26014D
:103B30003701481859086A087B082BA13CA14DA100
:103B40005EA1211531054105510541F420915B0528
:103B500030915C0540915D0550915E05A8EEB3E0A3
:103B60000E94B433641575058605970528F08928E9
:103B70008A288B2809F098C08FA598A9A9A9BAA965
:103B8000C816D906EA06FB0648F48F8D98A1A9A1AC
:103B9000BAA1892B8A2B8B2B09F0BEC040E062E4CE
:103BA00079E085E090E00E94B90E0B8D1C8D2D8D83
:103BB0003E8D011511052105310509F4A5C08F8938
:103BC000988DA98DBA8DBC01CD01601B710B820B44
:103BD000930B28EE33E040E050E00E949233BA01AC
:103BE000A90120E085E090E00E94780D40E06CE3C0
:103BF00079E085E090E00E94B90E40E06CE279E067
:103C000085E090E00E94B90E0F8D18A129A13AA17C
:103C1000011511052105310509F47AC08F89988DA8
:103C2000A98DBA8DBC01CD01601B710B820B930B6A
:103C300028EE33E040E050E00E949233BA01A9013F
:103C400020E085E090E00E94780D40E066E279E0B7
:103C500085E090E00E94B90E40E066E179E085E001
:103C600090E00E94B90E0E9428088C0141E0BC013E
:103C700085E090E00E947B0EC8010E94A63141E0E1
:103C800061EF78E086E090E00E94B90E6D8181E0FE
:103C9000682785E00E94F0228F89988DA98DBA8DC2
:103CA0008F8F98A3A9A3BAA340E06DE973E086E0E3
:103CB00090E00E947B0E4BA95CA96DA97EA921E032
:103CC00086E090E00E94780D40E06BE17AE086E0CB
:103CD00090E00E94B90E0E940E29AB01BC0121E0C8
:103CE00086E090E0DF91CF911F910F91FF90EF90D0
:103CF000DF90CF90BF90AF909F908F907F906F900C
:103D00005F904F900C94780D40E066E379E071CFBE
:103D100040E060E279E09CCF8BA59CA5ADA5BEA557
:103D2000C816D906EA06FB0608F4BECF41E06FE5E7
:103D300079E086E090E00E94B90E6D8185E00E94F6
:103D4000F022B2CF911174CE60CE8F89988DA98D5B
:103D5000BA8D8B8F9C8FAD8FBE8F40E063EA79E088
:103D600084E090E00E94B90E21E0B701A60184E052
:103D700090E00E94780DCBAADCAAEDAAFEAACE01A3
:103D80000E94851691CFCF92DF92EF92FF920F9310
:103D90001F93CF93DF93EC0100910001109101017B
:103DA00001301105A9F44BA15CA16DA17EA1809108
:103DB0005F0590916005A0916105B091620548177B
:103DC00059076A077B0721F460E08DE00E94F0222A
:103DD00080914A0490914B04009721F0C817D907AD
:103DE00009F063C00E940E29CF8CD8A0E9A0FAA0E8
:103DF0006C197D098E099F0928EE33E040E050E000
:103E00000E9492338BA19CA1ADA1BEA18217930702
:103E1000A407B50718F0012B09F047C0CE010E9496
:103E20008F06E881F9810084F185E02D40E050E0C3
:103E3000BA01CE0109958091000190910101892B71
:103E4000A1F140E0BE01645E7F4F85E090E00E94FA
:103E50007B0E41E06BED78E085E090E00E94B90ECA
:103E600041E069EC78E084E090E00E94B90E41E026
:103E700062E274E084E090E00E947B0E8BE00E949E
:103E8000222221E0892B09F020E02093490410929E
:103E90000101109200018BE195E00E94DF28882348
:103EA00021F080EB93E00E943309E881F9810680DC
:103EB000F781E02D40E060E070E0CE01DF91CF912E
:103EC0001F910F91FF90EF90DF90CF900994409158
:103ED000F5045091F6041092F6041092F504E3EF05
:103EE000F4E06BE175E080E090E0208130E0322F7B
:103EF0002227A1812A2B8227932732966E177F07CC
:103F0000A1F75093F6044093F5040895833081F0AF
:103F100028F4813099F08230A1F008958730A9F01B
:103F20008830B9F08430D1F4809180008F7D03C057
:103F3000809180008F7780938000089584B58F777B
:103F400002C084B58F7D84BD08958091B0008F77C5
:103F500003C08091B0008F7D8093B00008952FEF53
:103F60003FEF80E090E0FC01EE0FFF1FEE0FFF1F20
:103F7000E95FFA4F4081518162817381411551059A
:103F80006105710531F42F3F4FEF3407D9F49C01DF
:103F900019C00097B9F02F3FAFEF3A0799F0D90158
:103FA000AA0FBB1FAA0FBB1FA95FBA4F4D935D930A
:103FB0006D937C9313971082118212821382C90130
:103FC0002FEF3FEF0196853091056CF208950E9426
:103FD000671F2091F5043091F6048217930739F496
:103FE0009C012150310981E02E3F3F4F08F080E0D5
:103FF0000895CF93DF93EC019A01AB011B8E1A8ECB
:10400000198E188E1F8A1E8A60E079E08DE390E099
:104010000E941934F9012430310518F0C9010397C1
:1040200002C081E090E09D8F8C8F6C85663108F036
:104030006AC0C901969587958431910510F0439720
:1040400002C081E090E09F8B8E8B369718F0C901FB
:10405000059702C081E090E0998F888FC901880F91
:10406000991F280F391F36952795369527952D309E
:10407000310518F02C50310902C021E030E03B8FAF
:104080002A8F30916800683058F021E06E3008F4D3
:1040900020E091E0892F01C0880F2A95EAF701C03E
:1040A00084E0832B809368009C85983038F09E30A4
:1040B00040F0963148F020E030E008C02DE630E0D6
:1040C00005C02BE630E002C02CE630E03C8B2B8BA9
:1040D000983030F481E001C0880F9A95EAF70EC05D
:1040E000292F30E09E3018F42850310902C02E509C
:1040F000310981E001C0880F2A95EAF78D8B8C8DFC
:104100009D8D0197F1F7CE01DF91CF910C941F287F
:10411000CF92DF92EF92FF920F93CF93DF93EC0158
:1041200069017A01FB018081882321F0888D998DB6
:104130000E941527202FB701A601CE010E94F11A77
:1041400064E87BE0888D998DDF91CF910F91FF908E
:10415000EF90DF90CF900C9417270F93CF93DF93BE
:10416000EC01E881F9810084F185E02D40E050E028
:10417000BA0109952BE639E040E050E000E06CEB35
:1041800073E0CE010E948820DF91CF910F910895B6
:10419000CF93DF93EC016FE77BE0888D998D0E94D0
:1041A0003B2767E77BE0888D998D0E943B276AE675
:1041B0007BE0888D998D0E943B276FE57BE0888DA1
:1041C000998D0E943B2761E57BE0888D998D0E9447
:1041D0003B276EE37BE0888D998D0E943B2762E34D
:1041E0007BE0888D998D0E943B276EE17BE0888D76
:1041F000998D0E943B276EE07BE0888D998D0E940F
:104200003B2763E07BE0888D998D0E943B2765EF1B
:104210007AE0888D998D0E943B2762E274E0888D58
:10422000998D0E94E926CE01DF91CF910C94AD20AB
:104230000F93CF93DF93EC01888D998D0E94CC165C
:1042400062E274E0888D998D0E94E9262DE133E1C8
:1042500040E050E000E06FEC73E0CE010E94882067
:10426000DF91CF910F9108950F93CF93DF93EC01DE
:10427000FC01EF5BFF4F8FEF9FEF91838083688D91
:10428000798D8BE195E00E94EE1462E274E0888DF6
:10429000998D0E94E92625E236E040E050E000E0FA
:1042A0006FED73E0CE010E948820DF91CF910F91D6
:1042B00008958F929F92AF92BF92CF92DF92EF922A
:1042C000FF920F931F93CF93DF93EC016B01490192
:1042D0005A0162EE7AE0888D998D0E9417276091CD
:1042E000F5047091F60440E150E0888D998D0E94AC
:1042F00008276AED7AE0888D998D0E941727088D2E
:10430000198D4AE050E068E270E0C8010E94082779
:10431000C8010E94E52683EFE82E84E0F82E01E034
:1043200010E0F70184899589A689B789892B8A2BA2
:104330008B2BE1F0B801888D998D0E94281A67EDCA
:104340007AE0888D998D0E941727F7014489558955
:10435000668977892AE030E0888D998D0E94FB2656
:1043600062E274E0888D998D0E94E9260F5F1F4FED
:10437000F4E0EF0EF11C0630110599F662E274E0EC
:10438000888D998D0E94E92681149104A1F000E0A6
:10439000A5019401B601CE010E948820DF91CF9142
:1043A0001F910F91FF90EF90DF90CF90BF90AF9053
:1043B0009F908F900895CE01DF91CF911F910F9123
:1043C000FF90EF90DF90CF90BF90AF909F908F9035
:1043D0000C94AD20EF92FF920F931F93CF93DF9336
:1043E00000D0CDB7DEB70E94AF1F0E94E71F81113A
:1043F00020C00E94671F9093F6048093F50480917B
:10440000F3049091F40403EF14E09C01235F344023
:104410007901C701800F911FF80161918F019A8383
:104420008983CE0101960E94C30DF5E00B311F0771
:1044300081F70F900F90DF91CF911F910F91FF9017
:10444000EF900895CF93DF93282F30E0F901ED53DB
:10445000F54F8491F901E155F44FD491F901E556F6
:10446000F44FC491CC2391F081110E94861FEC2F50
:10447000F0E0EE0FFF1FE957F44FA591B491EC91D6
:10448000ED2381E090E021F480E002C080E090E044
:10449000DF91CF9108950F931F93CF93DF93EC019A
:1044A0008091760590917705092E000CAA0BBB0B25
:1044B0008BA39CA3ADA3BEA381E090E090930101E8
:1044C000809300010E940E296F8F78A389A39AA37D
:1044D000CE010E948F068E01045E1F4F6FEF72E0C7
:1044E000C8010E946034892B41F163ED71E0C8017D
:1044F0000E946034892B49F58AE00E942222892B90
:10450000E1F463EC7BE0888D998D0E9417276EEAB9
:1045100072E0888D998D0E94152764E872E0888D7D
:10452000998D0E94152768EF73E0888D998D0E9400
:10453000E926888D998D0E94E5264BE659E060E0DA
:1045400070E020E0CE010E94F11ADF91CF911F911F
:104550000F9108950F93CF93DF93EC018AE00E94AF
:104560002222019759F580917C0590917D05DC010F
:10457000ED91FC910084F185E02D40E050E0BA011E
:10458000099580917C0590917D050E940D08809190
:104590007C0590917D050E948F062DEB32E140E075
:1045A00050E000E06EE074E080917A0590917B0528
:1045B0000E948820DF91CF910F91089561EF7AE0FA
:1045C000888D998D0E943B2762E274E0888D998DD9
:1045D0000E94E926CE01DF91CF910F910C94C82063
:1045E0001F93CF93DF93282F30E0F901ED53F54F60
:1045F0008491F901E155F44FD491F901E556F44F56
:10460000C491CC23C1F0162F81110E94861FEC2F7C
:10461000F0E0EE0FFF1FEF56F44FA591B4919FB756
:10462000F894111104C08C91D095D82302C0EC915C
:10463000DE2BDC939FBFDF91CF911F910895CF9325
:10464000DF9390E0FC01E155F44F2491FC01E55625
:10465000F44F8491882361F190E0880F991FFC0149
:10466000E754F54FC591D491FC01EF56F44FA59155
:10467000B491611109C09FB7F89488812095822375
:104680008883EC912E230BC0623061F49FB7F894BD
:104690008881322F309583238883EC912E2B2C93A5
:1046A0009FBF06C08FB7F894E8812E2B28838FBF59
:1046B000DF91CF9108950F931F93CF93DF93EC0178
:1046C000162F042F1B821A8288EE93E0A0E0B0E040
:1046D0008C839D83AE83BF8384EA91E09983888332
:1046E0001F8A1E8A198E188E1B8E1A8E1D8E1C8E86
:1046F0006E8D6E7F6D7F6E8F6695617081E068272D
:10470000842F0E94F02261E0802F0E941F23802FBF
:1047100090E0FC01E155F44FE491E88BFC01E55693
:10472000F44FE491F0E0EE0FFF1FEF56F44F859148
:1047300094919A8B898B60E0812F0E941F238E8D2C
:1047400081FD04C061E0812F0E94F0221C87812F2F
:1047500090E0FC01E155F44FE491ED87FC01E55652
:10476000F44FE491F0E0EE0FFF1FE957F44F85910D
:1047700094919F878E87DF91CF911F910F9108951C
:10478000EF92FF920F931F93CF93DF93EC01142FBF
:10479000052F7901798368831E821D8218861F8206
:1047A0001A8619861C861B860E940E296D877E87B5
:1047B0008F87988B198A1A8A1B8A1C8AFE8AED8A2F
:1047C000188E1F8A84E591E09A8F898FFE017B966F
:1047D00088E0DF011D928A95E9F70F931F9381E628
:1047E00093E09F938F931F9283E08F93CE01029665
:1047F0009F938F930E94783461E088810E941F23E9
:104800008DB79EB708960FB6F8949EBF0FBE8DBFAA
:1048100060E08881DF91CF911F910F91FF90EF9021
:104820000C94F0228F929F92AF92BF92CF92DF9220
:10483000EF92FF926B017C010E94E9284B015C0121
:10484000C114D104E104F104F1F00E94E928DC0173
:10485000CB0188199909AA09BB09883E9340A10593
:10486000B10570F321E0C21AD108E108F10888EE21
:10487000880E83E0981EA11CB11CC114D104E10470
:10488000F10419F7DDCFFF90EF90DF90CF90BF904C
:10489000AF909F908F900895CF92DF92EF92FF920A
:1048A0000F931F93CF93DF936C017A018B01C0E0CC
:1048B000D0E0CE15DF0581F0D8016D918D01D601D4
:1048C000ED91FC910190F081E02DC6010995892BB5
:1048D00011F02196EECF7E01C701DF91CF911F919C
:1048E0000F91FF90EF90DF90CF900895FC01538DD2
:1048F000448D252F30E0842F90E0821B930B5417BA
:1049000010F0CF96089501970895FC01918D828D46
:10491000981761F0828DDF01A80FB11D5D968C9113
:10492000928D9F5F9F73928F90E008958FEF9FEF1E
:104930000895FC01918D828D981731F0828DE80FDA
:10494000F11D858D90E008958FEF9FEF0895FC0194
:10495000918D228D892F90E0805C9F4F821B910961
:104960008F739927089586E594E00E94A72421E09B
:10497000892B09F420E0822F0895FC01848DDF014A
:10498000A80FB11DA35ABF4F2C91848D90E00196C2
:104990008F739927848FA689B7892C93A089B189B1
:1049A0008C91837080648C93938D848D981306C052
:1049B0000288F389E02D80818F7D80830895EF92B6
:1049C000FF920F931F93CF93DF93EC0181E0888FC9
:1049D0009B8D8C8D981305C0E889F989808185FDB0
:1049E00026C0F62E0B8D10E00F5F1F4F0F7311279F
:1049F000E02E8C8DE8120CC00FB607FCFACFE889C8
:104A0000F989808185FFF5CFCE010E94BD24F1CFC9
:104A10008B8DFE01E80FF11DE35AFF4FF0829FB727
:104A2000F8940B8FEA89FB89808180620AC09FB766
:104A3000F894EE89FF896083E889F9898081837021
:104A4000806480839FBF81E090E0DF91CF911F91D0
:104A50000F91FF90EF900895CF93DF93EC01888D35
:104A60008823C9F0EA89FB89808185FD05C0A88972
:104A7000B9898C9186FD0FC00FB607FCF5CF8081F8
:104A800085FFF2CFA889B9898C9185FFEDCFCE0142
:104A90000E94BD24E7CFDF91CF91089580E090E0A0
:104AA000892B29F00E94B32481110C9400000895F1
:104AB00020915404309155042817390771F49091CE
:104AC000C6058091C505981741F0E091C605F0E054
:104AD000EB57FA4F808190E008958FEF9FEF089594
:104AE00008951F93CF93DF93DC015C968D919C9189
:104AF0005D97009739F421E030E013963C932E93B4
:104B000012973BC05196ED91FC91529750962C9183
:104B10005097322F30951FB75E964C915E97742F49
:104B2000727041FD6095F8944081772311F0422B1B
:104B300001C043234083EC012197F1F748E0508105
:104B400060FF02C0522B01C053235083EC01219718
:104B5000F1F76695415099F78081772319F0832307
:104B6000808302C0282B20831FBF5C968D919C916F
:104B70005D970197F1F781E090E0DF91CF911F9170
:104B8000089520915404309155042817390771F481
:104B90008091C5052091C60590E0805C9F4F821BE7
:104BA000910960E470E00E940534089580E090E08F
:104BB0000895209154043091550428173907B9F409
:104BC0009091C6058091C505981789F0E091C605BA
:104BD000F0E0EB57FA4F80812091C60530E02F5F5F
:104BE0003F4F2F7333272093C60590E008958FEF32
:104BF0009FEF0895089580E090E008950E94523458
:104C00006115710579F0FB0101900020E9F73197FA
:104C1000AF01461B570BDC01ED91FC910280F38143
:104C2000E02D099480E090E00895909102018913AD
:104C300024C0E2EFFBE0E4919FEF90930201E130AA
:104C4000B9F098F0E230C9F4909170009D7F909394
:104C5000700091E09093B0009091B100987F9460C3
:104C60009093B1001092B30008C010926E0005C07E
:104C700090916F009D7F90936F0060E00C94F02204
:104C80001F920F920FB60F9211242F933F934F93C1
:104C90005F936F937F938F939F93AF93BF93EF93A4
:104CA000FF938091810590918205A0918305B09139
:104CB0008405892B8A2B8B2B51F190918005E091F3
:104CC0007E05F0917F058081892780838091810511
:104CD00090918205A0918305B0918405181619065C
:104CE0001A061B06C4F48091810590918205A0915B
:104CF0008305B09184050197A109B10980938105CD
:104D000090938205A0938305B093840504C080919D
:104D100002010E941526FF91EF91BF91AF919F91E3
:104D20008F917F916F915F914F913F912F910F9054
:104D30000FBE0F901F9018958F929F92AF92BF92C7
:104D4000EF92FF920F931F93CF93DF93CDB7DEB710
:104D5000A1970FB6F894DEBF0FBECDBF7C01FA015C
:104D6000CB0119A2223008F42AE08E010F5D1F4FFB
:104D7000822E912CA12CB12CBF01A50194010E947F
:104D80009233F901CA01015011096A3014F4605DCF
:104D900001C0695CD8016C93232B242B252B61F770
:104DA000B801C7010E940026A1960FB6F894DEBF95
:104DB0000FBECDBFDF91CF911F910F91FF90EF906C
:104DC000BF90AF909F908F90089560E274E00C9434
:104DD00000260F931F93CF93DF93EC010E940026D0
:104DE0008C01CE010E94E526800F911FDF91CF91AB
:104DF0001F910F9108952115310541F4DC01ED91CA
:104E0000FC910190F081E02D642F09940C949C2674
:104E10009A01AB0160E070E00C94FB26DC01ED919F
:104E2000FC910190F081E02D09940C940026EF9202
:104E3000FF920F931F93CF93DF938C017B01C0E010
:104E4000D0E0F701EC0FFD1F6491662361F0D801FB
:104E5000ED91FC910190F081E02DC8010995892B1D
:104E600011F02196EECFCE01DF91CF911F910F91DE
:104E7000FF90EF9008950F931F93CF93DF93EC0172
:104E80000E9417278C01CE010E94E526800F911FFA
:104E9000DF91CF911F910F9108951F920F920FB63E
:104EA0000F9211242F933F934F935F936F937F93B0
:104EB0008F939F93AF93BF93EF93FF9386E594E017
:104EC0000E94BD24FF91EF91BF91AF919F918F916F
:104ED0007F916F915F914F913F912F910F900FBEF6
:104EE0000F901F9018951F920F920FB60F921124DA
:104EF0002F938F939F93EF93FF93E0916604F0912C
:104F000067048081E0916C04F0916D0482FD12C011
:104F1000908180916F048F5F8F732091700482174E
:104F200051F0E0916F04F0E0EA5AFB4F958F8093C7
:104F30006F0401C08081FF91EF919F918F912F911C
:104F40000F900FBE0F901F9018951F920F920FB6E3
:104F50000F9211242F933F934F935F936F937F93FF
:104F60008F939F93AF93BF93EF93FF93E09154047C
:104F7000F0915504309709F451C0968DA685B785F8
:104F8000858591FF04C09C91892329F447C09C9199
:104F9000892309F043C0A389B4899C9185898095B0
:104FA00089238C93868997890197F1F7608D718D9C
:104FB000A685B785558538E020E0CB010197F1F74C
:104FC000822F90E095958795282F4C91452309F0E5
:104FD0002068315091F7868D81FD20958091C5051F
:104FE00090E001968F7399273091C605381749F0E4
:104FF000A091C505B0E0AB57BA4F2C938093C5057F
:1050000003C0868D8160868F828D938D0197F1F725
:10501000A389B4899C918589892B8C93FF91EF9109
:10502000BF91AF919F918F917F916F915F914F91C0
:105030003F912F910F900FBE0F901F901895CF9317
:10504000DF93FC01828D938D892B31F1A091540463
:10505000B0915504EA17FB07F9F0109751F05396F9
:10506000CD91DC915497988155968C9180958923A8
:105070008883868D8E7F868F1092C5051092C60517
:10508000F0935504E0935404A389B4899C918589D5
:10509000892B8C9381E001C080E0DF91CF9108954E
:1050A0000F931F93CF93DF93EC018CEB92E09983E6
:1050B00088831B821A828E010C5F1F4F40E150E0F3
:1050C00063E274E0C8010E945533FE01749684E1E6
:1050D000DF011D928A95E9F78C8181110BC040E1B7
:1050E00050E068E274E0C801DF91CF911F910F9109
:1050F0000C945533DF91CF911F910F910895CF9369
:10510000DF93EC010E94520E2A813B8182179307A4
:1051100039F49C012150310981E02E3F3F4F08F0C6
:1051200080E0DF91CF910895CF92DF92EF92FF92CE
:105130000F931F93CF93DF9300D0CDB7DEB78C01D1
:105140000E947F28811120C0C8010E94520EF801E0
:1051500093838283E080F1806801FFE5CF0ED11C4C
:10516000E01AF10AC701800F911FF80161918F01C8
:105170009A838983CE0101960E94C30D0C151D05EB
:1051800089F701E010E002C000E010E040E068EDC7
:105190007BE084E090E00E94B90E41E0B80184E039
:1051A00090E00E94140EC8010F900F90DF91CF91F4
:1051B0001F910F91FF90EF90DF90CF9008958BE0BB
:1051C0000E942222892B19F080914904089581E0E0
:1051D00008953FB7F8948091CC059091CD05A091AA
:1051E000CE05B091CF0526B5A89B05C02F3F19F07D
:1051F0000196A11DB11D3FBFBA2FA92F982F882757
:10520000820F911DA11DB11DBC01CD0142E0660FB1
:10521000771F881F991F4A95D1F708952FB7F894E3
:105220006091C8057091C9058091CA059091CB0520
:105230002FBF08951F920F920FB60F9211242F9334
:105240003F938F939F93AF93BF938091C8059091A5
:10525000C905A091CA05B091CB053091C70523E0DF
:10526000230F2D3720F40196A11DB11D05C026E89E
:10527000230F0296A11DB11D2093C7058093C80579
:105280009093C905A093CA05B093CB058091CC0536
:105290009091CD05A091CE05B091CF050196A11DAD
:1052A000B11D8093CC059093CD05A093CE05B0930E
:1052B000CF05BF91AF919F918F913F912F910F900B
:1052C0000FBE0F901F901895789484B5826084BDAE
:1052D00084B5816084BD85B5826085BD85B58160FA
:1052E00085BD80916E00816080936E001092810078
:1052F0008091810082608093810080918100816033
:1053000080938100809180008160809380008091F3
:10531000B10084608093B1008091B000816080937F
:10532000B00080917A00846080937A0080917A0046
:10533000826080937A0080917A00816080937A0005
:1053400080917A00806880937A001092C10062E0B8
:105350008AE00E941F2362E08BE00E941F2361E02D
:1053600085E00E941F2361E08DE00E941F238BE0F7
:105370000E94222221E0892B09F020E02093490499
:105380008FE190E00E940E31EC0143E062E00E9468
:105390005B23D0935304C0935204609168057091CD
:1053A000690580916A0590916B050E947F1A409172
:1053B0006C0550916D0560916E0570916F0580913F
:1053C0005204909153040E94F91F69E170E080E05B
:1053D00090E00E94122441E068E375E084E090E0F0
:1053E0000E94B90E41E065E175E084E090E00E9422
:1053F000B90E8BE195E00E94DF28882321F087E831
:1054000092E00E94330941E067E773E085E090E0B5
:105410000E94B90E8BE00E942222892B31F441E0D8
:105420006CE473E084E090E02DC00BE115E0C0E295
:10543000D3E0CE010E946C33D8018D938D0121966B
:10544000CF37B3E0DB07A9F780E293E090931C0528
:1054500080931B058BE195E00E947F28811107C096
:1054600041E06BE872E083E090E00E94B90E8BE1CE
:1054700095E00E947F28811107C041E06CE273E053
:1054800083E090E00E94B90E8BE195E00E947F28B6
:10549000882329F08BE00E942222892B59F541E0D4
:1054A00060E073E083E090E00E94B90E8FE590E049
:1054B0000E940E31EC010E947F158FE5FE01ABE1E9
:1054C000B5E001900D928A95E1F7CE010E94A631D8
:1054D00040E250E062E273E08FE295E00E945533D3
:1054E00080E293E090931C0580931B0540E066EDFD
:1054F00072E003C040E06DEA72E084E090E00E9458
:10550000B90E40E06FE275E084E090E00E947B0E0F
:1055100041E06CEA72E084E090E00E947B0E4091F2
:105520006C0550916D0560916E0570916F058091CD
:105530005204909153040E94F91F86E594E00E9462
:105540002C25609168057091690580916A0590919C
:105550006B050E947F1A69E170E080E090E00E9494
:10556000122440E065EF74E084E090E00E94B90E00
:1055700040E06EEA72E084E090E00E947B0E40E042
:105580006EEE74E084E090E00E94B90E0E941C0A66
:1055900004974CF020E04FE851E163E070E084E0D4
:1055A00090E00E94DC0D40E06BEE74E084E090E05F
:1055B0000E94B90E41E06CEB72E084E090E00E9442
:1055C0007B0E40E069ED74E085E090E00E94B90E4A
:1055D00040E06FE275E085E090E00E947B0E40E0E5
:1055E00065EC74E085E090E00E94B90E8BE195E0F7
:1055F0000E94520E8C010E941C0A05975CF185E006
:1056000090E00E949508EC010E94F108882381F047
:10561000BE0180915204909153040E94152740E1ED
:1056200050E0B80180915204909153040E940827E1
:10563000BE0186E594E00E94152740E150E0B801E4
:1056400086E594E00E94082780E00E941609CE01BA
:105650000E94A63140E06AEB74E085E090E00E9491
:10566000B90E0E941C0A05976CF185E090E00E943B
:105670009508EC010E94F108882389F0BE01809111
:105680005204909153040E9415274AE050E06FE5C0
:1056900070E080915204909153040E940827BE014B
:1056A00086E594E00E9415274AE050E06FE570E03F
:1056B00086E594E00E94082781E00E941609CE0149
:1056C0000E94A63140E06CE974E084E090E00E9422
:1056D000B90EC0906805D0906905E0906A05F09019
:1056E0006B050E941C0A04973CF021E0B701A6015B
:1056F00084E090E00E94DC0D40E069E874E084E022
:1057000090E00E94B90EC09149040E941C0A0497BF
:1057100044F184E090E00E9495088C010E94F10819
:10572000D0E0882371F0B801809152049091530425
:105730000E941527BE0180915204909153040E944B
:10574000281AB80186E594E00E941527BE0186E577
:1057500094E00E94281A81E00E941609C8010E9464
:10576000A63140E06CE774E084E090E00E94B90E5E
:105770000E941C0A41E0BC0184E090E00E94140EEB
:105780000E941C0A04970CF43FC041E062E274E0FE
:1057900084E090E00E947B0E66E574E08BE195E08A
:1057A0000E94EE1462E274E086E594E00E94E9262D
:1057B00086E594E00E94CC1662E274E086E594E00F
:1057C0000E94E9260E94F1088823F1F060915204BA
:1057D000709153048BE195E00E94EE1462E274E054
:1057E00080915204909153040E94E92680915204C2
:1057F000909153040E94CC1662E274E080915204AE
:10580000909153040E94E9268BE195E00E94DF28E5
:10581000882321F082ED92E00E94330983E290E038
:105820000E940E31EC0120E030E046EE52E068E0EC
:1058300070E00E94C023D0934D04C0934C0483E2D7
:1058400090E00E940E31EC0120E030E049EE52E0A1
:1058500067E070E00E94C023D0934F04C0934E04D1
:1058600083E290E00E940E31EC0120E030E04CEE4B
:1058700052E066E070E00E94C023D0935104C093D0
:10588000500483E290E00E940E31EC0120917405F7
:10589000309175054FEE52E069E070E00E94C02340
:1058A000D0934804C09347048FE190E00E940E31EA
:1058B000EC0144E164E00E945B23D0934404C09374
:1058C0004304809167058230E1F08330C1F589E3BC
:1058D00090E00E940E31EC0100E02AE043E06DE030
:1058E0000E94901685E191E09983888340E06FE9FA
:1058F00073E084E090E00E94B90E41E068EF72E04E
:1059000019C089E390E00E940E31EC0101E027E02C
:1059100044E06AE00E9490168DE091E099838883CC
:1059200040E06EE873E084E090E00E94B90E41E050
:1059300062EF72E084E090E00E947B0E08C089E391
:1059400090E00E940E318C010E945717E801D0931D
:105950004204C0934104809143049091440498AF61
:105960008FAB86E090E00E940E318C018091630540
:10597000909164058230910529F480E090E00E94C6
:105980006C3390E0F80191838083D383C2831582C6
:105990001482109346040093450485E490E00E942D
:1059A0000E318C0184E1C82EF8013296DF012C2DD6
:1059B0001D922A95E9F7EE24EA94FE2CD801579619
:1059C000FC92EE9256972DE1A22E21E0B22E119676
:1059D000BC92AE9286E594E059969C938E9358972C
:1059E0005B96DC93CE935A97F801178E10A211A202
:1059F00012A293961D921D921D921C92969738E1C9
:105A0000D32EB796DF012D2D1D922A95E9F77896B2
:105A1000118210823296F182E082329611821082D7
:105A200043E050E06FEF72E0C8014C960E9455339E
:105A300010937B0500937A0585E490E00E940E3177
:105A4000EC018091410490914204209152043091E4
:105A50005304FE013296DF011D92CA94E9F7FF8AD2
:105A6000EE8AB982A882398F288F9B8F8A8F1F8EEA
:105A700018A219A21AA21BA21CA21DA21EA2B596B0
:105A8000DF011D92DA94E9F778961182108232963E
:105A9000F182E08232961182108243E050E063EDA1
:105AA00071E0CE014C960E945533D0937D05C09392
:105AB0007C058BE195E00E94DF28882321F082E0BD
:105AC00093E00E943309C0914504D091460440E020
:105AD00060EB73E084E090E00E94B90E6881798108
