:100000000C94FA060C9422070C9422070C94AD145D
:100010000C94AD140C94AD140C9422070C945F1244
:100020000C9422070C9422070C9422070C942207AC
:100030000C9422070C9422070C9422070C9422079C
:100040000C9401290C9422070C947B140C945514E5
:100050000C9422070C9422070C9422070C9422077C
:100060000C9422070C942207180831084A086308E8
:100070007E0899089C089F08AC08C708E208FD089C
:10008000000906090B0C120C180C2F0C450C700CF7
:10009000740C020D120D220D320D420D640D700D07
:1000A0007C0D840D940DA40DB40DC00DCC0D5374B6
:1000B0006F726167653A3A4C6F6164282920454E3A
:1000C000440073697A656F66285429200073697A41
:1000D000656F66282A6F626A6563745F7265662958
:1000E00020006F626A6563745F7265662D3E73748B
:1000F0006F726167655F6E616D6520270065657071
:10010000726F6D5F61646472657373200053746F06
:10011000726167653A3A4C6F6164282920636865AB
:10012000636B73756D206D69736D617463680053E3
:10013000746F726167653A3A4C6F61642829204296
:100140004547494E0053657474696E67733A3A4C7B
:100150006F6164282920454E440053657474696EAC
:1001600067733A3A4C6F61642829207573696E672A
:10017000206C6F616465642073657474696E677365
:1001800020270053657474696E67733A3A4C6F6147
:10019000642829207573696E672064656661756CD3
:1001A000742073657474696E6773202700536574D7
:1001B00074696E67733A3A4C6F61642829206368EA
:1001C0006B736D206D69736D6174636820736F204C
:1001D0006372656174696E672064656661756C74CD
:1001E0002053657474696E6773282900272063683B
:1001F0006B736D20307800272073657474696E67A7
:10020000735F6E616D6520270053657474696E6756
:10021000733A3A4C6F616428292073746F72616776
:10022000655F6E616D652027004661696C7361666C
:1002300065206C6F6164696E672064656661756CCA
:10024000742073657474696E6773005365747469A0
:100250006E67733A3A4C6F616428292042454749DA
:100260004E0053657474696E67206F757470757491
:1002700020737769746368207065722070726F787C
:10028000696D6974795F73746174653A20005374A1
:100290006F726167653A3A4C6F6164282920454E58
:1002A000440073697A656F66285429200073697A5F
:1002B000656F66282A6F626A6563745F7265662976
:1002C00020006F626A6563745F7265662D3E7374A9
:1002D0006F726167655F6E616D652027006565708F
:1002E000726F6D5F61646472657373200053746F25
:1002F000726167653A3A4C6F6164282920636865CA
:10030000636B73756D206D69736D61746368005301
:10031000746F726167653A3A4C6F616428292042B4
:100320004547494E00546167733A3A4C6F616428FF
:100330002920454E4400546167733A3A4C6F61641A
:10034000282920636865636B73756D206D69736D13
:10035000617463682C206372656174696E67206ED6
:100360006577207461672D73657400546167733A13
:100370003A4C6F6164282920424547494E004D653B
:100380006E753A3A426567696E2829002C207769B4
:10039000746820454550524F4D2070726F78696DDA
:1003A0006974792073746174652000537461727488
:1003B000696E6720436F6E74726F6C6C6572207724
:1003C00069746820726561646572200044656275B5
:1003D000672070696E204C4F57202E2E2E20656EA0
:1003E00061626C696E67206465627567004465626E
:1003F00075672070696E207374617475733A20009C
:100400002C2000426F6F74696E6720524649442069
:10041000496D6D6F62696C697A65722C20002720C6
:100420006F662073697A6520004C6F616465642093
:1004300053657474696E677320270052652D696E69
:10044000697469616C697A65642073657269616C4D
:1004500020706F72742077697468206C6F616465B6
:10046000642073657474696E67733A2000496E691D
:100470007469616C697A65642064656661756C7421
:100480002073657269616C20706F72742040203532
:10049000373630302062617564006C6F675F746F4F
:1004A0005F62740061646D696E5F7374617274750C
:1004B000705F74696D656F757400746F6E655F66EB
:1004C00072657175656E637900524649445F4241B9
:1004D00055440042545F424155440048575F5345DC
:1004E0005249414C5F424155440044454641554CB8
:1004F000545F52454144455200656E61626C655FD0
:1005000064656275670070726F78696D6974795F90
:1005100073746174655F7374617274757000616483
:100520006D696E5F74696D656F7574005245414405
:1005300045525F4359434C455F484947485F4455DE
:10054000524154494F4E005245414445525F435930
:10055000434C455F4C4F575F4455524154494F4EB1
:10056000005441475F524541445F534C4545505FFD
:10057000494E54455256414C005441475F4C4153FB
:10058000545F524541445F54494D454F55540064B2
:10059000656C657465546167496E64657828293AAD
:1005A000200044656C657465546167282920726574
:1005B00073756C743A200064656C6574655461678A
:1005C00028292061626F72746564004D656E753A0A
:1005D0003A64656C65746554616728290064656CCC
:1005E000657465416C6C5461677328290064656C9F
:1005F000657465416C6C5461677328292061626F72
:1006000072746564007570646174655365747469AF
:100610006E6728292063616C6C20746F20532E75DF
:10062000706461746553657474696E672829206607
:1006300061696C6564007570646174655365747498
:10064000696E6728292061626F72746564004D6568
:100650006E753A3A75706461746553657474696E49
:100660006728293A20004D656E753A3A62797465BB
:10067000546F41736369694368724E756D2072638C
:10068000766420627974653A20004D656E753A3A59
:100690006D656E754164645461672829004D656E0F
:1006A000753A3A6D656E7544656C6574655461673D
:1006B00028290046726565204D656D6F72793A2074
:1006C000004D656E753A3A6D656E7553686F774685
:1006D0007265654D656D6F72792829004D656E757F
:1006E0003A3A6D656E7544656C657465416C6C5421
:1006F0006167732829006D656E7553656C65637459
:1007000065644D61696E4974656D206279746573C5
:1007100020746F206E756D3A20006D656E7553659F
:100720006C65637465644D61696E4974656D2072B2
:1007300063766420646174613A20003A20006D653C
:100740006E7553656C656374656453657474696E26
:1007500067207365742073656C65637465645F6D91
:10076000656E755F6974656D20746F3A20004D6524
:100770006E753A3A6D656E7553656C656374656444
:1007800053657474696E67282900436F6E737472C1
:10079000756374696E67205265616465723A200002
:1007A0007905610547052C051E050605F904EA04CF
:1007B000DB04D304C904BA04A4049A0453746F720A
:1007C0006167653A3A73617665282920454E440091
:1007D00053746F726167653A3A73617665282920B0
:1007E00063686B736D206D69736D617463682C2031
:1007F00063616C6C696E6720454550524F4D2E7099
:10080000757428290053746F726167653A3A736191
:100810007665282920454E440053746F72616765E0
:100820003A3A73617665282920454550524F4D204C
:10083000757064617465206E6F74206E6563657396
:1008400073617279002073697A656F662854292074
:10085000002720746F2061646472657373200053F5
:10086000746F726167653A3A73617665282920274B
:100870000053746F726167653A3A7361766528292F
:1008800020424547494E0053657474696E67733A58
:100890003A73617665282920726573756C743A2005
:1008A0000053746F726167653A3A736176652829FF
:1008B00020454E440053746F726167653A3A736124
:1008C000766528292063686B736D206D69736D618F
:1008D0007463682C2063616C6C696E6720454550B9
:1008E000524F4D2E70757428290053746F726167D2
:1008F000653A3A73617665282920454E4400537461
:100900006F726167653A3A736176652829204545BB
:1009100050524F4D20757064617465206E6F742065
:100920006E6563657373617279002073697A656FB0
:100930006628542920002720746F20616464726542
:100940007373200053746F726167653A3A7361760E
:1009500065282920270053746F726167653A3A73DE
:10096000617665282920424547494E0020746F2052
:10097000616464726573732000536176696E6720E9
:1009800074616773207769746820636865636B734B
:10099000756D203078000243616C6C696E6720458C
:1009A0004550524F4D2E757064617465207769749F
:1009B000682070726F78696D6974795F737461749F
:1009C000653A2000292000465245452052414D20DD
:1009D00028004D656E753A3A6765745461674672D2
:1009E0006F6D5363616E6E6572282920666F756E38
:1009F00064207461672000636865636B5365726986
:100A0000616C506F727420454F4C20696E64783A67
:100A10002000636865636B53657269616C506F7227
:100A2000742829207263766420627974653A200004
:100A30006164645461672829207375636365737307
:100A4000006164645461672829206661696C65648B
:100A50003A204475706500616464546167282920F8
:100A60006661696C65643A2046756C6C006164640B
:100A700054616728292061626F727465643A204965
:100A80006E76616C696420636F64650061646454B0
:100A90006167282920006661696C65642C20746197
:100AA00067206973206475706C69636174650066A2
:100AB00061696C65642C20746167206C69737420B3
:100AC00069732066756C6C0061626F727465642C6A
:100AD00020696E76616C6964207461672D69642099
:100AE000737472696E670073756363657373004135
:100AF0006464546167282920726573756C743A20A8
:100B00000054616720656E74657265643A20000068
:100B1000000000240027002A000000000800020155
:100B2000000003040700000000000000002C2073F8
:100B3000697A65200053657474696E67732C20634D
:100B4000686B736D203078004D656E753A3A6D654F
:100B50006E7553657474696E67732829002E2000C2
:100B60002C2073697A652000546167732C206368B8
:100B70006B736D203078004D656E753A3A6D656E19
:100B8000754C69737454616773282900362E2044AC
:100B9000656C65746520616C6C20746167730035E9
:100BA0002E2053657474696E677300342E20536869
:100BB0006F772066726565206D656D6F72790033A1
:100BC0002E2044656C6574652074616700322E20A8
:100BD0004164642074616700312E204C6973742075
:100BE0007461677300302E2045786974004D656E1E
:100BF00075004D656E753A3A6D656E754D61696E3D
:100C00002829004D656E753A3A62756666657252BE
:100C10006561647928293A2000000000002300263D
:100C200000290000000000250028002B0004040417
:100C30000404040404020202020202030303030385
:100C40000301020408102040800102040810200162
:100C50000204081020524649442061646D696E20E8
:100C6000636F6E736F6C652C2000757064617465C2
:100C700041646D696E54696D656F757428293A20F9
:100C8000003A20004D656E753A3A636C65617253A7
:100C9000657269616C506F72742829004D656E75BC
:100CA0003A3A726561644C696E655769746843616C
:100CB0006C6C6261636B282900456E746572696EA5
:100CC000672072756E206D6F6465002073657474A3
:100CD000696E672072756E5F6D6F6465203D3E20A2
:100CE00030004D656E753A3A6578697441646D6996
:100CF0006E2829004D454E55204C4F4F5020454EF3
:100D000044004D454E55204C4F4F502042454749D9
:100D10004E3A20004D656E753A3A726573657449B6
:100D20006E7075744275666665722829002C207590
:100D30007074696D653A20006E6576657200207387
:100D400065636F6E64732061676F002C207265614C
:100D5000646572206379636C65643A20006E657621
:100D6000657200207365636F6E64732061676F0046
:100D70006379636C65526561646572506F77657203
:100D800028292074616720726561643A2000556EDD
:100D9000617574686F72697A6564206F7220696E1C
:100DA00076616C6964207461673A200041757468EB
:100DB0006F72697A6564207461673A20004C6564DB
:100DC0003A3A626567696E2063757272656E742C5B
:100DD000206E65773A004C65643A3A7570646174C8
:100DE000652063757272656E742C206E65773A208B
:100DF00000007D2F11241FBECFEFD8E0DEBFCDBF96
:100E000013E0A0E0B1E0E2E2F0E702C005900D924D
:100E1000A83BB107D9F725E0A8EBB3E001C01D92CC
:100E2000A936B207E1F716E0CAEFD6E004C0219771
:100E3000FE010E941735C93FD107C9F70E944B290F
:100E40000C940F380C94000060E070E0CB01089522
:100E5000FC012689378937FF04C060E070E0CB01D0
:100E60000895220F331F220F331FFC01E20FF31FDF
:100E700062817381848195810895CF93DF93FC0112
:100E80002689378937FF05C060E070E080E090E098
:100E90000EC0EC010190F081E02D0480F581E02D81
:100EA00009952E893F89215031093F8B2E8BDF9187
:100EB000CF9108952FEF3FEFDC0157963C932E938F
:100EC0005697FC019C012C5E3F4F138212821582C3
:100ED00014823496E217F307C1F74115510511F456
:100EE00060FF07C0DC01ED91FC910190F081E02DE5
:100EF000099408959F92AF92BF92CF92DF92EF92A2
:100F0000FF920F931F93CF93DF93EC018B01942EED
:100F1000E881F9810480F581E02D09956B017C0160
:100F20008E899F8997FD3AC0570181E0A822BB2492
:100F3000C114D10421F4A114B10469F52FC0992082
:100F400039F0E881F9810280F381E02DCE01099525
:100F5000AB2871F0F701F595E795EC0FFD1F0190B7
:100F6000F081E02DEC0DFD1D0190F081E02D01C020
:100F7000F601C70195958795B8018C0F9D1FDF91EC
:100F8000CF911F910F91FF90EF90DF90CF90BF9086
:100F9000AF909F9009949920E9F2D3CFDF91CF9140
:100FA0001F910F91FF90EF90DF90CF90BF90AF9087
:100FB0009F900895FC014115510511F460FF11C087
:100FC000268937892F5F3F4F378B268B220F331FA0
:100FD000220F331FE20FF31F428353836483758311
:100FE00008956AE172E087E294E00C940813EF92AE
:100FF000FF920F931F93CF93DF93EC01CA01122F3F
:10100000032F7B0121E0E21AF108F701EE0FFF1F29
:10101000E056F84F659174910E94F1318EE0E81628
:10102000F10408F007C1F701EC5CFF4F0C94173591
:101030008FA98F938EA98F938DA98F938CA98F934E
:101040008AE392E09F938F930F931F930E945C35E6
:101050008DB79EB708960FB6F8949EBF0FBE8DBF92
:10106000E9C08BAD8F938AAD8F9389AD8F9388AD97
:101070008F938AE392E09F938F930F931F930E9425
:101080005C358DB79EB708960FB6F8949EBF0FBE1D
:101090008DBFD0C08FAD8F938EAD8F938DAD8F935D
:1010A0008CAD8F938AE392E09F938F930F931F935E
:1010B0000E945C358DB79EB708960FB6F8949EBF18
:1010C0000FBE8DBFB7C0C05CDF4F8B818F938A810D
:1010D0008F9389818F9388818F938AE392E09F9386
:1010E0008F930F931F930E945C358DB79EB7089620
:1010F0000FB6F8949EBF0FBE8DBF9CC0CC5BDF4F78
:101100008B818F938A818F9389818F9388818F932D
:101110008AE392E09F938F930F931F930E945C3515
:101120008DB79EB708960FB6F8949EBF0FBE8DBFC1
:1011300081C0C85BDF4F66C0C65BDF4F63C0BE01C6
:10114000645B7F4F812F902FDF91CF911F910F9183
:10115000FF90EF900C945535C45ADF4F8B818F93DD
:101160008A818F9389818F9388818F9381E492E024
:101170009F938F930F931F930E945C358DB79EB7FB
:1011800008960FB6F8949EBF0FBE8DBF53C0C05ACD
:10119000DF4F8B818F938A818F9389818F93888191
:1011A0008F9381E492E09F938F930F931F930E94FC
:1011B0005C358DB79EB708960FB6F8949EBF0FBEEC
:1011C0008DBF38C0CC59DF4F8B818F938A818F932D
:1011D00089818F9388818F9381E492E09F938F938D
:1011E0000F931F930E945C358DB79EB708960FB67C
:1011F000F8949EBF0FBE8DBF1DC0C859DF4F02C0FF
:10120000C659DF4F89818F93888105C08091C703BC
:101210008F938091C6038F938EE392E09F938F9379
:101220000F931F930E945C350F900F900F900F90BB
:101230000F900F90DF91CF911F910F91FF90EF9042
:1012400008956F927F928F929F92AF92BF92CF92AA
:10125000DF92EF92FF920F931F93CF93DF93CDB75F
:10126000DEB76C014B016DB67EB6FC01F388448994
:101270004F5F4F1950E04F5F5F4F8DB79EB7841B94
:10128000950B0FB6F8949EBF0FBE8DBF0DB71EB75E
:101290000F5F1F4F65E171E0C8010E944335F40103
:1012A000EF0DF11D7F0185E4A82E82E0B82EF60136
:1012B000848990E097012819390982179307C4F0AF
:1012C000F70121917F01F80101900020E9F71F92B9
:1012D0002F93BF92AF92CF0101979F938F930E945C
:1012E0005C350F900F900F900F900F900F90DFCF05
:1012F00040E150E060E070E0C8010E94D2300FB6DB
:10130000F8947EBE0FBE6DBEDF91CF911F910F91FD
:10131000FF90EF90DF90CF90BF90AF909F908F9015
:101320007F906F9008956F927F928F929F92AF926D
:10133000BF92CF92DF92EF92FF920F931F93CF93C2
:10134000DF93CDB7DEB76C014B016DB67EB6FC0105
:101350000389448950E010E0401B510B4F5F5F4F01
:10136000440F50E04F5F5F4F8DB79EB7841B950BC6
:101370000FB6F8949EBF0FBE8DBFEDB7FEB7319686
:101380007F0165E171E0CF010E944335080D191D11
:1013900088E4A82E82E0B82EF601848990E09801B6
:1013A0002819390982179307C4F0F80121918F0198
:1013B000F70101900020E9F71F922F93BF92AF929F
:1013C000CF0101979F938F930E945C350F900F90F0
:1013D0000F900F900F900F90DFCF40E150E060E052
:1013E00070E0C7010E94D2300FB6F8947EBE0FBEE7
:1013F0006DBEDF91CF911F910F91FF90EF90DF9025
:10140000CF90BF90AF909F908F907F906F900895F6
:101410006F927F928F929F92AF92BF92CF92DF9204
:10142000EF92FF920F931F93CF93DF93CDB7DEB769
:101430006C014B016DB67EB6FC01F38844894F19EF
:1014400050E04F5F5F4F8DB79EB7841B950B0FB673
:10145000F8949EBF0FBE8DBF0DB71EB70F5F1F4F15
:1014600065E171E0C8010E944335F401EF0DF11D03
:101470007F0185E4A82E82E0B82EF601848990E0F1
:1014800097012819390982179307C4F0F7012191B0
:101490007F01F80101900020E9F71F922F93BF927E
:1014A000AF92CF0101979F938F930E945C350F906D
:1014B0000F900F900F900F900F90DFCF40E150E012
:1014C00060E070E0C8010E94D2300FB6F8947EBE92
:1014D0000FBE6DBEDF91CF911F910F91FF90EF90E6
:1014E000DF90CF90BF90AF909F908F907F906F9044
:1014F0000895CF92DF92EF920F93CF93DF93EC0199
:101500006B018AE191E0998388834A8B2B8B0C8B4A
:10151000ED8AFE01769680E1DF011D928A95E9F75A
:101520001EA20E94F5286FA378A789A79AA71BA6D9
:101530001CA61DA61EA61FA618AA19AA1AAA1BAA8F
:101540001CAA1DAA1EAA1FAA18AE19AE1AAE1BAE5F
:101550001CAE1DAE1EAEFE01FF96108211821282DD
:101560001382349610821182128213823496108272
:101570001182128213823496108211821282138297
:1015800040E150E0B601CE0102960E94F8318AE8AF
:1015900097E00E9498250E945C1A882379F0B60192
:1015A00080912504909126040E941D146DE173E042
:1015B00080912504909126040E940813B60187E2C9
:1015C00094E00E941D146DE173E087E294E0DF91E6
:1015D000CF910F91EF90DF90CF900C940813CF92A2
:1015E000DF92EF92FF920F931F93CF93DF93CDB7CC
:1015F000DEB7E0970FB6F894DEBF0FBECDBF7C011B
:101600006B018EEE94E00E94AA17892B31F06EE6F2
:1016100077E087E294E00E9443144AE050E060E003
:1016200070E0C6010E94D23087010F5B1F4FF801A6
:10163000718360838EEE94E00E94AA17892B31F0AB
:101640006EE377E087E294E00E941F148EEE94E050
:101650000E94AA17892B39F0F8016081718187E215
:1016600094E00E94D424F80160817181CB0101973C
:101670000E9760F59E012F5D3F4FAE014F5F5F4FAC
:101680008EEE94E00E94F707BE016F5F7F4FF70177
:10169000808D918D0E941D146BE377E0F701808DA2
:1016A000918D0E941F14BE016F5D7F4FF701808DE9
:1016B000918D0E94081324E93CE040E050E000E0F6
:1016C0006DE472E0C7010E94FA1F0FC0F60180812D
:1016D000803321F08D3011F08A3021F4C7010E944F
:1016E000312103C0C7010E941722E0960FB6F8947B
:1016F000DEBF0FBECDBFDF91CF911F910F91FF9045
:10170000EF90DF90CF900895CF92DF92EF92FF920B
:101710000F931F93CF93DF931F92CDB7DEB77C015A
:101720006B018EEE94E00E94AA17892B31F06AE1DA
:1017300077E087E294E00E941F148EEE94E00E940E
:10174000AA17892B29F0B60187E294E00E940813BA
:10175000D6018C9189838EEE94E00E94AA17892B82
:1017600031F066E676E087E294E00E941F148EEE88
:1017700094E00E94AA17892B41F06981062E000C83
:10178000770B87E294E00E94D424898180538701FB
:101790000F5B1F4F8A3030F08FEF9FEFF80191837E
:1017A000808315C04AE050E060E070E0CE01019611
:1017B0000E94D2306F3F7F4F79F34AE050E060E003
:1017C00070E0C6010E94D230D8016D937C938EEEFA
:1017D00094E00E94AA17892B31F066EF76E087E249
:1017E00094E00E941F148EEE94E00E94AA17892BA9
:1017F00039F0F8016081718187E294E00E94D4247D
:10180000D801ED91FC91E730F10508F080C0EE5B66
:10181000FF4F0C94173540E050E0BA01C7010E9419
:10182000512078C020E030E0A90160E070E029C0DC
:101830008EEE94E00E94AA17892B31F06AE876E0D8
:1018400087E294E00E94431422EC37E140E050E04C
:1018500001E06AE672E0C7010E94FA1F5BC08EEEEB
:1018600094E00E94AA17892B31F06DE976E087E2B7
:1018700094E00E9443142DE33EE040E050E060EA33
:1018800072E0C7010E947D2145C08EEE94E00E9467
:10189000AA17892B31F061EC76E087E294E00E9490
:1018A00043148DE193E00E94721A8C0163EB76E0A1
:1018B000F701808D918D0E941F14B801D7015896B1
:1018C0008D919C9159970E94D424F701808D918D20
:1018D0000E9404136AEB72E0C7010E941F201AC025
:1018E000C7010E94172216C08EEE94E00E94AA172C
:1018F000892B31F06CED76E087E294E00E9443148E
:101900002EE03EE040E050E06DEC72E0BACFC7015F
:101910000E9431210F90DF91CF911F910F91FF9085
:10192000EF90DF90CF900895AF92BF92CF92DF9269
:10193000EF92FF920F931F93CF93DF93CDB7DEB754
:10194000A0970FB6F894DEBF0FBECDBF6C018B0120
:101950008EEE94E00E94AA17892B31F06EE476E0B7
:1019600087E294E00E941F148EEE94E00E94AA1772
:1019700096012F5B3F4F5901892B39F0F9016081A6
:10198000718187E294E00E949E248EEE94E00E9492
:10199000AA17892B31F064EE72E087E294E00E948E
:1019A0001D148EEE94E00E94AA17892B29F0B8012D
:1019B00087E294E00E940813F80180818D3021F0C5
:1019C0008A3011F0811103C066E376E00AC1F501A7
:1019D000E080F180F1E0EF1AF108F701EE0FFF1F50
:1019E000E056F84F65917491CE0101960E94F13155
:1019F0002EE0E216F10408F0F2C0F701E75BFF4FBA
:101A00000C9417354AE050E060E070E0C8010E9495
:101A1000D230609322057093230580932405909320
:101A20002505C5C04AE050E060E070E0C8010E94B2
:101A3000D2306093260570932705809328059093F4
:101A40002905B5C04AE050E060E070E0C8010E949E
:101A5000D23060932A0570932B0580932C059093C8
:101A60002D05A5C04AE050E060E070E0C8010E948A
:101A7000D23060932E0570932F058093300590939C
:101A8000310595C04AE050E060E070E0C8010E9476
:101A9000D2306A3071058105910548F060933205B6
:101AA00070933305809334059093350580C08AE0A8
:101AB00090E0A0E0B0E08093320590933305A093CE
:101AC0003405B093350573C04AE050E060E070E043
:101AD000C8010E94D230709337056093360567C005
:101AE0004AE050E060E070E0C8010E94D23070939C
:101AF0003905609338055BC040E150E0B8018AE3E6
:101B000095E00E94F83153C04AE050E060E070E098
:101B1000C8010E94D23060934A0570934B058093B0
:101B20004C0590934D0543C04AE050E060E070E002
:101B3000C8010E94D23060934E0570934F05809388
:101B400050059093510533C04AE050E060E070E0EA
:101B5000C8010E94D2306093520570935305809360
:101B600054059093550523C04AE050E060E070E0D2
:101B7000C8010E94D230709357056093560517C074
:101B80004AE050E060E070E0C8010E94D2307093FB
:101B90005905609358050BC04AE050E060E070E0E2
:101BA000C8010E94D2307093C7036093C60340E21D
:101BB00050E067EE72E082E095E00E94F8318EEE30
:101BC00094E00E941A1740913205509133056091BC
:101BD000340570913505C6010E94512006C065E0AC
:101BE00076E087E294E00E9443148FEF9FEFF501C7
:101BF00091838083C6010E941722A0960FB6F894A5
:101C0000DEBF0FBECDBFDF91CF911F910F91FF902F
:101C1000EF90DF90CF90BF90AF900895CF93DF9378
:101C2000EC01DB018C918F7D893591F46DED75E0D0
:101C300087E294E00E94431484E1E8EDF4E0DF01E0
:101C40001D928A95E9F784EC94E00E94E31506C0A2
:101C50006DEE75E0888D998D0E944314888D998D65
:101C60000E94041320E030E0A90160E070E0CE01A2
:101C70000E947D21DF91CF910895CF92DF92EF9264
:101C8000FF920F931F93CF93DF93EC018B018EEEA6
:101C900094E00E94AA17892B31F06BEC75E087E283
:101CA00094E00E9443144AE050E060E070E0C80114
:101CB0000E94D2306B017C01CB01181619064CF43E
:101CC000F80120812D3029F02A3019F06530710596
:101CD0003CF067EB75E0888D998D0E9443142DC010
:101CE0008601015011096FE875E087E294E00E94D7
:101CF0001F14B80187E294E00E94D424F4E0CF0ED0
:101D0000D11CC601880F991F880F991FFC01EC5345
:101D1000FB4F108211821282138284EC94E00E94A5
:101D2000E31562EA75E0888D998D0E941F1460E0CA
:101D300070E0888D998D0E94D424888D998D0E94A1
:101D4000041320E030E0A90160E070E0CE010E94C1
:101D50007D21DF91CF911F910F91FF90EF90DF9048
:101D6000CF9008953F924F925F926F927F928F92A1
:101D70009F92AF92BF92CF92DF92EF92FF920F931A
:101D80001F93CF93DF93CDB7DEB7C056D1090FB6FF
:101D9000F894DEBF0FBECDBF2B0101E010E08EE254
:101DA000382E3E0183E0680E711C6E0191E5C90E6C
:101DB000D11C7E01E1E3EE0EF11C97EF892E92E03B
:101DC000992ECE0101965C011A821982F301832DAE
:101DD00011928A95E9F79601A701B8018EEE94E079
:101DE0000E94F707DF92CF92FF92EF921F930F931B
:101DF0009F928F92BF92AF920E945C35B501C20153
:101E00000E9408130F5F1F4F0FB6F894DEBF0FBE7E
:101E1000CDBF0F301105C1F6C05ADF4F0FB6F89491
:101E2000DEBF0FBECDBFDF91CF911F910F91FF900D
:101E3000EF90DF90CF90BF90AF909F908F907F906A
:101E40006F905F904F903F900895CF93DF93EC0198
:101E500040E150E06EEE72E004960E94F83180E2BC
:101E600093E0998388838EE190E0A0E0B0E08CABB2
:101E70009DABAEABBFAB88EE93E0A0E0B0E088AF27
:101E800099AFAAAFBBAF86E990E0A0E0B0E08CAF1D
:101E90009DAFAEAFBFAFFE01E05CFF4F8FE090E0C3
:101EA000A0E0B0E080839183A283B38334968CE377
:101EB00090E0A0E0B0E080839183A283B383349666
:101EC00081E090E091838083329611821082729635
:101ED00080E091EEA0E0B0E080839183A283B383A1
:101EE000349680E895E2A0E0B0E080839183A283FD
:101EF000B383349680839183A283B383349680EF37
:101F00009AE091838083329687E090E0918380838A
:101F100040E250E069E072E0CE0144960E94F83160
:101F200040E150E065E073E0CE01845B9F4FDF91BC
:101F3000CF910C94F831EF920F93CF93DF93EC0194
:101F4000E12C0AE023E04DE065E073E00E94790AAD
:101F50008CE291E099838883DF91CF910F91EF908C
:101F60000895EF920F93CF93DF93EC01EE24E39467
:101F700007E024E04AE06CE073E00E94790A86E220
:101F800091E099838883DF91CF910F91EF9008952D
:101F9000EF920F93CF93DF93EC01EE24E3940AE0EA
:101FA00023E04EE062E173E00E94790A80E291E072
:101FB00099838883DF91CF910F91EF900895CF920D
:101FC000DF92EF92FF92CF936B017C01C42F0E94AE
:101FD0005C1A882399F02AE0B701A60180912504B4
:101FE000909126040E94BB12CC23E1F06DE173E0D6
:101FF00080912504909126040E9408132AE0B701DD
:10200000A60187E294E00E94BB12CC23B9F06DE1F7
:1020100073E087E294E0CF91FF90EF90DF90CF9054
:102020000C9408132AE0B701A60187E294E0CF914F
:10203000FF90EF90DF90CF900C94BB12CF91FF9068
:10204000EF90DF90CF900895DC0196961C92FC01F2
:10205000769620E1DF011D922A95E9F70895CF9346
:10206000FC014281538113821282DC01BC0164595C
:102070007F4F80E090E02C9130E0322F22271196A4
:10208000CC9111972C2B8227932712966A177B07E6
:1020900091F753834283CF910895CF92DF92EF92CD
:1020A000FF920F931F93CF93DF936C017A018B0103
:1020B000C0E0D0E0CE15DF0581F0D8016D918D0133
:1020C000D601ED91FC910190F081E02DC6010995BA
:1020D000892B11F02196EECF7E01C701DF91CF91C0
:1020E0001F910F91FF90EF90DF90CF900895FC012A
:1020F000538D448D252F30E0842F90E0821B930B6D
:10210000541710F0CF96089501970895FC01918D12
:10211000828D981761F0828DDF01A80FB11D5D9649
:102120008C91928D9F5F9F73928F90E008958FEFB7
:102130009FEF0895FC01918D828D981731F0828D6B
:10214000E80FF11D858D90E008958FEF9FEF0895C2
:10215000FC01918D228D892F90E0805C9F4F821B26
:1021600091098F739927089587E294E00E94A8103F
:1021700021E0892B09F420E0822F0895FC01848D51
:10218000DF01A80FB11DA35ABF4F2C91848D90E0A1
:1021900001968F739927848FA689B7892C93A0897C
:1021A000B1898C91837080648C93938D848D981306
:1021B00006C00288F389E02D80818F7D8083089599
:1021C000EF92FF920F931F93CF93DF93EC0181E087
:1021D000888F9B8D8C8D981305C0E889F989808143
:1021E00085FD26C0F62E0B8D10E00F5F1F4F0F737D
:1021F0001127E02E8C8DE8120CC00FB607FCFACF29
:10220000E889F989808185FFF5CFCE010E94BE1053
:10221000F1CF8B8DFE01E80FF11DE35AFF4FF082E5
:102220009FB7F8940B8FEA89FB89808180620AC08E
:102230009FB7F894EE89FF896083E889F9898081E6
:102240008370806480839FBF81E090E0DF91CF91B5
:102250001F910F91FF90EF900895CF93DF93EC01C2
:10226000888D8823C9F0EA89FB89808185FD05C0B6
:10227000A889B9898C9186FD0FC00FB607FCF5CFF0
:10228000808185FFF2CFA889B9898C9185FFEDCF38
:10229000CE010E94BE10E7CFDF91CF91089580E07C
:1022A00090E0892B29F00E94B41081110C94000059
:1022B000089520912304309124042817390771F4DC
:1022C0009091100480910F04981741F0E091100450
:1022D000F0E0E153FC4F808190E008958FEF9FEF95
:1022E000089508951F93CF93DF93DC015C968D9141
:1022F0009C915D97009739F421E030E013963C9370
:102300002E9312973BC05196ED91FC9152975096A7
:102310002C915097322F30951FB75E964C915E9757
:10232000742F727041FD6095F8944081772311F00D
:10233000422B01C043234083EC012197F1F748E091
:10234000508160FF02C0522B01C053235083EC0127
:102350002197F1F76695415099F78081772319F01D
:102360008323808302C0282B20831FBF5C968D911E
:102370009C915D970197F1F781E090E0DF91CF911B
:102380001F910895209123043091240428173907C0
:1023900071F480910F042091100490E0805C9F4FB5
:1023A000821B910960E470E00E94E434089580E0AB
:1023B00090E00895209123043091240428173907D0
:1023C000B9F49091100480910F04981789F0E0916E
:1023D0001004F0E0E153FC4F80812091100430E0C4
:1023E0002F5F3F4F2F7333272093100490E0089501
:1023F0008FEF9FEF0895089580E090E00895CF93C8
:10240000FC014281538113821282DC01BC01665DB2
:102410007F4F80E090E02C9130E0322F2227119600
:10242000CC9111972C2B8227932712966A177B0742
:1024300091F753834283CF9108950E9431356115FE
:10244000710579F0FB0101900020E9F73197AF01A8
:10245000461B570BDC01ED91FC910280F381E02DCE
:10246000099480E090E0089590910001891324C0C0
:10247000E6E9F9E0E4919FEF90930001E130B9F0D3
:1024800098F0E230C9F4909170009D7F90937000B5
:1024900091E09093B0009091B100987F94609093F8
:1024A000B1001092B30008C010926E0005C0909168
:1024B0006F009D7F90936F0060E00C948E221F92BE
:1024C0000F920FB60F9211242F933F934F935F9368
:1024D0006F937F938F939F93AF93BF93EF93FF93EC
:1024E0008091CB039091CC03A091CD03B091CE030A
:1024F000892B8A2B8B2B51F19091CA03E091C80351
:10250000F091C9038081892780838091CB039091CA
:10251000CC03A091CD03B091CE03181619061A066C
:102520001B06C4F48091CB039091CC03A091CD0302
:10253000B091CE030197A109B1098093CB03909389
:10254000CC03A093CD03B093CE0304C080910001CF
:102550000E943412FF91EF91BF91AF919F918F91A3
:102560007F916F915F914F913F912F910F900FBE8F
:102570000F901F9018958F929F92AF92BF92EF92FB
:10258000FF920F931F93CF93DF93CDB7DEB7A19741
:102590000FB6F894DEBF0FBECDBF7C01FA01CB01B0
:1025A00019A2223008F42AE08E010F5D1F4F822EFF
:1025B000912CA12CB12CBF01A50194010E943532B0
:1025C000F901CA01015011096A3014F4605D01C0BB
:1025D000695CD8016C93232B242B252B61F7B80160
:1025E000C7010E941F12A1960FB6F894DEBF0FBE5E
:1025F000CDBFDF91CF911F910F91FF90EF90BF90D2
:10260000AF909F908F9008956BE173E00C941F1230
:102610000F931F93CF93DF93EC010E941F128C0145
:10262000CE010E940413800F911FDF91CF911F9163
:102630000F9108959A01452B39F4DC01ED91FC913D
:102640000190F081E02D0994AB0160E070E00C9402
:10265000BB120F931F93CF93DF93EC010E941A13C9
:102660008C01CE010E940413800F911FDF91CF9146
:102670001F910F910895DC01ED91FC910190F08183
:10268000E02D09947F928F929F92AF92BF92CF924A
:10269000DF92EF92FF920F931F93CF93DF938C0102
:1026A0006A017B01722E9A01AB01C701B6010E943B
:1026B000DF34882319F06EE173E027C0460157012B
:1026C000E894B7F82FEF3FEF4FE75FE7C501B4019C
:1026D0000E94DF3481110DC02FEF3FEF4FE75FE71E
:1026E000C501B4010E94153318161CF462E273E0B0
:1026F0000CC02FEF3FEF4FE75FE4C701B6010E9428
:102700006D34181694F466E273E0C801DF91CF913E
:102710001F910F91FF90EF90DF90CF90BF90AF90FF
:102720009F908F907F900C941F122FEF3FEF4FE7F9
:102730005FECC701B6010E94153387FDE4CF20E0AE
:1027400030E0A901C701B6010E94153387FF0AC016
:102750006DE2C8010E943B13EC01F7FAF094F7F820
:10276000F09402C0C0E0D0E0B12C60E070E080E006
:102770009FE37B1441F020E030E040E251E40E940E
:102780001A33B394F6CFA70196010E94A9326B01C8
:102790007C010E948C334B015C012AE0AB01BC013F
:1027A000C8010E94BB12C80FD91F7720B9F1C5011B
:1027B000B4010E94BB339B01AC01C701B6010E946A
:1027C000A8326B017C016EE2C8010E943B13C80F66
:1027D000D91F20E030E040E251E4C701B6010E9479
:1027E00072344B015C010E948C336B017C014AE026
:1027F00050E0C8010E941A13C80FD91FB60180E02B
:1028000090E00E94BB339B01AC01C501B4010E9462
:10281000A8326B017C017A947110DBCFCE01DF917D
:10282000CF911F910F91FF90EF90DF90CF90BF90CD
:10283000AF909F908F907F9008950C941F12EF920D
:10284000FF920F931F93CF93DF938C017B01C0E026
:10285000D0E0F701EC0FFD1F6491662361F0D80111
:10286000ED91FC910190F081E02DC8010995892B33
:1028700011F02196EECFCE01DF91CF911F910F91F4
:10288000FF90EF9008950F931F93CF93DF93EC0188
:102890000E941F148C01CE010E940413800F911F0F
:1028A000DF91CF911F910F9108951F920F920FB654
:1028B0000F9211242F933F934F935F936F937F93C6
:1028C0008F939F93AF93BF93EF93FF9387E294E02F
:1028D0000E94BE10FF91EF91BF91AF919F918F9198
:1028E0007F916F915F914F913F912F910F900FBE0C
:1028F0000F901F9018951F920F920FB60F921124F0
:102900002F938F939F93EF93FF93E0913704F09170
:1029100038048081E0913D04F0913E0482FD12C0B4
:102920009081809140048F5F8F73209141048217C2
:1029300051F0E0914004F0E0E95DFB4F958F80930A
:10294000400401C08081FF91EF919F918F912F9161
:102950000F900FBE0F901F9018951F920F920FB6F9
:102960000F9211242F933F934F935F936F937F9315
:102970008F939F93AF93BF93EF93FF93E0912304C3
:10298000F0912404309709F451C0968DA685B7853F
:10299000858591FF04C09C91892329F447C09C91AF
:1029A000892309F043C0A389B4899C9185898095C6
:1029B00089238C93868997890197F1F7608D718DB2
:1029C000A685B785558538E020E0CB010197F1F762
:1029D000822F90E095958795282F4C91452309F0FB
:1029E0002068315091F7868D81FD209580910F04EC
:1029F00090E001968F73992730911004381749F0B1
:102A0000A0910F04B0E0A153BC4F2C9380930F040E
:102A100003C0868D8160868F828D938D0197F1F73B
:102A2000A389B4899C918589892B8C93FF91EF911F
:102A3000BF91AF919F918F917F916F915F914F91D6
:102A40003F912F910F900FBE0F901F901895CF932D
:102A5000DF93FC01828D938D892B31F1A0912304AA
:102A6000B0912404EA17FB07F9F0109751F0539640
:102A7000CD91DC915497988155968C9180958923BE
:102A80008883868D8E7F868F10920F04109210049B
:102A9000F0932404E0932304A389B4899C9185894D
:102AA000892B8C9381E001C080E0DF91CF91089564
:102AB000EF92FF920F931F93CF937C010E94FF111F
:102AC0008C01F701828193810817190731F4C1E065
:102AD000C80101978E3F9F4F08F0C0E06AE273E0A3
:102AE00087E294E00E941D14F7016281738140E146
:102AF00050E087E294E00E941A1362E473E087E2F8
:102B000094E00E941D1440E150E0B80187E294E097
:102B10000E941A1366E473E087E294E00E941D1499
:102B20006C2F70E087E294E00E94D4248C2FCF9128
:102B30001F910F91FF90EF900895CF92DF92EF9247
:102B4000FF9220E030E04FEF5FEFD901AA0FBB1FEB
:102B5000AA0FBB1FA80FB91F5496CD90DD90ED9022
:102B6000FC905797C114D104E104F10431F44F3FB4
:102B70006FEF5607F1F4A9011CC021153105C9F00A
:102B80004F3F6FEF5607A9F0FA013596EE0FFF1F82
:102B9000EE0FFF1FE80FF91FC082D182E282F3829D
:102BA00054961D921D921D921C9257979A014FEFB9
:102BB0005FEF2F5F3F4F253031053CF2FF90EF90E4
:102BC000DF90CF900895CF92DF92EF92FF920F9314
:102BD0001F93CF93DF9300D0CDB7DEB78C010E9457
:102BE0009D1569E779E087E294E00E941F14C8010F
:102BF0000E94FF1140E150E0BC0187E294E00E9496
:102C00001A136CE679E087E294E00E941F14F80141
:102C10006081718187E294E00E94D4247801F4E11C
:102C2000EF0EF11C680188E2C80ED11CF70141913A
:102C30005191619171917F012AE087E294E00E94B5
:102C4000BB126BEF71E087E294E00E941D14CE147A
:102C5000DF0461F787E294E00E940413F801E0804A
:102C6000F18066E579E087E294E00E944314F7FC86
:102C700003C0F801F182E08264E479E087E294E045
:102C80000E941F14B8016C5F7F4F87E294E00E949E
:102C90001D1466E379E087E294E00E941F14F801B6
:102CA0006081718187E294E00E949E246AE279E06B
:102CB00087E294E00E941F144AE050E06AE270E06C
:102CC00087E294E00E942913C8010E9458158111DF
:102CD00026C065EB78E087E294E00E944314C801C7
:102CE0000E94FF11F80193838283E080F1806801E4
:102CF000FAE2CF0ED11CE01AF10AC701800F911F32
:102D0000F80161918F019A838983CE0101960E9417
:102D10008F1E0C151D0589F761EA78E008C06EEF7B
:102D200078E087E294E00E9443146AEE78E087E25C
:102D300094E00E9443140F900F90DF91CF911F9168
:102D40000F91FF90EF90DF90CF9008950F931F9316
:102D5000CF93DF93EC018C010C5F1F4F40E150E0FB
:102D600066E573E0C8010E94F8318CEB92E099832C
:102D70008883FE01749684E1DF011D928A95E9F74C
:102D8000F9A7E8A78C8181110BC040E150E06BE509
:102D900073E0C801DF91CF911F910F910C94F8312E
:102DA000DF91CF911F910F910895EF92FF920F93B2
:102DB0001F93CF937C010E942F108C01F701828119
:102DC00093810817190731F4C1E0C80101978E3FBC
:102DD0009F4F08F0C0E06AE273E087E294E00E944F
:102DE0001D14F7016281738140E150E087E294E0B5
:102DF0000E941A1362E473E087E294E00E941D14BB
:102E000040E150E0B80187E294E00E941A1366E4C2
:102E100073E087E294E00E941D146C2F70E087E25B
:102E200094E00E94D4248C2FCF911F910F91FF909A
:102E3000EF900895CF92DF92EF92FF920F931F933E
:102E4000CF93DF9300D0CDB7DEB78C0161E778E098
:102E500087E294E00E9443146FE578E087E294E013
:102E60000E941F14B8016C5F7F4F87E294E00E94BC
:102E70001D1461E578E087E294E00E941F14F801D8
:102E80006081718187E294E00E949E2465E478E08D
:102E900087E294E00E941F144AE050E06CE670E084
:102EA00087E294E00E942913C8010E94D51681117F
:102EB0002CC060ED77E087E294E00E944314C801E3
:102EC0000E942F10F80193838283E080F1806801D3
:102ED000FCE6CF0ED11CE01AF10AC701800F911F4A
:102EE000F80161918F019A838983CE0101960E9436
:102EF0008F1E0C151D0589F76CEB77E087E294E0D7
:102F00000E94431400E010E00EC069E178E087E21F
:102F100094E00E94431465E078E087E294E00E9428
:102F2000431401E010E067E878E087E294E00E9453
:102F30001F14B80187E294E00E94D424C8010F90C6
:102F40000F90DF91CF911F910F91FF90EF90DF9045
:102F5000CF900895CF93DF93EC018BE00E94652220
:102F6000892B59F0C65BDF4F81E090E028813981E1
:102F70002130310521F080E002C081E090E0DF9156
:102F8000CF9108958F929F92AF92BF92EF92FF924E
:102F90000F931F93CF93DF938C017B01FB01808103
:102FA0008D3009F46DC08A3009F46AC0882309F4B1
:102FB00067C04AE050E060E070E0C7010E94D23094
:102FC0004B015C016CE87AE087E294E00E941F14F8
:102FD000C501B4010E943E2084EC94E00E949D153E
:102FE000E8EDF4E0DF0180E090E04D915D916D91BE
:102FF0007D91452B462B472B09F0019624E0AC3EF2
:10300000B20799F781149104A104B10439F46DE673
:103010007AE087E294E00E94431432C08530910543
:103020004CF067E57AE087E294E00E944314C2E046
:10303000D0E028C04191519161917191841695061B
:10304000A606B70609F477C024E0EC3EF20791F734
:10305000880F991F880F991FFC01E852FB4F80824F
:103060009182A282B38284EC94E00E94E31560E333
:103070007AE087E294E00E944314C0E0D0E002C00E
:10308000C1E0D0E061E07BE0F801808D918D0E948D
:103090001F14B701F801808D918D0E9408136FEE07
:1030A0007AE0F801808D918D0E941F14BE01F80115
:1030B000808D918D0E949E2464EE72E0F801808DD7
:1030C000918D0E941D14F801808D918DC230D10523
:1030D00059F0C330D10559F0219719F067EE7AE025
:1030E00008C068EC7AE005C06FEA7AE002C066E9E1
:1030F0007AE00E941F14F801808D918D0E940413C4
:10310000F801808D918D0E940413C8010E94B0289F
:1031100020E030E0A90160E070E0C8010E947D215C
:10312000DF91CF911F910F91FF90EF90BF90AF90E3
:103130009F908F90089561E47AE087E294E00E9486
:103140004314C3E0D0E09ECFCF92DF92EF92FF9284
:103150000F931F93CF93DF93CDB7DEB768970FB66A
:10316000F894DEBF0FBECDBF8C016C0183E4C80EA6
:10317000D11CD6018D919C91892B09F489C0F8014D
:10318000828D938D0E94AD25D8015A96ED91FC91C8
:103190005B97E55BFF4F80819181A281B381892B91
:1031A0008A2B8B2B09F474C08EEE94E00E94AA1730
:1031B000892B31F062ED79E087E294E00E941F14E0
:1031C0008EEE94E00E94AA17892B69F0D8015A96D6
:1031D000ED91FC915B97E55BFF4F6081718182818E
:1031E00093810E943E20D8015A96ED91FC915B9705
:1031F000E55BFF4F83818F9382818F9381818F93D2
:1032000080818F938AE392E09F938F93FE013196A2
:103210007F01FF93EF930E945C3548E150E0B701D6
:103220007801F7E2EF0EF11CC7010E94F831F701B7
:103230000FB6F894DEBF0FBECDBF80E090E04191A5
:103240009C012F5F3F4F41110EC0F801E80FF91F9D
:103250004AE047A3F801E20FF31F17A2F801FF9617
:103260003183208304C0C9012831310541F7D801D9
:103270005A968D919C915B97FC01E55BFF4F108204
:103280001182128213820E942410F6011182108290
:1032900064EE71E0C8014C960E944C35892B31F5E3
:1032A000D8015896ED90FC905997C7010E942715B8
:1032B0008091230490912404E816F90639F062E025
:1032C00070E080E090E00E946424F2CFF6018081FB
:1032D0009181892B29F461E070E080E090E004C0E6
:1032E0006AE070E080E090E00E946424D801589683
:1032F0008D919C915997DC01ED91FC910084F185B1
:10330000E02D0995892B09F459C01093B903009356
:10331000B8034091320550913305609134057091A6
:103320003505C8010E945120F60111821082C801A2
:10333000CF966C01D80158968D919C915997DC01DC
:10334000ED91FC910084F185E02D0995892BB1F177
:10335000C8010E94CA20811131C0F801808D918D71
:10336000DC01ED91FC910284F385E02D0995F82EA6
:103370008EEE94E00E94AA17892B31F062E17AE088
:1033800087E294E00E941F148EEE94E00E94AA1738
:10339000892B41F06F2D0F2C000C770B87E294E006
:1033A0000E94D424BBE1FB123AC08AE0F80187A353
:1033B00010A681E090E0D6018D939C93C8010E94F5
:1033C000CA20882309F469C0B801695D7F4F48E1CC
:1033D00050E0CE0101960E94F831C8010E94B02849
:1033E000D801ED91FC910280F381E02DC80109958F
:1033F000F801E08CF18C6AE0C7010E943B13C70121
:103400000E940413D801ED91FC910680F781E02D14
:1034100041E0BE016F5F7F4FC80109953EC0F801D2
:10342000808D918DDC01ED91FC910190F081E02D7A
:103430006F2D0995F60180819181F801E80FF91F40
:10344000F7A20196D6018D939C93BDE0FB1619F06F
:10345000EAE0FE126FCF8EEE94E00E94AA17892B4D
:1034600031F067EF79E087E294E00E941F148EEE5E
:1034700094E00E94AA17892B49F0D6016D917C91A6
:103480006150710987E294E00E94D424D601ED9145
:10349000FC91E00FF11F17A24DCF68960FB6F8947C
:1034A000DEBF0FBECDBFDF91CF911F910F91FF9077
:1034B000EF90DF90CF9008958091C6039091C7035D
:1034C0001816190664F480911B0490911C04892B32
:1034D00031F48AE00E94652221E0892B09F020E086
:1034E000822F0895EF92FF920F931F93CF93DF9354
:1034F00000D0CDB7DEB77C01209163053091640523
:103500002115310511F429E635E08E010F5F1F4FBB
:10351000021B130B67EC79E087E294E00E941F1412
:10352000B80187E294E00E949E2464EC79E087E28F
:1035300094E00E941F14B70187E294E00E940813F0
:10354000C8010F900F90DF91CF911F910F91FF90C5
:10355000EF900895CF93DF93CDB7DEB764970FB6A2
:10356000F894DEBF0FBECDBFAE014F5F5F4F24E1C9
:10357000FA0111922A95E9F726ED31E03A83298381
:103580002EE130E03C832B8360E070E00E94E62473
:1035900064960FB6F894DEBF0FBECDBFDF91CF911A
:1035A0000895CF93DF93CDB7DEB764970FB6F89445
:1035B000DEBF0FBECDBFAE014F5F5F4F24E1FA010A
:1035C00011922A95E9F726E430E03A8329833C8377
:1035D0002B8360E070E00E94E62464960FB6F894B6
:1035E000DEBF0FBECDBFDF91CF910895CF93DF93A4
:1035F000CDB7DEB764970FB6F894DEBF0FBECDBF70
:10360000AE014F5F5F4F24E1FA0111922A95E9F76D
:1036100024EF31E03A8329833C832B8360E070E020
:103620000E94E62464960FB6F894DEBF0FBECDBFAD
:10363000DF91CF910895CF93DF93CDB7DEB7649735
:103640000FB6F894DEBF0FBECDBFAE014F5F5F4F28
:1036500024E1FA0111922A95E9F760E070E00E94F6
:10366000E62464960FB6F894DEBF0FBECDBFDF919F
:10367000CF910895FC01708767836115710581F40E
:1036800081859285019692878187238534851216DC
:10369000130634F4281739071CF41682158208958E
:1036A000DB01AA0FBB1FAE0FBF1F59968D919C91D6
:1036B0005A97181619064CF4CB01019662E070E097
:1036C0000E94E4349683858302C016821582858524
:1036D0009685A785B089818B928BA38BB48B089537
:1036E00080E090E0FB0121913191BF011216130699
:1036F00024F401968A309105A9F708950F931F933A
:10370000CF93DF938B010E94701BBC0187E294E092
:103710000E949E246BEF71E087E294E00E941D14EA
:10372000E8010C5E1F4F65EE72E087E294E00E94B4
:103730001D146991799187E294E00E949E24C0173C
:10374000D10789F76DE173E087E294E0DF91CF91D3
:103750001F910F910C9408138F929F92AF92BF927A
:10376000CF92DF92EF92FF92CF93DF93EC010E9412
:10377000F5286D877E878F87988BEF80F8848988FE
:103780009A88AB88BC88DC01CB0188199909AA0901
:10379000BB09F701EE0FFF1FEC0FFD1F818C928C10
:1037A000092C000CAA08BB0888159905AA05BB05B9
:1037B00098F0BE01675E7F4FCE010E94701B01979B
:1037C000E816F9061CF060E070E003C0B7016F5F17
:1037D0007F4FCE010E943A1B8D889E8881149104F0
:1037E00041F48F89988D892B09F0B8C16D8188814A
:1037F00019C2181419040CF0B1C18D819E81892B56
:1038000009F49FC18881998120910001281721F036
:103810002F3F09F079C204C0E6E9F9E0C49179C00C
:1038200080930001E6E9F9E0C491CF3F09F46CC24E
:10383000C13009F448C050F1C23009F06AC010929A
:10384000B0001092B1002091B00022602093B0002F
:103850002091B10021602093B1009C013327F90130
:10386000E35DF34FE491F0E0EE0FFF1FED5DF34FEA
:10387000459154915093C9034093C803F901EF5BFC
:10388000F34FE491E093CA03C2E03AC214BC15BC02
:1038900024B5226024BD25B5216025BD9C013327B8
:1038A000F901E35DF34FE491F0E0EE0FFF1FED5DF2
:1038B000F34F45915491F901EF5BF34FE491E0939D
:1038C0001204C0E01DC2109280001092810020916D
:1038D0008100286020938100209181002160209345
:1038E00081009C013327F901E35DF34FE491F0E09F
:1038F000EE0FFF1FED5DF34F45915491F901EF5B22
:10390000F34FE491E093110461E00E948623C1E04B
:10391000A6C0C7FDF9C161E00E9486238C2F8D7F70
:1039200009F09DC0092C000CAA08BB0860E072E1F8
:103930008AE790E0A50194010E94F83469017A01B8
:10394000DA01C9010197A109B1098F3F9105A105CC
:10395000B10509F00CF445C060E472E48FE090E03A
:10396000A50194010E94F834BA01A90141505109FE
:1039700061097109C230E9F44F3F510561057105D4
:1039800009F00CF45DC160E970ED83E090E0A50101
:1039900094010E94F834BA01A9014150510961090A
:1039A00071094F3F51056105710509F034F583E058
:1039B0004FC04F3F510561057105B9F0B4F068E49F
:1039C00078EE81E090E0A50194010E94F834BA01FC
:1039D000A9014150510961097109CC2309F432C18F
:1039E00087C1AC01BD0181E001C082E0C11130C0DE
:1039F00095B5987F892B85BD6AC068E478EE81E033
:103A000090E0A50194010E94F834BA01A901415047
:103A10005109610971094F3F51056105710509F0AF
:103A20000CF40CC164E274EF80E090E0A501940115
:103A30000E94F834BA01A901415051096109710984
:103A40004F3F51056105710511F008F02AC185E06D
:103A50009091B100987F892B8093B10032C0092CDE
:103A6000000CAA08BB0860E072E18AE790E0A501BB
:103A700094010E94F834DA01C9010197A109B10942
:103A8000009721E0A207B10524F4AC01BD0181E05B
:103A90000FC068E478EE81E090E0A50194010E94F7
:103AA000F834BA01A901415051096109710983E053
:103AB000C13039F490918100987F892B80938100E7
:103AC00018C0C130B1F0C23049F1C1111DC147BDAC
:103AD0008FEF9FEFDC018093170490931804A0935D
:103AE0001904B0931A0480916E00826080936E0076
:103AF0000BC150938900409388008FEF9FEFDC014A
:103B00008093130490931404A0931504B0931604A7
:103B100080916F00826080936F00F6C04093B30085
:103B20008FEF9FEFDC018093CB039093CC03A093A6
:103B3000CD03B093CE0380917000826080937000BB
:103B4000E3C08881DF91CF91FF90EF90DF90CF901D
:103B5000BF90AF909F908F900C943412EF88F88CA8
:103B60001E141F040CF0D0C08D819E81892B09F496
:103B700052C00990D881C02D61E08C2F0E9486230D
:103B80008FEFE816F10409F444C0FE01FF27E75E59
:103B9000F44FE491E330F9F048F4E130B9F0E23069
:103BA000A1F584B5806284BDE8BCAEC0E730E9F021
:103BB000E83019F1E43049F580918000806280930B
:103BC0008000F0928B00E0928A009EC084B58068ED
:103BD00084BDE7BC99C0809180008068809380009C
:103BE000F0928900E09288008FC08091B0008068D8
:103BF0008093B000E092B30087C08091B0008062F3
:103C00008093B000E092B4007FC020E8E216F10497
:103C10003CF061E006C0C88161E08C2F0E948623E1
:103C200060E08C2FDF91CF91FF90EF90DF90CF90ED
:103C3000BF90AF909F908F900C948E2284E008CF1D
:103C400082E006CF4F3F51056105710541F138F122
:103C500062E17AE780E090E0A50194010E94F834E7
:103C6000BA01A90141505109610971094F3F51053C
:103C70006105710591F088F0D701C6013AE0B5956C
:103C8000A795979587953A95D1F7AC01BD0141501D
:103C900051096109710985E0ABCE84E0A9CE83E0CA
:103CA000A7CE62E17AE780E090E0A50194010E944E
:103CB000F834BA01A90141505109610971094F3F16
:103CC00051056105710591F088F0D701C6012AE020
:103CD000B595A795979587952A95D1F7AC01BD0124
:103CE000415051096109710987E0B2CE86E0B0CE3A
:103CF0004F3F51056105710509F098F684E076CED5
:103D000061E00E9486230ECEDF91CF91FF90EF906D
:103D1000DF90CF90BF90AF909F908F900895FF92CB
:103D20000F931F93CF93DF93EC01F62E0881198137
:103D3000C8010E940F32F81621F06F2DC8010E94B1
:103D40001732CE01DF91CF911F910F91FF9008950F
:103D50000F931F93CF93DF9300D0CDB7DEB78C01C5
:103D600080911B0490911C04892B19F5F801808126
:103D700091817183608386179707D9F0809136050A
:103D8000909137050297A9F467E979E087E294E01A
:103D90000E941F14F8016081718187E294E00E9403
:103DA000D424F80160811A821982CE0101960E9402
:103DB0008F1EF801808191810F900F90DF91CF913C
:103DC0001F910F910895833081F028F4813099F08C
:103DD0008230A1F008958730A9F08830B9F084309E
:103DE000D1F4809180008F7D03C0809180008F7717
:103DF00080938000089584B58F7702C084B58F7D4D
:103E000084BD08958091B0008F7703C08091B00089
:103E10008F7D8093B0000895CF92DF92EF92FF9252
:103E20001F93CF93DF93EC016A017B01122F8EEE7B
:103E300094E00E94AA17892B31F06CE97CE087E2BC
:103E400094E00E944314E881F9810190F081E02D13
:103E5000B701A601CE010995E881F9810190F081B1
:103E6000E02D44EA58E160E070E0CE0109958EEE65
:103E700094E00E94AA17892B31F064E87CE087E285
:103E800094E00E944314888D998DDC01ED91FC91A2
:103E90000084F185E02D0995892B51F0888D998D4D
:103EA000DC01ED91FC910284F385E02D0995EBCFC7
:103EB000CE010E94B028112331F0CD5BDF4F81E0AD
:103EC00090E099838883DF91CF911F91FF90EF90CD
:103ED000DF90CF900895CF93DF93EC019A01AB016F
:103EE0001B8E1A8E198E188E1F8A1E8A60E079E04A
:103EF0008DE390E00E94F834F9012430310518F088
:103F0000C901039702C081E090E09D8F8C8F6C8582
:103F1000663108F06AC0C90196958795843191058C
:103F200010F0439702C081E090E09F8B8E8B369714
:103F300018F0C901059702C081E090E0998F888F41
:103F4000C901880F991F280F391F36952795369577
:103F500027952D30310518F02C50310902C021E091
:103F600030E03B8F2A8F30916800683058F021E0B4
:103F70006E3008F420E091E0892F01C0880F2A9567
:103F8000EAF701C084E0832B809368009C85983019
:103F900038F09E3040F0963148F020E030E008C024
:103FA0002DE630E005C02BE630E002C02CE630E024
:103FB0003C8B2B8B983030F481E001C0880F9A95B0
:103FC000EAF70EC0292F30E09E3018F4285031094E
:103FD00002C02E50310981E001C0880F2A95EAF70E
:103FE0008D8B8C8D9D8D0197F1F7CE01DF91CF9157
:103FF0000C942715CF92DF92EF92FF920F93CF93FD
:10400000DF93EC0169017A01FB018081882321F0B3
:10401000888D998D0E941D14202FB701A601CE0115
:104020000E940C1F61E87CE0888D998DDF91CF9113
:104030000F91FF90EF90DF90CF900C941F14EF92B0
:10404000FF920F93CF93DF93EC017B01E881F9811D
:104050000084F185E02D40E050E0BA01099524E8A4
:104060003BE040E050E000E0B701CE010E94FA1FC3
:10407000DF91CF910F91FF90EF900895CF93DF9351
:10408000AB01BC012AE087E294E00E94BB12EC0184
:1040900087E294E00E9404138C0F9D1FDF91CF9163
:1040A0000895CF92DF92EF92FF92CF93DF93EC01CE
:1040B0006A017B018BA19CA1ADA1BEA184179507CC
:1040C000A607B70751F06AE67CE087E294E00E9419
:1040D0001F14C701B6010E943E20CBA2DCA2EDA2B4
:1040E000FEA281E090E090931C0480931B040E9448
:1040F000F5286F8F78A389A39AA3DF91CF91FF90C2
:10410000EF90DF90CF900895CF93DF93EC01409133
:10411000580550915905052E000C660B770B0E942F
:104120005120CE010E94B02861EE71E0CE014C9684
:104130000E944C35892B19F165E57CE0888D998DBD
:104140000E941F146CE871E0888D998D0E941D14E7
:1041500064EE72E0888D998D0E941D1468E673E00C
:10416000888D998D0E940813888D998D0E94041363
:104170006DE173E0CE01DF91CF910C941F2044E8F4
:104180005BE060E070E020E0CE010E940C1FDF9158
:10419000CF910895FF920F931F93CF93DF93EC017C
:1041A0008EEE94E00E94AA17892B31F06EE773E03F
:1041B00087E294E00E941D14A79618E1FC2E0D2FB3
:1041C0008EEE94E00E94AA17892B41F06881062E9A
:1041D000000C770B87E294E00E949E248EEE94E020
:1041E0000E94AA17892B31F06BEF71E087E294E00F
:1041F0000E941D1489918A3031F08D3021F01150C8
:10420000F9F6C0E001C0C1E08EEE94E00E94AA176A
:10421000892B31F06DE173E087E294E00E9408138E
:10422000CC23C1F08EEE94E00E94AA17892B31F0C6
:1042300063E07CE087E294E00E941F148EEE94E03D
:104240000E94AA17892B31F06F2D702F87E294E01E
:104250000E9408138C2FDF91CF911F910F91FF9037
:104260000895CF93DF93EC018EEE94E00E94AA179D
:10427000892B31F062EF7BE087E294E00E944314E7
:104280006DEE7BE0888D998D0E94431465EE7BE096
:10429000888D998D0E94431468ED7BE0888D998DFF
:1042A0000E9443146DEC7BE0888D998D0E9443142D
:1042B0006FEB7BE0888D998D0E9443146BEA7BE065
:1042C000888D998D0E9443146FE97BE0888D998DCC
:1042D0000E9443146CE87BE0888D998D0E94431402
:1042E0006DE173E0888D998D0E9408136AEB72E08E
:1042F000CE01DF91CF910C941F208F929F92AF92AD
:10430000BF92CF92DF92EF92FF920F931F93CF93C2
:10431000DF93EC016B0149015A018EEE94E00E949B
:10432000AA17892B31F067E77BE087E294E00E94CF
:10433000431468E67BE0888D998D0E941F1460917C
:10434000C6047091C70440E150E0888D998D0E94A9
:104350001A1360E67BE0888D998D0E941F144AE055
:1043600050E06AE270E0888D998D0E94291384ECF8
:10437000E82E84E0F82E01E010E0F70184899589A9
:10438000A689B789892B8A2B8B2BD9F0B801888D08
:10439000998D0E949E246DE57BE0888D998D0E9409
:1043A0001F14F70144895589668977892AE0888D29
:1043B000998D0E94BB126DE173E0888D998D0E94EA
:1043C00008130F5F1F4FF4E0EF0EF11C06301105CC
:1043D000A1F66DE173E0888D998D0E940813811418
:1043E0009104A1F000E0A5019401B601CE010E9464
:1043F000FA1FDF91CF911F910F91FF90EF90DF9007
:10440000CF90BF90AF909F908F9008956AEB72E02D
:10441000CE01DF91CF911F910F91FF90EF90DF9030
:10442000CF90BF90AF909F908F900C941F200F93D0
:10443000CF93DF93EC018EEE94E00E94AA17892BB4
:1044400031F068E47BE087E294E00E944314FE01CF
:10445000EF5BFF4F8FEF9FEF9183808365E37BE0FE
:10446000888D998D0E941F148EEE94E00E942F106B
:1044700040E150E0BC01888D998D0E941A136DE2D5
:104480007BE0888D998D0E941F144AE050E06CE615
:1044900070E0888D998D0E942913688D798D8EEE3C
:1044A00094E00E94B20E888D998D0E9404132FEE25
:1044B0003AE040E050E000E063E973E0CE010E94A2
:1044C000FA1FDF91CF910F910895CF93DF93282F9B
:1044D00030E0F901E75EF44F8491F901EF5BF34FAF
:1044E000D491F901E35DF34FC491CC2391F0811194
:1044F0000E94E31EEC2FF0E0EE0FFF1FE75EF34F8C
:10450000A591B491EC91ED2381E090E021F480E05D
:1045100002C080E090E0DF91CF9108951F93CF9388
:10452000DF93282F30E0F901E75EF44F8491F90121
:10453000EF5BF34FD491F901E35DF34FC491CC23CA
:10454000C1F0162F81110E94E31EEC2FF0E0EE0F58
:10455000FF1FED5DF34FA591B4919FB7F894111132
:1045600004C08C91D095D82302C0EC91DE2BDC9353
:104570009FBFDF91CF911F910895CF92DF92EF926D
:10458000FF920F931F93CF93DF93EC018EEE94E095
:104590000E94AA17892B31F062E07DE087E294E067
:1045A0000E941F148EEE94E00E94AA17892B39F006
:1045B000BE01645E7F4F87E294E00E940813009181
:1045C0001B0410911C0401301105A9F44BA15CA13E
:1045D0006DA17EA18091320590913305A0913405A3
:1045E000B0913505481759076A077B0721F460E049
:1045F0008DE00E948E220E94F528CF8CD8A0E9A0E1
:10460000FAA06C197D098E099F0928EE33E040E07D
:1046100050E00E9435328BA19CA1ADA1BEA18217B2
:104620009307A407B50718F0012B09F048C08EEED8
:1046300094E00E94AA17892B31F062EE7CE087E2B9
:1046400094E00E944314CE010E94B028E881F981D1
:104650000084F185E02D40E050E0BA01CE010995DB
:1046600080911B0490911C04892B49F1BE01645E6A
:104670007F4F87E294E00E941D146BEC7CE087E2A0
:1046800094E00E94431487E294E00E94041369EBD3
:104690007CE0888D998D0E944314888D998D0E94AD
:1046A000041310921C0410921B048EEE94E00E94DE
:1046B000AA17892B21F08CEA93E00E94721AE881F4
:1046C000F9810680F781E02D40E060E070E0CE01E6
:1046D00009958EEE94E00E94AA17892B71F064EF81
:1046E0007CE087E294E0DF91CF911F910F91FF90E2
:1046F000EF90DF90CF900C944314DF91CF911F91F6
:104700000F91FF90EF90DF90CF900895CF93DF93BC
:1047100090E0FC01EF5BF34F2491FC01E35DF34F6C
:104720008491882361F190E0880F991FFC01E15F7B
:10473000F44FC591D491FC01ED5DF34FA591B49177
:10474000611109C09FB7F8948881209582238883DE
:10475000EC912E230BC0623061F49FB7F8948881EE
:10476000322F309583238883EC912E2B2C939FBF7F
:1047700006C08FB7F894E8812E2B28838FBFDF9176
:10478000CF9108950F931F93CF93DF93EC01162FD2
:10479000042F1B821A8288EE93E0A0E0B0E08C83A5
:1047A0009D83AE83BF8382E391E0998388831F8AD0
:1047B0001E8A198E188E1B8E1A8E1D8E1C8E6E8D63
:1047C0006E7F6D7F6E8F6695617081E06827842FA4
:1047D0000E948E2261E0802F0E948623802F90E02D
:1047E000FC01EF5BF34FE491E88BFC01E35DF34FD9
:1047F000E491F0E0EE0FFF1FED5DF34F8591949192
:104800009A8B898B60E0812F0E9486238E8D81FD9B
:1048100004C061E0812F0E948E221C87812F90E0CE
:10482000FC01EF5BF34FE491ED87FC01E35DF34F97
:10483000E491F0E0EE0FFF1FE75EF34F8591949156
:104840009F878E87DF91CF911F910F910895EF92EF
:10485000FF920F931F93CF93DF93EC018A017901AD
:10486000798368831E821D8218861F821A861986A4
:104870001C861B860E94F5286D877E878F87988B04
:10488000198A1A8A1B8A1C8AFE8AED8A188E1F8A48
:10489000FE01799684E1DF011D928A95E9F743E0F4
:1048A00050E0B801CE0102960E94F83161E08881A3
:1048B0000E94862360E08881DF91CF911F910F9144
:1048C000FF90EF900C948E228F929F92AF92BF92A6
:1048D000CF92DF92EF92FF926B017C010E94D02871
:1048E0004B015C01C114D104E104F104F1F00E9418
:1048F000D028DC01CB0188199909AA09BB09883E97
:104900009340A105B10570F321E0C21AD108E10876
:10491000F10888EE880E83E0981EA11CB11CC1141A
:10492000D104E104F10419F7DDCFFF90EF90DF909F
:10493000CF90BF90AF909F908F900895CF92DF92CD
:10494000EF92FF920F931F93CF93DF936B01770F3B
:10495000EE08FF08F7FE1BC0EC016DE20E943B135E
:104960008C0144275527BA014C195D096E097F094E
:104970002AE0CE010E94BB12800F911FDF91CF91E0
:104980001F910F91FF90EF90DF90CF9008952AE054
:10499000B701A601DF91CF911F910F91FF90EF908A
:1049A000DF90CF900C94BB120F931F93CF93DF93A4
:1049B000EC010E949E248C01CE010E940413800F02
:1049C000911FDF91CF911F910F910895CF92DF92A8
:1049D000EF92FF920F931F93CF93DF93EC016B0144
:1049E000F42EE52E8EEE94E00E94AA178E01075E4B
:1049F0001F4F892BB1F066ED7DE087E294E00E94C5
:104A00001F14BE016E5F7F4F87E294E00E9408137F
:104A1000B801CE010E947E1B6F2D7E2DCE010E941B
:104A20007E1B8B859C858C159D05B9F44AE050E072
:104A3000B8018F2D9E2D0E943635892B09F44AC06E
:104A40006F2D7E2DCE010E94701B892B31F4B80191
:104A5000CE010E94701B892BE9F18EEE94E00E943A
:104A6000AA17892BB1F06DEB7DE087E294E00E94FC
:104A70001F14BE016E5F7F4F87E294E00E9408130F
:104A8000B801CE010E947E1B6F2D7E2DCE010E94AB
:104A90007E1B1E821D8218861F821A861986DC865E
:104AA000CB86EF2DFE2DD801CE018D96219131912F
:104AB0002D933D93A817B907C9F760E070E0CE01C8
:104AC000DF91CF911F910F91FF90EF90DF90CF90EA
:104AD0000C943A1BDF91CF911F910F91FF90EF90B3
:104AE000DF90CF900895CF93DF93CDB7DEB7649773
:104AF0000FB6F894DEBF0FBECDBFAE014F5F5F4F64
:104B000024E1FA0111922A95E9F724EF31E03A8382
:104B100029833C832B8363E070E00E94E624649643
:104B20000FB6F894DEBF0FBECDBFDF91CF910895D1
:104B3000CF93DF93EC010E945C1A882339F0BE0109
:104B400080912504909126040E941F14BE0187E2E3
:104B500094E0DF91CF910C941F142F923F924F92CB
:104B60005F926F927F928F929F92AF92BF92CF92FD
:104B7000DF92EF92FF920F931F93CF93DF93CDB706
:104B8000DEB76C970FB6F894DEBF0FBECDBF8C01B9
:104B90005C012FE4A20EB11CD5018D919C910E9465
:104BA0002715F501208131818091230490912404FF
:104BB0002817390739F062E070E080E090E00E9449
:104BC0006424EFCF64E170E080E090E00E94642410
:104BD0000E94F5286D8B7E8B8F8B988FD8019796CE
:104BE0006D937D938D939C939A97C0902A05D09056
:104BF0002B05E0902C05F0902D059F964D905D9033
:104C00006D907C90D2974C0C5D1C6E1C7F1CF80143
:104C1000ED5BFF4FFA8FE98F40825182628273828F
:104C2000F80123A934A945A956A9F0912E05E091D0
:104C30002F059090300580903105211531054105F3
:104C4000510521F42F2F3E2F492D582D180187E4AF
:104C5000280E311CA8EEB3E00E945732460E571EB4
:104C6000681E791ED1014D925D926D927C921397D0
:104C700040902605509027056090280570902905E2
:104C80009801215C3F4F3C8F2B8FA8EEB3E02F2F74
:104C90003E2F492D582D0E945732C40CD51CE61CBE
:104CA000F71CDC01CB018C0D9D1DAE1DBF1DEB8DD6
:104CB000FC8D80839183A283B383F80183A594A59F
:104CC000A5A5B6A52D893E894F89588D281B390B7E
:104CD0004A0B5B0B421653066406750608F0B5C115
:104CE000D5018D919C91DC01ED91FC910084F185C1
:104CF000E02D0995892B09F493C0F50180819181FC
:104D0000DC01ED91FC910084F185E02D0995892B62
:104D100009F49BC1F801F6A0FFE0FF1528F0D801C7
:104D200052968C91F81620F0C8010E942410E5CF0D
:104D3000F50180819181DC01ED91FC910284F38584
:104D4000E02D0995F801EF0DF11D868BF80186A184
:104D500092899150811104C02689223029F756C1C9
:104D6000891307C0F801E80FF11D96899330E1F629
:104D70000BC09817C8F28031B8F6891738F48F5FE6
:104D8000D80196968C93B9CF803170F6D801ED9109
:104D9000FC910190F081E02DB8016A5E7F4FC8015F
:104DA00009956B017C01672B682B692B19F48EE840
:104DB0009DE03AC1E0911D04F0911E041682158217
:104DC00060E080810E948E22E0912104F091220413
:104DD000168215821086178212861186AE014F5FE9
:104DE0005F4F84E1DA011D928A95E9F786E490E04D
:104DF0009A83898361E070E0CF010E94E624E8EDA8
:104E0000F4E081919191A191B191C816D906EA0679
:104E1000FB0609F4FEC0B4E0EC3EFB0791F7C7CFF8
:104E2000F801C7A0D0A4E1A4F2A483A494A4A5A4EB
:104E3000B6A426013701481859086A087B0823A937
:104E400034A945A956A9211531054105510541F45B
:104E500020912E0530912F0540913005509131055C
:104E6000A8EEB3E00E9457326415750586059705D4
:104E700028F089288A288B2809F0E7C0F101808171
:104E80009181A281B381C816D906EA06FB0650F4C7
:104E9000F80187A590A9A1A9B2A9892B8A2B8B2BF0
:104EA00009F0A2C080E79DE00E949825D8019B965A
:104EB000CD90DD90ED90FC909E97C114D104E1045B
:104EC000F104D1F097968D919D910D90BC91A02DFC
:104ED000BC01CD016C197D098E099F0928EE33E0D4
:104EE00040E050E00E943532CA01B90140E00E9422
:104EF000DF0F83E69DE002C08DE59DE00E949825CE
:104F00008BE49DE00E949825F801C7A4D0A8E1A8F1
:104F1000F2A8C114D104E104F104C1F087A190A565
:104F2000A1A5B2A5BC01CD016C197D098E099F090F
:104F300028EE33E040E050E00E943532CA01B9016A
:104F400040E00E94DF0F8EE39DE002C088E39DE019
:104F50000E9498258DE29DE00E9498250E94F528E8
:104F60000E94BB3320E030E04AE754E40E941A3349
:104F700020E030E040E752E40E941A336B017C01EC
:104F80000E945C1A882389F022E0B701A601809173
:104F90002504909126040E9442136DE173E08091F4
:104FA0002504909126040E94081322E0B701A6016F
:104FB00087E294E00E9442136DE173E087E294E09F
:104FC0000E940813D80155966C9181E0682785E00E
:104FD0000E948E22F80187A190A5A1A5B2A587A75E
:104FE00090ABA1ABB2AB31C0E98DFA8D80819181DC
:104FF000A281B381C816D906EA06FB0630F1D801B2
:1050000055966C9185E00E948E221FC09111B7CEFB
:10501000A9CEF80187A190A5A1A5B2A583A794A7C1
:10502000A5A7B6A78CEA9DE00E94982541E0C7019C
:10503000B6010E94DF0FF801E55BFF4FC082D1820D
:10504000E282F382C8010E9424106C960FB6F89495
:10505000DEBF0FBECDBFDF91CF911F910F91FF90AB
:10506000EF90DF90CF90BF90AF909F908F907F9008
:105070006F905F904F903F902F900895CF92DF9266
:10508000EF92FF926B017C01E0913704F0913804BC
:1050900082E08083C11481EED806E104F104B1F00E
:1050A00060E079E08DE390E0A70196010E9435323F
:1050B000DA01C9010197A109B109B695A79597959C
:1050C00087959C01211580E13807B8F0E0913704FD
:1050D000F0913804108260E874E88EE190E0A70156
:1050E00096010E943532DA01C9010197A109B1097F
:1050F000B695A795979587959C01E0913304F0911B
:1051000034043083E0913504F0913604208310920A
:105110003F04E0913B04F0913C0486E08083E09101
:105120003904F0913A04808180618083E0913904F0
:10513000F0913A04808188608083E0913904F09195
:105140003A04808180688083E0913904F0913A04C8
:1051500080818F7D8083FF90EF90DF90CF900895C6
:10516000CF93DF93EC018EEE94E00E94AA17892B77
:1051700031F064E17DE087E294E00E944314FE0197
:10518000B79688E1DF011D928A95E9F7789611823A
:105190001082CD5BDF4F19821882DF91CF91089585
:1051A0003FB7F89480915F0590916005A0916105EB
:1051B000B091620526B5A89B05C02F3F19F0019656
:1051C000A11DB11D3FBFBA2FA92F982F8827820F8D
:1051D000911DA11DB11DBC01CD0142E0660F771FDD
:1051E000881F991F4A95D1F708952FB7F8946091B9
:1051F0005B0570915C0580915D0590915E052FBF08
:1052000008951F920F920FB60F9211242F933F9380
:105210008F939F93AF93BF9380915B0590915C05B3
:10522000A0915D05B0915E0530915A0523E0230FF2
:105230002D3720F40196A11DB11D05C026E8230FCE
:105240000296A11DB11D20935A0580935B05909392
:105250005C05A0935D05B0935E0580915F0590911C
:105260006005A0916105B09162050196A11DB11D77
:1052700080935F0590936005A0936105B0936205EC
:10528000BF91AF919F918F913F912F910F900FBE42
:105290000F901F901895CF93DF93CDB7DEB7C15510
:1052A000D1090FB6F894DEBF0FBECDBF789484B598
:1052B000826084BD84B5816084BD85B5826085BD12
:1052C00085B5816085BD80916E00816080936E00A0
:1052D0001092810080918100826080938100809192
:1052E0008100816080938100809180008160809343
:1052F00080008091B10084608093B1008091B00003
:1053000081608093B00080917A00846080937A00FD
:1053100080917A00826080937A0080917A00816027
:1053200080937A0080917A00806880937A0010924E
:10533000C10062E08CE00E94862360E071EE80E0B4
:1053400090E00E943E286FE070E080E090E00E94D4
:1053500064246DE674E087E294E00E94431482E7DF
:1053600091E00E94721A6BE472E087E294E00E947E
:1053700043148CE00E946522892B19F469E272E0E3
:1053800066C06FE271E087E294E00E9443146EEE23
:10539000E62E64E0F62E00E213E0C8010E940F3210
:1053A000D7018D937D010F5F1F4F0C38B3E01B07B2
:1053B000A1F780E293E09093EF048093EE048EEEE9
:1053C00094E00E94D516811106C06DE071E087E27D
:1053D00094E00E9443146DEF70E087E294E00E9435
:1053E0001F1460E273E087E294E00E94D42462EE2E
:1053F00070E087E294E00E941F1462EF74E087E29D
:1054000094E00E941D146AE871E087E294E00E9433
:1054100008136DEC70E087E294E00E941F144AE0EC
:1054200050E06CE670E087E294E00E94291362ECA1
:1054300070E087E294E00E941F144AE050E06CE6BE
:1054400070E087E294E00E9429136EEA70E087E240
:1054500094E00E94431469E072E087E294E00E94C5
:105460001F1462EF74E087E294E00E941D1467EF5E
:1054700071E087E294E00E941F1462E075E087E229
:1054800094E00E941D146CEE71E087E294E00E94AB
:105490001F146091F0047091F10440E150E087E244
:1054A00094E00E9429138EEE94E00E94D516882382
:1054B00031F08CE00E946522892B09F070C46DEAFE
:1054C00071E087E294E00E9443148CE690E00E9431
:1054D000B12F8C010E94250F40E250E069E072E09C
:1054E000C80144960E94F83180E293E0F80191836C
:1054F00080838CE00E946522892B19F0C8010E94EC
:105500001A1763E871E087E294E00E941F14B80163
:105510006C5E7F4F87E294E00E941D146AE871E0A0
:1055200087E294E00E94081365E471E087E294E06A
:105530000E94431487E294E00E942D1160914A0575
:1055400070914B0580914C0590914D050E943E282D
:105550006FE070E080E090E00E9464246BE374E010
:1055600087E294E00E941F14C0904A05D0904B053A
:10557000E0904C05F0904D05F7FE0EC06DE287E21D
:1055800094E00E943B1344275527BA014C195D094A
:105590006E097F092AE003C02AE0B701A60187E26D
:1055A00094E00E94BB1287E294E00E94041369E237
:1055B00074E087E294E00E941F1462E075E087E2E5
:1055C00094E00E941D146EE174E087E294E00E9472
:1055D0001F144AE050E06CE670E087E294E00E941D
:1055E000291363E074E087E294E00E941F146CE8E2
:1055F00071E087E294E00E941D1460E074E087E2AD
:1056000094E00E941F146AE971E087E294E00E942E
:10561000081362E08BE00E9486238BE00E946522E3
:105620008C016DEE73E087E294E00E941F14B801D4
:1056300087E294E00E94D424012B61F46CEC73E0C7
:1056400087E294E00E94431481E090E09093390552
:105650008093380587E294E00E94041367E274E0C7
:105660008EEE94E00E94B20E87E294E00E94041352
:105670008EEE94E00E94AA17892B21F080EB91E036
:105680000E94721A8DE290E00E94B12F8C0120E0FE
:1056900030E044EC51E068E070E00E942724109371
:1056A0001E0400931D048DE290E00E94B12F8C0136
:1056B00020E030E047EC51E067E070E00E942724F2
:1056C0001093200400931F048DE290E00E94B12FFC
:1056D0008C0120E030E04AEC51E066E070E00E948E
:1056E000272410932204009321048DE290E00E946D
:1056F000B12F8C0120915605309157054DEC51E0AA
:1057000069E070E00E9427241093C5030093C4034E
:105710008FE190E00E94B12F8C0143E062E00E9493
:10572000C22310932604009325048FE190E00E9489
:10573000B12F8C0144E164E00E94C2231093BD03A9
:105740000093BC03FE0131961F01CF010E94C80FD8
:105750008EEE94E00E94AA17892B21F080ED91E053
:105760000E94721A6AE375E0CE0103960E944C35DE
:10577000892BD1F1C1010E94B10F8EEE94E00E94FD
:10578000AA17892B21F080ED91E00E94721A6AE33A
:1057900075E0CE0103960E944C35892B41F481E5DA
:1057A00090E00E94B12F7C010E94B10F24C0C10182
:1057B0000E949B0F8EEE94E00E94AA17892B21F085
:1057C00080ED91E00E94721A6AE375E0CE010396C3
:1057D0000E944C35892B41F481E590E00E94B12F65
:1057E0007C010E949B0F07C081E590E00E94B12FD1
:1057F0007C010E94C80F8701F092BB03E092BA03BC
:10580000F701E15BFF4F8091BC039091BD03918351
:10581000808385E490E00E94B12F5C0124E1822E18
:10582000FC013296DF01282D1D922A95E9F7EE241E
:10583000EA94FE2CDC015796FC92EE9256974BE0D0
:10584000C42E41E0D42E1196DC92CE9287E294E0F1
:1058500059969C938E9358975B961C930E935A97E8
:10586000F501178E10A211A212A293961D921D92FD
:105870001D921C92969758E1952EB796DF01292D1F
:105880001D922A95E9F77896118210823296F1825C
:10589000E08232961182108243E050E061EE71E0C6
:1058A000C5014C960E94F831B092C103A092C0038A
:1058B00085E490E00E94B12F8C018091BA03909111
:1058C000BB032091250430912604F8013296DF01B4
:1058D0001D928A94E9F7F801F78AE68AD182C0829C
:1058E000318F208F938F828F178E10A211A212A258
:1058F00013A214A215A216A2B796DF011D929A94C4
:10590000E9F77896118210823296F182E08232961F
:105910001182108243E050E064EE71E0C8014C96C1
:105920000E94F8311093BF030093BE0388E090E01B
:105930000E94B12F8C01E090C403F090C503C09089
:10594000BA03D090BB038091360590913705823021
:10595000910529F480E090E00E940F3290E0F80178
:1059600091838083D382C2828DE194E09583848386
:10597000F782E6821093C3030093C2038EEE94E095
:105980000E94AA17892B21F087EE91E00E94721ADB
:105990000091C2031091C30361E08DE00E94862351
:1059A00062E672E087E294E00E941F14D8016D91D4
:1059B0007C9187E294E00E94D424F80160818DE01C
:1059C0000E948E22D8018D919C9111971496ED9191
:1059D000FC911597892B19F08281938102C08081F7
:1059E00091810E94AA1A40914E0550914F056091F5
:1059F00050057091510580912504909126040E94D4
:105A00006B1F6BE673E087E294E00E9443146FE043
:105A100073E087E294E00E94431494ECE92E94E052
:105A2000F92E0CEB12E0C8010E940F32F7018193AE
:105A30007F010F5F1F4F063EF2E01F07A1F78CEBBF
:105A400092E09093C5048093C40484EC94E00E9497
:105A50005815811106C06DEE72E087E294E00E9455
:105A600043146DED72E087E294E00E941F146CEB2A
:105A700072E087E294E00E94D42462EC72E087E254
:105A800094E00E941F1468EC74E087E294E00E94A6
:105A90001D146AE871E087E294E00E9408136DEA41
:105AA00072E087E294E00E941F144AE050E06AE24C
:105AB00070E087E294E00E94291362EA72E087E2D4
:105AC00094E00E941F144AE050E06AE270E087E22E
:105AD00094E00E9429136EE872E087E294E00E944D
