:100000000C948F050C94B7050C94B7050C94F4254B
:100010000C94F4250C94F4250C94B7050C94A924A5
:100020000C94B7050C94B7050C94B7050C94B70560
:100030000C94B7050C94B7050C94B7050C94B70550
:100040000C94BC270C94B7050C94C2250C949C25E9
:100050000C94B7050C94B7050C94B7050C94B70530
:100060000C94B7050C94B705A908B008B608CD08DC
:10007000E308F608FA08230927093709160E210EA6
:100080002C0E370E420E5F0E660E6D0E720E7D0E3A
:10009000880E930E9A0EA10E74118D11A611BF1128
:1000A000DA11F511F811FB1123123E1259127412D4
:1000B00077127D1243616C6C696E67204545505222
:1000C0004F4D2E7570646174652077697468207077
:1000D000726F78696D6974795F73746174653A20C1
:1000E00000292000465245452052414D2028004D10
:1000F000656E753A3A636C65617253657269616CDD
:10010000506F72742829004D656E753A3A726573A6
:100110006574496E7075744275666665722829004B
:100120004D656E753A3A67657454616746726F6DD6
:100130005363616E6E6572282920666F756E642048
:100140007461672000636865636B53657269616CF5
:10015000506F727420454F4C20696E64783A2000CD
:10016000636865636B53657269616C506F72742864
:1001700029207263766420627974653A2000616494
:100180006454616728292061626F727465643A2043
:10019000496E76616C696420636F646500616464B4
:1001A0005461672829207375636365737300616404
:1001B000645461672829206661696C65643A20444B
:1001C00075706500616464546167282920666169FF
:1001D0006C65643A2046756C6C00616464546167B8
:1001E000282920006661696C65642C207461672091
:1001F0006973206475706C69636174650066616918
:100200006C65642C20746167206C69737420697359
:100210002066756C6C0061626F727465642C206975
:100220006E76616C6964207461672D6964207374F3
:1002300072696E670073756363657373004164640C
:10024000546167282920726573756C743A200054D4
:10025000616720656E74657265643A200064656C40
:10026000657465546167496E64657828293A200091
:1002700044656C65746554616728292072657375DF
:100280006C743A200064656C657465546167282954
:100290002061626F72746564004D656E753A3A64F0
:1002A000656C65746554616728290064656C6574C4
:1002B00065416C6C5461677328290064656C6574D2
:1002C00065416C6C5461677328292061626F727498
:1002D00065640075706461746553657474696E67F4
:1002E00028292063616C6C20746F20532E75706414
:1002F00061746553657474696E6728292066616945
:100300006C65640075706461746553657474696EBE
:100310006728292061626F72746564004D656E758F
:100320003A3A75706461746553657474696E6728D0
:10033000293A20004D656E753A3A62797465546FBA
:1003400041736369694368724E756D2072637664A8
:1003500020627974653A20004D656E753A3A6D6594
:100360006E754164645461672829004D656E753A65
:100370003A6D656E7544656C6574655461672829CE
:10038000004D656E753A3A6D656E7544656C6574C1
:1003900065416C6C5461677328290046726565205D
:1003A0004D656D6F72793A20004D656E753A3A6D04
:1003B000656E7553686F77467265654D656D6F72D2
:1003C000792829004D656E753A3A6D656E755265EE
:1003D000626F6F742829006D656E7553656C656377
:1003E0007465644D61696E4974656D2062797465E8
:1003F0007320746F206E756D3A20006D656E7553B5
:10040000656C65637465644D61696E4974656D20E2
:100410007263766420646174613A200053746F7271
:100420006167653A3A4C6F616428292063686563A7
:100430006B73756D206D69736D61746368005365CE
:100440007474696E67733A3A4C6F61642829207539
:1004500073696E67206C6F61646564207365747482
:10046000696E677320270053657474696E67733A09
:100470003A4C6F61642829207573696E6720646542
:100480006661756C742073657474696E6773202778
:100490000053657474696E67733A3A4C6F616428EF
:1004A000292063686B736D206D69736D6174636877
:1004B000004661696C7361666520656E61626C659A
:1004C000642C20736B697070696E672073746F722F
:1004D00065642073657474696E6773004C6F616442
:1004E000696E67207265616465723A20004C6F61C5
:1004F00064696E67207265616465723A20005365B5
:100500007474696E67206F75747075742073776981
:10051000746368207065722070726F78696D697499
:10052000795F73746174653A200053746172746901
:100530006E6720436F6E74726F6C6C6572207769A2
:10054000746820726561646572200053746F726113
:1005500067653A3A4C6F6164282920636865636B6C
:1005600073756D206D69736D6174636800546167A4
:10057000733A3A4C6F6164282920636865636B7332
:10058000756D206D69736D617463682C206372658D
:100590006174696E67206E6577207461672D73657D
:1005A000740054616773206C6F6164656420004D52
:1005B000656E753A3A426567696E282900496E6929
:1005C0007469616C697A65642073657269616C2015
:1005D000706F72742077697468206C6F61646564F1
:1005E0002073657474696E673A200027206F662057
:1005F00073697A65200027207769746820636865CD
:10060000636B73756D20273078004C6F616465648F
:100610002053657474696E677320270044656275A2
:10062000672070696E207374617475733A20002CB2
:100630002000426F6F74696E6720524649442070F3
:10064000726F78696D6974792073656E736F722C3F
:100650002000496E697469616C697A65642064651B
:100660006661756C742073657269616C20706F725D
:100670007420402035373630302062617564005276
:100680004649442070726F78696D6974792073658A
:100690006E736F72207072652D626F6F74006C6F75
:1006A000675F746F5F62740061646D696E5F73741D
:1006B00061727475705F74696D656F757400746FC5
:1006C0006E655F6672657175656E637900726669E5
:1006D000645F626175640062745F62617564006882
:1006E000775F73657269616C5F62617564006465F0
:1006F0006661756C745F72656164657200656E61D8
:10070000626C655F64656275670070726F78696DB1
:100710006974795F73746174655F73746172747501
:10072000700061646D696E5F74696D656F757400EA
:100730007265616465725F6379636C655F68696740
:10074000685F6475726174696F6E0072656164657B
:10075000725F6379636C655F6C6F775F64757261FC
:1007600074696F6E007461675F726561645F736C5A
:100770006565705F696E74657276616C007461673F
:100780005F6C6173745F726561645F74696D656FDE
:100790007574003A20006D656E7553656C65637401
:1007A000656453657474696E67207365742073653E
:1007B0006C65637465645F6D656E755F6974656DA6
:1007C00020746F3A20004D656E753A3A6D656E750E
:1007D00053656C656374656453657474696E6728EA
:1007E000290053656C65637465643A2000436D6449
:1007F0003A20004C6F6164696E67207265616465C0
:10080000723A20007D0765074B07300722070A0769
:10081000FD06EE06DF06D706CD06BE06A8069E0636
:100820002C2073697A65200053657474696E677350
:100830002C2063686B736D2030780000000000246A
:100840000027002A00000000080002010000030445
:1008500007000000000000000020746F2061646445
:10086000726573732000536176696E6720746167E7
:1008700073207769746820636865636B73756D2096
:100880003078002E20002C2073697A652000546196
:1008900067732C2063686B736D203078004D656E34
:1008A000753A3A6D656E754C697374546167732857
:1008B00029004D656E753A3A6D656E7553657474B1
:1008C000696E677328290029005265616465727337
:1008D0002028004D656E753A3A6D656E754C6973EA
:1008E00074526561646572732829004E2F41003986
:1008F0002E20425420636F6D6D616E6400382E208F
:100900005265737461727400372E204C69737420C1
:100910007265616465727300362E2053686F7720AC
:1009200066726565206D656D6F727900352E205396
:10093000657474696E677300342E2044656C657449
:100940006520616C6C207461677300332E204465F0
:100950006C6574652074616700322E2041646420E8
:1009600074616700312E204C697374207461677361
:1009700000302E2045786974004D656E75004D6518
:100980006E753A3A6D656E754D61696E2829003A4B
:1009900020004D656E753A3A6275666665725265FD
:1009A00061647928293A2000000000002300260015
:1009B000290000000000250028002B000404040486
:1009C00004040404020202020202030303030303F9
:1009D00001020408102040800102040810200102D6
:1009E00004081020524649442061646D696E2063FA
:1009F0006F6E736F6C652C20007570646174654157
:100A0000646D696E54696D656F757428293A2000AC
:100A10004D656E753A3A726561644C696E655769E9
:100A2000746843616C6C6261636B282900456E7465
:100A30006572696E672072756E206D6F6465002047
:100A400073657474696E672072756E5F6D6F64652F
:100A5000203D3E2030004D656E753A3A65786974E8
:100A600041646D696E2829004D454E55204C4F4F0D
:100A70005020454E44004D454E55204C4F4F502080
:100A8000424547494E3A20002C20757074696D65C7
:100A900020006E6576657200732061676F002C2000
:100AA0006379636C656420006E65766572007320FF
:100AB00061676F006379636C65526561646572504C
:100AC0006F776572282920746167207265616420E0
:100AD00000556E617574686F72697A6564206F7213
:100AE00020696E76616C6964207461673A20004108
:100AF0007574686F72697A6564207461673A200062
:100B000053657474696E67733A3A73617665282920
:100B100020726573756C743A20000200B32D1124A5
:100B20001FBECFEFD8E0DEBFCDBF13E0A0E0B1E045
:100B3000EAEAF8E602C005900D92AA3DB107D9F79E
:100B400025E0AAEDB3E001C01D92AC37B207E1F792
:100B500015E0CFE8D5E004C02197FE010E942331C3
:100B6000CE38D107C9F70E9406280C9453340C9450
:100B70000000CF93DF93EC0184EC94E00E946F2798
:100B8000892B31F067E071E08DEF93E00E948A25B8
:100B9000FE01B79688E1DF011D928A95E9F7789604
:100BA00011821082CD5BDF4F19821882DF91CF91C5
:100BB0000895CF92DF92EF92FF920F931F93CF93FE
:100BC000DF93CDB7DEB768970FB6F894DEBF0FBEE0
:100BD000CDBF8C016C0183E4C80ED11CD6018D9170
:100BE0009C91892B09F488C0F801828D938D0E9415
:100BF000431FD8015A96ED91FC915B9783AD94AD5C
:100C0000A5ADB6AD892B8A2B8B2B09F475C084EC6E
:100C100094E00E946F27892B31F060E271E08DEF44
:100C200093E00E94662584EC94E00E946F27892B54
:100C300091F0D8015A96ED91FC915B9743AD54AD7C
:100C400065AD76AD2AE08DEF93E00E9405258DEF2E
:100C500093E00E944E25D8015A96ED91FC915B9746
:100C600086AD8F9385AD8F9384AD8F9383AD8F9336
:100C700080E991E09F938F93FE0131967F01FF936E
:100C8000EF930E94A03148E150E0B7017801F7E20C
:100C9000EF0EF11CC7010E944030F7010FB6F89427
:100CA000DEBF0FBECDBF80E090E041919C012F5F81
:100CB0003F4F41110EC0F801E80FF91F4AE047A36A
:100CC000F801E20FF31F17A2F801FF96318320838A
:100CD00004C0C9012831310541F7D8015A968D91D8
:100CE0009C915B97FC0113AE14AE15AE16AE0E943C
:100CF000E916D6011D921C9264E971E0C8014C9678
:100D00000E945831892B21F5F801E08CF18CC70144
:100D10000E946E268091FB039091FC03E816F90671
:100D200039F062E070E080E090E00E941D1DF2CF9B
:100D3000D6018D919C91892B29F461E070E080E0CF
:100D400090E004C06AE070E080E090E00E941D1D29
:100D5000F801808D918DDC01ED91FC910084F1858D
:100D6000E02D0995892B09F45FC08091F1039091E2
:100D7000F203892B21F41093F2030093F1034091C5
:100D800008055091090560910A0570910B05C8018D
:100D90000E94FD1EF60111821082C801CF966C01DF
:100DA000D80158968D919C915997DC01ED91FC9159
:100DB0000084F185E02D0995892BB1F1C8010E94CD
:100DC0005618811131C0F801808D918DDC01ED91B3
:100DD000FC910284F385E02D0995F82E84EC94E0D3
:100DE0000E946F27892B31F060E671E08DEF93E070
:100DF0000E94662584EC94E00E946F27892B41F0C5
:100E00006F2D0F2C000C770B8DEF93E00E94BD1817
:100E1000BBE1FB123FC08AE0F80187A310A681E086
:100E200090E0D6018D939C93C8010E9456188823A8
:100E300009F475C0B801695D7F4F48E150E0CE010B
:100E400001960E944030C8010E94B905D801ED9179
:100E5000FC910280F381E02DC8010995F801E08C36
:100E6000F18CD701ED91FC910190F081E02D6AE0C9
:100E7000C7010995C7010E944E25D801ED91FC914B
:100E80000680F781E02D41E0BE016F5F7F4FC80112
:100E9000099545C08091F1039091F2030817190755
:100EA00059F4F801808D918DDC01ED91FC91019058
:100EB000F081E02D6F2D0995F60180819181F80177
:100EC000E80FF91FF7A20196D6018D939C93BDE020
:100ED000FB1619F0EAE0FE1263CF84EC94E00E9466
:100EE0006F27892B31F065E471E08DEF93E00E946C
:100EF000662584EC94E00E946F27892B49F0D60187
:100F00006D917C91615071098DEF93E00E94BD1845
:100F1000D601ED91FC91E00FF11F17A241CF689629
:100F20000FB6F894DEBF0FBECDBFDF91CF911F91FA
:100F30000F91FF90EF90DF90CF900895CF93DF93C4
:100F4000EC0184EC94E00E946F27892B31F06FEE66
:100F500070E08DEF93E00E948A25888D998DDC01E9
:100F6000ED91FC910084F185E02D0995892B51F0DC
:100F7000888D998DDC01ED91FC910284F385E02D43
:100F80000995EBCFDF91CF9108958AE00E94501B25
:100F9000892BE1F480912105882339F08091F303B6
:100FA0009091F403892B59F413C08BE00E94501BDD
:100FB000892BA1F38091E4038111F0CF07C081E078
:100FC0002091F1033091F203232B19F080E0089572
:100FD00081E00895EF92FF920F931F93CF93DF93D9
:100FE00000D0CDB7DEB77C01209176053091770532
:100FF0002115310511F42CE735E08E010F5F1F4FED
:10100000021B130B64EE70E08DEF93E00E946625E7
:10101000B8018DEF93E00E948D1D61EE70E08DEFC1
:1010200093E00E946625B7018DEF93E00E94522560
:10103000C8010F900F90DF91CF911F910F91FF90FA
:10104000EF900895CF92DF92EF92FF920F931F934C
:10105000CF93DF931F92CDB7DEB77C016B0184EC99
:1010600094E00E946F27892B31F06BEF73E08DEFD6
:1010700093E00E94662584EC94E00E946F27892B00
:1010800029F0B6018DEF93E00E945225D6018C9194
:10109000898384EC94E00E946F27892B31F064E30C
:1010A00073E08DEF93E00E94662584EC94E00E944B
:1010B0006F27892B41F06981062E000C770B8DEF8D
:1010C00093E00E94BD188981805387010F5B1F4FF9
:1010D0008A3030F08FEF9FEFF8019183808315C045
:1010E0004AE050E060E070E0CE0101960E941A2FC5
:1010F0006F3F7F4F79F34AE050E060E070E0C60157
:101100000E941A2FD8016D937C9384EC94E00E9486
:101110006F27892B31F067ED73E08DEF93E00E942C
:10112000662584EC94E00E946F27892B39F0F80142
:10113000608171818DEF93E00E94BD18D801ED911F
:10114000FC91EA30F10508F096C0EC5CFF4F0C947E
:10115000233140E050E0BA01C7010E94FD1E8EC05D
:1011600020E030E0A90160E070E029C084EC94E068
:101170000E946F27892B31F068E573E08DEF93E0D3
:101180000E948A252DE73FE040E050E001E067E95A
:1011900071E0C7010E94CF1871C084EC94E00E94F6
:1011A0006F27892B31F06BE673E08DEF93E00E949F
:1011B0008A252DE03FE040E050E06DEC71E0C70192
:1011C0000E94481A5BC084EC94E00E946F27892B30
:1011D00031F061E873E08DEF93E00E948A2521EE03
:1011E0003EE040E050E067EE71E0E9CFC7010E94C9
:1011F000171A44C084EC94E00E946F27892B31F0C9
:1012000069EA73E08DEF93E00E948A2587EC93E012
:101210000E94EA078C016BE973E0F701808D918DE4
:101220000E946625B801D70158968D919C915997D7
:101230000E94BD18F701808D918D0E944E25C70137
:101240000E94F4181BC0C7010E946B1917C084ECE0
:1012500094E00E946F27892B31F064EC73E08DEFEE
:1012600093E00E948A25E0E0F0E0099507C0C701FD
:101270000E94CA1B03C0C7010E940F190F90DF9183
:10128000CF911F910F91FF90EF90DF90CF90089535
:10129000CF93DF93CDB7DEB764970FB6F894DEBF78
:1012A0000FBECDBFAE014F5F5F4F24E1FA01119237
:1012B0002A95E9F726ED31E03A8329832EE130E0E3
:1012C0003C832B8360E070E00E94B61D64960FB6ED
:1012D000F894DEBF0FBECDBFDF91CF910895CF93BD
:1012E000DF93CDB7DEB764970FB6F894DEBF0FBEBD
:1012F000CDBFAE014F5F5F4F24E1FA0111922A95F5
:10130000E9F726E430E03A8329833C832B8360E0CD
:1013100070E00E94B61D64960FB6F894DEBF0FBE53
:10132000CDBFDF91CF910895CF93DF93CDB7DEB7D7
:1013300064970FB6F894DEBF0FBECDBFAE014F5F0E
:101340005F4F24E1FA0111922A95E9F724EF31E089
:101350003A8329833C832B8360E070E00E94B61DB2
:1013600064960FB6F894DEBF0FBECDBFDF91CF916C
:101370000895CF93DF93CDB7DEB764970FB6F89497
:10138000DEBF0FBECDBFAE014F5F5F4F24E1FA015C
:1013900011922A95E9F760E070E00E94B61D64960C
:1013A0000FB6F894DEBF0FBECDBFDF91CF91089589
:1013B000FC01708767836115710581F481859285D1
:1013C000019692878187238534851216130634F49B
:1013D000281739071CF4168215820895DB01AA0F1D
:1013E000BB1FAE0FBF1F59968D919C915A9718162F
:1013F00019064CF4CB01019662E070E00E94F030D7
:101400009683858302C01682158285859685A78579
:10141000B089818B928BA38BB48B089580E090E090
:10142000FB0121913191BF011216130624F401969C
:101430008A309105A9F708958F929F92AF92BF923B
:10144000CF92DF92EF92FF92CF93DF93EC010E9455
:10145000B0276D877E878F87988BEF80F884898887
:101460009A88AB88BC88DC01CB0188199909AA0944
:10147000BB09F701EE0FFF1FEC0FFD1F818C928C53
:10148000092C000CAA08BB0888159905AA05BB05FC
:1014900098F0BE01675E7F4FCE010E940E0A019751
:1014A000E816F9061CF060E070E003C0B7016F5F5A
:1014B0007F4FCE010E94D8098D889E8881149104A7
:1014C00041F48F89988D892B09F0B8C16D8188818D
:1014D00019C2181419040CF0B1C18D819E81892B99
:1014E00009F49FC18881998120910001281721F07A
:1014F0002F3F09F079C204C0EAE1FBE0C49179C052
:1015000080930001EAE1FBE0C491CF3F09F46CC293
:10151000C13009F448C050F1C23009F06AC01092DD
:10152000B0001092B1002091B00022602093B00072
:101530002091B10021602093B1009C013327F90173
:10154000E454F64FE491F0E0EE0FFF1FEE54F64F37
:10155000459154915093250540932405F901E0539A
:10156000F64FE491E0932605C2E03AC214BC15BCE4
:1015700024B5226024BD25B5216025BD9C013327FB
:10158000F901E454F64FE491F0E0EE0FFF1FEE5442
:10159000F64F45915491F901E053F64FE491E093F1
:1015A000DB03C0E01DC210928000109281002091E8
:1015B0008100286020938100209181002160209388
:1015C00081009C013327F901E454F64FE491F0E0E7
:1015D000EE0FFF1FEE54F64F45915491F901E05381
:1015E000F64FE491E093DA0361E00E943F1CC1E012
:1015F000A6C0C7FDF9C161E00E943F1C8C2F8D7F02
:1016000009F09DC0092C000CAA08BB0860E072E13B
:101610008AE790E0A50194010E94043169017A01F2
:10162000DA01C9010197A109B1098F3F9105A1050F
:10163000B10509F00CF445C060E472E48FE090E07D
:10164000A50194010E940431BA01A9014150510938
:1016500061097109C230E9F44F3F51056105710517
:1016600009F00CF45DC160E970ED83E090E0A50144
:1016700094010E940431BA01A90141505109610944
:1016800071094F3F51056105710509F034F583E09B
:101690004FC04F3F510561057105B9F0B4F068E4E2
:1016A00078EE81E090E0A50194010E940431BA0136
:1016B000A9014150510961097109CC2309F432C1D2
:1016C00087C1AC01BD0181E001C082E0C11130C021
:1016D00095B5987F892B85BD6AC068E478EE81E076
:1016E00090E0A50194010E940431BA01A901415082
:1016F0005109610971094F3F51056105710509F0F3
:101700000CF40CC164E274EF80E090E0A501940158
:101710000E940431BA01A9014150510961097109BE
:101720004F3F51056105710511F008F02AC185E0B0
:101730009091B100987F892B8093B10032C0092C21
:10174000000CAA08BB0860E072E18AE790E0A501FE
:1017500094010E940431DA01C9010197A109B1097C
:10176000009721E0A207B10524F4AC01BD0181E09E
:101770000FC068E478EE81E090E0A50194010E943A
:101780000431BA01A901415051096109710983E08D
:10179000C13039F490918100987F892B809381002A
:1017A00018C0C130B1F0C23049F1C1111DC147BDEF
:1017B0008FEF9FEFDC018093E0039093E103A09310
:1017C000E203B093E30380916E00826080936E0029
:1017D0000BC150938900409388008FEF9FEFDC018D
:1017E0008093DC039093DD03A093DE03B093DF03CB
:1017F00080916F00826080936F00F6C04093B300C9
:101800008FEF9FEFDC018093270590932805A0932D
:101810002905B0932A058091700082608093700042
:10182000E3C08881DF91CF91FF90EF90DF90CF9060
:10183000BF90AF909F908F900C947E24EF88F88C8F
:101840001E141F040CF0D0C08D819E81892B09F4D9
:1018500052C00990D881C02D61E08C2F0E943F1C9E
:101860008FEFE816F10409F444C0FE01FF27EB5B9B
:10187000F74FE491E330F9F048F4E130B9F0E230A9
:10188000A1F584B5806284BDE8BCAEC0E730E9F064
:10189000E83019F1E43049F580918000806280934E
:1018A0008000F0928B00E0928A009EC084B5806830
:1018B00084BDE7BC99C080918000806880938000DF
:1018C000F0928900E09288008FC08091B00080681B
:1018D0008093B000E092B30087C08091B000806236
:1018E0008093B000E092B4007FC020E8E216F104DB
:1018F0003CF061E006C0C88161E08C2F0E943F1C73
:1019000060E08C2FDF91CF91FF90EF90DF90CF9030
:10191000BF90AF909F908F900C94101C84E008CFE4
:1019200082E006CF4F3F51056105710541F138F165
:1019300062E17AE780E090E0A50194010E94043121
:10194000BA01A90141505109610971094F3F51057F
:101950006105710591F088F0D701C6013AE0B595AF
:10196000A795979587953A95D1F7AC01BD01415060
:1019700051096109710985E0ABCE84E0A9CE83E00D
:10198000A7CE62E17AE780E090E0A50194010E9491
:101990000431BA01A90141505109610971094F3F50
:1019A00051056105710591F088F0D701C6012AE063
:1019B000B595A795979587952A95D1F7AC01BD0167
:1019C000415051096109710987E0B2CE86E0B0CE7D
:1019D0004F3F51056105710509F098F684E076CE18
:1019E00061E00E943F1C0ECEDF91CF91FF90EF90FF
:1019F000DF90CF90BF90AF909F908F900895FF920F
:101A00000F931F93CF93DF93EC01F62E088119817A
:101A1000C8010E945730F81621F06F2DC8010E94AE
:101A20005F30CE01DF91CF911F910F91FF9008950C
:101A3000CF93FC014281538113821282DC01BC01ED
:101A4000625A7F4F80E090E02C9130E0322F2227C5
:101A50001196CC9111972C2B8227932712966A17F7
:101A60007B0791F753834283CF9108951F93CF93C0
:101A7000DF93EC01162F0E94C507882389F0BE0171
:101A800080912205909123050E9464251123C1F0C5
:101A900067EC73E080912205909123050E94522506
:101AA000BE018DEF93E00E946425112389F067EC5D
:101AB00073E08DEF93E0DF91CF911F910C9452254D
:101AC000BE018DEF93E0DF91CF911F910C946425BF
:101AD000DF91CF911F9108951F93CF93DF93EC0176
:101AE000162F0E94C507882389F0BE018091220528
:101AF000909123050E9466251123C1F067EC73E0E5
:101B000080912205909123050E945225BE018DEF00
:101B100093E00E946625112389F067EC73E08DEF56
:101B200093E0DF91CF911F910C945225BE018DEF70
:101B300093E0DF91CF911F910C946625DF91CF91B7
:101B40001F910895AF92BF92CF92DF92EF92FF92D2
:101B50000F931F93CF93DF93CDB7DEB7A0970FB648
:101B6000F894DEBF0FBECDBF6C018B0184EC94E016
:101B70000E946F27892B31F06CE173E08DEF93E0C9
:101B80000E94662584EC94E00E946F2796012F5BEB
:101B90003F4F5901892B39F0F901608171818DEF37
:101BA00093E00E948D1D84EC94E00E946F27892BA6
:101BB00031F06EEF71E08DEF93E00E94642584ECCC
:101BC00094E00E946F27892B29F0B8018DEF93E0F4
:101BD0000E945225F80180818D3021F08A3011F069
:101BE000811104C061E084E093E0D0C0F501E080A1
:101BF000F180F1E0EF1AF108F701EE0FFF1FEC5F43
:101C0000F74F65917491CE0101960E9439302EE014
:101C1000E216F10408F0B7C0F701E25CFF4F4AE0BA
:101C200050E060E070E0C8010C9423310E941A2F4C
:101C30006093F8047093F9048093FA049093FB0482
:101C40008AC00E941A2F6093FC047093FD04809355
:101C5000FE049093FF047FC00E941A2F609300053A
:101C600070930105809302059093030574C00E9450
:101C70001A2F6093040570930505809306059093D1
:101C8000070569C00E941A2F6A3071058105910508
:101C900048F0609308057093090580930A059093B6
:101CA0000B0559C08AE090E0A0E0B0E08093080501
:101CB00090930905A0930A05B0930B054CC00E94B0
:101CC0001A2F70930D0560930C0545C00E941A2FC2
:101CD00070930F0560930E053EC00E941A2F60930B
:101CE000100539C00E941A2F6093110570931205D8
:101CF00080931305909314052EC00E941A2F6093B1
:101D0000150570931605809317059093180523C049
:101D10000E941A2F6093190570931A0580931B0572
:101D200090931C0518C00E941A2F70931E05609393
:101D30001D0511C00E941A2F7093200560931F0586
:101D40000AC00E941A2F21E0672B682B692B09F427
:101D500020E02093210540E250E061E072E088ED50
:101D600094E00E94403084EC94E00E942927409146
:101D700008055091090560910A0570910B05C6018F
:101D80000E94FD1E05C061E083ED92E00E946C0D93
:101D90008FEF9FEFF50191838083C6010E94171A90
:101DA000A0960FB6F894DEBF0FBECDBFDF91CF91E6
:101DB0001F910F91FF90EF90DF90CF90BF90AF9069
:101DC0000895CF93DF93EC01DB018C918F7D8935F2
:101DD00079F461E08BEA92E00E946C0D84E1EEEA16
:101DE000F4E0DF011D928A95E9F70E94E61A06C029
:101DF0006BEB72E0888D998D0E948A25888D998D74
:101E00000E944E2520E030E0A90160E070E0CE01A4
:101E10000E94481ADF91CF910895CF92DF92EF92FE
:101E2000FF920F931F93CF93DF93EC018B0184EC10
:101E300094E00E946F27892B31F069E972E08DEF01
:101E400093E00E948A254AE050E060E070E0C8011B
:101E50000E941A2F6B017C01CB01181619064CF455
:101E6000F80120812D3029F02A3019F065307105F4
:101E70003CF065E872E0888D998D0E948A2528C023
:101E800086010150110960E08DE592E00E946C0D21
:101E9000C8010E94931DF4E0CF0ED11CC601880F2B
:101EA000991F880F991FFC01E656FB4F1082118283
:101EB000128213820E94E61A60E772E0888D998D83
:101EC0000E94662560E070E0888D998D0E94BD18A3
:101ED000888D998D0E944E2520E030E0A90160E0B8
:101EE00070E0CE010E94481ADF91CF911F910F91AF
:101EF000FF90EF90DF90CF9008958F929F92AF92D6
:101F0000BF92EF92FF920F931F93CF93DF938C01B9
:101F10007B01FB0180818D3009F468C08A3009F4AF
:101F200065C0882309F462C04AE050E060E070E0D8
:101F3000C7010E941A2F4B015C0160E08AED91E01D
:101F40000E946C0D41E0C501B4010E94A4168AE90B
:101F500094E00E949F26EEEAF4E0DF0180E090E04A
:101F60004D915D916D917D91452B462B472B09F04D
:101F7000019624E0A23CB20799F781149104A104D0
:101F8000B10431F461E08EE791E00E946C0D2EC047
:101F90008530910544F061E084EC91E00E946C0D85
:101FA000C2E0D0E025C041915191619171918416B8
:101FB0009506A606B70609F474C024E0E23CF207D1
:101FC00091F7880F991F880F991FFC01E255FB4F6D
:101FD00080829182A282B3820E94E61A61E08DE93A
:101FE00091E00E946C0DC0E0D0E002C0C1E0D0E002
:101FF0006FE472E0F801808D918D0E946625B70133
:10200000F801808D918D0E9452256DE372E0F801F8
:10201000808D918D0E946625BE01F801808D918D85
:102020000E948D1D6EEF71E0F801808D918D0E94F0
:102030006425F801808D918DC230D10559F0C330EF
:10204000D10559F0219719F065E372E008C066E107
:1020500072E005C06DEF71E002C064EE71E00E94B5
:102060006625F801808D918D0E944E25F801808DA6
:10207000918D0E944E25C8010E94B90520E030E0F4
:10208000A90160E070E0C8010E94481ADF91CF9179
:102090001F910F91FF90EF90BF90AF909F908F9006
:1020A000089561E08EEA91E00E946C0DC3E0D0E0FB
:1020B0009FCF0F931F93CF93DF9300D0CDB7DEB7A1
:1020C0008C018091F3039091F403892B01F5F801C1
:1020D000808191817183608386179707C1F0809119
:1020E0000C0590910D05029791F460E084EB90E06F
:1020F0000E946C0DF801808191810E94931DF8016E
:1021000060811A821982CE0101960E94FF0CF801AB
:10211000808191810F900F90DF91CF911F910F914E
:1021200008958DE792E0089587E792E008958AEB9D
:1021300092E0089560E070E0CB01089586E291E0BE
:102140000895FC012689378937FF04C060E070E0FC
:10215000CB010895220F331F220F331FFC01E20F22
:10216000F31F62817381848195810895CF93DF93FA
:10217000FC012689378937FF05C060E070E080E008
:1021800090E00EC0EC010190F081E02D0480F5811B
:10219000E02D09952E893F89215031093F8B2E8BE7
:1021A000DF91CF9108952FEF3FEFDC0157963C93DD
:1021B0002E935697FC019C012C5E3F4F1382128296
:1021C000158214823496E217F307C1F741155105C1
:1021D00011F460FF07C0DC01ED91FC910190F081EA
:1021E000E02D099408959F92AF92BF92CF92DF9213
:1021F000EF92FF920F931F93CF93DF93EC018B012C
:10220000942EE881F9810480F581E02D09956B0118
:102210007C018E899F8997FD3AC0570181E0A822F1
:10222000BB24C114D10421F4A114B10469F52FC059
:10223000992039F0E881F9810280F381E02DCE0107
:102240000995AB2871F0F701F595E795EC0FFD1FA7
:102250000190F081E02DEC0DFD1D0190F081E02D4D
:1022600001C0F601C70195958795B8018C0F9D1F98
:10227000DF91CF911F910F91FF90EF90DF90CF9062
:10228000BF90AF909F9009949920E9F2D3CFDF914E
:10229000CF911F910F91FF90EF90DF90CF90BF9063
:1022A000AF909F900895EF92FF920F931F93CF935B
:1022B000DF93EC01CA01122F032F7B0121E0E21A08
:1022C000F108F701EE0FFF1FEC5FF74F6591749176
:1022D0000E9439308EE0E816F10408F021C1F701C0
:1022E000E45BFF4F0C9423318FA98F938EA98F93BA
:1022F0008DA98F938CA98F9380E991E09F938F9301
:102300000F931F930E94A0318DB79EB708960FB60A
:10231000F8949EBF0FBE8DBF03C18BAD8F938AAD66
:102320008F9389AD8F9388AD8F9380E991E09F93D0
:102330008F930F931F930E94A0318DB79EB708967D
:102340000FB6F8949EBF0FBE8DBFEAC08FAD8F93BE
:102350008EAD8F938DAD8F938CAD8F9380E991E08F
:102360009F938F930F931F930E94A0318DB79EB7B9
:1023700008960FB6F8949EBF0FBE8DBFD1C0C05C4B
:10238000DF4F8B818F938A818F9389818F9388818F
:102390008F9380E991E09F938F930F931F930E94F7
:1023A000A0318DB79EB708960FB6F8949EBF0FBEAA
:1023B0008DBFB6C0CC5BDF4F8B818F938A818F93AB
:1023C00089818F9388818F9380E991E09F938F9388
:1023D0000F931F930E94A0318DB79EB708960FB63A
:1023E000F8949EBF0FBE8DBF9BC0C85BDF4F81C0FE
:1023F000C65BDF4F7EC0C45BDF4F2881822F90E039
:1024000001978330910540F4880F991FFC01EA5B26
:10241000FE4F8081918102C083EC92E09F938F9365
:102420001F922F938CEC92E09F938F930F931F93A7
:102430000E94A0318DB79EB708960FB6F8949EBF44
:102440000FBE8DBF6DC0C35BDF4F8B818F938A81C1
:102450008F9389818F9388818F9385EB93E09F93EE
:102460008F930F931F930E94A0318DB79EB708964C
:102470000FB6F8949EBF0FBE8DBF52C0CF5ADF4F2C
:102480008B818F938A818F9389818F9388818F939A
:1024900085EB93E09F938F930F931F930E94A0313E
:1024A0008DB79EB708960FB6F8949EBF0FBE8DBF2E
:1024B00037C0CB5ADF4F8B818F938A818F9389816D
:1024C0008F9388818F9385EB93E09F938F930F93E6
:1024D0001F930E94A0318DB79EB708960FB6F8944F
:1024E0009EBF0FBE8DBF1CC0C75ADF4F02C0C55A6A
:1024F000DF4F89818F93888104C0C35ADF4F888161
:102500001F928F9389EC92E09F938F930F931F9369
:102510000E94A0310F900F900F900F900F900F908E
:10252000DF91CF911F910F91FF90EF9008956F92DF
:102530007F928F929F92AF92BF92CF92DF92EF9253
:10254000FF920F931F93CF93DF93CDB7DEB76C014C
:102550004B016DB67EB6FC01F38044814F5F4F198D
:1025600050E04F5F5F4F8DB79EB7841B950B0FB642
:10257000F8949EBF0FBE8DBF0DB71EB70F5F1F4FE4
:1025800065E271E0C8010E944F31F401EF0DF11DC9
:102590007F0184EDA82E82E0B82EF601848190E0C0
:1025A00097012819390982179307C4F0F70121917F
:1025B0007F01F80101900020E9F71F922F93BF924D
:1025C000AF92CF0101979F938F930E94A0310F90FC
:1025D0000F900F900F900F900F90DFCF40E150E0E1
:1025E00060E070E0C8010E941A2F0FB6F8947EBE1A
:1025F0000FBE6DBEDF91CF911F910F91FF90EF90B5
:10260000DF90CF90BF90AF909F908F907F906F9012
:1026100008956F927F928F929F92AF92BF92CF92C6
:10262000DF92EF92FF920F931F93CF93DF93CDB77B
:10263000DEB76C014B016DB67EB6FC0103814481AF
:1026400050E010E0401B510B4F5F5F4F440F50E0D4
:102650004F5F5F4F8DB79EB7841B950B0FB6F894F5
:102660009EBF0FBE8DBFEDB7FEB731967F0165E20D
:1026700071E0CF010E944F31080D191D87EDA82E82
:1026800082E0B82EF601848190E09801281939097A
:1026900082179307C4F0F80121918F01F70101908F
:1026A0000020E9F71F922F93BF92AF92CF010197BD
:1026B0009F938F930E94A0310F900F900F900F90D7
:1026C0000F900F90DFCF40E150E060E070E0C70175
:1026D0000E941A2F0FB6F8947EBE0FBE6DBEDF911A
:1026E000CF911F910F91FF90EF90DF90CF90BF900F
:1026F000AF909F908F907F906F9008956F927F9290
:102700008F929F92AF92BF92CF92DF92EF92FF9201
:102710000F931F93CF93DF93CDB7DEB76C014B01BF
:102720006DB67EB6FC01F38044814F1950E04F5FD7
:102730005F4F8DB79EB7841B950B0FB6F8949EBF65
:102740000FBE8DBF0DB71EB70F5F1F4F65E271E063
:10275000C8010E944F31F401EF0DF11D7F0184ED9E
:10276000A82E82E0B82EF601848190E09701281906
:10277000390982179307C4F0F70121917F01F8010D
:1027800001900020E9F71F922F93BF92AF92CF01E3
:1027900001979F938F930E94A0310F900F900F90FD
:1027A0000F900F900F90DFCF40E150E060E070E0BD
:1027B000C8010E941A2F0FB6F8947EBE0FBE6DBEE0
:1027C000DF91CF911F910F91FF90EF90DF90CF900D
:1027D000BF90AF909F908F907F906F900895E09101
:1027E000ED03F091EE03808D918D0E945225E091D2
:1027F000ED03F091EE0367EC73E0808D918D0E9404
:1028000052258091ED039091EE030C94CA1BCF9357
:10281000DF93CDB7DEB7A0970FB6F894DEBF0FBE3B
:10282000CDBFFB0101900020E9F7AF01461B570B1C
:102830001A821982FE0133968EE1DF011D928A957C
:10284000E9F742505109CE0101960E946131E091B1
:10285000ED03F091EE036DEE77E0808D918D0E9497
:102860006625E091ED03F091EE03BE016F5F7F4FAF
:10287000808D918D0E945225E091ED03F091EE0341
:1028800067EC73E0808D918D0E94522529818091A3
:10289000EF039091F0032134A1F4BE016F5F7F4FED
:1028A000FC01808D918D0E9452254FEE53E160E036
:1028B00070E020E08091EF039091F0030E94BC1E35
:1028C0001CC0DC01ED91FC910084F185E02D40E01D
:1028D00050E0BA0109958091EF039091F0030E94B6
:1028E0009E078091EF039091F0030E94B9058091BB
:1028F000ED039091EE030E940F19A0960FB6F89485
:10290000DEBF0FBECDBFDF91CF910895AF92BF92D2
:10291000CF92DF92EF92FF920F931F93CF93DF93AB
:10292000CDB7DEB7A0970FB6F894DEBF0FBECDBF10
:102930008C017B014AE050E060E070E0C7010E943A
:102940001A2F6B015B0121E0A21AB10883E0A816DF
:10295000B104C0F562EE77E0F801808D918D0E94A0
:102960006625B501660F771FFB01EA5BFE4F6081AC
:102970007181F801808D918D0E94522567EC73E082
:10298000F801808D918D0E945225E2E1F8E0659179
:102990007491CE0101960E9439304AE050E060E027
:1029A00070E0C7010E941A2F6093100540E250E0CA
:1029B00061E072E088ED94E00E94403084EC94E0A5
:1029C0000E94292767EC73E0F801808D918D0E94A9
:1029D0005225CD2841F0FDE0EF16F10421F02AE068
:1029E000E216F10421F4C8010E940F1903C0C801C6
:1029F0000E946B19A0960FB6F894DEBF0FBECDBF34
:102A0000DF91CF911F910F91FF90EF90DF90CF90CA
:102A1000BF90AF900895CF92DF92EF92FF920F9305
:102A20001F93CF93DF93CDB7DEB7E0970FB6F8943F
:102A3000DEBF0FBECDBF7C016B0184EC94E00E9431
:102A40006F27892B31F066EC77E08DEF93E00E94E1
:102A50008A254AE050E060E070E0C6010E941A2F2B
:102A600087010F5B1F4FF8017183608384EC94E052
:102A70000E946F27892B31F066E977E08DEF93E0B4
:102A80000E94662584EC94E00E946F27892B39F020
:102A9000F801608171818DEF93E00E94BD18F8010B
:102AA00060817181CB0101970E9760F59E012F5DCA
:102AB0003F4FAE014F5F5F4F84EC94E00E94531193
:102AC000BE016F5F7F4FF701808D918D0E9464255D
:102AD00063E977E0F701808D918D0E946625BE0144
:102AE0006F5D7F4FF701808D918D0E94522522EA04
:102AF0003DE040E050E000E06CED72E0C7010E9474
:102B0000CF180FC0F6018081803321F08D3011F095
:102B10008A3021F4C7010E940F1903C0C7010E9427
:102B2000171AE0960FB6F894DEBF0FBECDBFDF9147
:102B3000CF911F910F91FF90EF90DF90CF9008956C
:102B40003F924F925F926F927F928F929F92AF923D
:102B5000BF92CF92DF92EF92FF920F931F93CF938A
:102B6000DF93CDB7DEB7C056D1090FB6F894DEBFFC
:102B70000FBECDBF2B0168E278E0C2010E9466253E
:102B800084EC94E00E94180DAC0160E070E020E15C
:102B9000C2010E94052560E278E0C2010E9466251C
:102BA0002AE04EE550E060E070E0C2010E94052599
:102BB000C2010E944E2501E010E08EE2382E3E0157
:102BC00083E0680E711C6E0191E5C90ED11C7E0177
:102BD000E1E3EE0EF11C99EF892E92E0992ECE01E1
:102BE00001965C011A821982F301832D11928A9554
:102BF000E9F79601A701B80184EC94E00E94531113
:102C0000DF92CF92FF92EF921F930F939F928F923A
:102C1000BF92AF920E94A031B501C2010E9452251D
:102C20000F5F1F4F0FB6F894DEBF0FBECDBF0F3042
:102C30001105C1F6C05ADF4F0FB6F894DEBF0FBEC4
:102C4000CDBFDF91CF911F910F91FF90EF90DF905B
:102C5000CF90BF90AF909F908F907F906F905F903C
:102C60004F903F900895CF93DF93EC0140E150E007
:102C700068E072E004960E94403080E293E099831D
:102C800088838EE190E0A0E0B0E08CAB9DABAEAB72
:102C9000BFAB88EE93E0A0E0B0E088AF99AFAAAFF9
:102CA000BBAF86E990E0A0E0B0E08CAF9DAFAEAFE7
:102CB000BFAFFE01E05CFF4F8FE090E0A0E0B0E02E
:102CC00080839183A283B38334968CE390E0A0E069
:102CD000B0E080839183A283B383349681E090E057
:102CE00091838083329611821082329610823196BF
:102CF00080E091EEA0E0B0E080839183A283B38373
:102D0000349680E895E2A0E0B0E080839183A283CE
:102D1000B383349680839183A283B383349680EF08
:102D20009AE091838083329687E090E0918380835C
:102D30003296108240E250E069EA72E0CE01449699
:102D4000DF91CF910C944030CF92DF92EF92FF92BF
:102D5000CF936B017C01C42F0E94C507882399F093
:102D60002AE0B701A60180912205909123050E94D7
:102D70000525CC23E1F067EC73E08091220590916A
:102D800023050E9452252AE0B701A6018DEF93E0AA
:102D90000E940525CC23B9F067EC73E08DEF93E03A
:102DA000CF91FF90EF90DF90CF900C9452252AE0C6
:102DB000B701A6018DEF93E0CF91FF90EF90DF90E8
:102DC000CF900C940525CF91FF90EF90DF90CF909E
:102DD0000895DC0156961C92FC01369620E1DF0135
:102DE0001D922A95E9F708950F93CF93DF93EC0195
:102DF0008AE391E0998388836A834B832C830D83D4
:102E0000FE01369680E1DF011D928A95E9F71E8A60
:102E10000E94B0276F8B788F898F9A8F1B8E1C8EA4
:102E20001D8E1E8E1F8E18A219A21AA21BA21CA2F2
:102E30001DA21EA21FA218A619A61AA61BA61CA692
:102E40001DA61EA61FA618AA19AA1AAA1BAA1CAA62
:102E50001DAA1EAA1FAA18AE19AE1AAE1BAE1CAE32
:102E60001DAE1EAEDF91CF910F9108950F93CF93BA
:102E7000DF93EC0101E02AE043E06EE00E94F416EB
:102E800082E491E09983888360E083EF97E00E9479
:102E90006C0D61E08AEB92E0DF91CF910F910C9481
:102EA000360DFC014115510511F460FF11C0268952
:102EB00037892F5F3F4F378B268B220F331F220F0F
:102EC000331FE20FF31F4283538364837583089596
:102ED00061E087E093E00C94360D40919C045091A2
:102EE0009D0410929D0410929C04EAE9F4E064ECC5
:102EF00074E080E090E0208130E0322F2227A18131
:102F00002A2B8227932732966E177F07A1F75093BB
:102F10009D0440939C040895833081F028F481300F
:102F200099F08230A1F008958730A9F08830B9F087
:102F30008430D1F4809180008F7D03C08091800027
:102F40008F7780938000089584B58F7702C084B511
:102F50008F7D84BD08958091B0008F7703C08091EC
:102F6000B0008F7D8093B00008950E946D1720916E
:102F70009C0430919D048217930739F49C012150E1
:102F8000310981E02E3F3F4F08F080E00895CF9354
:102F9000DF93EC019A01AB011B8E1A8E198E188EED
:102FA0001F8A1E8A60E079E08DE390E00E94043180
:102FB000F9012430310518F0C901039702C081E0FE
:102FC00090E09D8F8C8F6C85663108F06AC0C901D6
:102FD000969587958431910510F0439702C081E062
:102FE00090E09F8B8E8B369718F0C901059702C031
:102FF00081E090E0998F888FC901880F991F280F71
:10300000391F36952795369527952D30310518F0BF
:103010002C50310902C021E030E03B8F2A8F3091E3
:103020006800683058F021E06E3008F420E091E04C
:10303000892F01C0880F2A95EAF701C084E0832B0D
:10304000809368009C85983038F09E3040F096312F
:1030500048F020E030E008C02DE630E005C02BE667
:1030600030E002C02CE630E03C8B2B8B983030F403
:1030700081E001C0880F9A95EAF70EC0292F30E051
:103080009E3018F42850310902C02E50310981E0D9
:1030900001C0880F2A95EAF78D8B8C8D9D8D019745
:1030A000F1F7CE01DF91CF910C946E26FF920F9332
:1030B0001F93CF93DF93EC0184EC94E00E946F2781
:1030C000892B31F067E273E08DEF93E00E94642575
:1030D000A79618E1FC2E0D2F84EC94E00E946F2738
:1030E000892B41F06881062E000C770B8DEF93E061
:1030F0000E948D1D84EC94E00E946F27892B31F093
:103100006BE972E08DEF93E00E94642589918A302B
:1031100031F08D3021F01150F9F6C0E001C0C1E06E
:1031200084EC94E00E946F27892B31F067EC73E008
:103130008DEF93E00E945225CC23C1F084EC94E003
:103140000E946F27892B31F062E979E08DEF93E0DF
:103150000E94662584EC94E00E946F27892B31F051
:103160006F2D702F8DEF93E00E9452258C2FDF91F1
:10317000CF911F910F91FF9008950F931F93CF93BD
:10318000DF93EC010E948D1D8C01CE010E944E2523
:10319000800F911FDF91CF911F910F910895CF92D2
:1031A000DF92EF92FF920F93CF93DF93EC016901CF
:1031B0007A01FB018081882321F0888D998D0E94FE
:1031C0006425202FB701A601CE010E94BC1E6FE826
:1031D00079E0888D998DDF91CF910F91FF90EF90DD
:1031E000DF90CF900C9466250F93CF93DF93EC0183
:1031F000E881F9810084F185E02D40E050E0BA01DA
:10320000099522E238E040E050E000E06CE373E032
:10321000CE010E94CF18DF91CF910F910895CF93E7
:10322000DF93EC0184EC94E00E946F27892B31F04E
:103230006EE779E08DEF93E00E948A2569E779E0F7
:10324000888D998D0E948A2561E779E0888D998D16
:103250000E948A2564E679E0888D998D0E948A25EE
:1032600069E579E0888D998D0E948A256BE479E083
:10327000888D998D0E948A2568E379E0888D998DE3
:103280000E948A256CE279E0888D998D0E948A25BA
:1032900068E179E0888D998D0E948A2568E079E05F
:1032A000888D998D0E948A256DEF78E0888D998DA3
:1032B0000E948A256FEE78E0888D998D0E948A257C
:1032C00067EC73E0888D998D0E945225CE01DF91C5
:1032D000CF910C94F4182F923F924F925F926F927D
:1032E0007F928F929F92AF92BF92CF92DF92EF9296
:1032F000FF920F931F93CF93DF93CDB7DEB76897FD
:103300000FB6F894DEBF0FBECDBF5C0184EC94E035
:103310000E946F27892B31F063ED78E08DEF93E009
:103320000E948A25F501E08CF18C69EC78E0C701F8
:103330000E94662563E070E0C7010E948D1D67EC66
:1033400078E0C7010E948A2586E4C82E81E0D82E45
:1033500001E010E096E1292E2E01F3E04F0E511C02
:1033600021E5622E23E0722E38E1332ECE01019644
:103370004C011A821982F201822D11928A95E9F785
:10338000F60120813181F2E0CF0ED11C8091100531
:1033900090E08017910719F48FE493E002C08FEF5B
:1033A00091E03F932F939F938F931F930F937F925F
:1033B0006F921F923F929F928F920E947031B40140
:1033C000C7010E9452250F5F1F4F0FB6F894DEBF52
:1033D0000FBECDBF0430110561F667EC73E0F50157
:1033E000808D918D0E94522526E834E140E050E026
:1033F00000E06CE573E0C5010E94CF1868960FB637
:10340000F894DEBF0FBECDBFDF91CF911F910F911A
:10341000FF90EF90DF90CF90BF90AF909F908F90F4
:103420007F906F905F904F903F902F9008950F93F3
:10343000CF93DF93EC0184EC94E00E946F27892BFB
:1034400031F062EB78E08DEF93E00E948A25FE0177
:10345000EF5BFF4F8FEF9FEF91838083688D798DB6
:1034600084EC94E00E94A01567EC73E0888D998D40
:103470000E9452252BE035E140E050E000E06CE690
:1034800073E0CE010E94CF18DF91CF910F91089584
:103490008F929F92AF92BF92CF92DF92EF92FF9264
:1034A0000F931F93CF93DF93EC016B0149015A01F6
:1034B00084EC94E00E946F27892B31F06DE978E06D
:1034C0008DEF93E00E948A256EE878E0888D998DD3
:1034D0000E94662540919C0450919D0460E070E03C
:1034E00020E1888D998D0E94052566E878E0888D19
:1034F000998D0E946625088D198D2AE04AE250E0D8
:1035000060E070E0C8010E940525C8010E944E25B8
:103510008AE9E82E84E0F82E01E010E0F7018489C2
:103520009589A689B789892B8A2B8B2BD9F0B8016D
:10353000888D998D0E948D1D63E878E0888D998D26
:103540000E946625F70144895589668977892AE0B2
:10355000888D998D0E94052567EC73E0888D998D83
:103560000E9452250F5F1F4FF4E0EF0EF11C063052
:103570001105A1F667EC73E0888D998D0E945225A4
:1035800081149104A1F000E0A5019401B601CE01DF
:103590000E94CF18DF91CF911F910F91FF90EF9074
:1035A000DF90CF90BF90AF909F908F900895CE0105
:1035B000DF91CF911F910F91FF90EF90DF90CF900F
:1035C000BF90AF909F908F900C94F418EF92FF9261
:1035D0000F931F93CF93DF9300D0CDB7DEB78AE967
:1035E00094E00E949F2660E086E698E00E946C0DC1
:1035F0000E946D170E949D1E60E089E598E00E9480
:103600006C0D80919A0490919B040E94931D0EEA88
:1036100014E082ECE82E84E0F82EF80161917191BB
:10362000819191918F0140E00E94A41660E08BE9A6
:1036300092E00E94360DE016F10679F761E087EC22
:1036400093E00E94360D0E94B517811120C00E94A0
:103650006D1790939D0480939C0480919A0490919F
:103660009B040AE914E09C012A5934407901C701FE
:10367000800F911FF80161918F019A838983CE0198
:1036800001960E94FF0CF4E0043C1F0781F70F90A5
:103690000F90DF91CF911F910F91FF90EF900895C0
:1036A000CF93DF93282F30E0F901EB5BF74F849144
:1036B000F901E053F64FD491F901E454F64FC49167
:1036C000CC2391F081110E948C17EC2FF0E0EE0FCB
:1036D000FF1FE855F64FA591B491EC91ED2381E0E1
:1036E00090E021F480E002C080E090E0DF91CF9193
:1036F00008950F931F93CF93DF93EC0140911F0523
:1037000050912005052E000C660B770B0E94FD1EC4
:10371000CE010E94B9058E01045E1F4F64E872E07D
:10372000C8010E945831892B41F164E971E0C80158
:103730000E945831892B49F58AE00E94501B892B41
:10374000E1F464EE79E0888D998D0E94662563E34B
:1037500072E0888D998D0E9464256EEF71E0888DEE
:10376000998D0E94642565E873E0888D998D0E948B
:103770005225888D998D0E944E2542E258E060E0E6
:1037800070E020E0CE010E94BC1EDF91CF911F911E
:103790000F9108950F93CF93DF93EC018AE00E947D
:1037A000501B019759F58091EF039091F003DC01D4
:1037B000ED91FC910084F185E02D40E050E0BA01EC
:1037C00009958091EF039091F0030E949E078091EC
:1037D000EF039091F0030E94B90527E034E140E047
:1037E00050E000E06BE973E08091ED039091EE030F
:1037F0000E94CF18DF91CF910F9108956BEE78E082
:10380000888D998D0E948A2567EC73E0888D998D4B
:103810000E945225CE01DF91CF910F910C940F1988
:103820001F93CF93DF93282F30E0F901EB5BF74F25
:103830008491F901E053F64FD491F901E454F64F25
:10384000C491CC23C1F0162F81110E948C17EC2F4C
:10385000F0E0EE0FFF1FEE54F64FA591B4919FB725
:10386000F894111104C08C91D095D82302C0EC912A
:10387000DE2BDC939FBFDF91CF911F910895CF93F3
:10388000DF9390E0FC01E053F64F2491FC01E454F7
:10389000F64F8491882361F190E0880F991FFC0115
:1038A000E55CF74FC591D491FC01EE54F64FA5911C
:1038B000B491611109C09FB7F89488812095822343
:1038C0008883EC912E230BC0623061F49FB7F8948B
:1038D0008881322F309583238883EC912E2B2C9373
:1038E0009FBF06C08FB7F894E8812E2B28838FBF27
:1038F000DF91CF9108950F931F93CF93DF93EC0146
:10390000162F042F1B821A8288EE93E0A0E0B0E00D
:103910008C839D83AE83BF8380E591E09983888308
:103920001F8A1E8A198E188E1B8E1A8E1D8E1C8E53
:103930006E8D6E7F6D7F6E8F6695617081E06827FA
:10394000842F0E94101C61E0802F0E943F1C802F5A
:1039500090E0FC01E053F64FE491E88BFC01E45465
:10396000F64FE491F0E0EE0FFF1FEE54F64F859115
:1039700094919A8B898B60E0812F0E943F1C8E8DE1
:1039800081FD04C061E0812F0E94101C1C87812FE3
:1039900090E0FC01E053F64FE491ED87FC01E45424
:1039A000F64FE491F0E0EE0FFF1FE855F64F8591DA
:1039B00094919F878E87DF91CF911F910F910895EA
:1039C000EF92FF920F931F93CF93DF93EC018A0145
:1039D0007901798368831E821D8218861F821A8668
:1039E00019861C861B860E94B0276D877E878F876D
:1039F000988B198A1A8A1B8A1C8AFE8AED8A188E6D
:103A00001F8AFE01799684E1DF011D928A95E9F70C
:103A100043E050E0B801CE0102960E94403061E0E0
:103A200088810E943F1C60E08881DF91CF911F91C7
:103A30000F91FF90EF900C94101C8F929F92AF9279
:103A4000BF92CF92DF92EF92FF926B017C010E94B6
:103A50008B274B015C01C114D104E104F104F1F0A6
:103A60000E948B27DC01CB0188199909AA09BB099F
:103A7000883E9340A105B10570F321E0C21AD10838
:103A8000E108F10888EE880E83E0981EA11CB11CA5
:103A9000C114D104E104F10419F7DDCFFF90EF90D8
:103AA000DF90CF90BF90AF909F908F900895CF926E
:103AB000DF92EF92FF920F931F93CF93DF9377FFE5
:103AC00021C06A017B01EC01E881F9810190F0815C
:103AD000E02D6DE209958C0144275527BA014C1958
:103AE0005D096E097F092AE0CE010E940525800F3D
:103AF000911FDF91CF911F910F91FF90EF90DF9079
:103B0000CF9008952AE0DF91CF911F910F91FF9000
:103B1000EF90DF90CF900C940525AB01770F660BEB
:103B2000770B0C94571DCF93DF93EC010E94C507D0
:103B3000882379F0BE0180912205909123050E948F
:103B40008D1D67EC73E080912205909123050E9402
:103B50005225BE018DEF93E00E948D1D67EC73E04E
:103B60008DEF93E0DF91CF910C945225CF92DF92AD
:103B7000EF92FF920F931F93CF93DF93EC016B01B2
:103B80007A018B859C858E01075E1F4F86179707EC
:103B9000A1F44AE050E0B801C7010E944231892BEC
:103BA00061F1B701CE010E940E0A892B31F4B801F0
:103BB000CE010E940E0A892B01F11E821D821886F9
:103BC0001F821A861986DC86CB86D701F801CE01C2
:103BD0008D962D913D9121933193E817F907C9F7FF
:103BE00060E070E0CE01DF91CF911F910F91FF90C7
:103BF000EF90DF90CF900C94D809DF91CF911F9177
:103C00000F91FF90EF90DF90CF900895CF93DF93C7
:103C1000CDB7DEB764970FB6F894DEBF0FBECDBF49
:103C2000AE014F5F5F4F24E1FA0111922A95E9F747
:103C300024EF31E03A8329833C832B8363E070E0F7
:103C40000E94B61D64960FB6F894DEBF0FBECDBFBE
:103C5000DF91CF910895CF92DF92EF92FF926B01A7
:103C60007C01E0910D04F0910E0482E08083C11488
:103C700081EED806E104F104B1F060E079E08DE373
:103C800090E0A70196010E947D30DA01C9010197F9
:103C9000A109B109B695A795979587959C0121151E
:103CA00080E13807B8F0E0910D04F0910E04108225
:103CB00060E874E88EE190E0A70196010E947D30F3
:103CC000DA01C9010197A109B109B695A7959795A0
:103CD00087959C01E0910904F0910A043083E091FA
:103CE0000B04F0910C04208310921504E091110450
:103CF000F091120486E08083E0910F04F0911004AB
:103D0000808180618083E0910F04F09110048081B4
:103D100088608083E0910F04F091100480818068B6
:103D20008083E0910F04F091100480818F7D808367
:103D3000FF90EF90DF90CF900895CF92DF92EF92B7
:103D4000FF926C010E94C507E12CF12C882349F0F9
:103D500020E1B701A60180912205909123050E94E0
:103D6000052520E1B701A6018DEF93E0FF90EF90CC
:103D7000DF90CF900C940525CF92DF92EF92FF92C7
:103D80001F93CF93DF93EC016A017B01122F84EC28
:103D900094E00E946F27892B31F060E17AE08DEF8B
:103DA00093E00E948A25E881F9810190F081E02D5D
:103DB000B701A601CE010995E881F9810190F08152
:103DC000E02D49ED55E060E070E0CE010995CE01AF
:103DD0000E949E07CE010E94B905112331F0CD5BF0
:103DE000DF4F81E090E099838883DF91CF911F912D
:103DF000FF90EF90DF90CF900895CF92DF92EF92F7
:103E0000FF92CF93DF93EC016A017B018BA19CA110
:103E1000ADA1BEA184179507A607B707E9F084EC0A
:103E200094E00E946F27892B31F069EF79E08DEFE4
:103E300093E00E94662584EC94E00E946F27892B12
:103E400059F02AE0B701A6018DEF93E00E94052505
:103E50008DEF93E00E944E25CBA2DCA2EDA2FEA244
:103E600081E090E09093F4038093F3030E94B027E5
:103E70006F8F78A389A39AA3DF91CF91FF90EF90E2
:103E8000DF90CF9008954F925F926F927F928F92C2
:103E90009F92AF92BF92CF92DF92EF92FF920F93D9
:103EA0001F93CF93DF93CDB7DEB768970FB6F89423
:103EB000DEBF0FBECDBF8C015C012FE3A20EB11C93
:103EC000D5018D919C910E946E26F5012081318152
:103ED0008091FB039091FC032817390739F062E0C9
:103EE00070E080E090E00E941D1DEFCF64E170E083
:103EF00080E090E00E941D1D0E94B0276D8B7E8B9C
:103F00008F8B988FD80157966D937D938D939C934B
:103F10005A97C0900005D0900105E0900205F090FE
:103F200003055F964D905D906D907C9092974C0C40
:103F30005D1C6E1C7F1CF80143AA54AA65AA76AAD0
:103F400023A134A145A156A1F0910405E0910505F6
:103F50009090060580900705211531054105510512
:103F600021F42F2F3E2F492D582DA8EEB3E00E94AB
:103F70009F30460E571E681E791ED801D7964D9267
:103F80005D926D927C92DA974090FC045090FD0413
:103F90006090FE047090FF04A8EEB3E02F2F3E2F38
:103FA000492D582D0E949F30C40CD51CE61CF71CCF
:103FB000DC01CB018C0D9D1DAE1DBF1DF80187A737
:103FC00090ABA1ABB2AB838D948DA58DB68D2D89B1
:103FD0003E894F89588D281B390B4A0B5B0B4216C3
:103FE00053066406750608F0D8C1D5018D919C91E1
:103FF000DC01ED91FC910084F185E02D0995892B80
:1040000009F494C0F50180819181DC01ED91FC916E
:104010000084F185E02D0995892B09F4BEC1F801D2
:10402000F688FFE0FF1528F0D80112968C91F8165B
:1040300020F0C8010E94E916E5CFF5018081918149
:10404000DC01ED91FC910284F385E02D0995F801E6
:10405000EF0DF11D8683F8018689928191508111BF
:1040600004C02681223029F77AC1891307C0F801DC
:10407000E80FF11D96819330E1F60BC09817C8F256
:104080008031B8F6891738F48F5FD80156968C9333
:10409000B9CF803170F6D801ED91FC910190F0819B
:1040A000E02DB8016A5F7F4FC80109956B017C0163
:1040B000672B682B692B21F460E081ED9AE05EC1EB
:1040C000E091F503F091F6031682158260E080819D
:1040D0000E94101CE091F903F091FA0316821582F8
:1040E0001086178212861186AE014F5F5F4F84E102
:1040F000DA011D928A95E9F786E490E09A83898334
:1041000061E070E0CF010E94B61DEEEAF4E081911B
:104110009191A191B191C816D906EA06FB0609F45E
:1041200021C1B4E0E23CFB0791F7C6CFD801579616
:10413000CD90DD90ED90FC905A975B968D909D9080
:10414000AD90BC905E9726013701481859086A085F
:104150007B0893962D913D914D915C9196972115F9
:1041600031054105510541F42091040530910505C3
:104170004091060550910705A8EEB3E00E949F30DC
:10418000641575058605970528F089288A288B28E7
:1041900009F003C1F80187A990ADA1ADB2ADC81671
:1041A000D906EA06FB0650F4F801878D90A1A1A17B
:1041B000B2A1892B8A2B8B2B09F0C2C060E084EB63
:1041C0009AE00E946C0DD8015B96CD90DD90ED9049
:1041D000FC905E97C114D104E104F104D9F0579624
:1041E0008D919D910D90BC91A02DBC01CD016C19BC
:1041F0007D098E099F0928EE33E040E050E00E94DF
:104200007D30CA01B90140E00E94A41660E08EEA48
:104210009AE003C060E088EA9AE00E946C0D60E0DA
:104220008EE99AE00E946C0DF801C78CD0A0E1A045
:10423000F2A0C114D104E104F104C9F08789908D82
:10424000A18DB28DBC01CD016C197D098E099F092C
:1042500028EE33E040E050E00E947D30CA01B90111
:1042600040E00E94A41660E088E99AE003C060E0A4
:1042700082E99AE00E946C0D60E088E89AE00E9472
:104280006C0D0E94B0276B017C01198228EE33E08F
:1042900040E050E00E947D308CE3882E912CA12CD0
:1042A000B12CCA01B901A50194010E947D309F93F0
:1042B0008F937F936F93C701B60120E63AEE40E0FB
:1042C00050E00E947D30CA01B901A50194010E940D
:1042D0007D309F938F937F936F93C701B60120E842
:1042E0003EEE46E350E00E947D305F934F933F9354
:1042F0002F938DEA93E09F938F939E012F5F3F4F03
:1043000079013F932F930E94A03161E0C7010E9481
:10431000360DD80115966C9181E0682785E00E94E2
:10432000101CF8018789908DA18DB28D878F90A385
:10433000A1A3B2A30FB6F894DEBF0FBECDBF2DC0B0
:10434000F80183A994A9A5A9B6A9C816D906EA06B1
:10435000FB0618F1658185E00E94101C1EC09111BA
:1043600093CE85CEF8018789908DA18DB28D838FF4
:10437000948FA58FB68F60E08FEE9AE00E946C0D4F
:1043800041E0C701B6010E94A416F801C3AED4AE45
:10439000E5AEF6AEC8010E94E91668960FB6F8942D
:1043A000DEBF0FBECDBFDF91CF911F910F91FF9068
:1043B000EF90DF90CF90BF90AF909F908F907F90C5
:1043C0006F905F904F900895CF92DF92EF92FF929F
:1043D0000F931F93CF93DF93EC0184EC94E00E9442
:1043E0006F27892B31F066E77AE08DEF93E00E942A
:1043F000662584EC94E00E946F27892B39F0BE017A
:10440000645E7F4F8DEF93E00E9452250091F3038D
:104410001091F40301301105A9F44BA15CA16DA129
:104420007EA18091080590910905A0910A05B0919F
:104430000B05481759076A077B0721F460E08DE0F8
:104440000E94101C8091F1039091F203009721F0DB
:10445000C817D90709F062C00E94B027CF8CD8A036
:10446000E9A0FAA06C197D098E099F0928EE33E0B6
:1044700040E050E00E947D308BA19CA1ADA1BEA187
:1044800082179307A407B50718F0012B09F046C05F
:1044900084EC94E00E946F27892B31F066E57AE086
:1044A0008DEF93E00E948A25CE010E94B905E88134
:1044B000F9810084F185E02D40E050E0BA01CE01A1
:1044C00009958091F3039091F403892B39F160E011
:1044D000CE014C960E94360D61E08FE39AE00E9477
:1044E0006C0D61E087EC93E00E94360D61E08DE297
:1044F0009AE00E946C0D61E087EC93E00E94360D1B
:104500001092F4031092F30384EC94E00E946F275E
:10451000892B21F089EB93E00E94EA07E881F98179
:104520000680F781E02D40E060E070E0CE01099563
:1045300084EC94E00E946F27892B71F068E67AE0A2
:104540008DEF93E0DF91CF911F910F91FF90EF904E
:10455000DF90CF900C948A25DF91CF911F910F911E
:10456000FF90EF90DF90CF900895CF92DF92EF927F
:10457000FF920F931F93CF93DF936C017A018B010E
:10458000C0E0D0E0CE15DF0581F0D8016D918D013E
:10459000D601ED91FC910190F081E02DC6010995C5
:1045A000892B11F02196EECF7E01C701DF91CF91CB
:1045B0001F910F91FF90EF90DF90CF900895FC0135
:1045C000538D448D252F30E0842F90E0821B930B78
:1045D000541710F0CF96089501970895FC01918D1E
:1045E000828D981761F0828DDF01A80FB11D5D9655
:1045F0008C91928D9F5F9F73928F90E008958FEFC3
:104600009FEF0895FC01918D828D981731F0828D76
:10461000E80FF11D858D90E008958FEF9FEF0895CD
:10462000FC01918D228D892F90E0805C9F4F821B31
:1046300091098F73992708958DEF93E00E941023BD
:1046400021E0892B09F420E0822F0895FC01848D5C
:10465000DF01A80FB11DA35ABF4F2C91848D90E0AC
:1046600001968F739927848FA689B7892C93A08987
:10467000B1898C91837080648C93938D848D981311
:1046800006C00288F389E02D80818F7D80830895A4
:10469000EF92FF920F931F93CF93DF93EC0181E092
:1046A000888F9B8D8C8D981305C0E889F98980814E
:1046B00085FD26C0F62E0B8D10E00F5F1F4F0F7388
:1046C0001127E02E8C8DE8120CC00FB607FCFACF34
:1046D000E889F989808185FFF5CFCE010E942623E4
:1046E000F1CF8B8DFE01E80FF11DE35AFF4FF082F1
:1046F0009FB7F8940B8FEA89FB89808180620AC09A
:104700009FB7F894EE89FF896083E889F9898081F1
:104710008370806480839FBF81E090E0DF91CF91C0
:104720001F910F91FF90EF900895CF93DF93EC01CD
:10473000888D8823C9F0EA89FB89808185FD05C0C1
:10474000A889B9898C9186FD0FC00FB607FCF5CFFB
:10475000808185FFF2CFA889B9898C9185FFEDCF43
:10476000CE010E942623E7CFDF91CF91089580E00C
:1047700090E0892B29F00E941C2381110C940000E9
:1047800008952091FB033091FC032817390771F439
:1047900090916C0580916B05981741F0E0916C0544
:1047A000F0E0E55DFA4F808190E008958FEF9FEF94
:1047B000089508951F93CF93DF93DC015C968D914C
:1047C0009C915D97009739F421E030E013963C937B
:1047D0002E9312973BC05196ED91FC9152975096B3
:1047E0002C915097322F30951FB75E964C915E9763
:1047F000742F727041FD6095F8944081772311F019
:10480000422B01C043234083EC012197F1F748E09C
:10481000508160FF02C0522B01C053235083EC0132
:104820002197F1F76695415099F78081772319F028
:104830008323808302C0282B20831FBF5C968D9129
:104840009C915D970197F1F781E090E0DF91CF9126
:104850001F9108952091FB033091FC03281739071D
:1048600071F480916B0520916C0590E0805C9F4F06
:10487000821B910960E470E00E94F030089580E0AE
:1048800090E008952091FB033091FC03281739072D
:10489000B9F490916C0580916B05981789F0E091BF
:1048A0006C05F0E0E55DFA4F808120916C0530E009
:1048B0002F5F3F4F2F73332720936C0590E00895AF
:1048C0008FEF9FEF0895089580E090E008950E9493
:1048D0003D316115710579F0FB0101900020E9F788
:1048E0003197AF01461B570BDC01ED91FC91028023
:1048F000F381E02D099480E090E00895909100010B
:10490000891324C0EAE1FBE0E4919FEF909300015A
:10491000E130B9F098F0E230C9F4909170009D7FD9
:104920009093700091E09093B0009091B100987FC7
:1049300094609093B1001092B30008C010926E0082
:1049400005C090916F009D7F90936F0060E00C9484
:10495000101C1F920F920FB60F9211242F933F93AA
:104960004F935F936F937F938F939F93AF93BF9377
:10497000EF93FF938091270590912805A091290539
:10498000B0912A05892B8A2B8B2B51F1909126050A
:10499000E0912405F091250580818927808380910D
:1049A000270590912805A0912905B0912A05181690
:1049B00019061A061B06C4F4809127059091280554
:1049C000A0912905B0912A050197A109B109809309
:1049D000270590932805A0932905B0932A0504C0C4
:1049E000809100010E947E24FF91EF91BF91AF91D1
:1049F0009F918F917F916F915F914F913F912F91F7
:104A00000F900FBE0F901F9018958F929F92AF92AC
:104A1000BF92EF92FF920F931F93CF93DF93CDB787
:104A2000DEB7A1970FB6F894DEBF0FBECDBF7C01F5
:104A3000FA01CB0119A2223008F42AE08E010F5DA1
:104A40001F4F822E912CA12CB12CBF01A5019401E6
:104A50000E947D30F901CA01015011096A3014F435
:104A6000605D01C0695CD8016C93232B242B252B3E
:104A700061F7B801C7010E946924A1960FB6F894A6
:104A8000DEBF0FBECDBFDF91CF911F910F91FF9081
:104A9000EF90BF90AF909F908F90089565EC73E07A
:104AA0000C9469240F931F93CF93DF93EC010E9422
:104AB00069248C01CE010E944E25800F911FDF9149
:104AC000CF911F910F9108950C946924EF92FF925A
:104AD0000F931F93CF93DF938C017B01C0E0D0E055
:104AE000F701EC0FFD1F6491662361F0D801ED9191
:104AF000FC910190F081E02DC8010995892B11F0FE
:104B00002196EECFCE01DF91CF911F910F91FF90B3
:104B1000EF9008950F931F93CF93DF93EC010E94C2
:104B200066258C01CE010E944E25800F911FDF91DA
:104B3000CF911F910F9108951F920F920FB60F9270
:104B400011242F933F934F935F936F937F938F9392
:104B50009F93AF93BF93EF93FF938DEF93E00E94EA
:104B60002623FF91EF91BF91AF919F918F917F91FC
:104B70006F915F914F913F912F910F900FBE0F90CA
:104B80001F9018951F920F920FB60F9211242F931A
:104B90008F939F93EF93FF93E0910D04F0910E0498
:104BA0008081E0911304F091140482FD12C0908181
:104BB000809116048F5F8F7320911704821751F034
:104BC000E0911604F0E0E350FC4F958F80931604BB
:104BD00001C08081FF91EF919F918F912F910F9054
:104BE0000FBE0F901F9018951F920F920FB60F9245
:104BF00011242F933F934F935F936F937F938F93E2
:104C00009F93AF93BF93EF93FF93E091FB03F091DA
:104C1000FC03309709F451C0968DA685B78585852C
:104C200091FF04C09C91892329F447C09C9189235A
:104C300009F043C0A389B4899C9185898095892313
:104C40008C93868997890197F1F7608D718DA68580
:104C5000B785558538E020E0CB010197F1F7822F29
:104C600090E095958795282F4C91452309F0206871
:104C7000315091F7868D81FD209580916B0590E0F4
:104C800001968F73992730916C05381749F0A091E0
:104C90006B05B0E0A55DBA4F2C9380936B0503C004
:104CA000868D8160868F828D938D0197F1F7A38920
:104CB000B4899C918589892B8C93FF91EF91BF9149
:104CC000AF919F918F917F916F915F914F913F91A4
:104CD0002F910F900FBE0F901F901895CF93DF93D9
:104CE000FC01828D938D892B31F1A091FB03B09152
:104CF000FC03EA17FB07F9F0109751F05396CD919A
:104D0000DC915497988155968C918095892388835E
:104D1000868D8E7F868F10926B0510926C05F093B6
:104D2000FC03E093FB03A389B4899C918589892BBB
:104D30008C9381E001C080E0DF91CF910895CF9204
:104D4000DF92EF92FF9220E030E04FEF5FEFD9016A
:104D5000AA0FBB1FAA0FBB1FA80FB91F5496CD9057
:104D6000DD90ED90FC905797C114D104E104F1045B
:104D700031F44F3F6FEF5607F1F4A9011CC0211524
:104D80003105C9F04F3F6FEF5607A9F0FA0135968C
:104D9000EE0FFF1FEE0FFF1FE80FF91FC082D18239
:104DA000E282F38254961D921D921D921C92579797
:104DB0009A014FEF5FEF2F5F3F4F253031053CF2F7
:104DC000FF90EF90DF90CF9008950F931F93CF93B4
:104DD000DF93EC018C010C5F1F4F40E150E068EC69
:104DE00073E0C8010E9440308CEB92E09983888385
:104DF000FE01749684E1DF011D928A95E9F7F9A717
:104E0000E8A78C8181110BC040E150E06DEC73E0AC
:104E1000C801DF91CF911F910F910C944030DF9129
:104E2000CF911F910F910895CF93DF93EC010E94D2
:104E3000180D2A813B818217930739F49C01215078
:104E4000310981E02E3F3F4F08F080E0DF91CF91A4
:104E50000895CF92DF92EF92FF920F931F93CF931B
:104E6000DF9300D0CDB7DEB78C010E9414278111EB
:104E700020C0C8010E94180DF80193838283E0804E
:104E8000F1806801FEE5CF0ED11CE01AF10AC701DE
:104E9000800F911FF80161918F019A838983CE0160
:104EA00001960E94FF0C0C151D0589F701E010E02A
:104EB00002C000E010E060E080E09BE00E946C0D2A
:104EC000C8010E94931DC8010F900F90DF91CF91F0
:104ED0001F910F91FF90EF90DF90CF900895CF93A7
:104EE000DF93EC018BE00E94501B892B79F08091BD
:104EF000E40381110BC0C65BDF4F81E090E02881A5
:104F000039812130310521F080E002C081E090E05C
:104F1000DF91CF9108953FB7F894809172059091F9
:104F20007305A0917405B091750526B5A89B05C0C1
:104F30002F3F19F00196A11DB11D3FBFBA2FA92F18
:104F4000982F8827820F911DA11DB11DBC01CD0195
:104F500042E0660F771F881F991F4A95D1F7089581
:104F60002FB7F89460916E0570916F058091700570
:104F7000909171052FBF08951F920F920FB60F9257
:104F800011242F933F938F939F93AF93BF9380915F
:104F90006E0590916F05A0917005B09171053091EB
:104FA0006D0523E0230F2D3720F40196A11DB11DBF
:104FB00005C026E8230F0296A11DB11D20936D05A3
:104FC00080936E0590936F05A0937005B093710563
:104FD0008091720590917305A0917405B09175054B
:104FE0000196A11DB11D8093720590937305A09346
:104FF0007405B0937505BF91AF919F918F913F91CB
:105000002F910F900FBE0F901F901895CF93DF93A5
:10501000CDB7DEB764970FB6F894DEBF0FBECDBF35
:10502000789484B5826084BD84B5816084BD85B583
:10503000826085BD85B5816085BD80916E0081608F
:1050400080936E0010928100809181008260809335
:105050008100809181008160809381008091800037
:105060008160809380008091B10084608093B10062
:105070008091B00081608093B00080917A0084605C
:1050800080937A0080917A00826080937A00809188
:105090007A00816080937A0080917A0080688093A2
:1050A0007A001092C10062E08AE00E943F1C62E038
:1050B0008CE00E943F1C62E08BE00E943F1C61E09C
:1050C00085E00E943F1C61E08DE00E943F1C8BE068
:1050D0000E94501B21E0892B09F020E02093E4037B
:1050E00060E071EE80E090E00E942B1E409115057B
:1050F0005091160560911705709118058091220551
:10510000909123050E94C7176FE070E080E090E067
:105110000E941D1D61E08FE796E00E946C0D84ECFB
:1051200094E00E946F27892B31F062E576E08DEFE5
:1051300093E00E948A2584EC94E00E946F27892BDB
:1051400021F081E192E00E94EA078CE00E94501B6E
:10515000892B21F461E081EB94E021C064ECE62E20
:1051600064E0F62E00E213E0C8010E945730D70138
:105170008D937D010F5F1F4F0E37B3E01B07A1F723
:1051800080E293E09093C5048093C40484EC94E09F
:105190000E941427811105C061E08CE194E00E9417
:1051A0006C0D84EC94E00E941427882331F08CE08D
:1051B0000E94501B892B09F021C461E081E994E031
:1051C0000E946C0D8EE590E00E94F92D8C010E94EA
:1051D000331640E250E069EA72E0C80144960E944A
:1051E000403080E293E0F8019183808360E087E6BD
:1051F00094E00E946C0D60E0C80144960E94360D58
:1052000061E081E392E00E94360D409115055091D6
:1052100016056091170570911805809122059091EF
:1052200023050E94C7178DEF93E00E94952360919C
:1052300011057091120580911305909114050E943B
:105240002B1E6FE070E080E090E00E941D1D60E08A
:1052500082E396E00E946C0D60E083E392E00E949E
:10526000360D60E08FE296E00E946C0D61E081E413
:1052700092E00E94360D60E08CE196E00E946C0D99
:105280000091E4030E94C50710E0882379F0B8017B
:1052900080912205909123050E948D1D67EC73E09B
:1052A00080912205909123050E945225B8018DEF2F
:1052B00093E00E948D1D67EC73E08DEF93E00E94F8
:1052C000522560E08AE096E00E946C0D60E088ED77
:1052D00094E00E94360D60E086EF95E00E946C0D30
:1052E00084EC94E00E94180D0E949D1E60E08BEEFD
:1052F00095E00E946C0D0E94C507882399F02AE072
:105300004EE550E060E070E0809122059091230529
:105310000E94052567EC73E080912205909123059A
:105320000E9452252AE04EE550E060E070E08DEFEB
:1053300093E00E94052567EC73E08DEF93E00E94F7
:10534000522560E08DEB95E00E946C0DC090110538
:10535000D0901205E0901305F09014050E94C50747
:10536000882381F0B701A601809122059091230541
:105370000E94571D67EC73E08091220590912305F0
:105380000E945225B701A6018DEF93E00E94571DA0
:1053900067EC73E08DEF93E00E94522561E087ECAB
:1053A00093E00E94360D6DEF73E084EC94E00E9470
:1053B000A01567EC73E08DEF93E00E9452250E94E8
:1053C000C507882381F0609122057091230584EC44
:1053D00094E00E94A01567EC73E080912205909103
:1053E00023050E94522584EC94E00E946F27892BAC
:1053F00021F087E592E00E94EA078DE290E00E94AA
:10540000F92D8C0120E030E04BE652E068E070E0DE
:105410000E94E01C1093F6030093F5038DE290E0E8
:105420000E94F92D8C0120E030E04EE652E067E06A
:1054300070E00E94E01C1093F8030093F7038DE2E4
:1054400090E00E94F92D8C0120E030E041E752E02D
:1054500066E070E00E94E01C1093FA030093F903E9
:105460008DE290E00E94F92D8C0120911D05309174
:105470001E0544E752E069E070E00E94E01C1093D2
:10548000EC030093EB038FE190E00E94F92D8C0177
:1054900044E164E00E947B1C1093E8030093E7035F
:1054A000809110058230D9F08330A9F581E490E035
:1054B0000E94F92D7C0100E02AE043E06DE00E94AB
:1054C000F41683E191E0D7018D939C9360E08DEE1B
:1054D00094E00E946C0D61E08DE792E018C081E4D9
:1054E00090E00E94F92D7C0101E027E044E06AE0B1
:1054F0000E94F4168BE091E0F7019183808360E0D5
:105500008CED94E00E946C0D61E087E792E00E94D0
:10551000360D870108C081E490E00E94F92D7C01DE
:105520000E94361787011093E6030093E5038091EC
:10553000E7039091E803F801FF969183808388E068
:1055400090E00E94F92D7C01C090EB03D090EC0319
:1055500080910C0590910D058230910529F480E031
:1055600090E00E94573090E0F7019183808313838D
:10557000028385EF93E095838483D782C682F0927D
:10558000EA03E092E90385E490E00E94F92D7C01B2
:1055900024E1A22EFC013296DF012A2D1D922A95CC
:1055A000E9F7CC24CA94DC2CDC015796DC92CE922D
:1055B00056974BE1842E41E0942E11969C928E9248
:1055C0008DEF93E059969C938E9358975B961C931E
:1055D0000E935A97F701178E10A211A212A293965A
:1055E0001D921D921D921C92969758E1B52EB7966A
:1055F000DF012B2D1D922A95E9F7789611821082F2
:105600003296D182C08232961182108243E050E0FD
:1056100064E872E0C7014C960E944030F092EE03BD
:10562000E092ED0385E490E00E94F92D8C018091D9
:10563000E5039091E6032091220530912305F801BE
:105640003296DF011D92AA94E9F7F801D78AC68A3B
:1056500091828082318F208F938F828F178E10A23C
:1056600011A212A213A214A215A216A2B796DF01CC
:105670001D92BA94E9F77896118210823296D182FF
:10568000C08232961182108243E050E064E971E0FA
:10569000C8014C960E9440301093F0030093EF0332
:1056A00084EC94E00E946F27892B21F087E892E038
:1056B0000E94EA070091E9031091EA0360E08EEF8F
:1056C00094E00E946C0DF801808191810E94931DED
:1056D000D8016C918DE00E94101CF80180819181AD
:1056E0000480F581E02D892B19F08281938102C01D
:1056F000808191810E94480960E08AE295E00E94E1
:105700006C0DD80112968D919C911397DC01ED914F
:10571000FC910280F381E02D099561E00E94360D35
:10572000D8011296ED91FC911397658181E068276D
:1057300085E00E94101C62E370E080E090E00E942F
:105740001D1DD8011296ED91FC911397658185E09E
:105750000E94101C4091190550911A0560911B057B
:1057600070911C058091E7039091E8030E94C71790
:105770009AE9E92E94E0F92E0CEB12E0C8010E94A0
:105780005730F70181937F010F5F1F4F063EF2E014
:105790001F07A1F78CEB92E090939B0480939A04EF
:1057A0000E94B517811105C061E08BE495E00E946D
:1057B0006C0D60E082EA95E00E946C0D84EC94E050
:1057C0000E946F27892BB1F461E087EC93E00E947F
:1057D000360D0E94B517811125C061E08DE695E078
:1057E0000E946C0D8AE290E00E94F92D8C010E94CB
:1057F000E5261AC00EEA14E082ECE82E84E0F82ECA
:10580000D8016D917D918D919D918D0140E00E9417
:10581000A41660E08BE992E00E94360DE016F106D6
:1058200079F7D2CF0AE914E0C8010E949F2661E00F
:105830008FEA95E00E946C0D8091ED039091EE034C
:105840000E94791B8091EF039091F0030E94791BD5
:1058500084EC94E00E946F27892B21F08DE992E07F
:105860000E94EA0761E087EC93E00E94360DFE019A
:1058700031961F018091F5039091F6030E941C0A56
:105880008091F7039091F8030E941C0A8091F9031C
:105890009091FA030E941C0A8091EB039091EC0313
:1058A0000E941C0A8091F3039091F40318161906C4
:1058B0006CF52091F1033091F2038091ED0390910A
:1058C000EE032115310519F02817390711F40E944C
:1058D000E4218091F1039091F203009709F496C0BE
:1058E0002091EF033091F0038217930709F48EC0E3
:1058F0008AE00E94501B019709F07DC08091F3035C
:105900009091F403892B09F081C075C0892B09F0AF
:1059100072C00091E9031091EA03D80112968D91AB
:105920009C9113970E94431FD8011296ED91FC9110
:105930001397438C548C658C768CC788D08CE18C03
:10594000F28C4114510461047104B1F4878D90A16B
:10595000A1A1B2A10097A105B10571F0A70196011F
:10596000281B390B4A0B5B0BDA01C901813D9740BB
:10597000A105B10508F062C04601570184189508D9
:10598000A608B7082091F8043091F9044091FA0470
:105990005091FB04A8EEB3E00E949F306815790592
:1059A0008A059B0548F4278D30A141A152A12115FC
:1059B00031054105510589F545284628472881F0DC
:1059C000C7A4D0A8E1A8F2A8C814D904EA04FB042B
:1059D00008F097C0681579058A059B0508F058C03E
:1059E0008091F3039091F403892B29F4D8016C91F1
:1059F0008DE00E94101C0E94B7233CCF60E08EE334
:105A000094E00E946C0D04EC14E0F5CB8091EF0360
:105A10009091F0030E94E421EECFC21AD30AE40A67
:105A2000F50AC814D904EA04FB0430F641EDC416A3
:105A300047E0D406E104F10408F4BECFD80114967F
:105A4000ED91FC911597808191810E949409D80174
:105A50001496ED91FC911597828193810E94B9096A
:105A6000F801868197810E94061E60E070E0C801FF
:105A70000E945910D8011296ED91FC91139723E0E2
:105A800030E040E050E023A334A345A356A3A8CFC1
:105A9000D8018D919C9111971496ED91FC911597D9
:105AA000892B61F0828193810E946F09D80114963D
:105AB000ED91FC911597808191810BC0808191813E
:105AC0000E946F09D8011496ED91FC91159782817F
:105AD00093810E94B909F80186819781D101E4E19F
