:100000000C94CE0A0C94F60A0C94F60A0C94D51CA7
:100010000C94D51C0C94D51C0C94F60A0C94F60A7E
:100020000C94F60A0C94F60A0C94F60A0C94F60A50
:100030000C94F60A0C94F60A0C94F60A0C94F60A40
:100040000C9475230C94F60A0C94A31C0C947D1C40
:100050000C94F60A0C94F60A0C94F60A0C94F60A20
:100060000C94F60A0C94F60A7711BA117E118A11D3
:100070008F11F8129B11CD122813381348135813FF
:100080006213841390139C13A413DC12B013BC13DB
:10009000CC13D813E813F813161F2F1F481F611F26
:1000A0007A1F821F9D1FA01FA31FA71FAA1FB11F7A
:1000B000B41FCF1FD21FED1F082053746F726167EA
:1000C000653A3A4C6F6164282920454E44005374C8
:1000D0006F726167653A3A4C6F61642829206368E2
:1000E00065636B73756D206D69736D617463680012
:1000F00073697A656F66285429200073697A656F81
:1001000066282A6F626A6563745F726566292000DB
:100110006F626A6563745F7265662D3E73746F7299
:100120006167655F6E616D652027006C6F61646556
:10013000645F636865636B73756D200073746F72C1
:1001400065645F636865636B73756D2000636865E4
:10015000636B73756D5F73697A6520006565707296
:100160006F6D5F61646472657373200053746F72A6
:100170006167653A3A4C6F616428292042454749D6
:100180004E0053657474696E67733A3A4C6F6164DC
:10019000282920454E440053657474696E67733A8C
:1001A0003A4C6F61642829207573696E67206C6F03
:1001B000616465642073657474696E6773202700D9
:1001C00053657474696E67733A3A4C6F6164282999
:1001D000207573696E672064656661756C74207341
:1001E000657474696E677320270053657474696E53
:1001F00067733A3A4C6F616428292063686B736DAA
:10020000206D69736D6174636820736F206372651C
:100210006174696E672064656661756C74205365EE
:100220007474696E6773282900272063616C6320EA
:1002300063686B736D203078002720736574746970
:100240006E67735F6E616D65202700536574746916
:100250006E67733A3A4C6F61642829204375727255
:10026000656E742E73746F726167655F6E616D6524
:1002700020270053657474696E67733A3A4C6F6156
:1002800064282920424547494E004C65643A3A5358
:10029000746172747570426C696E6B2829005365C5
:1002A0007269616C4D656E753A3A626567696E2870
:1002B000290053746F726167653A3A4C6F61642824
:1002C0002920454E440053746F726167653A3A4C79
:1002D0006F6164282920636865636B73756D206D99
:1002E00069736D617463680073697A656F66285419
:1002F00029200073697A656F66282A6F626A6563D0
:10030000745F7265662920006F626A6563745F724C
:1003100065662D3E73746F726167655F6E616D65B2
:100320002027006C6F616465645F636865636B734D
:10033000756D200073746F7265645F636865636BCD
:1003400073756D2000636865636B73756D5F7369AA
:100350007A652000656570726F6D5F6164647265B7
:100360007373200053746F726167653A3A4C6F6122
:1003700064282920424547494E00546167733A3A40
:100380004C6F6164282920454E44004C6F616454D1
:10039000616773282920636865636B73756D206DD1
:1003A00069736D6174636800546167733A3A4C6FA6
:1003B0006164282920424547494E00436F6E73749B
:1003C00072756374696E6720526561646572206638
:1003D0006F723A2000526561646572417272617990
:1003E00053657475702829206275696C64696E673D
:1003F000206172726179206F662072656164657236
:10040000732E004E6F207265616465722077617390
:100410002073656C6563746564004765745265613B
:1004200064657228292073656C65637465643A207D
:100430000047657452656164657228292063616CA8
:100440006C65642077697468206E616D653A200080
:100450002C207769746820454550524F4D207072AA
:100460006F78696D697479207374617465200053C5
:1004700074617274696E67205246494420726561E6
:10048000646572200053657474696E67206F7574BB
:100490007075742073776974636820706572207357
:1004A000617665642070726F78696D6974795F73C5
:1004B000746174653A200044656275672070696EE6
:1004C000204C4F57202E2E2E20656E61626C696E77
:1004D00067206465627567004465627567207069AE
:1004E0006E207374617475733A20002C2000426F83
:1004F0006F74696E67205246494420496D6D6F6282
:10050000696C697A65722C200027206F66207369F8
:100510007A6520004C6F616465642053657474696A
:100520006E677320270052652D696E697469616C6E
:10053000697A65642073657269616C20706F72748A
:100540002066726F6D206C6F6164656420736574E2
:1005500074696E67733A2000496E697469616C69E9
:100560007A65642064656661756C74207365726970
:10057000616C20706F727420402035373630302027
:100580006261756400556E617574686F72697A6531
:1005900064206F7220696E76616C69642074616793
:1005A0003A2000417574686F72697A6564207461DD
:1005B000673A200054616720726573756C74206619
:1005C000726F6D205265616465723A20005246492F
:1005D000443A3A70726F636573735461674461742F
:1005E0006128292063616C6C696E672072656164A3
:1005F00065722D3E70726F636573735461674461F9
:100600007461285F7461672900524649443A3A7020
:10061000726F636573735461674461746128292044
:100620007265636569766564206275666665722CBD
:10063000207573696E67207265616465723A200087
:100640006379636C65526561646572506F7765723A
:1006500028292073657474696E672072656164650A
:100660007220706F776572204C4F57006E6576650B
:100670007200207365636F6E64732061676F002C76
:1006800020726561646572206379636C65643A20E9
:10069000006E6576657200207365636F6E6473200B
:1006A00061676F006379636C655265616465725060
:1006B0006F77657228292074616720726561643ADA
:1006C00020006379636C65526561646572506F7771
:1006D000657228292073657474696E67207265617C
:1006E00064657220706F7765722048494748002919
:1006F000002800524649443A3A706F6C6C5265616A
:100700006465722829207265616465722D3E72618C
:10071000775F7461675F6C656E6774683A2000523A
:100720004649443A3A706F6C6C5265616465722850
:1007300029207265616465722D3E7265616465721F
:100740005F6E616D653A20004C65643A3A466173AC
:1007500074426C696E6B2829004C65643A3A537494
:100760006561647928292C205F696E7465727661F1
:100770006C735B305D3A200070726F78696D6974DC
:10078000795374617465436F6E74726F6C6C6572CB
:100790002829206E6F20636F6E646974696F6E2004
:1007A000776173206D657420286E6F74206E6563A9
:1007B0006573736172696C7920612070726F626C0D
:1007C000656D290070726F78696D69747953746111
:1007D0007465436F6E74726F6C6C65722829207338
:1007E00074696C6C20594F554E470070726F786970
:1007F0006D6974795374617465436F6E74726F6C54
:100800006C65722829204147494E470070726F7805
:10081000696D6974795374617465436F6E74726F36
:100820006C6C657228292054494D454F5554007011
:10083000726F78696D6974795374617465436F6E12
:1008400074726F6C6C657228292073746172747590
:100850007020475241434520706572696F6420746F
:10086000696D656F75742C206E6F207461672066EA
:100870006F756E64002A2A2A007461674C61737474
:100880005265616454696D656F75745831303030EC
:1008900028293A20006D735F7265616465725F6339
:1008A00079636C655F746F74616C3A20006D73538B
:1008B000696E63654C617374526561646572506FF3
:1008C0007765724379636C6528293A20006D73530C
:1008D000696E63654C617374546167526561642825
:1008E000293A20006C6173745F7265616465725FA0
:1008F000706F7765725F6379636C655F6D733A20C3
:10090000006C6173745F7461675F726561645F6DD1
:10091000733A20002A2A2A2050524F58494D4954F0
:1009200059202A2A2A002A2A2A00532E52454144B5
:1009300045525F4359434C455F4C4F575F445552B6
:100940004154494F4E3A200052504348442A3130D6
:1009500030303A2000726561646572506F7765725D
:100960004379636C65486967684475726174696F3F
:100970006E2829007461674C617374526561645418
:10098000696D656F7574583130303028293A200010
:100990006D735F7265616465725F6379636C655FD7
:1009A000746F74616C3A20006D7353696E63654CAB
:1009B000617374526561646572506F7765724379D3
:1009C000636C6528293A20006D7353696E63654C2A
:1009D0006173745461675265616428293A20006C20
:1009E0006173745F7265616465725F706F77657261
:1009F0005F6379636C655F6D733A20006C6173743B
:100A00005F7461675F726561645F6D733A20006354
:100A100079636C655F686967685F66696E6973684A
:100A20005F6D733A20006379636C655F6C6F775F0D
:100A300066696E6973685F6D733A2000202A2A2AFE
:100A4000002A2A2A2052464944204C4F4F50204227
:100A50004547494E20004C65643A3A536C6F7742E3
:100A60006C696E6B2829004572726F723A20596F5B
:100A7000752061726520617474656D7074696E674C
:100A800020746F2063616C6C2070726F6365737388
:100A9000546167446174612829206F6E2074686511
:100AA0002067656E657269632052656164657220B6
:100AB000636C6173730052444D363330302054619F
:100AC0006720737563636573733A200052444D3633
:100AD0003330303A3A70726F6365737354616744B0
:100AE0006174612829207769746820696E70757453
:100AF0003A200052373934314520546167207265FD
:100B000061643A20002C20636865636B73756D2007
:100B100028646563293A20002C2069645F6C656E47
:100B20003A20002C2069645F656E643A2000696495
:100B30005F626567696E3A20005237393431453A51
:100B40003A70726F636573735461674461746128AE
:100B50002920776974682000574C31323520546160
:100B60006720737563636573733A20002C20636894
:100B700065636B73756D2028726177206279746587
:100B800073293A20002C2069645F6C656E3A20005E
:100B90002C2069645F656E643A200069645F626559
:100BA00067696E3A2000574C3132353A3A70726FAD
:100BB00063657373546167446174612829207769A0
:100BC000746820696E7075743A200043616C6C69BA
:100BD0006E6720454550524F4D2E757064617465A7
:100BE00020776974682070726F78696D6974795FB5
:100BF00073746174653A20005246494420496D6D12
:100C00006F62696C697A65722061646D696E2063D8
:100C10006F6E736F6C652C20004C65643A3A4F66BA
:100C200066282900456E746572696E672072756E5C
:100C3000206D6F64650D0A000D0A53657269616C61
:100C40004D656E752073657474696E672072756E7C
:100C50005F6D6F646520746F2030202772756E277A
:100C6000006765744C696E65282920627974006399
:100C70006865636B53657269616C506F7274282983
:100C8000207573657220696E707574207769746859
:100C9000206E6F206D61746368696E6720696E7085
:100CA0007574206D6F64653A2000636865636B53EB
:100CB000657269616C506F72742829207265636572
:100CC0006976656420627974653A2000532E7570E8
:100CD0006461746553657474696E67282920003AED
:100CE00020006D656E7553656C656374656453654E
:100CF0007474696E67207365742073656C656374C2
:100D000065645F6D656E755F6974656D20746F3ABB
:100D1000200053657269616C4D656E753A3A62796F
:100D20007465546F41736369694368724E756D20D1
:100D3000726563656976656420627974653A20003E
:100D400046726565204D656D6F72793A206E2F6130
:100D50000064656C657465416C6C54616773282927
:100D60000044656C65746520616C6C205461677328
:100D7000006D656E7553656C65637465644D61697E
:100D80006E4974656D20636F6E766572746564205C
:100D9000627974653A20002028006D656E75536590
:100DA0006C65637465644D61696E4974656D20722C
:100DB0006563656976656420627974653A200064CC
:100DC000656C657465546167496E64657828293A75
:100DD000200044656C65746554616728292072653C
:100DE00073756C743A200044656C65746554616772
:100DF00028292061626F72746564006164645461C3
:100E00006728292073756363657373006164645494
:100E100061672829206661696C65643A20447570B1
:100E200065006164645461672829206661696C65A6
:100E3000643A2046756C6C006164645461672829CB
:100E40002061626F727465643A20496E76616C69E4
:100E50006420636F646500616464546167282920BD
:100E6000006661696C65642C207461672069732079
:100E70006475706C6963617465006661696C656452
:100E80002C20746167206C69737420697320667507
:100E90006C6C0061626F727465642C20696E76619F
:100EA0006C6964207461672D696420737472696E63
:100EB00067007375636365737300416464546167AD
:100EC000282920726573756C743A2000546167207C
:100ED000656E74657265643A200072756E43616C6C
:100EE0006C6261636B732829206E6F20636F6E6480
:100EF0006974696F6E207761732073656C656374C4
:100F000065640072756E43616C6C6261636B73281B
:100F1000292063616C6C20746F20532E757064619E
:100F2000746553657474696E672829206661696CFD
:100F300065640072756E43616C6C6261636B7328EB
:100F40002920696E707574417661696C61626C65A7
:100F500020666F722075706461746553657474697E
:100F60006E673A200072756E43616C6C6261636BF0
:100F700073282920696E707574417661696C6162AD
:100F80006C6520666F72206D656E7553656C656368
:100F900074656453657474696E670072756E43613D
:100FA0006C6C6261636B73282920696E7075744183
:100FB0007661696C61626C6520666F72206D656E2A
:100FC0007553656C65637465644D61696E497465DC
:100FD0006D0072756E43616C6C6261636B7328297E
:100FE00020696E707574417661696C61626C652010
:100FF000666F72206D656E7544656C6574655461CD
:10100000670072756E43616C6C6261636B73282953
:1010100020696E707574417661696C61626C6520DF
:10102000666F72206D656E7541646454616700007F
:10103000000000240027002A000000000800020130
:101040000000030407000000000000000000000092
:101050000023002600290000000000250028002BA6
:101060000004040404040404040202020202020351
:10107000030303030301020408102040800102045B
:1010800008102001020408102053746F7261676514
:101090003A3A73617665282920454E440053746FAF
:1010A000726167653A3A7361766528292045455033
:1010B000524F4D20757064617465206E6F74206EA0
:1010C00065636573736172790053746F72616765EC
:1010D0003A3A73617665282920454E440053746F6F
:1010E000726167653A3A7361766528292063686B97
:1010F000736D206D69736D617463682C2070657207
:10110000666F726D696E6720454550524F4D2E7067
:1011100075742829002073697A656F662854292020
:10112000002030780020776974682073746F7265CE
:10113000642F63616C6365642063686B736D20303A
:1011400078002720746F20616464726573732000D7
:1011500053746F726167653A3A7361766528292026
:10116000270053746F726167653A3A736176652838
:101170002920424547494E0020746F206164647203
:101180006573732000536176696E672074616773BD
:10119000207769746820636865636B73756D2030B0
:1011A00078004C65643A3A626567696E20776974C5
:1011B0006820696E74657276616C732063757272F3
:1011C000656E742C206E65773A004C65643A3A750A
:1011D0007064617465207769746820696E746572E3
:1011E00076616C732063757272656E742C206E6507
:1011F000773A004C65643A3A757064617465205FB3
:10120000696E74657276616C735B305D3A20005371
:10121000746F726167653A3A736176652829204573
:101220004E440053746F726167653A3A7361766534
:10123000282920454550524F4D20757064617465D2
:10124000206E6F74206E65636573736172790053ED
:10125000746F726167653A3A736176652829204533
:101260004E440053746F726167653A3A73617665F4
:1012700028292063686B736D206D69736D617463D9
:10128000682C20706572666F726D696E67204545C7
:1012900050524F4D2E7075742829002073697A655D
:1012A0006F66285429200020307800207769746800
:1012B0002073746F7265642F63616C63656420636F
:1012C000686B736D203078002720746F2061646430
:1012D00072657373200053746F726167653A3A7375
:1012E000617665282920270053746F726167653A1B
:1012F0003A73617665282920424547494E00536577
:101300007474696E67733A3A73617665282920723E
:101310006573756C743A20004F55545055545F53A3
:1013200057495443485F50494E00524649445F4232
:101330004155440042545F424155440044454255A2
:10134000475F50494E0048575F53455249414C5FF3
:101350004241554400524649445F53455249414C2D
:101360005F52580042545F52585458004C45445FF5
:1013700050494E0044454641554C545F5245414406
:10138000455200656E61626C655F646562756700F9
:1013900070726F78696D6974795F737461746500D8
:1013A00061646D696E5F74696D656F757400524537
:1013B000414445525F504F5745525F434F4E545240
:1013C0004F4C5F50494E005245414445525F43598E
:1013D000434C455F484947485F4455524154494F43
:1013E0004E005245414445525F4359434C455F4C82
:1013F0004F575F4455524154494F4E005441475F47
:10140000524541445F534C4545505F494E54455207
:1014100056414C005441475F4C4153545F52454143
:10142000445F54494D454F5554007570646174656F
:1014300041646D696E54696D656F757428292073F8
:1014400065636F6E64733A2000736574496E7075DE
:10145000744D6F646528293A200073657443616C8C
:101460006C6261636B46756E6374696F6E28293AAE
:101470002000362E2044656C65746520616C6C20FC
:101480007461677300352E2053657474696E6773D9
:1014900000342E2053686F772066726565206D6575
:1014A0006D6F727900332E2044656C65746520740D
:1014B000616700322E204164642074616700312E20
:1014C000204C697374207461677300302E20457856
:1014D0006974004D656E75002E20002C2073697AAA
:1014E000652000546167732C2063686B736D203036
:1014F00078002C2073697A65200053657474696ED6
:1015000067732C2063686B736D20307800536574AB
:1015100074696E67733A3A67657453657474696E7B
:10152000674279496E6465783A20001414FC13E22E
:1015300013C713AE13A0139013831374136C1364A7
:1015400013551346133C1334132A1318135365749D
:1015500074696E67733A3A646973706C6179536544
:101560007474696E6728292072657475726E696E6D
:10157000673A200053657474696E67733A3A646918
:1015800073706C617953657474696E67282920677C
:10159000617468657265643A2000A13111241FBE30
:1015A000CFEFD8E0DEBFCDBF25E0A8E6B3E001C0B5
:1015B0001D92A731B207E1F713E0A0E0B1E0E2E24B
:1015C000F0E702C005900D92A836B107D9F71AE0EE
:1015D000CEECDAE004C02197FE010E94F633CD3C48
:1015E000D107C9F70E94BF230C940F380C94000058
:1015F0008FE194E00E94821E892B31F067E67AE049
:1016000082E893E00E946B1C60E070E0CB010895DB
:101610006F927F928F929F92AF92BF92CF92DF9202
:10162000EF92FF920F931F93CF93DF93CDB7DEB767
:101630008C016B016DB67EB68FE194E00E94821E34
:10164000892B31F066EA7BE082E893E00E94471C38
:101650008FE194E00E94821E892B31F06BE97BE0E0
:1016600082E893E00E94471C8FE194E00E94821E72
:10167000892B31F06AE070E0F80183890E94B1158E
:101680008FE194E00E94821E892B31F060E97BE0BB
:1016900082E893E00E94471C8FE194E00E94821E42
:1016A000892B31F06AE070E0F80184890E94B1155D
:1016B000F80144894F5F8389F42EF81A8FE194E092
:1016C0000E94821E892B31F065E87BE082E893E07E
:1016D0000E94471C8FE194E00E94821E892B29F012
:1016E0006AE070E08F2D0E94B1158FE194E00E94B6
:1016F000821E892B31F06CE67BE082E893E00E9449
:10170000471C8FE194E00E94821E892B31F06AE031
:1017100070E0F60183850E94B1158FE194E00E948C
:10172000821E892B31F065EE71E082E893E00E9421
:10173000451C8FE194E00E94821E892B21F0F60166
:1017400084850E94BA154F2D50E04F5F5F4F8DB7D3
:101750009EB7841B950B0FB6F8949EBF0FBE8DBF2E
:10176000EDB7FEB731967F016EE271E0CF010E94C6
:101770004335F80183895601A80EB11C83E0882EF9
:1017800082E0982EF801848990E095012C193D099A
:1017900082179307C4F0F50121915F01F7010190D1
:1017A0000020E9F71F922F939F928F92CF0101970C
:1017B0009F938F930E945C350F900F900F900F9026
:1017C0000F900F90DFCF40E150E060E070E0C70184
:1017D0000E94ED314B015C018FE194E00E94821E7A
:1017E000892B31F068E57BE082E893E00E94471C9A
:1017F0008FE194E00E94821E892B29F0B70182E8D4
:1018000093E00E94451C8FE194E00E94821E892B88
:1018100031F066E072E082E893E00E94451C8FE1BF
:1018200094E00E94821E892B21F0C501B4010E9420
:101830009E15C501B4010FB6F8947EBE0FBE6DBEF5
:10184000DF91CF911F910F91FF90EF90DF90CF909C
:10185000BF90AF909F908F907F906F9008956F9200
:101860007F928F929F92AF92BF92CF92DF92EF9230
:10187000FF920F931F93CF93DF93CDB7DEB78C0109
:101880005B016DB67EB68FE194E00E94821E892BCB
:1018900031F069E37BE082E893E00E94471C8FE12E
:1018A00094E00E94821E892B31F06EE27BE082E898
:1018B00093E00E94471C8FE194E00E94821E892BD6
:1018C00031F06AE070E0F80183890E94B1158FE180
:1018D00094E00E94821E892B31F063E27BE082E873
:1018E00093E00E94471C8FE194E00E94821E892BA6
:1018F00031F06AE070E0F80184890E94B115F801C6
:10190000448950E08389481B51094F5F5F4FF42E93
:10191000FF0C8FE194E00E94821E892B31F068E178
:101920007BE082E893E00E94471C8FE194E00E94F4
:10193000821E892B29F06AE070E08F2D0E94B1157C
:101940008FE194E00E94821E892B31F065E07BE0FC
:1019500082E893E00E94471C8FE194E00E94821E7F
:10196000892B21F0F50180850E94BA154F2D50E09A
:101970004F5F5F4F8DB79EB7841B950B0FB6F894E2
:101980009EBF0FBE8DBFEDB7FEB731967F016EE2F1
:1019900071E0CF010E944335F80183896501C80ECB
:1019A000D11C89E0882E82E0982EF801848990E08D
:1019B00096012A193B0982179307C4F0F601219179
:1019C0006F01F70101900020E9F71F922F939F927A
:1019D0008F92CF0101979F938F930E945C350F9058
:1019E0000F900F900F900F900F90DFCF40E150E0DD
:1019F00060E070E0C7010E94ED314B015C018FE1B6
:101A000094E00E94821E892B31F063EF7AE082E835
:101A100093E00E94471C8FE194E00E94821E892B74
:101A200029F0B70182E893E00E94451C8FE194E021
:101A30000E94821E892B31F066E072E082E893E01A
:101A40000E94451C8FE194E00E94821E892B21F0A8
:101A5000C501B4010E949E15C501B4010FB6F894EA
:101A60007EBE0FBE6DBEDF91CF911F910F91FF9093
:101A7000EF90DF90CF90BF90AF909F908F907F902E
:101A80006F9008956F927F928F929F92AF92BF92C4
:101A9000CF92DF92EF92FF920F931F93CF93DF933A
:101AA000CDB7DEB76C015B016DB67EB68FE194E019
:101AB0000E94821E892B31F06CEC7AE082E893E080
:101AC0000E94471C8FE194E00E94821E892B49F0FE
:101AD00040E150E060E070E0C5010E94ED310E94FD
:101AE0000F17F601F38844894F1950E04F5F5F4F9D
:101AF0008DB79EB7841B950B0FB6F8949EBF0FBE93
:101B00008DBF0DB71EB70F5F1F4F6EE271E0C801AA
:101B10000E944335F501EF0DF11D7F0183E0882E12
:101B200082E0982EF601848990E097012A193B09FA
:101B300082179307C4F0F70121917F01F80101900A
:101B40000020E9F71F922F939F928F92CF01019768
:101B50009F938F930E945C350F900F900F900F9082
:101B60000F900F90DFCF40E150E060E070E0C801DF
:101B70000E94ED316B017C018FE194E00E94821E96
:101B8000892B31F066EB7AE082E893E00E94471CF3
:101B90008FE194E00E94821E892B29F0B80182E82F
:101BA00093E00E94451C8FE194E00E94821E892BE5
:101BB00031F066E072E082E893E00E94451C8FE11C
:101BC00094E00E94821E892B21F0C701B6010E9479
:101BD0009E15C701B6010FB6F8947EBE0FBE6DBE4E
:101BE000DF91CF911F910F91FF90EF90DF90CF90F9
:101BF000BF90AF909F908F907F906F9008954F927D
:101C00005F926F927F928F929F92AF92BF92CF928C
:101C1000DF92EF92FF920F931F93CF93DF93CDB795
:101C2000DEB7E8970FB6F894DEBF0FBECDBF8C01CC
:101C300080916E0390916F030197C9F4D8011996B2
:101C40004D915D916D917C911C9780916004909174
:101C50006104A0916204B0916304481759076A07B0
:101C60007B0729F460E0809190040E946C170E9429
:101C7000031920916E0330916F03232B09F44EC09A
:101C8000F801C580D680E780F0846C197D098E0943
:101C90009F0928EE33E040E050E00E945033F80105
:101CA00081859285A385B48582179307A407B5071C
:101CB000A8F568E37CE082E893E00E946B1C64E294
:101CC0007CE0D8018D919C910E946B1CF801ED5A2B
:101CD000FF4FE080F1808FE194E00E94821E892B0B
:101CE00031F069E17CE082E893E00E946B1CBE0168
:101CF0006F5F7F4F88E2FB0111928A95E9F7C70178
:101D00000E94D71710926F0310926E0380916803A0
:101D10009091690390936D0380936C03D8018D912A
:101D20009C91DC01ED91FC910084F185E02D0995F9
:101D3000892B09F4BBC06801BDE0CB0ED11CF801B2
:101D400080819181DC01ED91FC910084F185E02D91
:101D50000995892B09F49BC0F80180819181DC01F0
:101D6000ED91FC910284F385E02D0995F82E8FE129
:101D700094E00E94821E892B31F06AEA7CE082E8BE
:101D800093E00E94471C8FE194E00E94821E892B01
:101D900049F06F2D82E893E00E943E1C82E893E0B8
:101DA0000E94031CB6018EE092E00E944C35892B04
:101DB00019F4F801F58EC3CFB60183E192E00E94D9
:101DC0004C35892B09F04AC08FE194E00E94821EB5
:101DD000892B31F061E67CE082E893E00E94471CA9
:101DE0008FE194E00E94821E892B49F06F2D82E8DA
:101DF00093E00E943E1C82E893E00E94031CD801FD
:101E0000D5968D919C91D697F801E80FF91FF58E24
:101E10000196F80196AB85AB80819181DC01ED9153
:101E2000FC910190F081E02D6F2D0995BDE0FB162E
:101E300019F0EAE0FE1283CFD8018D919C910E94A7
:101E4000031CD801D596ED91FC91D697E00FF11FB8
:101E5000168ED6961C921E92D59771CF6FE67CE0B7
:101E600082E893E00E946B1CF80180819181DC0183
:101E7000ED91FC910190F081E02D6F2D099567E0C7
:101E800073E0F801808191810E94071C58CF109364
:101E90006D0300936C034091600450916104609164
:101EA000620470916304C8010E94CC22D801D596C7
:101EB000AD90BC90D697A114B10409F0A5C45D966D
:101EC0008C9118160CF0A0C46FED72E0C8010E944E
:101ED000BB22882309F4D8C08FE194E00E94821EBF
:101EE000892B31F062E070E182E893E00E946B1C84
:101EF0006801BDE1CB0ED11CF801858D8D3009F450
:101F000071C08A3009F46EC0882309F46BC04AE0BE
:101F100050E060E070E0C6010E94ED314B015C01D1
:101F200067E57EE082E893E00E94471CC501B401AA
:101F30000E949E150E943C16E091CA04F091CB04C9
:101F4000BF01AF01485D5F4F9F0180E090E0D90184
:101F50004D905D906D907D909D01452846284728C5
:101F600009F001964217530791F781149104A104D7
:101F7000B10439F468E37EE082E893E00E946B1CD0
:101F800031C08A30910554F062E27EE082E893E04D
:101F90000E946B1CE2E0EE2EF12C27C0DB014D907D
:101FA0005D906D907D90BD0184149504A604B704E6
:101FB00009F434C34A175B0789F7880F991F880F04
:101FC000991FE80FF91F80829182A282B3820E943A
:101FD0000F196BEF7DE082E893E00E946B1CE12C0F
:101FE000F12C03C0EE24E394F12C6CEC7EE0F801BC
:101FF000808191810E94471CB601D8018D919C91EE
:102000000E94071C6AEB7EE0F801808191810E94AA
:10201000471CB701D8018D919C910E94561566E02E
:1020200072E0F801808191810E94451CD8018D9158
:102030009C91B2E0EB16F10469F0E3E0EE16F104D6
:1020400061F0EA94EF2819F062EB7EE008C063E9E2
:102050007EE005C06AE77EE002C061E67EE00E94A5
:10206000471CD8018D919C910E94031CF80180812E
:1020700091810E94031CC8010E94B022F801EF5A0E
:10208000FF4F1182108276C168E172E0C8010E94A0
:10209000BB22882309F461C08FE194E00E94821E74
:1020A000892B31F062ED7FE082E893E00E946B1CA7
:1020B0004AE050E060E070E0C8014D960E94ED31CA
:1020C0006B017C01D8015D968C918D3031F08A30A6
:1020D00021F0BAE0CB16D1045CF067EE7DE0F801A8
:1020E000808191810E946B1CD8018D919C9132C09E
:1020F0006FEB7DE082E893E00E94471CB60182E826
:1021000093E00E948C15D7FC12C08091CA04909174
:10211000CB04CC0CDD1CCC0CDD1CFC01EC0DFD1D3E
:1021200010821182128213820E940F1903C0AA2406
:10213000A394B12C62ED7DE0F801808191810E9431
:10214000471CB501D8018D919C910E948C15F80116
:10215000808191810E94031C0DC166E272E0C8017A
:102160000E94BB22882309F409C18FE194E00E94F8
:10217000821E892B31F06BE97FE082E893E00E94B8
:102180006B1CD8015D96FC908FE194E00E94821E4A
:10219000892B31F06AE97DE082E893E00E94471CD8
:1021A0008FE194E00E94821E892B29F06F2D82E836
:1021B00093E00E943E1C8FE194E00E94821E892BD6
:1021C00031F067E97DE082E893E00E94471C8FE1EF
:1021D00094E00E94821E892B29F06F2D82E893E003
:1021E0000E943E1C8FE194E00E94821E892B31F0F8
:1021F0006BE372E082E893E00E94071CF9828FE1B2
:1022000094E00E94821E892B31F062E17DE082E839
:1022100093E00E94471C8FE194E00E94821E892B6C
:1022200029F0698182E893E00E943E1C8FE194E0EE
:102230000E94821E892B31F06DE372E082E893E008
:102240000E94451C8FE194E00E94821E892B29F098
:10225000698182E893E00E943E1C8FE194E00E9435
:10226000821E892B31F06BE372E082E893E00E94DA
:10227000071C898180538A3048F44AE050E060E0CE
:1022800070E0CE0101960E94ED3102C060E370E083
:102290006801BFE4CB0ED11CF601718360838FE12E
:1022A00094E00E94821E892B31F061E77DE082E894
:1022B00093E00E94471C8FE194E00E94821E892BCC
:1022C00039F0D6016D917C9182E893E00E948C15E3
:1022D0008F2DFF0C990BAA0BBB0BFC01F097E7307D
:1022E000F10508F0BDC0EC5CFF4F0C94F63340E004
:1022F00050E0BA01C8010E94CC228CC181E090E07C
:10230000F801EF5AFF4F918380832FE231E040E4E0
:1023100052E07CC12AE331E046E752E077C160E455
:102320007DE0F801808191810E946B1C27E033E001
:10233000A90160E06CC161E67DE0D8018D919C91BE
:102340000E946B1C67E073E0F801808191810E941C
:10235000071C61E57DE082E893E00E946B1CE09140
:10236000CA04F091CB0488E2DF011D928A95E9F757
:102370000E940F19C8010E94FF224CC160E972E05F
:10238000C8010E94BB22882309F46EC08FE194E04B
:102390000E94821E892B31F065E67FE082E893E09F
:1023A0000E946B1C4AE050E060E070E0C8014D966E
:1023B0000E94ED317801BFE4EB0EF11CF70171834F
:1023C00060838FE194E00E94821E892B31F062EEDF
:1023D0007CE082E893E00E94471C8FE194E00E9439
:1023E000821E892B39F0D7016D917C9182E893E0B0
:1023F0000E948C15F70160817181CB010197409794
:1024000030F59E01275D3F4FAE014F5F5F4F8FE17B
:1024100094E00E94C21EBE016F5F7F4FD8018D9174
:102420009C910E94451C6FED7CE0F80180819181B8
:102430000E94471CBE01675D7F4FD8018D919C9122
:102440000E94071C24EA32E042EB52E0DFC0F801B0
:10245000858D803329F08D3019F08A3009F0C8C09D
:10246000C8010E946D22D6C064EA72E0C8010E94D1
:10247000BB22882309F4C0C08FE194E00E94821E31
:10248000892B31F063E37FE082E893E00E94471CF0
:102490008FE194E00E94821E9801215B3F4F590119
:1024A000892B39F0D9016D917C9182E893E00E94EB
:1024B00056158FE194E00E94821E892B31F066E070
:1024C00072E082E893E00E94451C8FE194E00E9454
:1024D000821EF8017D967F01892B29F0BF0182E8D9
:1024E00093E00E94071CD501CD90DC908FE194E031
:1024F0000E94821E892B31F06CEC7CE082E893E034
:102500000E94471C8FE194E00E94821E892B29F0D3
:10251000B60182E893E00E9456158FE194E00E9494
:10252000821E892B31F066E072E082E893E00E941F
:10253000451CB1E0CB1AD108F601EE0FFF1FE55D97
:10254000FA4E65917491CE0101960E940C338FE191
:1025500094E00E94821E892B39F0BE016F5F7F4F8D
:1025600082E893E00E94451C8FE194E00E94821E65
:10257000892B31F066E072E082E893E00E94451C0E
:102580008FE194E00E94821E892B09F451C0B701AB
:1025900082E893E00E94071C4BC04AE050E060E0F4
:1025A00070E0C7010E94ED3160934F0470935004B6
:1025B000809351049093520440E250E06FEC72E03B
:1025C0008FE294E00E9413338FE194E00E94D51DC6
:1025D00040916004509161046091620470916304C1
:1025E000C8010E94CC228FEF9FEFF5019183808379
:1025F000C8010E94F4210EC06AED7EE082E893E0FB
:102600000E946B1C26E232E047E053E06CE6C80112
:102610000E94A221C8010E94B022F6C06CE07EE0B8
:1026200082E893E00E946B1C33E0E32EF12CDDCCBA
:10263000F1E1CF16D10438F063E07FE082E893E067
:102640000E946B1CD0CFF601E55CFF4F0C94F63373
:102650004AE050E060E070E0C7010E94ED31609315
:102660005304709354048093550490935604A4CF5C
:102670004AE050E060E070E0C7010E94ED316093F5
:102680005704709358048093590490935A0494CF3C
:102690004AE050E060E070E0C7010E94ED316093D5
:1026A0005B0470935C0480935D0490935E0484CF1C
:1026B0004AE050E060E070E0C7010E94ED316093B5
:1026C0005F047ACF4AE050E060E070E0C7010E940A
:1026D000ED316A3071058105910548F06093600421
:1026E00070936104809362049093630465CF8AE0E1
:1026F00090E0A0E0B0E08093600490936104A09328
:102700006204B093630458CF4AE050E060E070E0A8
:10271000C7010E94ED3170936504609364044CCF4F
:102720004AE050E060E070E0C7010E94ED31709334
:1027300067046093660440CF40E150E0B70188E64B
:1027400094E00E94133338CF4AE050E060E070E03C
:10275000C7010E94ED3170937B0460937A042CCF03
:102760004AE050E060E070E0C7010E94ED317093F4
:1027700081046093800420CF4AE050E060E070E084
:10278000C7010E94ED3160938204709383048093AB
:1027900084049093850410CF4AE050E060E070E03C
:1027A000C7010E94ED31709387046093860404CFC3
:1027B0004AE050E060E070E0C7010E94ED316093B4
:1027C00088047093890480938A0490938B04F4CED8
:1027D0004AE050E060E070E0C7010E94ED31609394
:1027E0008C0470938D0480938E0490938F04E4CEB8
:1027F0004AE050E060E070E0C7010E94ED31709364
:10280000910460939004D8CEE8960FB6F894DEBF9A
:102810000FBECDBFDF91CF911F910F91FF90EF9031
:10282000DF90CF90BF90AF909F908F907F906F90F0
:102830005F904F900895CF93DF93EC0142E050E01A
:1028400060E070E00E94CC22CE010E94B0226FEDC9
:1028500071E0CE0102960E944C35892BE1F068EFC1
:102860007BE0888199810E94471C6BEB71E0888135
:1028700099810E94451C66E072E0888199810E94DE
:10288000451C6AEE72E0888199810E94071C88814C
:1028900099810E94031C26E232E047E053E06CE697
:1028A000CE01DF91CF910C94A221FC0180916E03A7
:1028B00090916F03892B99F5728B618B611571056E
:1028C00049F483E090E0A0E0B0E0878F90A3A1A35B
:1028D000B2A304C0178E10A211A212A280916404A8
:1028E0009091650470936504609364046817790798
:1028F000B1F06BEC7BE082E893E00E94471C6091B2
:1029000064047091650482E893E00E948C158091C4
:1029100064049091650490937904809378040895F9
:10292000FC01108A20E111922A95E9F708950F938E
:102930001F93CF93DF93CDB7DEB7A8970FB6F89468
:10294000DEBF0FBECDBF8C018FE194E00E94821EDE
:10295000892B31F066E57AE082E893E00E946B1CF7
:10296000BE016F5F7F4F88E2FB0111928A95E9F704
:1029700084EF91E09A8389839C838B83C8010E94B2
:10298000D717A8960FB6F894DEBF0FBECDBFDF9164
:10299000CF911F910F91089580E090E0FB0121916C
:1029A0003191BF011216130624F40196843191056A
:1029B000A9F708950F931F93CF93DF938B010E9484
:1029C000CC14BC0182E893E00E94561565EE71E0DC
:1029D00082E893E00E94451CE801085D1F4F67E014
:1029E00072E082E893E00E94451C6991799182E847
:1029F00093E00E945615C017D10789F767E073E08E
:102A000082E893E0DF91CF911F910F910C94071C06
:102A1000833081F028F4813099F08230A1F008955C
:102A20008730A9F08830B9F08430D1F480918000EB
:102A30008F7D03C0809180008F7780938000089500
:102A400084B58F7702C084B58F7D84BD0895809151
:102A5000B0008F7703C08091B0008F7D8093B0006D
:102A600008953FB7F89480917E0390917F03A091E1
:102A70008003B091810326B5A89B05C02F3F19F0B4
:102A80000196A11DB11D3FBFBA2FA92F982F8827EE
:102A9000820F911DA11DB11DBC01CD0142E0660F49
:102AA000771F881F991F4A95D1F70895CF92DF921B
:102AB000EF92FF920F931F93CF93DF936B01770FEA
:102AC000EE08FF08F7FE1BC0EC016DE20E943E1C01
:102AD0008C0144275527BA014C195D096E097F09FD
:102AE0002AE0CE010E94BA1B800F911FDF91CF9187
:102AF0001F910F91FF90EF90DF90CF9008952AE003
:102B0000B701A601DF91CF911F910F91FF90EF9038
:102B1000DF90CF900C94BA1B0F931F93CF93DF934A
:102B2000EC010E9456158C01CE010E94031C800FFF
:102B3000911FDF91CF911F910F910895CF93DF9354
:102B4000AB01BC012AE082E893E00E94BA1BEC01D1
:102B500082E893E00E94031C8C0F9D1FDF91CF91B0
:102B600008959B01482F50E060E070E082E893E018
:102B70000C94191CCF93DF936AE070E00E94B115AA
:102B8000EC0182E893E00E94031C8C0F9D1FDF91F3
:102B9000CF910895CF92DF92EF92FF926B017C016B
:102BA000E0919203F091930382E08083C11481EE5F
:102BB000D806E104F104B1F060E079E08DE390E043
:102BC000A70196010E945033DA01C9010197A109BA
:102BD000B109B695A795979587959C01211580E138
:102BE0003807B8F0E0919203F0919303108260E807
:102BF00074E88EE190E0A70196010E945033DA015B
:102C0000C9010197A109B109B695A795979587952F
:102C10009C01E0918E03F0918F033083E09190034B
:102C2000F0919103208310929A03E0919603F09122
:102C3000970386E08083E0919403F091950380816F
:102C400080618083E0919403F09195038081886096
:102C50008083E0919403F091950380818068808364
:102C6000E0919403F091950380818F7D8083FF90A4
:102C7000EF90DF90CF900895CF92DF92EF92FF9286
:102C80004091CA045091CB042FEF3FEF80E090E0D9
:102C9000FC01EE0FFF1FEE0FFF1FE40FF51FC080BA
:102CA000D180E280F380C114D104E104F10431F455
:102CB0002F3F6FEF3607D9F49C0119C00097B9F088
:102CC0002F3F6FEF360799F0D901AA0FBB1FAA0F4C
:102CD000BB1FA40FB51FCD92DD92ED92FC9213970E
:102CE0001082118212821382C9012FEF3FEF0196E9
:102CF0008A3091056CF2FF90EF90DF90CF900895AD
:102D0000CF93DF93EC019A01AB011B8E1A8E198EC3
:102D1000188E1F8A1E8A60E079E08DE390E00E94A1
:102D2000D733F9012430310518F0C901039702C0E7
:102D300081E090E09D8F8C8F6C85663108F06AC0D1
:102D4000C901969587958431910510F0439702C08B
:102D500081E090E09F8B8E8B369718F0C901059724
:102D600002C081E090E0998F888FC901880F991F78
:102D7000280F391F36952795369527952D30310523
:102D800018F02C50310902C021E030E03B8F2A8F2F
:102D900030916800683058F021E06E3008F420E08F
:102DA00091E0892F01C0880F2A95EAF701C084E0DD
:102DB000832B809368009C85983038F09E3040F0DB
:102DC000963148F020E030E008C02DE630E005C044
:102DD0002BE630E002C02CE630E03C8B2B8B9830A9
:102DE00030F481E001C0880F9A95EAF70EC0292FD0
:102DF00030E09E3018F42850310902C02E503109BD
:102E000081E001C0880F2A95EAF78D8B8C8D9D8D0E
:102E10000197F1F7CE01DF91CF910C944F1DCF9226
:102E2000DF92EF92FF92CF93DF936B017C0197FFCC
:102E300015C06DE282E893E00E943E1CEC0144273D
:102E40005527BA014C195D096E097F092AE082E80D
:102E500093E00E94BA1BC80FD91F08C02AE0AB013B
:102E6000BC0182E893E00E94BA1BEC0182E893E087
:102E70000E94031C8C0F9D1FDF91CF91FF90EF905C
:102E8000DF90CF900895CF93DF93282F30E0F901A2
:102E9000E75CFF4E8491F901EB58FF4ED491F901A4
:102EA000EF59FF4EC491CC2391F081110E94081577
:102EB000EC2FF0E0EE0FFF1FE35BFF4EA591B49106
:102EC000EC91ED2381E090E021F480E002C080E00D
:102ED00090E0DF91CF9108951F93CF93DF93282F38
:102EE00030E0F901E75CFF4E8491F901EB58FF4EA9
:102EF000D491F901EF59FF4EC491CC23C1F0162FA4
:102F000081110E940815EC2FF0E0EE0FFF1FE95A27
:102F1000FF4EA591B4919FB7F894111104C08C9104
:102F2000D095D82302C0EC91DE2BDC939FBFDF91BC
:102F3000CF911F910895CF93DF9390E0FC01EB5860
:102F4000FF4E2491FC01EF59FF4E8491882361F1DB
:102F500090E0880F991FFC01E15DFF4EC591D4916F
:102F6000FC01E95AFF4EA591B491611109C09FB7C8
:102F7000F8948881209582238883EC912E230BC0BE
:102F8000623061F49FB7F8948881322F30958323A3
:102F90008883EC912E2B2C939FBF06C08FB7F8949B
:102FA000E8812E2B28838FBFDF91CF910895EF9278
:102FB000FF920F931F93CF93DF93EC018B018FE16F
:102FC00094E00E94821E892B31F063EF71E182E868
:102FD00093E00E94471C8FE194E00E94821E892B9F
:102FE00039F0F8016081718182E893E00E948C15CC
:102FF0008FE194E00E94821E9E012E5E3F4F790178
:10300000892B71F06AEC71E182E893E00E946B1CFD
:10301000B701CE010E94DA14B801CE010E94DA1481
:1030200088859985892B59F4B801CE010E94CC146A
:10303000AC01B701C8010E943635892BF1F18FE14F
:1030400094E00E94821E892B71F062EA71E182E8AD
:1030500093E00E946B1CB701CE010E94DA14B80104
:10306000CE010E94DA1461E088810E949B171B82C6
:103070001A821D821C821F821E8219861886D80120
:10308000F701CE01CA962D913D9121933193E81716
:10309000F907C9F781E090E09F838E832A893B89F5
:1030A0001216130614F49B838A838A859B85AC854C
:1030B000BD858E879F87A88BB98BDF91CF911F919C
:1030C0000F91FF90EF9008950F931F93CF93DF938D
:1030D000EC01162F042F1B821A8288EE93E0A0E0E9
:1030E000B0E08C839D83AE83BF838CE491E09983B1
:1030F00088831F8A1E8A198E188E1B8E1A8E1D8E2B
:103100001C8E6E8D6E7F6D7F6E8F6695617081E017
:103110006827842F0E946C1761E0802F0E949B1704
:10312000802F90E0FC01EB58FF4EE491E88BFC010E
:10313000EF59FF4EE491F0E0EE0FFF1FE95AFF4E0A
:10314000859194919A8B898B60E0812F0E949B17C7
:103150008E8D81FD04C061E0812F0E946C171C8759
:10316000812F90E0FC01EB58FF4EE491ED87FC01CC
:10317000EF59FF4EE491F0E0EE0FFF1FE35BFF4ECF
:10318000859194919F878E87DF91CF911F910F91A9
:1031900008958F929F92AF92BF92CF92DF92EF925B
:1031A000FF926B017C010E9431154B015C01C1143F
:1031B000D104E104F104F1F00E943115DC01CB01EE
:1031C00088199909AA09BB09883E9340A105B10550
:1031D00070F321E0C21AD108E108F10888EE880EE8
:1031E00083E0981EA11CB11CC114D104E104F104B8
:1031F00019F7DDCFFF90EF90DF90CF90BF90AF90A9
:103200009F908F9008952FB7F89460917A037091F2
:103210007B0380917C0390917D032FBF0895EF92F3
:10322000FF920F931F93CF93DF9300D000D0CDB7C1
:10323000DEB70E943C1665E871E182E893E00E94E7
:10324000471C82E994E00E94C21D40E150E0BC01AD
:1032500082E893E00E94261C68E771E182E893E02F
:103260000E94471C6CEB72E082E893E00E948C1590
:1032700000E010E0E091CA04F091CB04C801880F8F
:10328000991F880F991FE80FF91F408151816281B2
:1032900073812AE030E082E893E00E94191C65EE19
:1032A00071E082E893E00E94451C0F5F1F4F0A30D7
:1032B000110501F782E893E00E94031C62E671E1C8
:1032C00082E893E00E946B1C8CEB92E00E94A71DA9
:1032D0008C0182E994E00E94C21D9C838B8360E58F
:1032E00071E182E893E00E94471C62E974E082E8A1
:1032F00093E00E94451C62E471E182E893E00E9441
:10330000471C6EEB72E082E893E00E94561565E27E
:1033100071E182E893E00E94471C40E150E0B8016F
:1033200082E893E00E94261C61E271E182E893E06A
:103330000E94471C6B817C8140E150E082E893E071
:103340000E94261C65E171E182E893E00E94471C1F
:103350004AE050E06AE370E082E893E00E942C1CAF
:103360008B819C810817190729F16DED70E182E8C6
:1033700093E00E946B1CBE016D5F7F4F8CEB92E06F
:103380000E94801D82E9E82E84E0F82E0EEB12E008
:10339000F70161917F011A830983CE0101960E9492
:1033A0006D210F5F1F4F083FF2E01F0789F769EC9F
:1033B00070E108C06DE970E182E893E00E946B1C47
:1033C00069E870E182E893E00E946B1C0F900F9017
:1033D0000F900F90DF91CF911F910F91FF90EF9081
:1033E0000895CF92DF92EF92FF920F931F93CF93A6
:1033F000DF936C017A018B01C0E0D0E0CE15DF05D0
:1034000081F0D8016D918D01D601ED91FC91019073
:10341000F081E02DC6010995892B11F02196EECFA0
:103420007E01C701DF91CF911F910F91FF90EF9027
:10343000DF90CF900895FC01538D448D252F30E00F
:10344000842F90E0821B930B541710F0CF960895B1
:1034500001970895FC01918D828D981761F0828DFE
:10346000DF01A80FB11D5D968C91928D9F5F9F73B8
:10347000928F90E008958FEF9FEF0895FC01918D5A
:10348000828D981731F0828DE80FF11D858D90E0C7
:1034900008958FEF9FEF0895FC01918D228D892F64
:1034A00090E0805C9F4F821B91098F73992708954C
:1034B00082E893E00E944C1A21E0892B09F420E075
:1034C000822F0895FC01848DDF01A80FB11DA35A3E
:1034D000BF4F2C91848D90E001968F739927848F34
:1034E000A689B7892C93A089B1898C918370806457
:1034F0008C93938D848D981306C00288F389E02DF8
:1035000080818F7D80830895EF92FF920F931F93A8
:10351000CF93DF93EC0181E0888F9B8D8C8D981386
:1035200005C0E889F989808185FD26C0F62E0B8DBE
:1035300010E00F5F1F4F0F731127E02E8C8DE812E4
:103540000CC00FB607FCFACFE889F989808185FFA6
:10355000F5CFCE010E94621AF1CF8B8DFE01E80FEC
:10356000F11DE35AFF4FF0829FB7F8940B8FEA8961
:10357000FB89808180620AC09FB7F894EE89FF8939
:103580006083E889F98980818370806480839FBF2C
:1035900081E090E0DF91CF911F910F91FF90EF902C
:1035A0000895CF93DF93EC01888D8823C9F0EA89D1
:1035B000FB89808185FD05C0A889B9898C9186FD2C
:1035C0000FC00FB607FCF5CF808185FFF2CFA88929
:1035D000B9898C9185FFEDCFCE010E94621AE7CFA9
:1035E000DF91CF91089580E090E0892B29F00E942F
:1035F000581A81110C940000089520916A033091AB
:103600006B032817390771F490910F0580910E050F
:10361000981741F0E0910F05F0E0E253FB4F8081F5
:1036200090E008958FEF9FEF089508951F93CF9333
:10363000DF93DC015C968D919C915D97009739F446
:1036400021E030E013963C932E9312973BC05196A5
:10365000ED91FC91529750962C915097322F3095C6
:103660001FB75E964C915E97742F727041FD609506
:10367000F8944081772311F0422B01C0432340830B
:10368000EC012197F1F748E0508160FF02C0522B16
:1036900001C053235083EC012197F1F76695415007
:1036A00099F78081772319F08323808302C0282B28
:1036B00020831FBF5C968D919C915D970197F1F7D8
:1036C00081E090E0DF91CF911F91089520916A03EE
:1036D00030916B032817390771F480910E05209102
:1036E0000F0590E0805C9F4F821B910960E470E0C1
:1036F0000E94C333089580E090E0089520916A030A
:1037000030916B0328173907B9F490910F05809118
:103710000E05981789F0E0910F05F0E0E253FB4F9A
:10372000808120910F0530E02F5F3F4F2F733327AB
:1037300020930F0590E008958FEF9FEF089508956F
:1037400080E090E008950E9431356115710579F0AF
:10375000FB0101900020E9F73197AF01461B570BA1
:10376000DC01ED91FC910280F381E02D099480E071
:1037700090E008958F929F92AF92BF92EF92FF9246
:103780000F931F93CF93DF93CDB7DEB7A1970FB6FB
:10379000F894DEBF0FBECDBF7C01FA01CB0119A2A8
:1037A000223008F42AE08E010F5D1F4F822E912CEB
:1037B000A12CB12CBF01A50194010E945033F90145
:1037C000CA01015011096A3014F4605D01C0695CDE
:1037D000D8016C93232B242B252B61F7B801C7014B
:1037E0000E94A51BA1960FB6F894DEBF0FBECDBFF9
:1037F000DF91CF911F910F91FF90EF90BF90AF900D
:103800009F908F90089565E073E00C94A51B0F9333
:103810001F93CF93DF93EC010E94A51B8C01CE0177
:103820000E94031C800F911FDF91CF911F910F9178
:1038300008952115310541F4DC01ED91FC910190D1
:10384000F081E02D642F09940C94BA1B9A01AB010E
:1038500060E070E00C94191C0F931F93CF93DF93DB
:10386000EC010E94261C8C01CE010E94031C800FDB
:10387000911FDF91CF911F910F910895DC01ED9180
:10388000FC910190F081E02D09940C94A51BEF921E
:10389000FF920F931F93CF93DF938C017B01C0E0C6
:1038A000D0E0F701EC0FFD1F6491662361F0D801B1
:1038B000ED91FC910190F081E02DC8010995892BD3
:1038C00011F02196EECFCE01DF91CF911F910F9194
:1038D000FF90EF9008950F931F93CF93DF93EC0128
:1038E0000E94471C8C01CE010E94031C800F911F77
:1038F000DF91CF911F910F9108951F920F920FB6F4
:103900000F9211242F933F934F935F936F937F9365
:103910008F939F93AF93BF93EF93FF9382E893E0CE
:103920000E94621AFF91EF91BF91AF919F918F9189
:103930007F916F915F914F913F912F910F900FBEAB
:103940000F901F9018951F920F920FB60F9211248F
:103950002F938F939F93EF93FF93E0919203F091B6
:1039600093038081E0919803F091990382FD12C046
:10397000908180919B038F5F8F7320919C038217AE
:1039800051F0E0919B03F0E0EE57FC4F958F809350
:103990009B0301C08081FF91EF919F918F912F91A7
:1039A0000F900FBE0F901F9018951F920F920FB699
:1039B0000F9211242F933F934F935F936F937F93B5
:1039C0008F939F93AF93BF93EF93FF93E0916A031D
:1039D000F0916B03309709F451C0968DA685B78599
:1039E000858591FF04C09C91892329F447C09C914F
:1039F000892309F043C0A389B4899C918589809566
:103A000089238C93868997890197F1F7608D718D51
:103A1000A685B785558538E020E0CB010197F1F701
:103A2000822F90E095958795282F4C91452309F09A
:103A30002068315091F7868D81FD209580910E058B
:103A400090E001968F73992730910F05381749F050
:103A5000A0910E05B0E0A253BB4F2C9380930E05AE
:103A600003C0868D8160868F828D938D0197F1F7DB
:103A7000A389B4899C918589892B8C93FF91EF91BF
:103A8000BF91AF919F918F917F916F915F914F9176
:103A90003F912F910F900FBE0F901F901895CF93CD
:103AA000DF93FC01828D938D892B31F1A0916A0304
:103AB000B0916B03EA17FB07F9F0109751F053969A
:103AC000CD91DC915497988155968C91809589235E
:103AD0008883868D8E7F868F10920E0510920F053B
:103AE000F0936B03E0936A03A389B4899C91858961
:103AF000892B8C9381E001C080E0DF91CF91089504
:103B0000EF92FF920F931F93CF93DF9300D0CDB727
:103B1000DEB78C017B01FB0160819A838983CE0132
:103B200001960E946D21F70161810F5F1F4F1A837B
:103B30000983CE0101960E946D21C7010F900F905D
:103B4000DF91CF911F910F91FF90EF9008950F9308
:103B50001F93CF93DF9300D0CDB7DEB78C011A82CD
:103B600019820E942A338983C80101960E942A3350
:103B70008A8389819A810F900F90DF91CF911F9155
:103B80000F910895FC01AC01465C5F4F80E090E02E
:103B9000208130E0322F22276181262B8227932734
:103BA00032964E175F07A1F70895EF92FF920F9399
:103BB0001F93CF93DF9300D000D0CDB7DEB78C0139
:103BC00068EE72E182E893E00E946B1C80E293E071
:103BD0000E94A71D7C01C8010E9486219C838B83C3
:103BE00066ED72E182E893E00E94471CB80182E82A
:103BF00093E00E94451C68EC72E182E893E00E9429
:103C0000471C62E273E082E893E00E9456156BEA7B
:103C100072E182E893E00E94471C40E150E0B70166
:103C200082E893E00E94261C67EA72E182E893E052
:103C30000E94471C6B817C8140E150E082E893E068
:103C40000E94261C6BE972E182E893E00E94471C07
:103C50004AE050E063E770E082E893E00E942C1CA9
:103C60008B819C81E816F90641F163E672E182E8F6
:103C700093E00E946B1CBE016D5F7F4F80E293E07A
:103C80000E94801D780102E213E0F70161917F013B
:103C90001A830983CE0101960E946D210F5F1F4F89
:103CA0000539F3E01F0789F76FE472E182E893E0DA
:103CB0000E946B1C00E010E00EC063E272E182E83B
:103CC00093E00E946B1C6FE072E182E893E00E9437
:103CD0006B1C01E010E06EEF72E182E893E00E945D
:103CE000471CB80182E893E00E948C15C8010F9030
:103CF0000F900F900F90DF91CF911F910F91FF9038
:103D0000EF900895CF93DF93EC01FC01E959FF4F49
:103D100080810E944317892B59F0C95BDF4F81E0F6
:103D200090E0288139812130310521F080E002C006
:103D300081E090E0DF91CF910895CF93DF93EC0184
:103D40002D9640E150E0CE010E9413338FE194E0C4
:103D50000E94821E892B31F069E474E182E893E0CD
:103D60000E94471C8FE194E00E94821E892B39F04B
:103D7000BE0182E893E0DF91CF910C94071CDF91A4
:103D8000CF910895AF92BF92CF92DF92EF92FF92C0
:103D90000F931F93CF93DF93EC015B016A018901BD
:103DA0007B0181E0E81AF108F701EE0FFF1FE55DE6
:103DB000FA4E65917491CA010E940C338FE194E030
:103DC0000E94821E892B31F06DE075E182E893E05C
:103DD0000E94471C8FE194E00E94821E892B29F0EB
:103DE000B50182E893E00E9456158FE194E00E94AD
:103DF000821E892B31F066E072E082E893E00E9437
:103E0000451C8FE194E00E94821E892B29F0B601A7
:103E100082E893E00E94451C91E1E916F10408F064
:103E20000BC1F701E45BFF4F0C94F6338BA98F9322
:103E30008AA98F9389A98F9388A98F938FEF91E097
:103E40009F938F931F930F930E945C358DB79EB7FE
:103E500008960FB6F8949EBF0FBE8DBFEDC08FA918
:103E60008F938EA98F938DA98F938CA98F938FEFAA
:103E700091E09F938F931F930F930E945C358DB7B2
:103E80009EB708960FB6F8949EBF0FBE8DBFD4C0E4
:103E90008BAD8F938AAD8F9389AD8F9388AD8F93C0
:103EA0008FEF91E09F938F931F930F930E945C3548
:103EB0008DB79EB708960FB6F8949EBF0FBE8DBF04
:103EC000BBC08FAD8F938EAD8F938DAD8F938CAD27
:103ED0008F938FEF91E09F938F931F930F930E9487
:103EE0005C358DB79EB708960FB6F8949EBF0FBE8F
:103EF0008DBFA2C0C05CDF4F88811F928F9388E086
:103F000093E08EC0CF5BDF4F8B818F938A818F933D
:103F100089818F9388818F938FEF91E09F938F9307
:103F20001F930F930E945C358DB79EB708960FB60E
:103F3000F8949EBF0FBE8DBF7FC0CB5BDF4F6AC0C2
:103F4000C95BDF4F67C0BE01675B7F4F06C0C55AC4
:103F5000DF4F60C0BE01635A7F4FC8010E945535D4
:103F60006BC0CF59DF4F56C0CD59DF4F8B818F9338
:103F70008A818F9389818F9388818F938EE093E0DC
:103F80009F938F931F930F930E945C358DB79EB7BD
:103F900008960FB6F8949EBF0FBE8DBF4DC0C9598D
:103FA000DF4F38C0C759DF4F8B818F938A818F9342
:103FB00089818F9388818F938EE093E09F938F9375
:103FC0001F930F930E945C358DB79EB708960FB66E
:103FD000F8949EBF0FBE8DBF2FC0C359DF4F8B819A
:103FE0008F938A818F9389818F9388818F938EE0BD
:103FF00093E09F938F931F930F930E945C358DB72F
:104000009EB708960FB6F8949EBF0FBE8DBF14C022
:10401000CF58DF4F89818F9388818F938BE093E016
:104020009F938F931F930F930E945C350F900F9077
:104030000F900F900F900F908FE194E00E94821EDE
:10404000892B31F066E072E082E893E00E94451C23
:104050008FE194E00E94821E892B79F0B80182E8FA
:1040600093E0DF91CF911F910F91FF90EF90DF9040
:10407000CF90BF90AF900C94071CDF91CF911F9110
:104080000F91FF90EF90DF90CF90BF90AF90089589
:10409000AF92BF92CF92DF92EF92FF920F931F9356
:1040A000CF93DF93CDB7DEB7E0970FB6F894DEBFBE
:1040B0000FBECDBFB62EA72E6A018E010F5D1F4F1A
:1040C0009801AE014F5F5F4F7A010E94C21E1F939D
:1040D0000F93FF92EF92AF92BF9282E193E09F9392
:1040E0008F93DF92CF920E945C358FE194E00E9423
:1040F000821E0FB6F894DEBF0FBECDBF892B31F004
:1041000064E775E182E893E00E94471C8FE194E048
:104110000E94821E892B29F0B70182E893E00E9459
:10412000451C8FE194E00E94821E892B31F066E0ED
:1041300072E082E893E00E94451C8FE194E00E94C7
:10414000821E892B29F0B80182E893E00E94071CA7
:104150008FE194E00E94821E892B31F06DE475E1BD
:1041600082E893E00E94471C8FE194E00E94821E47
:10417000892B29F0B60182E893E00E94071CE096A3
:104180000FB6F894DEBF0FBECDBFDF91CF911F9168
:104190000F91FF90EF90DF90CF90BF90AF90089578
:1041A000CF93DF93EC0140E150E066ED72E00E94B6
:1041B000133381E1EEE6F1E0DE01509601900D92BD
:1041C0008A95E1F7FE01B1968FE0DF011D928A9595
:1041D000E9F78FE090E0A0E0B0E088AB99ABAAAB44
:1041E000BBAB88EE93E0A0E0B0E08CAB9DABAEAB98
:1041F000BFAB86E990E0A0E0B0E088AF99AFAAAF8E
:10420000BBAF85E090E0A0E0B0E08CAF9DAFAEAF7B
:10421000BFAF7F96808331968CE390E0A0E0B0E062
:1042200080839183A283B383369611821082CE015C
:10423000875B9F4F27E0EEE8F1E0DC0101900D92F3
:104240002A95E1F7FC01379629E0DF011D922A95B6
:10425000E9F7399681E090E091838083329628E0F7
:1042600030E031832083329640919E0150919F012E
:104270006091A0017091A101408351836283738397
:10428000349624E030E031832083329640E051EED2
:1042900060E070E0408351836283738334962BE047
:1042A00030E031832083329640E855E260E070E0F0
:1042B0004083518362837383349640835183628346
:1042C000738334962DE030E031832083CB5BDF4F66
:1042D00099838883DF91CF910895FF920F931F9365
:1042E000CF93DF93EC01F62E08811981C8010E945B
:1042F0002A33F81621F06F2DC8010E943233CE0107
:10430000DF91CF911F910F91FF900895FC0160E024
:1043100070E080E090E0208130E0522F4427623747
:10432000710519F0218130E002C020E030E0242B3B
:10433000352B822793276E5F7F4F32966437710546
:1043400051F70895EF92FF920F931F93CF93DF934E
:10435000EC017A0189016C3619F463E172E004C062
:10436000633629F46EE072E0CE010E949D1EF801D2
:1043700080818823F1F08FE194E00E94821E892BD6
:1043800031F06AE574E182E893E00E94471C8FE116
:1043900094E00E94821E892B29F0B80182E893E004
:1043A0000E94071C48E150E0B801CE01C7960E9468
:1043B0001333F7018081882359F0B70188819981EF
:1043C0000E94451C67E072E0888199810E94451C2B
:1043D00060E273E088819981DF91CF911F910F9105
:1043E000FF90EF900C94451CBF92CF92DF92EF921A
:1043F000FF920F931F93CF93DF93CDB7DEB7E09774
:104400000FB6F894DEBF0FBECDBF8C01FC01E15B9F
:10441000FF4F8FEF9FEF918380836AEF74E1F80184
:10442000808191810E94471C8FE194E00E94862147
:1044300040E150E0BC01F801808191810E94261C7E
:1044400062EF74E1F801808191810E94471C4AE08B
:1044500050E063E770E0F801808191810E942C1C9C
:10446000EE24E394F12C90E3B92ECE0101966C0179
:10447000F6018B2D11928A95E9F7A601B7018FE11C
:1044800094E00E944820B601F801808191810E9449
:10449000071CFFEFEF1AFF0A82E1E816F10441F76B
:1044A000F801808191810E94031C20E932E043E2FF
:1044B00053E06CE6C8010E94A221E0960FB6F89482
:1044C000DEBF0FBECDBFDF91CF911F910F91FF9047
:1044D000EF90DF90CF90BF900895CF93DF93EC01E2
:1044E00063ED74E1888199810E946B1C6BEC74E12F
:1044F000888199810E946B1C6EEB74E1888199819F
:104500000E946B1C63EB74E1888199810E946B1C93
:1045100065EA74E1888199810E946B1C61E974E10C
:10452000888199810E946B1C65E874E1888199817A
:104530000E946B1C62E774E1888199810E946B1C68
:1045400067E073E0888199810E94071C26E232E0CF
:104550004CE353E06CE6CE01DF91CF910C94A221A5
:10456000FC017D9628E1DF011D922A95E9F7FC0107
:1045700016AA15AA0895FC0125A936A9232B49F4EA
:10458000258D121634F4C7960E944C3521E0892BF4
:1045900009F020E0822F0895CF92DF92EF92FF92F0
:1045A000CF93DF93EC016A017B0189859A85AB8506
:1045B000BC8584179507A607B70751F06AE274E136
:1045C00082E893E00E94471CC701B6010E949E1535
:1045D000C986DA86EB86FC8681E090E090936F03D3
:1045E00080936E030E9403196D837E838F83988767
:1045F000DF91CF91FF90EF90DF90CF900895EF92F1
:10460000FF920F931F93CF93DF93EC0163EE74E15E
:10461000888199810E94471C8CEB92E00E94A71D23
:1046200040E150E0BC01888199810E94261C6BED1D
:1046300074E1888199810E94471C4AE050E06AE356
:1046400070E0888199810E942C1C00E010E0E091CC
:10465000CA04F091CB047801EE0CFF1CEE0CFF1C99
:10466000EE0DFF1D80819181A281B381892B8A2B60
:104670008B2B11F1B801888199810E94561568ED44
:1046800074E1888199810E94471C8091CA049091AD
:10469000CB04FC01EE0DFF1D4081518162817381CD
:1046A0002AE030E0888199810E94191C67E073E05C
:1046B000888199810E94071C0F5F1F4F0A301105E6
:1046C00031F667E073E0888199810E94071C26E239
:1046D00032E04FE453E060E0CE01DF91CF911F91D3
:1046E0000F91FF90EF900C94A2211F920F920FB6A2
:1046F0000F9211242F933F938F939F93AF93BF9368
:1047000080917A0390917B03A0917C03B0917D030B
:104710003091100523E0230F2D3720F40196A11DC1
:10472000B11D05C026E8230F0296A11DB11D2093DF
:10473000100580937A0390937B03A0937C03B0933E
:104740007D0380917E0390917F03A0918003B091BF
:1047500081030196A11DB11D80937E0390937F0379
:10476000A0938003B0938103BF91AF919F918F91EC
:104770003F912F910F900FBE0F901F901895CF93E0
:10478000DF93CDB7DEB7C357D1090FB6F894DEBFBC
:104790000FBECDBF789484B5826084BD84B581603E
:1047A00084BD85B5826085BD85B5816085BD8091FC
:1047B0006E00816080936E00109281008091810074
:1047C000826080938100809181008160809381006C
:1047D000809180008160809380008091B10084602E
:1047E0008093B1008091B00081608093B00080918F
:1047F0007A00846080937A0080917A00826080934E
:104800007A0080917A00816080937A0080917A00AA
:10481000806880937A001092C10060E071EE80E0C1
:1048200090E00E94CA156FE070E080E090E00E9486
:10483000C91868E575E082E893E00E946B1C63E7A5
:1048400072E082E893E00E946B1C6CE671E082E803
:1048500093E00E946B1C80E293E00E94A71D9A8364
:1048600089839FE1E92E94E0F92E02E213E0C8016A
:104870000E942A33D7018D937D010F5F1F4F0539A9
:10488000B3E01B07A1F78FE194E00E9486218C0121
:104890006CE571E082E893E00E94471C60E273E0FF
:1048A00082E893E00E948C156DE471E082E893E069
:1048B0000E94471C62E070E082E893E00E948C1541
:1048C0006CE371E082E893E00E94471C69817A8181
:1048D00040E150E082E893E00E942C1C6BE271E022
:1048E00082E893E00E94471C40E150E0B80182E872
:1048F00093E00E942C1C60E171E082E893E00E944A
:10490000471C6FE174E082E893E00E94451C62EA74
:1049100071E082E893E00E94071C6BEF70E082E890
:1049200093E00E94471C4AE050E063E770E082E8B1
:1049300093E00E942C1C60EF70E082E893E00E94FC
:10494000471C4AE050E063E770E082E893E00E9491
:104950002C1C89819A81FE0131967F010817190765
:1049600069F06EEC70E082E893E00E946B1C1A82A2
:104970001982B70180E293E00E94801D6AEB70E02B
:1049800082E893E00E946B1C8FE194E00E948621F4
:104990008C016BE472E082E893E00E94471C6FE1B7
:1049A00074E082E893E00E94451C69E372E082E8CB
:1049B00093E00E94471C6FE274E082E893E00E945B
:1049C000451C69E272E082E893E00E94471C40E1E6
:1049D00050E0B80182E893E00E942C1C80E293E052
:1049E0000E94A71D0817190701F16AEE71E082E81D
:1049F00093E00E946B1CC7010E94D02083E7F7015F
:104A0000AFE1B4E001900D928A95E1F740E250E009
:104A100064EA71E08FE294E00E9413338FE194E046
:104A20000E94D51D60EC71E002C067E971E082E888
:104A300093E00E94471C6FE274E082E893E00E94DA
:104A4000451C62EA71E082E893E00E94071C62E87C
:104A500071E082E893E00E946B1C82E893E00E9480
:104A6000D11A6091820470918304809184049091A2
:104A700085040E94CA156FE070E080E090E00E941B
:104A8000C91866E275E082E893E00E94471C6091D5
:104A900082047091830480918404909185040E9423
:104AA0000F1764E175E082E893E00E94471C6FE213
:104AB00074E082E893E00E94451C69E075E082E8BA
:104AC00093E00E94471C4AE050E063E770E082E810
:104AD00093E00E942C1C6EEE74E082E893E00E944A
:104AE000471C6BEB71E082E893E00E94451C6BEE83
:104AF00074E082E893E00E94471C69EC71E082E870
:104B000093E00E94071C62E0809186040E949B173C
:104B1000809186040E9443178C0168ED74E082E85E
:104B200093E00E94471CB80182E893E00E948C1534
:104B3000012B61F467EB74E082E893E00E946B1C48
:104B400081E090E090936704809366048AE390E0AC
:104B50000E9410346C0180917A0490917B04D601FC
:104B600011969C938E9313961C921E9212971596F3
:104B70001C921E92149717961C921E9216971996C5
:104B80001C921E9218970E940319F6016287738780
:104B90008487958716861786108A118A729688E20E
:104BA000DF011D928A95E9F7D0927903C0927803CC
:104BB0008FE190E00E9410348C0140917E0460915E
:104BC0007C040E946418109371030093700385E5C0
:104BD00090E00E9410348C0182E893E0F801918308
:104BE0008083D8011582168217821086118612865C
:104BF0001386148685E0E6E0F1E01D9601900D92A3
:104C00008A95E1F7EBE07E2EF8017296DF01272D01
:104C10001D922A95E9F7A8E18A2E3B96DF01282DFF
:104C20001D922A95E9F7D801D6961C921E92D59727
:104C3000D8961C921E92D797B6E19B2E7C96DF01E8
:104C4000292D1D922A95E9F77696AA24AA94BA2CC2
:104C5000B182A0823296118210823296D182C082B5
:104C600043E050E06FED71E0C80102960E941333FB
:104C7000109369030093680385E590E00E94103467
:104C80008C01209178033091790380917003909189
:104C90007103D80111969C938E93F80115821682A8
:104CA0001782108619961D921D921D921C921C97B8
:104CB00085E0E6E0F1E01D9601900D928A95E1F71E
:104CC000F8017296DF011D927A94E9F73B96DF01B5
:104CD0001D928A94E9F7F80116AA15AA10AE17AA30
:104CE000F996DF011D929A94E9F77696B182A08237
:104CF00032961182108232963183208343E050E055
:104D000062EE71E0C80102960E94133310937303A0
:104D1000009372038FE190E00E9410346C01409187
:104D20007A04609180040E946418D0927703C09244
:104D300076038DE390E00E9410348C01A0907803FC
:104D4000B090790380E1F80111928A95E9F7D801D2
:104D500050961C92509752961C921E9251970E9408
:104D60000319F801638B748B858B968B178A108ED1
:104D7000118E128E138E148E158E168E178E10A213
:104D800011A212A213A214A215A216A217A210A673
:104D900011A612A613A614A615A616A617A610AA43
:104DA00011AA12AA13AA14AA15AA16AAD0AEC7AAA3
:104DB000B2AEA1AE10937503009374038FE194E03B
:104DC0000E94821E892B31F06AE872E082E893E04B
:104DD0000E946B1C88E2D7011D928A95E9F786ED47
:104DE00091E09A8389838EE190E09C838B83B70165
:104DF000C5010E94D71740918804509189046091A1
:104E00008A0470918B0480917003909171030E94C9
:104E100080166EE972E082E893E00E946B1C80913C
:104E20006803909169030E941B1480917203909112
:104E300073030E941B1440918C0450918D04609167
:104E40008E0470918F0480917603909177030E9475
:104E50008016009174031091750361E080919004B5
:104E60000E949B1761E080915F040E949B178091D4
:104E7000640490916504F801928B818B65E874E07D
:104E800082E893E00E94471CD80151966D917C9175
:104E9000529782E893E00E948C15F8016189809115
:104EA00090040E946C1768EA73E082E893E00E9425
:104EB0006B1C64E673E082E893E00E946B1C8CEB51
:104EC00092E00E94A71D9A83898362E9A62E64E07E
:104ED000B62E7EEBC72E72E0D72EC6010E942A3373
:104EE000D5018D935D01BFEFCB1ADB0AE8EFCE163B
:104EF000E2E0DE0691F782E994E00E94C21D6C01B7
:104F000064E573E082E893E00E94471C6CEB72E07A
:104F100082E893E00E948C1565E473E082E893E0F8
:104F20000E94471C62E070E082E893E00E948C15CA
:104F300064E373E082E893E00E94471C69817A8110
:104F400040E150E082E893E00E942C1C63E273E0B1
:104F500082E893E00E94471C40E150E0B60182E8FD
:104F600093E00E942C1C68E073E082E893E00E94CA
:104F7000471C62E974E082E893E00E94451C62EA03
:104F800071E082E893E00E94071C63EF72E082E820
:104F900093E00E94471C4AE050E06AE370E082E838
:104FA00093E00E942C1C68EE72E082E893E00E947D
:104FB000471C4AE050E06AE370E082E893E00E9418
:104FC0002C1C89819A81C816D90669F066EC72E0BA
:104FD00082E893E00E946B1C1A821982B7018CEB65
:104FE00092E00E94801D62EB72E082E893E00E94F2
:104FF0006B1CC12CD12CE091CA04F091CB04C601EA
:10500000880F991F880F991FE80FF91F4081518160
:10501000628173812AE030E082E893E00E94191CEB
:1050200065EE71E082E893E00E94451CFFEFCF1A25
:10503000DF0A2AE0C216D104F1F682E893E00E946A
:10504000031C8CEB92E00E94A71D6C0182E994E0A6
:105050000E94C21D8C159D0531F06BE873E082E85B
:1050600093E00E946B1C0E943C166AE773E082E8A2
:1050700093E00E946B1C65ED73E082E893E00E9470
:105080006B1C86E190E00E9410346C0126E2A22E97
:1050900021E0B22EDC011196BC92AE928EE05296C7
:1050A0008C93529733E0832E53968C9253974AE019
:1050B000942E54969C9254977724739455967C9290
:1050C00040E150E067EE71E0C60102960E941333A2
:1050D0006BEB73E082E893E00E94471C67EE71E09F
:1050E00082E893E00E94071C8AE191E0F601918337
:1050F0008083E091CC04F091CD04D182C08286E11E
:1051000090E00E9410346C01DC011196BC92AE92CA
:1051100052969C92529784E053968C93539787E0D3
:1051200054968C93549755967C9240E150E060EFF2
:1051300071E0C60102960E9413336BEB73E082E8C4
:1051400093E00E94471C60EF71E082E893E00E94C8
:10515000071C80E291E0F60191838083E091CC040A
:10516000F091CD04D382C28286E190E00E94103497
:105170006C01DC011196BC92AE928DE052968C933C
:10518000529753968C92539754969C925497559657
:105190001C9240E150E066EF71E0C60102960E9469
:1051A00013336BEB73E082E893E00E94471C66EFD9
:1051B00071E082E893E00E94071C8CE291E0F60126
:1051C00091838083E091CC04F091CD04D582C48298
:1051D0008FE194E00E94821E892B31F061E374E03C
:1051E00082E893E00E94471C8FE194E00E94821EB7
:1051F000892B31F068E674E082E893E00E94071C96
:10520000C090CC04D090CD044601F6E08F0E911CE6
:10521000D6016D907D906D015301B2E0AB0EB11CD3
:10522000B50188E694E00E944C35892BB1F08C14CE
:105230009D0471F78FE194E00E94821E892B31F06A
:1052400063E074E082E893E00E946B1CE091CC0480
:10525000F091CD049081818119C08FE194E00E948A
:10526000821E892B31F06AE174E082E893E00E94AB
:10527000471C8FE194E00E94821E892B29F0B50122
:1052800082E893E00E94071C962D872DF80193AFCA
:1052900084AF6FE674E082E893E00E94471CD80177
:1052A000DB966D917C91DC976E5F7F4F82E893E097
:1052B0000E94451C60E574E082E893E00E94471C70
:1052C000F8016189728982E893E00E948C15D80107
:1052D000DB96ED91FC91DC97658981E068278091F0
:1052E0005F040E946C1762E370E080E090E00E942F
:1052F000C918D801DB96ED91FC91DC976589809106
:105300005F040E946C1782E893E00E94031C01E096
:1053100010E090E3D92EF7012D2D11922A95E9F78F
:10532000A701B8018FE194E00E944820B70182E80C
:1053300093E00E94071C0F5F1F4F0231110559F7C0
:10534000AE014F5F5F4F1A0100917803109179030E
:105350000E9403194B015C01D8011A966D937D934D
:105360008D939C931D971496CD90DC9015977601A4
:10537000EE0CFF1CE00EF11E1E968D919D910D907E
:10538000BC91A02DB501A401481B590B6A0B7B0BE6
:10539000F70182899389092E000CAA0BBB0B4817D1
:1053A00059076A077B0708F45FC0B8016E5E7F4F3C
:1053B000C8010E94CC140197C816D9063CF1D80147
:1053C00015961C921E92149716968D919C91179784
:1053D000019617969C938E93169752968D919C9159
:1053E0005397181619063CF4E1E0F0E01396FC938D
:1053F000EE93129705C0D80113961C921E92129735
:10540000F80186869786A08AB18A2EC0C6010196C9
:10541000D80115969C938E931497892B49F4169670
:105420008D919C911797019617969C938E93169742
:10543000F701848995891816190664F4C601029645
:1054400062E070E00E94C333D80113969C938E9360
:10545000129703C0F80113821282D8011E968D9212
:105460009D92AD92BC925197F801628180810E9419
:105470006C1780916E0390916F03181619060CF04B
:1054800058C080916C0390916D0300916803109156
:105490006903009719F080179107A9F4F801EF5AF2
:1054A000FF4F80819181892B29F069E170E080E0D4
:1054B00090E004C061E070E080E090E00E94C918D4
:1054C000C8010E94FF0D80916C0390916D030091C3
:1054D000720310917303009719F08017910749F533
:1054E000D801ED90FC90C7010E944F1D80916A0386
:1054F00090916B03E816F90639F06FE070E080E0F8
:1055000090E00E94C918F2CFF801EF5AFF4F808156
:105510009181892B29F069E170E080E090E004C07E
:1055200061E070E080E090E00E94C918C8010E942C
:10553000FF0D80916E0390916F03892B61F0E091D4
:105540006C03F0916D03EF5AFF4F80819181181623
:1055500019060CF0F7C50091760310917703C80186
:105560000E944F1D80916A0390916B0308171907E1
:1055700039F06FE070E080E090E00E94C918F2CF4F
:10558000E0916C03F0916D03EF5AFF4F80819181A0
:10559000892B29F062E370E080E090E003C060E0D6
:1055A00070E0CB010E94C91800917403109175033B
:1055B0008FE194E00E94821E892B31F061E47AE051
:1055C00082E893E00E94471C0E940319F801638B54
:1055D000748B858B968B8FE194E00E94821E892BC1
:1055E00069F0D80153964D915D916D917C915697DC
:1055F0002AE030E082E893E00E94191C8FE194E0F9
:105600000E94821E892B31F06CE37AE082E893E0FD
:105610000E946B1CF801C38CD48CE58CF68C8091B5
:10562000570490915804A0915904B0915A04C80E9F
:10563000D91EEA1EFB1EC7A6D0AAE1AAF2AA278D90
:1056400030A141A152A1211531054105510541F477
:1056500020915B0430915C0440915D0450915E04A4
:10566000A8EEB3E00E947233C60ED71EE81EF91EE4
:10567000F801C3AAD4AAE5AAF6AA8FE194E00E9491
:10568000821E892B31F066E27AE082E893E00E9484
:10569000471C8FE194E00E94821E892B49F0D801BB
:1056A0009F966D917D918D919C91D2970E949E15B0
:1056B0008FE194E00E94821E892B31F06FE07AE046
:1056C00082E893E00E94471C8FE194E00E94821ED2
:1056D000892B39F0F80163A974A985A996A90E94BC
:1056E0009E15C0905304D0905404E0905504F0905F
:1056F00056048091570490915804A0915904B09198
:105700005A04C80ED91EEA1EFB1E20915B0430917C
:105710005C0440915D0450915E04A8EEB3E00E94E9
:105720007233C60ED71EE81EF91ED8019B96CD9285
:10573000DD92ED92FC929E978FE194E00E94821E92
:10574000892B31F06CEF79E082E893E00E94471CEE
:105750008FE194E00E94821E892B39F0F80167895D
:10576000708D818D928D0E949E158FE194E00E9434
:10577000821E892B31F06FED79E082E893E00E9480
:10578000471C8FE194E00E94821E892B49F0D801CA
:105790005B966D917D918D919C915E970E949E1577
:1057A0008FE194E00E94821E892B31F068EC79E051
:1057B00082E893E00E94471C8FE194E00E94821EE1
:1057C000892B89F0F80183899489A589B689C788CE
:1057D000D08CE18CF28CBC01CD016C197D098E0955
:1057E0009F090E949E158FE194E00E94821E892BE2
:1057F00031F068EA79E082E893E00E94471C8FE18B
:1058000094E00E94821E892B89F0F8018389948993
:10581000A589B689C38CD48CE58CF68CBC01CD01EE
:105820006C197D098E099F090E949E158FE194E0F5
:105830000E94821E892B31F060E979E082E893E0D2
:105840000E94471C8FE194E00E94821E892B49F040
:10585000D8019B966D917D918D919C919E970E9410
:105860009E158FE194E00E94821E892B31F064E73F
:1058700079E082E893E00E94471C8FE194E00E9467
:10588000821E892B71F020914F0430915004409179
:10589000510450915204A8EEB3E00E9472330E946A
:1058A0009E158FE194E00E94821E892B31F065E500
:1058B00079E082E893E00E94471C8FE194E00E9427
:1058C000821E892BA1F0F801678D70A181A192A1A0
:1058D000611571058105910541F460915B0470913A
:1058E0005C0480915D0490915E040E949E158FE19E
:1058F00094E00E94821E892B31F068E479E082E80E
:1059000093E00E94471C8FE194E00E94821E892B45
:10591000D1F0D8015F962D913D914D915C91929778
:10592000211531054105510541F420915B04309169
:105930005C0440915D0450915E04A8EEB3E00E94C7
:1059400072330E949E158FE194E00E94821E892B83
:1059500031F06AE279E082E893E00E94471C8FE12F
:1059600094E00E94821E892B51F06091570470913F
:1059700058048091590490915A040E949E158FE119
:1059800094E00E94821E892B31F066E279E082E881
:1059900093E00E946B1CF80183899489A589B689DC
:1059A0004789508D618D728D841B950BA60BB70BAB
:1059B00040915304509154046091550470915604E1
:1059C000481759076A077B0708F0BCC38FE194E0CA
:1059D0000E94821E892B31F06FE177E082E893E02C
:1059E0000E94471C8FE194E00E94821E892B59F08F
:1059F000D801DB966D917C91DC976E5F7F4F82E8DA
:105A000093E00E94071C8FE194E00E94821E892B84
:105A100031F063EF76E082E893E00E94471C8FE16B
:105A200094E00E94821E892B41F0D801DB96ED9113
:105A3000FC91DC9782890E94BA15F80187A990AD84
:105A4000DC01ED91FC910084F185E02D0995892B15
:105A500009F495C1F80187A990ADDC01ED91FC91A5
:105A60000084F185E02D0995892B09F453C2F801D2
:105A7000F088FFE0FF1508F4A1C0D801DB96ED9196
:105A8000FC91DC978289F81608F098C0F80187A984
:105A900090ADDC01ED91FC910284F385E02D099538
:105AA000F801EF0DF11D80838FE194E00E94821ECA
:105AB000892B31F061EF76E082E893E00E94471C89
:105AC0008FE194E00E94821E892B31F06AE070E041
:105AD000F80180890E94B1158FE194E00E94821E36
