:100000000C94740A0C949C0A0C949C0A0C940A1884
:100010000C940A180C940A180C949C0A0C949C0AD0
:100020000C949C0A0C949C0A0C949C0A0C949C0AB8
:100030000C949C0A0C949C0A0C949C0A0C949C0AA8
:100040000C94A4230C949C0A0C94D8170C94B2170B
:100050000C949C0A0C949C0A0C949C0A0C949C0A88
:100060000C949C0A0C949C0A11115411181124111F
:100070002911921235116712C212D212E212F21233
:10008000FC121E132A1336133E1376124A1356130C
:1000900066137213821392134F1F681F811F9A1FDA
:1000A000B51FBD1FD81FDB1FDE1FE21FE51FEC1FA2
:1000B000EF1F0A200D202820432053746F726167C0
:1000C000653A3A4C6F6164282920454E44007369B3
:1000D0007A656F66285429200073697A656F6628EF
:1000E0002A6F626A6563745F7265662920006F62B9
:1000F0006A6563745F7265662D3E73746F726167C3
:10010000655F6E616D65202700656570726F6D5F5C
:1001100061646472657373200053746F7261676504
:100120003A3A4C6F6164282920636865636B737584
:100130006D206D69736D617463680053746F7261D3
:1001400067653A3A4C6F6164282920424547494E19
:100150000053657474696E67733A3A4C6F61642832
:100160002920454E440053657474696E67733A3AAA
:100170004C6F61642829207573696E67206C6F610C
:100180006465642073657474696E67732027005317
:10019000657474696E67733A3A4C6F6164282920FC
:1001A0007573696E672064656661756C742073652C
:1001B0007474696E677320270053657474696E6781
:1001C000733A3A4C6F616428292063686B736D2021
:1001D0006D69736D6174636820736F20637265610C
:1001E00074696E672064656661756C74205365740C
:1001F00074696E6773282900272063686B736D200C
:10020000307800272073657474696E67735F6E6160
:100210006D6520270053657474696E67733A3A4CB4
:100220006F616428292073746F726167655F6E6106
:100230006D6520270053657474696E67733A3A4C94
:100240006F6164282920424547494E005265616428
:1002500065724172726179536574757028292062E4
:1002600075696C64696E67206172726179206F666E
:1002700020726561646572732E004E6F2072656135
:10028000646572207761732073656C65637465645F
:100290000047657452656164657228292073656C36
:1002A00065637465643A20004765745265616465EE
:1002B0007228292063616C6C6564207769746820FA
:1002C0006E616D653A200053657474696E67206FC6
:1002D00075747075742073776974636820706572C3
:1002E0002073617665642070726F78696D697479C6
:1002F0005F73746174653A20004C65643A3A5374D4
:100300006172747570426C696E6B28290053746F4A
:10031000726167653A3A4C6F6164282920454E4402
:100320000073697A656F66285429200073697A65BD
:100330006F66282A6F626A6563745F72656629203A
:10034000006F626A6563745F7265662D3E73746FD9
:10035000726167655F6E616D65202700656570720B
:100360006F6D5F61646472657373200053746F72A4
:100370006167653A3A4C6F61642829206368656358
:100380006B73756D206D69736D6174636800537470
:100390006F726167653A3A4C6F6164282920424563
:1003A00047494E00546167733A3A4C6F616428299B
:1003B00020454E4400546167733A3A4C6F6164289B
:1003C0002920636865636B73756D206D69736D615A
:1003D0007463682C206372656174696E67206E6552
:1003E00077207461672D73657400546167733A3ABE
:1003F0004C6F6164282920424547494E005365727D
:1004000069616C4D656E753A3A626567696E282957
:10041000002C207769746820454550524F4D20705C
:10042000726F78696D6974792073746174652000E6
:100430005374617274696E67205246494420726534
:1004400061646572200044656275672070696E2082
:100450004C4F57202E2E2E20656E61626C696E67A0
:100460002064656275670044656275672070696E17
:10047000207374617475733A20002C2000426F6FF2
:1004800074696E67205246494420496D6D6F6269F8
:100490006C697A65722C200027206F662073697A58
:1004A0006520004C6F616465642053657474696EE7
:1004B000677320270052652D696E697469616C69E4
:1004C0007A65642073657269616C20706F72742044
:1004D00077697468206C6F616465642073657474F7
:1004E000696E67733A2000496E697469616C697A54
:1004F00065642064656661756C74207365726961FA
:100500006C20706F72742040203537363030206296
:10051000617564004C65643A3A46617374426C6973
:100520006E6B2829004C65643A3A537465616479AE
:1005300028292C205F696E74657276616C735B305C
:100540005D3A200070726F78696D697479537461D7
:100550007465436F6E74726F6C6C65722829206EBF
:100560006F20636F6E646974696F6E2077617320AA
:100570006D657420286E6F74206E6563657373619A
:1005800072696C7920612070726F626C656D2900F0
:1005900070726F78696D6974795374617465436FB3
:1005A0006E74726F6C6C65722829207374696C6C40
:1005B00020594F554E470070726F78696D69747994
:1005C0005374617465436F6E74726F6C6C657228DE
:1005D00029204147494E470070726F78696D6974F0
:1005E000795374617465436F6E74726F6C6C65726D
:1005F00028292054494D454F55540070726F786931
:100600006D6974795374617465436F6E74726F6C45
:100610006C6572282920737461727475702047525A
:1006200041434520706572696F642074696D656F20
:1006300075742C206E6F2074616720666F756E6410
:10064000002A2A2A007461674C61737452656164E0
:1006500054696D656F7574583130303028293A20EF
:10066000006D735F7265616465725F6379636C6569
:100670005F746F74616C3A20006D7353696E6365CB
:100680004C617374526561646572506F7765724333
:1006900079636C6528293A20006D7353696E636530
:1006A0004C6173745461675265616428293A200073
:1006B0006C6173745F7265616465725F706F77659A
:1006C000725F6379636C655F6D733A20006C617370
:1006D000745F7461675F726561645F6D733A200077
:1006E0002A2A2A2050524F58494D495459202A2A23
:1006F0002A006379636C65526561646572506F7737
:10070000657228292073657474696E67207265614B
:1007100064657220706F776572204C4F57006E656C
:1007200076657200207365636F6E64732061676F16
:10073000002C20726561646572206379636C656466
:100740003A20006E6576657200207365636F6E6493
:10075000732061676F006379636C655265616465DE
:1007600072506F7765722829207461672072656105
:10077000643A20006379636C655265616465725008
:100780006F77657228292073657474696E672072AB
:10079000656164657220706F7765722048494748CB
:1007A00000556E617574686F72697A6564206F7246
:1007B00020696E76616C6964207461673A2000413B
:1007C0007574686F72697A6564207461673A200095
:1007D00054616720726573756C742066726F6D204A
:1007E0005265616465723A20005265616465723ACF
:1007F0003A70726F6365737354616728292063616F
:100800006C6C696E672070726F6365737354616797
:1008100044617461285F7461672900526561646591
:10082000723A3A70726F6365737354616728292056
:100830007265636569766564206275666665722CAB
:10084000207573696E67207265616465723A200075
:10085000290028005265616465723A3A706F6C6CC9
:100860005265616465722829207261775F746167DF
:100870005F6C656E6774683A2000526561646572EA
:100880003A3A706F6C6C5265616465722829207207
:1008900065616465725F6E616D653A20002A2A2A7F
:1008A00000532E5245414445525F4359434C455FE6
:1008B0004C4F575F4455524154494F4E3A200052D5
:1008C000504348442A313030303A20007265616428
:1008D0006572506F7765724379636C6548696768C4
:1008E0004475726174696F6E2829007461674C6188
:1008F00073745265616454696D656F7574583130F5
:10090000303028293A20006D735F7265616465722A
:100910005F6379636C655F746F74616C3A20006D1E
:100920007353696E63654C6173745265616465727B
:10093000506F7765724379636C6528293A20006DA2
:100940007353696E63654C6173745461675265617A
:100950006428293A20006C6173745F726561646574
:10096000725F706F7765725F6379636C655F6D73DB
:100970003A20006C6173745F7461675F72656164D3
:100980005F6D733A20006379636C655F68696768BF
:100990005F66696E6973685F6D733A20006379639F
:1009A0006C655F6C6F775F66696E6973685F6D73A6
:1009B0003A2000202A2A2A002A2A2A205245414485
:1009C0004552204C4F4F5020424547494E20004C45
:1009D00065643A3A536C6F77426C696E6B282900F4
:1009E000436F6E737472756374696E6720526561CC
:1009F00064657220666F723A20004572726F723AB7
:100A000020596F752061726520617474656D707412
:100A1000696E6720746F2063616C6C2070726F6305
:100A2000657373546167446174612829206F6E2077
:100A30007468652067656E657269632052656164DC
:100A4000657220636C6173730052444D36333030ED
:100A50002054616720737563636573733A20005295
:100A6000444D363330303A3A70726F636573735465
:100A70006167446174612829207769746820696E10
:100A80007075743A2000523739343145205461670B
:100A900020726561643A20002C20636865636B7383
:100AA000756D2028646563293A20002C2069645FF5
:100AB0006C656E3A20002C2069645F656E643A2094
:100AC0000069645F626567696E3A200052373934A5
:100AD00031453A3A70726F6365737354616744616C
:100AE0007461282920776974682000574C313235A9
:100AF0002054616720737563636573733A20002C1B
:100B000020636865636B73756D202872617720625E
:100B100079746573293A20002C2069645F6C656ED6
:100B20003A20002C2069645F656E643A2000696495
:100B30005F626567696E3A2000574C3132353A3A48
:100B400070726F63657373546167446174612829BF
:100B5000207769746820696E7075743A200043616B
:100B60006C6C696E6720454550524F4D2E75706410
:100B700061746520776974682070726F78696D6937
:100B800074795F73746174653A2000524649442059
:100B9000496D6D6F62696C697A65722061646D6917
:100BA0006E20636F6E736F6C652C20004C65643A29
:100BB0003A4F6666282900456E746572696E672033
:100BC00072756E206D6F64650D0A000D0A536572B3
:100BD00069616C4D656E752073657474696E67200C
:100BE00072756E5F6D6F646520746F2030202772A0
:100BF000756E27006765744C696E652829206279D7
:100C00007400636865636B53657269616C506F72E1
:100C1000742829207573657220696E707574207749
:100C2000697468206E6F206D61746368696E6720F7
:100C3000696E707574206D6F64653A200063686535
:100C4000636B53657269616C506F727428292072EE
:100C50006563656976656420627974653A2000533E
:100C60002E75706461746553657474696E672829A4
:100C700020003A20006D656E7553656C6563746580
:100C80006453657474696E67207365742073656C52
:100C900065637465645F6D656E755F6974656D200D
:100CA000746F3A200053657269616C4D656E753AD8
:100CB0003A62797465546F41736369694368724E2F
:100CC000756D207265636569766564206279746507
:100CD0003A200046726565204D656D6F72793A2045
:100CE0006E2F610064656C657465416C6C5461675E
:100CF0007328290044656C65746520616C6C205410
:100D0000616773006D656E7553656C6563746564CA
:100D10004D61696E4974656D20636F6E766572749E
:100D2000656420627974653A20002028006D656E44
:100D30007553656C65637465644D61696E4974656E
:100D40006D20726563656976656420627974653AC1
:100D5000200064656C657465546167496E646578EC
:100D600028293A200044656C657465546167282918
:100D700020726573756C743A200044656C65746507
:100D800054616728292061626F7274656400616430
:100D90006454616728292073756363657373006108
:100DA00064645461672829206661696C65643A202F
:100DB0004475706500616464546167282920666128
:100DC000696C65643A2046756C6C006164645461BA
:100DD0006728292061626F727465643A20496E76D3
:100DE000616C696420636F64650061646454616769
:100DF000282920006661696C65642C207461672075
:100E00006973206475706C696361746500666169FB
:100E10006C65642C20746167206C6973742069733D
:100E20002066756C6C0061626F727465642C206959
:100E30006E76616C6964207461672D6964207374D7
:100E400072696E67007375636365737300416464F0
:100E5000546167282920726573756C743A200054B8
:100E6000616720656E74657265643A200072756E04
:100E700043616C6C6261636B732829206E6F206321
:100E80006F6E646974696F6E207761732073656C2F
:100E900065637465640072756E43616C6C62616356
:100EA0006B7328292063616C6C20746F20532E753E
:100EB000706461746553657474696E67282920666F
:100EC00061696C65640072756E43616C6C6261632C
:100ED0006B73282920696E707574417661696C6145
:100EE000626C6520666F722075706461746553650D
:100EF0007474696E673A200072756E43616C6C623F
:100F000061636B73282920696E707574417661691D
:100F10006C61626C6520666F72206D656E755365DD
:100F20006C656374656453657474696E670072758B
:100F30006E43616C6C6261636B73282920696E700B
:100F40007574417661696C61626C6520666F7220B0
:100F50006D656E7553656C65637465644D61696E2E
:100F60004974656D0072756E43616C6C6261636B90
:100F700073282920696E707574417661696C6162AD
:100F80006C6520666F72206D656E7544656C657466
:100F9000655461670072756E43616C6C6261636B6E
:100FA00073282920696E707574417661696C61627D
:100FB0006C6520666F72206D656E75416464546166
:100FC000670053746F726167653A3A73617665289A
:100FD0002920454E440053746F726167653A3A7335
:100FE00061766528292063686B736D206D69736D68
:100FF000617463682C2063616C6C696E6720454581
:1010000050524F4D2E70757428290053746F7261C1
:1010100067653A3A73617665282920454E44005346
:10102000746F726167653A3A736176652829204565
:101030004550524F4D20757064617465206E6F7419
:10104000206E6563657373617279002073697A65D8
:101050006F6628542920002720746F206164647211
:10106000657373200053746F726167653A3A7361F8
:101070007665282920270053746F726167653A3AB4
:1010800073617665282920424547494E00536574AF
:1010900074696E67733A3A736176652829207265C0
:1010A00073756C743A200053746F726167653A3AD5
:1010B00073617665282920454E440053746F726130
:1010C00067653A3A7361766528292063686B736DAA
:1010D000206D69736D617463682C2063616C6C6949
:1010E0006E6720454550524F4D2E7075742829006B
:1010F00053746F726167653A3A7361766528292087
:10110000454E440053746F726167653A3A73617675
:1011100065282920454550524F4D207570646174F3
:1011200065206E6F74206E656365737361727900FC
:101130002073697A656F6628542920002720746F10
:101140002061646472657373200053746F72616709
:10115000653A3A73617665282920270053746F72C7
:101160006167653A3A7361766528292042454749A7
:101170004E0020746F2061646472657373200053A5
:101180006176696E6720746167732077697468207F
:10119000636865636B73756D203078000000000034
:1011A000240027002A0000000008000201000003BC
:1011B0000407000000000000000000000000230001
:1011C0002600290000000000250028002B00040450
:1011D00004040404040402020202020203030303DF
:1011E00003030102040810204080010204081020BB
:1011F0000102040810204C65643A3A626567696E22
:10120000207769746820696E74657276616C7320EA
:1012100063757272656E742C206E65773A004C654A
:10122000643A3A75706461746520776974682069FE
:101230006E74657276616C732063757272656E741C
:101240002C206E65773A004C65643A3A757064619B
:101250007465205F696E74657276616C735B305D76
:101260003A20004F55545055545F53574954434802
:101270005F50494E00524649445F42415544004246
:10128000545F424155440044454255475F50494EE2
:101290000048575F53455249414C5F424155440015
:1012A000524649445F53455249414C5F52580042AF
:1012B000545F52585458004C45445F50494E0044C6
:1012C000454641554C545F52454144455200656E78
:1012D00061626C655F64656275670070726F7869E2
:1012E0006D6974795F73746174650061646D696EB2
:1012F0005F74696D656F7574005245414445525F76
:10130000504F5745525F434F4E54524F4C5F5049D8
:101310004E005245414445525F4359434C455F4856
:101320004947485F4455524154494F4E0052454148
:101330004445525F4359434C455F4C4F575F4455BA
:10134000524154494F4E005441475F524541445F1A
:10135000534C4545505F494E54455256414C0054FC
:1013600041475F4C4153545F524541445F54494D9E
:10137000454F55540075706461746541646D696EC4
:1013800054696D656F75742829207365636F6E6489
:10139000733A2000736574496E7075744D6F64659F
:1013A00028293A200073657443616C6C6261636B39
:1013B00046756E6374696F6E28293A2000362E20B8
:1013C00044656C65746520616C6C207461677300A2
:1013D000352E2053657474696E677300342E205364
:1013E000686F772066726565206D656D6F72790034
:1013F000332E2044656C6574652074616700322E5D
:10140000204164642074616700312E204C6973743C
:10141000207461677300302E2045786974004D6533
:101420006E75002E20002C2073697A6520005461AF
:1014300067732C2063686B736D203078002C2073E9
:10144000697A65200053657474696E67732C206334
:10145000686B736D2030780053657474696E6773C0
:101460003A3A67657453657474696E674279496E78
:101470006465783A20005F1347132D131213F91295
:10148000EB12DB12CE12BF12B712AF12A0129112E2
:1014900087127F127512631253657474696E6773D5
:1014A0003A3A646973706C617953657474696E67F4
:1014B00028292072657475726E696E673A20005330
:1014C000657474696E67733A3A646973706C6179B4
:1014D00053657474696E6728292067617468657242
:1014E00065643A200000F53011241FBECFEFD8E02C
:1014F000DEBFCDBF25E0A0E6B3E001C01D92A9315B
:10150000B207E1F713E0A0E0B1E0ECEAFEE602C0CA
:1015100005900D92A036B107D9F71AE0C4E7DAE0DA
:1015200004C02197FE010E943B33C337D107C9F79E
:101530000E94EE230C9454370C94000089E994E047
:101540000E94ED1A892B31F06AEF79E08EEB93E07F
:101550000E94A01760E070E0CB0108956F927F9227
:101560008F929F92AF92BF92CF92DF92EF92FF92B3
:101570000F931F93CF93DF93CDB7DEB78C016B0131
:101580006DB67EB689E994E00E94ED1A892B31F0A0
:1015900069E37BE08EEB93E00E947C1789E994E09D
:1015A0000E94ED1A892B31F06EE27BE08EEB93E026
:1015B0000E947C1789E994E00E94ED1A892B31F092
:1015C0006AE070E0F80183890E94741B89E994E065
:1015D0000E94ED1A892B31F063E27BE08EEB93E001
:1015E0000E947C1789E994E00E94ED1A892B31F062
:1015F0006AE070E0F80184890E94741BF801448954
:101600004F5F8389F42EF81A89E994E00E94ED1A5D
:10161000892B31F068E17BE08EEB93E00E947C1730
:1016200089E994E00E94ED1A892B29F06AE070E0C4
:101630008F2D0E94741B89E994E00E94ED1A892B7A
:1016400031F06FEF7AE08EEB93E00E947C1789E92E
:1016500094E00E94ED1A892B31F06AE070E0F60107
:1016600083850E94741B89E994E00E94ED1A892BFE
:1016700031F06AEB71E08EEB93E00E947A1789E912
:1016800094E00E94ED1A892B21F0F60184850E94D6
:101690007D1B4F2D50E04F5F5F4F8DB79EB7841B72
:1016A000950B0FB6F8949EBF0FBE8DBFEDB7FEB77A
:1016B00031967F0168E171E0CF010E948834F80122
:1016C00083895601A80EB11C82EC882E81E0982EE9
:1016D000F801848990E095012C193D098217930740
:1016E000C4F0F50121915F01F70101900020E9F7B5
:1016F0001F922F939F928F92CF0101979F938F9369
:101700000E94A1340F900F900F900F900F900F90A8
:10171000DFCF40E150E060E070E0C7010E9432316D
:101720004B015C0189E994E00E94ED1A892B31F0AC
:101730006BEE7AE08EEB93E00E947C1789E994E0EF
:101740000E94ED1A892B29F0B7018EEB93E00E94DD
:101750007A1789E994E00E94ED1A892B31F065EC43
:1017600071E08EEB93E00E947A1789E994E00E9481
:10177000ED1A892B21F0C501B4010E94611BC5013E
:10178000B4010FB6F8947EBE0FBE6DBEDF91CF914F
:101790001F910F91FF90EF90DF90CF90BF90AF908F
:1017A0009F908F907F906F9008956F927F928F920D
:1017B0009F92AF92BF92CF92DF92EF92FF920F93E0
:1017C0001F93CF93DF93CDB7DEB78C015B016DB66E
:1017D0007EB689E994E00E94ED1A892B31F06CEC19
:1017E0007AE08EEB93E00E947C1789E994E00E94F6
:1017F000ED1A892B31F061EC7AE08EEB93E00E94D8
:101800007C1789E994E00E94ED1A892B31F06AE097
:1018100070E0F80183890E94741B89E994E00E94BA
:10182000ED1A892B31F066EB7AE08EEB93E00E94A3
:101830007C1789E994E00E94ED1A892B31F06AE067
:1018400070E0F80184890E94741BF801448950E01B
:101850008389481B51094F5F5F4FF42EFF0C89E9C4
:1018600094E00E94ED1A892B31F06BEA7AE08EEB5E
:1018700093E00E947C1789E994E00E94ED1A892B7D
:1018800029F06AE070E08F2D0E94741B89E994E0D2
:101890000E94ED1A892B31F068E97AE08EEB93E033
:1018A0000E947C1789E994E00E94ED1A892B21F0AF
:1018B000F50180850E947D1B4F2D50E04F5F5F4FEB
:1018C0008DB79EB7841B950B0FB6F8949EBF0FBEC5
:1018D0008DBFEDB7FEB731967F0168E171E0CF01B2
:1018E0000E948834F80183896501C80ED11C88ECF8
:1018F000882E81E0982EF801848990E096012A19BB
:101900003B0982179307C4F0F60121916F01F7019B
:1019100001900020E9F71F922F939F928F92CF01A1
:1019200001979F938F930E94A1340F900F900F9077
:101930000F900F900F90DFCF40E150E060E070E03B
:10194000C7010E9432314B015C0189E994E00E9499
:10195000ED1A892B31F066E87AE08EEB93E00E9475
:101960007C1789E994E00E94ED1A892B29F0B701D0
:101970008EEB93E00E947A1789E994E00E94ED1AB9
:10198000892B31F065EC71E08EEB93E00E947A17C1
:1019900089E994E00E94ED1A892B21F0C501B40178
:1019A0000E94611BC501B4010FB6F8947EBE0FBE44
:1019B0006DBEDF91CF911F910F91FF90EF90DF905F
:1019C000CF90BF90AF909F908F907F906F90089531
:1019D0006F927F928F929F92AF92BF92CF92DF923F
:1019E000EF92FF920F931F93CF93DF93CDB7DEB7A4
:1019F0006C015B016DB67EB689E994E00E94ED1A38
:101A0000892B31F06FE57AE08EEB93E00E947C1732
:101A100089E994E00E94ED1A892B49F040E150E0F9
:101A200060E070E0C5010E9432310E94D61CF601D0
:101A3000F38844894F1950E04F5F5F4F8DB79EB7D1
:101A4000841B950B0FB6F8949EBF0FBE8DBF0DB7CC
:101A50001EB70F5F1F4F68E171E0C8010E94883414
:101A6000F501EF0DF11D7F0182EC882E81E0982EAB
:101A7000F601848990E097012A193B0982179307A0
:101A8000C4F0F70121917F01F80101900020E9F7EE
:101A90001F922F939F928F92CF0101979F938F93C5
:101AA0000E94A1340F900F900F900F900F900F9005
:101AB000DFCF40E150E060E070E0C8010E943231C9
:101AC0006B017C0189E994E00E94ED1A892B31F0C9
:101AD00069E47AE08EEB93E00E947C1789E994E058
:101AE0000E94ED1A892B29F0B8018EEB93E00E9439
:101AF0007A1789E994E00E94ED1A892B31F065ECA0
:101B000071E08EEB93E00E947A1789E994E00E94DD
:101B1000ED1A892B21F0C701B6010E94611BC70194
:101B2000B6010FB6F8947EBE0FBE6DBEDF91CF91A9
:101B30001F910F91FF90EF90DF90CF90BF90AF90EB
:101B40009F908F907F906F9008958F929F92AF9209
:101B5000BF92CF92DF92EF92FF920F931F93CF939A
:101B6000DF93CDB7DEB7E8970FB6F894DEBF0FBEB0
:101B7000CDBF8C0180916603909167030197C9F4F2
:101B8000D80119964D915D916D917C911C97809132
:101B9000DE049091DF04A091E004B091E1044817C5
:101BA00059076A077B0729F460E080910E050E94BF
:101BB000331D0E94CA1E2091660330916703232BB8
:101BC00009F44EC0F801C580D680E780F0846C1916
:101BD0007D098E099F0928EE33E040E050E00E9425
:101BE0009532F80181859285A385B4858217930784
:101BF000A407B507A8F56BEC7BE08EEB93E00E94A1
:101C0000A01767EB7BE0D8018D919C910E94A017F3
:101C1000F801ED5AFF4FE080F18089E994E00E94DD
:101C2000ED1A892B31F06CEA7BE08EEB93E00E9499
:101C3000A017BE016F5F7F4F88E2FB0111928A956A
:101C4000E9F7C7010E949E1D109267031092660378
:101C50008091600390916103909365038093640386
:101C6000D8018D919C91DC01ED91FC910084F1856E
:101C7000E02D0995892B09F4B4C06801BDE0CB0EB5
:101C8000D11CF80180819181DC01ED91FC910084EF
:101C9000F185E02D0995892B09F494C0F801808124
:101CA0009181DC01ED91FC910284F385E02D099591
:101CB000F82E89E994E00E94ED1A892B31F06DE34A
:101CC0007CE08EEB93E00E947C1789E994E00E940F
:101CD000ED1A892B29F06F2D8EEB93E00E94681787
:101CE000B6018DEC91E00E949134892B19F4F80132
:101CF000F58EC7CFB60182ED91E00E949134892B19
:101D000009F047C089E994E00E94ED1A892B31F06F
:101D100064EF7BE08EEB93E00E947C1789E994E00E
:101D20000E94ED1A892B29F06F2D8EEB93E00E9413
:101D30006817D801D5968D919C91D697F801E80F38
:101D4000F91FF58E0196F80196AB85AB80819181E4
:101D5000DC01ED91FC910190F081E02D6F2D099552
:101D6000BDE0FB1619F0EAE0FE128BCF6AE0D80165
:101D70008D919C910E946817D801D596ED91FC91A8
:101D8000D697E00FF11F168ED6961C921E92D5970D
:101D900078CF62E07CE08EEB93E00E94A017F80120
:101DA00080819181DC01ED91FC910190F081E02D29
:101DB0006F2D099561EC72E0F801808191810E949C
:101DC0002A175FCF10936503009364034091DE04EC
:101DD0005091DF046091E0047091E104C8010E9419
:101DE0007123D801D596AD90BC90D697A114B104BB
:101DF00009F0A4C45D968C9118160CF09FC46EE98E
:101E000072E0C8010E946023882309F4D5C089E9E3
:101E100094E00E94ED1A892B31F065E97FE08EEBAA
:101E200093E00E94A0176801BDE1CB0ED11CF80120
:101E3000858D8D3009F46EC08A3009F46BC088231B
:101E400009F468C04AE050E060E070E0C6010E941A
:101E500032314B015C016AEE7DE08EEB93E00E9433
:101E60007C17C501B4010E94611B8BE594E00E94C0
:101E7000FA18EFE6F4E027E934E0DF0180E090E0D3
:101E80004D915D916D917D91452B462B472B09F02E
:101E900001962A173B07A1F781149104A104B1040C
:101EA00039F46BEC7DE08EEB93E00E94A01732C01A
:101EB0008A30910554F065EB7DE08EEB93E00E9453
:101EC000A017E2E0EE2EF12C28C0419151916191D2
:101ED000719184169506A606B70609F439C32E1724
:101EE0003F0799F7880F991F880F991FFC01E15947
:101EF000FB4F80829182A282B3828BE594E00E94A4
:101F000040196EE87DE08EEB93E00E94A017E12C73
:101F1000F12C03C0EE24E394F12C6FE57EE0D801B0
:101F20008D919C910E947C17B601F801808191816E
:101F30000E942A176DE47EE0D8018D919C910E9449
:101F40007C17B701F801808191810E948D1B65EC9F
:101F500071E0D8018D919C910E947A17F8018081DF
:101F60009181F2E0EF16F10469F023E0E216F1044A
:101F700061F0EA94EF2819F065E47EE008C066E2BB
:101F80007EE005C06DE07EE002C064EF7DE00E946F
:101F90007C17D8018D919C910E942617F8018081B1
:101FA00091810E942617C8010E945523F801EF5A1B
:101FB000FF4F1182108278C167ED71E0C8010E9465
:101FC0006023882309F463C089E994E00E94ED1A34
:101FD000892B31F065E67FE08EEB93E00E94A0173D
:101FE0004AE050E060E070E0C8014D960E94323156
:101FF0006B017C01D8015D968C918D3031F08A3077
:1020000021F0BAE0CB16D1045CF06AE77DE0F8017C
:10201000808191810E94A017D8018D919C9134C03C
:1020200062E57DE08EEB93E00E947C17B6018EEBBB
:1020300093E00E94C31BD7FC14C0B5E0CB0ED11CAB
:10204000C601880F991F880F991FFC01E55AFB4FA5
:1020500010821182128213828BE594E00E94401953
:1020600003C0AA24A394B12C65E67DE0F801808129
:1020700091810E947C17B501D8018D919C910E949D
:10208000C31BF801808191810E9426170DC165EE66
:1020900071E0C8010E946023882309F409C189E91D
:1020A00094E00E94ED1A892B31F06EE27FE08EEB16
:1020B00093E00E94A017D8015D96FC9089E994E016
:1020C0000E94ED1A892B31F06DE27DE08EEB93E0FA
:1020D0000E947C1789E994E00E94ED1A892B29F06F
:1020E0006F2D8EEB93E00E94611789E994E00E94C6
:1020F000ED1A892B31F06AE27DE08EEB93E00E94CD
:102100007C1789E994E00E94ED1A892B29F06F2D44
:102110008EEB93E00E94611789E994E00E94ED1A2A
:10212000892B31F06AEF71E08EEB93E00E942A1761
:10213000F98289E994E00E94ED1A892B31F065EA71
:102140007CE08EEB93E00E947C1789E994E00E948A
:10215000ED1A892B29F069818EEB93E00E946117BB
:1021600089E994E00E94ED1A892B31F06CEF71E05F
:102170008EEB93E00E947A1789E994E00E94ED1AB1
:10218000892B29F069818EEB93E00E94611789E920
:1021900094E00E94ED1A892B31F06AEF71E08EEB2A
:1021A00093E00E942A17898180538A3048F44AE0DC
:1021B00050E060E070E0CE0101960E94323102C032
:1021C00060E370E06801BFE4CB0ED11CF6017183BF
:1021D000608389E994E00E94ED1A892B31F064E074
:1021E0007DE08EEB93E00E947C1789E994E00E94E9
:1021F000ED1A892B39F0D6016D917C918EEB93E02D
:102200000E94C31B8F2DFF0C990BAA0BBB0BFC016B
:10221000F097E730F10508F0BDC0EC5CFF4F0C947F
:102220003B3340E050E0BA01C8010E9471238CC1E9
:1022300081E090E0F801EF5AFF4F918380832FE116
:1022400031E04FEF51E07CC12AE231E045E352E05A
:1022500077C163ED7CE0F801808191810E94A01735
:1022600021EC32E0A90160E06CC164EF7CE0D801B0
:102270008D919C910E94A01761EC72E0F801808121
:1022800091810E942A1764EE7CE08EEB93E00E941D
:10229000A01788E2EFE6F4E0DF011D928A95E9F7E6
:1022A0008BE594E00E944019C8010E94A6224CC10F
:1022B0006FE472E0C8010E946023882309F46EC0B5
:1022C00089E994E00E94ED1A892B31F068EF7EE0F5
:1022D0008EEB93E00E94A0174AE050E060E070E0CF
:1022E000C8014D960E9432317801BFE4EB0EF11C1B
:1022F000F7017183608389E994E00E94ED1A892BCC
:1023000031F065E77CE08EEB93E00E947C1789E971
:1023100094E00E94ED1A892B39F0D7016D917C91E0
:102320008EEB93E00E94C31BF70160817181CB01AA
:102330000197409730F59E01275D3F4FAE014F5FFB
:102340005F4F89E994E00E94FB1EBE016F5F7F4FE3
:10235000D8018D919C910E947A1762E77CE0F80188
:10236000808191810E947C17BE01675D7F4FD801FB
:102370008D919C910E942A1723E632E041E752E0BA
:10238000DFC0F801858D803329F08D3019F08A3057
:1023900009F0C8C0C8010E941223D6C063E672E0EB
:1023A000C8010E946023882309F4C0C089E994E031
:1023B0000E94ED1A892B31F066EC7EE08EEB93E003
:1023C0000E947C1789E994E00E94ED1A9801215B34
:1023D0003F4F5901892B39F0D9016D917C918EEBDA
:1023E00093E00E948D1B89E994E00E94ED1A892BED
:1023F00031F065EC71E08EEB93E00E947A1789E989
:1024000094E00E94ED1AF8017D967F01892B29F056
:10241000BF018EEB93E00E942A17D501CD90DC908E
:1024200089E994E00E94ED1A892B31F06FE57CE098
:102430008EEB93E00E947C1789E994E00E94ED1AEC
:10244000892B29F0B6018EEB93E00E948D1B89E960
:1024500094E00E94ED1A892B31F065EC71E08EEB6F
:1024600093E00E947A17B1E0CB1AD108F601EE0F83
:10247000FF1FEA58FB4E65917491CE0101960E94B0
:10248000513289E994E00E94ED1A892B39F0BE019E
:102490006F5F7F4F8EEB93E00E947A1789E994E09B
:1024A0000E94ED1A892B31F065EC71E08EEB93E020
:1024B0000E947A1789E994E00E94ED1A892B09F4A9
:1024C00051C0B7018EEB93E00E942A174BC04AE03F
:1024D00050E060E070E0C7010E9432316093CD04AB
:1024E0007093CE048093CF049093D00440E250E0E8
:1024F0006EE872E08DEA94E00E94583289E994E037
:102500000E94681A4091DE045091DF046091E0045B
:102510007091E104C8010E9471238FEF9FEFF501D4
:1025200091838083C8010E942D220EC06DE67EE05B
:102530008EEB93E00E94A01725EE31E041EC52E0D3
:102540006CE6C8010E94DB21C8010E945523F6C039
:102550006FE97DE08EEB93E00E94A01733E0E32E5D
:10256000F12CDBCCF1E1CF16D10438F066E97EE046
:102570008EEB93E00E94A017D0CFF601E55CFF4FF1
:102580000C943B334AE050E060E070E0C7010E94E9
:1025900032316093D1047093D2048093D30490932A
:1025A000D404A4CF4AE050E060E070E0C7010E948C
:1025B00032316093D5047093D6048093D7049093FE
:1025C000D80494CF4AE050E060E070E0C7010E9478
:1025D00032316093D9047093DA048093DB049093D2
:1025E000DC0484CF4AE050E060E070E0C7010E9464
:1025F00032316093DD047ACF4AE050E060E070E071
:10260000C7010E9432316A3071058105910548F099
:102610006093DE047093DF048093E0049093E10400
:1026200065CF8AE090E0A0E0B0E08093DE04909374
:10263000DF04A093E004B093E10458CF4AE050E0F7
:1026400060E070E0C7010E9432317093E304609350
:10265000E2044CCF4AE050E060E070E0C7010E9425
:1026600032317093E5046093E40440CF40E150E0E0
:10267000B70186EE94E00E94583238CF4AE050E02D
:1026800060E070E0C7010E9432317093F9046093FA
:10269000F8042CCF4AE050E060E070E0C7010E94EF
:1026A00032317093FF046093FE0420CF4AE050E083
:1026B00060E070E0C7010E943231609300057093C2
:1026C0000105809302059093030510CF4AE050E086
:1026D00060E070E0C7010E9432317093050560939D
:1026E000040504CF4AE050E060E070E0C7010E94BA
:1026F0003231609306057093070580930805909327
:102700000905F4CE4AE050E060E070E0C7010E94A5
:10271000323160930A0570930B0580930C059093FA
:102720000D05E4CE4AE050E060E070E0C7010E9491
:10273000323170930F0560930E05D8CEE8960FB630
:10274000F894DEBF0FBECDBFDF91CF911F910F91E7
:10275000FF90EF90DF90CF90BF90AF909F908F90C1
:102760000895CF93DF93EC0142E050E060E070E029
:102770000E947123CE010E9455236EE971E0CE01C3
:1027800002960E949134892BE1F06BE87BE088810E
:1027900099810E947C1765E771E0888199810E9488
:1027A0007A1765EC71E0888199810E947A1769EA4D
:1027B00072E0888199810E942A17888199810E94FC
:1027C000261725EE31E041EC52E06CE6CE01DF91B8
:1027D000CF910C94DB212091660330916703232B6A
:1027E000C9F5DC0111967C936E931296ED91FC91E4
:1027F00013976115710549F483E090E0A0E0B0E023
:1028000083AB94ABA5ABB6AB04C013AA14AA15AAAC
:1028100016AA8091E2049091E3047093E30460931C
:10282000E20468177907B1F06EE57BE08EEB93E088
:102830000E947C176091E2047091E3048EEB93E0B8
:102840000E94C31B8091E2049091E3049093F704EB
:102850008093F6040895CF92DF92EF920F93CF9377
:10286000DF93EC016B018DE191E0998388834A8BC2
:102870002B8B0C8BED8AFE01769680E1DF011D9299
:102880008A95E9F71EA20E94CA1E6FA378A789A79E
:102890009AA71BA61CA61DA61EA61FA618AA19AAA3
:1028A0001AAA1BAA1CAA1DAA1EAA1FAA18AE19AEF4
:1028B0001AAE1BAE1CAE1DAE1EAEFE01FF96108200
:1028C0001182128213823496108211821282138234
:1028D0003496108211821282138240E150E0B601D8
:1028E000CE0102960E94583260EE79E08EEB93E0C2
:1028F0000E947C17B6018EEB93E0DF91CF910F9190
:10290000EF90DF90CF900C942A170F931F93CF93E3
:10291000DF93CDB7DEB7A8970FB6F894DEBF0FBE32
:10292000CDBF8C0189E994E00E94ED1A892B31F02A
:102930006FEC79E08EEB93E00E94A017BE016F5F11
:102940007F4F88E2FB0111928A95E9F784EF91E0CD
:102950009A8389839C838B83C8010E949E1DA896BD
:102960000FB6F894DEBF0FBECDBFDF91CF911F91A0
:102970000F91089580E090E0FB0121913191BF011A
:102980001216130624F4019684319105A9F70895CF
:102990000F931F93CF93DF938B010E94BA14BC0156
:1029A0008EEB93E00E948D1B6AEB71E08EEB93E05F
:1029B0000E947A17E801085D1F4F66EC71E08EEB0C
:1029C00093E00E947A17699179918EEB93E00E94CF
:1029D0008D1BC017D10789F761EC72E08EEB93E095
:1029E000DF91CF911F910F910C942A17CF92DF9214
:1029F000EF92FF920F931F93CF93DF936C017A01B5
:102A00008B01C0E0D0E0CE15DF0581F0D8016D91DB
:102A10008D01D601ED91FC910190F081E02DC60170
:102A20000995892B11F02196EECF7E01C701DF9128
:102A3000CF911F910F91FF90EF90DF90CF9008956D
:102A4000FC01538D448D252F30E0842F90E0821BB4
:102A5000930B541710F0CF96089501970895FC0139
:102A6000918D828D981761F0828DDF01A80FB11DC5
:102A70005D968C91928D9F5F9F73928F90E00895E9
:102A80008FEF9FEF0895FC01918D828D981731F0A3
:102A9000828DE80FF11D858D90E008958FEF9FEFF7
:102AA0000895FC01918D228D892F90E0805C9F4FCD
:102AB000821B91098F73992708958EEB93E00E94F2
:102AC000511521E0892B09F420E0822F0895FC01A3
:102AD000848DDF01A80FB11DA35ABF4F2C91848DA7
:102AE00090E001968F739927848FA689B7892C93DC
:102AF000A089B1898C91837080648C93938D848D2F
:102B0000981306C00288F389E02D80818F7D808331
:102B10000895EF92FF920F931F93CF93DF93EC01F1
:102B200081E0888F9B8D8C8D981305C0E889F98989
:102B3000808185FD26C0F62E0B8D10E00F5F1F4FA4
:102B40000F731127E02E8C8DE8120CC00FB607FC16
:102B5000FACFE889F989808185FFF5CFCE010E94FF
:102B60006715F1CF8B8DFE01E80FF11DE35AFF4F82
:102B7000F0829FB7F8940B8FEA89FB89808180628D
:102B80000AC09FB7F894EE89FF896083E889F989C4
:102B900080818370806480839FBF81E090E0DF91BB
:102BA000CF911F910F91FF90EF900895CF93DF93F6
:102BB000EC01888D8823C9F0EA89FB89808185FD35
:102BC00005C0A889B9898C9186FD0FC00FB607FC96
:102BD000F5CF808185FFF2CFA889B9898C9185FFD7
:102BE000EDCFCE010E946715E7CFDF91CF91089519
:102BF00080E090E0892B29F00E945D1581110C94F2
:102C0000000008952091620330916303281739076B
:102C100071F49091B5038091B403981741F0E0915D
:102C2000B503F0E0EC58FC4F808190E008958FEF01
:102C30009FEF089508951F93CF93DF93DC015C9677
:102C40008D919C915D97009739F421E030E01396C7
:102C50003C932E9312973BC05196ED91FC91529765
:102C600050962C915097322F30951FB75E964C910D
:102C70005E97742F727041FD6095F89440817723C0
:102C800011F0422B01C043234083EC012197F1F75F
:102C900048E0508160FF02C0522B01C05323508393
:102CA000EC012197F1F76695415099F780817723E0
:102CB00019F08323808302C0282B20831FBF5C96DA
:102CC0008D919C915D970197F1F781E090E0DF9104
:102CD000CF911F91089520916203309163032817CB
:102CE000390771F48091B4032091B50390E0805CC2
:102CF0009F4F821B910960E470E00E9408330895A1
:102D000080E090E0089520916203309163032817DA
:102D10003907B9F49091B5038091B403981789F0FD
:102D2000E091B503F0E0EC58FC4F80812091B503B1
:102D300030E02F5F3F4F2F7333272093B50390E090
:102D400008958FEF9FEF0895089580E090E0089533
:102D5000CF93FC014281538113821282DC01BC01BA
:102D6000625C7F4F80E090E02C9130E0322F222790
:102D70001196CC9111972C2B8227932712966A17C4
:102D80007B0791F753834283CF9108950E94763455
:102D90006115710579F0FB0101900020E9F7319789
:102DA000AF01461B570BDC01ED91FC910280F381D2
:102DB000E02D099480E090E008958F929F92AF9269
:102DC000BF92EF92FF920F931F93CF93DF93CDB7F4
:102DD000DEB7A1970FB6F894DEBF0FBECDBF7C0162
:102DE000FA01CB0119A2223008F42AE08E010F5D0E
:102DF0001F4F822E912CA12CB12CBF01A501940153
:102E00000E949532F901CA01015011096A3014F487
:102E1000605D01C0695CD8016C93232B242B252BAA
:102E200061F7B801C7010E94C816A1960FB6F894C1
:102E3000DEBF0FBECDBFDF91CF911F910F91FF90ED
:102E4000EF90BF90AF909F908F9008956FEB72E0DE
:102E50000C94C8160F931F93CF93DF93EC010E943D
:102E6000C8168C01CE010E942617800F911FDF919A
:102E7000CF911F910F9108952115310541F4DC0187
:102E8000ED91FC910190F081E02D642F09940C9458
:102E9000DD169A01AB0160E070E00C943C170F93D3
:102EA0001F93CF93DF93EC010E9449178C01CE0151
:102EB0000E942617800F911FDF91CF911F910F91D4
:102EC0000895DC01ED91FC910190F081E02D0994D1
:102ED0000F931F93CF93DF93EC010E9461178C0136
:102EE000CE010E942617800F911FDF91CF911F9175
:102EF0000F9108950C94C816EF92FF920F931F93B1
:102F0000CF93DF938C017B01C0E0D0E0F701EC0FA1
:102F1000FD1F6491662361F0D801ED91FC91019051
:102F2000F081E02DC8010995892B11F02196EECF93
:102F3000CE01DF91CF911F910F91FF90EF900895F7
:102F40000F931F93CF93DF93EC010E947C178C01AA
:102F5000CE010E942617800F911FDF91CF911F9104
:102F60000F9108951F920F920FB60F9211242F9375
:102F70003F934F935F936F937F938F939F93AF9301
:102F8000BF93EF93FF938EEB93E00E946715FF9141
:102F9000EF91BF91AF919F918F917F916F915F91D1
:102FA0004F913F912F910F900FBE0F901F9018954A
:102FB0001F920F920FB60F9211242F938F939F930E
:102FC000EF93FF93E091CE03F091CF038081E091E6
:102FD000D403F091D50382FD12C090818091D70374
:102FE0008F5F8F732091D803821751F0E091D70340
:102FF000F0E0E254FC4F958F8093D70301C08081AD
:10300000FF91EF919F918F912F910F900FBE0F9095
:103010001F9018951F920F920FB60F9211242F93A5
:103020003F934F935F936F937F938F939F93AF9350
:10303000BF93EF93FF93E0916203F09163033097A6
:1030400009F451C0968DA685B785858591FF04C08A
:103050009C91892329F447C09C91892309F043C09E
:10306000A389B4899C918589809589238C938689CD
:1030700097890197F1F7608D718DA685B785558584
:1030800038E020E0CB010197F1F7822F90E0959591
:103090008795282F4C91452309F02068315091F7EE
:1030A000868D81FD20958091B40390E001968F7309
:1030B00099273091B503381749F0A091B403B0E0D7
:1030C000AC58BC4F2C938093B40303C0868D8160B1
:1030D000868F828D938D0197F1F7A389B4899C9196
:1030E0008589892B8C93FF91EF91BF91AF919F912F
:1030F0008F917F916F915F914F913F912F910F90A1
:103100000FBE0F901F901895CF93DF93FC01828D17
:10311000938D892B31F1A0916203B0916303EA177B
:10312000FB07F9F0109751F05396CD91DC9154972D
:10313000988155968C91809589238883868D8E7F82
:10314000868F1092B4031092B503F0936303E0935B
:103150006203A389B4899C918589892B8C9381E032
:1031600001C080E0DF91CF910895EF92FF920F931D
:103170001F93CF937C010E94A8168C01F7018281D6
:1031800093810817190731F4C1E0C80101978E3FF8
:103190009F4F08F0C0E062EC72E08EEB93E00E947B
:1031A0007A17F7016281738140E150E08EEB93E082
:1031B0000E9449176AED72E08EEB93E00E947A1745
:1031C00040E150E0B8018EEB93E00E9449176EEDAC
:1031D00072E08EEB93E00E947A176C2F70E08EEB1A
:1031E00093E00E94C31B8C2FCF911F910F91FF90F2
:1031F000EF900895CF92DF92EF92FF9220E030E0BF
:103200004FEF5FEFD901AA0FBB1FAA0FBB1FA80F7B
:10321000B91F5496CD90DD90ED90FC905797C11456
:10322000D104E104F10431F44F3F6FEF5607F1F49C
:10323000A9011CC021153105C9F04F3F6FEF56079A
:10324000A9F0FA013596EE0FFF1FEE0FFF1FE80FF2
:10325000F91FC082D182E282F38254961D921D92A0
:103260001D921C9257979A014FEF5FEF2F5F3F4FD0
:103270002A3031053CF2FF90EF90DF90CF90089517
:10328000CF92DF92FF920F931F93CF93DF93EC01C6
:103290000E94FA186FE771E18EEB93E00E947C17B1
:1032A000CE010E94A81640E150E0BC018EEB93E0F5
:1032B0000E94491762E771E18EEB93E00E947C1750
:1032C000688179818EEB93E00E94C31B8E010C5EB6
:1032D0001F4F6E018CE3C80ED11CF8014191519132
:1032E000619171918F012AE030E08EEB93E00E94B2
:1032F0003C176AEB71E08EEB93E00E947A17C016E0
:10330000D10659F78EEB93E00E94261708811981A8
:103310006CE571E18EEB93E00E94A01717FD02C0EF
:10332000198308836AE471E18EEB93E00E947C17B5
:10333000BE016C5F7F4F8EEB93E00E947A176CE3C7
:1033400071E18EEB93E00E947C17688179818EEBAE
:1033500093E00E948D1B60E371E18EEB93E00E948D
:103360007C174AE050E06EE370E08EEB93E00E9441
:103370004F17CE010E94B518811123C06BEB70E18D
:103380008EEB93E00E94A017CE010E94A8169B83AB
:103390008A83088119816801FEE3CF0ED11CF99060
:1033A000C8010E946F32F81621F06F2DC8010E94EB
:1033B00077320F5F1F4FC016D10689F767EA70E1B9
:1033C00008C064E071E18EEB93E00E94A01760EF0B
:1033D00070E18EEB93E0DF91CF911F910F91FF9001
:1033E000DF90CF900C94A0170F931F93CF93DF9390
:1033F000EC018C010C5F1F4F40E150E06EEE72E07B
:10340000C8010E9458328CEB92E099838883FE01B8
:10341000749688E2DF011D928A95E9F7FDAFECAF63
:103420008C8181110BC040E150E063EF72E0C80174
:10343000DF91CF911F910F910C945832DF91CF9172
:103440001F910F910895EF92FF920F931F93CF93C7
:103450007C010E94B2218C01F701828193810817BF
:10346000190731F4C1E0C80101978E3F9F4F08F062
:10347000C0E062EC72E08EEB93E00E947A17F701F5
:103480006281738140E150E08EEB93E00E94491726
:103490006AED72E08EEB93E00E947A1740E150E013
:1034A000B8018EEB93E00E9449176EED72E08EEB4F
:1034B00093E00E947A176C2F70E08EEB93E00E94ED
:1034C000C31B8C2FCF911F910F91FF90EF90089508
:1034D000CF92DF92FF920F931F93CF93DF93EC0174
:1034E00067E770E18EEB93E00E94A01765E670E15C
:1034F0008EEB93E00E947C17BE016C5F7F4F8EEBDA
:1035000093E00E947A1767E570E18EEB93E00E94EA
:103510007C17688179818EEB93E00E948D1B6BE4B0
:1035200070E18EEB93E00E947C174AE050E067E781
:1035300070E08EEB93E00E944F17CE010E94231A99
:10354000811129C066ED7FE08EEB93E00E94A01709
:10355000CE010E94B2219B838A8308811981680170
:1035600087E7C80ED11CF990C8010E946F32F81687
:1035700021F06F2DC8010E9477320F5F1F4F0C158D
:103580001D0589F762EC7FE08EEB93E00E94A017A7
:10359000C0E0D0E00EC06FE170E18EEB93E00E94DE
:1035A000A0176BE070E18EEB93E00E94A017C1E0E2
:1035B000D0E06DE870E18EEB93E00E947C17BE01D5
:1035C0008EEB93E00E94C31BCE01DF91CF911F9140
:1035D0000F91FF90DF90CF900895CF93DF93EC0190
:1035E000FC01E559FF4F80810E940A1D892B59F08B
:1035F000C55BDF4F81E090E02881398121303105C2
:1036000021F080E002C081E090E0DF91CF91089549
:10361000833081F028F4813099F08230A1F0089550
:103620008730A9F08830B9F08430D1F480918000DF
:103630008F7D03C0809180008F77809380000895F4
:1036400084B58F7702C084B58F7D84BD0895809145
:10365000B0008F7703C08091B0008F7D8093B00061
:1036600008953FB7F8948091BA039091BB03A0915D
:10367000BC03B091BD0326B5A89B05C02F3F19F030
:103680000196A11DB11D3FBFBA2FA92F982F8827E2
:10369000820F911DA11DB11DBC01CD0142E0660F3D
:1036A000771F881F991F4A95D1F70895DC019696D8
:1036B0001C92FC01769620E1DF011D922A95E9F724
:1036C0000895CF93DF93AB01BC012AE08EEB93E02A
:1036D0000E94DD16EC018EEB93E00E9426178C0F02
:1036E0009D1FDF91CF9108959B01482F50E060E02E
:1036F00070E08EEB93E00C943C17CF93DF936AE07D
:1037000070E00E94741BEC018EEB93E00E94261780
:103710008C0F9D1FDF91CF910895CF92DF92EF9292
:10372000FF920F931F93CF93DF936B01770FEE08F8
:10373000FF08F7FE1BC0EC016DE20E9461178C01CF
:1037400044275527BA014C195D096E097F092AE003
:10375000CE010E94DD16800F911FDF91CF911F9146
:103760000F91FF90EF90DF90CF9008952AE0B7017E
:10377000A601DF91CF911F910F91FF90EF90DF9005
:10378000CF900C94DD160F931F93CF93DF93EC0132
:103790000E948D1B8C01CE010E942617800F911F65
:1037A000DF91CF911F910F910895CF92DF92EF9209
:1037B000FF926B017C01E091CE03F091CF0382E098
:1037C0008083C11481EED806E104F104B1F060E019
:1037D00079E08DE390E0A70196010E949532DA012D
:1037E000C9010197A109B109B695A7959795879544
:1037F0009C01211580E13807B8F0E091CE03F091EB
:10380000CF03108260E874E88EE190E0A701960192
:103810000E949532DA01C9010197A109B109B69553
:10382000A795979587959C01E091CA03F091CB03EA
:103830003083E091CC03F091CD0320831092D60326
:10384000E091D203F091D30386E08083E091D0032E
:10385000F091D103808180618083E091D003F09169
:10386000D103808188608083E091D003F091D103FF
:10387000808180688083E091D003F091D1038081C2
:103880008F7D8083FF90EF90DF90CF900895CF934E
:10389000DF93EC019A01AB011B8E1A8E198E188EE4
:1038A0001F8A1E8A60E079E08DE390E00E941C335D
:1038B000F9012430310518F0C901039702C081E0F5
:1038C00090E09D8F8C8F6C85663108F06AC0C901CD
:1038D000969587958431910510F0439702C081E059
:1038E00090E09F8B8E8B369718F0C901059702C028
:1038F00081E090E0998F888FC901880F991F280F68
:10390000391F36952795369527952D30310518F0B6
:103910002C50310902C021E030E03B8F2A8F3091DA
:103920006800683058F021E06E3008F420E091E043
:10393000892F01C0880F2A95EAF701C084E0832B04
:10394000809368009C85983038F09E3040F0963126
:1039500048F020E030E008C02DE630E005C02BE65E
:1039600030E002C02CE630E03C8B2B8B983030F4FA
:1039700081E001C0880F9A95EAF70EC0292F30E048
:103980009E3018F42850310902C02E50310981E0D0
:1039900001C0880F2A95EAF78D8B8C8D9D8D01973C
:1039A000F1F7CE01DF91CF910C948418CF92DF9282
:1039B000EF92FF92CF93DF936B017C0197FF15C0CD
:1039C0006DE28EEB93E00E946117EC0144275527CE
:1039D000BA014C195D096E097F092AE08EEB93E06C
:1039E0000E94DD16C80FD91F08C02AE0AB01BC0138
:1039F0008EEB93E00E94DD16EC018EEB93E00E94CB
:103A000026178C0F9D1FDF91CF91FF90EF90DF90D5
:103A1000CF900895CF93DF93282F30E0F901EA5536
:103A2000FE4E8491F901EE51FE4ED491F901E2531C
:103A3000FE4EC491CC2391F081110E94081BEC2F03
:103A4000F0E0EE0FFF1FE654FE4EA591B491EC910D
:103A5000ED2381E090E021F480E002C080E090E07E
:103A6000DF91CF9108951F93CF93DF93282F30E0FC
:103A7000F901EA55FE4E8491F901EE51FE4ED491C2
:103A8000F901E253FE4EC491CC23C1F0162F8111EF
:103A90000E94081BEC2FF0E0EE0FFF1FEC53FE4ED0
:103AA000A591B4919FB7F894111104C08C91D09551
:103AB000D82302C0EC91DE2BDC939FBFDF91CF9126
:103AC0001F910895CF93DF9390E0FC01EE51FE4EDD
:103AD0002491FC01E253FE4E8491882361F190E031
:103AE000880F991FFC01E456FE4EC591D491FC014C
:103AF000EC53FE4EA591B491611109C09FB7F894A3
:103B00008881209582238883EC912E230BC062301C
:103B100061F49FB7F8948881322F3095832388838E
:103B2000EC912E2B2C939FBF06C08FB7F894E881A1
:103B30002E2B28838FBFDF91CF910895EF92FF92B4
:103B40000F931F93CF93DF93EC018B0189E994E0EE
:103B50000E94ED1A892B31F067E472E18EEB93E05D
:103B60000E947C1789E994E00E94ED1A892B39F0B4
:103B7000F801608171818EEB93E00E94C31B89E99B
:103B800094E00E94ED1A9E012E5E3F4F7901892B31
:103B900071F06EE172E18EEB93E00E94A017B70125
:103BA000CE010E94C814B801CE010E94C8148885B5
:103BB0009985892B59F4B801CE010E94BA14AC0141
:103BC000B701C8010E947B34892BF1F189E994E0A7
:103BD0000E94ED1A892B71F066EF71E18EEB93E094
:103BE0000E94A017B701CE010E94C814B801CE01EF
:103BF0000E94C81461E088810E94621D1B821A82A3
:103C00001D821C821F821E8219861886D801F70128
:103C1000CE01CA962D913D9121933193E817F90772
:103C2000C9F781E090E09F838E832A893B89121631
:103C3000130614F49B838A838A859B85AC85BD8596
:103C40008E879F87A88BB98BDF91CF911F910F91A2
:103C5000FF90EF9008950F931F93CF93DF93EC01A4
:103C6000162F042F1B821A8288EE93E0A0E0B0E0AA
:103C70008C839D83AE83BF838CE391E0998388839B
:103C80001F8A1E8A198E188E1B8E1A8E1D8E1C8EF0
:103C90006E8D6E7F6D7F6E8F6695617081E0682797
:103CA000842F0E94331D61E0802F0E94621D802FAF
:103CB00090E0FC01EE51FE4EE491E88BFC01E253F2
:103CC000FE4EE491F0E0EE0FFF1FEC53FE4E8591A7
:103CD00094919A8B898B60E0812F0E94621D8E8D5A
:103CE00081FD04C061E0812F0E94331D1C87812F5C
:103CF00090E0FC01EE51FE4EE491ED87FC01E253B1
:103D0000FE4EE491F0E0EE0FFF1FE654FE4E85916B
:103D100094919F878E87DF91CF911F910F91089586
:103D20008F929F92AF92BF92CF92DF92EF92FF92CB
:103D30006B017C010E94311B4B015C01C114D10459
:103D4000E104F104F1F00E94311BDC01CB01881980
:103D50009909AA09BB09883E9340A105B10570F3F2
:103D600021E0C21AD108E108F10888EE880E83E04C
:103D7000981EA11CB11CC114D104E104F10419F76F
:103D8000DDCFFF90EF90DF90CF90BF90AF909F90EE
:103D90008F9008952FB7F8946091B6037091B70390
:103DA0008091B8039091B9032FBF0895CF93DF930B
:103DB000EC012D9640E150E0CE010E94583289E995
:103DC00094E00E94ED1A892B31F064E973E18EEBE7
:103DD00093E00E947C1789E994E00E94ED1A892BF8
:103DE00039F0BE018EEB93E0DF91CF910C942A174E
:103DF000DF91CF910895AF92BF92CF92DF92EF9271
:103E0000FF920F931F93CF93DF93EC015B016A0145
:103E100089017B0181E0E81AF108F701EE0FFF1F2D
:103E2000EA58FB4E65917491CA010E94513289E9AA
:103E300094E00E94ED1A892B31F068E574E18EEB75
:103E400093E00E947C1789E994E00E94ED1A892B87
:103E500029F0B5018EEB93E00E948D1B89E994E077
:103E60000E94ED1A892B31F065EC71E08EEB93E046
:103E70000E947A1789E994E00E94ED1A892B29F0B3
:103E8000B6018EEB93E00E947A1791E1E916F104F6
:103E900008F00DC1F701E45BFF4F0C943B338FA991
:103EA0008F938EA98F938DA98F938CA98F938EEB6F
:103EB00091E09F938F931F930F930E94A1348DB72E
:103EC0009EB708960FB6F8949EBF0FBE8DBFEFC089
:103ED0008BAD8F938AAD8F9389AD8F9388AD8F9380
:103EE0008EEB91E09F938F931F930F930E94A134C9
:103EF0008DB79EB708960FB6F8949EBF0FBE8DBFC4
:103F0000D6C08FAD8F938EAD8F938DAD8F938CADCB
:103F10008F938EEB91E09F938F931F930F930E944B
:103F2000A1348DB79EB708960FB6F8949EBF0FBE0A
:103F30008DBFBDC0C05CDF4F8B818F938A818F9313
:103F400089818F9388818F938EEB91E09F938F93DC
:103F50001F930F930E94A1348DB79EB708960FB69A
:103F6000F8949EBF0FBE8DBFA2C0CC5BDF4F88818F
:103F70001F928F9380E093E08EC0CB5BDF4F8B81ED
:103F80008F938A818F9389818F9388818F938EEB12
:103F900091E09F938F931F930F930E94A1348DB74D
:103FA0009EB708960FB6F8949EBF0FBE8DBF7FC018
:103FB000C75BDF4F6AC0C55BDF4F67C0BE01635B95
:103FC0007F4F06C0C15ADF4F60C0BE016F597F4F9F
:103FD000C8010E949A346BC0CB59DF4F56C0C959F3
:103FE000DF4F8B818F938A818F9389818F93888113
:103FF0008F9386E093E09F938F931F930F930E947C
:10400000A1348DB79EB708960FB6F8949EBF0FBE29
:104010008DBF4DC0C559DF4F38C0C359DF4F8B81AD
:104020008F938A818F9389818F9388818F9386E084
:1040300093E09F938F931F930F930E94A1348DB7AA
:104040009EB708960FB6F8949EBF0FBE8DBF2FC0C7
:10405000CF58DF4F8B818F938A818F9389818F9384
:1040600088818F9386E093E09F938F931F930F93A4
:104070000E94A1348DB79EB708960FB6F8949EBFE4
:104080000FBE8DBF14C0CB58DF4F89818F938881BD
:104090008F9383E093E09F938F931F930F930E94DE
:1040A000A1340F900F900F900F900F900F9089E90F
:1040B00094E00E94ED1A892B31F065EC71E08EEBF3
:1040C00093E00E947A1789E994E00E94ED1A892B07
:1040D00079F0B8018EEB93E0DF91CF911F910F91B2
:1040E000FF90EF90DF90CF90BF90AF900C942A1785
:1040F000DF91CF911F910F91FF90EF90DF90CF90C4
:10410000BF90AF900895AF92BF92CF92DF92EF929F
:10411000FF920F931F93CF93DF93CDB7DEB7E09756
:104120000FB6F894DEBF0FBECDBFB62EA72E6A0124
:104130008E010F5D1F4F9801AE014F5F5F4F7A01F7
:104140000E94FB1E1F930F93FF92EF92AF92BF92BC
:104150008AE093E09F938F93DF92CF920E94A134E5
:1041600089E994E00E94ED1A0FB6F894DEBF0FBE05
:10417000CDBF892B31F06FEB74E18EEB93E00E94A1
:104180007C1789E994E00E94ED1A892B29F0B70188
:104190008EEB93E00E947A1789E994E00E94ED1A71
:1041A000892B31F065EC71E08EEB93E00E947A1779
:1041B00089E994E00E94ED1A892B29F0B8018EEB71
:1041C00093E00E942A1789E994E00E94ED1A892B56
:1041D00031F068E974E18EEB93E00E947C1789E985
:1041E00094E00E94ED1A892B29F0B6018EEB93E042
:1041F0000E942A17E0960FB6F894DEBF0FBECDBF1F
:10420000DF91CF911F910F91FF90EF90DF90CF90B2
:10421000BF90AF900895EF92FF920F931F93CF93AB
:10422000DF93EC0140E150E065E972E004960E9402
:10423000583280E293E0998388838EE190E0A0E099
:10424000B0E08CAB9DABAEABBFAB88EE93E0A0E033
:10425000B0E088AF99AFAAAFBBAF86E990E0A0E02D
:10426000B0E08CAF9DAFAEAFBFAFFE01E05CFF4FE3
:1042700085E090E0A0E0B0E080839183A283B383E7
:104280003496808331968CE390E0A0E0B0E08083A8
:104290009183A283B38380E090E00E946F328E010D
:1042A000075B1F4F90E0F801918380833296118263
:1042B00010827296EE24E394F12CF182E082329621
:1042C00088E090E091838083329680915E019091A6
:1042D0005F01A0916001B091610180839183A2830D
:1042E000B383349684E090E091838083329680E0BB
:1042F00091EEA0E0B0E080839183A283B3833496F3
:104300008BE090E091838083329680E895E2A0E094
:10431000B0E080839183A283B383349680839183BA
:10432000A283B38334968DE090E09183808340E252
:1043300050E064E671E0CE0144960E94583240E1BC
:1043400050E063EB71E0CE01835B9F4F0E945832D7
:10435000F801F182E082DF91CF911F910F91FF90E0
:10436000EF900895CF93DF93FC01C281D381138234
:104370001282DC0160E070E080E090E02C9130E09F
:10438000522F44276637710529F011962C91119709
:1043900030E002C020E030E0242B352B8227932729
:1043A0006E5F7F4F12966837710541F7D383C283E2
:1043B000DF91CF910895EF92FF920F931F93CF93C8
:1043C000DF93EC017A0189016C3619F462ED71E03A
:1043D00004C0633629F46DEC71E0CE010E94D61E54
:1043E000F80180818823F1F089E994E00E94ED1AB8
:1043F000892B31F065EA73E18EEB93E00E947C1724
:1044000089E994E00E94ED1A892B29F0B8018EEB1E
:1044100093E00E942A1748E150E0B801CE01C79608
:104420000E945832F7018081882359F0B7018881B2
:1044300099810E947A1766EC71E0888199810E94C7
:104440007A1768E173E088819981DF91CF911F919C
:104450000F91FF90EF900C947A17BF92CF92DF925A
:10446000EF92FF920F931F93CF93DF93CDB7DEB7F9
:10447000E0970FB6F894DEBF0FBECDBF8C01FC01F4
:10448000E15BFF4F8FEF9FEF9183808365E474E1E1
:10449000F801808191810E947C1789E994E00E9453
:1044A000B22140E150E0BC01F801808191810E947D
:1044B00049176DE374E1F801808191810E947C17B6
:1044C0004AE050E067E770E0F801808191810E9446
:1044D0004F17EE24E394F12C90E3B92ECE01019610
:1044E0006C01F6018B2D11928A95E9F7A601B701AF
:1044F00089E994E00E948320B601F80180819181CE
:104500000E942A17FFEFEF1AFF0A82E1E816F10472
:1045100041F7F801808191810E9426172FE432E053
:104520004BE153E06CE6C8010E94DB21E0960FB638
:10453000F894DEBF0FBECDBFDF91CF911F910F91D9
:10454000FF90EF90DF90CF90BF900895EF92FF9291
:104550000F931F93CF93DF93EC016EE274E1888198
:1045600099810E947C1760915D0470915E0440E126
:1045700050E0888199810E94491766E274E1888140
:1045800099810E947C174AE050E06EE370E08881D8
:1045900099810E944F178BE5E82E84E0F82E00E009
:1045A00010E0F70184899589A689B789892B8A2B20
:1045B0008B2BE1F0B801888199810E948D1B63E209
:1045C00074E1888199810E947C17F701448955899B
:1045D000668977892AE030E0888199810E943C17BA
:1045E00061EC72E0888199810E942A170F5F1F4F4A
:1045F000F4E0EF0EF11C0A30110599F661EC72E05F
:10460000888199810E942A1725EE31E044E353E026
:1046100060E0CE01DF91CF911F910F91FF90EF905D
:104620000C94DB21CF93DF93EC016EE174E1888180
:1046300099810E94A01766E174E1888199810E94A6
:10464000A01769E074E1888199810E94A0176EEF3C
:1046500073E1888199810E94A01760EF73E18881DE
:1046600099810E94A0176CED73E1888199810E9465
:10467000A01760ED73E1888199810E94A0176DEB0E
:1046800073E1888199810E94A01761EC72E08881B2
:1046900099810E942A1725EE31E04CE453E06CE644
:1046A000CE01DF91CF910C94DB21FC017D9628E1B6
:1046B000DF011D922A95E9F7FC0116AA15AA0895B3
:1046C000FC0125A936A9232B49F4258D121634F4B3
:1046D000C7960E94913421E0892B09F020E0822FB7
:1046E0000895CF92DF92EF92FF92CF93DF93EC0188
:1046F0006A017B0189859A85AB85BC8584179507FE
:10470000A607B70751F065E773E18EEB93E00E94CF
:104710007C17C701B6010E94611BC986DA86EB8649
:10472000FC8681E090E090936703809366030E948B
:10473000CA1E6D837E838F839887DF91CF91FF9010
:10474000EF90DF90CF9008951F920F920FB60F92C7
:1047500011242F933F938F939F93AF93BF93809197
:10476000B6039091B703A091B803B091B90330910B
:10477000120523E0230F2D3720F40196A11DB11D52
:1047800005C026E8230F0296A11DB11D2093120536
:104790008093B6039093B703A093B803B093B90383
:1047A0008091BA039091BB03A091BC03B091BD036B
:1047B0000196A11DB11D8093BA039093BB03A093F2
:1047C000BC03B093BD03BF91AF919F918F913F9177
:1047D0002F910F900FBE0F901F901895CF93DF93DE
:1047E000CDB7DEB7E0970FB6F894DEBF0FBECDBFF2
:1047F000789484B5826084BD84B5816084BD85B5BC
:10480000826085BD85B5816085BD80916E008160C7
:1048100080936E001092810080918100826080936D
:10482000810080918100816080938100809180006F
:104830008160809380008091B10084608093B1009A
:104840008091B00081608093B00080917A00846094
:1048500080937A0080917A00826080937A008091C0
:104860007A00816080937A0080917A0080688093DA
:104870007A001092C10060E071EE80E090E00E944A
:10488000D51B6FE070E080E090E00E94901E67EE24
:1048900074E08EEB93E00E94A01765E372E08EEB6C
:1048A00093E00E94A0176BE371E08EEB93E00E940F
:1048B000A01719E9E12E14E0F12E00E213E0C8017F
:1048C0000E946F32D7018D937D010F5F1F4F073913
:1048D000B3E01B07A1F780E293E090939A048093E2
:1048E000990489E994E00E94231A811106C069E1C4
:1048F00071E08EEB93E00E94A01769E071E08EEB0F
:1049000093E00E947C1760E273E08EEB93E00E94DC
:10491000C31B6EEE70E08EEB93E00E947C176DE996
:1049200074E08EEB93E00E947A1762E671E08EEB02
:1049300093E00E942A1769ED70E08EEB93E00E94ED
:104940007C174AE050E067E770E08EEB93E00E944E
:104950004F176EEC70E08EEB93E00E947C174AE0FC
:1049600050E067E770E08EEB93E00E944F176AEB30
:1049700070E08EEB93E00E94A01765E172E08EEB91
:1049800093E00E947C176DE974E08EEB93E00E9447
:104990007A1763E072E08EEB93E00E947C176DEA79
:1049A00074E08EEB93E00E947A1768EF71E08EEB73
:1049B00093E00E947C1760919B0470919C0440E1FD
:1049C00050E08EEB93E00E944F1789E994E00E943B
:1049D000231A811124C069EB71E08EEB93E00E94F1
:1049E000A01787E790E00E9455338C010E940B21AD
:1049F00040E250E064E671E0C80144960E945832FB
:104A000080E293E0F80191838083C8010E94681AD4
:104A10006FE871E08EEB93E00E947C1708C066E6B9
:104A200071E08EEB93E00E947C1709E914E0B80175
:104A30006C5E7F4F8EEB93E00E947A1762E671E026
:104A40008EEB93E00E942A1761E571E08EEB93E014
:104A50000E94A0178EEB93E00E94D615609100058E
:104A60007091010580910205909103050E94D51B6C
:104A70006FE070E080E090E00E94901E65EB74E0D3
:104A80008EEB93E00E947C17609100057091010508
:104A900080910205909103050E94D61C63EA74E0A0
:104AA0008EEB93E00E947C176DEA74E08EEB93E04E
:104AB0000E947A1768E974E08EEB93E00E947C17FD
:104AC0004AE050E067E770E08EEB93E00E944F17FA
:104AD0006DE774E08EEB93E00E947C1765E771E070
:104AE0008EEB93E00E947A176AE774E08EEB93E016
:104AF0000E947C1763E871E08EEB93E00E942A1716
:104B000062E0809104050E94621D809104050E946C
:104B10000A1D8C0167E674E08EEB93E00E947C171F
:104B2000B8018EEB93E00E94C31B012B61F466E495
:104B300074E08EEB93E00E94A01781E090E09093E8
:104B4000E5048093E4048AE390E00E9455337C01FD
:104B50008091F8049091F904D70111969C938E935B
:104B600013961C921E92129715961C921E921497E1
:104B700017961C921E92169719961C921E921897C1
:104B80000E94CA1EF70162877387848795871686FD
:104B90001786108A118A729688E2DF011D928A9523
:104BA000E9F7F0927303E09272038FE190E00E94C4
:104BB00055338C014091FC046091FA040E942B1E35
:104BC000109369030093680385E590E00E945533D4
:104BD0008C018EEB93E0F80191838083158216821D
:104BE00017821086118612861386148678E1A72E06
:104BF0007D96DF012A2D1D922A95E9F7D801D696D8
:104C00001C921E92D597D8961C921E92D797A6E119
:104C1000BA2E7C96DF012B2D1D922A95E9F7769608
:104C2000CC24CA94DC2CD182C082329611821082AC
:104C30003296F182E08240E150E069E971E0C8011A
:104C40000D960E94583243E050E06EE971E0C801D1
:104C500002960E945832109361030093600385E529
:104C600090E00E9455338C01809172039091730300
:104C70002091680330916903D80111963C932E93DB
:104C8000F801158216821782108619961D921D92C0
:104C90001D921C921C977D96DF011D92AA94E9F744
:104CA000F80116AA15AA10AE17AAF996DF011D92EF
:104CB000BA94E9F77696D182C08232961182108238
:104CC00032969183808340E150E069E971E0C80148
:104CD0000D960E94583243E050E061EA71E0C8014D
:104CE00002960E94583210936B0300936A038FE17F
:104CF00090E00E9455338C014091F8046091FE04CD
:104D00000E942B1E10937103009370036CE472E0F9
:104D10008EEB93E00E94A0178DE490E00E94553343
:104D20006C01EE24E3940AE023E04EE064EA71E0D3
:104D30000E942B148AE091E0F60191838083E09138
:104D40001005F0911105D182C0828DE490E00E949F
:104D500055336C0107E024E04AE06DEA71E00E94FF
:104D60002B1480E191E0D6018D939C93E091100586
:104D7000F0911105D382C2828DE490E00E945533F8
:104D80006C01E12C0AE023E04DE063EB71E00E944E
:104D90002B1486E191E0F60191838083E091100568
:104DA000F0911105D582C482A0907003B090710378
:104DB00089E994E00E94ED1A892B31F068EA72E0EB
:104DC0008EEB93E00E947C1789E994E00E94ED1A33
:104DD000892B31F066EE74E08EEB93E00E942A1787
:104DE000E0901005F09011054701F6E08F0E911C40
:104DF000D7010D911D917D016801B2E0CB0ED11C50
:104E0000B60186EE94E00E949134892B29F08E142D
:104E10009F0471F70C94E62F89E994E00E94ED1A43
:104E2000892B31F061E972E08EEB93E00E947C17F0
:104E300089E994E00E94ED1A892B29F0B6018EEBE6
:104E400093E00E942A17F801E55BFF4FB182A08230
:104E50007801E0926E03F0926F0386E090E00E948A
:104E600055338C018091720390917303F801118284
:104E70001082E282F3829583848310936D03009302
:104E80006C0361E080910E050E94621D8091E20436
:104E90009091E304D8018D939C9367EC72E08EEBC4
:104EA00093E00E947C17F801608171818EEB93E0A2
:104EB0000E94C31BD8016C9180910E050E94331D86
:104EC000E0907203F090730389E994E00E94ED1A78
:104ED000892B31F069EF72E08EEB93E00E94A0170E
:104EE0008E010F5F1F4F88E2F80111928A95E9F752
:104EF00086ED91E09A8389838EE190E09C838B8399
:104F0000B801C7010E949E1D4091060550910705FA
:104F1000609108057091090580916803909169037B
:104F20000E94471C6AEE73E08EEB93E00E94A0178C
:104F30006EE873E08EEB93E00E94A0175BE5C52E50
:104F400054E0D52E6CEBE62E62E0F62EC7010E94EF
:104F50006F32D6018D936D01BFEFEB1AFB0AEAEFBA
:104F6000EE16E2E0FE0691F78CEB92E090935C0483
:104F700080935B048BE594E00E94B518811106C014
:104F80006CE673E08EEB93E00E94A0176CE573E093
:104F90008EEB93E00E947C176CEB72E08EEB93E05B
:104FA0000E94C31B61E473E08EEB93E00E947C17C8
:104FB0006FE574E08EEB93E00E947A1762E671E091
:104FC0008EEB93E00E942A176CE273E08EEB93E085
:104FD0000E947C174AE050E06EE370E08EEB93E0B5
:104FE0000E944F1761E273E08EEB93E00E947C1702
:104FF0004AE050E06EE370E08EEB93E00E944F17C2
:105000006DE073E08EEB93E00E94A0174FE6E42E74
:1050100044E0F42ED7014D915D916D917D917D011C
:105020002AE030E08EEB93E00E943C176AEB71E0DF
:105030008EEB93E00E947A17E7E9F4E0EE15FF05A6
:1050400049F78EEB93E00E9426178BE594E00E94CF
:10505000B518811111C065EB73E08EEB93E00E94EF
:10506000A0178EE390E00E9455337C010E94F41952
:10507000C7010E94401904C03BE5E32E34E0F32E43
:10508000C7010E94FA1864EA73E08EEB93E00E9475
:10509000A0176DEF73E08EEB93E00E94A017809154
:1050A0006003909161030E94B11380916A03909113
:1050B0006B030E94B11340910A0550910B0560915A
:1050C0000C0570910D0580917003909171030E9401
:1050D000471CE0906C03F0906D0361E08091DD046B
:1050E0000E94621D60E374E08EEB93E00E947C17E7
:1050F000D70112966D917C9113976E5F7F4F8EEB67
:1051000093E00E947A1761E174E08EEB93E00E94D5
:105110007C17F701608171818EEB93E00E94C31BC5
:10512000D7011296ED91FC911397658981E068276C
:105130008091DD040E94331D62E370E080E090E026
:105140000E94901ED7011296ED91FC9113976589EC
:105150008091DD040E94331D8EEB93E00E942617A0
:10516000EE24E394F12C20E3D22EF8012D2D1192A0
:105170002A95E9F7A801B70189E994E00E94832004
:10518000B8018EEB93E00E942A173FEFE31AF30A6F
:1051900042E1E416F10449F7CE0101961C010091A9
:1051A0007203109173030E94CA1E4B015C01D80167
:1051B0001A966D937D938D939C931D971496CD9025
:1051C000DC9015977601EE0CFF1CE00EF11E1E968A
:1051D0008D919D910D90BC91A02DB501A401481B0E
:1051E000590B6A0B7B0BF70182899389092E000CFE
:1051F000AA0BBB0B481759076A077B0708F45FC067
:10520000B8016E5E7F4FC8010E94BA140197C8169C
:10521000D9063CF1D80115961C921E921497169649
:105220008D919C911797019617969C938E93169744
:1052300052968D919C915397181619063CF4E1E013
:10524000F0E01396FC93EE93129705C0D8011396E5
:105250001C921E921297F80186869786A08AB18AC0
:105260002EC0C6010196D80115969C938E93149773
:10527000892B49F416968D919C9117970196179654
:105280009C938E931697F7018489958918161906B1
:1052900064F4C601029662E070E00E940833D8010F
:1052A00013969C938E93129703C0F8011382128277
:1052B000D8011E968D929D92AD92BC925197F801A5
:1052C000628180810E94331D809166039091670303
:1052D000181619060CF058C080916403909165036C
:1052E0000091600310916103009719F080179107F6
:1052F000A9F4F801EF5AFF4F80819181892B29F0A1
:1053000069E170E080E090E004C061E070E080E07E
:1053100090E00E94901EC8010E94A50D8091640338
:105320009091650300916A0310916B03009719F047
:105330008017910749F5D801ED90FC90C7010E94B4
:1053400084188091620390916303E816F90639F09E
:105350006FE070E080E090E00E94901EF2CFF801D4
:10536000EF5AFF4F80819181892B29F069E170E02C
:1053700080E090E004C061E070E080E090E00E9496
:10538000901EC8010E94A50D80916603909167034D
:10539000892B61F0E0916403F0916503EF5AFF4FB0
:1053A00080819181181619060CF00DC600917003CA
:1053B00010917103C8010E9484188091620390913A
:1053C00063030817190739F06FE070E080E090E0A0
:1053D0000E94901EF2CFE0916403F0916503EF5AB2
:1053E000FF4F80819181892B29F062E370E080E09A
:1053F00090E003C060E070E0CB010E94901E00913D
:105400006E0310916F0389E994E00E94ED1A892BD5
:1054100031F068EB79E08EEB93E00E947C170E94FC
:10542000CA1EF80167A370A781A792A789E994E033
:105430000E94ED1A892B69F0D80197964D915D91E4
:105440006D917C919A972AE030E08EEB93E00E9478
:105450003C1789E994E00E94ED1A892B31F063EB47
:1054600079E08EEB93E00E94A017F80187A490A842
:10547000A1A8B2A88091D5049091D604A091D70498
:10548000B091D804880E991EAA1EBB1E6801F3E4D1
:10549000CF0ED11CD6018D929D92AD92BC921397E6
:1054A000F80123A934A945A956A9211531054105BB
:1054B000510541F42091D9043091DA044091DB0484
:1054C0005091DC047801F7E4EF0EF11CA8EEB3E094
:1054D0000E94B732860E971EA81EB91ED7018D9264
:1054E0009D92AD92BC92139789E994E00E94ED1AC7
:1054F000892B31F06DE979E08EEB93E00E947C1707
:1055000089E994E00E94ED1A892B39F0F601608157
:105510007181828193810E94611B89E994E00E94DC
:10552000ED1A892B31F066E879E08EEB93E00E946A
:105530007C1789E994E00E94ED1A892B39F0D70194
:105540006D917D918D919C910E94611B7801BFE3CB
:10555000EB0EF11C8090D1049090D204A090D30463
:10556000B090D4048091D5049091D604A091D70432
:10557000B091D804880E991EAA1EBB1E2091D90492
:105580003091DA044091DB045091DC04A8EEB3E0E2
:105590000E94B732860E971EA81EB91EF7018082A0
:1055A0009182A282B38289E994E00E94ED1A892B4C
:1055B00031F063E779E08EEB93E00E947C1789E994
:1055C00094E00E94ED1A892B49F0D8019B966D91C9
:1055D0007D918D919C919E970E94611B89E994E039
:1055E0000E94ED1A892B31F066E579E08EEB93E0AD
:1055F0000E947C1789E994E00E94ED1A892B39F00A
:10560000F80167A570A981A992A90E94611B89E987
:1056100094E00E94ED1A892B31F06FE379E08EEB74
:1056200093E00E947C1789E994E00E94ED1A892B8F
:1056300089F0F80187A190A5A1A5B2A583A494A49F
:10564000A5A4B6A4BC01CD01681979098A099B09F2
:105650000E94611B89E994E00E94ED1A892B31F0C8
:105660006FE179E08EEB93E00E947C1789E994E08A
:105670000E94ED1A892B89F0F80187A190A5A1A5B8
:10568000B2A587A490A8A1A8B2A8BC01CD016819B1
:1056900079098A099B090E94611B89E994E00E94AB
:1056A000ED1A892B31F067E079E08EEB93E00E94F0
:1056B0007C1789E994E00E94ED1A892B39F0D70113
:1056C0006D917D918D919C910E94611B89E994E07F
:1056D0000E94ED1A892B31F06BEE78E08EEB93E0AF
:1056E0000E947C1789E994E00E94ED1A892B71F0E1
:1056F0002091CD043091CE044091CF045091D0043C
:10570000A8EEB3E00E94B7320E94611B89E994E0E1
:105710000E94ED1A892B31F06CEC78E08EEB93E06F
:105720000E947C1789E994E00E94ED1A892BA1F070
:10573000F80163A974A985A996A961157105810568
:10574000910541F46091D9047091DA048091DB04F1
:105750009091DC040E94611B89E994E00E94ED1A9B
:10576000892B31F06FEB78E08EEB93E00E947C1791
:1057700089E994E00E94ED1A892BD1F0D801D396E3
:105780002D913D914D915C91D697211531054105A3
:10579000510541F42091D9043091DA044091DB04A1
:1057A0005091DC04A8EEB3E00E94B7320E94611B66
:1057B00089E994E00E94ED1A892B31F061EA78E0E2
:1057C0008EEB93E00E947C1789E994E00E94ED1A29
:1057D000892B51F06091D5047091D6048091D70443
:1057E0009091D8040E94611B89E994E00E94ED1A0F
:1057F000892B31F06DE978E08EEB93E00E94A017E1
:10580000F80187A190A5A1A5B2A543A554A565A5BA
:1058100076A5841B950BA60BB70B4091D104509134
:10582000D2046091D3047091D404481759076A07D1
:105830007B0708F098C289E994E00E94ED1A892B51
:1058400031F06AE778E08EEB93E00E947C1789E9FB
:1058500094E00E94ED1A892B39F0B8016E5F7F4FFA
:105860008EEB93E00E942A1789E994E00E94ED1ADA
:10587000892B31F064E578E08EEB93E00E947C1791
:1058800089E994E00E94ED1A892B29F0D8015296FB
:105890008C910E947D1B7801BBE4EB0EF11CF7019B
:1058A00080819181DC01ED91FC910084F185E02DF6
:1058B0000995892B09F48DC1F70180819181DC0163
:1058C000ED91FC910084F185E02D0995892B09F477
:1058D0004AC2F801D6A0FFE0FD1508F49DC0D8012A
:1058E00052968C91D81608F097C0F701808191816B
:1058F000DC01ED91FC910284F385E02D0995F8011E
:10590000ED0DF11D868B89E994E00E94ED1A892B3B
:1059100031F062E578E08EEB93E00E947C1789E934
:1059200094E00E94ED1A892B31F06AE070E0F801F2
:1059300086A10E94741B89E994E00E94ED1A892BCC
:1059400031F060E578E08EEB93E00E947C17D8019F
:1059500096968C91F801E80FF11D868990ED980FCD
:105960009A3020F08F7D8154863078F489E994E074
:105970000E94ED1A892B49F0F80186A1E80FF11D6C
:1059800066898EEB93E00E94611789E994E00E949A
:10599000ED1A892B31F06CEB71E08EEB93E00E94F5
:1059A0007A1789E994E00E94ED1A892B59F0D80101
:1059B00096968C91F801E80FF11D60E170E0868900
:1059C0000E94741B89E994E00E94ED1A892B31F042
:1059D0006CEB71E08EEB93E00E947A1789E994E01A
:1059E0000E94ED1A892B49F0F80186A1E80FF11DFC
:1059F0006AE070E086890E94741BD80152969C91DF
:105A00005297915096968C919697811109C056960F
:105A10002C91223009F4DAC3C8010E94561B4CCFE6
:105A2000981317C0F801E90FF11D9689933041F1E1
:105A3000C8010E94561B89E994E00E94ED1A892B47
:105A400009F43ACF61EC72E08EEB93E00E942A17E2
:105A500033CF981768F3803158F7891798F48F5F20
:105A6000F80186A389E994E00E94ED1A892B09F4D4
:105A700023CF6AEB71E08EEB93E00E947A171CCF84
:105A80008031B0F689E994E00E94ED1A892B31F05B
:105A900061EC72E08EEB93E00E942A177801F6E148
:105AA000EF0EF11C89E994E00E94ED1A892B31F088
:105AB0006BE178E08EEB93E00E947C1789E994E03B
:105AC0000E94ED1A892B39F0B8016E5F7F4F8EEB83
:105AD00093E00E942A1789E994E00E94ED1A892B2D
