:100000000C945F080C9487080C9487080C94731761
:100010000C9473170C9473170C9487080C9487082E
:100020000C9487080C9487080C9487080C94870814
:100030000C9487080C9487080C9487080C94870804
:100040000C942D290C9487080C9441170C941B17C1
:100050000C9487080C9487080C9487080C948708E4
:100060000C9487080C948708560A660A760A860A52
:10007000960AA00AC20ACE0ADA0AE20A410BEE0A7E
:10008000FA0A0A0B160B260B360B74137B137F131D
:100090009313AD13D813DC13921AAB1AC41ADD1ADA
:1000A000F81A001B1B1B1E1B211B251B281B351BA5
:1000B000381B531B561B711B8C1B292000465245B5
:1000C000452052414D202800436F6E737472756352
:1000D00074696E67205265616465723A20004572EA
:1000E000726F723A2043616C6C65642070726F634A
:1000F000657373546167446174612829206F6E20B1
:10010000626173652052656164657220636C73730C
:100110000052444D3633303020746167207265617F
:10012000643A200052444D3633303020707263738D
:100130002074616720696E70743A20005237393438
:1001400031452074616720726561643A20002C207B
:10015000636865636B73756D2028646563293A2055
:10016000002C2069645F6C656E3A20002C20696465
:100170005F656E643A200069645F626567696E3A24
:100180002000523739343145207072637320746116
:100190006720696E70743A2000574C3132352072F6
:1001A0006561643A20002C20636865636B73756D2C
:1001B0002028726177206279746573293A20002CB7
:1001C0002069645F6C656E3A20002C2069645F656D
:1001D0006E643A200069645F626567696E3A200068
:1001E000574C313235207072637320746167206917
:1001F0006E70743A200043616C6C696E67204545EF
:1002000050524F4D2E757064617465207769746823
:100210002070726F78696D6974795F737461746549
:100220003A20004D656E753A3A67657454616746C9
:10023000726F6D5363616E6E6572282920666F75EB
:100240006E64207461672000636865636B53657238
:1002500069616C506F727420454F4C20696E6478F0
:100260003A2000636865636B53657269616C506F17
:1002700072742829207263766420627974653A204A
:100280000061646454616728292073756363657332
:1002900073006164645461672829206661696C6534
:1002A000643A20447570650061646454616728296C
:1002B000206661696C65643A2046756C6C00616407
:1002C0006454616728292061626F727465643A2002
:1002D000496E76616C696420636F64650061646473
:1002E000546167282920006661696C65642C20745C
:1002F0006167206973206475706C6963617465005F
:100300006661696C65642C20746167206C69737424
:100310002069732066756C6C0061626F727465642D
:100320002C20696E76616C6964207461672D696444
:1003300020737472696E670073756363657373000D
:10034000416464546167282920726573756C743A3E
:10035000200054616720656E74657265643A200000
:1003600064656C657465546167496E6465782829B5
:100370003A200044656C65746554616728292072D1
:100380006573756C743A200044656C6574655461DE
:100390006728292061626F72746564004D656E750F
:1003A0003A3A64656C657465546167282900646530
:1003B0006C657465416C6C546167732829007570B5
:1003C0006461746553657474696E6728292063617C
:1003D0006C6C20746F20532E757064617465536566
:1003E0007474696E672829206661696C656400759C
:1003F000706461746553657474696E67282920613F
:10040000626F72746564004D656E753A3A7570641A
:1004100061746553657474696E6728293A20004DCC
:10042000656E753A3A62797465546F4173636969B0
:100430004368724E756D20726376642062797465CC
:100440003A20004D656E753A3A6D656E754164648B
:100450005461672829004D656E753A3A6D656E7571
:1004600044656C657465546167282900467265654A
:10047000204D656D6F72793A20004D656E753A3A80
:100480006D656E7553686F77467265654D656D6F06
:1004900072792829004D656E753A3A6D656E75441E
:1004A000656C657465416C6C546167732829006DD7
:1004B000656E7553656C65637465644D61696E49FD
:1004C00074656D20627974657320746F206E756D2C
:1004D0003A20006D656E7553656C65637465644D97
:1004E00061696E4974656D2072637664206461741D
:1004F000613A20003A20006D656E7553656C656346
:1005000074656453657474696E67207365742073D1
:10051000656C65637465645F6D656E755F69746550
:100520006D20746F3A20004D656E753A3A6D656EB8
:100530007553656C656374656453657474696E673F
:1005400028290053746F726167653A3A4C6F616491
:10055000282920454E440073697A656F662854291E
:10056000200073697A656F66282A6F626A65637412
:100570005F7265662920006F626A6563745F7265E9
:10058000662D3E73746F726167655F6E616D652085
:100590002700656570726F6D5F6164647265737367
:1005A000200053746F726167653A3A4C6F6164283A
:1005B0002920636865636B73756D206D69736D6168
:1005C0007463680053746F726167653A3A4C6F6187
:1005D00064282920424547494E0053657474696E6A
:1005E00067733A3A4C6F6164282920454E440053A2
:1005F000657474696E67733A3A4C6F616428292098
:100600007573696E67206C6F6164656420736574CF
:1006100074696E677320270053657474696E67731D
:100620003A3A4C6F61642829207573696E672064BB
:10063000656661756C742073657474696E67732088
:10064000270053657474696E67733A3A4C6F61643E
:1006500028292063686B736D206D69736D61746305
:100660006820736F206372656174696E67206465CA
:100670006661756C742053657474696E677328299C
:1006800000272063686B736D203078002720736526
:100690007474696E67735F6E616D652027005365C2
:1006A0007474696E67733A3A4C6F616428292073D9
:1006B000746F726167655F6E616D652027005365B9
:1006C0007474696E67733A3A4C6F616428292042EA
:1006D0004547494E0053657474696E67206F7574A1
:1006E0007075742073776974636820706572207305
:1006F000617665642070726F78696D6974795F7373
:10070000746174653A200053746F726167653A3A98
:100710004C6F6164282920454E440073697A656FE7
:1007200066285429200073697A656F66282A6F62EB
:100730006A6563745F7265662920006F626A65632B
:10074000745F7265662D3E73746F726167655F6E6C
:10075000616D65202700656570726F6D5F6164640F
:1007600072657373200053746F726167653A3A4C17
:100770006F6164282920636865636B73756D206DF4
:1007800069736D617463680053746F726167653A71
:100790003A4C6F6164282920424547494E00546114
:1007A00067733A3A4C6F6164282920454E440054DF
:1007B0006167733A3A4C6F61642829206368656306
:1007C0006B73756D206D69736D617463682C206344
:1007D00072656174696E67206E6577207461672D3C
:1007E00073657400546167733A3A4C6F61642829E9
:1007F00020424547494E0053657269616C4D656EF4
:10080000753A3A426567696E2829002C2077697429
:100810006820454550524F4D2070726F78696D6960
:100820007479207374617465200053746172746903
:100830006E672052464944207265616465722000EB
:1008400044656275672070696E204C4F57202E2ECC
:100850002E20656E61626C696E67206465627567E3
:100860000044656275672070696E207374617475E9
:10087000733A20002C2000426F6F74696E6720521B
:1008800046494420496D6D6F62696C697A65722CC6
:10089000200027206F662073697A6520004C6F6105
:1008A0006465642053657474696E67732027005211
:1008B000652D696E697469616C697A656420736518
:1008C0007269616C20706F72742077697468206C33
:1008D0006F616465642073657474696E67733A2030
:1008E00000496E697469616C697A65642064656643
:1008F00061756C742073657269616C20706F7274BD
:1009000020402035373630302062617564004F5505
:10091000545055545F5357495443485F50494E0013
:10092000524649445F424155440042545F4241555A
:10093000440044454255475F50494E0048575F5375
:10094000455249414C5F4241554400524649445F3B
:1009500053455249414C5F52580042545F525854DB
:1009600058004C45445F50494E0044454641554C63
:10097000545F52454144455200656E61626C655F4B
:1009800064656275670070726F78696D6974795F0C
:1009900073746174650061646D696E5F74696D651F
:1009A0006F7574005245414445525F504F57455250
:1009B0005F434F4E54524F4C5F50494E0052454199
:1009C0004445525F4359434C455F484947485F445B
:1009D00055524154494F4E005245414445525F43A0
:1009E00059434C455F4C4F575F4455524154494F12
:1009F0004E005441475F524541445F534C4545507A
:100A00005F494E54455256414C005441475F4C415A
:100A100053545F524541445F54494D454F5554002E
:100A20000A0AF209D809BD09A409960986097909B3
:100A30006A0962095A094B093C0932092A09200945
:100A40000E0953746F726167653A3A73617665286F
:100A50002920454E440053746F726167653A3A73BA
:100A600061766528292063686B736D206D69736DED
:100A7000617463682C2063616C6C696E6720454506
:100A800050524F4D2E70757428290053746F726147
:100A900067653A3A73617665282920454E440053CC
:100AA000746F726167653A3A7361766528292045EB
:100AB0004550524F4D20757064617465206E6F749F
:100AC000206E6563657373617279002073697A655E
:100AD0006F6628542920002720746F206164647297
:100AE000657373200053746F726167653A3A73617E
:100AF0007665282920270053746F726167653A3A3A
:100B000073617665282920424547494E0053657434
:100B100074696E67733A3A73617665282920726545
:100B200073756C743A200053746F726167653A3A5A
:100B300073617665282920454E440053746F7261B5
:100B400067653A3A7361766528292063686B736D2F
:100B5000206D69736D617463682C2063616C6C69CE
:100B60006E6720454550524F4D2E707574282900F0
:100B700053746F726167653A3A736176652829200C
:100B8000454E440053746F726167653A3A736176FB
:100B900065282920454550524F4D20757064617479
:100BA00065206E6F74206E65636573736172790082
:100BB0002073697A656F6628542920002720746F96
:100BC0002061646472657373200053746F7261678F
:100BD000653A3A73617665282920270053746F724D
:100BE0006167653A3A73617665282920424547492D
:100BF0004E0020746F20616464726573732000532B
:100C00006176696E67207461677320776974682004
:100C1000636865636B73756D203078004D656E7524
:100C20003A3A7265736574496E707574427566669A
:100C300065722829004C65643A3A626567696E20DE
:100C40007769746820696E74657276616C7320636D
:100C5000757272656E742C206E65773A004C65640F
:100C60003A3A757064617465207769746820696EBA
:100C700074657276616C732063757272656E742C24
:100C8000206E65773A006379636C655265616465CF
:100C900072506F77657228292073657474696E6766
:100CA0002072656164657220706F776572204C4FA9
:100CB00057002C20757074696D653A20006E65765A
:100CC000657200207365636F6E64732061676F00E7
:100CD0002C20726561646572206379636C65643A87
:100CE00020006E6576657200207365636F6E6473B5
:100CF0002061676F006379636C655265616465723A
:100D0000506F77657228292074616720726561646D
:100D10003A20006379636C65526561646572506F57
:100D200077657228292073657474696E672072650F
:100D30006164657220706F7765722048494748008A
:100D4000556E617574686F72697A6564206F722080
:100D5000696E76616C6964207461673A2000417540
:100D600074686F72697A6564207461673A20005410
:100D7000616720726573756C742066726F6D207088
:100D8000726F636573735461674461746128293AB3
:100D900020005265616465723A3A70726F636573E0
:100DA00073546167282920726563656976656420DC
:100DB00062756666657220772F7265616465723A46
:100DC0002000290028002C20005265616465723AD9
:100DD0003A706F6C6C526561646572282920726587
:100DE000616465725F6E616D652C207261775F74FE
:100DF00061675F6C656E6774683A200052454144D4
:100E00004552204C4F4F5020454E4420006D735F9B
:100E10007265616465725F6379636C655F746F743A
:100E2000616C3A20006D7353696E63654C61737435
:100E3000526561646572506F7765724379636C6562
:100E400028293A20006D7353696E63654C61737491
:100E50005461675265616428293A20006C6173749B
:100E60005F7265616465725F706F7765725F6379E9
:100E7000636C655F6D733A20006C6173745F7461BD
:100E8000675F726561645F6D733A2000524541444B
:100E90004552204C4F4F5020424547494E200000BC
:100EA000000000240027002A0000000008000201C2
:100EB000000003040700000000000000002E2000D6
:100EC0002C2073697A652000546167732C20636855
:100ED0006B736D203078004D656E753A3A6D656EB6
:100EE000754C697374546167732829002C207369E9
:100EF0007A65200053657474696E67732C2063688B
:100F00006B736D203078004D656E753A3A6D656E85
:100F10007553657474696E6773282900362E2044F2
:100F2000656C65746520616C6C2074616773003555
:100F30002E2053657474696E677300342E205368D5
:100F40006F772066726565206D656D6F727900330D
:100F50002E2044656C6574652074616700322E2014
:100F60004164642074616700312E204C69737420E1
:100F70007461677300302E2045786974004D656E8A
:100F800075004D656E753A3A6D656E754D61696EA9
:100F90002829004D656E753A3A627566666572522B
:100FA0006561647928293A200000000000230026AA
:100FB00000290000000000250028002B0004040484
:100FC00004040404040202020202020303030303F2
:100FD00003010204081020408001020408102001CF
:100FE00002040810205246494420496D6D6F626921
:100FF0006C697A65722061646D696E20636F6E73CF
:101000006F6C652C200075706461746541646D6956
:101010006E54696D656F757428293A20004D656EB0
:10102000753A3A636C65617253657269616C506FB1
:1010300072742829004D656E753A3A726561644C88
:10104000696E655769746843616C6C6261636B2893
:101050002900456E746572696E672072756E206D29
:101060006F64650D0A000D0A4D656E752073657419
:1010700074696E672072756E5F6D6F646520746F42
:101080002030202772756E27004D656E753A3A65DF
:1010900078697441646D696E2829004D454E55206C
:1010A0004C4F4F5020454E44004D454E55204C4F1F
:1010B0004F5020424547494E3A200000D52F112479
:1010C0001FBECFEFD8E0DEBFCDBF13E0A0E0B1E0A0
:1010D000E2EDF0E702C005900D92A63EB107D9F708
:1010E00025E0A6EEB3E001C01D92A938B207E1F7F2
:1010F00018E0CFE5D8E004C02197FE010E946F35CB
:10110000CE35D107C9F70E9477290C9467380C9423
:101110000000CF93DF93FC012689378937FF05C094
:1011200060E070E080E090E00EC0EC010190F081A2
:10113000E02D0480F581E02D09952E893F8921500D
:1011400031093F8B2E8BDF91CF9108952FEF3FEF29
:10115000DC0157963C932E935697FC019C012C5E24
:101160003F4F13821282158214823496E217F307DE
:10117000C1F74115510511F460FF07C0DC01ED9185
:10118000FC910190F081E02D099408959F92AF9217
:10119000BF92CF92DF92EF92FF920F931F93CF9364
:1011A000DF93EC018B01942EE881F9810480F581B5
:1011B000E02D09956B017C018E899F8997FD3AC0CE
:1011C000570181E0A822BB24C114D10421F4A11449
:1011D000B10469F52FC0992039F0E881F9810280C6
:1011E000F381E02DCE010995AB2871F0F701F5955B
:1011F000E795EC0FFD1F0190F081E02DEC0DFD1D3A
:101200000190F081E02D01C0F601C7019595879509
:10121000B8018C0F9D1FDF91CF911F910F91FF900F
:10122000EF90DF90CF90BF90AF909F90099499205E
:10123000E9F2D3CFDF91CF911F910F91FF90EF9003
:10124000DF90CF90BF90AF909F900895FC01411523
:10125000510511F460FF11C0268937892F5F3F4F78
:10126000378B268B220F331F220F331FE20FF31F02
:101270004283538364837583089565E771E08AE34D
:1012800094E00C94F516CF92DF92EF92FF920F93B9
:101290001F93CF93DF93CDB7DEB7E0970FB6F894E7
:1012A000DEBF0FBECDBF7C016B0181E095E00E94E7
:1012B000561A892B31F067E275E08AE394E00E94C8
:1012C00007174AE050E060E070E0C6010E942A3152
:1012D00087010F5B1F4FF8017183608381E095E008
:1012E0000E94561A892B31F067EF74E08AE394E08C
:1012F0000E944A1681E095E00E94561A892B39F027
:10130000F801608171818AE394E00E94F221F80182
:1013100060817181CB010197409760F59E012F5D3F
:101320003F4FAE014F5F5F4F81E095E00E94711A21
:10133000BE016F5F7F4FF701808D918D0E9419175D
:1013400064EF74E0F701808D918D0E944A16BE0112
:101350006F5D7F4FF701808D918D0E94F51628EE0D
:1013600039E040E050E000E065E971E0C7010E942B
:101370004C240FC0F6018081803321F08D3011F0B4
:101380008A3021F4C7010E942F2503C0C7010E94A3
:101390007B25E0960FB6F894DEBF0FBECDBFDF9180
:1013A000CF911F910F91FF90EF90DF90CF90089514
:1013B00081E095E00E94561A892B31F06EED70E0C5
:1013C0008AE394E00E94071760E070E0CB01089583
:1013D000AF92BF92CF92DF92EF92FF920F931F9343
:1013E000CF93DF93CDB7DEB7A0970FB6F894DEBFEB
:1013F0000FBECDBF6C018B0181E095E00E94561AB3
:10140000892B31F067E074E08AE394E00E944A1689
:1014100081E095E00E94561A96012F5B3F4F5901DB
:10142000892B39F0F901608171818AE394E00E948F
:10143000BC2181E095E00E94561A892B31F062EBC5
:1014400071E08AE394E00E94191781E095E00E9420
:10145000561A892B29F0B8018AE394E00E94F51608
:10146000F80180818D3021F08A3011F0811103C0A4
:101470006FEE73E020C1F501E080F180F1E0EF1A3A
:10148000F108F701EE0FFF1FE05EF54F65917491D3
:10149000CE0101960E94493221E1E216F10408F0E2
:1014A00008C1F701EC5CFF4F0C946F354AE050E047
:1014B00060E070E0C8010E942A31609335057093A6
:1014C00036058093370590933805DBC04AE050E03D
:1014D00060E070E0C8010E942A3160933905709382
:1014E0003A0580933B0590933C05CBC04AE050E021
:1014F00060E070E0C8010E942A3160933D0570935E
:101500003E0580933F0590934005BBC04AE050E004
:1015100060E070E0C8010E942A3160934105709339
:1015200042058093430590934405ABC04AE050E0E8
:1015300060E070E0C8010E942A3160934505A1C0B7
:101540004AE050E060E070E0C8010E942A316A3051
:1015500071058105910548F0609346057093470534
:1015600080934805909349058CC08AE090E0A0E004
:10157000B0E08093460590934705A0934805B0934B
:1015800049057FC04AE050E060E070E0C8010E9479
:101590002A3170934B0560934A0573C04AE050E0CE
:1015A00060E070E0C8010E942A3170934D0560939D
:1015B0004C0567C040E150E0B8018EE495E00E9420
:1015C00050325FC04AE050E060E070E0C8010E9425
:1015D0002A31709361056093600553C04AE050E082
:1015E00060E070E0C8010E942A3170936705609343
:1015F000660547C04AE050E060E070E0C8010E9424
:101600002A31609368057093690580936A05909309
:101610006B0537C04AE050E060E070E0C8010E940E
:101620002A3170936D0560936C052BC04AE050E041
:1016300060E070E0C8010E942A3160936E057093EB
:101640006F0580937005909371051BC04AE050E0D0
:1016500060E070E0C8010E942A31609372057093C7
:10166000730580937405909375050BC04AE050E0B4
:1016700060E070E0C8010E942A31709377056093A2
:10168000760540E250E065EB71E085E195E00E946F
:10169000503281E095E00E94D11940914605509169
:1016A00047056091480570914905C6010E94B82818
:1016B00006C06EEB73E08AE394E00E9407178FEF99
:1016C0009FEFF50191838083C6010E947B25A09640
:1016D0000FB6F894DEBF0FBECDBFDF91CF911F9143
:1016E0000F91FF90EF90DF90CF90BF90AF90089553
:1016F000CF93DF93EC01DB018C918F7D893589F4E9
:101700006EEA73E08AE394E00E94071784E1EBEE4F
:10171000F4E0DF011D928A95E9F787ED94E00E94DD
:10172000A918CE01DF91CF910C942B26CF92DF9296
:10173000EF92FF920F931F93CF93DF93EC018B01F6
:1017400081E095E00E94561A892B31F06CE973E034
:101750008AE394E00E9407174AE050E060E070E0FE
:10176000C8010E942A316B017C01CB0118161906B1
:101770004CF4F80120812D3029F02A3019F0653021
:1017800071053CF068E873E0888D998D0E94071719
:101790002DC086010150110960E673E08AE394E0F0
:1017A0000E944A16B8018AE394E00E94F221F4E014
:1017B000CF0ED11CC601880F991F880F991FFC01FD
:1017C000E952FB4F108211821282138287ED94E05E
:1017D0000E94A91863E773E0888D998D0E944A16CC
:1017E00060E070E0888D998D0E94F221888D998D3E
:1017F0000E94DF16CE01DF91CF911F910F91FF90D4
:10180000EF90DF90CF900C942B268F929F92AF9207
:10181000BF92EF92FF920F931F93CF93DF938C01B0
:101820007B01FB0180818D3009F46DC08A3009F4A1
:101830006AC0882309F467C04AE050E060E070E0C5
:10184000C7010E942A314B015C016DED72E08AE311
:1018500094E00E944A16C501B4010E944E1C87ED17
:1018600094E00E946318EBEEF4E0DF0180E090E08A
:101870004D915D916D917D91452B462B472B09F044
:10188000019624E0AF3FB20799F781149104A104B7
:10189000B10439F46EEB72E08AE394E00E9407171A
:1018A00032C0853091054CF068EA72E08AE394E03A
:1018B0000E940717C2E0D0E028C041915191619188
:1018C000719184169506A606B70609F471C024E046
:1018D000EF3FF20791F7880F991F880F991FFC01BE
:1018E000E551FB4F80829182A282B38287ED94E022
:1018F0000E94A91861E872E08AE394E00E94071749
:10190000C0E0D0E002C0C1E0D0E062E573E0F801E1
:10191000808D918D0E944A16B701F801808D918DBE
:101920000E94F51660E473E0F801808D918D0E94AD
:101930004A16BE01F801808D918D0E94BC2162EB98
:1019400071E0F801808D918D0E941917F801808D4A
:10195000918DC230D10559F0C330D10559F021978E
:1019600019F068E373E008C069E173E005C060E066
:1019700073E002C067EE72E00E944A16F801808DA3
:10198000918D0E94DF16F801808D918D0E94DF16E7
:10199000C8010E94F022C801DF91CF911F910F91E1
:1019A000FF90EF90BF90AF909F908F900C942B265C
:1019B00062E972E08AE394E00E940717C3E0D0E096
:1019C000A4CF6F927F928F929F92AF92BF92CF924D
:1019D000DF92EF92FF920F931F93CF93DF93CDB7D8
:1019E000DEB78C016B016DB67EB681E095E00E949A
:1019F000561A892B31F060EE71E08AE394E00E9480
:101A00004A1681E095E00E94561A892B31F065ED67
:101A100071E08AE394E00E944A1681E095E00E941A
:101A2000561A892B31F06AE070E0F80183890E9430
:101A3000611C81E095E00E94561A892B31F06AEC16
:101A400071E08AE394E00E944A1681E095E00E94EA
:101A5000561A892B31F06AE070E0F80184890E94FF
:101A6000611CF80144894F5F8389F42EF81A81E0E4
:101A700095E00E94561A892B31F06FEB71E08AE3F2
:101A800094E00E944A1681E095E00E94561A892B44
:101A900029F06AE070E08F2D0E94611C81E095E0E2
:101AA0000E94561A892B31F066EA71E08AE394E0CD
:101AB0000E944A1681E095E00E94561A892B31F067
:101AC0006AE070E0F60183850E94611C81E095E088
:101AD0000E94561A892B31F065EC71E08AE394E09C
:101AE0000E94191781E095E00E94561A892B21F077
:101AF000F60184850E946A1C4F2D50E04F5F5F4FB6
:101B00008DB79EB7841B950B0FB6F8949EBF0FBE82
:101B10008DBFEDB7FEB731967F0166E071E0CF0172
:101B20000E949B35F80183895601A80EB11C87ECF1
:101B3000882E81E0982EF801848990E095012C1977
:101B40003D0982179307C4F0F50121915F01F70168
:101B500001900020E9F71F922F939F928F92CF015F
:101B600001979F938F930E94B4350F900F900F9021
:101B70000F900F900F90DFCF40E150E060E070E0F9
:101B8000C7010E942A314B015C0181E095E00E946F
:101B9000561A892B31F069E971E08AE394E00E94DA
:101BA0004A1681E095E00E94561A892B29F0B70168
:101BB0008AE394E00E94191781E095E00E94561A8A
:101BC000892B31F062EB71E08AE394E00E941917EF
:101BD00081E095E00E94561A892B21F0C501B401DD
:101BE0000E944E1CC501B4010FB6F8947EBE0FBE14
:101BF0006DBEDF91CF911F910F91FF90EF90DF901D
:101C0000CF90BF90AF909F908F907F906F900895EE
:101C10006F927F928F929F92AF92BF92CF92DF92FC
:101C2000EF92FF920F931F93CF93DF93CDB7DEB761
:101C30008C015B016DB67EB681E095E00E94561A7C
:101C4000892B31F062E871E08AE394E00E944A1641
:101C500081E095E00E94561A892B31F067E771E028
:101C60008AE394E00E944A1681E095E00E94561AA9
:101C7000892B31F06AE070E0F80183890E94611CD1
:101C800081E095E00E94561A892B31F06CE671E0F4
:101C90008AE394E00E944A1681E095E00E94561A79
:101CA000892B31F06AE070E0F80184890E94611CA0
:101CB000F801448950E08389481B51094F5F5F4F09
:101CC000F42EFF0C81E095E00E94561A892B31F02A
:101CD00061E671E08AE394E00E944A1681E095E0B3
:101CE0000E94561A892B29F06AE070E08F2D0E941D
:101CF000611C81E095E00E94561A892B31F06EE458
:101D000071E08AE394E00E944A1681E095E00E9427
:101D1000561A892B21F0F50180850E946A1C4F2DEF
:101D200050E04F5F5F4F8DB79EB7841B950B0FB68A
:101D3000F8949EBF0FBE8DBFEDB7FEB731967F0101
:101D400066E071E0CF010E949B35F801838965014F
:101D5000C80ED11C8AEC882E81E0982EF801848967
:101D600090E096012A193B0982179307C4F0F60107
:101D700021916F01F70101900020E9F71F922F9345
:101D80009F928F92CF0101979F938F930E94B435BA
:101D90000F900F900F900F900F900F90DFCF40E1BA
:101DA00050E060E070E0C7010E942A314B015C0105
:101DB00081E095E00E94561A892B31F06CE371E0C6
:101DC0008AE394E00E944A1681E095E00E94561A48
:101DD000892B29F0B7018AE394E00E94191781E06A
:101DE00095E00E94561A892B31F062EB71E08AE38C
:101DF00094E00E94191781E095E00E94561A892B01
:101E000021F0C501B4010E944E1CC501B4010FB6FA
:101E1000F8947EBE0FBE6DBEDF91CF911F910F91E2
:101E2000FF90EF90DF90CF90BF90AF909F908F90FA
:101E30007F906F9008956F927F928F929F92AF9252
:101E4000BF92CF92DF92EF92FF920F931F93CF93A7
:101E5000DF93CDB7DEB76C015B016DB67EB681E076
:101E600095E00E94561A892B31F064E271E08AE312
:101E700094E00E944A1681E095E00E94561A892B50
:101E800049F040E150E060E070E0C5010E942A3175
:101E90000E949624F601F38844894F1950E04F5F61
:101EA0005F4F8DB79EB7841B950B0FB6F8949EBFFE
:101EB0000FBE8DBF0DB71EB70F5F1F4F66E071E0FD
:101EC000C8010E949B35F501EF0DF11D7F0187ECE4
:101ED000882E81E0982EF601848990E097012A19D6
:101EE0003B0982179307C4F0F70121917F01F801A4
:101EF00001900020E9F71F922F939F928F92CF01BC
:101F000001979F938F930E94B4350F900F900F907D
:101F10000F900F900F90DFCF40E150E060E070E055
:101F2000C8010E942A316B017C0181E095E00E948A
:101F3000561A892B31F061E171E08AE394E00E9446
:101F40004A1681E095E00E94561A892B29F0B801C3
:101F50008AE394E00E94191781E095E00E94561AE6
:101F6000892B31F062EB71E08AE394E00E9419174B
:101F700081E095E00E94561A892B21F0C701B60135
:101F80000E944E1CC701B6010FB6F8947EBE0FBE6C
:101F90006DBEDF91CF911F910F91FF90EF90DF9079
:101FA000CF90BF90AF909F908F907F906F9008954B
:101FB000CF92DF92EF920F93CF93DF93EC016B01FF
:101FC0008BE091E0998388834A8B2B8B0C8BED8A75
:101FD000FE01769680E1DF011D928A95E9F71EA247
:101FE0000E94D3276FA378A789A79AA71BA61CA630
:101FF0001DA61EA61FA618AA19AA1AAA1BAA1CAAC1
:102000001DAA1EAA1FAA18AE19AE1AAE1BAE1CAE90
:102010001DAE1EAEFE01FF96108211821282138247
:1020200034961082118212821382349610821182A9
:10203000128213823496108211821282138240E13E
:1020400050E0B601CE0102960E94503268EC70E07A
:102050008AE394E00E944A16B6018AE394E0DF9195
:10206000CF910F91EF90DF90CF900C94F516CF9316
:10207000DF93FC01C281D38113821282DC0160E014
:1020800070E080E090E02C9130E0522F44276637DA
:10209000710529F011962C91119730E002C020E0D3
:1020A00030E0242B352B822793276E5F7F4F1296CB
:1020B0006837710541F7D383C283DF91CF910895CB
:1020C0002091800530918105232BC9F5DC01119603
:1020D0007C936E931296ED91FC91139761157105A7
:1020E00049F483E090E0A0E0B0E083AB94ABA5AB13
:1020F000B6AB04C013AA14AA15AA16AA80914A0561
:1021000090914B0570934B0560934A0568177907CA
:10211000B1F066EF71E08AE394E00E944A166091A4
:102120004A0570914B058AE394E00E94F221809168
:102130004A0590914B0590935F0580935E05089545
:10214000EF920F93CF93DF93EC01E12C0AE023E0B1
:102150004DE06FEC71E00E94D80F8DE191E0998322
:102160008883DF91CF910F91EF900895EF920F93B5
:10217000CF93DF93EC01EE24E39407E024E04AE000
:1021800066ED71E00E94D80F87E191E09983888322
:10219000DF91CF910F91EF900895EF920F93CF932E
:1021A000DF93EC01EE24E3940AE023E04EE06CEDD3
:1021B00071E00E94D80F81E191E099838883DF91DB
:1021C000CF910F91EF900895CF93DF93EC0181E0D1
:1021D00095E00E94561A892B31F065EE71E08AE392
:1021E00094E00E94F5161EA2669680E1FE0111920F
:1021F0008A95E9F7DF91CF910895CF92DF92EF9220
:10220000FF920F931F93CF93DF93CDB7DEB76897FD
:102210000FB6F894DEBF0FBECDBF8C016C0183E416
:10222000C80ED11CD6018D919C91892B09F489C0CF
:10223000F801828D938D0E947A1CD8015A96ED91F7
:10224000FC915B97E55BFF4F80819181A281B38117
:10225000892B8A2B8B2B09F474C081E095E00E94B6
:10226000561A892B31F063E272E08AE394E00E940F
:102270004A1681E095E00E94561A892B69F0D80130
:102280005A96ED91FC915B97E55BFF4F6081718100
:10229000828193810E944E1CD8015A96ED91FC9147
:1022A0005B97E55BFF4F83818F9382818F93818161
:1022B0008F9380818F9389EF91E09F938F93FE019D
:1022C00031967F01FF93EF930E94B43548E150E0CF
:1022D000B7017801F7E2EF0EF11CC7010E945032FE
:1022E000F7010FB6F894DEBF0FBECDBF80E090E0DF
:1022F00041919C012F5F3F4F41110EC0F801E80F43
:10230000F91F4AE047A3F801E20FF31F17A2F801F3
:10231000FF963183208304C0C9012831310541F77C
:10232000D8015A968D919C915B97FC01E55BFF4F1C
:1023300010821182128213820E94E410F60111822F
:1023400010826DEF71E0C8014C960E94A435892B74
:1023500031F5D8015896ED90FC905997C7010E942D
:10236000ED178091380490913904E816F90639F098
:1023700062E070E080E090E00E949927F2CFF601E1
:1023800080819181892B29F461E070E080E090E008
:1023900004C06AE070E080E090E00E949927D801D4
:1023A00058968D919C915997DC01ED91FC91008498
:1023B000F185E02D0995892B09F459C01093E703A5
:1023C0000093E6034091460550914705609148050A
:1023D00070914905C8010E94B828F6011182108247
:1023E000C801CF966C01D80158968D919C91599750
:1023F000DC01ED91FC910084F185E02D0995892B9C
:10240000B1F1C8010E94CA24811131C0F801808D48
:10241000918DDC01ED91FC910284F385E02D09950D
:10242000F82E81E095E00E94561A892B31F063E680
:1024300072E08AE394E00E944A1681E095E00E94EF
:10244000561A892B41F06F2D0F2C000C770B8AE365
:1024500094E00E94F221BBE1FB123AC08AE0F8014D
:1024600087A310A681E090E0D6018D939C93C801CC
:102470000E94CA24882309F469C0B801695D7F4FAE
:1024800048E150E0CE0101960E945032C8010E94FE
:10249000F022D801ED91FC910280F381E02DC8017A
:1024A0000995F801E08CF18C6AE0C7010E9443169F
:1024B000C7010E94DF16D801ED91FC910680F781DB
:1024C000E02D41E0BE016F5F7F4FC80109953EC01E
:1024D000F801808D918DDC01ED91FC910190F081EE
:1024E000E02D6F2D0995F60180819181F801E80FAB
:1024F000F91FF7A20196D6018D939C93BDE0FB16C0
:1025000019F0EAE0FE126FCF81E095E00E94561AC2
:10251000892B31F068E472E08AE394E00E944A1665
:1025200081E095E00E94561A892B49F0D6016D9101
:102530007C91615071098AE394E00E94F221D601F6
:10254000ED91FC91E00FF11F17A24DCF68960FB6E9
:10255000F894DEBF0FBECDBFDF91CF911F910F91D9
:10256000FF90EF90DF90CF900895EF92FF920F933E
:102570001F93CF93DF9300D0CDB7DEB77C012091BE
:102580008305309184052115310511F429E835E0E2
:102590008E010F5F1F4F021B130B6DEB70E08AE380
:1025A00094E00E944A16B8018AE394E00E94BC219C
:1025B0006AEB70E08AE394E00E944A16B7018AE36E
:1025C00094E00E94F516C8010F900F90DF91CF9113
:1025D0001F910F91FF90EF900895CF92DF92EF92AD
:1025E000FF920F931F93CF93DF931F92CDB7DEB768
:1025F0007C016B0181E095E00E94561A892B31F035
:1026000063ED74E08AE394E00E944A1681E095E06D
:102610000E94561A892B29F0B6018AE394E00E94A1
:10262000F516D6018C91898381E095E00E94561AB7
:10263000892B31F06FE174E08AE394E00E944A163E
:1026400081E095E00E94561A892B41F06981062E9F
:10265000000C770B8AE394E00E94F2218981805379
:1026600087010F5B1F4F8A3030F08FEF9FEFF8012B
:102670009183808315C04AE050E060E070E0CE01B5
:1026800001960E942A316F3F7F4F79F34AE050E074
:1026900060E070E0C6010E942A31D8016D937C93FE
:1026A00081E095E00E94561A892B31F06FEA74E0C0
:1026B0008AE394E00E944A1681E095E00E94561A4F
:1026C000892B39F0F801608171818AE394E00E94DE
:1026D000F221D801ED91FC91E730F10508F080C0BE
:1026E000EB5BFF4F0C946F3540E050E0BA01C7013F
:1026F0000E94B82878C0C7010E942B2674C081E0D0
:1027000095E00E94561A892B31F063E474E08AE365
:1027100094E00E94071725E03CE040E050E001E033
:1027200060E072E016C081E095E00E94561A892BA5
:1027300031F066E574E08AE394E00E940717C70170
:102740000E942B2626E93BE040E050E000E066E3F3
:1027500072E0C7010E944C2446C081E095E00E94CF
:10276000561A892B31F06AE774E08AE394E00E94FC
:10277000071781E293E00E94B5128C016CE674E0C9
:10278000F701808D918D0E944A16B801D7015896A5
:102790008D919C9159970E94F221F701808D918D26
:1027A0000E94DF1660E572E0C7010E9477241BC01B
:1027B000C7010E947B2517C081E095E00E94561A50
:1027C000892B31F065E974E08AE394E00E940717F1
:1027D00028E73BE040E050E000E063E672E0B9CF7C
:1027E000C7010E942F250F90DF91CF911F910F916C
:1027F000FF90EF90DF90CF900895CF93DF93CDB708
:10280000DEB7A8970FB6F894DEBF0FBECDBFBE01EE
:102810006F5F7F4F28E2FB0111922A95E9F724EFC1
:1028200031E03A8329833C832B830E940422A896BB
:102830000FB6F894DEBF0FBECDBFDF91CF910895E4
:1028400080E090E0FB0121913191BF011216130647
:1028500024F4019684319105A9F708950F931F93ED
:10286000CF93DF938B010E942014BC018AE394E094
:102870000E94BC2165EC71E08AE394E00E94191784
:10288000E801085D1F4F63EB71E08AE394E00E946A
:102890001917699179918AE394E00E94BC21C017CD
:1028A000D10789F761E273E08AE394E0DF91CF9189
:1028B0001F910F910C94F516CF92DF92EF92FF9239
:1028C0000F931F93CF93DF936C017A018B01C0E0CC
:1028D000D0E0CE15DF0581F0D8016D918D01D601D4
:1028E000ED91FC910190F081E02DC6010995892BB5
:1028F00011F02196EECF7E01C701DF91CF911F919C
:102900000F91FF90EF90DF90CF900895FC01538DD1
:10291000448D252F30E0842F90E0821B930B5417B9
:1029200010F0CF96089501970895FC01918D828D46
:10293000981761F0828DDF01A80FB11D5D968C9113
:10294000928D9F5F9F73928F90E008958FEF9FEF1E
:102950000895FC01918D828D981731F0828DE80FDA
:10296000F11D858D90E008958FEF9FEF0895FC0194
:10297000918D228D892F90E0805C9F4F821B910961
:102980008F73992708958AE394E00E94B71421E099
:10299000892B09F420E0822F0895FC01848DDF014A
:1029A000A80FB11DA35ABF4F2C91848D90E00196C2
:1029B0008F739927848FA689B7892C93A089B189B1
:1029C0008C91837080648C93938D848D981306C052
:1029D0000288F389E02D80818F7D80830895EF92B6
:1029E000FF920F931F93CF93DF93EC0181E0888FC9
:1029F0009B8D8C8D981305C0E889F989808185FDB0
:102A000026C0F62E0B8D10E00F5F1F4F0F7311279E
:102A1000E02E8C8DE8120CC00FB607FCFACFE889C7
:102A2000F989808185FFF5CFCE010E94CD14F1CFC9
:102A30008B8DFE01E80FF11DE35AFF4FF0829FB727
:102A4000F8940B8FEA89FB89808180620AC09FB766
:102A5000F894EE89FF896083E889F9898081837021
:102A6000806480839FBF81E090E0DF91CF911F91D0
:102A70000F91FF90EF900895CF93DF93EC01888D35
:102A80008823C9F0EA89FB89808185FD05C0A88972
:102A9000B9898C9186FD0FC00FB607FCF5CF8081F8
:102AA00085FFF2CFA889B9898C9185FFEDCFCE0142
:102AB0000E94CD14E7CFDF91CF91089580E090E0A0
:102AC000892B29F00E94C31481110C9400000895F1
:102AD00020913804309139042817390771F4909106
:102AE000370480913604981741F0E0913704F0E004
:102AF000EA50FC4F808190E008958FEF9FEF08959A
:102B000008951F93CF93DF93DC015C968D919C9188
:102B10005D97009739F421E030E013963C932E93B3
:102B200012973BC05196ED91FC91529750962C9183
:102B30005097322F30951FB75E964C915E97742F49
:102B4000727041FD6095F8944081772311F0422B1B
:102B500001C043234083EC012197F1F748E0508105
:102B600060FF02C0522B01C053235083EC01219718
:102B7000F1F76695415099F78081772319F0832307
:102B8000808302C0282B20831FBF5C968D919C916F
:102B90005D970197F1F781E090E0DF91CF911F9170
:102BA000089520913804309139042817390771F4B9
:102BB000809136042091370490E0805C9F4F821B07
:102BC000910960E470E00E943C35089580E090E057
:102BD0000895209138043091390428173907B9F441
:102BE0009091370480913604981789F0E09137046A
:102BF000F0E0EA50FC4F80812091370430E02F5FF5
:102C00003F4F2F7333272093370490E008958FEFC1
:102C10009FEF0895089580E090E00895CF93FC0120
:102C20004281538113821282DC01BC01665D7F4FB9
:102C300080E090E02C9130E0322F22271196CC9149
:102C400011972C2B8227932712966A177B0791F7EF
:102C500053834283CF910895FC012689378937FF3A
:102C600004C060E070E0CB010895220F331F220FF3
:102C7000331FFC01E20FF31F628173818481958110
:102C800008950E948935DC01ED91FC910190F0815D
:102C9000E02D0994EF92FF920F931F93CF93DF9350
:102CA0008C017B01C0E0D0E0F701EC0FFD1F6491C7
:102CB000662361F0D801ED91FC910190F081E02D47
:102CC000C8010995892B11F02196EECFCE01DF9135
:102CD000CF911F910F91FF90EF90089561157105AD
:102CE00079F0FB0101900020E9F73197AF01461B15
:102CF000570BDC01ED91FC910280F381E02D0994EA
:102D000080E090E008958F929F92AF92BF92EF92F1
:102D1000FF920F931F93CF93DF93CDB7DEB7A197A9
:102D20000FB6F894DEBF0FBECDBF7C01FA01CB0118
:102D300019A2223008F42AE08E010F5D1F4F822E67
:102D4000912CA12CB12CBF01A50194010E948D32C0
:102D5000F901CA01015011096A3014F4605D01C023
:102D6000695CD8016C93232B242B252B61F7B801C8
:102D7000C7010E946E16A1960FB6F894DEBF0FBE73
:102D8000CDBFDF91CF911F910F91FF90EF90BF903A
:102D9000AF909F908F9008952115310541F4DC018B
:102DA000ED91FC910190F081E02D642F09940C9439
:102DB00083169A01AB0160E070E00C94CC166FE1D1
:102DC00073E00C946E160F931F93CF93DF93EC0177
:102DD0000E94D9168C01CE010E94DF16800F911F30
:102DE000DF91CF911F910F9108950F931F93CF9370
:102DF000DF93EC010E946E168C01CE010E94DF165B
:102E0000800F911FDF91CF911F910F9108950F9324
:102E10001F93CF93DF93EC010E944A168C01CE01E1
:102E20000E94DF16800F911FDF91CF911F910F91AC
:102E300008950C946E161F920F920FB60F921124E4
:102E40002F933F934F935F936F937F938F939F93B2
:102E5000AF93BF93EF93FF938AE394E00E94CD1466
:102E6000FF91EF91BF91AF919F918F917F916F9162
:102E70005F914F913F912F910F900FBE0F901F9038
:102E800018951F920F920FB60F9211242F938F93C4
:102E90009F93EF93FF93E0914A04F0914B0480815C
:102EA000E0915004F091510482FD12C09081809114
:102EB00053048F5F8F7320915404821751F0E09177
:102EC0005304F0E0E65CFB4F958F8093530401C000
:102ED0008081FF91EF919F918F912F910F900FBE65
:102EE0000F901F9018951F920F920FB60F921124FA
:102EF0002F933F934F935F936F937F938F939F9302
:102F0000AF93BF93EF93FF93E0913804F0913904AE
:102F1000309709F451C0968DA685B785858591FFB8
:102F200004C09C91892329F447C09C91892309F00E
:102F300043C0A389B4899C918589809589238C930A
:102F4000868997890197F1F7608D718DA685B78580
:102F5000558538E020E0CB010197F1F7822F90E012
:102F600095958795282F4C91452309F0206831507D
:102F700091F7868D81FD20958091360490E0019631
:102F80008F73992730913704381749F0A091360490
:102F9000B0E0AA50BC4F2C938093360403C0868DBA
:102FA0008160868F828D938D0197F1F7A389B48913
:102FB0009C918589892B8C93FF91EF91BF91AF9163
:102FC0009F918F917F916F915F914F913F912F9141
:102FD0000F900FBE0F901F901895CF93DF93FC01B9
:102FE000828D938D892B31F1A0913804B0913904F1
:102FF000EA17FB07F9F0109751F05396CD91DC9149
:103000005497988155968C91809589238883868DD5
:103010008E7F868F1092360410923704F093390415
:10302000E0933804A389B4899C918589892B8C937A
:1030300081E001C080E0DF91CF910895EF92FF928F
:103040000F931F93CF937C010E940E168C01F70102
:10305000828193810817190731F4C1E0C8010197F3
:103060008E3F9F4F08F0C0E062E273E08AE394E095
:103070000E941917F7016281738140E150E08AE3F1
:1030800094E00E94D9166AE373E08AE394E00E9418
:10309000191740E150E0B8018AE394E00E94D91684
:1030A0006EE373E08AE394E00E9419176C2F70E0DE
:1030B0008AE394E00E94F2218C2FCF911F910F910F
:1030C000FF90EF900895CF92DF92EF92FF9220E071
:1030D00030E04FEF5FEFD901AA0FBB1FAA0FBB1F54
:1030E000A80FB91F5496CD90DD90ED90FC905797A6
:1030F000C114D104E104F10431F44F3F6FEF5607DE
:10310000F1F4A9011CC021153105C9F04F3F6FEF43
:103110005607A9F0FA013596EE0FFF1FEE0FFF1FBD
:10312000E80FF91FC082D182E282F38254961D9289
:103130001D921D921C9257979A014FEF5FEF2F5FE0
:103140003F4F253031053CF2FF90EF90DF90CF905C
:103150000895CF92DF92FF920F931F93CF93DF9347
:10316000EC010E9463186FEF7BE08AE394E00E9419
:103170004A16CE010E940E1640E150E0BC018AE3DF
:1031800094E00E94D91662EF7BE08AE394E00E940B
:103190004A16688179818AE394E00E94F2218E01C7
:1031A0000C5E1F4F6E0188E2C80ED11CF8014191E0
:1031B0005191619171918F012AE030E08AE394E0AE
:1031C0000E94CC1665EC71E08AE394E00E94191726
:1031D000C016D10659F78AE394E00E94DF160881F1
:1031E00019816CED7BE08AE394E00E94071717FDDC
:1031F00002C0198308836AEC7BE08AE394E00E94B2
:103200004A16BE016C5F7F4F8AE394E00E94191753
:103210006CEB7BE08AE394E00E944A166881798136
:103220008AE394E00E94BC2160EB7BE08AE394E0B7
:103230000E944A164AE050E06AE270E08AE394E0B5
:103240000E94E316CE010E941E18811123C06BE379
:103250007BE08AE394E00E940717CE010E940E16DD
:103260009B838A83088119816801FAE2CF0ED11C01
:10327000F990C8010E946732F81621F06F2DC8013D
:103280000E946F320F5F1F4FC016D10689F767E2A9
:103290007BE008C064E87BE08AE394E00E940717C3
:1032A00060E77BE08AE394E0DF91CF911F910F917B
:1032B000FF90DF90CF900C9407170F931F93CF933D
:1032C000DF93EC018C010C5F1F4F40E150E06EE496
:1032D00073E0C8010E9450328CEB92E0998388839E
:1032E000FE01749684E1DF011D928A95E9F7F9A742
:1032F000E8A78C8181110BC040E150E063E573E0E9
:10330000C801DF91CF911F910F910C945032DF9142
:10331000CF911F910F910895EF92FF920F931F93FA
:10332000CF937C010E9437108C01F7018281938139
:103330000817190731F4C1E0C80101978E3F9F4F6C
:1033400008F0C0E062E273E08AE394E00E9419179B
:10335000F7016281738140E150E08AE394E00E94CA
:10336000D9166AE373E08AE394E00E94191740E1FA
:1033700050E0B8018AE394E00E94D9166EE373E04E
:103380008AE394E00E9419176C2F70E08AE394E0BE
:103390000E94F2218C2FCF911F910F91FF90EF90FF
:1033A0000895CF92DF92FF920F931F93CF93DF93F5
:1033B000EC0167EF7AE08AE394E00E94071765EE7C
:1033C0007AE08AE394E00E944A16BE016C5F7F4F68
:1033D0008AE394E00E94191767ED7AE08AE394E0AB
:1033E0000E944A16688179818AE394E00E94BC2198
:1033F0006BEC7AE08AE394E00E944A164AE050E0DF
:1034000067E770E08AE394E00E94E316CE010E9431
:103410008C19811129C066E57AE08AE394E00E9464
:103420000717CE010E9437109B838A830881198178
:10343000680187E7C80ED11CF990C8010E94673265
:10344000F81621F06F2DC8010E946F320F5F1F4FD9
:103450000C151D0589F762E47AE08AE394E00E9486
:103460000717C0E0D0E00EC06FE97AE08AE394E08D
:103470000E9407176BE87AE08AE394E00E9407173E
:10348000C1E0D0E06DE07BE08AE394E00E944A1660
:10349000BE018AE394E00E94F221CE01DF91CF9138
:1034A0001F910F91FF90DF90CF900895CF93DF93FE
:1034B000EC01FC01E559FF4F80810E94A026892B79
:1034C00059F0C55BDF4F81E090E0288139812130E0
:1034D000310521F080E002C081E090E0DF91CF91E2
:1034E0000895EF92FF920F931F93CF93DF93EC0118
:1034F000CA01122F032F7B0121E0E21AF108F70124
:10350000EE0FFF1FE05EF54F659174910E94493206
:1035100081E1E816F10408F013C1F701E45BFF4F05
:103520000C946F358FA98F938EA98F938DA98F934C
:103530008CA98F9389EF91E09F938F930F931F93A3
:103540000E94B4358DB79EB708960FB6F8949EBF0B
:103550000FBE8DBFF5C08BAD8F938AAD8F9389ADB4
:103560008F9388AD8F9389EF91E09F938F930F9303
:103570001F930E94B4358DB79EB708960FB6F89486
:103580009EBF0FBE8DBFDCC08FAD8F938EAD8F936E
:103590008DAD8F938CAD8F9389EF91E09F938F9337
:1035A0000F931F930E94B4358DB79EB708960FB640
:1035B000F8949EBF0FBE8DBFC3C0C05CDF4F8B8130
:1035C0008F938A818F9389818F9388818F9389EFDD
:1035D00091E09F938F930F931F930E94B4358DB703
:1035E0009EB708960FB6F8949EBF0FBE8DBFA8C0B9
:1035F000CC5BDF4F88811F928F9380E693E094C06D
:10360000CB5BDF4F8B818F938A818F9389818F93DF
:1036100088818F9389EF91E09F938F930F931F93EE
:103620000E94B4358DB79EB708960FB6F8949EBF2A
:103630000FBE8DBF85C0C75BDF4F70C0C55BDF4F5E
:103640006DC0BE01635B7F4F06C0C15ADF4F66C0CD
:10365000BE016F597F4F812F902FDF91CF911F9126
:103660000F91FF90EF900C94AD35CB59DF4F56C0C2
:10367000C959DF4F8B818F938A818F9389818F9373
:1036800088818F9386E693E09F938F930F931F9388
:103690000E94B4358DB79EB708960FB6F8949EBFBA
:1036A0000FBE8DBF4DC0C559DF4F38C0C359DF4F66
:1036B0008B818F938A818F9389818F9388818F9358
:1036C00086E693E09F938F930F931F930E94B435E8
:1036D0008DB79EB708960FB6F8949EBF0FBE8DBFEC
:1036E0002FC0CF58DF4F8B818F938A818F93898131
:1036F0008F9388818F9386E693E09F938F930F93A8
:103700001F930E94B4358DB79EB708960FB6F894F4
:103710009EBF0FBE8DBF14C0CB58DF4F89818F93E2
:1037200088818F9383E693E09F938F930F931F93EA
:103730000E94B4350F900F900F900F900F900F9044
:10374000DF91CF911F910F91FF90EF900895EF922D
:10375000FF920F931F93CF93DF93EC0140E150E072
:103760006CEB71E004960E94503280E293E0998302
:1037700088838EE190E0A0E0B0E08CAB9DABAEAB77
:10378000BFAB88EE93E0A0E0B0E088AF99AFAAAFFE
:10379000BBAF86E990E0A0E0B0E08CAF9DAFAEAFEC
:1037A000BFAFFE01E05CFF4F85E090E0A0E0B0E03D
:1037B00080839183A283B3833496808331968CE394
:1037C00090E0A0E0B0E080839183A283B38380E0A7
:1037D00090E00E9467328E01075B1F4F90E0F80176
:1037E000918380833296118210827296EE24E39444
:1037F000F12CF182E082329688E090E09183808320
:10380000329680912D0190912E01A0912F01B091BF
:10381000300180839183A283B383349684E090E067
:1038200091838083329680E091EEA0E0B0E08083C7
:103830009183A283B38334968BE090E0918380835D
:10384000329680E895E2A0E0B0E080839183A28385
:10385000B383349680839183A283B38334968DE0BF
:1038600090E09183808340E250E064E972E0CE0111
:1038700044960E94503240E150E06FEC71E0CE017E
:10388000835B9F4F0E945032F801F182E082DF910A
:10389000CF911F910F91FF90EF900895CF93DF93F9
:1038A000AB01BC012AE08AE394E00E948316EC019C
:1038B0008AE394E00E94DF168C0F9D1FDF91CF9169
:1038C00008959B01482F50E060E070E08AE394E0A7
:1038D0000C94CC16CF93DF936AE070E00E94611CD9
:1038E000EC018AE394E00E94DF168C0F9D1FDF91AC
:1038F000CF9108952F923F924F925F926F927F9255
:103900008F929F92AF92BF92CF92DF92EF92FF92EF
:103910000F931F93CF93DF9300D000D0CDB7DEB7C6
:103920009C838B837C018FE4E80EF11CD7018D9181
:103930009C910E94ED17F70120813181809138041C
:10394000909139042817390739F062E070E080E07F
:1039500090E00E949927EFCF64E170E080E090E072
:103960000E94992781E095E00E94561A892B31F038
:103970006CE87EE08AE394E00E944A160E94D32716
:10398000AB81BC8197966D937D938D939C939A9711
:1039900081E095E00E94561A892B41F0EB81FC8171
:1039A00067A170A581A592A50E944E1C80903D053F
:1039B00090903E05A0903F05B0904005AB81BC8142
:1039C0009F964D905D906D907C90D297480C591CBD
:1039D0006A1C7B1C8D010D5B1F4FF80140825182D8
:1039E00062827382D3962D913D914D915C91D697D1
:1039F000F0914105E09142058091430589839091C2
:103A000044059A83211531054105510519F42F2FDD
:103A10003E2FAC012B803C80A7E42A0E311CA8EE7F
:103A2000B3E00E94AF32460E571E681E791ED101C8
:103A30004D925D926D927C921397CB80DC80BFE3B8
:103A4000CB0ED11C8091390590913A05A0913B0590
:103A5000B0913C05880E991EAA1EBB1EA8EEB3E0CD
:103A60002F2F3E2F49815A810E94AF32860E971E1A
:103A7000A81EB91EF60180829182A282B38281E0E3
:103A800095E00E94561A892B31F069E77EE08AE3BF
:103A900094E00E944A1681E095E00E94561A892B14
:103AA00051F0AB81BC819B966D917D918D919C91E4
:103AB0009E970E944E1C81E095E00E94561A892B29
:103AC00031F06CE57EE08AE394E00E944A1681E0E2
:103AD00095E00E94561A892B41F0EB81FC8167A585
:103AE00070A981A992A90E944E1C81E095E00E94D4
:103AF000561A892B31F065E47EE08AE394E00E9457
:103B00004A1681E095E00E94561A892B91F0EB81CC
:103B1000FC8187A190A5A1A5B2A583A494A4A5A486
:103B2000B6A4BC01CD01681979098A099B090E94D4
:103B30004E1C81E095E00E94561A892B31F065E217
:103B40007EE08AE394E00E944A1681E095E00E94BC
:103B5000561A892B91F0EB81FC8187A190A5A1A534
:103B6000B2A587A490A8A1A8B2A8BC01CD016819EC
:103B700079098A099B090E944E1C81E095E00E9408
:103B8000561A892B31F06DE07EE08AE394E00E94C2
:103B90004A1681E095E00E94561A892B39F0D60129
:103BA0006D917D918D919C910E944E1CEB81FC81C9
:103BB00087A190A5A1A5B2A543A554A565A576A505
:103BC000841B950BA60BB70B4091390550913A0514
:103BD00060913B0570913C05481759076A077B07C0
:103BE00008F09CC281E095E00E94561A892B31F0C2
:103BF00069EC7DE08AE394E00E944A1681E095E05A
:103C00000E94561A892B41F06B817C816E5F7F4F39
:103C10008AE394E00E94191781E095E00E94561A09
:103C2000892B31F066EC7DE08AE394E00E944A162D
:103C300081E095E00E94561A892B31F0AB81BC815E
:103C400052968C910E946A1CF70180819181DC015F
:103C5000ED91FC910084F185E02D0995892B09F403
:103C60006AC1F70180819181DC01ED91FC910084B2
:103C7000F185E02D0995892B09F450C2EB81FC8177
:103C800016A1103118F48289181728F08B819C81B5
:103C90000E94E410E6CFD7018D919C91DC01ED915B
:103CA000FC910284F385E02D0995EB81FC81E10F05
:103CB000F11D868B81E095E00E94561A892B31F028
:103CC00064EC7DE08AE394E00E944A1681E095E08E
:103CD0000E94561A892B39F06AE070E0EB81FC8172
:103CE00086A10E94611C81E095E00E94561A892BF2
:103CF00031F062EC7DE08AE394E00E944A16AB81E9
:103D0000BC8196968C919697FD01E80FF11D8689EE
:103D100090ED980F9A3020F08F7D8154863080F49A
:103D200081E095E00E94561A892B51F0EB81FC81CD
:103D300086A1E80FF11D66898AE394E00E9443168C
:103D400081E095E00E94561A892B31F06AE673E013
:103D50008AE394E00E94191781E095E00E94561AC8
:103D6000892B69F0AB81BC8196968C919697FD0169
:103D7000E80FF11D60E170E086890E94611C81E01E
:103D800095E00E94561A892B31F06AE673E08AE3C7
:103D900094E00E94191781E095E00E94561A892B41
:103DA00051F0EB81FC8186A1E80FF11D6AE070E023
:103DB00086890E94611CAB81BC8152969C9152976E
:103DC000915096968C919697811106C056962C919B
:103DD000223009F05BCFA9C2981319C0EB81FC8196
:103DE000E90FF11D9689933051F18B819C810E94DE
:103DF000E41081E095E00E94561A892B09F431CF36
:103E000061E273E08AE394E00E94F5162ACF9817E6
:103E100060F3803150F78917A0F48F5FEB81FC814C
:103E200086A381E095E00E94561A892B09F419CFE8
:103E300065EC71E08AE394E00E94191712CF80319B
:103E4000A0F681E095E00E94561A892B31F061E2DC
:103E500073E08AE394E00E94F5160B811C810A5EF0
:103E60001F4F81E095E00E94561A892B31F062E9DC
:103E70007DE08AE394E00E944A1681E095E00E948A
:103E8000561A892B41F06B817C816E5F7F4F8AE3EC
:103E900094E00E94F516AB81BC81ED91FC911197E5
:103EA0000190F081E02DB801CD0109956B017C01F5
:103EB00081E095E00E94561A892B31F06FE67DE093
:103EC0008AE394E00E944A1681E095E00E94561A27
:103ED000892B21F0C701B6010E944E1CC114D104E8
:103EE000E104F10489F0EBEEF4E08FEF94E041910E
:103EF000519161917191C416D506E606F70609F451
:103F000017C28E179F0799F760E47DE08AE394E07B
:103F10000E944A16C701B6010E944E1CEB81FC812B
:103F2000E55BFF4FC082D182E282F3828B819C816C
:103F30000E94E410F3C0EB81FC81C7A0D0A4E1A4EF
:103F4000F2A483A494A4A5A4B6A42601370148181A
:103F500059086A087B0823A934A945A956A921153F
:103F600031054105510541F420914105309142054B
:103F70004091430550914405A8EEB3E00E94AF3252
:103F8000641575058605970528F089288A288B28E9
:103F900009F0C4C0F10180819181A281B381C8166A
:103FA000D906EA06FB0658F4EB81FC8187A590A9A7
:103FB000A1A9B2A9892B8A2B8B2B09F096C165EF99
:103FC0007CE08AE394E00E944A16AB81BC819B9618
:103FD0000D911D912D913C919E9701151105210583
:103FE000310509F4E4C097968D919D910D90BC9197
:103FF000A02DBC01CD01601B710B820B930B28EE31
:1040000033E040E050E00E948D32BA01A9012AE07D
:1040100030E08AE394E00E94CC1668EE7CE08AE30C
:1040200094E00E944A1660ED7CE08AE394E00E94EE
:104030004A16EB81FC8107A510A921A932A9011517
:1040400011052105310509F4B5C087A190A5A1A5E9
:10405000B2A5BC01CD01601B710B820B930B28EE46
:1040600033E040E050E00E948D32BA01A9012AE01D
:1040700030E08AE394E00E94CC1663EC7CE08AE3B3
:1040800094E00E944A1662EB7CE08AE394E00E948E
:104090004A160E94D3270E94133420E030E04AE7FA
:1040A00054E40E94723320E030E040E752E40E9482
:1040B00072336B017C014B015C019B01AC010E94DE
:1040C0003735882309F479C06CE673E08AE394E01D
:1040D0000E946E168AE394E00E94DF1681E095E06C
:1040E0000E94561A892B31F066E87CE08AE394E05E
:1040F0000E940717AB81BC8155966C9181E06827BF
:10410000809145050E94C926EB81FC8187A190A57D
:10411000A1A5B2A587A790ABA1ABB2AB81E095E01A
:104120000E94561A892B31F068E773E08AE394E025
:104130000E94191781E095E00E94561A892B51F0D0
:10414000EB81FC81E55BFF4F60817181828193810E
:104150000E944E1C81E095E00E94561A892B31F096
:104160006CEF7DE08AE394E00E944A1681E095E0DE
:104170000E94561A892B09F4E8C00E94D3270F9099
:104180000F900F900F90DF91CF911F910F91FF90A3
:10419000EF90DF90CF90BF90AF909F908F907F90E7
:1041A0006F905F904F903F902F900C944E1C62EE5A
:1041B0007CE035CF6DEB7CE062CF26013701E894DF
:1041C00077F82FEF3FEF4FE75FE7C301B2010E949F
:1041D000373581110DC02FEF3FEF4FE75FE7C30188
:1041E000B2010E946D3318161CF460E773E06ECFC5
:1041F0002FEF3FEF4FE75FE4C701B6010E94C534E0
:1042000018161CF464E773E061CF2FEF3FEF4FE720
:104210005FECC701B6010E946D3387FDF3CF20E04C
:1042200030E0A901C701B6010E946D3387FF0BC0C2
:104230006DE28AE394E00E94431646015701B7FA03
:10424000B094B7F8B0942AE037ED43EA5BE3C501D8
:10425000B4010E9401334B015C010E94E4336B0105
:104260007C010E9413349B01AC01C501B4010E9482
:1042700000334B015C012AE0B701A6018AE394E018
:104280000E9483166EE28AE394E00E94431620E0C7
:1042900030E040E251E4C501B4010E94CA344B0150
:1042A0005C010E94E4336B017C014AE050E08AE348
:1042B00094E00E94D916B60180E090E00E94133489
:1042C0009B01AC01C501B4010E94003320E030E045
:1042D00040E251E40E94CA340E94E4334AE050E0D4
:1042E0008AE394E00E94D916F5CEF801808191818D
:1042F000A281B381C816D906EA06FB0608F40ECFE0
:1043000081E095E00E94561A892B31F063E17DE04F
:104310008AE394E00E940717AB81BC8155966C91AB
:10432000809145050E94C926F9CE911176CD56CDD2
:10433000EB81FC8187A190A5A1A5B2A583A794A735
:10434000A5A7B6A76EE57DE0E1CD0F900F900F9089
:104350000F90DF91CF911F910F91FF90EF90DF9021
:10436000CF90BF90AF909F908F907F906F905F9015
:104370004F903F902F900895CF92DF92EF92FF924F
:104380000F931F93CF93DF936B01770FEE08FF0816
:10439000F7FE1BC0EC016DE20E9443168C0144271E
:1043A0005527BA014C195D096E097F092AE0CE0133
:1043B0000E948316800F911FDF91CF911F910F9163
:1043C000FF90EF90DF90CF9008952AE0B701A6010B
:1043D000DF91CF911F910F91FF90EF90DF90CF90E1
:1043E0000C9483160F931F93CF93DF93EC010E94DD
:1043F000BC218C01CE010E94DF16800F911FDF913E
:10440000CF911F910F910895EF92FF920F931F93F9
:10441000CF93DF93EC01F62EE72E81E095E00E942A
:10442000561A8E010E5E1F4F892B79F06DE57CE0E8
:104430008AE394E00E940717B801CE010E942E146F
:104440006F2D7E2DCE010E942E1488859985892B93
:1044500071F46F2D7E2DCE010E942014AC01B801A5
:104460008F2D9E2D0E948E35892B09F440C081E04E
:1044700095E00E94561A892B79F065E37CE08AE387
:1044800094E00E940717B801CE010E942E146F2DF0
:104490007E2DCE010E942E1461E088810E94F826B4
:1044A0001B821A821D821C821F821E821986188618
:1044B000EF2DFE2DD801CE01CA96219131912D9379
:1044C0003D93A817B907C9F781E090E09F838E83D9
:1044D0002A893B891216130614F49B838A838A85E2
:1044E0009B85AC85BD858E879F87A88BB98BDF9117
:1044F000CF911F910F91FF90EF900895CF92DF928F
:10450000EF92FF926B017C01E0914A04F0914B0421
:1045100082E08083C11481EED806E104F104B1F099
:1045200060E079E08DE390E0A70196010E948D3272
:10453000DA01C9010197A109B109B695A795979527
:1045400087959C01211580E13807B8F0E0914A0475
:10455000F0914B04108260E874E88EE190E0A701CE
:1045600096010E948D32DA01C9010197A109B109B2
:10457000B695A795979587959C01E0914604F09193
:1045800047043083E0914804F0914904208310925D
:104590005204E0914E04F0914F0486E08083E09154
:1045A0004C04F0914D04808180618083E0914C0443
:1045B000F0914D04808188608083E0914C04F091FB
:1045C0004D04808180688083E0914C04F0914D041B
:1045D00080818F7D8083FF90EF90DF90CF90089552
:1045E000CF93DF93EC0181E095E00E94561A892B6E
:1045F00031F06CE17CE08AE394E00E940717FE0151
:10460000B79688E1DF011D928A95E9F778961182C5
:104610001082CD5BDF4F19821882DF91CF91089510
:10462000833081F028F4813099F08230A1F0089530
:104630008730A9F08830B9F08430D1F480918000BF
:104640008F7D03C0809180008F77809380000895D4
:1046500084B58F7702C084B58F7D84BD0895809125
:10466000B0008F7703C08091B0008F7D8093B00041
:1046700008953FB7F89480917C0590917D05A091B5
:104680007E05B0917F0526B5A89B05C02F3F19F088
:104690000196A11DB11D3FBFBA2FA92F982F8827C2
:1046A000820F911DA11DB11DBC01CD0142E0660F1D
:1046B000771F881F991F4A95D1F70895CF92DF92EF
:1046C000EF92FF921F93CF93DF93EC016A017B017E
:1046D000122F81E095E00E94561A892B31F065E394
:1046E00070E18AE394E00E940717E881F981019064
:1046F000F081E02DB701A601CE010995E881F9818D
:104700000190F081E02D4DEF50E160E070E0CE01CE
:10471000099581E095E00E94561A892B31F06DE1F0
:1047200070E18AE394E00E940717888D998DDC017F
:10473000ED91FC910084F185E02D0995892B51F0D4
:10474000888D998DDC01ED91FC910284F385E02D3B
:104750000995EBCFCE010E94F022112331F0CD5B01
:10476000DF4F81E090E099838883DF91CF911F91A3
:10477000FF90EF90DF90CF900895CF93DF93EC01FF
:104780009A01AB011B8E1A8E198E188E1F8A1E8AF3
:1047900060E079E08DE390E00E945035F90124302B
:1047A000310518F0C901039702C081E090E09D8FA8
:1047B0008C8F6C85663108F06AC0C9019695879523
:1047C0008431910510F0439702C081E090E09F8B07
:1047D0008E8B369718F0C901059702C081E090E0F2
:1047E000998F888FC901880F991F280F391F369517
:1047F0002795369527952D30310518F02C50310925
:1048000002C021E030E03B8F2A8F30916800683091
:1048100058F021E06E3008F420E091E0892F01C0CB
:10482000880F2A95EAF701C084E0832B8093680003
:104830009C85983038F09E3040F0963148F020E06A
:1048400030E008C02DE630E005C02BE630E002C0C5
:104850002CE630E03C8B2B8B983030F481E001C0AB
:10486000880F9A95EAF70EC0292F30E09E3018F491
:104870002850310902C02E50310981E001C0880F53
:104880002A95EAF78D8B8C8D9D8D0197F1F7CE01DE
:10489000DF91CF910C94ED17CF92DF92EF92FF92C0
:1048A0000F93CF93DF93EC0169017A01FB018081C3
:1048B000882351F0888D998D0E94191763EB71E060
:1048C000888D998D0E941917202FB701A601CE015E
:1048D0000E945E2363E973E0888D998DDF91CF910B
:1048E0000F91FF90EF90DF90CF900C941917EF92FB
:1048F000FF920F93CF93DF93EC017B01E881F98165
:104900000084F185E02D40E050E0BA0109952DEEDC
:1049100032E140E050E000E0B701CE010E944C24BB
:10492000DF91CF910F91FF90EF900895CF92DF929A
:10493000EF92FF92CF93DF936B017C0197FF15C03D
:104940006DE28AE394E00E944316EC014427552768
:10495000BA014C195D096E097F092AE08AE394E0E7
:104960000E948316C80FD91F08C02AE0AB01BC0102
:104970008AE394E00E948316EC018AE394E00E94AB
:10498000DF168C0F9D1FDF91CF91FF90EF90DF908E
:10499000CF900895FF920F931F93CF93DF93EC0175
:1049A00081E095E00E94561A892B31F066E973E0A8
:1049B0008AE394E00E941917A79618E1FC2E0D2FA8
:1049C00081E095E00E94561A892B41F06881062EFD
:1049D000000C770B8AE394E00E94BC2181E095E013
:1049E0000E94561A892B31F065EC71E08AE394E05D
:1049F0000E94191789918A3031F08D3021F01150C1
:104A0000F9F6C0E001C0C1E081E095E00E94561ACD
:104A1000892B21F08AE394E00E94DF16CC23C1F0B9
:104A200081E095E00E94561A892B31F063E97FE01E
:104A30008AE394E00E944A1681E095E00E94561AAB
:104A4000892B31F06F2D702F8AE394E00E94F516C8
:104A50008C2FDF91CF911F910F91FF900895CF93ED
:104A6000DF93EC0181E095E00E94561A892B31F02A
:104A700062E87FE08AE394E00E9407176DE77FE039
:104A8000888D998D0E94071765E77FE0888D998D45
:104A90000E94071768E67FE0888D998D0E940717AE
:104AA0006DE57FE0888D998D0E9407176FE47FE0A8
:104AB000888D998D0E9407176BE37FE0888D998D13
:104AC0000E9407176FE27FE0888D998D0E9407177B
:104AD0006CE17FE0888D998D0E94071761E273E099
:104AE000888D998D0E94F51660E572E0CE01DF9108
:104AF000CF910C9477245F926F927F928F929F92C6
:104B0000AF92BF92CF92DF92EF92FF920F931F93DB
:104B1000CF93DF93CDB7DEB7C056D1090FB6F89467
:104B2000DEBF0FBECDBF3C0181E095E00E94561A6A
:104B3000892B31F067E07FE08AE394E00E94071759
:104B40008FEF9FEFF301EF5BFF4F9183808364EF63
:104B50007EE0F301808D918D0E944A1681E095E000
:104B60000E94371040E150E0BC01F301808D918D2F
:104B70000E94D9166CEE7EE0F301808D918D0E942B
:104B80004A164AE050E067E770E0F301808D918DAE
:104B90000E94E31601E010E080E3582ECE0101965A
:104BA0007C015E0191E5A90EB11C6E01E1E3CE0E20
:104BB000D11C99EC892E92E0992EF701852D119246
:104BC0008A95E9F79501A601B80181E095E00E9478
:104BD000711ABF92AF92DF92CF921F930F939F9261
:104BE0008F92FF92EF920E94B435B701F301808D4E
:104BF000918D0E94F5160F5F1F4F0FB6F894DEBF20
:104C00000FBECDBF02311105C1F6F301808D918D2C
:104C10000E94DF1623E439E040E050E000E06BEA58
:104C200073E0C3010E944C24C05ADF4F0FB6F894C2
:104C3000DEBF0FBECDBFDF91CF911F910F91FF90CF
:104C4000EF90DF90CF90BF90AF909F908F907F902C
:104C50006F905F900895EF92FF920F931F93CF9301
:104C6000DF93EC0181E095E00E94561A892B31F028
:104C700067ED7EE08AE394E00E94071768EC7EE02F
:104C8000888D998D0E944A166091D9047091DA043A
:104C900040E150E0888D998D0E94D91660EC7EE04D
:104CA000888D998D0E944A164AE050E06AE270E0D1
:104CB000888D998D0E94E31687EDE82E84E0F82E0A
:104CC00001E010E0F70184899589A689B789892BCD
:104CD0008A2B8B2BE1F0B801888D998D0E94BC2125
:104CE0006DEB7EE0888D998D0E944A16F70144890C
:104CF0005589668977892AE030E0888D998D0E94F0
:104D0000CC1661E273E0888D998D0E94F5160F5FD5
:104D10001F4FF4E0EF0EF11C0630110599F661E229
:104D200073E0888D998D0E94F51660E572E0CE01E2
:104D3000DF91CF911F910F91FF90EF900C9477240A
:104D4000CF93DF93282F30E0F901E755F14F84919D
:104D5000F901EF52F04FD491F901E354F04FC491AF
:104D6000CC2391F081110E941023EC2FF0E0EE0F84
:104D7000FF1FE755F04FA591B491EC91ED2381E031
:104D800090E021F480E002C080E090E0DF91CF91DC
:104D900008951F93CF93DF93282F30E0F901E75553
:104DA000F14F8491F901EF52F04FD491F901E3549E
:104DB000F04FC491CC23C1F0162F81110E94102313
:104DC000EC2FF0E0EE0FFF1FED54F04FA591B491E2
:104DD0009FB7F894111104C08C91D095D82302C0CC
:104DE000EC91DE2BDC939FBFDF91CF911F91089553
:104DF000CF93DF9390E0FC01EF52F04F2491FC0140
:104E0000E354F04F8491882361F190E0880F991F5B
:104E1000FC01E156F14FC591D491FC01ED54F04FE6
:104E2000A591B491611109C09FB7F894888120952C
:104E300082238883EC912E230BC0623061F49FB7EC
:104E4000F8948881322F309583238883EC912E2B20
:104E50002C939FBF06C08FB7F894E8812E2B288330
:104E60008FBFDF91CF9108950F931F93CF93DF935F
:104E7000EC01162F042F1B821A8288EE93E0A0E02B
:104E8000B0E08C839D83AE83BF8387E691E09983F6
:104E900088831F8A1E8A198E188E1B8E1A8E1D8E6D
:104EA0001C8E6E8D6E7F6D7F6E8F6695617081E05A
:104EB0006827842F0E94C92661E0802F0E94F8266F
:104EC000802F90E0FC01EF52F04FE491E88BFC0161
:104ED000E354F04FE491F0E0EE0FFF1FED54F04F7C
:104EE000859194919A8B898B60E0812F0E94F8269E
:104EF0008E8D81FD04C061E0812F0E94C9261C8730
:104F0000812F90E0FC01EF52F04FE491ED87FC011E
:104F1000E354F04FE491F0E0EE0FFF1FE755F04F40
:104F2000859194919F878E87DF91CF911F910F91EB
:104F300008958F929F92AF92BF92CF92DF92EF929D
:104F4000FF926B017C010E9439234B015C01C1146B
:104F5000D104E104F104F1F00E943923DC01CB011A
:104F600088199909AA09BB09883E9340A105B10592
:104F700070F321E0C21AD108E108F10888EE880E2A
:104F800083E0981EA11CB11CC114D104E104F104FA
:104F900019F7DDCFFF90EF90DF90CF90BF90AF90EB
:104FA0009F908F9008952FB7F89460917805709135
:104FB000790580917A0590917B052FBF08958F9296
:104FC0009F92AF92BF92EF92FF920F931F93CF9356
:104FD000DF93CDB7DEB7A8970FB6F894DEBF0FBE4C
:104FE000CDBF8C0181E095E00E94561A892B31F0EB
:104FF00069EA70E18AE394E00E944A1681E095E054
:105000000E94561A892B39F0B801645E7F4F8AE3FB
:1050100094E00E94F516E0908005F090810581E013
:10502000E816F104C9F4D80193964D915D916D9104
:105030007C9196978091460590914705A0914805EF
:10504000B0914905481759076A077B0729F460E0C2
:10505000809176050E94C9260E94D327F801878C8B
:1050600090A0A1A0B2A0681979098A099B0928EE2D
:1050700033E040E050E00E948D32F80183A194A11A
:10508000A5A1B6A182179307A407B50718F0EF28CA
:1050900009F046C081E095E00E94561A892B31F054
:1050A00069E870E18AE394E00E94071766E670E120
:1050B0008AE394E00E94071762E570E1D8015896F0
:1050C0008D919C9159970E940717F801EB5BFF4F58
:1050D00080819181BE016F5F7F4F28E2FB011192B9
:1050E0002A95E9F70E94042210928105109280050A
:1050F000C8010E94F022D801ED91FC910084F18555
:10510000E02D40E050E0BA01C801099581E095E04A
:105110000E94561A892B21F084EC93E00E94B5126C
:10512000D801ED91FC910680F781E02D40E060E030
:1051300070E0C801099581E095E00E94561A892B1C
:1051400031F06BE970E18AE394E00E940717A896BA
:105150000FB6F894DEBF0FBECDBFDF91CF911F9188
:105160000F91FF90EF90BF90AF909F908F90089518
:10517000CF92DF92EF92FF92CF93DF93EC016A011F
:105180007B018BA19CA1ADA1BEA184179507A607A9
:10519000B70751F066E070E18AE394E00E944A1696
:1051A000C701B6010E944E1CCBA2DCA2EDA2FEA25A
:1051B00081E090E090938105809380050E94D32741
:1051C0006F8F78A389A39AA3DF91CF91FF90EF907F
:1051D000DF90CF900895CF93DF93EC0142E050E051
:1051E00060E070E00E94B828CE010E94F0226CEFCF
:1051F00072E0CE014C960E94A435892B19F165EE20
:105200007FE0888D998D0E944A1665EA72E0888D4C
:10521000998D0E94191762EB71E0888D998D0E941B
:10522000191760ED73E0888D998D0E94F516888DB1
:10523000998D0E94DF1661E273E0CE01DF91CF917C
:105240000C9477244DEE52E160E070E020E0CE0156
:105250000E945E23DF91CF9108951F920F920FB6A7
:105260000F9211242F933F938F939F93AF93BF93EC
:105270008091780590917905A0917A05B0917B0590
:105280003091820523E0230F2D3720F40196A11DD4
:10529000B11D05C026E8230F0296A11DB11D209364
:1052A00082058093780590937905A0937A05B09351
:1052B0007B0580917C0590917D05A0917E05B09144
:1052C0007F050196A11DB11D80937C0590937D05FE
:1052D000A0937E05B0937F05BF91AF919F918F9171
:1052E0003F912F910F900FBE0F901F901895CF9365
:1052F000DF93CDB7DEB7C558D1090FB6F894DEBF3E
:105300000FBECDBF789484B5826084BD84B58160C2
:1053100084BD85B5826085BD85B5816085BD809180
:105320006E00816080936E001092810080918100F8
:1053300082608093810080918100816080938100F0
:10534000809180008160809380008091B1008460B2
:105350008093B1008091B00081608093B000809113
:105360007A00846080937A0080917A0082608093D2
:105370007A0080917A00816080937A0080917A002F
:10538000806880937A001092C10060E071EE80E046
:1053900090E00E947E226FE070E080E090E00E944A
:1053A000992761EE78E08AE394E00E9407178AE784
:1053B00092E00E94B5126EEB76E08AE394E00E94E0
:1053C000071764EC75E08AE394E00E94071771E028
:1053D000E72E75E0F72E00E213E0C8010E94673265
:1053E000D7018D937D010F5F1F4F0739B3E01B0776
:1053F000A1F780E293E0909302058093010581E09C
:1054000095E00E948C19811106C062EA75E08AE37A
:1054100094E00E94071762E975E08AE394E00E9435
:105420004A1660E273E08AE394E00E94F22167E7A3
:1054300075E08AE394E00E944A1665E075E08AE32D
:1054400094E00E94191762E972E08AE394E00E94F6
:10545000F51662E675E08AE394E00E944A164AE097
:1054600050E067E770E08AE394E00E94E31667E5A6
:1054700075E08AE394E00E944A164AE050E067E74C
:1054800070E08AE394E00E94E31663E475E08AE347
:1054900094E00E9407176EE976E08AE394E00E94A8
:1054A0004A1665E075E08AE394E00E9419176CE8FB
:1054B00076E08AE394E00E944A1665E175E08AE3AB
:1054C00094E00E94191761E876E08AE394E00E9474
:1054D0004A16609103057091040540E150E08AE3AB
:1054E00094E00E94E31681E095E00E948C198111FE
:1054F00024C062E476E08AE394E00E94071787E71D
:1055000090E00E9409308C010E94A71B40E250E00D
:1055100064E972E0C80144960E94503280E293E050
:10552000F80191838083C8010E94D11968E176E077
:105530008AE394E00E944A1608C06FEE75E08AE3A1
:1055400094E00E944A1601E015E0B8016C5E7F4FBE
:105550008AE394E00E94191762E972E08AE394E01A
:105560000E94F5166AED75E08AE394E00E94071741
:105570008AE394E00E943C1560916805709169058A
:1055800080916A0590916B050E947E226FE070E029
:1055900080E090E00E9499276FEA78E08AE394E047
:1055A0000E944A16609168057091690580916A05AC
:1055B00090916B050E9496246DE978E08AE394E06F
:1055C0000E944A1665E175E08AE394E00E9419178B
:1055D00062E978E08AE394E00E944A164AE050E0EB
:1055E00067E770E08AE394E00E94E31667E778E0FB
:1055F0008AE394E00E944A1665EA72E08AE394E046
:105600000E94191764E778E08AE394E00E944A1642
:1056100063EB72E08AE394E00E94F51662E0809109
:105620006C050E94F82680916C050E94A0268C01D2
:1056300061E678E08AE394E00E944A16B8018AE3C2
:1056400094E00E94F221012B61F460E478E08AE3A7
:1056500094E00E94071781E090E090934D058093BD
:105660004C058AE394E00E94DF16EE24E394F12CCB
:1056700050E3D52E8E010F5F1F4F4E01F2E78F0EC4
:10568000911C5E0122E5A20EB11C69EC662E62E05F
:10569000762ED801ED2D1D92EA95E9F79401A5012A
:1056A000B70181E095E00E94711A9F928F92BF929C
:1056B000AF92FF92EF927F926F921F930F930E948F
:1056C000B435B8018AE394E00E94F516FFEFEF1AB3
:1056D000FF0A0FB6F894DEBF0FBECDBF32E1E3166E
:1056E000F104B9F68AE394E00E94DF1681E095E0C8
:1056F0000E94561A892B21F087ED92E00E94B51284
:105700008AE390E00E9409307C01809160059091CD
:105710006105D70111969C938E9313961C921E924D
:10572000129715961C921E92149717961C921E9211
:10573000169719961C921E9218970E94D327F7016C
:10574000628773878487958716861786108A118AE1
:10575000729688E2DF011D928A95E9F7F092F503CF
:10576000E092F4038FE190E00E9409307C014091C7
:105770006405609162050E943427F092EB03E09289
:10578000EA038FE190E00E9409307C0140916005BE
:10579000609166050E943427F092E903E092E803E5
:1057A000C8010E94CD1081E095E00E94561A892B15
:1057B00021F08BEE92E00E94B5126EE475E0CE010E
:1057C00003960E94A435892BD1F1C8010E94B6101E
:1057D00081E095E00E94561A892B21F08BEE92E031
:1057E0000E94B5126EE475E0CE0103960E94A435C6
:1057F000892B41F481E590E00E9409307C010E94F0
:10580000B61024C0C8010E94A01081E095E00E945B
:10581000561A892B21F08BEE92E00E94B5126EE4AD
:1058200075E0CE0103960E94A435892B41F481E5F1
:1058300090E00E9409307C010E94A01007C081E521
:1058400090E00E9409307C010E94CD103701F09257
:10585000F303E092F203F701E15BFF4F8091E8036D
:105860009091E9039183808387E490E00E9409305E
:105870007C018091F4039091F503E4E15E2EF70141
:105880003296DF01252D1D922A95E9F7AA24AA94C4
:10589000BA2CD7015796BC92AE92569723E2822E2D
:1058A00021E0922E11969C928E922AE334E0599632
:1058B0003C932E9358975B967C926E925A97F70181
:1058C000178E10A211A212A293961D921D921D92E4
:1058D0001C92969738E1D32EB796DF012D2D1D929D
:1058E0002A95E9F77896118210823296B182A082C9
:1058F00032961182108232969183808343E050E089
:105900006CEF72E0C7014C960E945032F092EF03A8
:10591000E092EE0387E490E00E9409307C018091E0
:10592000F4039091F5032091F2033091F303409139
:10593000EA035091EB03F7013296DF011D925A946E
:10594000E9F7F701B78AA68A91828082518F408F4A
:10595000338F228F178E10A211A212A213A214A2AB
:1059600015A216A2B796DF011D92DA94E9F7789690
:10597000118210823296B182A082329611821082F8
:1059800032969183808343E050E06DEF71E0C70170
:105990004C960E945032F092ED03E092EC0386E0C8
:1059A00090E00E940930FC018091F4039091F5038E
:1059B0002091F2033091F30311821082338322830A
:1059C00095838483F093F103E093F00381E095E005
:1059D0000E94561A892B21F08FEF92E00E94B51297
:1059E000E090F003F090F10361E0809176050E9471
:1059F000F82680914A0590914B05F70191838083A9
:105A000065ED76E08AE394E00E944A16D7016D9135
:105A10007C918AE394E00E94F221F70160818091F9
:105A200076050E94C9268091F4039091F50328E23F
:105A3000D8011D922A95E9F726ED31E03A832983B2
:105A40002EE130E03C832B83B8010E940422409178
:105A50006E0550916F056091700570917105809190
:105A6000EA039091EB030E94BD2364EE77E08AE3A2
:105A700094E00E94071768E877E08AE394E00E94C8
:105A8000071767EDA62E64E0B62E7CEBE72E72E0DA
:105A9000F72EC7010E946732F50181935F01FFEF86
:105AA000EF1AFF0A26EEE21622E0F20691F78CEBDF
:105AB00092E09093D8048093D70487ED94E00E94FD
:105AC0001E18811106C066E677E08AE394E00E9422
:105AD000071766E577E08AE394E00E944A166CEBCC
