:100000000C944A060C9472060C9472060C94ED271C
:100010000C94ED270C94ED270C9472060C94752625
:100020000C9472060C9472060C9472060C94720670
:100030000C9472060C9472060C9472060C94720660
:100040000C94BA290C9472060C94BB270C94952737
:100050000C9472060C9472060C9472060C94720640
:100060000C9472060C9472061D0932093809430972
:100070004D095409580979097D098109030F0E0FAB
:10008000190F240F2F0F4C0F530F5A0F5F0F6A0FCA
:10009000750F800F870F8E0F990F8B13A413BD134D
:1000A000D613F1130C140F1412143A1455147014BF
:1000B0008B148E1494149C1443616C6C696E6720CD
:1000C000454550524F4D2E757064617465207769B7
:1000D00074682070726F782D73746174653A2000B3
:1000E000292000465245452052414D202800616498
:1000F00064546167282920737563636573730061B5
:1001000064645461672829206661696C65643A20DB
:1001100044757065006164645461672829206661D4
:10012000696C65643A2046756C6C00616464546166
:100130006728292061626F727465643A20496E767F
:10014000616C696420636F64650061646454616715
:10015000282920006661696C65642C207461672021
:100160006973206475706C696361746500666169A8
:100170006C65642C20746167206C697374206973EA
:100180002066756C6C0061626F727465642C206906
:100190006E76616C6964207461672D696420737484
:1001A00072696E670073756363657373004164649D
:1001B000546167282920726573756C743A20005465
:1001C000616720656E74657265643A200064656CD1
:1001D000657465546167496E64657828293A200022
:1001E00044656C6574655461672829207265737570
:1001F0006C743A200064656C6574655461672829E5
:100200002061626F727465640064656C6574654139
:100210006C6C5461677328290064656C6574654172
:100220006C6C5461677328292061626F7274656415
:100230000075706461746553657474696E6728290C
:100240002063616C6C20746F20532E757064617430
:100250006553657474696E672829206661696C65E9
:10026000640075706461746553657474696E6728A1
:10027000292061626F727465640046726565204D65
:10028000656D6F72793A20003A200053746F726185
:1002900067653A3A4C6F6164282920636865636B2F
:1002A00073756D206D69736D617463680053657457
:1002B00074696E67733A3A4C6F61642829207573CC
:1002C000696E672073746F726564207365747469F6
:1002D0006E677320270053657474696E67733A3ACA
:1002E0004C6F61642829207573696E6720646566A8
:1002F00061756C742073657474696E677320270070
:1003000053657474696E67733A3A4C6F6164282957
:100310002063686B736D206D69736D617463682011
:100320006F72206661696C736166650053657474F1
:10033000696E67733A3A4C6F616428292063686B71
:10034000736D206D69736D61746368004661696CDB
:100350007361666520656E61626C65642C20736BE9
:10036000697070696E672073746F7265642073655D
:100370007474696E67730053657474696E67733A59
:100380003A4C6F6164282920424547494E004C6F22
:100390006164696E67207265616465723A20004C21
:1003A0006F6164696E67207265616465723A2000EE
:1003B00053657474696E67206F75747074207377F9
:1003C00069746368207065722070726F782D737421
:1003D0006174653A20002C2073776974636820701B
:1003E000696E20002C2070726F78696D69747920B5
:1003F000005374617274696E6720436F6E74726F1C
:100400006C6C65722077697468200053746F726138
:1004100067653A3A4C6F6164282920636865636BAD
:1004200073756D206D69736D6174636800546167E5
:10043000733A3A4C6F6164282920636865636B7373
:10044000756D206D69736D617463682C20637265CE
:100450006174696E67206E6577207461672D7365BE
:10046000740054616773206C6F61646564004D654E
:100470006E753A3A426567696E2829004C6F674C81
:100480006576656C28293A2000446562756720709E
:10049000696E207374617475733A2000496E6974D3
:1004A00069616C697A656420485720736572696177
:1004B0006C20706F72742040200027206F662073BC
:1004C000697A65200027207769746820636865630E
:1004D0006B73756D20273078004C6F616465642004
:1004E00053657474696E67732027002C2000426F77
:1004F0006F74696E6720524649442070726F786944
:100500006D6974792073656E736F722C2000496E6B
:10051000697469616C697A656420485720736572F3
:1005200069616C20706F727420402035373630302E
:1005300000524649442070726F78696D6974792061
:1005400073656E736F72207072652D626F6F7400C9
:1005500070726F78696D6974795374617465436FF3
:100560006E74726F6C6C65722829206E6F20636FD9
:100570006E646974696F6E206D65740050415353E9
:100580000070726F78696D69747953746174654332
:100590006F6E74726F6C6C657228292046524553D9
:1005A000480046524553480070726F78696D69740F
:1005B000795374617465436F6E74726F6C6C65729D
:1005C0002829204147494E47004147494E4700707E
:1005D000726F78696D6974795374617465436F6E75
:1005E00074726F6C6C657228292054494D454F55C3
:1005F000540054494D454F555400436F6E74726F0B
:100600006C6C6572207374617274757020677261AE
:10061000636520706572696F642074696D656F75BC
:10062000742C206E6F2074616720666F756E640095
:1006300054494D454F5554002A2A2A007461674C8D
:100640006173745265616454696D656F7574583176
:1006500030303028293A20006D735F72656164651F
:10066000725F6379636C655F746F74616C3A2000CC
:100670006D7353696E63654C617374526561646533
:1006800072506F7765724379636C6528293A200050
:100690006D7353696E63654C617374546167526521
:1006A000616428293A20006C6173745F726561642B
:1006B00065725F706F7765725F6379636C655F6D9C
:1006C000733A20006C6173745F7461675F72656177
:1006D000645F6D733A20002A2A2A2070726F78694D
:1006E0006D6974795374617465436F6E74726F6C65
:1006F0006C65722829006C6F675F6C6576656C00AD
:100700006C6F675F746F5F62740061646D696E5FC8
:10071000737461727475705F74696D656F75740060
:10072000746F6E655F6672657175656E6379007270
:100730006669645F626175640062745F62617564BA
:100740000068775F73657269616C5F6261756400F0
:1007500064656661756C745F72656164657200657D
:100760006E61626C655F64656275670070726F7858
:10077000696D6974795F73746174655F73746172B4
:100780007475700061646D696E5F74696D656F7515
:1007900074007265616465725F6379636C655F683C
:1007A0006967685F6475726174696F6E0072656114
:1007B0006465725F6379636C655F6C6F775F6475A6
:1007C000726174696F6E007461675F726561645F06
:1007D000736C6565705F696E74657276616C0074C8
:1007E00061675F6C6173745F726561645F74696D8A
:1007F000656F75740053656C65637465643A2000B9
:1008000043616C6C65642070726F636573735461CF
:1008100067446174612829206F6E206261736520CE
:1008200052656164657220636C61737300290052C4
:100830006561646572732028004C6F6164696E673E
:10084000207265616465723A200052444D3633303F
:10085000302074616720726561643A200052444D13
:100860003633303020707263732074616720696E94
:1008700070743A2000523739343145207461672052
:10088000726561643A20002C20636865636B737540
:100890006D2028646563293A20002C2069645F6C10
:1008A000656E3A20002C2069645F656E643A200012
:1008B00069645F626567696E3A2000523739343186
:1008C0004520707263732074616720696E70743A9A
:1008D0002000574C31323520726561643A20002C7B
:1008E00020636865636B73756D2028686578293AA5
:1008F00020002C2069645F6C656E3A20002C206912
:10090000645F656E643A200069645F626567696E62
:100910003A2000574C313235207072637320746175
:100920006720696E70743A2000DF07C707AD079231
:100930000784076C075F075007410739072F072017
:10094000070A070007F6062C2073697A6520005312
:10095000657474696E67732C2063686B736D2030E7
:10096000780000000000240027002A000000000892
:100970000002010000030407000000000000000066
:100980002E20002C2073697A652000546167732C37
:100990002063686B736D203078004E2F4100392E34
:1009A00020425420636F6D6D616E6400382E2052BA
:1009B00065737461727400372E204C6973742072F1
:1009C00065616465727300362E2053686F77206608
:1009D000726565206D656D6F727900352E205365E7
:1009E0007474696E677300342E2044656C65746599
:1009F00020616C6C207461677300332E2044656C39
:100A00006574652074616700322E2041646420742F
:100A1000616700312E204C69737420746167730024
:100A2000302E2045786974004D656E75003A2000BF
:100A3000000000002300260029000000000025001F
:100A400028002B000404040404040404020202022B
:100A50000202030303030303010204081020408081
:100A600001020408102001020408102052464944E3
:100A70002061646D696E20636F6E736F6C652C20EE
:100A800000456E746572696E672072756E206D6FB9
:100A90006465002073657474696E672072756E5F9B
:100AA0006D6F6465203D3E2030006379636C655254
:100AB0006561646572506F7765722829207365746B
:100AC00074696E6720706F776572204C4F57002CE9
:100AD00020757074696D6520006E657665720073AF
:100AE0002061676F002C206379636C656420006E61
:100AF0006576657200732061676F006379636C656A
:100B0000526561646572506F77657228292074613F
:100B100067207265616420006379636C655265616A
:100B2000646572506F7765722829207365747469E3
:100B30006E6720706F776572204849474800556E90
:100B4000617574686F72697A6564206F7220696E6E
:100B500076616C6964207461673A2000417574683D
:100B60006F72697A6564207461673A200054616726
:100B70002072736C742066726F6D2070726F636583
:100B800073735461674461746128293A20002070AE
:100B9000726F63657373546167282920726563659A
:100BA00069766564206275666665720029002800B2
:100BB0002C20005265616465723A3A706F6C6C5219
:100BC00065616465722829206E616D652C206C65F5
:100BD0006E3A2000524541444552204C4F4F502020
:100BE000454E4420006D735F7265616465725F639A
:100BF00079636C655F746F74616C3A20006D735338
:100C0000696E63654C617374526561646572506F9F
:100C10007765724379636C6528293A20006D7353B8
:100C2000696E63654C6173745461675265616428D1
:100C3000293A20006C6173745F7265616465725F4C
:100C4000706F7765725F6379636C655F6D733A206F
:100C5000006C6173745F7461675F726561645F6D7E
:100C6000733A2000524541444552204C4F4F50208A
:100C7000424547494E200053657474696E67733A64
:100C80003A73617665282920726573756C743A2011
:100C90000002923111241FBECFEFD8E0DEBFCDBFDE
:100CA00013E0A0E0B1E0E8E6F0E702C005900D92A5
:100CB000A63DB107D9F725E0A6EDB3E001C01D922E
:100CC000A937B207E1F716E0CAE4D6E004C02197DD
:100CD000FE010E940235C934D107C9F70E94042AD7
:100CE0000C9432380C940000EF92FF920F931F93F4
:100CF000CF93DF93CDB7DEB7E0970FB6F894DEBFA2
:100D00000FBECDBF7C018B014AE050E060E070E097
:100D1000C8010E94F932F701EF5BFF4F71836083D6
:100D20009B01215031092F30310560F59E012F5D67
:100D30003F4FAE014F5F5F4F80EC94E00E946A131B
:100D4000BE016F5F7F4FF701808D918D0E94FC2661
:100D500068E872E0F701808D918D0E94D826BE016F
:100D60006F5D7F4FF701808D918D0E9471272DEB74
:100D70003EE040E050E000E060E971E0C7010E9421
:100D8000741B0FC0F8018081803321F08D3011F089
:100D90008A3021F4C7010E94B41B03C0C7010E941E
:100DA000201CE0960FB6F894DEBF0FBECDBFDF91DA
:100DB000CF911F910F91FF90EF900895FC01B7968E
:100DC00028E1DF011D922A95E9F7789611821082B9
:100DD0003496118210820895AF92BF92CF92DF9223
:100DE000EF92FF920F931F93CF93DF93CDB7DEB7B0
:100DF000A1970FB6F894DEBF0FBECDBF8C015C018A
:100E000023E4A20EB11CD5018D919C91892B09F48C
:100E10005CC0F801828D938D0E946E20D8015A9695
:100E2000ED91FC915B9783AD94ADA5ADB6AD009708
:100E3000A105B10509F449C0BF93AF939F938F9368
:100E40008DEA91E09F938F937E01B9E1EB0EF11C47
:100E5000FF92EF920E947F3548E150E0B7017801A0
:100E6000E7E2EE0EF11CC7010E941F34F7010FB636
:100E7000F894DEBF0FBECDBF80E090E041919C01B1
:100E80002F5F3F4F41110EC0F801E80FF91F4AE0F4
:100E900047A3F801E20FF31F17A2F801FF96318371
:100EA000208304C0C9012831310541F7D8015A9681
:100EB0008D919C915B97FC0113AE14AE15AE16AEEE
:100EC0000E94E016D5011D921C9261EB71E0C801F1
:100ED0004C960E943735892B21F5F801E08CF18C76
:100EE000C7010E9467288091F7039091F803E816E4
:100EF000F90639F062E070E080E090E00E94EB1EBD
:100F0000F2CFD5018D919C91892B29F461E070E09D
:100F100080E090E004C06AE070E080E090E00E9431
:100F2000EB1EF801808D918DDC01ED91FC91008428
:100F3000F185E02D0995F801B7966F019801215CC4
:100F40003F4F7901892B09F441C08091ED039091C5
:100F5000EE03892B21F41093EE030093ED038091AF
:100F6000040590910505A0910605B0910705F801CB
:100F700083A394A3A5A3B6A381E090E09093F0038C
:100F80008093EF030E94AE29D8015F966D937D9305
:100F90008D939C939297F50111821082D8015896F7
:100FA0008D919C915997DC01ED91FC910084F18524
:100FB000E02D0995892B51F0F60181918A3031F0AD
:100FC0008D3021F0EE16FF06C1F70AC0F6018191BF
:100FD0008A30E9F08D30D9F0EE15FF05C1F768C011
:100FE000F801808D918DDC01ED91FC910284F385F7
:100FF000E02D0995B82EBBE18B1332C08AE0F801D1
:1010000087A310A681E090E0D7018D939C9348E1DF
:1010100050E0B601CE0101960E941F34C8010E9423
:10102000DE06D801ED91FC910280F381E02DC8012C
:101030000995F801E08CF18C6AE0C7010E94D12685
:10104000C7010E946D27D801ED91FC910680F781C0
:10105000E02D41E0BE016F5F7F4FC801099528C0B8
:101060008091ED039091EE030817190759F4F801E8
:10107000808D918DDC01ED91FC910190F081E02D4E
:101080006B2D0995F70180819181F801E80FF91F17
:10109000B7A20196D7018D939C93BDE0BB1619F0C2
:1010A000EAE0BE127BCFF801E80FF91F17A276CF56
:1010B000A1960FB6F894DEBF0FBECDBFDF91CF91E2
:1010C0001F910F91FF90EF90DF90CF90BF90AF9066
:1010D0000895CF93DF93EC01888D998DDC01ED911C
:1010E000FC910084F185E02D0995892B51F0888DC4
:1010F000998DDC01ED91FC910284F385E02D099539
:10110000EBCFDF91CF9108958AE00E94101D892BCB
:10111000E1F480911D05882339F08091EF039091CF
:10112000F003892B59F413C08BE00E94101D892B0A
:10113000A1F38091E0038111F0CF07C081E02091FD
:10114000ED033091EE03232B19F080E0089581E048
:101150000895EF92FF920F931F93CF93DF9300D0E8
:10116000CDB7DEB77C012091730530917405211550
:10117000310511F429E735E08E010F5F1F4F021B87
:10118000130B63EE70E089EF93E00E94D826B8015C
:1011900089EF93E00E94F11F60EE70E089EF93E029
:1011A0000E94D826B70189EF93E00E947127C801F9
:1011B0000F900F90DF91CF911F910F91FF90EF90C3
:1011C0000895CF92DF92EF92FF920F931F93CF93E8
:1011D000DF931F92CDB7DEB77C016B01DB018C91F1
:1011E0008983805387010F5B1F4F8A3030F08FEF68
:1011F0009FEFF8019183808315C04AE050E060E0E2
:1012000070E0CE0101960E94F9326F3F7F4F79F373
:101210004AE050E060E070E0C6010E94F932D80177
:101220006D937C93D801ED91FC91EA30F10508F0C3
:101230006CC0EC5CFF4F0C940235F70113A214A2B2
:1012400015A216A281E090E09093F0038093EF0343
:101250000E94AE29D7015F966D937D938D939C93E9
:10126000929756C020E030E0A90160E070E011C024
:101270002FE730E140E050E001E064EB71E0C701AE
:101280000E94741B45C022E130E140E050E06AEE6C
:1012900071E0C7010E94451C3BC024EE3FE040E0E6
:1012A00050E064E072E0F5CFC7010E94201C30C01E
:1012B00083EC93E00E94A9086C016AE772E0F701F1
:1012C000808D918D0E94D826D70158960D911C9142
:1012D0005997B601C8010E94F11FC8010E946D27ED
:1012E000F701808D918D0E946D27C7010E94991B87
:1012F0000FC0C7010E94041C0BC0E0E0F0E009959C
:1013000007C0C7010E94981D03C0C7010E94B41BFB
:101310000F90DF91CF911F910F91FF90EF90DF9091
:10132000CF90089580EC94E00E946D2920911E05D5
:10133000892B29F0253018F485E090E00895822F5C
:1013400090E00895CF93DF93CDB7DEB764970FB6E3
:10135000F894DEBF0FBECDBFAE014F5F5F4F24E1FB
:10136000FA0111922A95E9F726ED31E03A832983B3
:101370002EE130E03C832B8360E070E00E94F71F99
:1013800064960FB6F894DEBF0FBECDBFDF91CF914C
:101390000895CF93DF93CDB7DEB764970FB6F89477
:1013A000DEBF0FBECDBFAE014F5F5F4F24E1FA013C
:1013B00011922A95E9F726E430E03A8329833C83A9
:1013C0002B8360E070E00E94F71F64960FB6F894DC
:1013D000DEBF0FBECDBFDF91CF910895CF93DF93D6
:1013E000CDB7DEB764970FB6F894DEBF0FBECDBFA2
:1013F000AE014F5F5F4F24E1FA0111922A95E9F7A0
:1014000024EF31E03A8329833C832B8360E070E052
:101410000E94F71F64960FB6F894DEBF0FBECDBFD3
:10142000DF91CF910895CF93DF93CDB7DEB7649767
:101430000FB6F894DEBF0FBECDBFAE014F5F5F4F5A
:1014400024E1FA0111922A95E9F760E070E00E9428
:10145000F71F64960FB6F894DEBF0FBECDBFDF91C5
:10146000CF910895FC01708767836115710581F440
:10147000818592850196928781872385348512160E
:10148000130634F4281739071CF4168215820895C0
:10149000DB01AA0FBB1FAE0FBF1F59968D919C9108
:1014A0005A97181619064CF4CB01019662E070E0C9
:1014B0000E94CF349683858302C01682158285856B
:1014C0009685A785B089818B928BA38BB48B089569
:1014D00080E090E0FB0121913191BF0112161306CB
:1014E00024F401968A309105A9F708958F929F926E
:1014F000AF92BF92CF92DF92EF92FF92CF93DF93A2
:10150000EC010E94AE296D877E878F87988BEF80D4
:10151000F88489889A88AB88BC88DC01CB0188195B
:101520009909AA09BB09F701EE0FFF1FEC0FFD1F78
:10153000818C928C092C000CAA08BB08881599058F
:10154000AA05BB0598F0BE01675E7F4FCE010E94E1
:10155000680A0197E816F9061CF060E070E003C025
:10156000B7016F5F7F4FCE010E94320A8D889E883F
:101570008114910441F48F89988D892B09F0B8C1A9
:101580006D81888119C2181419040CF0B1C18D81C4
:101590009E81892B09F49FC1888199812091000146
:1015A000281721F02F3F09F079C204C0E1E9FCE0DF
:1015B000C49179C080930001E1E9FCE0C491CF3F80
:1015C00009F46CC2C13009F448C050F1C23009F0CE
:1015D0006AC01092B0001092B1002091B000226059
:1015E0002093B0002091B10021602093B1009C01B4
:1015F0003327F901EC5BF54FE491F0E0EE0FFF1FAC
:10160000E65CF54F45915491509322054093210596
:10161000F901E85AF54FE491E0932305C2E03AC29C
:1016200014BC15BC24B5226024BD25B5216025BDA0
:101630009C013327F901EC5BF54FE491F0E0EE0FEC
:10164000FF1FE65CF54F45915491F901E85AF54FBB
:10165000E491E093D703C0E01DC210928000109285
:1016600081002091810028602093810020918100D9
:101670002160209381009C013327F901EC5BF54F39
:10168000E491F0E0EE0FFF1FE65CF54F45915491B9
:10169000F901E85AF54FE491E093D60361E00E9426
:1016A0000D1EC1E0A6C0C7FDF9C161E00E940D1E7C
:1016B0008C2F8D7F09F09DC0092C000CAA08BB0857
:1016C00060E072E18AE790E0A50194010E94E334B2
:1016D00069017A01DA01C9010197A109B1098F3FB6
:1016E0009105A105B10509F00CF445C060E472E470
:1016F0008FE090E0A50194010E94E334BA01A901B2
:101700004150510961097109C230E9F44F3F510557
:101710006105710509F00CF45DC160E970ED83E0CD
:1017200090E0A50194010E94E334BA01A90141505F
:101730005109610971094F3F51056105710509F0B2
:1017400034F583E04FC04F3F510561057105B9F095
:10175000B4F068E478EE81E090E0A50194010E9485
:10176000E334BA01A9014150510961097109CC233F
:1017700009F432C187C1AC01BD0181E001C082E042
:10178000C11130C095B5987F892B85BD6AC068E4CA
:1017900078EE81E090E0A50194010E94E334BA0163
:1017A000A90141505109610971094F3F5105610576
:1017B000710509F00CF40CC164E274EF80E090E074
:1017C000A50194010E94E334BA01A90141505109D5
:1017D000610971094F3F51056105710511F008F06C
:1017E0002AC185E09091B100987F892B8093B10048
:1017F00032C0092C000CAA08BB0860E072E18AE73D
:1018000090E0A50194010E94E334DA01C901019737
:10181000A109B109009721E0A207B10524F4AC01A8
:10182000BD0181E00FC068E478EE81E090E0A501A1
:1018300094010E94E334BA01A901415051096109A0
:10184000710983E0C13039F490918100987F892B30
:101850008093810018C0C130B1F0C23049F1C1118C
:101860001DC147BD8FEF9FEFDC018093DC03909398
:10187000DD03A093DE03B093DF0380916E008260EE
:1018800080936E000BC150938900409388008FEFC6
:101890009FEFDC018093D8039093D903A093DA03E0
:1018A000B093DB0380916F00826080936F00F6C07D
:1018B0004093B3008FEF9FEFDC018093240590935A
:1018C0002505A0932605B0932705809170008260BE
:1018D00080937000E3C08881DF91CF91FF90EF90FB
:1018E000DF90CF90BF90AF909F908F900C944A263E
:1018F000EF88F88C1E141F040CF0D0C08D819E81DF
:10190000892B09F452C00990D881C02D61E08C2F39
:101910000E940D1E8FEFE816F10409F444C0FE0189
:10192000FF27E459F64FE491E330F9F048F4E13051
:10193000B9F0E230A1F584B5806284BDE8BCAEC0E8
:10194000E730E9F0E83019F1E43049F580918000A2
:10195000806280938000F0928B00E0928A009EC0AB
:1019600084B5806884BDE7BC99C0809180008068A0
:1019700080938000F0928900E09288008FC080916F
:10198000B00080688093B000E092B30087C080917F
:10199000B00080628093B000E092B4007FC020E885
:1019A000E216F1043CF061E006C0C88161E08C2FD2
:1019B0000E940D1E60E08C2FDF91CF91FF90EF9081
:1019C000DF90CF90BF90AF909F908F900C94DE1DD2
:1019D00084E008CF82E006CF4F3F510561057105D5
:1019E00041F138F162E17AE780E090E0A5019401ED
:1019F0000E94E334BA01A9014150510961097109FA
:101A00004F3F51056105710591F088F0D701C6017E
:101A10003AE0B595A795979587953A95D1F7AC019A
:101A2000BD01415051096109710985E0ABCE84E0E7
:101A3000A9CE83E0A7CE62E17AE780E090E0A5013D
:101A400094010E94E334BA01A9014150510961098E
:101A500071094F3F51056105710591F088F0D7017B
:101A6000C6012AE0B595A795979587952A95D1F750
:101A7000AC01BD01415051096109710987E0B2CE45
:101A800086E0B0CE4F3F51056105710509F098F62B
:101A900084E076CE61E00E940D1E0ECEDF91CF91E4
:101AA000FF90EF90DF90CF90BF90AF909F908F907E
:101AB0000895CF92DF92EF92FF920F931F93CF93EF
:101AC0008C016A017B01C22F0E9492098017910745
:101AD000F4F10E9484088823A1F02AE030E0B701E5
:101AE000A60180911F05909120050E945A27CC23C2
:101AF000F9F063EC73E080911F05909120050E943E
:101B000071272AE030E0B701A60189EF93E00E9437
:101B10005A27CC23E1F063EC73E089EF93E0CF9197
:101B20001F910F91FF90EF90DF90CF900C94712751
:101B30002AE030E0B701A60189EF93E0CF911F9131
:101B40000F91FF90EF90DF90CF900C945A27CF9198
:101B50001F910F91FF90EF90DF90CF900895FF922B
:101B60000F931F93CF93DF93EC01F62E0881198119
:101B7000C8010E943634F81621F06F2DC8010E946A
:101B80003E34CE01DF91CF911F910F91FF900895C8
:101B9000EF92FF921F93CF93DF937C01EB01142F01
:101BA0000E9492098E159F058CF10E94840888235B
:101BB00089F0BE0180911F05909120050E94F11FC0
:101BC0001123D1F063EC73E080911F059091200503
:101BD0000E947127BE0189EF93E00E94F11F11233B
:101BE000A9F063EC73E089EF93E0DF91CF911F914F
:101BF000FF90EF900C947127BE0189EF93E0DF9185
:101C0000CF911F91FF90EF900C94F11FDF91CF9136
:101C10001F91FF90EF900895CF93DF93FC01C28155
:101C2000D38113821282DC0160E070E080E090E0FA
:101C30002C9130E0522F44276E35710529F0119612
:101C40002C91119730E002C020E030E0242B352B9E
:101C5000822793276E5F7F4F12966036710541F79A
:101C6000D383C283DF91CF910895EF92FF921F93A8
:101C7000CF93DF937C01EB01142F0E9492098E1504
:101C80009F058CF10E948408882389F0BE01809111
:101C90001F05909120050E94FC261123D1F063ECD2
:101CA00073E080911F05909120050E947127BE016D
:101CB00089EF93E00E94FC261123A9F063EC73E006
:101CC00089EF93E0DF91CF911F91FF90EF900C94FB
:101CD0007127BE0189EF93E0DF91CF911F91FF90B3
:101CE000EF900C94FC26DF91CF911F91FF90EF9025
:101CF0000895EF92FF921F93CF93DF937C01EB0146
:101D0000142F0E9492098E159F058CF10E94840861
:101D1000882389F0BE0180911F05909120050E94C3
:101D2000D8261123D1F063EC73E080911F059091C8
:101D300020050E947127BE0189EF93E00E94D826FA
:101D40001123A9F063EC73E089EF93E0DF91CF9169
:101D50001F91FF90EF900C947127BE0189EF93E0E3
:101D6000DF91CF911F91FF90EF900C94D826DF91D7
:101D7000CF911F91FF90EF900895AF92BF92CF92B5
:101D8000DF92EF92FF920F931F93CF93DF93CDB724
:101D9000DEB7A0970FB6F894DEBF0FBECDBF6C01C3
:101DA0008B01FB01808196012F5B3F4F59018D30E4
:101DB00021F08A3011F0811106C041E062E672E044
:101DC00084E090E0E6C0F901E080F180F1E0EF1AF4
:101DD000F108F701EE0FFF1FE75DF64F6591749173
:101DE000CE0101960E9418342FE0E216F10408F0AB
:101DF000CBC0F701E25CFF4F4AE050E060E070E0EA
:101E0000C8010C9402350E94F9326093F404709377
:101E1000F5048093F6049093F7048FC00E94F93282
:101E20006093F8047093F9048093FA049093FB0490
:101E300084C00E94F9326093FC047093FD04809387
:101E4000FE049093FF0479C00E94F932609300056C
:101E50007093010580930205909303056EC00E9464
:101E6000F9326A3071058105910548F060930405E7
:101E70007093050580930605909307055EC08AE080
:101E800090E0A0E0B0E08093040590930505A09356
:101E90000605B093070551C00E94F93270930905F9
:101EA000609308054AC00E94F93270930B05609355
:101EB0000A0543C00E94F93260930C053EC00E949F
:101EC000F93260930D0570930E0580930F05909382
:101ED000100533C00E94F93260931105709312050A
:101EE000809313059093140528C00E94F9326093E3
:101EF00015057093160580931705909318051DC05E
:101F00000E94F93270931A056093190516C00E9459
:101F1000F93270931C0560931B050FC00E94F932C3
:101F200021E0672B682B692B09F420E020931D0525
:101F300004C00E94F93260931E0540E250E06BE15C
:101F400072E084ED94E00E941F3480EC94E00E94E3
:101F500022298091040590910505A0910605B09174
:101F60000705F60183A394A3A5A3B6A381E090E09F
:101F70009093F0038093EF030E94AE29F601678FE0
:101F800070A381A392A307C041E061E372E082E005
:101F900090E00E94790E8FEF9FEFF501918380838F
:101FA000C6010E94201CA0960FB6F894DEBF0FBE9B
:101FB000CDBFDF91CF911F910F91FF90EF90DF90F8
:101FC000CF90BF90AF900895CF93DF93EC01DB01EA
:101FD0008C918F7D893589F441E069E072E084E07D
:101FE00090E00E94790E84E1EAEAF4E0DF011D92BC
:101FF0008A95E9F70E94D61C06C069E172E0888DD7
:10200000998D0E948327888D998D0E946D2720E0ED
:1020100030E0A90160E070E0CE010E94451CDF9134
:10202000CF910895CF92DF92EF92FF920F931F937B
:10203000CF93DF93EC018B014AE050E060E070E069
:10204000C8010E94F9326B017C01CB0118161906F8
:102050004CF4F80120812D3029F02A3019F0653038
:1020600071053CF065EF71E0888D998D0E948327A2
:1020700031C086010150110940E06DEC71E084E04F
:1020800090E00E94790E41E0B80184E090E00E9467
:10209000C80DF4E0CF0ED11CC601880F991F880F20
:1020A000991FFC01EA56FB4F1082118212821382A3
:1020B0000E94D61C60EE71E0888D998D0E94D82612
:1020C000E88CF98C60E070E0C7010E94F11FC70145
:1020D0000E946D27888D998D0E946D2720E030E049
:1020E000A90160E070E0CE010E94451CDF91CF9114
:1020F0001F910F91FF90EF90DF90CF9008958F92F6
:102100009F92AF92BF92EF92FF920F931F93CF9344
:10211000DF938C017B01FB0180818D3009F472C05B
:102120008A3009F46FC0882309F46CC04AE050E09B
:1021300060E070E0C7010E94F9324B015C0140E0B1
:102140006AE471E084E090E00E94790E21E0B5013C
:10215000A40184E090E00E94590D86E994E00E9479
:102160009828EAEAF4E02EEB34E0DF0180E090E02A
:102170004D915D916D917D91452B462B472B09F03B
:1021800001962A173B07A1F781149104A104B10419
:1021900041F441E06BE271E083E090E00E94790E4F
:1021A00031C08530910554F041E065E171E083E094
:1021B00090E00E94790EC2E0D0E026C0419151919A
:1021C0006191719184169506A606B70609F475C04B
:1021D0002E173F0799F7880F991F880F991FFC0149
:1021E000E655FB4F80829182A282B3820E94D61C68
:1021F00041E06EEE70E084E090E00E94790EC0E075
:10220000D0E002C0C1E0D0E06FEB71E0F801808D5A
:10221000918D0E94D826B701F801808D918D0E9482
:1022200071276DEA71E0F801808D918D0E94D826AA
:10223000BE01F801808D918D0E94F11F6BE272E06A
:10224000F801808D918D0E94FC26F801808D918D82
:10225000C230D10559F0C330D10559F0219719F09A
:1022600065EA71E008C066E871E005C06DE671E0FE
:1022700002C064E571E00E94D826F801808D918D3E
:102280000E946D27F801808D918D0E946D27C801F5
:102290000E94DE0620E030E0A90160E070E0C801A5
:1022A0000E94451CDF91CF911F910F91FF90EF90FD
:1022B000BF90AF909F908F90089541E06FEF70E0D6
:1022C00083E090E00E94790EC3E0D0E09DCF0F93B1
:1022D0001F93CF93DF9300D0CDB7DEB78C018091F1
:1022E000EF039091F003892B29F5F801808191810A
:1022F0007183608386179707E9F0809108059091B4
:1023000009050297B9F440E068EB70E084E090E0E2
:102310000E94790EF8016081718141E084E090E0D3
:102320000E94C80DF80160811A821982CE010196BF
:102330000E94AF0DF801808191810F900F90DF9185
:10234000CF911F910F9108958FE992E0089589E947
:1023500092E008958AED92E0089586E291E0089572
:10236000FC012689378937FF04C060E070E0CB01AB
:102370000895220F331F220F331FFC01E20FF31FBA
:1023800062817381848195810895CF93DF93FC01ED
:102390002689378937FF05C060E070E080E090E073
:1023A0000EC0EC010190F081E02D0480F581E02D5C
:1023B00009952E893F89215031093F8B2E8BDF9162
:1023C000CF9108952FEF3FEFDC0157963C932E936A
:1023D0005697FC019C012C5E3F4F1382128215829E
:1023E00014823496E217F307C1F74115510511F431
:1023F00060FF07C0DC01ED91FC910190F081E02DC0
:10240000099408959F92AF92BF92CF92DF92EF927C
:10241000FF920F931F93CF93DF93EC018B01942EC8
:10242000E881F9810480F581E02D09956B017C013B
:102430008E899F8997FD3AC0570181E0A822BB246D
:10244000C114D10421F4A114B10469F52FC099205D
:1024500039F0E881F9810280F381E02DCE01099500
:10246000AB2871F0F701F595E795EC0FFD1F019092
:10247000F081E02DEC0DFD1D0190F081E02D01C0FB
:10248000F601C70195958795B8018C0F9D1FDF91C7
:10249000CF911F910F91FF90EF90DF90CF90BF9061
:1024A000AF909F9009949920E9F2D3CFDF91CF911B
:1024B0001F910F91FF90EF90DF90CF90BF90AF9062
:1024C0009F90089541E060E078E082E090E00E9413
:1024D000790E60E070E0CB010895E091E903F0919E
:1024E000EA03808D918D0E947127E091E903F091BC
:1024F000EA0363EC73E0808D918D0E9471278091D7
:10250000E9039091EA030C94981DCF93DF93CDB724
:10251000DEB7A0970FB6F894DEBF0FBECDBFFB01AC
:1025200001900020E9F7AF01461B570B1A82198270
:10253000FE0133968EE1DF011D928A95E9F7425044
:102540005109CE0101960E94403529818091EB030B
:102550009091EC032134A1F4BE016F5F7F4FFC0129
:10256000808D918D0E9471274DE652E160E070E010
:1025700020E08091EB039091EC030E94AB1A1CC009
:10258000DC01ED91FC910084F185E02D40E050E00C
:10259000BA0109958091EB039091EC030E946908C0
:1025A0008091EB039091EC030E94DE068091E90399
:1025B0009091EA030E94B41BA0960FB6F894DEBF78
:1025C0000FBECDBFDF91CF910895AF92BF92CF9252
:1025D000DF92EF92FF920F931F93CF93DF93CDB7CC
:1025E000DEB7A0970FB6F894DEBF0FBECDBF8C014B
:1025F0007B014AE050E060E070E0C7010E94F932E0
:102600006B015B0121E0A21AB10883E0A816B104B6
:10261000C0F565EF77E0F801808D918D0E94D82696
:10262000B501660F771FFB01EA5BFE4F6081718188
:10263000F801808D918D0E94712763EC73E0F801A1
:10264000808D918D0E947127E7E3F9E06591749187
:10265000CE0101960E9418344AE050E060E070E03C
:10266000C7010E94F93260930C0540E250E06BE133
:1026700072E084ED94E00E941F3480EC94E00E94AC
:10268000222963EC73E0F801808D918D0E947127FF
:10269000CD2841F0FDE0EF16F10421F02AE0E2162A
:1026A000F10421F4C8010E94B41B03C0C8010E94B8
:1026B000041CA0960FB6F894DEBF0FBECDBFDF910D
:1026C000CF911F910F91FF90EF90DF90CF90BF902F
:1026D000AF900895EF92FF920F931F93CF93DF93E4
:1026E000EC01CA01122F032F7B0121E0E21AF1084D
:1026F000F701EE0FFF1FE75DF64F659174910E94A1
:1027000018348FE0E816F10408F029C1F701E35B03
:10271000FF4F0C9402358FA98F938EA98F938DA9AB
:102720008F938CA98F938DEA91E09F938F930F9352
:102730001F930E947F358DB79EB708960FB6F89409
:102740009EBF0FBE8DBF0BC18BAD8F938AAD8F9394
:1027500089AD8F9388AD8F938DEA91E09F938F938E
:102760000F931F930E947F358DB79EB708960FB6C3
:10277000F8949EBF0FBE8DBFF2C08FAD8F938EAD0C
:102780008F938DAD8F938CAD8F938DEA91E09F9356
:102790008F930F931F930E947F358DB79EB7089636
:1027A0000FB6F8949EBF0FBE8DBFD9C0C05CDF4F7F
:1027B0008B818F938A818F9389818F9388818F9367
:1027C0008DEA91E09F938F930F931F930E947F3523
:1027D0008DB79EB708960FB6F8949EBF0FBE8DBFFB
:1027E000BEC0CC5BDF4F8B818F938A818F938981B1
:1027F0008F9388818F938DEA91E09F938F930F93AE
:102800001F930E947F358DB79EB708960FB6F89438
:102810009EBF0FBE8DBFA3C0C85BDF4F81C0C65B2C
:10282000DF4F7EC0C45BDF4F2881822F90E001978D
:102830008330910540F4880F991FFC01EA5BFE4F3D
:102840008081918102C083EE92E09F938F931F92CB
:102850002F938CEE92E09F938F930F931F930E9480
:102860007F358DB79EB708960FB6F8949EBF0FBE02
:102870008DBF75C0C35BDF4F8B818F938A818F9330
:1028800089818F9388818F9382EA93E09F938F93BE
:102890000F931F930E947F358DB79EB708960FB692
:1028A000F8949EBF0FBE8DBF5AC0CF5ADF4F8B81A9
:1028B0008F938A818F9389818F9388818F9382EA06
:1028C00093E09F938F930F931F930E947F358DB753
:1028D0009EB708960FB6F8949EBF0FBE8DBF3FC03F
:1028E000CB5ADF4F8B818F938A818F9389818F930E
:1028F00088818F9382EA93E09F938F930F931F9326
:102900000E947F358DB79EB708960FB6F8949EBF8C
:102910000FBE8DBF24C0C75ADF4F02C0C55ADF4F5C
:1029200089818F93888104C0C35ADF4F88811F92A9
:102930008F9389EE92E007C0C25ADF4F88811F92C1
:102940008F9384EF92E09F938F930F931F930E9436
:102950007F350F900F900F900F900F900F90DF9199
:10296000CF911F910F91FF90EF9008953F924F925A
:102970005F926F927F928F929F92AF92BF92CF920F
:10298000DF92EF92FF920F931F93CF93DF93CDB718
:10299000DEB7C056D1090FB6F894DEBF0FBECDBF6B
:1029A0002B016FE479E0C2010E94D82680EC94E00C
:1029B0000E940C0E40E150E0BC01C2010E9467275A
:1029C00067E479E0C2010E94D8264AE050E06FE552
:1029D00070E0C2010E946727C2010E946D2701E0DA
:1029E00010E08EE2382E3E0183E0680E711C6E010D
:1029F00091E5C90ED11C7E01E1E3EE0EF11C99EFC9
:102A0000892E92E0992ECE0101965C011A821982DC
:102A1000F301832D11928A95E9F79601A701B80178
:102A200080EC94E00E946A13DF92CF92FF92EF92C3
:102A30001F930F939F928F92BF92AF920E947F3508
:102A4000B501C2010E9471270F5F1F4F0FB6F894A6
:102A5000DEBF0FBECDBF00311105C1F6C05ADF4F3A
:102A60000FB6F894DEBF0FBECDBFDF91CF911F919F
:102A70000F91FF90EF90DF90CF90BF90AF909F901D
:102A80008F907F906F905F904F903F900895CF937D
:102A9000DF93EC0140E150E062E272E004960E94B4
:102AA0001F3480E293E0998388838EE190E0A0E078
:102AB000B0E08CAB9DABAEABBFAB88EE93E0A0E0DB
:102AC000B0E088AF99AFAAAFBBAF86E990E0A0E0D5
:102AD000B0E08CAF9DAFAEAFBFAFFE01E05CFF4F8B
:102AE0008FE090E0A0E0B0E080839183A283B38385
:102AF00034968CE390E0A0E0B0E080839183A283E1
:102B0000B383349681E090E0918380833296118282
:102B10001082329683E08083319680E091EEA0E0CF
:102B2000B0E080839183A283B383349680E895E2FA
:102B3000A0E0B0E080839183A283B3833496808346
:102B40009183A283B383349680EF9AE0918380834C
:102B5000329687E090E0918380833296108231969E
:102B600084E0808340E250E069EC72E0CE0144965C
:102B7000DF91CF910C941F34CF92DF92EF92FF92AE
:102B80001F93CF93DF93C82EEB01142F0E9484086C
:102B9000D12CE12CF12C882399F09E01B701A601DC
:102BA00080911F05909120050E945A271123F1F072
:102BB00063EC73E080911F05909120050E947127BE
:102BC0009E01B701A60189EF93E00E945A271123C5
:102BD000D9F063EC73E089EF93E0DF91CF911F911F
:102BE000FF90EF90DF90CF900C9471279E01B7017A
:102BF000A60189EF93E0DF91CF911F91FF90EF90B5
:102C0000DF90CF900C945A27DF91CF911F91FF90C6
:102C1000EF90DF90CF900895CF92DF92EF92FF92E6
:102C2000CF937C01C62EC42F0E9492098E159F055A
:102C3000D4F10E948408D12CE12CF12C882399F046
:102C40002AE0B701A60180911F05909120050E94FE
:102C50001127CC23E1F063EC73E080911F05909184
:102C600020050E9471272AE0B701A60189EF93E0B1
:102C70000E941127CC23B9F063EC73E089EF93E055
:102C8000CF91FF90EF90DF90CF900C9471272AE0C6
:102C9000B701A60189EF93E0CF91FF90EF90DF900D
:102CA000CF900C941127CF91FF90EF90DF90CF90B1
:102CB00008954F925F926F927F928F929F92AF9200
:102CC000BF92CF92DF92EF92FF920F931F93CF9319
:102CD000DF93CDB7DEB768970FB6F894DEBF0FBEAF
:102CE000CDBF7C016FE278E00E94D82663E070E0FF
:102CF000C7010E94F11F6DE278E0C7010E9483279F
:102D000086E4C82E81E0D82E01E010E096E1492E3D
:102D10003E0183E0680E711C29E0822E23E0922E92
:102D200038E1532EFE0131965F011A821982F301B8
:102D3000842D11928A95E9F7F60120813181F2E024
:102D4000CF0ED11C80910C0590E08017910719F4EB
:102D500087E093E002C08CE292E03F932F939F9331
:102D60008F931F930F939F928F921F925F92BF92A8
:102D7000AF920E944F35B501C7010E9471270F5FC6
:102D80001F4F0FB6F894DEBF0FBECDBF0430110544
:102D900061F668960FB6F894DEBF0FBECDBFDF9127
:102DA000CF911F910F91FF90EF90DF90CF90BF9048
:102DB000AF909F908F907F906F905F904F9008950D
:102DC000DC0156961C92FC01369620E1DF011D9233
:102DD0002A95E9F708950F93CF93DF93EC018AE3E7
:102DE00091E0998388836A834B832C830D83FE0152
:102DF000369680E1DF011D928A95E9F71E8A0E94CE
:102E0000AE296F8B788F898F9A8F1B8E1C8E1D8EAB
:102E10001E8E1F8E18A219A21AA21BA21CA21DA2EE
:102E20001EA21FA218A619A61AA61BA61CA61DA69E
:102E30001EA61FA618AA19AA1AAA1BAA1CAA1DAA6E
:102E40001EAA1FAA18AE19AE1AAE1BAE1CAE1DAE3E
:102E50001EAEDF91CF910F9108950F93CF93DF9323
:102E6000EC0101E02AE043E06EE00E94EB1682E410
:102E700091E09983888340E069E378E084E090E022
:102E80000E94790E41E06AED72E084E090E0DF910B
:102E9000CF910F910C94350E6F927F928F929F92EB
:102EA000AF92BF92CF92DF92EF92FF920F931F9358
:102EB000CF93DF93CDB7DEB78C015B016DB67EB6E5
:102EC00040E063E179E085E090E00E94790E40E027
:102ED00068E079E085E090E00E94790E40E0F8013A
:102EE000638185E090E00E940C1640E06DEF78E091
:102EF00085E090E00E94790E40E0F801648185E071
:102F000090E00E940C16F80144814F5F8381F42EFB
:102F1000F81A40E062EF78E085E090E00E94790ED8
:102F200040E06F2D85E090E00E940C1640E06FEDD0
:102F300078E085E090E00E94790EF501E3840E943C
:102F40009209059734F041E060E170E08E2D0E9417
:102F5000BC154F2D50E04F5F5F4F8DB79EB7841B60
:102F6000950B0FB6F8949EBF0FBE8DBFEDB7FEB7A1
:102F700031967F0165E271E0CF010E942E35F801A4
:102F800083816501C80ED11C84E1882E83E0982ED0
:102F9000F801848190E096012A193B098217930772
:102FA000C4F0F60121916F01F70101900020E9F7CB
:102FB0001F922F939F928F92CF0101979F938F9390
:102FC0000E947F350F900F900F900F900F900F90F1
:102FD000DFCF40E150E060E070E0C7010E94F932CD
:102FE0004B015C0140E062ED78E086E090E00E94F9
:102FF000790E40E0B70186E090E00E94350E40E097
:103000006BE272E086E090E00E94350E21E0B501AF
:10301000A40186E090E00E94590DC501B4010FB6ED
:10302000F8947EBE0FBE6DBEDF91CF911F910F91C0
:10303000FF90EF90DF90CF90BF90AF909F908F90D8
:103040007F906F9008956F927F928F929F92AF9230
:10305000BF92CF92DF92EF92FF920F931F93CF9385
:10306000DF93CDB7DEB78C015B016DB67EB640E075
:103070006BEB78E085E090E00E94790E40E060EB39
:1030800078E085E090E00E94790E40E0F8016381ED
:1030900085E090E00E940C1640E065EA78E085E06B
:1030A00090E00E94790E40E0F801648185E090E0B4
:1030B0000E940C16F801448150E08381481B51099D
:1030C0004F5F5F4FF42EFF0C40E06AE978E085E047
:1030D00090E00E94790E40E06F2D85E090E00E9424
:1030E0000C1640E067E878E085E090E00E94790EF9
:1030F00041E0F501608585E090E00E940C164F2DBF
:1031000050E04F5F5F4F8DB79EB7841B950B0FB696
:10311000F8949EBF0FBE8DBFEDB7FEB731967F010D
:1031200065E271E0CF010E942E35F80183816501CF
:10313000C80ED11C87E1882E83E0982EF801848187
:1031400090E096012A193B0982179307C4F0F60113
:1031500021916F01F70101900020E9F71F922F9351
:103160009F928F92CF0101979F938F930E947F35FB
:103170000F900F900F900F900F900F90DFCF40E1C6
:1031800050E060E070E0C7010E94F9324B015C0141
:1031900040E065E778E086E090E00E94790E40E04C
:1031A000B70186E090E00E94350E40E06BE272E0ED
:1031B00086E090E00E94350E21E0B501A40186E092
:1031C00090E00E94590DC501B4010FB6F8947EBE7F
:1031D0000FBE6DBEDF91CF911F910F91FF90EF90C9
:1031E000DF90CF90BF90AF909F908F907F906F9027
:1031F00008952F923F924F925F926F927F928F929B
:103200009F92AF92BF92CF92DF92EF92FF920F9375
:103210001F93CF93DF93CDB7DEB76C015B016DB623
:103220007EB640E06DE578E085E090E00E94790EA2
:1032300040E150E060E070E0C5010E94F9321B01FE
:103240002C010E949209059724F0C201B1010E944D
:103250000F1AF601F38044814F1950E04F5F5F4F22
:103260008DB79EB7841B950B0FB6F8949EBF0FBE0B
:103270008DBF0DB71EB70F5F1F4F65E271E0C8012C
:103280000E942E35F501EF0DF11D7F0184E1882E9E
:1032900083E0982EF601848190E097012A193B097A
:1032A00082179307C4F0F70121917F01F801019083
:1032B0000020E9F71F922F939F928F92CF010197E1
:1032C0009F938F930E947F350F900F900F900F90D8
:1032D0000F900F90DFCF40E150E060E070E0C80158
:1032E0000E94F9326B017C0140E06AE478E086E0FC
:1032F00090E00E94790E40E0B80186E090E00E94E4
:10330000350E40E06BE272E086E090E00E94350E00
:1033100021E0B701A60186E090E00E94590DC701A7
:10332000B6010FB6F8947EBE0FBE6DBEDF91CF9191
:103330001F910F91FF90EF90DF90CF90BF90AF90D3
:103340009F908F907F906F905F904F903F902F90C5
:103350000895FC014115510511F460FF11C0268943
:1033600037892F5F3F4F378B268B220F331F220F5A
:10337000331FE20FF31F42835383648375830895E1
:1033800041E06CE173E083E090E00C94350E4091F5
:103390009804509199041092990410929804E6E9C7
:1033A000F4E060EC74E080E090E0208130E0322FC7
:1033B0002227A1812A2B8227932732966E177F0717
:1033C000A1F750939904409398040895833081F0B5
:1033D00028F4813099F08230A1F008958730A9F067
:1033E0008830B9F08430D1F4809180008F7D03C0A3
:1033F000809180008F7780938000089584B58F77C7
:1034000002C084B58F7D84BD08958091B0008F7710
:1034100003C08091B0008F7D8093B0000895CF925B
:10342000DF92EF92FF926B017C010E948408882357
:1034300081F0B701A60180911F05909120050E949F
:10344000BF1F63EC73E080911F05909120050E94DF
:103450007127B701A60189EF93E00E94BF1F63ECBB
:1034600073E089EF93E0FF90EF90DF90CF900C94A2
:103470007127CF92DF92EF92FF926B017C01E09176
:103480000904F0910A0482E08083C11481EED80619
:10349000E104F104B1F060E079E08DE390E0A70190
:1034A00096010E945C34DA01C9010197A109B109B2
:1034B000B695A795979587959C01211580E13807CA
:1034C000B8F0E0910904F0910A04108260E874E811
:1034D0008EE190E0A70196010E945C34DA01C901F7
:1034E0000197A109B109B695A795979587959C0174
:1034F000E0910504F09106043083E0910704F09117
:103500000804208310921104E0910D04F0910E0440
:1035100086E08083E0910B04F0910C04808180614F
:103520008083E0910B04F0910C048081886080839B
:10353000E0910B04F0910C04808180688083E0911D
:103540000B04F0910C0480818F7D8083FF90EF90BD
:10355000DF90CF9008951F93CF93DF93EC01122F4C
:10356000E881F9810190F081E02D0995E881F981E8
:103570000190F081E02D4CEE56E060E070E0CE016D
:103580000995CE010E946908CE010E94DE06112332
:1035900031F0CD5BDF4F81E090E099838883DF914C
:1035A000CF911F9108950E94C719209198043091DE
:1035B00099048217930739F49C012150310981E065
:1035C0002E3F3F4F08F080E00895CF93DF93EC014A
:1035D0009A01AB011B8E1A8E198E188E1F8A1E8AB5
:1035E00060E079E08DE390E00E94E334F90124305B
:1035F000310518F0C901039702C081E090E09D8F6A
:103600008C8F6C85663108F06AC0C90196958795E4
:103610008431910510F0439702C081E090E09F8BC8
:103620008E8B369718F0C901059702C081E090E0B3
:10363000998F888FC901880F991F280F391F3695D8
:103640002795369527952D30310518F02C503109E6
:1036500002C021E030E03B8F2A8F30916800683053
:1036600058F021E06E3008F420E091E0892F01C08D
:10367000880F2A95EAF701C084E0832B80936800C5
:103680009C85983038F09E3040F0963148F020E02C
:1036900030E008C02DE630E005C02BE630E002C087
:1036A0002CE630E03C8B2B8B983030F481E001C06D
:1036B000880F9A95EAF70EC0292F30E09E3018F453
:1036C0002850310902C02E50310981E001C0880F15
:1036D0002A95EAF78D8B8C8D9D8D0197F1F7CE01A0
:1036E000DF91CF910C946728CF92DF92EF92FF92F7
:1036F0000F93CF93DF93EC0169017A01FB01808185
:10370000882321F0888D998D0E94FC26202FB701F7
:10371000A601CE010E94AB1A6DE27AE0888D998DE8
:10372000DF91CF910F91FF90EF90DF90CF900C94AD
:10373000D8260F93CF93DF93EC01E881F9810084C1
:10374000F185E02D40E050E0BA01099521EE38E026
:1037500040E050E000E06CE373E0CE010E94741B97
:10376000DF91CF910F910895CF93DF93EC0168E241
:103770007AE0888D998D0E94832760E27AE0888DB7
:10378000998D0E94832763E17AE0888D998D0E944C
:10379000832768E07AE0888D998D0E9483276AEFFD
:1037A00079E0888D998D0E94832767EE79E0888D76
:1037B000998D0E9483276BED79E0888D998D0E9409
:1037C000832767EC79E0888D998D0E94832767EBCA
:1037D00079E0888D998D0E9483276CEA79E0888D45
:1037E000998D0E9483276EE979E0888D998D0E94DA
:1037F000832763EC73E0888D998D0E947127CE0139
:10380000DF91CF910C94991B0F93CF93DF93EC0131
:10381000888D998D0E94591663EC73E0888D998D7F
:103820000E94712725EE32E140E050E000E06FE4B5
:1038300073E0CE010E94741BDF91CF910F91089528
:103840000F93CF93DF93EC01FC01EF5BFF4F8FEF02
:103850009FEF91838083688D798D80EC94E00E9446
:10386000B61463EC73E0888D998D0E94712724E76C
:1038700036E040E050E000E06FE573E0CE010E94EA
:10388000741BDF91CF910F9108958F929F92AF9209
:10389000BF92CF92DF92EF92FF920F931F93CF933D
:1038A000DF93EC016B0149015A016BE879E0888DE7
:1038B000998D0E94D826609198047091990440E1F6
:1038C00050E0888D998D0E94672763E879E0888DA4
:1038D000998D0E94D826088D198D4AE050E06AE241
:1038E00070E0C8010E946727C8010E946D2786E921
:1038F000E82E84E0F82E01E010E0F7018489958934
:10390000A689B789892B8A2B8B2BE1F0B801888D8A
:10391000998D0E94F11F60E879E0888D998D0E9451
:10392000D826F70144895589668977892AE030E0ED
:10393000888D998D0E945A2763EC73E0888D998D4C
:103940000E9471270F5F1F4FF4E0EF0EF11C06304D
:10395000110599F663EC73E0888D998D0E947127AB
:1039600081149104A1F000E0A5019401B601CE01FB
:103970000E94741BDF91CF911F910F91FF90EF90E8
:10398000DF90CF90BF90AF909F908F900895CE0121
:10399000DF91CF911F910F91FF90EF90DF90CF902B
:1039A000BF90AF909F908F900C94991BEF92FF92D5
:1039B0000F931F93CF93DF9300D0CDB7DEB786E987
:1039C00094E00E9498280E94D31A811120C00E947E
:1039D000C7199093990480939804809196049091CC
:1039E000970406E914E09C01265934407901C70187
:1039F000800F911FF80161918F019A838983CE0115
:103A000001960E94AF0DF4E0003C1F0781F70F9074
:103A10000F90DF91CF911F910F91FF90EF9008953C
:103A2000CF93DF93282F30E0F901E459F64F8491CA
:103A3000F901E85AF54FD491F901EC5BF54FC491C7
:103A4000CC2391F081110E94E619EC2FF0E0EE0FEB
:103A5000FF1FE05DF54FA591B491EC91ED2381E05E
:103A600090E021F480E002C080E090E0DF91CF910F
:103A700008950F931F93CF93DF93EC0180911B0563
:103A800090911C05092E000CAA0BBB0B8BA39CA3C9
:103A9000ADA3BEA381E090E09093F0038093EF0389
:103AA0000E94AE296F8F78A389A39AA3CE010E94AA
:103AB000DE068E01045E1F4F66EA72E0C8010E94B6
:103AC0003735892B41F161EB71E0C8010E94373530
:103AD000892B49F58AE00E94101D892BE1F46CE6E0
:103AE0007AE0888D998D0E94D82665E572E0888DF0
:103AF000998D0E94FC266BE272E0888D998D0E9460
:103B0000FC2663E672E0888D998D0E947127888D6E
:103B1000998D0E946D2741EE58E060E070E020E052
:103B2000CE010E94AB1ADF91CF911F910F910895A2
:103B30000F93CF93DF93EC018AE00E94101D019751
:103B400059F58091EB039091EC03DC01ED91FC9130
:103B50000084F185E02D40E050E0BA0109958091A4
:103B6000EB039091EC030E9469088091EB03909124
:103B7000EC030E94DE0625E832E140E050E000E080
:103B800068E773E08091E9039091EA030E94741B57
:103B9000DF91CF910F9108956AE979E0888D998D31
:103BA0000E94832763EC73E0888D998D0E947127B2
:103BB000CE01DF91CF910F910C94B41B1F93CF9343
:103BC000DF93282F30E0F901E459F64F8491F90191
:103BD000E85AF54FD491F901EC5BF54FC491CC2331
:103BE000C1F0162F81110E94E619EC2FF0E0EE0FC4
:103BF000FF1FE65CF54FA591B4919FB7F8941111A2
:103C000004C08C91D095D82302C0EC91DE2BDC93BC
:103C10009FBFDF91CF911F910895CF93DF9390E0E5
:103C2000FC01E85AF54F2491FC01EC5BF54F8491BF
:103C3000882361F190E0880F991FFC01EE59F64F3F
:103C4000C591D491FC01E65CF54FA591B491611149
:103C500009C09FB7F8948881209582238883EC91CE
:103C60002E230BC0623061F49FB7F8948881322F05
:103C7000309583238883EC912E2B2C939FBF06C015
:103C80008FB7F894E8812E2B28838FBFDF91CF91D7
:103C900008950F931F93CF93DF93EC01162F042FFA
:103CA0001B821A8288EE93E0A0E0B0E08C839D83B3
:103CB000AE83BF8380E591E0998388831F8A1E8A43
:103CC000198E188E1B8E1A8E1D8E1C8E6E8D6E7F19
:103CD0006D7F6E8F6695617081E06827842F0E94EA
:103CE000DE1D61E0802F0E940D1E802F90E0FC0100
:103CF000E85AF54FE491E88BFC01EC5BF54FE49159
:103D0000F0E0EE0FFF1FE65CF54F859194919A8BE2
:103D1000898B60E0812F0E940D1E8E8D81FD04C075
:103D200061E0812F0E94DE1D1C87812F90E0FC0145
:103D3000E85AF54FE491ED87FC01EC5BF54FE49117
:103D4000F0E0EE0FFF1FE05DF54F859194919F87A6
:103D50008E87DF91CF911F910F910895EF92FF927F
:103D60000F931F93CF93DF93EC018A01790179833D
:103D700068831E821D8218861F821A8619861C86F9
:103D80001B860E94AE296D877E878F87988B198A44
:103D90001A8A1B8A1C8AFE8AED8A188E1F8AFE01E7
:103DA000799684E1DF011D928A95E9F743E050E0BE
:103DB000B801CE0102960E941F3461E088810E9402
:103DC0000D1E60E08881DF91CF911F910F91FF90D0
:103DD000EF900C94DE1D8F929F92AF92BF92CF9284
:103DE000DF92EF92FF926B017C010E9489294B01C7
:103DF0005C01C114D104E104F104F1F00E948929AD
:103E0000DC01CB0188199909AA09BB09883E9340B6
:103E1000A105B10570F321E0C21AD108E108F1084B
:103E200088EE880E83E0981EA11CB11CC114D10439
:103E3000E104F10419F7DDCFFF90EF90DF90CF9010
:103E4000BF90AF909F908F900895CF92DF92EF92A6
:103E5000FF920F931F93CF93DF93EC010091EF0339
:103E60001091F00301301105A9F44BA15CA16DA1E3
:103E70007EA18091040590910505A0910605B09161
:103E80000705481759076A077B0721F460E08DE0B2
:103E90000E94DE1D8091ED039091EE03009721F0CA
:103EA000C817D90709F059C00E94AE29CF8CD8A0F5
:103EB000E9A0FAA06C197D098E099F0928EE33E06C
:103EC00040E050E00E945C348BA19CA1ADA1BEA15A
:103ED00082179307A407B50710F0012BF1F5CE0167
:103EE0000E94DE06E881F9810084F185E02D40E042
:103EF00050E0BA01CE0109958091EF039091F00353
:103F0000892B59F140E0BE01645E7F4F85E090E06F
:103F10000E94350E41E063E97AE085E090E00E947E
:103F2000790E41E061E87AE084E090E00E94790E49
:103F300041E063EC73E084E090E00E94350E109263
:103F4000F0031092EF0380EC94E00E946D29892B1E
:103F500021F08AE893E00E94A908E881F9810680AF
:103F6000F781E02D40E060E070E0CE01DF91CF917D
:103F70001F910F91FF90EF90DF90CF900994CF9217
:103F8000DF92EF92FF920F931F93CF93DF9377FF10
:103F90001DC06A017B01EC016DE20E94D1268C01FB
:103FA00044275527BA014C195D096E097F092AE09B
:103FB000CE010E941127800F911FDF91CF911F9199
:103FC0000F91FF90EF90DF90CF9008952AE0DF915E
:103FD000CF911F910F91FF90EF90DF90CF900C94B5
:103FE0001127AB01770F660B770B0C94BF1FCF9295
:103FF000DF92EF92FF920F931F93CF93DF93EC0129
:104000006B017A018B859C858E01075E1F4F861799
:104010009707A1F44AE050E0B801C7010E9421359A
:10402000892B71F1B701CE010E94680A892B31F406
:10403000B801CE010E94680A892B11F10E949209F1
:104040001E821D8218861F821A861986DC86CB8600
:10405000D701F801CE018D962D913D912193319399
:10406000E817F907C9F760E070E0CE01DF91CF9162
:104070001F910F91FF90EF90DF90CF900C94320A38
:10408000DF91CF911F910F91FF90EF90DF90CF9034
:104090000895CF93DF93CDB7DEB764970FB6F8944A
:1040A000DEBF0FBECDBFAE014F5F5F4F24E1FA010F
:1040B00011922A95E9F724EF31E03A8329833C8372
:1040C0002B8363E070E00E94F71F64960FB6F894AC
:1040D000DEBF0FBECDBFDF91CF9108954F925F92AB
:1040E0006F927F928F929F92AF92BF92CF92DF9208
:1040F000EF92FF920F931F93CF93DF93CDB7DEB76D
:1041000064970FB6F894DEBF0FBECDBF8C017C0163
:104110008FE3E80EF11CD7018D919C910E946728D6
:10412000F701208131818091F7039091F8032817DE
:10413000390739F062E070E080E090E00E94EB1E09
:10414000EFCF64E170E080E090E00E94EB1E40E081
:1041500064E67CE086E090E00E94790E0E94AE2941
:10416000AB01BC01D80157964D935D936D937C9341
:104170005A9721E086E090E00E94590D4090FC049F
:104180005090FD046090FE047090FF04F801878C4D
:1041900090A0A1A0B2A0840C951CA61CB71C83AA59
:1041A00094AAA5AAB6AA23A134A145A156A1C0905C
:1041B0000005D0900105F0910205E091030521155D
:1041C00031054105510519F496014F2F5E2FA8EED8
:1041D000B3E00E947E34860E971EA81EB91ED80139
:1041E000D7968D929D92AD92BC92DA978091F80409
:1041F0009091F904A091FA04B091FB04480E591E65
:104200006A1E7B1EA8EEB3E096014F2F5E2F0E9420
:104210007E34DC01CB01840D951DA61DB71DF80170
:1042200087A790ABA1ABB2AB40E061E57CE086E054
:1042300090E00E94790ED8015B964D915D916D9151
:104240007C915E9721E086E090E00E94590D40E06D
:1042500064E37CE086E090E00E94790EF801478DEF
:1042600050A161A172A121E086E090E00E94590D69
:1042700040E06DE17CE086E090E00E94790ED8019C
:1042800057964D915D916D917C915A975B968D916A
:104290009D910D90BC91A02D481B590B6A0B7B0B77
:1042A00021E086E090E00E94590D40E06DEF7BE058
:1042B00086E090E00E94790EF8014789508D618D6B
:1042C000728D878D90A1A1A1B2A1481B590B6A0BD9
:1042D0007B0B21E086E090E00E94590D40E065EE06
:1042E0007BE086E090E00E94790ED8019F964D9188
:1042F0005D916D917C91D29721E086E090E00E94E3
:10430000590DF8018789908DA18DB28D438D548D03
:10431000658D768D841B950BA60BB70B4091F80429
:104320005091F9046091FA047091FB044817590701
:104330006A077B0708F07EC240E063EB7BE086E023
:1043400090E00E94790ED801ED91FC910280F381FA
:10435000E02DC801099540E0BC0186E090E00E9494
:10436000350E40E060EB7BE086E090E00E94790E45
:1043700041E0F801628186E090E00E940C16D701CE
:104380008D919C91DC01ED91FC910084F185E02DF3
:104390000995892B09F435C1F70180819181DC01F0
:1043A000ED91FC910084F185E02D0995892B09F4AC
:1043B00041C2F801D688FFE0FD1528F0D801129619
:1043C0008C91D81620F0C8010E94E016E5CFF701C5
:1043D00080819181DC01ED91FC910284F385E02DD7
:1043E0000995F801ED0DF11D868340E06EEA7BE052
:1043F00086E090E00E94790E40E0F801668986E050
:1044000090E00E940C1640E06CEA7BE086E090E0D1
:104410000E94790ED80156968C91F801E80FF11D93
:10442000D68080ED8D0D8A3028F08D2D8F7D8154C2
:104430008630A0F40E949209069784F00E948408B6
:10444000882339F06D2D80911F05909120050E94E1
:10445000D1266D2D89EF93E00E94D12640E066E9D8
:1044600073E086E090E00E94350EF8018689E80F3F
:10447000F11DD6800E949209069734F040E060E179
:1044800070E08D2D0E94BC1540E066E973E086E087
:1044900090E00E94350ED80156968C91F801E80FF5
:1044A000F11DD6800E949209069734F040E06AE040
:1044B00070E08D2D0E94BC15F80192819150868983
:1044C000811105C02681223009F07DCF0CC29813DE
:1044D0000DC0F801E90FF11D96819330C9F0C801B4
:1044E0000E94E01641E063EC73E00DC09817B8F34A
:1044F0008031A8F7891770F48F5FD80156968C9396
:1045000040E068E973E086E090E00E94350E44CF19
:10451000803128F741E063EC73E086E090E00E9490
:10452000350ED801ED91FC910280F381E02DC80198
:10453000099540E0BC0185E090E00E94350E41E025
:104540006EE87BE085E090E00E94790ED801ED9165
:10455000FC910190F081E02DB8016A5F7F4FC801A6
:1045600009956B017C0140E06DE67BE085E090E021
:104570000E94790E21E0B701A60185E090E00E943B
:10458000590DC114D104E104F10421F440E06EE3BB
:104590007BE0B8C1E091F103F091F203168215823D
:1045A00060E080810E94DE1DE091F503F091F6034A
:1045B000168215821086178212861186AE014F5F11
:1045C0005F4F84E1DA011D928A95E9F786E490E075
:1045D0009A83898361E070E0CF010E94F71FEAEAC5
:1045E000F4E08EEB94E04191519161917191C41688
:1045F000D506E606F70609F479C18E179F0799F7E5
:10460000C5CFD8015796CD90DD90ED90FC905A978C
:104610005B968D909D90AD90BC905E972601370182
:10462000481859086A087B0893962D913D914D9141
:104630005C919697211531054105510541F4209172
:104640000005309101054091020550910305A8EE47
:10465000B3E00E947E34641575058605970528F041
:1046600089288A288B2809F0E5C0F80187A990AD30
:10467000A1ADB2ADC816D906EA06FB0650F4F801A2
:10468000878D90A1A1A1B2A1892B8A2B8B2B09F038
:1046900011C140E06BEF7AE084E090E00E94790E77
:1046A000D8015B96CD90DD90ED90FC905E97C114A3
:1046B000D104E104F10409F4F5C057968D919D9160
:1046C0000D90BC91A02DBC01CD016C197D098E0906
:1046D0009F0928EE33E040E050E00E945C34BA01CC
:1046E000A90120E084E090E00E94590D40E065EFD0
:1046F0007AE084E090E00E94790E40E065EE7AE096
:1047000084E090E00E94790EF801C78CD0A0E1A06F
:10471000F2A0C114D104E104F10409F4C7C08789EF
:10472000908DA18DB28DBC01CD016C197D098E09D2
:104730009F0928EE33E040E050E00E945C34BA016B
:10474000A90120E084E090E00E94590D40E06FED67
:104750007AE084E090E00E94790E40E06FEC7AE02D
:1047600084E090E00E94790E0E94AE296B017C01EA
:10477000198228EE33E040E050E00E945C348CE384
:10478000882E912CA12CB12CCA01B901A50194014C
:104790000E945C349F938F937F936F93C701B60100
:1047A00020E63AEE40E050E00E945C34CA01B901D4
:1047B000A50194010E945C349F938F937F936F9324
:1047C000C701B60120E83EEE46E350E00E945C34AB
:1047D0005F934F933F932F938AE993E09F938F9337
:1047E000CE0101967C019F938F930E947F3541E01B
:1047F000B70184E090E00E94350E41E06AEA7AE079
:1048000086E090E00E94790ED80115966C9181E0C7
:10481000682785E00E94DE1DF8018789908DA18DB3
:10482000B28D878F90A3A1A3B2A30FB6F894DEBF79
:104830000FBECDBF40E066EA73E086E090E00E94E4
:10484000350EF80143AD54AD65AD76AD21E086E09F
:1048500090E00E94590D40E064ED7BE086E090E03E
:104860000E94790E0E94AE29AB01BC0121E086E0D6
:1048700090E00E94590D64960FB6F894DEBF0FBE0B
:10488000CDBFDF91CF911F910F91FF90EF90DF90FF
:10489000CF90BF90AF909F908F907F906F905F90E0
:1048A0004F90089540E06FEE7AE023CF40E069ED4D
:1048B0007AE04FCFF80183A994A9A5A9B6A9C81693
:1048C000D906EA06FB0608F4B5CF41E068E17BE0D3
:1048D00086E090E00E94790ED80115966C9185E0F3
:1048E0000E94DE1DA7CF911107CEF3CDF801878975
:1048F000908DA18DB28D838F948FA58FB68F40E060
:104900006CE57BE084E090E00E94790E21E0B70145
:10491000A60184E090E00E94590DF801C3AED4AE28
:10492000E5AEF6AEC8010E94E01684CFCF92DF92CA
:10493000EF92FF920F931F93CF93DF936C017A0155
:104940008B01C0E0D0E0CE15DF0581F0D8016D917C
:104950008D01D601ED91FC910190F081E02DC60111
:104960000995892B11F02196EECF7E01C701DF91C9
:10497000CF911F910F91FF90EF90DF90CF9008950E
:10498000FC01538D448D252F30E0842F90E0821B55
:10499000930B541710F0CF96089501970895FC01DA
:1049A000918D828D981761F0828DDF01A80FB11D66
:1049B0005D968C91928D9F5F9F73928F90E008958A
:1049C0008FEF9FEF0895FC01918D828D981731F044
:1049D000828DE80FF11D858D90E008958FEF9FEF98
:1049E0000895FC01918D228D892F90E0805C9F4F6E
:1049F000821B91098F739927089589EF93E00E9494
:104A0000F12421E0892B09F420E0822F0895FC0194
:104A1000848DDF01A80FB11DA35ABF4F2C91848D47
:104A200090E001968F739927848FA689B7892C937C
:104A3000A089B1898C91837080648C93938D848DCF
:104A4000981306C00288F389E02D80818F7D8083D2
:104A50000895EF92FF920F931F93CF93DF93EC0192
:104A600081E0888F9B8D8C8D981305C0E889F9892A
:104A7000808185FD26C0F62E0B8D10E00F5F1F4F45
:104A80000F731127E02E8C8DE8120CC00FB607FCB7
:104A9000FACFE889F989808185FFF5CFCE010E94A0
:104AA0000725F1CF8B8DFE01E80FF11DE35AFF4F73
:104AB000F0829FB7F8940B8FEA89FB89808180622E
:104AC0000AC09FB7F894EE89FF896083E889F98965
:104AD00080818370806480839FBF81E090E0DF915C
:104AE000CF911F910F91FF90EF900895CF93DF9397
:104AF000EC01888D8823C9F0EA89FB89808185FDD6
:104B000005C0A889B9898C9186FD0FC00FB607FC36
:104B1000F5CF808185FFF2CFA889B9898C9185FF77
:104B2000EDCFCE010E940725E7CFDF91CF91089509
:104B300080E090E0892B29F00E94FD2481110C94E3
:104B4000000008952091F7033091F80328173907E2
:104B500071F49091690580916805981741F0E09192
:104B60006905F0E0E85DFA4F808190E008958FEFED
:104B70009FEF089508951F93CF93DF93DC015C9618
:104B80008D919C915D97009739F421E030E0139668
:104B90003C932E9312973BC05196ED91FC91529706
:104BA00050962C915097322F30951FB75E964C91AE
:104BB0005E97742F727041FD6095F8944081772361
:104BC00011F0422B01C043234083EC012197F1F700
:104BD00048E0508160FF02C0522B01C05323508334
:104BE000EC012197F1F76695415099F78081772381
:104BF00019F08323808302C0282B20831FBF5C967B
:104C00008D919C915D970197F1F781E090E0DF91A4
:104C1000CF911F9108952091F7033091F803281741
:104C2000390771F4809168052091690590E0805CF6
:104C30009F4F821B910960E470E00E94CF34089579
:104C400080E090E008952091F7033091F803281751
:104C50003907B9F49091690580916805981789F032
:104C6000E0916905F0E0E85DFA4F808120916905E7
:104C700030E02F5F3F4F2F7333272093690590E07B
:104C800008958FEF9FEF0895089580E090E00895D4
:104C90000E941C3590910001891324C0E1E9FCE0D9
:104CA000E4919FEF90930001E130B9F098F0E23089
:104CB000C9F4909170009D7F9093700091E0909363
:104CC000B0009091B100987F94609093B1001092E1
:104CD000B30008C010926E0005C090916F009D7FD8
:104CE00090936F0060E00C94DE1D1F920F920FB640
:104CF0000F9211242F933F934F935F936F937F9362
:104D00008F939F93AF93BF93EF93FF93809124056D
:104D100090912505A0912605B0912705892B8A2B16
:104D20008B2B51F190912305E0912105F091220503
:104D30008081892780838091240590912505A09109
:104D40002605B0912705181619061A061B06C4F485
:104D50008091240590912505A0912605B091270505
:104D60000197A109B1098093240590932505A0938B
:104D70002605B093270504C0809100010E944A26B1
:104D8000FF91EF91BF91AF919F918F917F916F9123
:104D90005F914F913F912F910F900FBE0F901F90F9
:104DA0001895DC01ED91FC910190F081E02D0994C2
:104DB000EF92FF920F931F93CF93DF938C017B01B0
:104DC000C0E0D0E0F701EC0FFD1F6491662361F0B5
:104DD000D801ED91FC910190F081E02DC801099579
:104DE000892B11F02196EECFCE01DF91CF911F914B
:104DF0000F91FF90EF9008956115710579F0FB0117
:104E000001900020E9F73197AF01461B570BDC01F9
:104E1000ED91FC910280F381E02D099480E090E017
:104E200008958F929F92AF92BF92EF92FF920F934D
:104E30001F93CF93DF93CDB7DEB7A1970FB6F8944A
:104E4000DEBF0FBECDBF7C01FA01CB0119A222301B
:104E500008F42AE08E010F5D1F4F822E912CA12CA9
:104E6000B12CBF01A50194010E945C34F901CA0173
:104E7000015011096A3014F4605D01C0695CD80109
:104E80006C93232B242B252B61F7B801C7010E94BB
:104E9000FC26A1960FB6F894DEBF0FBECDBFDF9102
:104EA000CF911F910F91FF90EF90BF90AF909F9087
:104EB0008F9008952115310541F4DC01ED91FC91AD
:104EC0000190F081E02D642F09940C9411279A0130
:104ED000AB0160E070E00C945A2761EC73E00C9435
:104EE000FC260F931F93CF93DF93EC010E94FC26C7
:104EF0008C01CE010E946D27800F911FDF91CF9111
:104F00001F910F9108950F931F93CF93DF93EC019F
:104F10000E94D8268C01CE010E946D27800F911F20
:104F2000DF91CF911F910F9108951F920F920FB6AD
:104F30000F9211242F933F934F935F936F937F931F
:104F40008F939F93AF93BF93EF93FF9389EF93E07A
:104F50000E940725FF91EF91BF91AF919F918F9193
:104F60007F916F915F914F913F912F910F900FBE65
:104F70000F901F9018951F920F920FB60F92112449
:104F80002F938F939F93EF93FF93E0910904F091F8
:104F90000A048081E0910F04F091100482FD12C098
:104FA0009081809112048F5F8F7320911304821778
:104FB00051F0E0911204F0E0E750FC4F958F8093A0
:104FC000120401C08081FF91EF919F918F912F91E9
:104FD0000F900FBE0F901F9018951F920F920FB653
:104FE0000F9211242F933F934F935F936F937F936F
:104FF0008F939F93AF93BF93EF93FF93E091F7034A
:10500000F091F803309709F451C0968DA685B785C5
:10501000858591FF04C09C91892329F447C09C9108
:10502000892309F043C0A389B4899C91858980951F
:1050300089238C93868997890197F1F7608D718D0B
:10504000A685B785558538E020E0CB010197F1F7BB
:10505000822F90E095958795282F4C91452309F054
:105060002068315091F7868D81FD209580916805EB
:1050700090E001968F73992730916905381749F0B0
:10508000A0916805B0E0A85DBA4F2C9380936805A5
:1050900003C0868D8160868F828D938D0197F1F795
:1050A000A389B4899C918589892B8C93FF91EF9179
:1050B000BF91AF919F918F917F916F915F914F9130
:1050C0003F912F910F900FBE0F901F901895CF9387
:1050D000DF93FC01828D938D892B31F1A091F70331
:1050E000B091F803EA17FB07F9F0109751F05396C7
:1050F000CD91DC915497988155968C918095892318
:105100008883868D8E7F868F109268051092690540
:10511000F093F803E093F703A389B4899C91858900
:10512000892B8C9381E001C080E0DF91CF910895BD
:10513000CF92DF92EF92FF9220E030E04FEF5FEFEF
:10514000D901AA0FBB1FAA0FBB1FA80FB91F5496E6
:10515000CD90DD90ED90FC905797C114D104E104FF
:10516000F10431F44F3F6FEF5607F1F4A9011CC071
:1051700021153105C9F04F3F6FEF5607A9F0FA012D
:105180003596EE0FFF1FEE0FFF1FE80FF91FC082CD
:10519000D182E282F38254961D921D921D921C923E
:1051A00057979A014FEF5FEF2F5F3F4F2530310543
:1051B0003CF2FF90EF90DF90CF9008950F931F93F4
:1051C000CF93DF93EC018C010C5F1F4F40E150E067
:1051D00064EC73E0C8010E941F348CEB92E0998369
:1051E0008883FE01749684E1DF011D928A95E9F7B8
:1051F000F9A7E8A78C8181110BC040E150E069EC70
:1052000073E0C801DF91CF911F910F910C941F346F
:10521000DF91CF911F910F910895CF93DF93EC0110
:105220000E940C0E2A813B818217930739F49C015E
:105230002150310981E02E3F3F4F08F080E0DF919F
:10524000CF910895CF92DF92EF92FF920F931F9329
:10525000CF93DF9300D0CDB7DEB78C010E940D292C
:10526000811120C0C8010E940C0EF8019383828333
:10527000E080F1806801FFE5CF0ED11CE01AF10A51
:10528000C701800F911FF80161918F019A83898373
:10529000CE0101960E94AF0D0C151D0589F701E0A6
:1052A00010E002C000E010E040E067E77CE084E04E
:1052B00090E00E94790E41E0B80184E090E00E9405
:1052C000C80DC8010F900F90DF91CF911F910F91E2
:1052D000FF90EF90DF90CF900895CF93DF93EC0194
:1052E0008BE00E94101D892B79F08091E0038111E1
:1052F0000BC0C65BDF4F81E090E02881398121300F
:10530000310521F080E002C081E090E0DF91CF9193
:1053100008953FB7F89480916F0590917005A09122
:105320007105B091720526B5A89B05C02F3F19F0F5
:105330000196A11DB11D3FBFBA2FA92F982F882715
:10534000820F911DA11DB11DBC01CD0142E0660F70
:10535000771F881F991F4A95D1F708952FB7F894A2
:1053600060916B0570916C0580916D0590916E0553
:105370002FBF08951F920F920FB60F9211242F93F3
:105380003F938F939F93AF93BF9380916B059091C1
:105390006C05A0916D05B0916E0530916A0523E012
:1053A000230F2D3720F40196A11DB11D05C026E85D
:1053B000230F0296A11DB11D20936A0580936B05F2
:1053C00090936C05A0936D05B0936E0580916F0569
:1053D00090917005A0917105B09172050196A11D83
:1053E000B11D80936F0590937005A0937105B093E4
:1053F0007205BF91AF919F918F913F912F910F9027
:105400000FBE0F901F901895CF93DF93CDB7DEB7E7
:1054100066970FB6F894DEBF0FBECDBF789484B503
:10542000826084BD84B5816084BD85B5826085BDA0
:1054300085B5816085BD80916E00816080936E002E
:105440001092810080918100826080938100809120
:1054500081008160809381008091800081608093D1
:1054600080008091B10084608093B1008091B00091
:1054700081608093B00080917A00846080937A008C
:1054800080917A00826080937A0080917A008160B6
:1054900080937A0080917A00806880937A001092DD
:1054A000C10062E08AE00E940D1E62E08CE00E9472
:1054B0000D1E62E08BE00E940D1E61E085E00E94FF
:1054C0000D1E61E08DE00E940D1E8BE00E94101DFC
:1054D00021E0892B09F020E02093E00360E071EEE9
:1054E00080E090E00E94391A409111055091120518
:1054F000609113057091140580911F05909120050E
:105500000E94E51A69E170E080E090E00E94EB1EE5
:1055100041E061E375E084E090E00E94790E41E0B3
:105520006EE075E084E090E00E94790E80EC94E0FB
:105530000E946D29892B21F08EE292E00E94A90839
:1055400041E067E773E085E090E00E94790E8CE02F
:105550000E94101D892B31F441E06CE473E084E07B
:1055600090E030C050ECE52E54E0F52E00E213E060
:10557000C8010E943634D7018D937D010F5F1F4F04
:105580000F37B3E01B07A1F780E293E09093C104CB
:105590008093C00480EC94E00E940D29811107C023
:1055A00041E06BE872E083E090E00E94790E80ECCD
:1055B00094E00E940D29811107C041E06CE273E084
:1055C00083E090E00E94790E80EC94E00E940D2927
:1055D000882329F08CE00E94101D892B41F541E0C1
:1055E00060E073E083E090E00E94790E8FE590E048
:1055F0000E94D8318C010E9447158FE5F801A0EC7C
:10560000B4E001900D928A95E1F740E250E069EC38
:1056100072E084ED94E00E941F3480E293E0909366
:10562000C1048093C00440E066ED72E003C040E036
:105630006DEA72E084E090E00E94790E40E064ED53
:1056400074E084E090E00E94350E41E063E572E092
:1056500084E090E00E94350E4091110550911205B2
:10566000609113057091140580911F05909120059C
:105670000E94E51A89EF93E00E94762560910D055E
:1056800070910E0580910F05909110050E94391AB6
:1056900069E170E080E090E00E94EB1E40E06EEE79
:1056A00074E084E090E00E94790E40E065E572E0ED
:1056B00084E090E00E94350E40E06BEE74E084E000
:1056C00090E00E94790E41E063E672E084E090E0B1
:1056D0000E94350E40E069ED74E085E090E00E94A4
:1056E000790E40E064ED74E085E090E00E94350EB4
:1056F00040E065EC74E085E090E00E94790E80EC7B
:1057000094E00E940C0E8C010E9492090597A4F06F
:105710000E948408882349F040E150E0B80180915C
:105720001F05909120050E94672740E150E0B801D5
:1057300089EF93E00E94672740E06AEB74E085E020
:1057400090E00E94790E0E949209059724F10E9430
:105750008408882391F04AE050E06FE570E0809182
:105760001F05909120050E94672763EC73E08091EC
:105770001F05909120050E9471274AE050E06FE5D7
:1057800070E089EF93E00E94672763EC73E089EF94
:1057900093E00E94712740E06CE974E084E090E0BF
:1057A0000E94790EC0900D05D0900E05E0900F0577
:1057B000F09010050E949209049724F0C701B601E9
:1057C0000E940F1A40E069E874E084E090E00E94D3
:1057D000790E0091E0030E9492090497FCF00E9468
:1057E000840810E0882379F0B80180911F0590911A
:1057F00020050E94F11F63EC73E080911F059091DA
:1058000020050E947127B80189EF93E00E94F11FE3
:1058100063EC73E089EF93E00E94712740E06CE74E
:1058200074E084E090E00E94790E0E94920941E0C9
:10583000BC0184E090E00E94C80D0E949209049788
:105840000CF43FC041E063EC73E084E090E00E9420
:10585000350E69EF73E080EC94E00E94B61463ECBF
:1058600073E089EF93E00E94712789EF93E00E9433
:10587000591663EC73E089EF93E00E9471270E9450
:1058800084088823F1F060911F057091200580EC59
:1058900094E00E94B61463EC73E080911F05909130
:1058A00020050E94712780911F05909120050E947C
:1058B000591663EC73E080911F05909120050E94BA
:1058C000712780EC94E00E946D29892B21F089E7F3
:1058D00092E00E94A9088DE290E00E94D8318C01EC
:1058E00020E030E04DE852E068E070E00E94AE1E3B
:1058F0001093F2030093F1038DE290E00E94D831FF
:105900008C0120E030E040E952E067E070E00E9466
:10591000AE1E1093F4030093F3038DE290E00E9417
:10592000D8318C0120E030E043E952E066E070E0DD
:105930000E94AE1E1093F6030093F5038DE290E0F3
:105940000E94D8318C012091190530911A0546E941
:1059500052E069E070E00E94AE1E1093E8030093ED
:10596000E7038FE190E00E94D8318C0144E164E0CC
:105970000E94491E1093E4030093E30380910C05F9
:105980008230E9F08330D9F581E490E00E94D8318B
:105990007C0100E02AE043E06DE00E94EB1683E129
:1059A00091E0D7018D939C9340E06FE973E084E030
:1059B00090E00E94790E41E06FE972E01AC081E444
:1059C00090E00E94D8317C0101E027E044E06AE0E9
:1059D0000E94EB168BE091E0F7019183808340E019
:1059E0006EE873E084E090E00E94790E41E069E99E
:1059F00072E084E090E00E94350E870108C081E4E7
:105A000090E00E94D8317C010E942D1787011093ED
:105A1000E2030093E1038091E3039091E403F80132
:105A2000FF96918380838AE090E00E94D8317C01C8
:105A3000C090E703D090E803809108059091090594
:105A40008230910529F480E090E00E94363490E0A5
:105A5000F701918380831383028381EF93E0958321
:105A60008483D782C68211861086F092E603E09284
:105A7000E50385E490E00E94D8317C0194E1A92EF1
:105A8000F7013296DF012A2D1D922A95E9F7CC24E1
:105A9000CA94DC2CD7015796DC92CE9256973BE104
:105AA000832E31E0932E11969C928E9289EF93E093
:105AB00059969C938E9358975B961C930E935A9786
:105AC000F701178E10A211A212A293961D921D9299
:105AD0001D921C92969748E1B42EB796DF012B2DAC
