:100000000C947D050C94A5050C94A5050C94CC25A9
:100010000C94CC250C94CC250C94A5050C9481242F
:100020000C94A5050C94A5050C94A5050C94A505A8
:100030000C94A5050C94A5050C94A5050C94A50598
:100040000C9494270C94A5050C949A250C94742573
:100050000C94A5050C94A5050C94A5050C94A50578
:100060000C94A5050C94A50597089E08A408BB0848
:10007000D108E408E808110915092509080E130E2E
:100080001E0E290E340E510E580E5F0E640E6F0EAA
:100090007A0E850E8C0E930E66117F119811B11198
:1000A000CC11E711EA11ED11151230124B12661244
:1000B00069126F1243616C6C696E6720454550523E
:1000C0004F4D2E7570646174652077697468207077
:1000D000726F78696D6974795F73746174653A20C1
:1000E00000292000465245452052414D2028004D10
:1000F000656E753A3A636C65617253657269616CDD
:10010000506F72742829004D656E753A3A726573A6
:100110006574496E7075744275666665722829004B
:100120004D656E753A3A67657454616746726F6DD6
:100130005363616E6E6572282920666F756E642048
:100140007461672000636865636B53657269616CF5
:10015000506F727420454F4C20696E64783A2000CD
:10016000636865636B53657269616C506F72742864
:1001700029207263766420627974653A2000616494
:100180006454616728292061626F727465643A2043
:10019000496E76616C696420636F646500616464B4
:1001A0005461672829207375636365737300616404
:1001B000645461672829206661696C65643A20444B
:1001C00075706500616464546167282920666169FF
:1001D0006C65643A2046756C6C00616464546167B8
:1001E000282920006661696C65642C207461672091
:1001F0006973206475706C69636174650066616918
:100200006C65642C20746167206C69737420697359
:100210002066756C6C0061626F727465642C206975
:100220006E76616C6964207461672D6964207374F3
:1002300072696E670073756363657373004164640C
:10024000546167282920726573756C743A200054D4
:10025000616720656E74657265643A200064656C40
:10026000657465546167496E64657828293A200091
:1002700044656C65746554616728292072657375DF
:100280006C743A200064656C657465546167282954
:100290002061626F72746564004D656E753A3A64F0
:1002A000656C65746554616728290064656C6574C4
:1002B00065416C6C5461677328290064656C6574D2
:1002C00065416C6C5461677328292061626F727498
:1002D00065640075706461746553657474696E67F4
:1002E00028292063616C6C20746F20532E75706414
:1002F00061746553657474696E6728292066616945
:100300006C65640075706461746553657474696EBE
:100310006728292061626F72746564004D656E758F
:100320003A3A75706461746553657474696E6728D0
:10033000293A20004D656E753A3A62797465546FBA
:1003400041736369694368724E756D2072637664A8
:1003500020627974653A20004D656E753A3A6D6594
:100360006E754164645461672829004D656E753A65
:100370003A6D656E7544656C6574655461672829CE
:10038000004D656E753A3A6D656E7544656C6574C1
:1003900065416C6C5461677328290046726565205D
:1003A0004D656D6F72793A20004D656E753A3A6D04
:1003B000656E7553686F77467265654D656D6F72D2
:1003C000792829004D656E753A3A6D656E755265EE
:1003D000626F6F742829006D656E7553656C656377
:1003E0007465644D61696E4974656D2062797465E8
:1003F0007320746F206E756D3A20006D656E7553B5
:10040000656C65637465644D61696E4974656D20E2
:100410007263766420646174613A200053746F7271
:100420006167653A3A4C6F616428292063686563A7
:100430006B73756D206D69736D61746368005365CE
:100440007474696E67733A3A4C6F61642829207539
:1004500073696E67206C6F61646564207365747482
:10046000696E677320270053657474696E67733A09
:100470003A4C6F61642829207573696E6720646542
:100480006661756C742073657474696E6773202778
:100490000053657474696E67733A3A4C6F616428EF
:1004A000292063686B736D206D69736D6174636877
:1004B000004661696C7361666520656E61626C659A
:1004C000642C20736B697070696E672073746F722F
:1004D00065642073657474696E6773004C6F616442
:1004E000696E67207265616465723A20004C6F61C5
:1004F00064696E67207265616465723A20005365B5
:100500007474696E67206F75747075742073776981
:10051000746368207065722070726F78696D697499
:10052000795F73746174653A200053746172746901
:100530006E6720436F6E74726F6C6C6572207769A2
:10054000746820726561646572200053746F726113
:1005500067653A3A4C6F6164282920636865636B6C
:1005600073756D206D69736D6174636800546167A4
:10057000733A3A4C6F6164282920636865636B7332
:10058000756D206D69736D617463682C206372658D
:100590006174696E67206E6577207461672D73657D
:1005A000740054616773206C6F6164656420004D52
:1005B000656E753A3A426567696E282900496E6929
:1005C0007469616C697A65642073657269616C2015
:1005D000706F72742077697468206C6F61646564F1
:1005E0002073657474696E673A200027206F662057
:1005F00073697A65200027207769746820636865CD
:10060000636B73756D20273078004C6F616465648F
:100610002053657474696E6773202700496E69748E
:1006200069616C697A65642064656661756C7420C3
:1006300073657269616C20706F7274204020353769
:1006400036303020626175640044656275672070E1
:10065000696E207374617475733A20002C20004217
:100660006F6F74696E6720524649442070726F78CC
:10067000696D6974792073656E736F722C20006CDC
:100680006F675F746F5F62740061646D696E5F7342
:100690007461727475705F74696D656F75740074E0
:1006A0006F6E655F6672657175656E6379007266FF
:1006B00069645F626175640062745F6261756400A1
:1006C00068775F73657269616C5F6261756400640D
:1006D000656661756C745F72656164657200656EF4
:1006E00061626C655F64656275670070726F7869DE
:1006F0006D6974795F73746174655F73746172742A
:1007000075700061646D696E5F74696D656F757495
:10071000007265616465725F6379636C655F6869C7
:1007200067685F6475726174696F6E007265616499
:1007300065725F6379636C655F6C6F775F64757218
:100740006174696F6E007461675F726561645F7385
:100750006C6565705F696E74657276616C0074615A
:10076000675F6C6173745F726561645F74696D6506
:100770006F7574003A20006D656E7553656C656326
:1007800074656453657474696E672073657420734F
:10079000656C65637465645F6D656E755F697465CE
:1007A0006D20746F3A20004D656E753A3A6D656E36
:1007B0007553656C656374656453657474696E67BD
:1007C00028290053656C65637465643A2000436DA5
:1007D000643A20004C6F6164696E672072656164E1
:1007E00065723A20005E0746072C0711070307EBE6
:1007F00006DE06CF06C006B806AE069F0689067F4F
:10080000062C2073697A65200053657474696E67DD
:10081000732C2063686B736D203078007570646191
:10082000746541646D696E54696D656F75742829CE
:100830003A20004D656E753A3A726561644C696E96
:10084000655769746843616C6C6261636B28290049
:10085000456E746572696E672072756E206D6F6487
:1008600065002073657474696E672072756E5F6DC4
:100870006F6465203D3E2030004D656E753A3A65E7
:1008800078697441646D696E2829004D454E552084
:100890004C4F4F5020454E44004D454E55204C4F37
:1008A0004F5020424547494E3A20002C2075707425
:1008B000696D6520006E6576657200732061676FF3
:1008C000002C206379636C656420006E6576657228
:1008D00000732061676F006379636C6552656164C2
:1008E0006572506F77657228292074616720726580
:1008F00061642000556E617574686F72697A656411
:10090000206F7220696E76616C6964207461673A49
:100910002000417574686F72697A6564207461673C
:100920003A200000000000240027002A00000000F8
:10093000080002010000030407000000000000009E
:100940000020746F206164647265737320005361CA
:1009500076696E67207461677320776974682063B5
:100960006865636B73756D203078002E20002C2035
:1009700073697A652000546167732C2063686B7318
:100980006D203078004D656E753A3A6D656E754C28
:10099000697374546167732829004D656E753A3A1E
:1009A0006D656E7553657474696E677328290029C7
:1009B00000526561646572732028004D656E753A5A
:1009C0003A6D656E754C69737452656164657273D6
:1009D000282900392E20425420636F6D6D616E64AA
:1009E00000382E205265737461727400372E204CCB
:1009F000697374207265616465727300362E2053CA
:100A0000686F772066726565206D656D6F7279001D
:100A1000352E2053657474696E677300342E20443C
:100A2000656C65746520616C6C207461677300335C
:100A30002E2044656C6574652074616700322E2039
:100A40004164642074616700312E204C6973742006
:100A50007461677300302E2045786974004D656EAF
:100A600075004D656E753A3A6D656E754D61696ECE
:100A70002829003A20004D656E753A3A627566661F
:100A80006572526561647928293A200000000000EF
:100A900023002600290000000000250028002B006C
:100AA0000404040404040404020202020202030314
:100AB000030303030102040810204080010204081C
:100AC0001020010204081020524649442061646D40
:100AD000696E20636F6E736F6C652C2000536574B4
:100AE00074696E67733A3A73617665282920726576
:100AF00073756C743A200002892D11241FBECFEF4C
:100B0000D8E0DEBFCDBF13E0A0E0B1E0E6E5F8E657
:100B100002C005900D92AA3DB107D9F725E0AAEDD4
:100B2000B3E001C01D92AC37B207E1F715E0CDE7A5
:100B3000D5E004C02197FE010E94F930CC37D107DF
:100B4000C9F70E94DE270C9429340C940000CF933F
:100B5000DF93EC0184EC94E00E944727892B31F06D
:100B600067E071E08DEF93E00E946225FE01B79689
:100B700088E1DF011D928A95E9F77896118210824B
:100B8000CD5BDF4F19821882DF91CF910895CF920C
:100B9000DF92EF92FF920F931F93CF93DF93CDB726
:100BA000DEB768970FB6F894DEBF0FBECDBF8C01DD
:100BB0006C0183E4C80ED11CD6018D919C91892BC8
:100BC00009F488C0F801828D938D0E947719D801AD
:100BD0005A96ED91FC915B9783AD94ADA5ADB6AD02
:100BE000892B8A2B8B2B09F475C084EC94E00E942E
:100BF0004727892B31F060E271E08DEF93E00E948E
:100C00003E2584EC94E00E944727892B91F0D8017F
:100C10005A96ED91FC915B9743AD54AD65AD76ADC1
:100C20002AE08DEF93E00E94DD248DEF93E00E9497
:100C30002625D8015A96ED91FC915B9786AD8F934E
:100C400085AD8F9384AD8F9383AD8F9380E991E0D1
:100C50009F938F93FE0131967F01FF93EF930E9444
:100C6000763148E150E0B7017801F7E2EF0EF11C70
:100C7000C7010E941630F7010FB6F894DEBF0FBE11
:100C8000CDBF80E090E041919C012F5F3F4F41112B
:100C90000EC0F801E80FF91F4AE047A3F801E20F80
:100CA000F31F17A2F801FF963183208304C0C90106
:100CB0002831310541F7D8015A968D919C915B9767
:100CC000FC0113AE14AE15AE16AE0E94C316D601CB
:100CD0001D921C9264E971E0C8014C960E942E316D
:100CE000892B21F5F801E08CF18CC7010E94462682
:100CF0008091FB039091FC03E816F90639F062E05D
:100D000070E080E090E00E945322F2CFD6018D91F6
:100D10009C91892B29F461E070E080E090E004C0B0
:100D20006AE070E080E090E00E945322F801808D3C
:100D3000918DDC01ED91FC910084F185E02D099508
:100D4000892B09F45FC08091F1039091F203892B04
:100D500021F41093F2030093F103409108055091A0
:100D6000090560910A0570910B05C8010E943119AF
:100D7000F60111821082C801CF966C01D8015896F5
:100D80008D919C915997DC01ED91FC910084F18546
:100D9000E02D0995892BB1F1C8010E94D21D811166
:100DA00031C0F801808D918DDC01ED91FC910284C0
:100DB000F385E02D0995F82E84EC94E00E944727F6
:100DC000892B31F060E671E08DEF93E00E943E25C3
:100DD00084EC94E00E944727892B41F06F2D0F2C63
:100DE000000C770B8DEF93E00E94391EBBE1FB12E4
:100DF0003FC08AE0F80187A310A681E090E0D60109
:100E00008D939C93C8010E94D21D882309F475C05C
:100E1000B801695D7F4F48E150E0CE0101960E9424
:100E20001630C8010E94A705D801ED91FC910280FF
:100E3000F381E02DC8010995F801E08CF18CD70110
:100E4000ED91FC910190F081E02D6AE0C7010995D8
:100E5000C7010E942625D801ED91FC910680F781FB
:100E6000E02D41E0BE016F5F7F4FC801099545C08D
:100E70008091F1039091F2030817190759F4F801D2
:100E8000808D918DDC01ED91FC910190F081E02D40
:100E90006F2D0995F60180819181F801E80FF91F06
:100EA000F7A20196D6018D939C93BDE0FB1619F035
:100EB000EAE0FE1263CF84EC94E00E944727892B7E
:100EC00031F065E471E08DEF93E00E943E2584EC03
:100ED00094E00E944727892B49F0D6016D917C91BF
:100EE000615071098DEF93E00E94391ED601ED919A
:100EF000FC91E00FF11F17A241CF68960FB6F8944E
:100F0000DEBF0FBECDBFDF91CF911F910F91FF903C
:100F1000EF90DF90CF900895CF93DF93EC0184ECB6
:100F200094E00E944727892B31F06FEE70E08DEF3F
:100F300093E00E946225888D998DDC01ED91FC91F2
:100F40000084F185E02D0995892B51F0888D998DCC
:100F5000DC01ED91FC910284F385E02D0995EBCF46
:100F6000DF91CF9108958AE00E94CC20892BE1F493
:100F700080912105882339F08091F3039091F40347
:100F8000892B59F413C08BE00E94CC20892BA1F34C
:100F90008091E4038111F0CF07C081E02091F1033B
:100FA0003091F203232B19F080E0089581E0089539
:100FB000EF92FF920F931F93CF93DF9300D0CDB7A3
:100FC000DEB77C012091760530917705211531053A
:100FD00011F42CE735E08E010F5F1F4F021B130B3E
:100FE00064EE70E08DEF93E00E943E25B8018DEF36
:100FF00093E00E94C11761EE70E08DEF93E00E94D4
:101000003E25B7018DEF93E00E942A25C8010F907D
:101010000F90DF91CF911F910F91FF90EF90089566
:10102000CF92DF92EF92FF920F931F93CF93DF93B4
:101030001F92CDB7DEB77C016B0184EC94E00E9477
:101040004727892B31F06BEF73E08DEF93E00E941F
:101050003E2584EC94E00E944727892B29F0B601B5
:101060008DEF93E00E942A25D6018C91898384EC30
:1010700094E00E944727892B31F064E373E08DEF01
:1010800093E00E943E2584EC94E00E944727892B40
:1010900041F06981062E000C770B8DEF93E00E94E2
:1010A000391E8981805387010F5B1F4F8A3030F0D2
:1010B0008FEF9FEFF8019183808315C04AE050E0E5
:1010C00060E070E0CE0101960E94F02E6F3F7F4FEE
:1010D00079F34AE050E060E070E0C6010E94F02E33
:1010E000D8016D937C9384EC94E00E944727892B70
:1010F00031F067ED73E08DEF93E00E943E2584ECC4
:1011000094E00E944727892B39F0F80160817181B2
:101110008DEF93E00E94391ED801ED91FC91EA30E9
:10112000F10508F09AC0EC5CFF4F0C94F93040E0F8
:1011300050E0BA01C7010E94311992C020E030E0AE
:10114000A90160E070E029C084EC94E00E94472788
:10115000892B31F068E573E08DEF93E00E94622502
:101160002FE63FE040E050E001E067E971E0C701B1
:101170000E944B1E75C084EC94E00E944727892B87
:1011800031F06BE673E08DEF93E00E9462252FEF64
:101190003EE040E050E06DEC71E0C7010E94C41FEA
:1011A0005FC084EC94E00E944727892B31F061E80E
:1011B00073E08DEF93E00E94622523ED3EE040E076
:1011C00050E067EE71E0E9CFC7010E94931F48C06D
:1011D00084EC94E00E944727892B31F069EA73E0A0
:1011E0008DEF93E00E94622587EC93E00E94D80780
:1011F0008C016BE973E0F701808D918D0E943E2593
:10120000B801D70158968D919C9159970E94391E2B
:10121000F701808D918D0E942625C7010E94701EC6
:101220001FC0C7010E94E71E1BC084EC94E00E940F
:101230004727892B31F064EC73E08DEF93E00E9437
:101240006225E0E0F0E009950BC08AE00E94CC2026
:10125000019731F40E94101703C0C7010E948B1E32
:101260000F90DF91CF911F910F91FF90EF90DF9042
:10127000CF900895CF93DF93CDB7DEB764970FB6C5
:10128000F894DEBF0FBECDBFAE014F5F5F4F24E1CC
:10129000FA0111922A95E9F726ED31E03A83298384
:1012A0002EE130E03C832B8360E070E00E94EA177F
:1012B00064960FB6F894DEBF0FBECDBFDF91CF911D
:1012C0000895CF93DF93CDB7DEB764970FB6F89448
:1012D000DEBF0FBECDBFAE014F5F5F4F24E1FA010D
:1012E00011922A95E9F726E430E03A8329833C837A
:1012F0002B8360E070E00E94EA1764960FB6F894C2
:10130000DEBF0FBECDBFDF91CF910895CF93DF93A6
:10131000CDB7DEB764970FB6F894DEBF0FBECDBF72
:10132000AE014F5F5F4F24E1FA0111922A95E9F770
:1013300024EF31E03A8329833C832B8360E070E023
:101340000E94EA1764960FB6F894DEBF0FBECDBFB9
:10135000DF91CF910895CF93DF93CDB7DEB7649738
:101360000FB6F894DEBF0FBECDBFAE014F5F5F4F2B
:1013700024E1FA0111922A95E9F760E070E00E94F9
:10138000EA1764960FB6F894DEBF0FBECDBFDF91AB
:10139000CF910895FC01708767836115710581F411
:1013A00081859285019692878187238534851216DF
:1013B000130634F4281739071CF416821582089591
:1013C000DB01AA0FBB1FAE0FBF1F59968D919C91D9
:1013D0005A97181619064CF4CB01019662E070E09A
:1013E0000E94C6309683858302C016821582858549
:1013F0009685A785B089818B928BA38BB48B08953A
:1014000080E090E0FB0121913191BF01121613069B
:1014100024F401968A309105A9F708958F929F923E
:10142000AF92BF92CF92DF92EF92FF92CF93DF9372
:10143000EC010E9488276D877E878F87988BEF80CD
:10144000F88489889A88AB88BC88DC01CB0188192C
:101450009909AA09BB09F701EE0FFF1FEC0FFD1F49
:10146000818C928C092C000CAA08BB088815990560
:10147000AA05BB0598F0BE01675E7F4FCE010E94B2
:10148000000A0197E816F9061CF060E070E003C05E
:10149000B7016F5F7F4FCE010E94CA098D889E8879
:1014A0008114910441F48F89988D892B09F0B8C17A
:1014B0006D81888119C2181419040CF0B1C18D8195
:1014C0009E81892B09F49FC1888199812091000117
:1014D000281721F02F3F09F079C204C0E7EFFAE0A6
:1014E000C49179C080930001E7EFFAE0C491CF3F47
:1014F00009F46CC2C13009F448C050F1C23009F09F
:101500006AC01092B0001092B1002091B000226029
:101510002093B0002091B10021602093B1009C0184
:101520003327F901E056F54FE491F0E0EE0FFF1F8D
:10153000EA56F54F45915491509325054093240563
:10154000F901EC54F54FE491E0932605C2E03AC26C
:1015500014BC15BC24B5226024BD25B5216025BD71
:101560009C013327F901E056F54FE491F0E0EE0FCE
:10157000FF1FEA56F54F45915491F901EC54F54F90
:10158000E491E093DB03C0E01DC210928000109252
:1015900081002091810028602093810020918100AA
:1015A0002160209381009C013327F901E056F54F1B
:1015B000E491F0E0EE0FFF1FEA56F54F459154918C
:1015C000F901EC54F54FE491E093DA0361E00E94F5
:1015D0007521C1E0A6C0C7FDF9C161E00E94752177
:1015E0008C2F8D7F09F09DC0092C000CAA08BB0828
:1015F00060E072E18AE790E0A50194010E94DA3090
:1016000069017A01DA01C9010197A109B1098F3F86
:101610009105A105B10509F00CF445C060E472E440
:101620008FE090E0A50194010E94DA30BA01A9018F
:101630004150510961097109C230E9F44F3F510528
:101640006105710509F00CF45DC160E970ED83E09E
:1016500090E0A50194010E94DA30BA01A90141503D
:101660005109610971094F3F51056105710509F083
:1016700034F583E04FC04F3F510561057105B9F066
:10168000B4F068E478EE81E090E0A50194010E9456
:10169000DA30BA01A9014150510961097109CC231D
:1016A00009F432C187C1AC01BD0181E001C082E013
:1016B000C11130C095B5987F892B85BD6AC068E49B
:1016C00078EE81E090E0A50194010E94DA30BA0141
:1016D000A90141505109610971094F3F5105610547
:1016E000710509F00CF40CC164E274EF80E090E045
:1016F000A50194010E94DA30BA01A90141505109B3
:10170000610971094F3F51056105710511F008F03C
:101710002AC185E09091B100987F892B8093B10018
:1017200032C0092C000CAA08BB0860E072E18AE70D
:1017300090E0A50194010E94DA30DA01C901019715
:10174000A109B109009721E0A207B10524F4AC0179
:10175000BD0181E00FC068E478EE81E090E0A50172
:1017600094010E94DA30BA01A9014150510961097E
:10177000710983E0C13039F490918100987F892B01
:101780008093810018C0C130B1F0C23049F1C1115D
:101790001DC147BD8FEF9FEFDC018093E003909365
:1017A000E103A093E203B093E30380916E008260B3
:1017B00080936E000BC150938900409388008FEF97
:1017C0009FEFDC018093DC039093DD03A093DE03A5
:1017D000B093DF0380916F00826080936F00F6C04A
:1017E0004093B3008FEF9FEFDC0180932705909328
:1017F0002805A0932905B0932A0580917000826086
:1018000080937000E3C08881DF91CF91FF90EF90CB
:10181000DF90CF90BF90AF909F908F900C94562404
:10182000EF88F88C1E141F040CF0D0C08D819E81AF
:10183000892B09F452C00990D881C02D61E08C2F0A
:101840000E9475218FEFE816F10409F444C0FE01EF
:10185000FF27E35DF64FE491E330F9F048F4E1301F
:10186000B9F0E230A1F584B5806284BDE8BCAEC0B9
:10187000E730E9F0E83019F1E43049F58091800073
:10188000806280938000F0928B00E0928A009EC07C
:1018900084B5806884BDE7BC99C080918000806871
:1018A00080938000F0928900E09288008FC0809140
:1018B000B00080688093B000E092B30087C0809150
:1018C000B00080628093B000E092B4007FC020E856
:1018D000E216F1043CF061E006C0C88161E08C2FA3
:1018E0000E94752160E08C2FDF91CF91FF90EF90E7
:1018F000DF90CF90BF90AF909F908F900C94462137
:1019000084E008CF82E006CF4F3F510561057105A5
:1019100041F138F162E17AE780E090E0A5019401BD
:101920000E94DA30BA01A9014150510961097109D7
:101930004F3F51056105710591F088F0D701C6014F
:101940003AE0B595A795979587953A95D1F7AC016B
:10195000BD01415051096109710985E0ABCE84E0B8
:10196000A9CE83E0A7CE62E17AE780E090E0A5010E
:1019700094010E94DA30BA01A9014150510961096C
:1019800071094F3F51056105710591F088F0D7014C
:10199000C6012AE0B595A795979587952A95D1F721
:1019A000AC01BD01415051096109710987E0B2CE16
:1019B00086E0B0CE4F3F51056105710509F098F6FC
:1019C00084E076CE61E00E9475210ECEDF91CF914A
:1019D000FF90EF90DF90CF90BF90AF909F908F904F
:1019E0000895FF920F931F93CF93DF93EC01F62E90
:1019F00008811981C8010E942D30F81621F06F2D41
:101A0000C8010E943530CE01DF91CF911F910F9117
:101A1000FF900895CF93FC0142815381138212827B
:101A2000DC01BC01625A7F4F80E090E02C9130E0F5
:101A3000322F22271196CC9111972C2B8227932796
:101A400012966A177B0791F753834283CF910895CB
:101A50001F93CF93DF93EC01162F0E94B3078823C7
:101A600089F0BE0180912205909123050E943C25BA
:101A70001123C1F067EC73E080912205909123055A
:101A80000E942A25BE018DEF93E00E943C25112380
:101A900089F067EC73E08DEF93E0DF91CF911F91B8
:101AA0000C942A25BE018DEF93E0DF91CF911F9119
:101AB0000C943C25DF91CF911F9108951F93CF93F4
:101AC000DF93EC01162F0E94B307882389F0BE0133
:101AD00080912205909123050E943E251123C1F09B
:101AE00067EC73E080912205909123050E942A25DE
:101AF000BE018DEF93E00E943E25112389F067EC33
:101B000073E08DEF93E0DF91CF911F910C942A2524
:101B1000BE018DEF93E0DF91CF911F910C943E2594
:101B2000DF91CF911F910895AF92BF92CF92DF9234
:101B3000EF92FF920F931F93CF93DF93CDB7DEB752
:101B4000A0970FB6F894DEBF0FBECDBF6C018B011E
:101B500084EC94E00E944727892B31F06CE173E01C
:101B60008DEF93E00E943E2584EC94E00E9447278D
:101B700096012F5B3F4F5901892B39F0F9016081A4
:101B800071818DEF93E00E94C11784EC94E00E9474
:101B90004727892B31F06EEF71E08DEF93E00E94C3
:101BA0003C2584EC94E00E944727892B29F0B8015A
:101BB0008DEF93E00E942A25F80180818D3021F07D
:101BC0008A3011F0811104C061E084E093E0D0C05C
:101BD000F501E080F180F1E0EF1AF108F701EE0F76
:101BE000FF1FEB51F84F65917491CE0101960E9451
:101BF0000F302EE0E216F10408F0B7C0F701E25C06
:101C0000FF4F4AE050E060E070E0C8010C94F9300A
:101C10000E94F02E6093F8047093F9048093FA0404
:101C20009093FB048AC00E94F02E6093FC04709392
:101C3000FD048093FE049093FF047FC00E94F02E69
:101C4000609300057093010580930205909303054E
:101C500074C00E94F02E6093040570930505809374
:101C600006059093070569C00E94F02E6A30710541
:101C70008105910548F060930805709309058093EC
:101C80000A0590930B0559C08AE090E0A0E0B0E00F
:101C90008093080590930905A0930A05B0930B055E
:101CA0004CC00E94F02E70930D0560930C0545C04A
:101CB0000E94F02E70930F0560930E053EC00E94A7
:101CC000F02E6093100539C00E94F02E609311052C
:101CD0007093120580931305909314052EC00E94F3
:101CE000F02E609315057093160580931705909359
:101CF000180523C00E94F02E6093190570931A05F1
:101D000080931B0590931C0518C00E94F02E7093C1
:101D10001E0560931D0511C00E94F02E70932005D2
:101D200060931F050AC00E94F02E21E0672B682BEC
:101D3000692B09F420E02093210540E250E061E0A6
:101D400072E088ED94E00E94163084EC94E00E94EA
:101D50000127409108055091090560910A0570918D
:101D60000B05C6010E94311905C061E083ED92E0C8
:101D70000E945E0D8FEF9FEFF50191838083C60176
:101D80000E94931FA0960FB6F894DEBF0FBECDBF82
:101D9000DF91CF911F910F91FF90EF90DF90CF9047
:101DA000BF90AF900895CF93DF93EC01DB018C914E
:101DB0008F7D893579F461E08BEA92E00E945E0DB7
:101DC00084E1EEEAF4E0DF011D928A95E9F70E94D2
:101DD000622006C06BEB72E0888D998D0E946225AF
:101DE000888D998D0E94262520E030E0A90160E0D1
:101DF00070E0CE010E94C41FDF91CF910895CF9271
:101E0000DF92EF92FF920F931F93CF93DF93EC013A
:101E10008B0184EC94E00E944727892B31F069E91B
:101E200072E08DEF93E00E9462254AE050E060E0AE
:101E300070E0C8010E94F02E6B017C01CB011816E6
:101E400019064CF4F80120812D3029F02A3019F0C0
:101E5000653071053CF065E872E0888D998D0E94CF
:101E6000622528C086010150110960E08DE592E0ED
:101E70000E945E0DC8010E94C717F4E0CF0ED11C6E
:101E8000C601880F991F880F991FFC01E656FB4F6A
:101E900010821182128213820E94622060E772E037
:101EA000888D998D0E943E2560E070E0888D998D27
:101EB0000E94391E888D998D0E94262520E030E0F1
:101EC000A90160E070E0CE010E94C41FDF91CF91B4
:101ED0001F910F91FF90EF90DF90CF9008958F9218
:101EE0009F92AF92BF92EF92FF920F931F93CF9367
:101EF000DF938C017B01FB0180818D3009F468C088
:101F00008A3009F465C0882309F462C04AE050E0D1
:101F100060E070E0C7010E94F02E4B015C0160E0C0
:101F20008AED91E00E945E0D41E0C501B4010E947E
:101F30007E168AE994E00E947726EEEAF4E0DF015B
:101F400080E090E04D915D916D917D91452B462B08
:101F5000472B09F0019624E0A23CB20799F78114BF
:101F60009104A104B10431F461E08EE791E00E9494
:101F70005E0D2EC08530910544F061E084EC91E067
:101F80000E945E0DC2E0D0E025C041915191619167
:101F9000719184169506A606B70609F474C024E06C
:101FA000E23CF20791F7880F991F880F991FFC01F7
:101FB000E255FB4F80829182A282B3820E9462200E
:101FC00061E08DE991E00E945E0DC0E0D0E002C0CA
:101FD000C1E0D0E06FE472E0F801808D918D0E9445
:101FE0003E25B701F801808D918D0E942A256DE371
:101FF00072E0F801808D918D0E943E25BE01F801AE
:10200000808D918D0E94C1176EEF71E0F801808D77
:10201000918D0E943C25F801808D918DC230D105B3
:1020200059F0C330D10559F0219719F065E372E0FA
:1020300008C066E172E005C06DEF71E002C064EEB9
:1020400071E00E943E25F801808D918D0E94262529
:10205000F801808D918D0E942625C8010E94A70558
:1020600020E030E0A90160E070E0C8010E94C41FD8
:10207000DF91CF911F910F91FF90EF90BF90AF90A4
:102080009F908F90089561E08EEA91E00E945E0D2E
:10209000C3E0D0E09FCF0F931F93CF93DF9300D087
:1020A000CDB7DEB78C018091F3039091F403892BB7
:1020B00001F5F8018081918171836083861797070C
:1020C000C1F080910C0590910D05029791F460E0AC
:1020D00084EB90E00E945E0DF801808191810E9466
:1020E000C717F80160811A821982CE0101960E94F9
:1020F000F10CF801808191810F900F90DF91CF91C9
:102100001F910F9108958DE792E0089587E792E07F
:1021100008958AEB92E0089560E070E0CB010895A5
:1021200086E291E00895FC012689378937FF04C0D3
:1021300060E070E0CB010895220F331F220F331FA0
:10214000FC01E20FF31F6281738184819581089500
:10215000CF93DF93FC012689378937FF05C060E004
:1021600070E080E090E00EC0EC010190F081E02D85
:102170000480F581E02D09952E893F892150310990
:102180003F8B2E8BDF91CF9108952FEF3FEFDC0136
:1021900057963C932E935697FC019C012C5E3F4F23
:1021A00013821282158214823496E217F307C1F764
:1021B0004115510511F460FF07C0DC01ED91FC9160
:1021C0000190F081E02D099408959F92AF92BF9203
:1021D000CF92DF92EF92FF920F931F93CF93DF93F3
:1021E000EC018B01942EE881F9810480F581E02DCA
:1021F00009956B017C018E899F8997FD3AC0570133
:1022000081E0A822BB24C114D10421F4A114B1049B
:1022100069F52FC0992039F0E881F9810280F381B6
:10222000E02DCE010995AB2871F0F701F595E79502
:10223000EC0FFD1F0190F081E02DEC0DFD1D0190D4
:10224000F081E02D01C0F601C70195958795B80191
:102250008C0F9D1FDF91CF911F910F91FF90EF90F9
:10226000DF90CF90BF90AF909F9009949920E9F2B2
:10227000D3CFDF91CF911F910F91FF90EF90DF901F
:10228000CF90BF90AF909F900895EF92FF920F93E1
:102290001F93CF93DF93EC01CA01122F032F7B0111
:1022A00021E0E21AF108F701EE0FFF1FEB51F84FA2
:1022B000659174910E940F308EE0E816F10408F0E9
:1022C00021C1F701E45BFF4F0C94F9308FA98F9384
:1022D0008EA98F938DA98F938CA98F9380E991E01C
:1022E0009F938F930F931F930E9476318DB79EB764
:1022F00008960FB6F8949EBF0FBE8DBF03C18BAD7D
:102300008F938AAD8F9389AD8F9388AD8F9380E93A
:1023100091E09F938F930F931F930E9476318DB717
:102320009EB708960FB6F8949EBF0FBE8DBFEAC049
:102330008FAD8F938EAD8F938DAD8F938CAD8F932B
:1023400080E991E09F938F930F931F930E947631C2
:102350008DB79EB708960FB6F8949EBF0FBE8DBF7F
:10236000D1C0C05CDF4F8B818F938A818F9389812D
:102370008F9388818F9380E991E09F938F930F9340
:102380001F930E9476318DB79EB708960FB6F894CA
:102390009EBF0FBE8DBFB6C0CC5BDF4F8B818F93CE
:1023A0008A818F9389818F9388818F9380E991E0CF
:1023B0009F938F930F931F930E9476318DB79EB793
:1023C00008960FB6F8949EBF0FBE8DBF9BC0C85B2A
:1023D000DF4F81C0C65BDF4F7EC0C45BDF4F28810B
:1023E000822F90E001978330910540F4880F991F68
:1023F000FC01E858FE4F8081918102C083EC92E09D
:102400009F938F931F922F938CEC92E09F938F93C7
:102410000F931F930E9476318DB79EB708960FB623
:10242000F8949EBF0FBE8DBF6DC0C35BDF4F8B8125
:102430008F938A818F9389818F9388818F9381E491
:1024400093E09F938F930F931F930E9476318DB7E4
:102450009EB708960FB6F8949EBF0FBE8DBF52C0B0
:10246000CF5ADF4F8B818F938A818F9389818F938E
:1024700088818F9381E493E09F938F930F931F93B1
:102480000E9476318DB79EB708960FB6F8949EBF1E
:102490000FBE8DBF37C0CB5ADF4F8B818F938A81A0
:1024A0008F9389818F9388818F9381E493E09F93A9
:1024B0008F930F931F930E9476318DB79EB7089626
:1024C0000FB6F8949EBF0FBE8DBF1CC0C75ADF4F1A
:1024D00002C0C55ADF4F89818F93888104C0C35AD7
:1024E000DF4F88811F928F9389EC92E09F938F93A7
:1024F0000F931F930E9476310F900F900F900F90C3
:102500000F900F90DF91CF911F910F91FF90EF905F
:1025100008956F927F928F929F92AF92BF92CF92C7
:10252000DF92EF92FF920F931F93CF93DF93CDB77C
:10253000DEB76C014B016DB67EB6FC01F3804481C1
:102540004F5F4F1950E04F5F5F4F8DB79EB7841BB1
:10255000950B0FB6F8949EBF0FBE8DBF0DB71EB77B
:102560000F5F1F4F65E271E0C8010E942531F40141
:10257000EF0DF11D7F0184EDA82E82E0B82EF6014B
:10258000848190E097012819390982179307C4F0D4
:10259000F70121917F01F80101900020E9F71F92D6
:1025A0002F93BF92AF92CF0101979F938F930E9479
:1025B00076310F900F900F900F900F900F90DFCF0C
:1025C00040E150E060E070E0C8010E94F02E0FB6DC
:1025D000F8947EBE0FBE6DBEDF91CF911F910F911B
:1025E000FF90EF90DF90CF90BF90AF909F908F9033
:1025F0007F906F9008956F927F928F929F92AF928B
:10260000BF92CF92DF92EF92FF920F931F93CF93DF
:10261000DF93CDB7DEB76C014B016DB67EB6FC0122
:102620000381448150E010E0401B510B4F5F5F4F2E
:10263000440F50E04F5F5F4F8DB79EB7841B950BE3
:102640000FB6F8949EBF0FBE8DBFEDB7FEB73196A3
:102650007F0165E271E0CF010E942531080D191D4F
:1026600087EDA82E82E0B82EF601848190E09801D3
:102670002819390982179307C4F0F80121918F01B5
:10268000F70101900020E9F71F922F93BF92AF92BC
:10269000CF0101979F938F930E9476310F900F90F7
:1026A0000F900F900F900F90DFCF40E150E060E06F
:1026B00070E0C7010E94F02E0FB6F8947EBE0FBEE8
:1026C0006DBEDF91CF911F910F91FF90EF90DF9042
:1026D000CF90BF90AF909F908F907F906F90089514
:1026E0006F927F928F929F92AF92BF92CF92DF9222
:1026F000EF92FF920F931F93CF93DF93CDB7DEB787
:102700006C014B016DB67EB6FC01F38044814F191C
:1027100050E04F5F5F4F8DB79EB7841B950B0FB690
:10272000F8949EBF0FBE8DBF0DB71EB70F5F1F4F32
:1027300065E271E0C8010E942531F401EF0DF11D41
:102740007F0184EDA82E82E0B82EF601848190E00E
:1027500097012819390982179307C4F0F7012191CD
:102760007F01F80101900020E9F71F922F93BF929B
:10277000AF92CF0101979F938F930E9476310F9074
:102780000F900F900F900F900F90DFCF40E150E02F
:1027900060E070E0C8010E94F02E0FB6F8947EBE93
:1027A0000FBE6DBEDF91CF911F910F91FF90EF9003
:1027B000DF90CF90BF90AF909F908F907F906F9061
:1027C0000895CF93DF93CDB7DEB7A0970FB6F894F7
:1027D000DEBF0FBECDBFFB0101900020E9F7AF01C6
:1027E000461B570B1A821982FE0133968EE1DF01D8
:1027F0001D928A95E9F742505109CE0101960E9437
:102800003731E091E703F091E8036EEC77E0808DDB
:10281000918D0E943E25E091E703F091E803BE010F
:102820006F5F7F4F808D918D0E942A25E091E70395
:10283000F091E80367EC73E0808D918D0E942A256A
:1028400029818091E5039091E6032134A1F4BE0132
:102850006F5F7F4FFC01808D918D0E942A2540E2A1
:1028600057E160E070E020E08091E5039091E6039D
:102870000E94F0181CC0DC01ED91FC910084F185F0
:10288000E02D40E050E0BA0109958091E503909178
:10289000E6030E948C078091E5039091E6030E9475
:1028A000A7058091E7039091E8030E948B1EA096F4
:1028B0000FB6F894DEBF0FBECDBFDF91CF91089564
:1028C000AF92BF92CF92DF92EF92FF920F931F933E
:1028D000CF93DF93CDB7DEB7A0970FB6F894DEBFE6
:1028E0000FBECDBF8C017B014AE050E060E070E09C
:1028F000C7010E94F02E6B015B0121E0A21AB10812
:1029000083E0A816B104C0F563EC77E0F801808D90
:10291000918D0E943E25B501660F771FFB01E85897
:10292000FE4F60817181F801808D918D0E942A2572
:1029300067EC73E0F801808D918D0E942A25E3EF0A
:10294000F7E065917491CE0101960E940F304AE044
:1029500050E060E070E0C7010E94F02E6093100527
:1029600040E250E061E072E088ED94E00E941630B1
:1029700084EC94E00E94012767EC73E0F801808DFD
:10298000918D0E942A25CD2841F0FDE0EF16F1043B
:1029900021F02AE0E216F10421F4C8010E948B1E06
:1029A00003C0C8010E94E71EA0960FB6F894DEBFD0
:1029B0000FBECDBFDF91CF911F910F91FF90EF9090
:1029C000DF90CF90BF90AF900895CF92DF92EF92BB
:1029D000FF920F931F93CF93DF93CDB7DEB7E097AE
:1029E0000FB6F894DEBF0FBECDBF7C016B0184EC47
:1029F00094E00E944727892B31F067EA77E08DEF5A
:102A000093E00E9462254AE050E060E070E0C60179
:102A10000E94F02E87010F5B1F4FF80171836083C6
:102A200084EC94E00E944727892B31F067E777E038
:102A30008DEF93E00E943E2584EC94E00E944727AE
:102A4000892B39F0F801608171818DEF93E00E944C
:102A5000391EF80160817181CB0101970E9760F5F5
:102A60009E012F5D3F4FAE014F5F5F4F84EC94E0BE
:102A70000E944511BE016F5F7F4FF701808D918DE0
:102A80000E943C2564E777E0F701808D918D0E94DC
:102A90003E25BE016F5D7F4FF701808D918D0E94B5
:102AA0002A2524E93DE040E050E000E06CED72E0D2
:102AB000C7010E944B1E0FC0F6018081803321F0B8
:102AC0008D3011F08A3021F4C7010E948B1E03C0A3
:102AD000C7010E94931FE0960FB6F894DEBF0FBEA9
:102AE000CDBFDF91CF911F910F91FF90EF90DF90BD
:102AF000CF9008953F924F925F926F927F928F9204
:102B00009F92AF92BF92CF92DF92EF92FF920F937C
:102B10001F93CF93DF93CDB7DEB7C056D1090FB661
:102B2000F894DEBF0FBECDBF2B0169E078E0C20193
:102B30000E943E2584EC94E00E940A0DAC0160E006
:102B400070E020E1C2010E94DD2461E078E0C20172
:102B50000E943E252AE04EE550E060E070E0C201B0
:102B60000E94DD24C2010E94262501E010E08EE2D1
:102B7000382E3E0183E0680E711C6E0191E5C90E8E
:102B8000D11C7E01E1E3EE0EF11C99EF892E92E05B
:102B9000992ECE0101965C011A821982F301832DD0
:102BA00011928A95E9F79601A701B80184EC94E0A7
:102BB0000E944511DF92CF92FF92EF921F930F93E5
:102BC0009F928F92BF92AF920E947631B501C2015F
:102BD0000E942A250F5F1F4F0FB6F894DEBF0FBE6D
:102BE000CDBF0F301105C1F6C05ADF4F0FB6F894B4
:102BF000DEBF0FBECDBFDF91CF911F910F91FF9030
:102C0000EF90DF90CF90BF90AF909F908F907F908C
:102C10006F905F904F903F900895CF93DF93EC01BA
:102C200040E150E068E072E004960E94163080E2D5
:102C300093E0998388838EE190E0A0E0B0E08CABD4
:102C40009DABAEABBFAB88EE93E0A0E0B0E088AF49
:102C500099AFAAAFBBAF86E990E0A0E0B0E08CAF3F
:102C60009DAFAEAFBFAFFE01E05CFF4F8FE090E0E5
:102C7000A0E0B0E080839183A283B38334968CE399
:102C800090E0A0E0B0E080839183A283B383349688
:102C900081E090E091838083329611821082329697
:102CA0001082319680E091EEA0E0B0E080839183C5
:102CB000A283B383349680E895E2A0E0B0E08083FD
:102CC0009183A283B383349680839183A283B38359
:102CD000349680EF9AE091838083329687E090E08B
:102CE000918380833296108240E250E069EA72E07C
:102CF000CE014496DF91CF910C941630CF92DF92A3
:102D0000EF92FF92CF936B017C01C42F0E94B30717
:102D1000882399F02AE0B701A601809122059091BD
:102D200023050E94DD24CC23E1F067EC73E0809161
:102D30002205909123050E942A252AE0B701A601C9
:102D40008DEF93E00E94DD24CC23B9F067EC73E0B3
:102D50008DEF93E0CF91FF90EF90DF90CF900C94A8
:102D60002A252AE0B701A6018DEF93E0CF91FF90CD
:102D7000EF90DF90CF900C94DD24CF91FF90EF90F7
:102D8000DF90CF900895DC0156961C92FC01369698
:102D900020E1DF011D922A95E9F708950F93CF9363
:102DA000DF93EC018AE391E0998388836A834B8304
:102DB0002C830D83FE01369680E1DF011D928A95FA
:102DC000E9F71E8A0E9488276F8B788F898F9A8FE8
:102DD0001B8E1C8E1D8E1E8E1F8E18A219A21AA26B
:102DE0001BA21CA21DA21EA21FA218A619A61AA6EB
:102DF0001BA61CA61DA61EA61FA618AA19AA1AAABB
:102E00001BAA1CAA1DAA1EAA1FAA18AE19AE1AAE8A
:102E10001BAE1CAE1DAE1EAEDF91CF910F9108957B
:102E20000F9321EE33E140E050E000E067E073E013
:102E30008091E7039091E8030E944B1E0F91089543
:102E4000E091E703F091E803808D918D0E942A259F
:102E5000E091E703F091E80367EC73E0808D918DDA
:102E60000E942A258091E5039091E603DC01ED9113
:102E7000FC910084F185E02D40E050E0BA01099515
:102E80008091E5039091E6030E948C078091E50311
:102E90009091E6030E94A7058AE00E94CC2001974A
:102EA00011F40C94101708950F93CF93DF93EC0156
:102EB00001E02AE043E06EE00E94CE1682E491E059
:102EC0009983888360E084ED97E00E945E0D61E065
:102ED0008AEB92E0DF91CF910F910C94280DFC01C9
:102EE0004115510511F460FF11C0268937892F5F04
:102EF0003F4F378B268B220F331F220F331FE20FDA
:102F0000F31F4283538364837583089561E089E1ED
:102F100093E00C94280DCF92DF92EF92FF920F93E3
:102F20001F93CF93DF9377FF21C06A017B01EC01F0
:102F3000E881F9810190F081E02D6DE209958C0125
:102F400044275527BA014C195D096E097F092AE00B
:102F5000CE010E94DD24800F911FDF91CF911F9140
:102F60000F91FF90EF90DF90CF9008952AE0DF91CE
:102F7000CF911F910F91FF90EF90DF90CF900C9425
:102F8000DD24AB01770F660B770B0C948B17CF9377
:102F9000DF93EC010E94B307882379F0BE01809192
:102FA0002205909123050E94C11767EC73E0809180
:102FB0002205909123050E942A25BE018DEF93E002
:102FC0000E94C11767EC73E08DEF93E0DF91CF9122
:102FD0000C942A25CF92DF92EF92FF920F931F93CA
:102FE000CF93DF93EC016B017A018B859C858E0179
:102FF000075E1F4F86179707A1F44AE050E0B8011B
:10300000C7010E941831892B61F1B701CE010E94DE
:10301000000A892B31F4B801CE010E94000A892BE5
:1030200001F11E821D8218861F821A861986DC868F
:10303000CB86D701F801CE018D962D913D9121933C
:103040003193E817F907C9F760E070E0CE01DF912E
:10305000CF911F910F91FF90EF90DF90CF900C9444
:10306000CA09DF91CF911F910F91FF90EF90DF90F0
:10307000CF900895CF93DF93CDB7DEB764970FB6A7
:10308000F894DEBF0FBECDBFAE014F5F5F4F24E1AE
:10309000FA0111922A95E9F724EF31E03A83298366
:1030A0003C832B8363E070E00E94EA1764960FB6BE
:1030B000F894DEBF0FBECDBFDF91CF910895CF92C0
:1030C000DF92EF92FF926B017C01E0910D04F09191
:1030D0000E0482E08083C11481EED806E104F1047D
:1030E000B1F060E079E08DE390E0A70196010E94E5
:1030F0005330DA01C9010197A109B109B695A79525
:10310000979587959C01211580E13807B8F0E091EB
:103110000D04F0910E04108260E874E88EE190E0F6
:10312000A70196010E945330DA01C9010197A10954
:10313000B109B695A795979587959C01E0910904EB
:10314000F0910A043083E0910B04F0910C04208389
:1031500010921504E0911104F091120486E080832E
:10316000E0910F04F0911004808180618083E091F0
:103170000F04F0911004808188608083E0910F0437
:10318000F0911004808180688083E0910F04F091B9
:10319000100480818F7D8083FF90EF90DF90CF902F
:1031A0000895CF92DF92EF92FF926C010E94B307D5
:1031B000E12CF12C882349F020E1B701A601809190
:1031C0002205909123050E94DD2420E1B701A6018C
:1031D0008DEF93E0FF90EF90DF90CF900C94DD2483
:1031E000CF92DF92EF92FF921F93CF93DF93EC0188
:1031F0006A017B01122F84EC94E00E944727892BFF
:1032000031F063E378E08DEF93E00E946225E8817E
:10321000F9810190F081E02DB701A601CE01099559
:10322000E881F9810190F081E02D47EC55E060E004
:1032300070E0CE010995CE010E948C07CE010E945C
:10324000A705112331F0CD5BDF4F81E090E099833A
:103250008883DF91CF911F91FF90EF90DF90CF9007
:103260000895CF92DF92EF92FF92CF93DF93EC011C
:103270006A017B018BA19CA1ADA1BEA1841795071A
:10328000A607B707E9F084EC94E00E944727892B52
:1032900031F06CE178E08DEF93E00E943E2584EC04
:1032A00094E00E944727892B59F02AE0B701A60134
:1032B0008DEF93E00E94DD248DEF93E00E942625A0
:1032C000CBA2DCA2EDA2FEA281E090E09093F403F9
:1032D0008093F3030E9488276F8F78A389A39AA312
:1032E000DF91CF91FF90EF90DF90CF9008954F92B4
:1032F0005F926F927F928F929F92AF92BF92CF9286
:10330000DF92EF92FF920F931F93CF93DF93CDB78E
:10331000DEB768970FB6F894DEBF0FBECDBF8C0145
:103320005C012FE3A20EB11CD5018D919C910E94EE
:103330004626F501208131818091FB039091FC03A9
:103340002817390739F062E070E080E090E00E94D1
:103350005322EFCF64E170E080E090E00E945322BE
:103360000E9488276D8B7E8B8F8B988FD801579604
:103370006D937D938D939C935A97C0900005D09048
:103380000105E0900205F09003055F964D905D9079
:103390006D907C9092974C0C5D1C6E1C7F1CF8010C
:1033A00043AA54AA65AA76AA23A134A145A156A18D
:1033B000F0910405E09105059090060580900705C1
:1033C000211531054105510521F42F2F3E2F492D9F
:1033D000582DA8EEB3E00E947530460E571E681EA9
:1033E000791ED801D7964D925D926D927C92DA97B4
:1033F0004090FC045090FD046090FE047090FF0427
:10340000A8EEB3E02F2F3E2F492D582D0E94753086
:10341000C40CD51CE61CF71CDC01CB018C0D9D1DDA
:10342000AE1DBF1DF80187A790ABA1ABB2AB838DDA
:10343000948DA58DB68D2D893E894F89588D281B79
:10344000390B4A0B5B0B421653066406750608F0EF
:10345000D8C1D5018D919C91DC01ED91FC91008446
:10346000F185E02D0995892B09F494C0F50180813F
:103470009181DC01ED91FC910084F185E02D0995AD
:10348000892B09F4BEC1F801F688FFE0FF1528F08A
:10349000D80112968C91F81620F0C8010E94C3162C
:1034A000E5CFF50180819181DC01ED91FC910284F1
:1034B000F385E02D0995F801EF0DF11D8683F801E4
:1034C000868992819150811104C02681223029F78A
:1034D0007AC1891307C0F801E80FF11D9681933076
:1034E000E1F60BC09817C8F28031B8F6891738F4A6
:1034F0008F5FD80156968C93B9CF803170F6D80182
:10350000ED91FC910190F081E02DB8016A5F7F4F51
:10351000C80109956B017C01672B682B692B21F48D
:1035200060E084EF98E05EC1E091F503F091F6036E
:103530001682158260E080810E944621E091F903A5
:10354000F091FA0316821582108617821286118670
:10355000AE014F5F5F4F84E1DA011D928A95E9F772
:1035600086E490E09A83898361E070E0CF010E9455
:10357000EA17EEEAF4E081919191A191B191C81618
:10358000D906EA06FB0609F421C1B4E0E23CFB07D8
:1035900091F7C6CFD8015796CD90DD90ED90FC9075
:1035A0005A975B968D909D90AD90BC905E9726014A
:1035B0003701481859086A087B0893962D913D9168
:1035C0004D915C919697211531054105510541F4C6
:1035D000209104053091050540910605509107059D
:1035E000A8EEB3E00E947530641575058605970551
:1035F00028F089288A288B2809F003C1F80187A9B7
:1036000090ADA1ADB2ADC816D906EA06FB0650F4DE
:10361000F801878D90A1A1A1B2A1892B8A2B8B2BB8
:1036200009F0C2C060E087ED98E00E945E0DD8010D
:103630005B96CD90DD90ED90FC905E97C114D10427
:10364000E104F104D9F057968D919D910D90BC91B4
:10365000A02DBC01CD016C197D098E099F0928EEB2
:1036600033E040E050E00E945330CA01B90140E02D
:103670000E947E1660E081ED98E003C060E08BEC74
:1036800098E00E945E0D60E081EC98E00E945E0D83
:10369000F801C78CD0A0E1A0F2A0C114D104E104CC
:1036A000F104C9F08789908DA18DB28DBC01CD0147
:1036B0006C197D098E099F0928EE33E040E050E047
:1036C0000E945330CA01B90140E00E947E1660E0BA
:1036D0008BEB98E003C060E085EB98E00E945E0D04
:1036E00060E08BEA98E00E945E0D0E9488276B01E3
:1036F0007C01198228EE33E040E050E00E94533014
:103700008CE3882E912CA12CB12CCA01B901A50102
:1037100094010E9453309F938F937F936F93C701BF
:10372000B60120E63AEE40E050E00E945330CA0174
:10373000B901A50194010E9453309F938F937F9309
:103740006F93C701B60120E83EEE46E350E00E94C9
:1037500053305F934F933F932F9389E393E09F936D
:103760008F939E012F5F3F4F79013F932F930E94CC
:10377000763161E0C7010E94280DD80115966C9141
:1037800081E0682785E00E944621F8018789908DB5
:10379000A18DB28D878F90A3A1A3B2A30FB6F89489
:1037A000DEBF0FBECDBF2DC0F80183A994A9A5A986
:1037B000B6A9C816D906EA06FB0618F1658185E0A8
:1037C0000E9446211EC0911193CE85CEF8018789B3
:1037D000908DA18DB28D838F948FA58FB68F60E071
:1037E00082E199E00E945E0D41E0C701B6010E94AE
:1037F0007E16F801C3AED4AEE5AEF6AEC8010E94A7
:10380000C31668960FB6F894DEBF0FBECDBFDF912A
:10381000CF911F910F91FF90EF90DF90CF90BF90CD
:10382000AF909F908F907F906F905F904F90089592
:10383000CF92DF92EF92FF920F931F93CF93DF937C
:10384000EC0184EC94E00E944727892B31F069E970
:1038500078E08DEF93E00E943E2584EC94E00E9496
:103860004727892B39F0BE01645E7F4F8DEF93E0CF
:103870000E942A250091F3031091F40301301105F1
:10388000A9F44BA15CA16DA17EA180910805909146
:103890000905A0910A05B0910B05481759076A0759
:1038A0007B0721F460E08DE00E9446218091F103C6
:1038B0009091F203009721F0C817D90709F062C070
:1038C0000E948827CF8CD8A0E9A0FAA06C197D09A6
:1038D0008E099F0928EE33E040E050E00E9453300B
:1038E0008BA19CA1ADA1BEA182179307A407B50728
:1038F00018F0012B09F046C084EC94E00E944727A1
:10390000892B31F069E778E08DEF93E00E94622522
:10391000CE010E94A705E881F9810084F185E02DA0
:1039200040E050E0BA01CE0109958091F3039091F7
:10393000F403892B39F160E0CE014C960E94280DEA
:1039400061E082E698E00E945E0D61E087EC93E022
:103950000E94280D61E080E598E00E945E0D61E024
:1039600087EC93E00E94280D1092F4031092F30369
:1039700084EC94E00E944727892B21F085E493E0B2
:103980000E94D807E881F9810680F781E02D40E0A8
:1039900060E070E0CE01099584EC94E00E94472736
:1039A000892B71F06BE878E08DEF93E0DF91CF9198
:1039B0001F910F91FF90EF90DF90CF900C946225B4
:1039C000DF91CF911F910F91FF90EF90DF90CF90FB
:1039D000089540919C0450919D0410929D04109272
:1039E0009C04EAE9F4E064EC74E080E090E020817B
:1039F00030E0322F2227A1812A2B8227932732966B
:103A00006E177F07A1F750939D0440939C0408957F
:103A1000833081F028F4813099F08230A1F008954C
:103A20008730A9F08830B9F08430D1F480918000DB
:103A30008F7D03C0809180008F77809380000895F0
:103A400084B58F7702C084B58F7D84BD0895809141
:103A5000B0008F7703C08091B0008F7D8093B0005D
:103A600008950E94E91C20919C0430919D048217C6
:103A7000930739F49C012150310981E02E3F3F4FDB
:103A800008F080E00895CF93DF93EC019A01AB0139
:103A90001B8E1A8E198E188E1F8A1E8A60E079E09E
:103AA0008DE390E00E94DA30F9012430310518F0FE
:103AB000C901039702C081E090E09D8F8C8F6C85D7
:103AC000663108F06AC0C9019695879584319105E1
:103AD00010F0439702C081E090E09F8B8E8B369769
:103AE00018F0C901059702C081E090E0998F888F96
:103AF000C901880F991F280F391F369527953695CC
:103B000027952D30310518F02C50310902C021E0E5
:103B100030E03B8F2A8F30916800683058F021E008
:103B20006E3008F420E091E0892F01C0880F2A95BB
:103B3000EAF701C084E0832B809368009C8598306D
:103B400038F09E3040F0963148F020E030E008C078
:103B50002DE630E005C02BE630E002C02CE630E078
:103B60003C8B2B8B983030F481E001C0880F9A9504
:103B7000EAF70EC0292F30E09E3018F428503109A2
:103B800002C02E50310981E001C0880F2A95EAF762
:103B90008D8B8C8D9D8D0197F1F7CE01DF91CF91AB
:103BA0000C944626FF920F931F93CF93DF93EC0163
:103BB00084EC94E00E944727892B31F061E573E0A3
:103BC0008DEF93E00E943C25A79618E1FC2E0D2F67
:103BD00084EC94E00E944727892B41F06881062EEF
:103BE000000C770B8DEF93E00E94C11784EC94E0FA
:103BF0000E944727892B31F06BE972E08DEF93E04B
:103C00000E943C2589918A3031F08D3021F011508D
:103C1000F9F6C0E001C0C1E084EC94E00E944727BF
:103C2000892B31F067EC73E08DEF93E00E942A2539
:103C3000CC23C1F084EC94E00E944727892B31F01B
:103C400066E77AE08DEF93E00E943E2584EC94E0F5
:103C50000E944727892B31F06F2D702F8DEF93E055
:103C60000E942A258C2FDF91CF911F910F91FF90F9
:103C700008950F931F93CF93DF93EC010E94C11718
:103C80008C01CE010E942625800F911FDF91CF91DC
:103C90001F910F910895CF92DF92EF92FF920F93B1
:103CA000CF93DF93EC0169017A01FB0180818823C6
:103CB00021F0888D998D0E943C25202FB701A60107
:103CC000CE010E94F01863E77AE0888D998DDF912C
:103CD000CF910F91FF90EF90DF90CF900C943E2505
:103CE0000F93CF93DF93EC01E881F9810084F18594
:103CF000E02D40E050E0BA01099520E138E040E0D5
:103D000050E000E066E673E0CE010E944B1EDF91BA
:103D1000CF910F910895CF93DF93EC0184EC94E061
:103D20000E944727892B31F062E67AE08DEF93E01D
:103D30000E9462256DE57AE0888D998D0E9462254A
:103D400065E57AE0888D998D0E94622568E47AE0C5
:103D5000888D998D0E9462256DE37AE0888D998D1A
:103D60000E9462256FE27AE0888D998D0E9462251B
:103D70006CE17AE0888D998D0E94622560E17AE09D
:103D8000888D998D0E9462256CEF79E0888D998DE0
:103D90000E9462256CEE79E0888D998D0E946225E3
:103DA00061EE79E0888D998D0E94622563ED79E05E
:103DB000888D998D0E94622567EC73E0888D998DBE
:103DC0000E942A25CE01DF91CF910C94701E2F9274
:103DD0003F924F925F926F927F928F929F92AF929B
:103DE000BF92CF92DF92EF92FF920F931F93CF93E8
:103DF000DF93CDB7DEB768970FB6F894DEBF0FBE7E
:103E0000CDBF5C0184EC94E00E944727892B31F000
:103E10006BEB79E08DEF93E00E946225F501E08C79
:103E2000F18C61EB79E0C7010E943E2563E070E010
:103E3000C7010E94C1176FEA79E0C7010E9462259D
:103E400088E7C82E81E0D82E01E010E096E1292E07
:103E50002E01F3E04F0E511C2BE7622E23E0722E51
:103E600038E1332ECE0101964C011A821982F201FB
:103E7000822D11928A95E9F7F60120813181F2E0D5
:103E8000CF0ED11C8091100590E08017910719F496
:103E900089E793E002C08FEF91E03F932F939F93C8
:103EA0008F931F930F937F926F921F923F929F92D7
:103EB0008F920E944631B401C7010E942A250F5FEC
:103EC0001F4F0FB6F894DEBF0FBECDBF04301105F3
:103ED00061F667EC73E0F501808D918D0E942A25D3
:103EE00020E634E140E050E000E066E873E0C50120
:103EF0000E944B1E68960FB6F894DEBF0FBECDBF72
:103F0000DF91CF911F910F91FF90EF90DF90CF90B5
:103F1000BF90AF909F908F907F906F905F904F90E9
:103F20003F902F9008950F93CF93DF93EC0184EC93
:103F300094E00E944727892B31F06AE979E08DEF00
:103F400093E00E946225FE01EF5BFF4F8FEF9FEF32
:103F500091838083688D798D84EC94E00E947A153A
:103F600067EC73E0888D998D0E942A2525EE34E157
:103F700040E050E000E066E973E0CE010E944B1E95
:103F8000DF91CF910F9108958F929F92AF92BF9240
:103F9000CF92DF92EF92FF920F931F93CF93DF9315
:103FA000EC016B0149015A0184EC94E00E9447271F
:103FB000892B31F065E879E08DEF93E00E9462256E
:103FC00066E779E0888D998D0E943E2540919C049A
:103FD00050919D0460E070E020E1888D998D0E94F1
:103FE000DD246EE679E0888D998D0E943E25088D4E
:103FF000198D2AE04AE250E060E070E0C8010E94BA
:10400000DD24C8010E9426258AE9E82E84E0F82EE6
:1040100001E010E0F70184899589A689B789892B89
:104020008A2B8B2BD9F0B801888D998D0E94C117EE
:104030006BE679E0888D998D0E943E25F7014489D1
:104040005589668977892AE0888D998D0E94DD24BB
:1040500067EC73E0888D998D0E942A250F5F1F4FB2
:10406000F4E0EF0EF11C06301105A1F667EC73E0E9
:10407000888D998D0E942A2581149104A1F000E079
:10408000A5019401B601CE010E944B1EDF91CF9194
:104090001F910F91FF90EF90DF90CF90BF90AF9066
:1040A0009F908F900895CE01DF91CF911F910F9136
:1040B000FF90EF90DF90CF90BF90AF909F908F9048
:1040C0000C94701EEF92FF920F931F93CF93DF9388
:1040D00000D0CDB7DEB78AE994E00E94772660E091
:1040E0008EE499E00E945E0D0E94E91C0E94D118A6
:1040F00060E081E499E00E945E0D80919A049091C5
:104100009B040E94C7170EEA14E082ECE82E84E0BC
:10411000F82EF80161917191819191918F0140E0A8
:104120000E947E1660E08BE992E00E94280DE01666
:10413000F10679F761E087EC93E00E94280D0E9478
:10414000311D811120C00E94E91C90939D04809331
:104150009C0480919A0490919B040AE914E09C01CC
:104160002A5934407901C701800F911FF8016191EC
:104170008F019A838983CE0101960E94F10CF4E0AD
:10418000043C1F0781F70F900F90DF91CF911F9193
:104190000F91FF90EF900895CF93DF93282F30E099
:1041A000F901E35DF64F8491F901EC54F54FD49198
:1041B000F901E056F54FC491CC2391F081110E9492
:1041C000081DEC2FF0E0EE0FFF1FE457F54FA5910F
:1041D000B491EC91ED2381E090E021F480E002C005
:1041E00080E090E0DF91CF9108950F931F93CF93DC
:1041F000DF93EC0140911F0550912005052E000C26
:10420000660B770B0E943119CE010E94A7058E0123
:10421000045E1F4F64E872E0C8010E942E31892BB2
:1042200041F164E971E0C8010E942E31892B49F502
:104230008AE00E94CC20892BE1F468EC7AE0888D3A
:10424000998D0E943E2561E172E0888D998D0E94D2
:104250003C256EEF71E0888D998D0E943C256FEAB8
:1042600073E0888D998D0E942A25888D998D0E94F2
:10427000262540E158E060E070E020E0CE010E9499
:10428000F018DF91CF911F910F9108951F93CF9355
:10429000DF93282F30E0F901E35DF64F8491F901B7
:1042A000EC54F54FD491F901E056F54FC491CC236D
:1042B000C1F0162F81110E94081DEC2FF0E0EE0FC7
:1042C000FF1FEA56F54FA591B4919FB7F8941111CD
:1042D00004C08C91D095D82302C0EC91DE2BDC93E6
:1042E0009FBFDF91CF911F910895CF93DF9390E00F
:1042F000FC01EC54F54F2491FC01E056F54F8491FC
:10430000882361F190E0880F991FFC01ED5DF64F65
:10431000C591D491FC01EA56F54FA591B491611174
:1043200009C09FB7F8948881209582238883EC91F7
:104330002E230BC0623061F49FB7F8948881322F2E
:10434000309583238883EC912E2B2C939FBF06C03E
:104350008FB7F894E8812E2B28838FBFDF91CF9100
:1043600008950F931F93CF93DF93EC01162F042F23
:104370001B821A8288EE93E0A0E0B0E08C839D83DC
:10438000AE83BF8382E891E0998388831F8A1E8A67
:10439000198E188E1B8E1A8E1D8E1C8E6E8D6E7F42
:1043A0006D7F6E8F6695617081E06827842F0E9413
:1043B000462161E0802F0E947521802F90E0FC0152
:1043C000EC54F54FE491E88BFC01E056F54FE49195
:1043D000F0E0EE0FFF1FEA56F54F859194919A8B0E
:1043E000898B60E0812F0E9475218E8D81FD04C034
:1043F00061E0812F0E9446211C87812F90E0FC0103
:10440000EC54F54FE491ED87FC01E056F54FE49153
:10441000F0E0EE0FFF1FE457F54F859194919F87D1
:104420008E87DF91CF911F910F910895EF92FF92A8
:104430000F931F93CF93DF93EC018A017901798366
:1044400068831E821D8218861F821A8619861C8622
:104450001B860E9488276D877E878F87988B198A95
:104460001A8A1B8A1C8AFE8AED8A188E1F8AFE0110
:10447000799684E1DF011D928A95E9F743E050E0E7
:10448000B801CE0102960E94163061E088810E9438
:10449000752160E08881DF91CF911F910F91FF908E
:1044A000EF900C9446218F929F92AF92BF92CF9241
:1044B000DF92EF92FF926B017C010E9463274B0118
:1044C0005C01C114D104E104F104F1F00E946327FE
:1044D000DC01CB0188199909AA09BB09883E9340E0
:1044E000A105B10570F321E0C21AD108E108F10875
:1044F00088EE880E83E0981EA11CB11CC114D10463
:10450000E104F10419F7DDCFFF90EF90DF90CF9039
:10451000BF90AF909F908F900895CF92DF92EF92CF
:10452000FF920F931F93CF93DF936C017A018B015E
:10453000C0E0D0E0CE15DF0581F0D8016D918D018E
:10454000D601ED91FC910190F081E02DC601099515
:10455000892B11F02196EECF7E01C701DF91CF911B
:104560001F910F91FF90EF90DF90CF900895FC0185
:10457000538D448D252F30E0842F90E0821B930BC8
:10458000541710F0CF96089501970895FC01918D6E
:10459000828D981761F0828DDF01A80FB11D5D96A5
:1045A0008C91928D9F5F9F73928F90E008958FEF13
:1045B0009FEF0895FC01918D828D981731F0828DC7
:1045C000E80FF11D858D90E008958FEF9FEF08951E
:1045D000FC01918D228D892F90E0805C9F4F821B82
:1045E00091098F73992708958DEF93E00E94E82237
:1045F00021E0892B09F420E0822F0895FC01848DAD
:10460000DF01A80FB11DA35ABF4F2C91848D90E0FC
:1046100001968F739927848FA689B7892C93A089D7
:10462000B1898C91837080648C93938D848D981361
:1046300006C00288F389E02D80818F7D80830895F4
:10464000EF92FF920F931F93CF93DF93EC0181E0E2
:10465000888F9B8D8C8D981305C0E889F98980819E
:1046600085FD26C0F62E0B8D10E00F5F1F4F0F73D8
:104670001127E02E8C8DE8120CC00FB607FCFACF84
:10468000E889F989808185FFF5CFCE010E94FE225D
:10469000F1CF8B8DFE01E80FF11DE35AFF4FF08241
:1046A0009FB7F8940B8FEA89FB89808180620AC0EA
:1046B0009FB7F894EE89FF896083E889F989808142
:1046C0008370806480839FBF81E090E0DF91CF9111
:1046D0001F910F91FF90EF900895CF93DF93EC011E
:1046E000888D8823C9F0EA89FB89808185FD05C012
:1046F000A889B9898C9186FD0FC00FB607FCF5CF4C
:10470000808185FFF2CFA889B9898C9185FFEDCF93
:10471000CE010E94FE22E7CFDF91CF91089580E085
:1047200090E0892B29F00E94F42281110C94000062
:1047300008952091FB033091FC032817390771F489
:1047400090916C0580916B05981741F0E0916C0594
:10475000F0E0E55DFA4F808190E008958FEF9FEFE4
:10476000089508951F93CF93DF93DC015C968D919C
:104770009C915D97009739F421E030E013963C93CB
:104780002E9312973BC05196ED91FC915297509603
:104790002C915097322F30951FB75E964C915E97B3
:1047A000742F727041FD6095F8944081772311F069
:1047B000422B01C043234083EC012197F1F748E0ED
:1047C000508160FF02C0522B01C053235083EC0183
:1047D0002197F1F76695415099F78081772319F079
:1047E0008323808302C0282B20831FBF5C968D917A
:1047F0009C915D970197F1F781E090E0DF91CF9177
:104800001F9108952091FB033091FC03281739076D
:1048100071F480916B0520916C0590E0805C9F4F56
:10482000821B910960E470E00E94C630089580E028
:1048300090E008952091FB033091FC03281739077D
:10484000B9F490916C0580916B05981789F0E0910F
:104850006C05F0E0E55DFA4F808120916C0530E059
:104860002F5F3F4F2F73332720936C0590E00895FF
:104870008FEF9FEF0895089580E090E008950E94E3
:1048800013316115710579F0FB0101900020E9F702
:104890003197AF01461B570BDC01ED91FC91028073
:1048A000F381E02D099480E090E00895909100015B
:1048B000891324C0E7EFFAE0E4919FEF90930001A1
:1048C000E130B9F098F0E230C9F4909170009D7F2A
:1048D0009093700091E09093B0009091B100987F18
:1048E00094609093B1001092B30008C010926E00D3
:1048F00005C090916F009D7F90936F0060E00C94D5
:1049000046211F920F920FB60F9211242F933F93BF
:104910004F935F936F937F938F939F93AF93BF93C7
:10492000EF93FF938091270590912805A091290589
:10493000B0912A05892B8A2B8B2B51F1909126055A
:10494000E0912405F091250580818927808380915D
:10495000270590912805A0912905B0912A051816E0
:1049600019061A061B06C4F48091270590912805A4
:10497000A0912905B0912A050197A109B109809359
:10498000270590932805A0932905B0932A0504C014
:10499000809100010E945624FF91EF91BF91AF9149
:1049A0009F918F917F916F915F914F913F912F9147
:1049B0000F900FBE0F901F9018958F929F92AF92FD
:1049C000BF92EF92FF920F931F93CF93DF93CDB7D8
:1049D000DEB7A1970FB6F894DEBF0FBECDBF7C0146
:1049E000FA01CB0119A2223008F42AE08E010F5DF2
:1049F0001F4F822E912CA12CB12CBF01A501940137
:104A00000E945330F901CA01015011096A3014F4AF
:104A1000605D01C0695CD8016C93232B242B252B8E
:104A200061F7B801C7010E944124A1960FB6F8941E
:104A3000DEBF0FBECDBFDF91CF911F910F91FF90D1
:104A4000EF90BF90AF909F908F90089565EC73E0CA
:104A50000C9441240F931F93CF93DF93EC010E949A
:104A600041248C01CE010E942625800F911FDF91E9
:104A7000CF911F910F9108950C944124EF92FF92D2
:104A80000F931F93CF93DF938C017B01C0E0D0E0A5
:104A9000F701EC0FFD1F6491662361F0D801ED91E1
:104AA000FC910190F081E02DC8010995892B11F04E
:104AB0002196EECFCE01DF91CF911F910F91FF9004
:104AC000EF9008950F931F93CF93DF93EC010E9413
:104AD0003E258C01CE010E942625800F911FDF917B
:104AE000CF911F910F9108951F920F920FB60F92C1
:104AF00011242F933F934F935F936F937F938F93E3
:104B00009F93AF93BF93EF93FF938DEF93E00E943A
:104B1000FE22FF91EF91BF91AF919F918F917F9175
:104B20006F915F914F913F912F910F900FBE0F901A
:104B30001F9018951F920F920FB60F9211242F936A
:104B40008F939F93EF93FF93E0910D04F0910E04E8
:104B50008081E0911304F091140482FD12C09081D1
:104B6000809116048F5F8F7320911704821751F084
:104B7000E0911604F0E0E350FC4F958F809316040B
:104B800001C08081FF91EF919F918F912F910F90A4
:104B90000FBE0F901F9018951F920F920FB60F9295
:104BA00011242F933F934F935F936F937F938F9332
:104BB0009F93AF93BF93EF93FF93E091FB03F0912B
:104BC000FC03309709F451C0968DA685B78585857D
:104BD00091FF04C09C91892329F447C09C918923AB
:104BE00009F043C0A389B4899C9185898095892364
:104BF0008C93868997890197F1F7608D718DA685D1
:104C0000B785558538E020E0CB010197F1F7822F79
:104C100090E095958795282F4C91452309F02068C1
:104C2000315091F7868D81FD209580916B0590E044
:104C300001968F73992730916C05381749F0A09130
:104C40006B05B0E0A55DBA4F2C9380936B0503C054
:104C5000868D8160868F828D938D0197F1F7A38970
:104C6000B4899C918589892B8C93FF91EF91BF9199
:104C7000AF919F918F917F916F915F914F913F91F4
:104C80002F910F900FBE0F901F901895CF93DF9329
:104C9000FC01828D938D892B31F1A091FB03B091A2
:104CA000FC03EA17FB07F9F0109751F05396CD91EA
:104CB000DC915497988155968C91809589238883AF
:104CC000868D8E7F868F10926B0510926C05F09307
:104CD000FC03E093FB03A389B4899C918589892B0C
:104CE0008C9381E001C080E0DF91CF910895CF9255
:104CF000DF92EF92FF9220E030E04FEF5FEFD901BB
:104D0000AA0FBB1FAA0FBB1FA80FB91F5496CD90A7
:104D1000DD90ED90FC905797C114D104E104F104AB
:104D200031F44F3F6FEF5607F1F4A9011CC0211574
:104D30003105C9F04F3F6FEF5607A9F0FA013596DC
:104D4000EE0FFF1FEE0FFF1FE80FF91FC082D18289
:104D5000E282F38254961D921D921D921C925797E7
:104D60009A014FEF5FEF2F5F3F4F253031053CF247
:104D7000FF90EF90DF90CF9008950F931F93CF9304
:104D8000DF93EC018C010C5F1F4F40E150E068ECB9
:104D900073E0C8010E9416308CEB92E099838883FF
:104DA000FE01749684E1DF011D928A95E9F7F9A767
:104DB000E8A78C8181110BC040E150E06DEC73E0FD
:104DC000C801DF91CF911F910F910C941630DF91A4
:104DD000CF911F910F910895CF93DF93EC010E9423
:104DE0000A0D2A813B818217930739F49C012150D7
:104DF000310981E02E3F3F4F08F080E0DF91CF91F5
:104E00000895CF92DF92EF92FF920F931F93CF936B
:104E1000DF9300D0CDB7DEB78C010E94EC26811164
:104E200020C0C8010E940A0DF80193838283E080AC
:104E3000F1806801FEE5CF0ED11CE01AF10AC7012E
:104E4000800F911FF80161918F019A838983CE01B0
:104E500001960E94F10C0C151D0589F701E010E088
:104E600002C000E010E060E08DED9AE00E945E0D6F
:104E7000C8010E94C717C8010F900F90DF91CF9112
:104E80001F910F91FF90EF90DF90CF900895CF93F7
:104E9000DF93EC018BE00E94CC20892B79F080918C
:104EA000E40381110BC0C65BDF4F81E090E02881F5
:104EB00039812130310521F080E002C081E090E0AD
:104EC000DF91CF9108953FB7F8948091720590914A
:104ED0007305A0917405B091750526B5A89B05C012
:104EE0002F3F19F00196A11DB11D3FBFBA2FA92F69
:104EF000982F8827820F911DA11DB11DBC01CD01E6
:104F000042E0660F771F881F991F4A95D1F70895D1
:104F10002FB7F89460916E0570916F0580917005C0
:104F2000909171052FBF08951F920F920FB60F92A7
:104F300011242F933F938F939F93AF93BF938091AF
:104F40006E0590916F05A0917005B091710530913B
:104F50006D0523E0230F2D3720F40196A11DB11D0F
:104F600005C026E8230F0296A11DB11D20936D05F3
:104F700080936E0590936F05A0937005B0937105B3
:104F80008091720590917305A0917405B09175059B
:104F90000196A11DB11D8093720590937305A09396
:104FA0007405B0937505BF91AF919F918F913F911B
:104FB0002F910F900FBE0F901F901895CF93DF93F6
:104FC000CDB7DEB764970FB6F894DEBF0FBECDBF86
:104FD000789484B5826084BD84B5816084BD85B5D4
:104FE000826085BD85B5816085BD80916E008160E0
:104FF00080936E0010928100809181008260809386
:105000008100809181008160809381008091800087
:105010008160809380008091B10084608093B100B2
:105020008091B00081608093B00080917A008460AC
:1050300080937A0080917A00826080937A008091D8
:105040007A00816080937A0080917A0080688093F2
:105050007A001092C10062E08AE00E94752162E04D
:105060008CE00E94752162E08BE00E94752161E076
:1050700085E00E94752161E08DE00E9475218BE042
:105080000E94CC2021E0892B09F020E02093E4034A
:1050900060E071EE80E090E00E945F18409115059D
:1050A00050911605609117057091180580912205A1
:1050B000909123050E94431D6FE070E080E090E036
:1050C0000E94532260E08FE596E00E945E0D60E052
:1050D00081E192E00E94280D60E08CE596E00E945C
:1050E0005E0D61E08FE192E00E94280D60E089E4AE
:1050F00096E00E945E0D0091E4030E94B30710E069
:10510000882379F0B80180912205909123050E94AF
:10511000C11767EC73E080912205909123050E94EE
:105120002A25B8018DEF93E00E94C11767EC73E068
:105130008DEF93E00E942A2584EC94E00E9447279B
:10514000892B31F06CE176E08DEF93E00E946225CF
:1051500084EC94E00E944727892B21F085E392E0BC
:105160000E94D8078CE00E94CC20892B21F461E0BA
:1051700081EB94E021C064ECE62E64E0F62E00E2C0
:1051800013E0C8010E942D30D7018D937D010F5F80
:105190001F4F0E37B3E01B07A1F780E293E0909317
:1051A000C5048093C40484EC94E00E94EC26811131
:1051B00005C061E08CE194E00E945E0D84EC94E017
:1051C0000E94EC26882309F4D7C38CE00E94CC20EF
:1051D000892B09F4D1C360E08EE394E00E945E0D58
:1051E00004EC14E060E0C80144960E94280D61E0E0
:1051F00085E592E00E94280D409115055091160515
:1052000060911705709118058091220590912305F2
:105210000E94431D8DEF93E00E946D236091110564
:105220007091120580911305909114050E945F18EA
:105230006FE070E080E090E00E94532260E08AE03E
:1052400096E00E945E0D60E088ED94E00E94280DDB
:1052500060E086EF95E00E945E0D84EC94E00E9491
:105260000A0D0E94D11860E08BEE95E00E945E0D61
:105270000E94B307882399F02AE04EE550E060E0F1
:1052800070E080912205909123050E94DD2467EC57
:1052900073E080912205909123050E942A252AE03F
:1052A0004EE550E060E070E08DEF93E00E94DD2479
:1052B00067EC73E08DEF93E00E942A2560E08DEBB0
:1052C00095E00E945E0DC0901105D0901205E0900F
:1052D0001305F09014050E94B307882381F0B701ED
:1052E000A60180912205909123050E948B1767ECFF
:1052F00073E080912205909123050E942A25B70131
:10530000A6018DEF93E00E948B1767EC73E08DEFA1
:1053100093E00E942A2561E087EC93E00E94280D2B
:105320006DEF73E084EC94E00E947A1567EC73E013
:105330008DEF93E00E942A250E94B307882381F015
:10534000609122057091230584EC94E00E947A1507
:1053500067EC73E080912205909123050E942A2535
:1053600084EC94E00E944727892B21F087E592E0A6
:105370000E94D8078DE290E00E94CF2D8C0120E0A2
:1053800030E04BE652E068E070E00E941622109395
:10539000F6030093F5038DE290E00E94CF2D8C017F
:1053A00020E030E04EE652E067E070E00E94162216
:1053B0001093F8030093F7038DE290E00E94CF2D45
:1053C0008C0120E030E041E752E066E070E00E94AE
:1053D00016221093FA030093F9038DE290E00E94E5
:1053E000CF2D8C0120911D0530911E0544E752E020
:1053F00069E070E00E9416221093F0030093EF031F
:105400008FE190E00E94CF2D8C0144E164E00E9486
:10541000B1211093EC030093EB03809110058230CF
:10542000D9F08330A9F581E490E00E94CF2D7C0172
:1054300000E02AE043E06DE00E94CE1683E191E0B7
:10544000D7018D939C9360E08DEE94E00E945E0DF9
:1054500061E08DE792E018C081E490E00E94CF2DDA
:105460007C0101E027E044E06AE00E94CE168BE078
:1054700091E0F7019183808360E08CED94E00E94DD
:105480005E0D61E087E792E00E94280D870108C069
:1054900081E490E00E94CF2D7C010E945417870187
:1054A0001093EA030093E9038091EB039091EC03DE
:1054B000F801FF969183808388E090E00E94CF2DD1
:1054C0007C01C090EF03D090F00380910C05909187
:1054D0000D058230910529F480E090E00E942D3086
:1054E00090E0F701918380831383028385EF93E03B
:1054F00095838483D782C682F092EE03E092ED0317
:1055000085E490E00E94CF2D7C0124E1A22EFC01D5
:105510003296DF012A2D1D922A95E9F7CC24CA94F0
:10552000DC2CDC015796DC92CE9256974BE1842E10
:1055300041E0942E11969C928E928DEF93E05996B5
:105540009C938E9358975B961C930E935A97F701F2
:10555000178E10A211A212A293961D921D921D9257
:105560001C92969758E1B52EB796DF012B2D1D9210
:105570002A95E9F77896118210823296D182C082FC
:1055800032961182108243E050E064E872E0C70175
:105590004C960E941630F092E803E092E70385E40F
:1055A00090E00E94CF2D8C018091E9039091EA0355
:1055B0002091220530912305F8013296DF011D92DA
:1055C000AA94E9F7F801D78AC68A91828082318F3E
:1055D000208F938F828F178E10A211A212A213A276
:1055E00014A215A216A2B796DF011D92BA94E9F78C
:1055F0007896118210823296D182C08232961182C0
:10560000108243E050E064E971E0C8014C960E94CA
:1056100016301093E6030093E50384EC94E00E94B7
:105620004727892B21F087E892E00E94D807009154
:10563000ED031091EE0360E08EEF94E00E945E0DAA
:10564000F801808191810E94C717D8016C918DE08B
:105650000E944621F801808191810480F581E02D2E
:10566000892B19F08281938102C0808191810E94EF
:105670003A0960E08AE295E00E945E0DD801129638
:105680008D919C911397DC01ED91FC910280F38147
:10569000E02D099561E00E94280DD8011296ED9148
:1056A000FC911397658181E0682785E00E9446217F
:1056B00062E370E080E090E00E945322D8011296ED
:1056C000ED91FC911397658185E00E944621409100
:1056D000190550911A0560911B0570911C05809168
:1056E000EB039091EC030E94431D9AE9E92E94E0AC
:1056F000F92E0CEB12E0C8010E942D30F7018193C6
:105700007F010F5F1F4F063EF2E01F07A1F78CEBF2
:1057100092E090939B0480939A040E94311D811122
:1057200005C061E08BE495E00E945E0D60E082EAD6
:1057300095E00E945E0D84EC94E00E944727892B3F
:10574000B1F461E087EC93E00E94280D0E94311DC6
:10575000811125C061E08DE695E00E945E0D8AE230
:1057600090E00E94CF2D8C010E94BD261AC00EEA47
:1057700014E082ECE82E84E0F82ED8016D917D9142
:105780008D919D918D0140E00E947E1660E08BE935
:1057900092E00E94280DE016F10679F7D2CF0AE9CF
:1057A00014E0C8010E94772661E08FEA95E00E942C
:1057B0005E0D8091E7039091E8030E94F5208091AF
:1057C000E5039091E6030E94F52084EC94E00E94AA
:1057D0004727892B21F08DE992E00E94D80761E0EC
:1057E00087EC93E00E94280DFE0131961F01809105
:1057F000F5039091F6030E940E0A8091F7039091B1
:10580000F8030E940E0A8091F9039091FA030E9416
:105810000E0A8091EF039091F0030E940E0A80918E
:10582000F3039091F403181619066CF52091F10317
:105830003091F2038091E7039091E803211531053F
:1058400019F02817390711F40E94181C8091F103F0
:105850009091F203009709F4AEC02091E5033091D6
:10586000E6038217930709F4A6C08AE00E94CC20C1
:10587000019709F07EC08091F3039091F403892B86
:1058800009F099C076C0892B09F073C00091ED032F
:105890001091EE03D80112968D919C9113970E945E
:1058A0007719D8011296ED91FC911397438C548C83
:1058B000658C768CC788D08CE18CF28C41145104B5
:1058C00061047104B1F4878D90A1A1A1B2A10097E8
:1058D000A105B10571F0A7019601281B390B4A0BF0
:1058E0005B0BDA01C901813D9740A105B10508F0C4
:1058F0007BC04601570184189508A608B708209177
:10590000F8043091F9044091FA045091FB04A8EE98
:10591000B3E00E947530681579058A059B0550F43F
:10592000278D30A141A152A1211531054105510515
:1059300009F048C045284628472881F0C7A4D0A8C8
:10594000E1A8F2A8C814D904EA04FB0408F0AFC027
:10595000681579058A059B0508F070C08091F303EE
:105960009091F403892B29F4D8016C918DE00E9469
:1059700046210E948F233BCF61E081E994E00E94A1
:105980005E0D8EE590E00E94CF2D8C010E940D16D9
:1059900040E250E069EA72E0C80144960E94163085
:1059A00080E293E0F8019183808360E087E694E0F1
:1059B0000E945E0D17CC8091E5039091E6030E9452
:1059C000181CD7CFC21AD30AE40AF50AC814D9049E
:1059D000EA04FB0408F0AECF41EDC41647E0D4065C
:1059E000E104F10408F4A6CFD8011496ED91FC91DE
:1059F0001597808191810E948609D8011496ED91B6
:105A0000FC911597828193810E94AB09F8018681F0
:105A100097810E943A1860E070E0C8010E944B1024
:105A2000D8011296ED91FC91139723E030E040E00D
:105A300050E023A334A345A356A390CFD8018D9162
:105A40009C9111971496ED91FC911597892B61F01B
:105A5000828193810E946109D8011496ED91FC9195
:105A60001597808191810BC0808191810E9461098D
:105A7000D8011496ED91FC911597828193810E9433
:105A8000AB09F80186819781D101E4E11D92EA9585
:105A9000E9F726E430E03A8329833C832B83A10194
:105AA00060E070E00E94EA1761E070E0B6CFD801D4
:105AB0001496ED91FC91159782819381F10124E177
:105AC00011922A95E9F748EE53E05A834983A101E0
:105AD00060E070E00E94EA17D8011496ED91FC9105
