:100000000C94FC060C9424070C9424070C94B5273C
:100010000C94B5270C94B5270C9424070C94572600
:100020000C9424070C9424070C9424070C942407A4
:100030000C9424070C9424070C9424070C94240794
:100040000C94002A0C9424070C9483270C945D27AD
:100050000C9424070C9424070C9424070C94240774
:100060000C9424070C942407C10CC80CCE0CE00C93
:10007000F10CFF0C030D2B0D2F0D3A0DAD0DB80D2E
:10008000C30DCE0DD90DF60DFD0D040E090E140E87
:100090001F0E2A0E310E380E430E081321133A1389
:1000A00053136E1389138C138F13B713D213ED13DD
:1000B00008140B141114191443616C6C696E6720D9
:1000C000454550524F4D2E757064617465207769B7
:1000D00074682070726F78696D6974795F73746188
:1000E00074653A2000292000465245452052414D72
:1000F0002028004D656E753A3A636C6561725365F0
:100100007269616C506F72742829004D656E753A82
:100110003A7265736574496E70757442756666658A
:10012000722829004D656E753A3A676574546167A7
:1001300046726F6D5363616E6E6572282920666F1B
:10014000756E64207461672000636865636B536536
:100150007269616C506F727420454F4C20696E64F7
:10016000783A2000636865636B53657269616C500F
:100170006F72742829207263766420627974653AFC
:100180002000616464546167282920737563636586
:100190007373006164645461672829206661696C27
:1001A00065643A2044757065006164645461672831
:1001B00029206661696C65643A2046756C6C006143
:1001C000646454616728292061626F727465643ABF
:1001D00020496E76616C696420636F6465006164B8
:1001E00064546167282920006661696C65642C206D
:1001F000746167206973206475706C6963617465EC
:10020000006661696C65642C20746167206C697399
:10021000742069732066756C6C0061626F7274651E
:10022000642C20696E76616C6964207461672D6945
:100230006420737472696E670073756363657373AA
:1002400000416464546167282920726573756C7479
:100250003A200054616720656E74657265643A20C7
:100260000064656C657465546167496E64657828DF
:10027000293A200044656C6574655461672829201B
:10028000726573756C743A200064656C65746554AE
:10029000616728292061626F72746564004D656E24
:1002A000753A3A64656C6574655461672829006421
:1002B000656C657465416C6C5461677328290064D2
:1002C000656C657465416C6C5461677328292061A5
:1002D000626F7274656400757064617465536574EF
:1002E00074696E6728292063616C6C20746F2053D9
:1002F0002E75706461746553657474696E6728291E
:10030000206661696C65640075706461746553652D
:100310007474696E6728292061626F727465640065
:100320004D656E753A3A75706461746553657474A1
:10033000696E6728293A20004D656E753A3A6279F0
:100340007465546F41736369694368724E756D20BB
:100350007263766420627974653A20004D656E752B
:100360003A3A6D656E754164645461672829004DA1
:10037000656E753A3A6D656E7544656C6574655465
:1003800061672829004D656E753A3A6D656E754452
:10039000656C657465416C6C54616773282900460F
:1003A000726565204D656D6F72793A20004D656EFE
:1003B000753A3A6D656E7553686F77467265654D2F
:1003C000656D6F72792829004D656E753A3A6D65D5
:1003D0006E755265626F6F742829006D656E755376
:1003E000656C65637465644D61696E4974656D2003
:1003F000627974657320746F206E756D3A20006D9C
:10040000656E7553656C65637465644D61696E49AD
:1004100074656D207263766420646174613A2000B3
:1004200053746F726167653A3A4C6F616428292092
:10043000454E440053746F726167652073697A6535
:100440006F66285429200053746F726167652073AA
:10045000697A656F66282A6F626A6563745F726580
:100460006629200053746F72616765206F626A6548
:1004700063745F7265662D3E73746F726167655F4A
:100480006E616D6520270053746F7261676520652A
:100490006570726F6D5F6164647265737320005381
:1004A000746F726167653A3A4C6F61642829206302
:1004B0006865636B73756D206D69736D61746368D6
:1004C0000053746F726167653A3A4C6F6164282912
:1004D00020424547494E0053657474696E67733A0C
:1004E0003A4C6F61642829207573696E67207374B4
:1004F0006F7265642073657474696E67732027007A
:1005000053657474696E67733A3A4C6F6164282955
:10051000207573696E672064656661756C742073FD
:10052000657474696E677320270053657474696E0F
:1005300067733A3A4C6F616428292063686B736D66
:10054000206D69736D61746368206F7220666169E4
:100550006C736166650053657474696E67733A3ACB
:100560004C6F616428292063686B736D206D69731B
:100570006D61746368004661696C736166652065CE
:100580006E61626C65642C20736B697070696E6754
:100590002073746F7265642073657474696E677319
:1005A0000053657474696E67733A3A4C6F616428DE
:1005B0002920424547494E004C6F6164696E6720AF
:1005C0007265616465723A20004C6F6164696E67A0
:1005D000207265616465723A200053657474696EB7
:1005E00067206F7574707574207377697463682001
:1005F0007065722070726F78696D6974795F737459
:100600006174653A20005374617274696E672043A7
:100610006F6E74726F6C6C6572207769746820728B
:100620006561646572200053746F726167653A3A60
:100630004C6F6164282920454E440053746F7261E9
:1006400067652073697A656F6628542920005374A2
:100650006F726167652073697A656F66282A6F62B9
:100660006A6563745F72656629200053746F7261F6
:100670006765206F626A6563745F7265662D3E739D
:10068000746F726167655F6E616D652027005374DA
:100690006F7261676520656570726F6D5F6164641C
:1006A00072657373200053746F726167653A3A4CD8
:1006B0006F6164282920636865636B73756D206DB5
:1006C00069736D617463680053746F726167653A32
:1006D0003A4C6F6164282920424547494E005461D5
:1006E00067733A3A4C6F6164282920636865636BCD
:1006F00073756D206D69736D617463682C2063720E
:10070000656174696E67206E6577207461672D730B
:1007100065740054616773206C6F61646564004D9B
:10072000656E753A3A426567696E2829004C6F67B5
:100730004C6576656C28293A20004465627567200F
:1007400070696E207374617475733A2000496E6924
:100750007469616C697A65642048572073657269B1
:10076000616C20706F72742040200027206F66201B
:1007700073697A652000272077697468206368654B
:10078000636B73756D20273078004C6F616465640E
:100790002053657474696E67732027002C20004213
:1007A0006F6F74696E6720524649442070726F788B
:1007B000696D6974792073656E736F722C200049BE
:1007C0006E697469616C697A656420485720736545
:1007D0007269616C20706F7274204020353736303A
:1007E0003000524649442070726F78696D6974799F
:1007F0002073656E736F72207072652D626F6F74F7
:10080000006C6F675F6C6576656C006C6F675F741A
:100810006F5F62740061646D696E5F73746172749E
:1008200075705F74696D656F757400746F6E655F68
:100830006672657175656E637900726669645F6280
:100840006175640062745F626175640068775F73EC
:10085000657269616C5F626175640064656661758B
:100860006C745F72656164657200656E61626C656F
:100870005F64656275670070726F78696D6974791D
:100880005F73746174655F73746172747570006115
:10089000646D696E5F74696D656F75740072656112
:1008A0006465725F6379636C655F686967685F64DC
:1008B00075726174696F6E007265616465725F6301
:1008C00079636C655F6C6F775F6475726174696F73
:1008D0006E007461675F726561645F736C656570FB
:1008E0005F696E74657276616C007461675F6C61DC
:1008F00073745F726561645F74696D656F757400B0
:100900003A20006D656E7553656C6563746564535C
:10091000657474696E67207365742073656C6563B4
:100920007465645F6D656E755F6974656D20746F65
:100930003A20004D656E753A3A6D656E7553656C7B
:10094000656374656453657474696E672829005320
:10095000656C65637465643A2000436D643A2000F9
:100960004C6F6164696E67207265616465723A20DC
:1009700000EA08D208B8089D088F0877086A085B63
:10098000084C0844083A082B0815080B0801082CE5
:100990002073697A65200053657474696E67732CDF
:1009A0002063686B736D20307800757064617465C6
:1009B00041646D696E54696D656F757428293A20BC
:1009C000004D656E753A3A726561644C696E6557A3
:1009D00069746843616C6C6261636B282900456EC1
:1009E000746572696E672072756E206D6F64650044
:1009F0002073657474696E672072756E5F6D6F64C5
:100A000065203D3E2030004D656E753A3A65786947
:100A10007441646D696E2829004D454E55204C4F38
:100A20004F5020454E44004D454E55204C4F4F50A1
:100A300020424547494E3A20002C20757074696D5C
:100A40006520006E6576657200732061676F002C0B
:100A5000206379636C656420006E6576657200734F
:100A60002061676F006379636C65526561646572CC
:100A7000506F776572282920746167207265616400
:100A80002000556E617574686F72697A6564206FB5
:100A90007220696E76616C6964207461673A200027
:100AA000417574686F72697A6564207461673A2071
:100AB0000000000000240027002A000000000800B9
:100AC00002010000030407000000000000000053C2
:100AD000746F726167653A3A7361766528292045BB
:100AE0004E440053746F726167653A3A736176657C
:100AF000282920454550524F4D207570646174651A
:100B0000206E6F74206E6563657373617279005334
:100B1000746F726167653A3A73617665282920457A
:100B20004E440053746F726167653A3A736176653B
:100B300028292063686B736D206D69736D61746320
:100B4000682C2063616C6C696E6720454550524F7C
:100B50004D2E7075742829002073697A656F662898
:100B6000542920002720746F2061646472657373B8
:100B7000200053746F726167653A3A736176652835
:100B80002920270053746F726167653A3A73617662
:100B900065282920424547494E002E20002C20730D
:100BA000697A652000546167732C2063686B736DEC
:100BB000203078004D656E753A3A6D656E754C69FA
:100BC0007374546167732829004D656E753A3A6DE8
:100BD000656E7553657474696E6773282900290002
:100BE000526561646572732028004D656E753A3AEE
:100BF0006D656E754C6973745265616465727328B6
:100C000029004E2F4100392E20425420636F6D6D14
:100C1000616E6400382E20526573746172740037FF
:100C20002E204C697374207265616465727300369E
:100C30002E2053686F772066726565206D656D6F35
:100C4000727900352E2053657474696E67730034B1
:100C50002E2044656C65746520616C6C207461673E
:100C60007300332E2044656C6574652074616700E1
:100C7000322E204164642074616700312E204C695B
:100C80007374207461677300302E20457869740096
:100C90004D656E75004D656E753A3A6D656E754DB4
:100CA00061696E2829003A20004D656E753A3A62F6
:100CB0007566666572526561647928293A2000007C
:100CC0000000002300260029000000000025002865
:100CD000002B0004040404040404040202020202BF
:100CE00002030303030303010204081020408001F0
:100CF0000204081020010204081020524649442032
:100D000061646D696E20636F6E736F6C652C20007B
:100D100053746F726167653A3A736176652829206A
:100D2000454E440053746F726167653A3A73617659
:100D300065282920454550524F4D207570646174D7
:100D400065206E6F74206E656365737361727900E0
:100D500053746F726167653A3A736176652829202A
:100D6000454E440053746F726167653A3A73617619
:100D70006528292063686B736D206D69736D6174DC
:100D800063682C2063616C6C696E67204545505226
:100D90004F4D2E7075742829002073697A656F662F
:100DA00028542920002720746F20616464726573C1
:100DB00073200053746F726167653A3A73617665A8
:100DC000282920270053746F726167653A3A73616E
:100DD0007665282920424547494E00536574746959
:100DE0006E67733A3A736176652829207265737568
:100DF0006C743A200002B93011241FBECFEFD8E046
:100E0000DEBFCDBF14E0A0E0B1E0E6EBFEE602C03D
:100E100005900D92AE31B107D9F725E0AEE1B4E00F
:100E200001C01D92A13CB207E1F716E0CCEFD6E07D
:100E300004C02197FE010E942934CB3FD107C9F796
:100E40000E944A2A0C9459370C9400008AE00E94B0
:100E50005521892BE1F480916105882339F0809137
:100E6000330490913404892B59F413C08BE00E9411
:100E70005521892BA1F3809128048111F0CF07C05F
:100E800081E02091310430913204232B19F080E06D
:100E9000089581E00895EF92FF920F931F93CF93EF
:100EA000DF9300D0CDB7DEB77C012091BB05309138
:100EB000BC052115310511F421EC35E08E010F5FE1
:100EC0001F4F021B130B68EE70E08DE394E00E944D
:100ED000B326B8018DE394E00E94481965EE70E0F6
:100EE0008DE394E00E94B326B7018DE394E00E9465
:100EF0003927C8010F900F90DF91CF911F910F916B
:100F0000FF90EF90089584E095E00E94D52820910D
:100F10006205892B29F0253018F485E090E00895CA
:100F2000822F90E00895CF93DF93CDB7DEB764971B
:100F30000FB6F894DEBF0FBECDBFAE014F5F5F4F5F
:100F400024E1FA0111922A95E9F726ED31E03A837E
:100F500029832EE130E03C832B8360E070E00E9427
:100F60004E1964960FB6F894DEBF0FBECDBFDF9169
:100F7000CF910895CF93DF93CDB7DEB764970FB6C7
:100F8000F894DEBF0FBECDBFAE014F5F5F4F24E1CF
:100F9000FA0111922A95E9F726E430E03A83298391
:100FA0003C832B8360E070E00E944E1964960FB67C
:100FB000F894DEBF0FBECDBFDF91CF910895CF93E0
:100FC000DF93CDB7DEB764970FB6F894DEBF0FBEE0
:100FD000CDBFAE014F5F5F4F24E1FA0111922A9518
:100FE000E9F724EF31E03A8329833C832B8360E0E7
:100FF00070E00E944E1964960FB6F894DEBF0FBEE3
:10100000CDBFDF91CF910895CF93DF93CDB7DEB7FA
:1010100064970FB6F894DEBF0FBECDBFAE014F5F31
:101020005F4F24E1FA0111922A95E9F760E070E040
:101030000E944E1964960FB6F894DEBF0FBECDBF66
:10104000DF91CF910895FC01708767836115710569
:1010500081F48185928501969287818723853485E5
:101060001216130634F4281739071CF41682158259
:101070000895DB01AA0FBB1FAE0FBF1F59968D91BC
:101080009C915A97181619064CF4CB01019662E010
:1010900070E00E94F6339683858302C01682158223
:1010A00085859685A785B089818B928BA38BB48B20
:1010B000089580E090E0FB0121913191BF0112166B
:1010C000130624F401968A309105A9F708958F92AA
:1010D0009F92AF92BF92CF92DF92EF92FF92CF9307
:1010E000DF93EC010E94F4296D877E878F87988BB0
:1010F000EF80F88489889A88AB88BC88DC01CB01B2
:1011000088199909AA09BB09F701EE0FFF1FEC0F17
:10111000FD1F818C928C092C000CAA08BB08881535
:101120009905AA05BB0598F0BE01675E7F4FCE0109
:101130000E9459080197E816F9061CF060E070E07B
:1011400003C0B7016F5F7F4FCE010E9423088D88D7
:101150009E888114910441F48F89988D892B09F020
:10116000B8C16D81888119C2181419040CF0B1C17D
:101170008D819E81892B09F49FC18881998120915D
:101180000001281721F02F3F09F079C204C0E5EFD4
:10119000FDE0C49179C080930001E5EFFDE0C491CA
:1011A000CF3F09F46CC2C13009F448C050F1C230DD
:1011B00009F06AC01092B0001092B1002091B00006
:1011C00022602093B0002091B10021602093B100F3
:1011D0009C013327F901ED52F34FE491F0E0EE0F5B
:1011E000FF1FE753F34F4591549150936A05409385
:1011F0006905F901E951F34FE491E0936B05C2E011
:101200003AC214BC15BC24B5226024BD25B52160AA
:1012100025BD9C013327F901ED52F34FE491F0E035
:10122000EE0FFF1FE753F34F45915491F901E95138
:10123000F34FE491E0931F04C0E01DC210928000C0
:1012400010928100209181002860209381002091DC
:1012500081002160209381009C013327F901ED5228
:10126000F34FE491F0E0EE0FFF1FE753F34F45918A
:101270005491F901E951F34FE491E0931E0461E0C8
:101280000E944422C1E0A6C0C7FDF9C161E00E94EE
:1012900044228C2F8D7F09F09DC0092C000CAA08D8
:1012A000BB0860E072E18AE790E0A50194010E942A
:1012B0000A3469017A01DA01C9010197A109B1096A
:1012C0008F3F9105A105B10509F00CF445C060E41C
:1012D00072E48FE090E0A50194010E940A34BA0103
:1012E000A9014150510961097109C230E9F44F3F28
:1012F00051056105710509F00CF45DC160E970EDFF
:1013000083E090E0A50194010E940A34BA01A9018A
:1013100041505109610971094F3F5105610571053E
:1013200009F034F583E04FC04F3F51056105710569
:10133000B9F0B4F068E478EE81E090E0A5019401A2
:101340000E940A34BA01A901415051096109710989
:10135000CC2309F432C187C1AC01BD0181E001C0D9
:1013600082E0C11130C095B5987F892B85BD6AC0D8
:1013700068E478EE81E090E0A50194010E940A34CF
:10138000BA01A90141505109610971094F3F510545
:101390006105710509F00CF40CC164E274EF80E0A2
:1013A00090E0A50194010E940A34BA01A9014150BC
:1013B0005109610971094F3F51056105710511F02E
:1013C00008F02AC185E09091B100987F892B809325
:1013D000B10032C0092C000CAA08BB0860E072E121
:1013E0008AE790E0A50194010E940A34DA01C9015C
:1013F0000197A109B109009721E0A207B10524F4E2
:10140000AC01BD0181E00FC068E478EE81E090E0BE
:10141000A50194010E940A34BA01A9014150510961
:101420006109710983E0C13039F490918100987F9E
:10143000892B8093810018C0C130B1F0C23049F1CE
:10144000C1111DC147BD8FEF9FEFDC0180932404C4
:1014500090932504A0932604B093270480916E00F6
:10146000826080936E000BC1509389004093880086
:101470008FEF9FEFDC018093200490932104A093D1
:101480002204B093230480916F00826080936F00E8
:10149000F6C04093B3008FEF9FEFDC0180936C05A3
:1014A00090936D05A0936E05B0936F0580917000C9
:1014B000826080937000E3C08881DF91CF91FF90BC
:1014C000EF90DF90CF90BF90AF909F908F900C9453
:1014D0002C26EF88F88C1E141F040CF0D0C08D81D0
:1014E0009E81892B09F452C00990D881C02D61E0FA
:1014F0008C2F0E9444228FEFE816F10409F444C0B7
:10150000FE01FF27E554F54FE491E330F9F048F48C
:10151000E130B9F0E230A1F584B5806284BDE8BC69
:10152000AEC0E730E9F0E83019F1E43049F58091D8
:101530008000806280938000F0928B00E0928A00AD
:101540009EC084B5806884BDE7BC99C0809180004E
:10155000806880938000F0928900E09288008FC0BC
:101560008091B00080688093B000E092B30087C0A3
:101570008091B00080628093B000E092B4007FC0A0
:1015800020E8E216F1043CF061E006C0C88161E0A9
:101590008C2F0E94442260E08C2FDF91CF91FF902E
:1015A000EF90DF90CF90BF90AF909F908F900C9472
:1015B000152284E008CF82E006CF4F3F5105610538
:1015C000710541F138F162E17AE780E090E0A50130
:1015D00094010E940A34BA01A901415051096109DC
:1015E00071094F3F51056105710591F088F0D701F0
:1015F000C6013AE0B595A795979587953A95D1F7A5
:10160000AC01BD01415051096109710985E0ABCEC2
:1016100084E0A9CE83E0A7CE62E17AE780E090E0A3
:10162000A50194010E940A34BA01A901415051094F
:10163000610971094F3F51056105710591F088F00D
:10164000D701C6012AE0B595A795979587952A9564
:10165000D1F7AC01BD01415051096109710987E021
:10166000B2CE86E0B0CE4F3F51056105710509F05D
:1016700098F684E076CE61E00E9444220ECEDF919F
:10168000CF91FF90EF90DF90CF90BF90AF909F9061
:101690008F900895FF920F931F93CF93DF93EC01E8
:1016A000F62E08811981C8010E945D33F81621F0D9
:1016B0006F2DC8010E946533CE01DF91CF911F913C
:1016C0000F91FF900895EF92FF921F93CF93DF93B6
:1016D0007C01EB01142F0E9483078E159F058CF16E
:1016E0000E942607882389F0BE01809163059091AE
:1016F00064050E9448191123D1F06BE074E08091D9
:101700006305909164050E943927BE018DE394E042
:101710000E9448191123A9F06BE074E08DE394E076
:10172000DF91CF911F91FF90EF900C943927BE016C
:101730008DE394E0DF91CF911F91FF90EF900C9497
:101740004819DF91CF911F91FF90EF900895CF93AB
:10175000DF93FC01C281D38113821282DC0160E03D
:1017600070E080E090E02C9130E0522F44276E35FD
:10177000710529F011962C91119730E002C020E0FC
:1017800030E0242B352B822793276E5F7F4F1296F4
:101790006036710541F7D383C283DF91CF910895FD
:1017A000EF92FF921F93CF93DF937C01EB01142FF5
:1017B0000E9483078E159F058CF10E9426078823BF
:1017C00089F0BE0180916305909164050E94D7263F
:1017D0001123D1F06BE074E0809163059091640572
:1017E0000E943927BE018DE394E00E94D726112381
:1017F000A9F06BE074E08DE394E0DF91CF911F914D
:10180000FF90EF900C943927BE018DE394E0DF91B7
:10181000CF911F91FF90EF900C94D726DF91CF913D
:101820001F91FF90EF900895EF92FF921F93CF9337
:10183000DF937C01EB01142F0E9483078E159F0517
:101840008CF10E942607882389F0BE0180916305F0
:10185000909164050E94B3261123D1F06BE074E0EF
:1018600080916305909164050E943927BE018DE344
:1018700094E00E94B3261123A9F06BE074E08DE39D
:1018800094E0DF91CF911F91FF90EF900C94392756
:10189000BE018DE394E0DF91CF911F91FF90EF9017
:1018A0000C94B326DF91CF911F91FF90EF90089594
:1018B000CF92DF92EF92FF920F931F93CF93DF931C
:1018C0001F92CDB7DEB77C016B0140E06FEF73E094
:1018D00086E090E00E94140C41E0B60186E090E0C2
:1018E0000E94D00BD6018C91898340E068E373E0BD
:1018F00086E090E00E94140C6981062E000C770BA4
:1019000041E086E090E00E94630B8981805387016B
:101910000F5B1F4F8A3030F08FEF9FEFF8019183FC
:10192000808315C04AE050E060E070E0CE0101968F
:101930000E9420326F3F7F4F79F34AE050E060E031
:1019400070E0C6010E942032D8016D937C9340E084
:101950006BED73E086E090E00E94140CF80160816A
:10196000718141E086E090E00E94630BD801ED9127
:10197000FC91EA30F10508F081C0EC5CFF4F0C945B
:10198000293440E050E0BA01C7010E94D31A79C05F
:1019900020E030E0A90160E070E01FC041E06CE5AC
:1019A00073E086E090E00E94140C2CE33FE040E0FE
:1019B00050E001E060E971E0C7010E94521F61C080
:1019C00041E06FE673E086E090E00E94140C2DEA9F
:1019D0003EE040E050E066EC71E0C7010E94BC20B0
:1019E00050C041E065E873E086E090E00E94140C8E
:1019F0002FE73EE040E050E060EE71E0EECFC7013F
:101A00000E9490203EC041E06DEA73E086E090E0E5
:101A10000E94140C8BE094E00E944B076C016FE96C
:101A200073E0F701808D918D0E94B326D7015896FF
:101A30000D911C915997B601C8010E944819C8011F
:101A40000E943527F701808D918D0E943527C701AF
:101A50000E94771F16C0C7010E94E91F12C041E013
:101A600068EC73E086E090E00E94140CE0E0F0E0A7
:101A7000099507C0C7010E94CF2103C0C7010E947A
:101A8000921F0F90DF91CF911F910F91FF90EF90D8
:101A9000DF90CF900895AF92BF92CF92DF92EF92F6
:101AA000FF920F931F93CF93DF93CDB7DEB7A0972D
:101AB0000FB6F894DEBF0FBECDBF6C018B0140E0C6
:101AC00060E273E085E090E00E94140C560181E42E
:101AD000A80EB11CF5016081718140E085E090E0C5
:101AE0000E94630B40E067EF71E085E090E00E94A8
:101AF000D00B41E0B80185E090E00E94D00BF801E6
:101B000080818D3021F08A3011F0811106C041E0D2
:101B100068E073E084E090E0D7C0F501E080F180F8
:101B2000F1E0EF1AF108F701EE0FFF1FEF58F64F43
:101B300065917491CE0101960E943F338FE0E816C3
:101B4000F10408F0BCC0F701E25CFF4F4AE050E04E
:101B500060E070E0C8010C9429340E942032609348
:101B600038057093390580933A0590933B058FC0F3
:101B70000E94203260933C0570933D0580933E05A2
:101B800090933F0584C00E9420326093400570937B
:101B90004105809342059093430579C00E9420320D
:101BA00060934405709345058093460590934705DF
:101BB0006EC00E9420326A3071058105910548F09F
:101BC000609348057093490580934A0590934B05AF
:101BD0005EC08AE090E0A0E0B0E08093480590937A
:101BE0004905A0934A05B0934B0551C00E9420328D
:101BF00070934D0560934C054AC00E94203270934B
:101C00004F0560934E0543C00E94203260935005FB
:101C10003EC00E942032609351057093520580931C
:101C200053059093540533C00E94203260935505AC
:101C300070935605809357059093580528C00E94CD
:101C400020326093590570935A0580935B059093F9
:101C50005C051DC00E94203270935E0560935D0597
:101C600016C00E9420327093600560935F050FC01C
:101C70000E94203221E0672B682B692B09F420E0B9
:101C80002093610504C00E9420326093620540E207
:101C900050E06AEF71E088E195E00E94463384E00D
:101CA00095E00E9436294091480550914905609180
:101CB0004A0570914B05C6010E94D31A07C041E046
:101CC00067ED72E082E090E00E94140C8FEF9FEFCE
:101CD000F50191838083C6010E949020A0960FB6E3
:101CE000F894DEBF0FBECDBFDF91CF911F910F9152
:101CF000FF90EF90DF90CF90BF90AF900895CF937B
:101D0000DF93EC01DB018C918F7D893589F441E013
:101D10006FEA72E084E090E00E94140C84E1EEEE41
:101D2000F4E0DF011D928A95E9F70E949E2306C028
:101D30006FEB72E0888D998D0E944B27888D998D6D
:101D40000E94352720E030E0A90160E070E0CE017C
:101D50000E94BC20DF91CF910895CF92DF92EF9245
:101D6000FF920F931F93CF93DF93EC018B0141E020
:101D70006DE972E086E090E00E94140C4AE050E0C9
:101D800060E070E0C8010E9420326B017C01CB0151
:101D9000181619064CF4F80120812D3029F02A304C
:101DA00019F0653071053CF069E872E0888D998D15
:101DB0000E944B2731C086010150110940E061E6C5
:101DC00072E084E090E00E94140C41E0B80184E0ED
:101DD00090E00E94630BF4E0CF0ED11CC601880F87
:101DE000991F880F991FFC01E652FB4F1082118248
:101DF000128213820E949E2364E772E0888D998D7F
:101E00000E94B326E88CF98C60E070E0C7010E9464
:101E10004819C7010E943527888D998D0E94352762
:101E200020E030E0A90160E070E0CE010E94BC201B
:101E3000DF91CF911F910F91FF90EF90DF90CF90A6
:101E40000895CF93DF93EC0141E06BE071E086E011
:101E500090E00E94140CFE01B79688E1DF011D920C
:101E60008A95E9F7789611821082CD5BDF4F19824F
:101E70001882DF91CF9108958F929F92AF92BF9277
:101E8000EF92FF920F931F93CF93DF938C017B010F
:101E9000FB0180818D3009F472C08A3009F46FC073
:101EA000882309F46CC04AE050E060E070E0C701AC
:101EB0000E9420324B015C0140E06EED71E084E055
:101EC00090E00E94140C21E0B501A40184E090E0B0
:101ED0000E9482188AED94E00E946028EEEEF4E001
:101EE00022E035E0DF0180E090E04D915D916D9161
:101EF0007D91452B462B472B09F001962A173B076E
:101F0000A1F781149104A104B10441F441E06FEB05
:101F100071E083E090E00E94140C31C0853091059F
:101F200054F041E069EA71E083E090E00E94140C13
:101F3000C2E0D0E026C04191519161917191841627
:101F40009506A606B70609F475C02E173F0799F740
:101F5000880F991F880F991FFC01E251FB4F808267
:101F60009182A282B3820E949E2341E062E871E0E6
:101F700084E090E00E94140CC0E0D0E002C0C1E018
:101F8000D0E063E572E0F801808D918D0E94B32668
:101F9000B701F801808D918D0E94392761E472E0CC
:101FA000F801808D918D0E94B326BE01F801808DCD
:101FB000918D0E94481967EF71E0F801808D918D35
:101FC0000E94D726F801808D918DC230D10559F03D
:101FD000C330D10559F0219719F069E372E008C0C8
:101FE0006AE172E005C061E072E002C068EE71E093
:101FF0000E94B326F801808D918D0E943527F8014B
:10200000808D918D0E943527C8010E94210F20E00C
:1020100030E0A90160E070E0C8010E94BC20DF91BF
:10202000CF911F910F91FF90EF90BF90AF909F9035
:102030008F90089541E063E971E083E090E00E94B1
:10204000140CC3E0D0E09DCFCF92DF92EF92FF92CD
:102050000F931F93CF93DF93CDB7DEB768970FB67B
:10206000F894DEBF0FBECDBF8C016C0183E4C80EB7
:10207000D11CD6018D919C91892B09F479C0F8016E
:10208000828D938D0E940A1BD8015A96ED91FC9186
:102090005B9783AD94ADA5ADB6AD892B8A2B8B2B09
:1020A00009F466C040E064E271E086E090E00E94DE
:1020B000140CD8015A96ED91FC915B9743AD54AD49
:1020C00065AD76AD21E086E090E00E948218D801EF
:1020D0005A96ED91FC915B9786AD8F9385AD8F936A
:1020E00084AD8F9383AD8F938AE092E09F938F931B
:1020F000FE0131967F01FF93EF930E94A63448E1E1
:1021000050E0B7017801F7E2EF0EF11CC7010E9421
:102110004633F7010FB6F894DEBF0FBECDBF80E0A7
:1021200090E041919C012F5F3F4F41110EC0F8019B
:10213000E80FF91F4AE047A3F801E20FF31F17A2C7
:10214000F801FF963183208304C0C901283131058D
:1021500041F7D8015A968D919C915B97FC0113AE83
:1021600014AE15AE16AE0E943518D6011D921C9203
:102170006EE072E0C8014C960E945E34892B21F516
:10218000F801E08CF18CC7010E942F2880913B045C
:1021900090913C04E816F90639F062E070E080E0C6
:1021A00090E00E942223F2CFD6018D919C91892B41
:1021B00029F461E070E080E090E004C06AE070E043
:1021C00080E090E00E942223F801808D918DDC0157
:1021D000ED91FC910084F185E02D0995892B09F49E
:1021E00055C08091310490913204892B21F41093D1
:1021F00032040093310440914805509149056091A3
:102200004A0570914B05C8010E94D31AF60111824C
:102210001082C801CF966C01D80158968D919C917F
:102220005997DC01ED91FC910084F185E02D099531
:10223000892B61F1C8010E942C24811127C0F8016B
:10224000808D918DDC01ED91FC910284F385E02D70
:102250000995F82E40E064E671E086E090E00E9487
:10226000140C6F2D0F2C000C770B41E086E090E0F2
:102270000E94630BBBE1FB123FC08AE0F80187A319
:1022800010A681E090E0D6018D939C93C8010E9436
:102290002C24882309F46BC0B801695D7F4F48E1A5
:1022A00050E0CE0101960E944633C8010E94210FE2
:1022B000D801ED91FC910280F381E02DC8010995D0
:1022C000F801E08CF18CD701ED91FC910190F08147
:1022D000E02D6AE0C7010995C7010E943527D801A2
:1022E000ED91FC910680F781E02D41E0BE016F5F2A
:1022F0007F4FC80109953BC0809131049091320411
:102300000817190759F4F801808D918DDC01ED91C2
:10231000FC910190F081E02D6F2D0995F6018081EF
:102320009181F801E80FF91FF7A20196D6018D936C
:102330009C93BDE0FB1619F0EAE0FE126DCF40E081
:1023400069E471E086E090E00E94140CD6016D9182
:102350007C916150710941E086E090E00E94630B3E
:10236000D601ED91FC91E00FF11F17A255CF6896B1
:102370000FB6F894DEBF0FBECDBFDF91CF911F9196
:102380000F91FF90EF90DF90CF900895CF93DF9360
:10239000EC0141E063EF70E086E090E00E94140CF5
:1023A000888D998DDC01ED91FC910084F185E02D03
:1023B0000995892B51F0888D998DDC01ED91FC9167
:1023C0000284F385E02D0995EBCFDF91CF9108953D
:1023D0000F931F93CF93DF9300D0CDB7DEB78C015F
:1023E0008091330490913404892B29F5F801808180
:1023F00091817183608386179707E9F080914C057E
:1024000090914D050297B9F440E068EB70E084E0EC
:1024100090E00E94140CF8016081718141E084E039
:1024200090E00E94630BF80160811A821982CE014C
:1024300001960E944A0BF801808191810F900F90C4
:10244000DF91CF911F910F91089582E892E0089556
:102450008CE792E008958DEB92E0089560E070E0E3
:10246000CB01089586E291E00895FC012689378921
:1024700037FF04C060E070E0CB010895220F331FE6
:10248000220F331FFC01E20FF31F628173818481ED
:1024900095810895CF93DF93FC012689378937FF13
:1024A00005C060E070E080E090E00EC0EC010190BB
:1024B000F081E02D0480F581E02D09952E893F897A
:1024C000215031093F8B2E8BDF91CF9108952FEF53
:1024D0003FEFDC0157963C932E935697FC019C01ED
:1024E0002C5E3F4F13821282158214823496E217BB
:1024F000F307C1F74115510511F460FF07C0DC0176
:10250000ED91FC910190F081E02D099408959F9246
:10251000AF92BF92CF92DF92EF92FF920F931F93F1
:10252000CF93DF93EC018B01942EE881F981048035
:10253000F581E02D09956B017C018E899F8997FDBE
:102540003AC0570181E0A822BB24C114D10421F470
:10255000A114B10469F52FC0992039F0E881F981FF
:102560000280F381E02DCE010995AB2871F0F701CF
:10257000F595E795EC0FFD1F0190F081E02DEC0D36
:10258000FD1D0190F081E02D01C0F601C701959578
:102590008795B8018C0F9D1FDF91CF911F910F91EF
:1025A000FF90EF90DF90CF90BF90AF909F900994F5
:1025B0009920E9F2D3CFDF91CF911F910F91FF9036
:1025C000EF90DF90CF90BF90AF909F900895EF92E3
:1025D000FF920F931F93CF93DF93EC01CA01122F49
:1025E000032F7B0121E0E21AF108F701EE0FFF1F34
:1025F000EF58F64F659174910E943F338FE0E816D3
:10260000F10408F029C1F701E35BFF4F0C94293472
:102610008FA98F938EA98F938DA98F938CA98F9358
:102620008AE092E09F938F930F931F930E94A634AA
:102630008DB79EB708960FB6F8949EBF0FBE8DBF9C
:102640000BC18BAD8F938AAD8F9389AD8F9388AD7E
:102650008F938AE092E09F938F930F931F930E9432
:10266000A6348DB79EB708960FB6F8949EBF0FBEDE
:102670008DBFF2C08FAD8F938EAD8F938DAD8F9345
:102680008CAD8F938AE092E09F938F930F931F936B
:102690000E94A6348DB79EB708960FB6F8949EBFD9
:1026A0000FBE8DBFD9C0C05CDF4F8B818F938A81F5
:1026B0008F9389818F9388818F938AE092E09F9393
:1026C0008F930F931F930E94A6348DB79EB70896E1
:1026D0000FB6F8949EBF0FBE8DBFBEC0CC5BDF4F60
:1026E0008B818F938A818F9389818F9388818F9338
:1026F0008AE092E09F938F930F931F930E94A634DA
:102700008DB79EB708960FB6F8949EBF0FBE8DBFCB
:10271000A3C0C85BDF4F81C0C65BDF4F7EC0C45B18
:10272000DF4F2881822F90E001978330910540F49C
:10273000880F991FFC01E858FE4F8081918102C0EB
:1027400086EC92E09F938F931F922F938FEC92E0F1
:102750009F938F930F931F930E94A6348DB79EB7BC
:1027600008960FB6F8949EBF0FBE8DBF75C0C35BB1
:10277000DF4F8B818F938A818F9389818F9388819B
:102780008F9387E393E09F938F930F931F930E9400
:10279000A6348DB79EB708960FB6F8949EBF0FBEAD
:1027A0008DBF5AC0CF5ADF4F8B818F938A818F9311
:1027B00089818F9388818F9387E393E09F938F9391
:1027C0000F931F930E94A6348DB79EB708960FB63D
:1027D000F8949EBF0FBE8DBF3FC0CB5ADF4F8B8199
:1027E0008F938A818F9389818F9388818F9387E3D9
:1027F00093E09F938F930F931F930E94A6348DB7FE
:102800009EB708960FB6F8949EBF0FBE8DBF24C02A
:10281000C75ADF4F02C0C55ADF4F89818F93888125
:1028200004C0C35ADF4F88811F928F938CEC92E0D3
:1028300007C0C25ADF4F88811F928F9387ED92E0C5
:102840009F938F930F931F930E94A6340F900F9026
:102850000F900F900F900F90DF91CF911F910F91DC
:10286000FF90EF9008956F927F928F929F92AF9218
:10287000BF92CF92DF92EF92FF920F931F93CF936D
:10288000DF93CDB7DEB76C014B016DB67EB6FC01B0
:10289000F38044814F5F4F1950E04F5F5F4F8DB71A
:1028A0009EB7841B950B0FB6F8949EBF0FBE8DBFCD
:1028B0000DB71EB70F5F1F4F65E271E0C8010E94A0
:1028C0005534F401EF0DF11D7F018CEDA82E82E04F
:1028D000B82EF601848190E09701281939098217F2
:1028E0009307C4F0F70121917F01F80101900020C6
:1028F000E9F71F922F93BF92AF92CF0101979F9359
:102900008F930E94A6340F900F900F900F900F900E
:102910000F90DFCF40E150E060E070E0C8010E941E
:1029200020320FB6F8947EBE0FBE6DBEDF91CF9100
:102930001F910F91FF90EF90DF90CF90BF90AF90DD
:102940009F908F907F906F9008956F927F928F925B
:102950009F92AF92BF92CF92DF92EF92FF920F932E
:102960001F93CF93DF93CDB7DEB76C014B016DB6EC
:102970007EB6FC010381448150E010E0401B510B06
:102980004F5F5F4F440F50E04F5F5F4F8DB79EB773
:10299000841B950B0FB6F8949EBF0FBE8DBFEDB78D
:1029A000FEB731967F0165E271E0CF010E94553498
:1029B000080D191D8FEDA82E82E0B82EF601848136
:1029C00090E098012819390982179307C4F0F8019B
:1029D00021918F01F70101900020E9F71F922F93B9
:1029E000BF92AF92CF0101979F938F930E94A6341D
:1029F0000F900F900F900F900F900F90DFCF40E14E
:102A000050E060E070E0C7010E9420320FB6F894F9
:102A10007EBE0FBE6DBEDF91CF911F910F91FF90D3
:102A2000EF90DF90CF90BF90AF909F908F907F906E
:102A30006F9008956F927F928F929F92AF92BF9204
:102A4000CF92DF92EF92FF920F931F93CF93DF937A
:102A5000CDB7DEB76C014B016DB67EB6FC01F380DD
:102A600044814F1950E04F5F5F4F8DB79EB7841B75
:102A7000950B0FB6F8949EBF0FBE8DBF0DB71EB756
:102A80000F5F1F4F65E271E0C8010E945534F401E9
:102A9000EF0DF11D7F018CEDA82E82E0B82EF6011E
:102AA000848190E097012819390982179307C4F0AF
:102AB000F70121917F01F80101900020E9F71F92B1
:102AC0002F93BF92AF92CF0101979F938F930E9454
:102AD000A6340F900F900F900F900F900F90DFCFB4
:102AE00040E150E060E070E0C8010E9420320FB683
:102AF000F8947EBE0FBE6DBEDF91CF911F910F91F6
:102B0000FF90EF90DF90CF90BF90AF909F908F900D
:102B10007F906F900895E0916505F0916605808D36
:102B2000918D0E943927E0916505F09166056BE073
:102B300074E0808D918D0E94392780916505909178
:102B400066050C94CF21CF93DF93CDB7DEB7A09766
:102B50000FB6F894DEBF0FBECDBFFB010190002081
:102B6000E9F7AF01461B570B1A821982FE01339613
:102B70008EE1DF011D928A95E9F742505109CE019D
:102B800001960E946734E0916505F09166056AE55B
:102B900079E0808D918D0E94B326E0916505F091DA
:102BA0006605BE016F5F7F4F808D918D0E94392732
:102BB000E0916505F09166056BE074E0808D918D84
:102BC0000E943927298180916705909168052134F9
:102BD000A1F4BE016F5F7F4FFC01808D918D0E943B
:102BE00039274BE855E160E070E020E0809167050F
:102BF000909168050E94971A1CC0DC01ED91FC9130
:102C00000084F185E02D40E050E0BA010995809103
:102C10006705909168050E94C611809167059091A3
:102C200068050E94210F80916505909166050E94BC
:102C3000921FA0960FB6F894DEBF0FBECDBFDF91F6
:102C4000CF910895AF92BF92CF92DF92EF92FF9211
:102C50000F931F93CF93DF93CDB7DEB7A0970FB637
:102C6000F894DEBF0FBECDBF8C017B014AE050E07F
:102C700060E070E0C7010E9420326B015B0121E03F
:102C8000A21AB10883E0A816B104C0F56FE479E098
:102C9000F801808D918D0E94B326B501660F771FD4
:102CA000FB01E858FE4F60817181F801808D918DA4
:102CB0000E9439276BE074E0F801808D918D0E94AD
:102CC0003927EFE7F9E065917491CE0101960E94F2
:102CD0003F334AE050E060E070E0C7010E942032DC
:102CE0006093500540E250E06AEF71E088E195E0C2
:102CF0000E94463384E095E00E9436296BE074E040
:102D0000F801808D918D0E943927CD2841F0FDE09A
:102D1000EF16F10421F02AE0E216F10421F4C801D3
:102D20000E94921F03C0C8010E94E91FA0960FB61F
:102D3000F894DEBF0FBECDBFDF91CF911F910F91F1
:102D4000FF90EF90DF90CF90BF90AF900895CF921B
:102D5000DF92EF92FF920F931F93CF93DF93CDB744
:102D6000DEB7E0970FB6F894DEBF0FBECDBF7C0193
:102D70006B0141E063E379E086E090E00E94140C8F
:102D80004AE050E060E070E0C6010E942032870116
:102D90000F5B1F4FF8017183608340E063E079E0CF
:102DA00086E090E00E94140CF8016081718141E09E
:102DB00086E090E00E94630BF80160817181CB0195
:102DC00001970F9760F59E012F5D3F4FAE014F5F5A
:102DD0005F4F84E095E00E94E712BE016F5F7F4F76
:102DE000F701808D918D0E94D72660E079E0F70190
:102DF000808D918D0E94B326BE016F5D7F4FF701DC
:102E0000808D918D0E9439272BE43DE040E050E019
:102E100000E064EE72E0C7010E94521F0FC0F6018D
:102E20008081803321F08D3011F08A3021F4C70188
:102E30000E94921F03C0C7010E949020E0960FB627
:102E4000F894DEBF0FBECDBFDF91CF911F910F91E0
:102E5000FF90EF90DF90CF9008953F924F925F9256
:102E60006F927F928F929F92AF92BF92CF92DF929A
:102E7000EF92FF920F931F93CF93DF93CDB7DEB7FF
:102E8000C056D1090FB6F894DEBF0FBECDBF2B01DF
:102E900067E979E0C2010E94B32684E095E00E94D0
:102EA000A70BAC0160E070E020E1C2010E94EC26BB
:102EB0006FE879E0C2010E94B3262AE04FE550E0B6
:102EC00060E070E0C2010E94EC26C2010E9435273A
:102ED00001E010E08EE2382E3E0183E0680E711CA6
:102EE0006E0191E5C90ED11C7E01E1E3EE0EF11CED
:102EF00091E0892E93E0992ECE0101965C011A8211
:102F00001982F301832D11928A95E9F79601A701A1
:102F1000B80184E095E00E94E712DF92CF92FF9221
:102F2000EF921F930F939F928F92BF92AF920E9446
:102F3000A634B501C2010E9439270F5F1F4F0FB69B
:102F4000F894DEBF0FBECDBF00311105C1F6C05AE7
:102F5000DF4F0FB6F894DEBF0FBECDBFDF91CF912C
:102F60001F910F91FF90EF90DF90CF90BF90AF90A7
:102F70009F908F907F906F905F904F903F900895BB
:102F8000CF93DF93EC0140E150E061E072E0049602
:102F90000E94463380E293E0998388838EE190E03B
:102FA000A0E0B0E08CAB9DABAEABBFAB88EE93E0E6
:102FB000A0E0B0E088AF99AFAAAFBBAF86E990E0E0
:102FC000A0E0B0E08CAF9DAFAEAFBFAFFE01E05C64
:102FD000FF4F8FE090E0A0E0B0E080839183A28378
:102FE000B38334968CE390E0A0E0B0E080839183DB
:102FF000A283B383349681E090E0918380833296FC
:1030000011821082329683E08083319680E091EEC7
:10301000A0E0B0E080839183A283B383349680E8FC
:1030200095E2A0E0B0E080839183A283B3833496DD
:1030300080839183A283B383349680EF9AE0918357
:103040008083329687E090E091838083329610826D
:10305000319684E0808340E250E06CEA72E0CE0179
:103060004496DF91CF910C944633DC0156961C9226
:10307000FC01369620E1DF011D922A95E9F70895BB
:103080000F93CF93DF93EC018AE391E099838883D8
:103090006A834B832C830D83FE01369680E1DF012A
:1030A0001D928A95E9F71E8A0E94F4296F8B788F0A
:1030B000898F9A8F1B8E1C8E1D8E1E8E1F8E18A2BE
:1030C00019A21AA21BA21CA21DA21EA21FA218A610
:1030D00019A61AA61BA61CA61DA61EA61FA618AAE0
:1030E00019AA1AAA1BAA1CAA1DAA1EAA1FAA18AEB0
:1030F00019AE1AAE1BAE1CAE1DAE1EAEDF91CF9147
:103100000F910895CF92DF92EF92FF920F931F934A
:10311000CF938C016A017B01C22F0E948307801725
:103120009107DCF10E942607882399F02AE0B70175
:10313000A60180916305909164050E94EC26CC2342
:10314000F1F06BE074E080916305909164050E945A
:1031500039272AE0B701A6018DE394E00E94EC260E
:10316000CC23D9F06BE074E08DE394E0CF911F9114
:103170000F91FF90EF90DF90CF900C9439272AE0C9
:10318000B701A6018DE394E0CF911F910F91FF90BD
:10319000EF90DF90CF900C94EC26CF911F910F9180
:1031A000FF90EF90DF90CF9008950F93CF93DF9330
:1031B000EC0101E02AE043E06EE00E94401882E466
:1031C00091E09983888340E060E679E084E090E0D4
:1031D0000E94140C41E06DEB72E084E090E0DF911E
:1031E000CF910F910C94D00BFC014115510511F4B6
:1031F00060FF11C0268937892F5F3F4F378B268BA1
:10320000220F331F220F331FE20FF31F428353831A
:1032100064837583089541E06FE073E084E090E09B
:103220000C94D00BCF92DF92EF92FF920F931F93EB
:10323000CF93DF9377FF21C06A017B01EC01E88126
:10324000F9810190F081E02D6DE209958C01442710
:103250005527BA014C195D096E097F092AE0CE0194
:103260000E94EC26800F911FDF91CF911F910F914B
:10327000FF90EF90DF90CF9008952AE0DF91CF91FB
:103280001F910F91FF90EF90DF90CF900C94EC2660
:10329000AB01770F660B770B0C941219CF92DF926C
:1032A000EF92FF920F931F93CF93DF93EC016B018B
:1032B0007A018B859C858E01075E1F4F86179707C5
:1032C000A1F44AE050E0B801C7010E944834892BBC
:1032D00061F1B701CE010E945908892B31F4B80180
:1032E000CE010E945908892B01F11E821D82188689
:1032F0001F821A861986DC86CB86D701F801CE019B
:103300008D962D913D9121933193E817F907C9F7D7
:1033100060E070E0CE01DF91CF911F910F91FF909F
:10332000EF90DF90CF900C942308DF91CF911F9105
:103330000F91FF90EF90DF90CF900895CF93DF93A0
:10334000CDB7DEB764970FB6F894DEBF0FBECDBF22
:10335000AE014F5F5F4F24E1FA0111922A95E9F720
:1033600024EF31E03A8329833C832B8363E070E0D0
:103370000E944E1964960FB6F894DEBF0FBECDBF03
:10338000DF91CF910895CF92DF92EF92FF926B0180
:103390007C01E0914D04F0914E0482E08083C114E1
:1033A00081EED806E104F104B1F060E079E08DE34C
:1033B00090E0A70196010E948333DA01C9010197C9
:1033C000A109B109B695A795979587959C012115F7
:1033D00080E13807B8F0E0914D04F0914E0410827E
:1033E00060E874E88EE190E0A70196010E948333C3
:1033F000DA01C9010197A109B109B695A795979579
:1034000087959C01E0914904F0914A043083E09152
:103410004B04F0914C04208310925504E091510428
:10342000F091520486E08083E0914F04F0915004C3
:10343000808180618083E0914F04F091500480810D
:1034400088608083E0914F04F0915004808180680F
:103450008083E0914F04F091500480818F7D8083C0
:10346000FF90EF90DF90CF900895CF92DF92EF9290
:10347000FF927C016B010E9483078E159F05D4F09B
:103480000E942607E12CF12C882349F020E1B701A6
:10349000A60180916305909164050E94EC2620E1CD
:1034A000B701A6018DE394E0FF90EF90DF90CF90FD
:1034B0000C94EC26FF90EF90DF90CF900895CF9280
:1034C000DF92EF92FF927C016B010E9483078E15C1
:1034D0009F0544F10E942607E12CF12C882389F0F6
:1034E0002AE0B701A60180916305909164050E94CE
:1034F000EC266BE074E080916305909164050E9476
:1035000039272AE0B701A6018DE394E00E94EC265A
:103510006BE074E08DE394E0FF90EF90DF90CF904C
:103520000C943927FF90EF90DF90CF900895CF92C1
:10353000DF92EF92FF921F93CF93DF93EC016A012A
:103540007B01122F41E061EC79E086E090E00E947F
:10355000140CE881F9810190F081E02DB701A601FA
:10356000CE010995E881F9810190F081E02D44E2D6
:1035700050E160E070E0CE010995CE010E94C611D5
:10358000CE010E94210F112331F0CD5BDF4F81E08E
:1035900090E099838883DF91CF911F91FF90EF9006
:1035A000DF90CF900895CF92DF92EF92FF92CF936A
:1035B000DF93EC016A017B018BA19CA1ADA1BEA1AF
:1035C00084179507A607B70771F040E06AEA79E02B
:1035D00085E090E00E94140C21E0B701A60185E08F
:1035E00090E00E948218CBA2DCA2EDA2FEA281E0B4
:1035F00090E090933404809333040E94F4296F8FF9
:1036000078A389A39AA3DF91CF91FF90EF90DF90E9
:10361000CF9008954F925F926F927F928F929F9278
:10362000AF92BF92CF92DF92EF92FF920F931F93D0
:10363000CF93DF93CDB7DEB768970FB6F894DEBFB0
:103640000FBECDBF8C015C012FE3A20EB11CD501D2
:103650008D919C910E942F28F501208131818091CC
:103660003B0490913C042817390739F062E070E080
:1036700080E090E00E942223EFCF64E170E080E0E0
:1036800090E00E9422230E94F4296D8B7E8B8F8B09
:10369000988FD80157966D937D938D939C935A97ED
:1036A000C0904005D0904105E0904205F090430560
:1036B0005F964D905D906D907C9092974C0C5D1C48
:1036C0006E1C7F1CF80143AA54AA65AA76AA23A1FE
:1036D00034A145A156A1F0914405E0914505909093
:1036E000460580904705211531054105510521F416
:1036F0002F2F3E2F492D582DA8EEB3E00E94A53361
:10370000460E571E681E791ED801D7964D925D92BF
:103710006D927C92DA9740903C0550903D05609008
:103720003E0570903F05A8EEB3E02F2F3E2F492DA8
:10373000582D0E94A533C40CD51CE61CF71CDC01D7
:10374000CB018C0D9D1DAE1DBF1DF80187A790AB51
:10375000A1ABB2AB838D948DA58DB68D2D893E899D
:103760004F89588D281B390B4A0B5B0B42165306A9
:103770006406750608F0ECC1D5018D919C91DC01C1
:10378000ED91FC910084F185E02D0995892B09F4D8
:1037900094C0F50180819181DC01ED91FC91008460
:1037A000F185E02D0995892B09F4D2C1F801F6883D
:1037B000FFE0FF1528F0D80112968C91F81620F042
:1037C000C8010E943518E5CFF50180819181DC01A7
:1037D000ED91FC910284F385E02D0995F801EF0D40
:1037E000F11D8683F801868992819150811104C070
:1037F0002681223029F78AC1891307C0F801E80F12
:10380000F11D96819330E1F60BC09817C8F2803114
:10381000B8F6891738F48F5FD80156968C93B9CFD4
:10382000803170F6D801ED91FC910190F081E02D8E
:10383000B8016A5F7F4FC80109956B017C01672B56
:10384000682B692B21F440E062E87AE06EC1E091D8
:103850003504F09136041682158260E080810E9462
:103860001522E0913904F0913A04168215821086EF
:10387000178212861186AE014F5F5F4F84E1DA0135
:103880001D928A95E9F786E490E09A83898361E046
:1038900070E0CF010E944E19EEEEF4E0819191911B
:1038A000A191B191C816D906EA06FB0609F431C107
:1038B000B5E0E230FB0791F7C6CFD8015796CD901F
:1038C000DD90ED90FC905A975B968D909D90AD9019
:1038D000BC905E9726013701481859086A087B0892
:1038E00093962D913D914D915C91969721153105BF
:1038F0004105510541F42091440530914505409121
:10390000460550914705A8EEB3E00E94A533641523
:1039100075058605970528F089288A288B2809F0DF
:1039200017C1F80187A990ADA1ADB2ADC816D906EF
:10393000EA06FB0650F4F801878D90A1A1A1B2A17F
:10394000892B8A2B8B2B09F0D2C040E065E67AE008
:1039500084E090E00E94140CD8015B96CD90DD903D
:10396000ED90FC905E97C114D104E104F104E9F0FC
:1039700057968D919D910D90BC91A02DBC01CD01CC
:103980006C197D098E099F0928EE33E040E050E074
:103990000E948333BA01A90120E084E090E00E94F4
:1039A000821840E06FE57AE003C040E069E57AE024
:1039B00084E090E00E94140C40E06FE47AE084E040
:1039C00090E00E94140CF801C78CD0A0E1A0F2A0F6
:1039D000C114D104E104F104D9F08789908DA18D3F
:1039E000B28DBC01CD016C197D098E099F0928EEAD
:1039F00033E040E050E00E948333BA01A90120E0A7
:103A000084E090E00E94821840E069E47AE003C01C
:103A100040E063E47AE084E090E00E94140C40E02F
:103A200069E37AE084E090E00E94140C0E94F4299B
:103A30006B017C01198228EE33E040E050E00E94E7
:103A400083338CE3882E912CA12CB12CCA01B901AF
:103A5000A50194010E9483339F938F937F936F936B
:103A6000C701B60120E63AEE40E050E00E94833301
:103A7000CA01B901A50194010E9483339F938F93DA
:103A80007F936F93C701B60120E83EEE46E350E016
:103A90000E9483335F934F933F932F938FE293E082
:103AA0009F938F939E012F5F3F4F79013F932F93F9
:103AB0000E94A63441E0B70184E090E00E94D00B60
:103AC000D80115966C9181E0682785E00E94152247
:103AD000F8018789908DA18DB28D878F90A3A1A3C6
:103AE000B2A30FB6F894DEBF0FBECDBF31C0F80150
:103AF00083A994A9A5A9B6A9C816D906EA06FB0602
:103B000038F1658185E00E94152222C0911183CE93
:103B100075CEF8018789908DA18DB28D838F948F9A
:103B2000A58FB68F40E060EA7AE084E090E00E94E2
:103B3000140C21E0B701A60184E090E00E948218F5
:103B4000F801C3AED4AEE5AEF6AEC8010E9435189A
:103B500068960FB6F894DEBF0FBECDBFDF91CF9150
:103B60001F910F91FF90EF90DF90CF90BF90AF909B
:103B70009F908F907F906F905F904F9008958F925D
:103B80009F92AF92BF92EF92FF920F931F93CF93AA
:103B9000DF93EC0140E067E27AE086E090E00E948B
:103BA000140C8E01045E1F4F41E0B80186E090E0E6
:103BB0000E94D00BE0903304F090340481E0E816CA
:103BC000F104A9F44BA15CA16DA17EA180914805EF
:103BD00090914905A0914A05B0914B0548175907A6
:103BE0006A077B0721F460E08DE00E941522809136
:103BF000310490913204009721F0C817D90709F0D9
:103C00005FC00E94F4298F8C98A0A9A0BAA068195F
:103C100079098A099B0928EE33E040E050E00E94D0
:103C200083338BA19CA1ADA1BEA182179307A407EA
:103C3000B50718F0EF2809F043C041E067E07AE0EB
:103C400085E090E00E94140CCE010E94210FE881D3
:103C5000F9810084F185E02D40E050E0BA01CE0109
:103C600009958091330490913404892B49F140E007
:103C7000B80185E090E00E94D00B41E060EF79E070
:103C800085E090E00E94140C41E06EED79E084E064
:103C900090E00E94140C41E06BE074E084E090E05E
:103CA0000E94D00B109234041092330484E095E00B
:103CB0000E94D528892B21F08BE393E00E944B07CB
:103CC000E881F9810680F781E02D40E060E070E056
:103CD000CE01099541E069E17AE086E090E0DF916C
:103CE000CF911F910F91FF90EF90BF90AF909F9059
:103CF0008F900C94140C4091DC045091DD041092D0
:103D0000DD041092DC04EAEDF4E064E075E080E0AC
:103D100090E0208130E0322F2227A1812A2B8227B8
:103D2000932732966E177F07A1F75093DD044093D7
:103D3000DC040895833081F028F4813099F08230DA
:103D4000A1F008958730A9F08830B9F08430D1F41B
:103D5000809180008F7D03C0809180008F77809359
:103D60008000089584B58F7702C084B58F7D84BDAF
:103D700008958091B0008F7703C08091B0008F7D4F
:103D80008093B0000895CF93DF93EC019A01AB01CB
:103D90001B8E1A8E198E188E1F8A1E8A60E079E09B
:103DA0008DE390E00E940A34F9012430310518F0C7
:103DB000C901039702C081E090E09D8F8C8F6C85D4
:103DC000663108F06AC0C9019695879584319105DE
:103DD00010F0439702C081E090E09F8B8E8B369766
:103DE00018F0C901059702C081E090E0998F888F93
:103DF000C901880F991F280F391F369527953695C9
:103E000027952D30310518F02C50310902C021E0E2
:103E100030E03B8F2A8F30916800683058F021E005
:103E20006E3008F420E091E0892F01C0880F2A95B8
:103E3000EAF701C084E0832B809368009C8598306A
:103E400038F09E3040F0963148F020E030E008C075
:103E50002DE630E005C02BE630E002C02CE630E075
:103E60003C8B2B8B983030F481E001C0880F9A9501
:103E7000EAF70EC0292F30E09E3018F4285031099F
:103E800002C02E50310981E001C0880F2A95EAF75F
:103E90008D8B8C8D9D8D0197F1F7CE01DF91CF91A8
:103EA0000C942F28CF92DF92EF92FF920F93CF9333
:103EB000DF93EC0169017A01FB018081882321F005
:103EC000888D998D0E94D726202FB701A601CE019B
:103ED0000E94971A66EA7CE0888D998DDF91CF91D8
:103EE0000F91FF90EF90DF90CF900C94B3260F933B
:103EF000CF93DF93EC01E881F9810084F185E02D17
:103F000040E050E0BA01099528E53CE040E050E08F
:103F100000E067E473E0CE010E94521FDF91CF9171
:103F20000F910895CF93DF93EC0141E065E97CE0C8
:103F300086E090E00E94140C60E97CE0888D998D09
:103F40000E944B2768E87CE0888D998D0E944B2762
:103F50006BE77CE0888D998D0E944B2760E77CE0C1
:103F6000888D998D0E944B2762E67CE0888D998D23
:103F70000E944B276FE47CE0888D998D0E944B272F
:103F800063E47CE0888D998D0E944B276FE27CE092
:103F9000888D998D0E944B276FE17CE0888D998DEB
:103FA0000E944B2764E17CE0888D998D0E944B270D
:103FB00066E07CE0888D998D0E944B276BE074E071
:103FC000888D998D0E943927CE01DF91CF910C9475
:103FD000771F2F923F924F925F926F927F928F92B4
:103FE0009F92AF92BF92CF92DF92EF92FF920F9388
:103FF0001F93CF93DF93CDB7DEB768970FB6F894D2
:10400000DEBF0FBECDBF5C0141E06AEE7BE086E023
:1040100090E00E94140CF501E08CF18C60EE7BE0E6
:10402000C7010E94B32663E070E0C7010E944819EF
:104030006EED7BE0C7010E944B2788E7C82E81E028
:10404000D82E01E010E096E1292E2E01F3E04F0E6C
:10405000511C2CE5622E23E0722E38E1332ECE0166
:1040600001964C011A821982F201822D11928A95D1
:10407000E9F7F60120813181F2E0CF0ED11C809169
:10408000500590E08017910719F48AE593E002C08B
:1040900088EF91E03F932F939F938F931F930F93FC
:1040A0007F926F921F923F929F928F920E947634DE
:1040B000B401C7010E9439270F5F1F4F0FB6F89454
:1040C000DEBF0FBECDBF0430110561F66BE074E0BA
:1040D000F501808D918D0E94392722E236E140E082
:1040E00050E000E067E673E0C5010E94521F689649
:1040F0000FB6F894DEBF0FBECDBFDF91CF911F91F9
:104100000F91FF90EF90DF90CF90BF90AF909F9076
:104110008F907F906F905F904F903F902F90089579
:104120000F93CF93DF93EC0141E069EC7BE086E0F5
:1041300090E00E94140CFE01EF5BFF4F8FEF9FEFAA
:1041400091838083688D798D84E095E00E942D179E
:104150006BE074E0888D998D0E94392727EA36E15B
:1041600040E050E000E067E773E0CE010E94521F9C
:10417000DF91CF910F9108958F929F92AF92BF924E
:10418000CF92DF92EF92FF920F931F93CF93DF9323
:10419000EC016B0149015A0141E064EB7BE086E0F0
:1041A00090E00E94140C65EA7BE0888D998D0E9456
:1041B000B3264091DC045091DD0460E070E020E122
:1041C000888D998D0E94EC266DE97BE0888D998D14
:1041D0000E94B326088D198D2AE04AE250E060E083
:1041E00070E0C8010E94EC26C8010E9435278AEDC4
:1041F000E82E84E0F82E01E010E0F701848995892B
:10420000A689B789892B8A2B8B2BD9F0B801888D89
:10421000998D0E9448196AE97BE0888D998D0E94EA
:10422000B326F70144895589668977892AE0888D04
:10423000998D0E94EC266BE074E0888D998D0E9428
:1042400039270F5F1F4FF4E0EF0EF11C0630110508
:10425000A1F66BE074E0888D998D0E943927811456
:104260009104A1F000E0A5019401B601CE010E94E5
:10427000521FDF91CF911F910F91FF90EF90DF9030
:10428000CF90BF90AF909F908F900895CE01DF9117
:10429000CF911F910F91FF90EF90DF90CF90BF9043
:1042A000AF909F908F900C94771FCF93DF93282F20
:1042B00030E0F901E554F54F8491F901E951F34FEC
:1042C000D491F901ED52F34FC491CC2391F08111B7
:1042D0000E949A1EEC2FF0E0EE0FFF1FE154F34F07
:1042E000A591B491EC91ED2381E090E021F480E080
:1042F00002C080E090E0DF91CF9108950F931F936B
:10430000CF93DF93EC0140915F0550916005052E3E
:10431000000C660B770B0E94D31ACE010E94210F6E
:104320008E01045E1F4F69E872E0C8010E945E348E
:10433000892B41F16EE072E0C8010E945E34892B46
:1043400049F58AE00E945521892BE1F46BEF7CE06E
:10435000888D998D0E94B32668E372E0888D998DCF
:104360000E94D72667EF71E0888D998D0E94D7262D
:1043700060E973E0888D998D0E943927888D998D29
:104380000E94352748E55CE060E070E020E0CE0167
:104390000E94971ADF91CF911F910F9108950F936B
:1043A000CF93DF93EC018AE00E945521019759F5E4
:1043B0008091670590916805DC01ED91FC91008486
:1043C000F185E02D40E050E0BA0109958091670544
:1043D000909168050E94C6118091670590916805CB
:1043E0000E94210F23EA35E140E050E000E066EA58
:1043F00073E080916505909166050E94521FDF91E0
:10440000CF910F91089562E07CE0888D998D0E9494
:104410004B276BE074E0888D998D0E943927CE017F
:10442000DF91CF910F910C94921F1F93CF93DF9345
:10443000282F30E0F901E554F54F8491F901E95155
:10444000F34FD491F901ED52F34FC491CC23C1F055
:10445000162F81110E949A1EEC2FF0E0EE0FFF1F25
:10446000E753F34FA591B4919FB7F894111104C08D
:104470008C91D095D82302C0EC91DE2BDC939FBFAA
:10448000DF91CF911F910895CF93DF9390E0FC01CE
:10449000E951F34F2491FC01ED52F34F84918823AD
:1044A00061F190E0880F991FFC01EF54F54FC59121
:1044B000D491FC01E753F34FA591B491611109C068
:1044C0009FB7F8948881209582238883EC912E23CE
:1044D0000BC0623061F49FB7F8948881322F309519
:1044E00083238883EC912E2B2C939FBF06C08FB71C
:1044F000F894E8812E2B28838FBFDF91CF91089508
:104500000F931F93CF93DF93EC01162F042F1B8281
:104510001A8288EE93E0A0E0B0E08C839D83AE83A6
:10452000BF8382E891E0998388831F8A1E8A198E4F
:10453000188E1B8E1A8E1D8E1C8E6E8D6E7F6D7F5B
:104540006E8F6695617081E06827842F0E94152226
:1045500061E0802F0E944422802F90E0FC01E9510D
:10456000F34FE491E88BFC01ED52F34FE491F0E05E
:10457000EE0FFF1FE753F34F859194919A8B898B30
:1045800060E0812F0E9444228E8D81FD04C061E095
:10459000812F0E9415221C87812F90E0FC01E95198
:1045A000F34FE491ED87FC01ED52F34FE491F0E01D
:1045B000EE0FFF1FE154F34F859194919F878E87F3
:1045C000DF91CF911F910F910895EF92FF920F937A
:1045D0001F93CF93DF93EC018A017901798368837C
:1045E0001E821D8218861F821A8619861C861B86CB
:1045F0000E94F4296D877E878F87988B198A1A8A83
:104600001B8A1C8AFE8AED8A188E1F8AFE01799603
:1046100084E1DF011D928A95E9F743E050E0B8019B
:10462000CE0102960E94463361E088810E944422B6
:1046300060E08881DF91CF911F910F91FF90EF9003
:104640000C9415228F929F92AF92BF92CF92DF92DD
:10465000EF92FF926B017C010E94CF294B015C011C
:10466000C114D104E104F104F1F00E94CF29DC016E
:10467000CB0188199909AA09BB09883E9340A10575
:10468000B10570F321E0C21AD108E108F10888EE03
:10469000880E83E0981EA11CB11CC114D104E10452
:1046A000F10419F7DDCFFF90EF90DF90CF90BF902E
:1046B000AF909F908F9008950F931F93CF930E9478
:1046C0007B1E8C018091DC049091DD040817190792
:1046D00031F4C1E0C80101978E3F9F4F08F0C0E060
:1046E00040E068EB73E086E090E00E94D00B6091C0
:1046F000DC047091DD0486E090E00E94351A40E011
:1047000069ED73E086E090E00E94D00BB80186E08E
:1047100090E00E94351A40E062EE73E086E090E09F
:104720000E94D00B6C2F70E041E086E090E00E9488
:10473000D00B8C2FCF911F910F910895EF92FF9284
:104740000F931F93CF93DF9300D0CDB7DEB78AEDE1
:1047500094E00E9460280091DA041091DB0441E0AB
:1047600064E87BE086E090E00E94140C17FD04C032
:104770001093DB040093DA0440E062E77BE085E01D
:1047800090E00E94140C40E06EED74E085E090E053
:104790000E94D00B40E064E67BE085E090E00E9460
:1047A000140C6091DA047091DB0440E085E090E045
:1047B0000E94630B40E068E57BE085E090E00E94AA
:1047C000140C6AE270E085E090E00E945F1A0E949B
:1047D0005C2341E0882351F063EE7AE085E090E0CD
:1047E0000E94140C41E06FEC7AE029C063E27BE0A8
:1047F00085E090E00E94140C0E947B1E9093DD04E3
:104800008093DC048091DA049091DB040AED14E0DB
:104810009C012A5D34407901C701800F911FF80186
:1048200061918F019A838983CE0101960E944A0B80
:10483000F5E004301F0781F741E06FE07BE086E0A0
:1048400090E00E94140C0F900F90DF91CF911F9178
:104850000F91FF90EF900895EF92FF920F931F93A7
:10486000CF93DF938C0140E062EF73E086E090E04D
:104870000E94D00BE801A796015C1F4F7E01688162
:10488000062E000C770B40E086E090E00E94630B60
:1048900040E067E074E086E090E00E94D00B8991F0
:1048A0008A3039F08D3029F0C017D10741F7C0E0C8
:1048B00001C0C1E041E06BE074E086E090E00E945E
:1048C000D00BCC2369F040E069EA7CE086E090E020
:1048D0000E94140C41E0B70186E090E00E94D00BEA
:1048E0008C2FDF91CF911F910F91FF90EF90089542
:1048F000CF92DF92EF92FF920F931F93CF93DF93AC
:104900006C017A018B01C0E0D0E0CE15DF0581F0AB
:10491000D8016D918D01D601ED91FC910190F0814E
:10492000E02DC6010995892B11F02196EECF7E016D
:10493000C701DF91CF911F910F91FF90EF90DF9012
:10494000CF900895FC01538D448D252F30E0842FA6
:1049500090E0821B930B541710F0CF9608950197A7
:104960000895FC01918D828D981761F0828DDF0191
:10497000A80FB11D5D968C91928D9F5F9F73928F52
:1049800090E008958FEF9FEF0895FC01918D828D47
:10499000981731F0828DE80FF11D858D90E0089514
:1049A0008FEF9FEF0895FC01918D228D892F90E06C
:1049B000805C9F4F821B91098F73992708958DE327
:1049C00094E00E94D32421E0892B09F420E0822F77
:1049D0000895FC01848DDF01A80FB11DA35ABF4FBC
:1049E0002C91848D90E001968F739927848FA689EE
:1049F000B7892C93A089B1898C91837080648C9342
:104A0000938D848D981306C00288F389E02D8081F0
:104A10008F7D80830895EF92FF920F931F93CF9322
:104A2000DF93EC0181E0888F9B8D8C8D981305C0FE
:104A3000E889F989808185FD26C0F62E0B8D10E06E
:104A40000F5F1F4F0F731127E02E8C8DE8120CC0E3
:104A50000FB607FCFACFE889F989808185FFF5CF89
:104A6000CE010E94E924F1CF8B8DFE01E80FF11DEC
:104A7000E35AFF4FF0829FB7F8940B8FEA89FB89C6
:104A8000808180620AC09FB7F894EE89FF896083B5
:104A9000E889F98980818370806480839FBF81E089
:104AA00090E0DF91CF911F910F91FF90EF900895CB
:104AB000CF93DF93EC01888D8823C9F0EA89FB89C5
:104AC000808185FD05C0A889B9898C9186FD0FC0BC
:104AD0000FB607FCF5CF808185FFF2CFA889B98991
:104AE0008C9185FFEDCFCE010E94E924E7CFDF91C5
:104AF000CF91089580E090E0892B29F00E94DF2477
:104B000081110C940000089520913B0430913C04E5
:104B10002817390771F49091B1058091B005981765
:104B200041F0E091B105F0E0E059FA4F808190E06A
:104B300008958FEF9FEF089508951F93CF93DF930C
:104B4000DC015C968D919C915D97009739F421E092
:104B500030E013963C932E9312973BC05196ED9103
:104B6000FC91529750962C915097322F30951FB749
:104B70005E964C915E97742F727041FD6095F8942B
:104B80004081772311F0422B01C043234083EC0185
:104B90002197F1F748E0508160FF02C0522B01C01D
:104BA00053235083EC012197F1F76695415099F713
:104BB0008081772319F08323808302C0282B2083F0
:104BC0001FBF5C968D919C915D970197F1F781E0F5
:104BD00090E0DF91CF911F91089520913B04309197
:104BE0003C042817390771F48091B0052091B10574
:104BF00090E0805C9F4F821B910960E470E00E940E
:104C0000F633089580E090E0089520913B043091C0
:104C10003C0428173907B9F49091B1058091B0058B
:104C2000981789F0E091B105F0E0E059FA4F8081E2
:104C30002091B10530E02F5F3F4F2F733327209332
:104C4000B10590E008958FEF9FEF0895089580E0FB
:104C500090E008950E94433490910001891324C08C
:104C6000E5EFFDE0E4919FEF90930001E130B9F0B2
:104C700098F0E230C9F4909170009D7F909370009D
:104C800091E09093B0009091B100987F94609093E0
:104C9000B1001092B30008C010926E0005C0909150
:104CA0006F009D7F90936F0060E00C9415221F921F
:104CB0000F920FB60F9211242F933F934F935F9350
:104CC0006F937F938F939F93AF93BF93EF93FF93D4
:104CD00080916C0590916D05A0916E05B0916F0566
:104CE000892B8A2B8B2B51F190916B05E0916905F3
:104CF000F0916A0580818927808380916C0590916D
:104D00006D05A0916E05B0916F05181619061A066B
:104D10001B06C4F480916C0590916D05A0916E0501
:104D2000B0916F050197A109B10980936C0590932B
:104D30006D05A0936E05B0936F0504C080910001CE
:104D40000E942C26FF91EF91BF91AF919F918F917F
:104D50007F916F915F914F913F912F910F900FBE77
:104D60000F901F901895EF92FF920F931F93CF9380
:104D7000DF938C017B01C0E0D0E0F701EC0FFD1F59
:104D80006491662361F0D801ED91FC910190F0816E
:104D9000E02DC8010995892B11F02196EECFCE01A7
:104DA000DF91CF911F910F91FF90EF9008956115C2
:104DB000710579F0FB0101900020E9F73197AF010F
:104DC000461B570BDC01ED91FC910280F381E02D35
:104DD000099480E090E008958F929F92AF92BF92E5
:104DE000EF92FF920F931F93CF93DF93CDB7DEB770
:104DF000A1970FB6F894DEBF0FBECDBF7C01FA01BC
:104E0000CB0119A2223008F42AE08E010F5D1F4F5A
:104E1000822E912CA12CB12CBF01A50194010E94DE
:104E20008333F901CA01015011096A3014F4605D3D
:104E300001C0695CD8016C93232B242B252B61F7CF
:104E4000B801C7010E94D726A1960FB6F894DEBF1D
:104E50000FBECDBFDF91CF911F910F91FF90EF90CB
:104E6000BF90AF909F908F90089569E074E00C948C
:104E7000D7260F931F93CF93DF93EC010E94D72681
:104E80008C01CE010E943527800F911FDF91CF91B9
:104E90001F910F9108950F931F93CF93DF93EC0110
:104EA0000E94B3268C01CE010E943527800F911FEE
:104EB000DF91CF911F910F9108951F920F920FB61E
:104EC0000F9211242F933F934F935F936F937F9390
:104ED0008F939F93AF93BF93EF93FF938DE394E0F2
:104EE0000E94E924FF91EF91BF91AF919F918F9123
:104EF0007F916F915F914F913F912F910F900FBED6
:104F00000F901F9018951F920F920FB60F921124B9
:104F10002F938F939F93EF93FF93E0914D04F09124
:104F20004E048081E0915304F091540482FD12C03C
:104F30009081809156048F5F8F7320915704821760
:104F400051F0E0915604F0E0E35CFB4F958F8093C5
:104F5000560401C08081FF91EF919F918F912F9115
:104F60000F900FBE0F901F9018951F920F920FB6C3
:104F70000F9211242F933F934F935F936F937F93DF
:104F80008F939F93AF93BF93EF93FF93E0913B0475
:104F9000F0913C04309709F451C0968DA685B785F1
:104FA000858591FF04C09C91892329F447C09C9179
:104FB000892309F043C0A389B4899C918589809590
:104FC00089238C93868997890197F1F7608D718D7C
:104FD000A685B785558538E020E0CB010197F1F72C
:104FE000822F90E095958795282F4C91452309F0C5
:104FF0002068315091F7868D81FD20958091B00514
:1050000090E001968F7399273091B105381749F0D8
:10501000A091B005B0E0A059BA4F2C938093B00591
:1050200003C0868D8160868F828D938D0197F1F705
:10503000A389B4899C918589892B8C93FF91EF91E9
:10504000BF91AF919F918F917F916F915F914F91A0
:105050003F912F910F900FBE0F901F901895CF93F7
:10506000DF93FC01828D938D892B31F1A0913B045C
:10507000B0913C04EA17FB07F9F0109751F05396F2
:10508000CD91DC915497988155968C918095892388
:105090008883868D8E7F868F1092B0051092B10521
:1050A000F0933C04E0933B04A389B4899C918589E7
:1050B000892B8C9381E001C080E0DF91CF9108952E
:1050C000CF92DF92EF92FF9220E030E04FEF5FEF60
:1050D000D901AA0FBB1FAA0FBB1FA80FB91F549657
:1050E000CD90DD90ED90FC905797C114D104E10470
:1050F000F10431F44F3F6FEF5607F1F4A9011CC0E2
:1051000021153105C9F04F3F6FEF5607A9F0FA019D
:105110003596EE0FFF1FEE0FFF1FE80FF91FC0823D
:10512000D182E282F38254961D921D921D921C92AE
:1051300057979A014FEF5FEF2F5F3F4F25303105B3
:105140003CF2FF90EF90DF90CF9008950F931F9364
:10515000CF93DF93EC018C010C5F1F4F40E150E0D7
:105160006CE074E0C8010E9446338CEB92E09983B6
:105170008883FE01749684E1DF011D928A95E9F728
:10518000F9A7E8A78C8181110BC040E150E061E1F3
:1051900074E0C801DF91CF911F910F910C944633B9
:1051A000DF91CF911F910F910895CF93DF93EC0181
:1051B0008BE00E945521892B79F080912804811180
:1051C0000BC0C65BDF4F81E090E028813981213040
:1051D000310521F080E002C081E090E0DF91CF91C5
:1051E0000895EF92FF920F931F93CF937C010E943B
:1051F000A70B8C01F701828193810817190731F4FD
:10520000C1E0C80101978E3F9F4F08F0C0E040E029
:1052100068EB73E086E090E00E94D00BF7016281BA
:10522000738186E090E00E94351A40E069ED73E0FA
:1052300086E090E00E94D00BB80186E090E00E94EA
:10524000351A40E062EE73E086E090E00E94D00BF9
:105250006C2F70E041E086E090E00E94D00B8C2F34
:10526000CF911F910F91FF90EF900895CF92DF9211
:10527000EF92FF920F931F93CF93DF9300D0CDB7A0
:10528000DEB78C0141E065EC7DE086E090E00E94B5
:10529000140C40E063EB7DE085E090E00E94140C8C
:1052A000B8016C5F7F4F40E085E090E00E94D00B3A
:1052B00040E065EA7DE085E090E00E94140CF80192
:1052C0006081718140E085E090E00E94630B40E0E6
:1052D00069E97DE085E090E00E94140C6FE570E0E4
:1052E00085E090E00E945F1AC8010E94F12841E029
:1052F000882381F064E27DE085E090E00E94140C58
:1053000041E060E17DE086E090E00E94140C00E066
:1053100010E02CC064E67DE085E090E00E94140C73
:10532000C8010E94A70BF80193838283E080F1807B
:105330006801FFE5CF0ED11CE01AF10AC701800F0A
:10534000911FF80161918F019A838983CE010196A3
:105350000E944A0B0C151D0589F741E060E57DE0D0
:1053600086E090E00E94140C01E010E040E06BED5C
:105370007DE084E090E00E94140C41E0B80184E0FC
:1053800090E00E94630BC8010F900F90DF91CF91C6
:105390001F910F91FF90EF90DF90CF9008953FB74E
:1053A000F8948091B7059091B805A091B905B09196
:1053B000BA0526B5A89B05C02F3F19F00196A11D7F
:1053C000B11D3FBFBA2FA92F982F8827820F911D9B
:1053D000A11DB11DBC01CD0142E0660F771F881FE2
:1053E000991F4A95D1F708952FB7F8946091B305A6
:1053F0007091B4058091B5059091B6052FBF0895C1
:105400001F920F920FB60F9211242F933F938F93F9
:105410009F93AF93BF938091B3059091B405A091F2
:10542000B505B091B6053091B20523E0230F2D37B5
:1054300020F40196A11DB11D05C026E8230F029698
:10544000A11DB11D2093B2058093B3059093B405BF
:10545000A093B505B093B6058091B7059091B805B6
:10546000A091B905B091BA050196A11DB11D809317
:10547000B7059093B805A093B905B093BA05BF914D
:10548000AF919F918F913F912F910F900FBE0F90F1
:105490001F901895CF93DF93CDB7DEB764970FB603
:1054A000F894DEBF0FBECDBF789484B5826084BD12
:1054B00084B5816084BD85B5826085BD85B5816018
:1054C00085BD80916E00816080936E001092810096
:1054D0008091810082608093810080918100816051
:1054E0008093810080918000816080938000809112
:1054F000B10084608093B1008091B000816080939E
:10550000B00080917A00846080937A0080917A0064
:10551000826080937A0080917A00816080937A0023
:1055200080917A00806880937A001092C10062E0D6
:105530008AE00E94442262E08CE00E94442262E001
:105540008BE00E94442261E085E00E94442261E0F9
:105550008DE00E9444228BE00E94552121E0892B9E
:1055600009F020E02093280460E071EE80E090E0F4
:105570000E94C319409155055091560560915705F9
:105580007091580580916305909164050E94C31E37
:1055900069E170E080E090E00E94222341E062EE49
:1055A00077E081E090E00E94140C84E095E00E9496
:1055B000D528892B31F06FEB77E08DE394E00E94E2
:1055C0004B2784E095E00E94D528892B21F081E1CA
:1055D00092E00E944B0741E061EA75E085E090E0CF
:1055E0000E94140C8CE00E94552141E0892B29F483
:1055F00066E775E084E090E07AC061EC74E085E0F5
:1056000090E00E94140C54E0E52E55E0F52E00E2E7
:1056100013E0C8010E945D33D7018D937D010F5FB8
:105620001F4F0F37B3E01B07A1F780E293E0909381
:1056300005058093040584E095E00E94F12881111E
:1056400007C041E06FE974E083E090E00E94140C31
:1056500040E067E874E086E090E00E94140C41E0CE
:1056600060E273E086E090E00E94630B40E064E655
:1056700074E086E090E00E94140C40E068E075E081
:1056800086E090E00E94D00B41E066E372E086E0A5
:1056900090E00E94D00B40E067E474E086E090E088
:1056A0000E94140C6FE570E086E090E00E945F1AA3
:1056B00040E064E374E086E090E00E94140C6FE543
:1056C00070E086E090E00E945F1A41E060E274E0E2
:1056D00086E090E00E94140C84E095E00E94F1289E
:1056E000811107C041E066E575E083E090E00E942B
:1056F000140C84E095E00E94F128882329F08CE0C6
:105700000E945521892B41F541E06AE275E083E072
:1057100090E00E94140C8FE590E00E94FF308C0115
:105720000E94C0178FE5F801A4E0B5E001900D924A
:105730008A95E1F740E250E06CEA72E088E195E09A
:105740000E94463380E293E0909305058093040520
:1057500040E060E075E003C040E067ED74E084E0A5
:1057600090E00E94140C40E068E175E084E090E075
:105770000E94D00B41E066E372E084E090E00E947A
:10578000D00B409155055091560560915705709189
:10579000580580916305909164050E94C31E8DE3B6
:1057A00094E00E94582560915105709152058091B6
:1057B0005305909154050E94C31969E170E080E09F
:1057C00090E00E94222340E06FE977E084E090E0DF
:1057D0000E94140C40E068E372E084E090E00E94D4
:1057E000D00B40E06CE977E084E090E00E94140C7C
:1057F00041E066E472E084E090E00E94D00B40E07B
:105800006AE877E085E090E00E94140C40E068E1EF
:1058100075E085E090E00E94D00B40E066E777E01D
:1058200085E090E00E94140C84E095E00E94A70BB4
:10583000BC0185E090E00E94351A40E06BE677E01D
:1058400085E090E00E94140C6FE570E085E090E048
:105850000E945F1A40E06DE477E084E090E00E94EF
:10586000140CC0905105D0905205E0905305F09073
:1058700054050E948307049704F10E942607882399
:1058800081F0B701A60180916305909164050E94A3
:1058900012196BE074E080916305909164050E9499
:1058A0003927B701A6018DE394E00E9412196BE03D
:1058B00074E08DE394E00E94392740E06AE377E0EA
:1058C00084E090E00E94140C009128040E94830759
:1058D0000497FCF00E94260710E0882379F0B801B5
:1058E00080916305909164050E9448196BE074E013
:1058F00080916305909164050E943927B8018DE37A
:1059000094E00E9448196BE074E08DE394E00E94FB
:10591000392740E06DE277E084E090E00E94140CCB
:105920000E94830741E0BC0184E090E00E94630B89
:1059300041E06BE074E084E090E00E94D00B6DE306
:1059400074E084E095E00E942D176BE074E08DE335
:1059500094E00E9439270E942607882381F06091F5
:1059600063057091640584E095E00E942D176BE05B
:1059700074E080916305909164050E94392784E06A
:1059800095E00E94D528892B21F08CE592E00E94B9
:105990004B078DE290E00E94FF308C0120E030E068
:1059A00040E752E068E070E00E94E5221093360480
:1059B000009335048DE290E00E94FF308C0120E0DE
:1059C00030E043E752E067E070E00E94E522109388
:1059D0003804009337048DE290E00E94FF308C0180
:1059E00020E030E046E752E066E070E00E94E52209
:1059F00010933A04009339048DE290E00E94FF3046
:105A00008C0120915D0530915E0549E752E069E027
:105A100070E00E94E5221093300400932F048FE180
:105A200090E00E94FF308C0144E164E00E948022FB
:105A300010932C0400932B04809150058230E9F0E0
:105A40008330D9F581E490E00E94FF307C0100E0D2
:105A50002AE043E06DE00E94401883E191E0D70125
:105A60008D939C9340E069EC75E084E090E00E94A7
:105A7000140C41E062E872E01AC081E490E00E94F8
:105A8000FF307C0101E027E044E06AE00E9440181A
:105A90008BE091E0F7019183808340E068EB75E053
:105AA00084E090E00E94140C41E06CE772E084E036
:105AB00090E00E94D00B870108C081E490E00E9432
:105AC000FF307C010E94D518870110932A040093AF
:105AD000290480912B0490912C04F801FF96918366
