:100000000C94CE0A0C94F60A0C94F60A0C94851CF7
:100010000C94851C0C94851C0C94F60A0C94F60A1E
:100020000C94F60A0C94F60A0C94F60A0C94F60A50
:100030000C94F60A0C94F60A0C94F60A0C94F60A40
:100040000C9462230C94F60A0C94531C0C942D1CF3
:100050000C94F60A0C94F60A0C94F60A0C94F60A20
:100060000C94F60A0C94F60A6E11AF1175118111F9
:100070008611ED129211C2121D132D133D134D1353
:1000800057137913851391139913D112A513B11333
:10009000C113CD13DD13ED130C1F251F3E1F571F7A
:1000A000701F781F931F961F991F9D1FA01FA71FCA
:1000B000AA1FC51FC81FE31FFE1F53746F7261671D
:1000C000653A3A4C6F6164282920454E44005374C8
:1000D0006F726167653A3A4C6F61642829206368E2
:1000E00065636B73756D206D69736D617463680012
:1000F00073697A656F66285429200073697A656F81
:1001000066282A6F626A6563745F726566292000DB
:100110006F626A6563745F7265662D3E73746F7299
:100120006167655F6E616D652027006C6F61646556
:10013000645F636865636B73756D200073746F72C1
:1001400065645F636865636B73756D2000636865E4
:10015000636B73756D5F73697A6520006565707296
:100160006F6D5F61646472657373200053746F72A6
:100170006167653A3A4C6F616428292042454749D6
:100180004E0053657474696E67733A3A4C6F6164DC
:10019000282920454E440053657474696E67733A8C
:1001A0003A4C6F61642829207573696E67206C6F03
:1001B000616465642073657474696E6773202700D9
:1001C00053657474696E67733A3A4C6F6164282999
:1001D000207573696E672064656661756C74207341
:1001E000657474696E677320270053657474696E53
:1001F00067733A3A4C6F616428292063686B736DAA
:10020000206D69736D6174636820736F206372651C
:100210006174696E672064656661756C74205365EE
:100220007474696E6773282900272063616C6320EA
:1002300063686B736D203078002720736574746970
:100240006E67735F6E616D65202700536574746916
:100250006E67733A3A4C6F61642829204375727255
:10026000656E742E73746F726167655F6E616D6524
:1002700020270053657474696E67733A3A4C6F6156
:1002800064282920424547494E004C65643A3A5358
:10029000746172747570426C696E6B2829005365C5
:1002A0007269616C4D656E753A3A626567696E2870
:1002B000290053746F726167653A3A4C6F61642824
:1002C0002920454E440053746F726167653A3A4C79
:1002D0006F6164282920636865636B73756D206D99
:1002E00069736D617463680073697A656F66285419
:1002F00029200073697A656F66282A6F626A6563D0
:10030000745F7265662920006F626A6563745F724C
:1003100065662D3E73746F726167655F6E616D65B2
:100320002027006C6F616465645F636865636B734D
:10033000756D200073746F7265645F636865636BCD
:1003400073756D2000636865636B73756D5F7369AA
:100350007A652000656570726F6D5F6164647265B7
:100360007373200053746F726167653A3A4C6F6122
:1003700064282920424547494E00546167733A3A40
:100380004C6F6164282920454E44004C6F616454D1
:10039000616773282920636865636B73756D206DD1
:1003A00069736D6174636800546167733A3A4C6FA6
:1003B0006164282920424547494E00436F6E73749B
:1003C00072756374696E6720526561646572206638
:1003D0006F723A2000526561646572417272617990
:1003E00053657475702829206275696C64696E673D
:1003F000206172726179206F662072656164657236
:10040000732E004E6F207265616465722077617390
:100410002073656C6563746564004765745265613B
:1004200064657228292073656C65637465643A207D
:100430000047657452656164657228292063616CA8
:100440006C65642077697468206E616D653A200080
:100450002C207769746820454550524F4D207072AA
:100460006F78696D697479207374617465200053C5
:1004700074617274696E67205246494420726561E6
:10048000646572200053657474696E67206F7574BB
:100490007075742073776974636820706572207357
:1004A000617665642070726F78696D6974795F73C5
:1004B000746174653A200044656275672070696EE6
:1004C000204C4F57202E2E2E20656E61626C696E77
:1004D00067206465627567004465627567207069AE
:1004E0006E207374617475733A20002C2000426F83
:1004F0006F74696E67205246494420496D6D6F6282
:10050000696C697A65722C200027206F66207369F8
:100510007A6520004C6F616465642053657474696A
:100520006E677320270052652D696E697469616C6E
:10053000697A65642073657269616C20706F72748A
:100540002077697468206C6F6164656420736574DA
:1005500074696E67733A2000496E697469616C69E9
:100560007A65642064656661756C74207365726970
:10057000616C20706F727420402035373630302027
:100580006261756400556E617574686F72697A6531
:1005900064206F7220696E76616C69642074616793
:1005A0003A2000417574686F72697A6564207461DD
:1005B000673A200054616720726573756C74206619
:1005C000726F6D205265616465723A20005246492F
:1005D000443A3A70726F636573735461674461742F
:1005E0006128292063616C6C696E672072656164A3
:1005F00065722D3E70726F636573735461674461F9
:100600007461285F7461672900524649443A3A7020
:10061000726F636573735461674461746128292044
:100620007265636569766564206275666665722CBD
:10063000207573696E67207265616465723A200087
:100640006379636C65526561646572506F7765723A
:1006500028292073657474696E672072656164650A
:100660007220706F776572204C4F57006E6576650B
:100670007200207365636F6E64732061676F002C76
:1006800020726561646572206379636C65643A20E9
:10069000006E6576657200207365636F6E6473200B
:1006A00061676F006379636C655265616465725060
:1006B0006F77657228292074616720726561643ADA
:1006C00020006379636C65526561646572506F7771
:1006D000657228292073657474696E67207265617C
:1006E00064657220706F7765722048494748002919
:1006F000002800524649443A3A706F6C6C5265616A
:100700006465722829207265616465722D3E72618C
:10071000775F7461675F6C656E6774683A2000523A
:100720004649443A3A706F6C6C5265616465722850
:1007300029207265616465722D3E7265616465721F
:100740005F6E616D653A20004C65643A3A466173AC
:1007500074426C696E6B2829004C65643A3A537494
:100760006561647928292C205F696E7465727661F1
:100770006C735B305D3A200070726F78696D6974DC
:10078000795374617465436F6E74726F6C6C6572CB
:100790002829206E6F20636F6E646974696F6E2004
:1007A000776173206D657420286E6F74206E6563A9
:1007B0006573736172696C7920612070726F626C0D
:1007C000656D290070726F78696D69747953746111
:1007D0007465436F6E74726F6C6C65722829207338
:1007E00074696C6C20594F554E470070726F786970
:1007F0006D6974795374617465436F6E74726F6C54
:100800006C65722829204147494E470070726F7805
:10081000696D6974795374617465436F6E74726F36
:100820006C6C657228292054494D454F5554007011
:10083000726F78696D6974795374617465436F6E12
:1008400074726F6C6C657228292073746172747590
:100850007020475241434520706572696F6420746F
:10086000696D656F75742C206E6F207461672066EA
:100870006F756E64002A2A2A007461674C61737474
:100880005265616454696D656F75745831303030EC
:1008900028293A20006D735F7265616465725F6339
:1008A00079636C655F746F74616C3A20006D73538B
:1008B000696E63654C617374526561646572506FF3
:1008C0007765724379636C6528293A20006D73530C
:1008D000696E63654C617374546167526561642825
:1008E000293A20006C6173745F7265616465725FA0
:1008F000706F7765725F6379636C655F6D733A20C3
:10090000006C6173745F7461675F726561645F6DD1
:10091000733A20002A2A2A2050524F58494D4954F0
:1009200059202A2A2A002A2A2A00532E52454144B5
:1009300045525F4359434C455F4C4F575F445552B6
:100940004154494F4E3A200052504348442A3130D6
:1009500030303A2000726561646572506F7765725D
:100960004379636C65486967684475726174696F3F
:100970006E2829007461674C617374526561645418
:10098000696D656F7574583130303028293A200010
:100990006D735F7265616465725F6379636C655FD7
:1009A000746F74616C3A20006D7353696E63654CAB
:1009B000617374526561646572506F7765724379D3
:1009C000636C6528293A20006D7353696E63654C2A
:1009D0006173745461675265616428293A20006C20
:1009E0006173745F7265616465725F706F77657261
:1009F0005F6379636C655F6D733A20006C6173743B
:100A00005F7461675F726561645F6D733A20006354
:100A100079636C655F686967685F66696E6973684A
:100A20005F6D733A20006379636C655F6C6F775F0D
:100A300066696E6973685F6D733A2000202A2A2AFE
:100A4000002A2A2A2052464944204C4F4F50204227
:100A50004547494E20004C65643A3A536C6F7742E3
:100A60006C696E6B2829004572726F723A20596F5B
:100A7000752061726520617474656D7074696E674C
:100A800020746F2063616C6C2070726F6365737388
:100A9000546167446174612829206F6E2074686511
:100AA0002067656E657269632052656164657220B6
:100AB000636C6173730052444D363330302054619F
:100AC0006720737563636573733A200052444D3633
:100AD0003330303A3A70726F6365737354616744B0
:100AE0006174612829207769746820696E70757453
:100AF0003A200052373934314520546167207265FD
:100B000061643A20002C20636865636B73756D2007
:100B100028646563293A20002C2069645F6C656E47
:100B20003A20002C2069645F656E643A2000696495
:100B30005F626567696E3A20005237393431453A51
:100B40003A70726F636573735461674461746128AE
:100B50002920776974682000574C31323520546160
:100B60006720737563636573733A20002C20636894
:100B700065636B73756D2028726177206279746587
:100B800073293A20002C2069645F6C656E3A20005E
:100B90002C2069645F656E643A200069645F626559
:100BA00067696E3A2000574C3132353A3A70726FAD
:100BB00063657373546167446174612829207769A0
:100BC000746820696E7075743A200043616C6C69BA
:100BD0006E6720454550524F4D2E757064617465A7
:100BE00020776974682070726F78696D6974795FB5
:100BF00073746174653A20005246494420496D6D12
:100C00006F62696C697A65722061646D696E2063D8
:100C10006F6E736F6C652C20004C65643A3A4F66BA
:100C200066282900456E746572696E672072756E5C
:100C3000206D6F64650D0A000D0A53657269616C61
:100C40004D656E752073657474696E672072756E7C
:100C50005F6D6F646520746F2030202772756E277A
:100C6000006765744C696E65282920627974006399
:100C70006865636B53657269616C506F7274282983
:100C8000207573657220696E707574207769746859
:100C9000206E6F206D61746368696E6720696E7085
:100CA0007574206D6F64653A2000636865636B53EB
:100CB000657269616C506F72742829207265636572
:100CC0006976656420627974653A2000532E7570E8
:100CD0006461746553657474696E67282920003AED
:100CE00020006D656E7553656C656374656453654E
:100CF0007474696E67207365742073656C656374C2
:100D000065645F6D656E755F6974656D20746F3ABB
:100D1000200053657269616C4D656E753A3A62796F
:100D20007465546F41736369694368724E756D20D1
:100D3000726563656976656420627974653A20003E
:100D400046726565204D656D6F72793A206E2F6130
:100D50000064656C657465416C6C54616773282927
:100D60000044656C65746520616C6C205461677328
:100D7000006D656E7553656C65637465644D61697E
:100D80006E4974656D20636F6E766572746564205C
:100D9000627974653A20002028006D656E75536590
:100DA0006C65637465644D61696E4974656D20722C
:100DB0006563656976656420627974653A200064CC
:100DC000656C657465546167496E64657828293A75
:100DD000200044656C65746554616728292072653C
:100DE00073756C743A200044656C65746554616772
:100DF00028292061626F72746564006164645461C3
:100E00006728292073756363657373006164645494
:100E100061672829206661696C65643A20447570B1
:100E200065006164645461672829206661696C65A6
:100E3000643A2046756C6C006164645461672829CB
:100E40002061626F727465643A20496E76616C69E4
:100E50006420636F646500616464546167282920BD
:100E6000006661696C65642C207461672069732079
:100E70006475706C6963617465006661696C656452
:100E80002C20746167206C69737420697320667507
:100E90006C6C0061626F727465642C20696E76619F
:100EA0006C6964207461672D696420737472696E63
:100EB00067007375636365737300416464546167AD
:100EC000282920726573756C743A2000546167207C
:100ED000656E74657265643A200072756E43616C6C
:100EE0006C6261636B732829206E6F20636F6E6480
:100EF0006974696F6E207761732073656C656374C4
:100F000065640072756E43616C6C6261636B73281B
:100F1000292063616C6C20746F20532E757064619E
:100F2000746553657474696E672829206661696CFD
:100F300065640072756E43616C6C6261636B7328EB
:100F40002920696E707574417661696C61626C65A7
:100F500020666F722075706461746553657474697E
:100F60006E673A200072756E43616C6C6261636BF0
:100F700073282920696E707574417661696C6162AD
:100F80006C6520666F72206D656E7553656C656368
:100F900074656453657474696E670072756E43613D
:100FA0006C6C6261636B73282920696E7075744183
:100FB0007661696C61626C6520666F72206D656E2A
:100FC0007553656C65637465644D61696E497465DC
:100FD0006D0072756E43616C6C6261636B7328297E
:100FE00020696E707574417661696C61626C652010
:100FF000666F72206D656E7544656C6574655461CD
:10100000670072756E43616C6C6261636B73282953
:1010100020696E707574417661696C61626C6520DF
:10102000666F72206D656E7541646454616700007F
:10103000000000240027002A000000000800020130
:101040000000030407000000000000000000000092
:101050000023002600290000000000250028002BA6
:101060000004040404040404040202020202020351
:10107000030303030301020408102040800102045B
:1010800008102001020408102053746F7261676514
:101090003A3A73617665282920454E440053746FAF
:1010A000726167653A3A7361766528292045455033
:1010B000524F4D20757064617465206E6F74206EA0
:1010C00065636573736172790053746F72616765EC
:1010D0003A3A73617665282920454E440053746F6F
:1010E000726167653A3A7361766528292063686B97
:1010F000736D206D69736D617463682C2070657207
:10110000666F726D696E6720454550524F4D2E7067
:1011100075742829002073697A656F662854292020
:10112000002030780020776974682073746F7265CE
:10113000642F63616C6365642063686B736D20303A
:1011400078002720746F20616464726573732000D7
:1011500053746F726167653A3A7361766528292026
:10116000270053746F726167653A3A736176652838
:101170002920424547494E0020746F206164647203
:101180006573732000536176696E672074616773BD
:10119000207769746820636865636B73756D2030B0
:1011A00078004C65643A3A626567696E20776974C5
:1011B0006820696E74657276616C732063757272F3
:1011C000656E742C206E65773A004C65643A3A750A
:1011D0007064617465207769746820696E746572E3
:1011E00076616C732063757272656E742C206E6507
:1011F000773A004C65643A3A757064617465205FB3
:10120000696E74657276616C735B305D3A20005371
:10121000746F726167653A3A736176652829204573
:101220004E440053746F726167653A3A7361766534
:10123000282920454550524F4D20757064617465D2
:10124000206E6F74206E65636573736172790053ED
:10125000746F726167653A3A736176652829204533
:101260004E440053746F726167653A3A73617665F4
:1012700028292063686B736D206D69736D617463D9
:10128000682C20706572666F726D696E67204545C7
:1012900050524F4D2E7075742829002073697A655D
:1012A0006F66285429200020307800207769746800
:1012B0002073746F7265642F63616C63656420636F
:1012C000686B736D203078002720746F2061646430
:1012D00072657373200053746F726167653A3A7375
:1012E000617665282920270053746F726167653A1B
:1012F0003A73617665282920424547494E00536577
:101300007474696E67733A3A73617665282920723E
:101310006573756C743A20004F55545055545F53A3
:1013200057495443485F50494E00524649445F4232
:101330004155440042545F424155440044454255A2
:10134000475F50494E0048575F53455249414C5FF3
:101350004241554400524649445F53455249414C2D
:101360005F52580042545F52585458004C45445FF5
:1013700050494E0044454641554C545F5245414406
:10138000455200656E61626C655F646562756700F9
:1013900070726F78696D6974795F737461746500D8
:1013A00061646D696E5F74696D656F757400524537
:1013B000414445525F504F5745525F434F4E545240
:1013C0004F4C5F50494E005245414445525F43598E
:1013D000434C455F484947485F4455524154494F43
:1013E0004E005245414445525F4359434C455F4C82
:1013F0004F575F4455524154494F4E005441475F47
:10140000524541445F534C4545505F494E54455207
:1014100056414C005441475F4C4153545F52454143
:10142000445F54494D454F5554007570646174656F
:1014300041646D696E54696D656F757428292073F8
:1014400065636F6E64733A2000736574496E7075DE
:10145000744D6F646528293A200073657443616C8C
:101460006C6261636B46756E6374696F6E28293AAE
:101470002000362E2044656C65746520616C6C20FC
:101480007461677300352E2053657474696E6773D9
:1014900000342E2053686F772066726565206D6575
:1014A0006D6F727900332E2044656C65746520740D
:1014B000616700322E204164642074616700312E20
:1014C000204C697374207461677300302E20457856
:1014D0006974004D656E75002E20002C2073697AAA
:1014E000652000546167732C2063686B736D203036
:1014F00078002C2073697A65200053657474696ED6
:1015000067732C2063686B736D20307800536574AB
:1015100074696E67733A3A67657453657474696E7B
:10152000674279496E6465783A20001414FC13E22E
:1015300013C713AE13A0139013831374136C1364A7
:1015400013551346133C1334132A1318135365749D
:1015500074696E67733A3A646973706C6179536544
:101560007474696E6728292072657475726E696E6D
:10157000673A200053657474696E67733A3A646918
:1015800073706C617953657474696E67282920677C
:10159000617468657265643A2000703111241FBE61
:1015A000CFEFD8E0DEBFCDBF25E0AEE7B3E001C0AE
:1015B0001D92AD32B207E1F713E0A0E0B1E0E0ED3B
:1015C000FFE602C005900D92AE37B107D9F71AE0D9
:1015D000CEECDAE004C02197FE010E94CD33CD3C71
:1015E000D107C9F70E94AC230C94E6370C94000095
:1015F0008FE694E00E94781E892B31F067E67AE04E
:1016000088E993E00E941B1C60E070E0CB01089524
:101610006F927F928F929F92AF92BF92CF92DF9202
:10162000EF92FF920F931F93CF93DF93CDB7DEB767
:101630008C016B016DB67EB68FE694E00E94781E39
:10164000892B31F066EA7BE088E993E00E94F71B82
:101650008FE694E00E94781E892B31F06BE97BE0E5
:1016600088E993E00E94F71B8FE694E00E94781EC1
:10167000892B31F06AE070E0F80183890E94A2159D
:101680008FE694E00E94781E892B31F060E97BE0C0
:1016900088E993E00E94F71B8FE694E00E94781E91
:1016A000892B31F06AE070E0F80184890E94A2156C
:1016B000F80144894F5F8389F42EF81A8FE694E08D
:1016C0000E94781E892B31F065E87BE088E993E081
:1016D0000E94F71B8FE694E00E94781E892B29F068
:1016E0006AE070E08F2D0E94A2158FE694E00E94C0
:1016F000781E892B31F06CE67BE088E993E00E944C
:10170000F71B8FE694E00E94781E892B31F06AE087
:1017100070E0F60183850E94A2158FE694E00E9496
:10172000781E892B31F065EE71E088E993E00E9424
:10173000F51B8FE694E00E94781E892B21F0F601BC
:1017400084850E94AB154F2D50E04F5F5F4F8DB7E2
:101750009EB7841B950B0FB6F8949EBF0FBE8DBF2E
:10176000EDB7FEB731967F016EE271E0CF010E94C6
:101770001A35F80183895601A80EB11C83E0882E22
:1017800082E0982EF801848990E095012C193D099A
:1017900082179307C4F0F50121915F01F7010190D1
:1017A0000020E9F71F922F939F928F92CF0101970C
:1017B0009F938F930E9433350F900F900F900F904F
:1017C0000F900F90DFCF40E150E060E070E0C70184
:1017D0000E94C4314B015C018FE694E00E94781EA8
:1017E000892B31F068E57BE088E993E00E94F71BE4
:1017F0008FE694E00E94781E892B29F0B70188E9D2
:1018000093E00E94F51B8FE694E00E94781E892BDE
:1018100031F066E072E088E993E00E94F51B8FE604
:1018200094E00E94781E892B21F0C501B4010E942A
:101830008F15C501B4010FB6F8947EBE0FBE6DBE04
:10184000DF91CF911F910F91FF90EF90DF90CF909C
:10185000BF90AF909F908F907F906F9008956F9200
:101860007F928F929F92AF92BF92CF92DF92EF9230
:10187000FF920F931F93CF93DF93CDB7DEB78C0109
:101880005B016DB67EB68FE694E00E94781E892BD0
:1018900031F069E37BE088E993E00E94F71B8FE673
:1018A00094E00E94781E892B31F06EE27BE088E99B
:1018B00093E00E94F71B8FE694E00E94781E892B2C
:1018C00031F06AE070E0F80183890E94A2158FE68A
:1018D00094E00E94781E892B31F063E27BE088E976
:1018E00093E00E94F71B8FE694E00E94781E892BFC
:1018F00031F06AE070E0F80184890E94A215F801D5
:10190000448950E08389481B51094F5F5F4FF42E93
:10191000FF0C8FE694E00E94781E892B31F068E17D
:101920007BE088E993E00E94F71B8FE694E00E9439
:10193000781E892B29F06AE070E08F2D0E94A21595
:101940008FE694E00E94781E892B31F065E07BE001
:1019500088E993E00E94F71B8FE694E00E94781ECE
:10196000892B21F0F50180850E94AB154F2D50E0A9
:101970004F5F5F4F8DB79EB7841B950B0FB6F894E2
:101980009EBF0FBE8DBFEDB7FEB731967F016EE2F1
:1019900071E0CF010E941A35F80183896501C80EF4
:1019A000D11C89E0882E82E0982EF801848990E08D
:1019B00096012A193B0982179307C4F0F601219179
:1019C0006F01F70101900020E9F71F922F939F927A
:1019D0008F92CF0101979F938F930E9433350F9081
:1019E0000F900F900F900F900F90DFCF40E150E0DD
:1019F00060E070E0C7010E94C4314B015C018FE6DA
:101A000094E00E94781E892B31F063EF7AE088E938
:101A100093E00E94F71B8FE694E00E94781E892BCA
:101A200029F0B70188E993E00E94F51B8FE694E066
:101A30000E94781E892B31F066E072E088E993E01D
:101A40000E94F51B8FE694E00E94781E892B21F0FE
:101A5000C501B4010E948F15C501B4010FB6F894F9
:101A60007EBE0FBE6DBEDF91CF911F910F91FF9093
:101A7000EF90DF90CF90BF90AF909F908F907F902E
:101A80006F9008956F927F928F929F92AF92BF92C4
:101A9000CF92DF92EF92FF920F931F93CF93DF933A
:101AA000CDB7DEB76C015B016DB67EB68FE694E014
:101AB0000E94781E892B31F06CEC7AE088E993E083
:101AC0000E94F71B8FE694E00E94781E892B49F054
:101AD00040E150E060E070E0C5010E94C4310E9426
:101AE000BC16F601F38844894F1950E04F5F5F4FF1
:101AF0008DB79EB7841B950B0FB6F8949EBF0FBE93
:101B00008DBF0DB71EB70F5F1F4F6EE271E0C801AA
:101B10000E941A35F501EF0DF11D7F0183E0882E3B
:101B200082E0982EF601848990E097012A193B09FA
:101B300082179307C4F0F70121917F01F80101900A
:101B40000020E9F71F922F939F928F92CF01019768
:101B50009F938F930E9433350F900F900F900F90AB
:101B60000F900F90DFCF40E150E060E070E0C801DF
:101B70000E94C4316B017C018FE694E00E94781EC4
:101B8000892B31F066EB7AE088E993E00E94F71B3D
:101B90008FE694E00E94781E892B29F0B80188E92D
:101BA00093E00E94F51B8FE694E00E94781E892B3B
:101BB00031F066E072E088E993E00E94F51B8FE661
:101BC00094E00E94781E892B21F0C701B6010E9483
:101BD0008F15C701B6010FB6F8947EBE0FBE6DBE5D
:101BE000DF91CF911F910F91FF90EF90DF90CF90F9
:101BF000BF90AF909F908F907F906F9008958F923D
:101C00009F92AF92BF92CF92DF92EF92FF920F938B
:101C10001F93CF93DF93CDB7DEB7E8970FB6F89455
:101C2000DEBF0FBECDBF8C018091840390918503F0
:101C30000197C9F4D80119964D915D916D917C91F0
:101C40001C978091B0049091B104A091B204B0911E
:101C5000B304481759076A077B0729F460E08091AD
:101C6000E0040E9419170E94B0182091840330915B
:101C70008503232B09F44EC0F801C580D680E78088
:101C8000F0846C197D098E099F0928EE33E040E04D
:101C900050E00E942733F80181859285A385B485A1
:101CA00082179307A407B507A8F568E37CE088E9E5
:101CB00093E00E941B1C64E27CE0D8018D919C9112
:101CC0000E941B1CF801ED5AFF4FE080F1808FE667
:101CD00094E00E94781E892B31F069E17CE088E96C
:101CE00093E00E941B1CBE016F5F7F4F88E2FB01E7
:101CF00011928A95E9F7C7010E9484171092850313
:101D00001092840380917E0390917F0390938303CC
:101D100080938203D8018D919C91DC01ED91FC911F
:101D20000084F185E02D0995892B09F4BBC0680179
:101D3000BDE0CB0ED11CF80180819181DC01ED91D9
:101D4000FC910084F185E02D0995892B09F49BC055
:101D5000F80180819181DC01ED91FC910284F38591
:101D6000E02D0995F82E8FE694E00E94781E892BCD
:101D700031F06AEA7CE088E993E00E94F71B8FE685
:101D800094E00E94781E892B49F06F2D88E993E03A
:101D90000E94EE1B88E993E00E94B31BB6018EE01F
:101DA00092E00E942335892B19F4F801F58EC3CFF8
:101DB000B60183E192E00E942335892B09F04AC0E5
:101DC0008FE694E00E94781E892B31F061E67CE07A
:101DD00088E993E00E94F71B8FE694E00E94781E4A
:101DE000892B49F06F2D88E993E00E94EE1B88E96A
:101DF00093E00E94B31BD801D5968D919C91D69704
:101E0000F801E80FF91FF58E0196F80196AB85AB46
:101E100080819181DC01ED91FC910190F081E02DB8
:101E20006F2D0995BDE0FB1619F0EAE0FE1283CF95
:101E3000D8018D919C910E94B31BD801D596ED914C
:101E4000FC91D697E00FF11F168ED6961C921E922B
:101E5000D59771CF6FE67CE088E993E00E941B1C68
:101E6000F80180819181DC01ED91FC910190F0817C
:101E7000E02D6F2D09956EE173E0F801808191816D
:101E80000E94B71B58CF10938303009382034091A5
:101E9000B0045091B1046091B2047091B304C801D0
:101EA0000E94C222D801D596AD90BC90D697A114BD
:101EB000B10409F09EC45D968C9118160CF099C47B
:101EC0006FED72E0C8010E94B122882309F4D3C0EB
:101ED0008FE694E00E94781E892B31F062E070E179
:101EE00088E993E00E941B1C6801BDE1CB0ED11C68
:101EF000F801858D8D3009F46CC08A3009F469C011
:101F0000882309F466C04AE050E060E070E0C60152
:101F10000E94C4314B015C0167E57EE088E993E0F3
:101F20000E94F71BC501B4010E948F1585E394E060
:101F30000E94851DE5E4F4E02DE634E0DF0180E059
:101F400090E04D915D916D917D91452B462B472BF6
:101F500009F001962A173B07A1F781149104A10407
:101F6000B10439F468E37EE088E993E00E941B1C29
:101F700030C08A30910554F062E27EE088E993E057
:101F80000E941B1CE2E0EE2EF12C26C041915191E3
:101F90006191719184169506A606B70609F433C3BC
:101FA0002E173F0799F7880F991F880F991FFC017B
:101FB000EB5BFB4F80829182A282B3820E94BC18AD
:101FC0006BEF7DE088E993E00E941B1CE12CF12C73
:101FD00003C0EE24E394F12C6CEC7EE0D8018D91EB
:101FE0009C910E94F71BB601F801808191810E94AB
:101FF000B71B6AEB7EE0D8018D919C910E94F71B84
:10200000B701F801808191810E94471566E072E076
:10201000D8018D919C910E94F51BF80180819181DE
:10202000F2E0EF16F10469F023E0E216F10461F04A
:10203000EA94EF2819F062EB7EE008C063E97EE0E5
:1020400005C06AE77EE002C061E67EE00E94F71B01
:10205000D8018D919C910E94B31BF80180819181E0
:102060000E94B31BC8010E94A622F801EF5AFF4F3D
:102070001182108274C168E172E0C8010E94B1222D
:10208000882309F461C08FE694E00E94781E892BB2
:1020900031F062ED7FE088E993E00E941B1C4AE08A
:1020A00050E060E070E0C8014D960E94C4316B01C1
:1020B0007C01D8015D968C918D3031F08A3021F011
:1020C000BAE0CB16D1045CF067EE7DE0F8018081C8
:1020D00091810E941B1CD8018D919C9132C06FEBA5
:1020E0007DE088E993E00E94F71BB60188E993E060
:1020F0000E947D15D7FC12C0B4E0CB0ED11CC601E6
:10210000880F991F880F991FFC01EB5CFB4F108211
:102110001182128213820E94BC1803C0AA24A394C5
:10212000B12C62ED7DE0F801808191810E94F71B66
:10213000B501D8018D919C910E947D15F801808197
:1021400091810E94B31B0BC166E272E0C8010E943C
:10215000B122882309F407C18FE694E00E94781E1B
:10216000892B31F06BE97FE088E993E00E941B1C2A
:10217000D8015D96FC908FE694E00E94781E892B32
:1021800031F06AE97DE088E993E00E94F71B8FE671
:1021900094E00E94781E892B29F06F2D88E993E046
:1021A0000E94EE1B8FE694E00E94781E892B31F08E
:1021B00067E97DE088E993E00E94F71B8FE694E0F1
:1021C0000E94781E892B29F06F2D88E993E00E94E8
:1021D000EE1B8FE694E00E94781E892B31F06BE3B2
:1021E00072E088E993E00E94B71BF9828FE694E0E1
:1021F0000E94781E892B31F062E17DE088E993E04E
:102200000E94F71B8FE694E00E94781E892B29F02C
:10221000698188E993E00E94EE1B8FE694E00E94BA
:10222000781E892B31F06DE372E088E993E00E941B
:10223000F51B8FE694E00E94781E892B29F06981B6
:1022400088E993E00E94EE1B8FE694E00E94781EDE
:10225000892B31F06BE372E088E993E00E94B71BB1
:10226000898180538A3048F44AE050E060E070E0B1
:10227000CE0101960E94C43102C060E370E06801A3
:10228000BFE4CB0ED11CF601718360838FE694E02E
:102290000E94781E892B31F061E77DE088E993E0A8
:1022A0000E94F71B8FE694E00E94781E892B39F07C
:1022B000D6016D917C9188E993E00E947D158F2D68
:1022C000FF0C990BAA0BBB0BFC01F097E730F10553
:1022D00008F0BBC0EC5CFF4F0C94CD3340E050E005
:1022E000BA01C8010E94C2228AC181E090E0F801CF
:1022F000EF5AFF4F918380832FE231E040E452E0B8
:102300007AC12AE331E046E752E075C160E47DE03E
:10231000F801808191810E941B1C2EE133E0A9010C
:1023200060E06AC161E67DE0D8018D919C910E94D8
:102330001B1C6EE173E0F801808191810E94B71B44
:1023400061E57DE088E993E00E941B1C88E2E5E4FA
:10235000F4E0DF011D928A95E9F70E94BC18C801DC
:102360000E94F5224CC160E972E0C8010E94B122CE
:10237000882309F46EC08FE694E00E94781E892BB2
:1023800031F065E67FE088E993E00E941B1C4AE09B
:1023900050E060E070E0C8014D960E94C4317801C1
:1023A000BFE4EB0EF11CF701718360838FE694E0CC
:1023B0000E94781E892B31F062EE7CE088E993E080
:1023C0000E94F71B8FE694E00E94781E892B39F05B
:1023D000D7016D917C9188E993E00E947D15F7010A
:1023E00060817181CB010197409730F59E01275D97
:1023F0003F4FAE014F5F5F4F8FE694E00E94B81EE3
:10240000BE016F5F7F4FD8018D919C910E94F51B9B
:102410006FED7CE0F801808191810E94F71BBE0185
:10242000675D7F4FD8018D919C910E94B71B24EA74
:1024300032E042EB52E0DFC0F801858D803329F0B5
:102440008D3019F08A3009F0C8C0C8010E9463229B
:10245000D6C064EA72E0C8010E94B122882309F460
:10246000C0C08FE694E00E94781E892B31F063E3B0
:102470007FE088E993E00E94F71B8FE694E00E94DA
:10248000781E9801215B3F4F5901892B39F0D90102
:102490006D917C9188E993E00E9447158FE694E066
:1024A0000E94781E892B31F066E072E088E993E0A3
:1024B0000E94F51B8FE694E00E94781EF8017D963D
:1024C0007F01892B29F0BF0188E993E00E94B71BA7
:1024D000D501CD90DC908FE694E00E94781E892B88
:1024E00031F06CEC7CE088E993E00E94F71B8FE60A
:1024F00094E00E94781E892B29F0B60188E993E0C8
:102500000E9447158FE694E00E94781E892B31F0D7
:1025100066E072E088E993E00E94F51BB1E0CB1A17
:10252000D108F601EE0FFF1FE55DFA4E659174913B
:10253000CE0101960E94E3328FE694E00E94781E5D
:10254000892B39F0BE016F5F7F4F88E993E00E94CD
:10255000F51B8FE694E00E94781E892B31F066E02F
:1025600072E088E993E00E94F51B8FE694E00E94F8
:10257000781E892B09F451C0B70188E993E00E94C5
:10258000B71B4BC04AE050E060E070E0C7010E941A
:10259000C43160939F047093A0048093A10490932E
:1025A000A20440E250E06FEC72E08FE794E00E94FA
:1025B000EA328FE694E00E94CB1D4091B004509126
:1025C000B1046091B2047091B304C8010E94C222A8
:1025D0008FEF9FEFF50191838083C8010E94EA216C
:1025E0000EC06AED7EE088E993E00E941B1C26E2A3
:1025F00032E04EE153E06CE6C8010E949821C80128
:102600000E94A622F6C06CE07EE088E993E00E947A
:102610001B1C33E0E32EF12CDFCCF1E1CF16D1040B
:1026200038F063E07FE088E993E00E941B1CD0CF84
:10263000F601E55CFF4F0C94CD334AE050E060E0DA
:1026400070E0C7010E94C4316093A3047093A40496
:102650008093A5049093A604A4CF4AE050E060E0E4
:1026600070E0C7010E94C4316093A7047093A8046E
:102670008093A9049093AA0494CF4AE050E060E0CC
:1026800070E0C7010E94C4316093AB047093AC0446
:102690008093AD049093AE0484CF4AE050E060E0B4
:1026A00070E0C7010E94C4316093AF047ACF4AE062
:1026B00050E060E070E0C7010E94C4316A307105EB
:1026C0008105910548F06093B0047093B104809344
:1026D000B2049093B30465CF8AE090E0A0E0B0E04C
:1026E0008093B0049093B104A093B204B093B30468
:1026F00058CF4AE050E060E070E0C7010E94C4316A
:102700007093B5046093B4044CCF4AE050E060E0AD
:1027100070E0C7010E94C4317093B7046093B6049F
:1027200040CF40E150E0B70188EB94E00E94EA32EC
:1027300038CF4AE050E060E070E0C7010E94C43149
:102740007093CB046093CA042CCF4AE050E060E061
:1027500070E0C7010E94C4317093D1046093D0042B
:1027600020CF4AE050E060E070E0C7010E94C43131
:102770006093D2047093D3048093D4049093D504CF
:1027800010CF4AE050E060E070E0C7010E94C43121
:102790007093D7046093D60404CF4AE050E060E021
:1027A00070E0C7010E94C4316093D8047093D904CB
:1027B0008093DA049093DB04F4CE4AE050E060E0CA
:1027C00070E0C7010E94C4316093DC047093DD04A3
:1027D0008093DE049093DF04E4CE4AE050E060E0B2
:1027E00070E0C7010E94C4317093E1046093E0047B
:1027F000D8CEE8960FB6F894DEBF0FBECDBFDF91FE
:10280000CF911F910F91FF90EF90DF90CF90BF90ED
:10281000AF909F908F900895CF93DF93EC0142E0AB
:1028200050E060E070E00E94C222CE010E94A62229
:102830006FED71E0CE0102960E942335892BE1F005
:1028400068EF7BE0888199810E94F71B6BEB71E058
:10285000888199810E94F51B66E072E088819981E8
:102860000E94F51B6AEE72E0888199810E94B71B75
:10287000888199810E94B31B26E232E04EE153E049
:102880006CE6CE01DF91CF910C949821FC018091F0
:10289000840390918503892B99F5728B618B611567
:1028A000710549F483E090E0A0E0B0E0878F90A349
:1028B000A1A3B2A304C0178E10A211A212A28091EC
:1028C000B4049091B5047093B5046093B404681790
:1028D0007907B1F06BEC7BE088E993E00E94F71B8D
:1028E0006091B4047091B50488E993E00E947D156D
:1028F0008091B4049091B5049093C9048093C80466
:102900000895FC01108A20E111922A95E9F70895B3
:102910000F931F93CF93DF93CDB7DEB7A8970FB672
:10292000F894DEBF0FBECDBF8C018FE694E00E940D
:10293000781E892B31F066E57AE088E993E00E9401
:102940001B1CBE016F5F7F4F88E2FB0111928A95CD
:10295000E9F784EF91E09A8389839C838B83C80194
:102960000E948417A8960FB6F894DEBF0FBECDBFA5
:10297000DF91CF911F910F91089580E090E0FB01CE
:1029800021913191BF011216130624F4019684316E
:102990009105A9F708950F931F93CF93DF938B01B0
:1029A0000E94BD14BC0188E993E00E94471565EEC2
:1029B00071E088E993E00E94F51BE801085D1F4F74
:1029C00067E072E088E993E00E94F51B69917991D4
:1029D00088E993E00E944715C017D10789F76EE197
:1029E00073E088E993E0DF91CF911F910F910C94F0
:1029F000B71B833081F028F4813099F08230A1F048
:102A000008958730A9F08830B9F08430D1F48091EE
:102A100080008F7D03C0809180008F77809380003D
:102A2000089584B58F7702C084B58F7D84BD0895E5
:102A30008091B0008F7703C08091B0008F7D80932C
:102A4000B00008953FB7F894809194039091950356
:102A5000A0919603B091970326B5A89B05C02F3F80
:102A600019F00196A11DB11D3FBFBA2FA92F982FB4
:102A70008827820F911DA11DB11DBC01CD0142E02F
:102A8000660F771F881F991F4A95D1F70895CF9237
:102A9000DF92EF92FF920F931F93CF93DF936B011F
:102AA000770FEE08FF08F7FE1BC0EC016DE20E94F5
:102AB000EE1B8C0144275527BA014C195D096E099C
:102AC0007F092AE0CE010E946A1B800F911FDF91CF
:102AD000CF911F910F91FF90EF90DF90CF900895CD
:102AE0002AE0B701A601DF91CF911F910F91FF90CE
:102AF000EF90DF90CF900C946A1B0F931F93CF93AE
:102B0000DF93EC010E9447158C01CE010E94B31B9C
:102B1000800F911FDF91CF911F910F910895CF9357
:102B2000DF93AB01BC012AE088E993E00E946A1BB5
:102B3000EC0188E993E00E94B31B8C0F9D1FDF918D
:102B4000CF9108959B01482F50E060E070E088E944
:102B500093E00C94C91BCF93DF936AE070E00E946E
:102B6000A215EC0188E993E00E94B31B8C0F9D1F16
:102B7000DF91CF910895CF92DF92EF92FF926B0198
:102B80007C01E091A803F091A90382E08083C11445
:102B900081EED806E104F104B1F060E079E08DE364
:102BA00090E0A70196010E942733DA01C90101973D
:102BB000A109B109B695A795979587959C0121150F
:102BC00080E13807B8F0E091A803F091A9031082E2
:102BD00060E874E88EE190E0A70196010E94273337
:102BE000DA01C9010197A109B109B695A795979591
:102BF00087959C01E091A403F091A5033083E091B7
:102C0000A603F091A70320831092B003E091AC03D8
:102C1000F091AD0386E08083E091AA03F091AB03CD
:102C2000808180618083E091AA03F091AB03808171
:102C300088608083E091AA03F091AB038081806873
:102C40008083E091AA03F091AB0380818F7D808324
:102C5000FF90EF90DF90CF900895CF93DF93EC013A
:102C60009A01AB011B8E1A8E198E188E1F8A1E8A2E
:102C700060E079E08DE390E00E94AE33F90124300A
:102C8000310518F0C901039702C081E090E09D8FE3
:102C90008C8F6C85663108F06AC0C901969587955E
:102CA0008431910510F0439702C081E090E09F8B42
:102CB0008E8B369718F0C901059702C081E090E02D
:102CC000998F888FC901880F991F280F391F369552
:102CD0002795369527952D30310518F02C50310960
:102CE00002C021E030E03B8F2A8F309168006830CD
:102CF00058F021E06E3008F420E091E0892F01C007
:102D0000880F2A95EAF701C084E0832B809368003E
:102D10009C85983038F09E3040F0963148F020E0A5
:102D200030E008C02DE630E005C02BE630E002C000
:102D30002CE630E03C8B2B8B983030F481E001C0E6
:102D4000880F9A95EAF70EC0292F30E09E3018F4CC
:102D50002850310902C02E50310981E001C0880F8E
:102D60002A95EAF78D8B8C8D9D8D0197F1F7CE0119
:102D7000DF91CF910C94FF1CCF92DF92EF92FF92E4
:102D8000CF93DF936B017C0197FF15C06DE288E95B
:102D900093E00E94EE1BEC0144275527BA014C1921
:102DA0005D096E097F092AE088E993E00E946A1BA9
:102DB000C80FD91F08C02AE0AB01BC0188E993E025
:102DC0000E946A1BEC0188E993E00E94B31B8C0F00
:102DD0009D1FDF91CF91FF90EF90DF90CF900895EE
:102DE000CF93DF93282F30E0F901E75CFF4E849109
:102DF000F901EB58FF4ED491F901EF59FF4EC49100
:102E0000CC2391F081110E94F914EC2FF0E0EE0F29
:102E1000FF1FE35BFF4EA591B491EC91ED2381E0A0
:102E200090E021F480E002C080E090E0DF91CF915B
:102E300008951F93CF93DF93282F30E0F901E75CCB
:102E4000FF4E8491F901EB58FF4ED491F901EF59EF
:102E5000FF4EC491CC23C1F0162F81110E94F914AA
:102E6000EC2FF0E0EE0FFF1FE95AFF4EA591B49151
:102E70009FB7F894111104C08C91D095D82302C04B
:102E8000EC91DE2BDC939FBFDF91CF911F910895D2
:102E9000CF93DF9390E0FC01EB58FF4E2491FC01AF
:102EA000EF59FF4E8491882361F190E0880F991FBC
:102EB000FC01E15DFF4EC591D491FC01E95AFF4E42
:102EC000A591B491611109C09FB7F89488812095AC
:102ED00082238883EC912E230BC0623061F49FB76C
:102EE000F8948881322F309583238883EC912E2BA0
:102EF0002C939FBF06C08FB7F894E8812E2B2883B0
:102F00008FBFDF91CF910895EF92FF920F931F93A0
:102F1000CF93DF93EC018B018FE694E00E94781E43
:102F2000892B31F063EF71E188E993E00E94F71B90
:102F30008FE694E00E94781E892B39F0F8016081B9
:102F4000718188E993E00E947D158FE694E00E94EC
:102F5000781E9E012E5E3F4F7901892B71F06AEC3D
:102F600071E188E993E00E941B1CB701CE010E9429
:102F7000CB14B801CE010E94CB1488859985892B8A
:102F800059F4B801CE010E94BD14AC01B701C801CB
:102F90000E940D35892BF1F18FE694E00E94781E96
:102FA000892B71F062EA71E188E993E00E941B1CB1
:102FB000B701CE010E94CB14B801CE010E94CB1400
:102FC00061E088810E9448171B821A821D821C8240
:102FD0001F821E8219861886D801F701CE01CA9673
:102FE0002D913D9121933193E817F907C9F781E0BD
:102FF00090E09F838E832A893B891216130614F46E
:103000009B838A838A859B85AC85BD858E879F87B8
:10301000A88BB98BDF91CF911F910F91FF90EF900B
:1030200008950F931F93CF93DF93EC01162F042F76
:103030001B821A8288EE93E0A0E0B0E08C839D832F
:10304000AE83BF838CE491E0998388831F8A1E8AB4
:10305000198E188E1B8E1A8E1D8E1C8E6E8D6E7F95
:103060006D7F6E8F6695617081E06827842F0E9466
:10307000191761E0802F0E944817802F90E0FC0113
:10308000EB58FF4EE491E88BFC01EF59FF4EE491C1
:10309000F0E0EE0FFF1FE95AFF4E859194919A8B55
:1030A000898B60E0812F0E9448178E8D81FD04C0BE
:1030B00061E0812F0E9419171C87812F90E0FC018D
:1030C000EB58FF4EE491ED87FC01EF59FF4EE49180
:1030D000F0E0EE0FFF1FE35BFF4E859194919F8719
:1030E0008E87DF91CF911F910F9108958F929F92BC
:1030F000AF92BF92CF92DF92EF92FF926B017C0171
:103100000E9422154B015C01C114D104E104F104B9
:10311000F1F00E942215DC01CB0188199909AA0956
:10312000BB09883E9340A105B10570F321E0C21AA6
:10313000D108E108F10888EE880E83E0981EA11CF2
:10314000B11CC114D104E104F10419F7DDCFFF90E3
:10315000EF90DF90CF90BF90AF909F908F900895A9
:103160002FB7F8946091900370919103809192032E
:10317000909193032FBF0895EF92FF920F931F93A7
:10318000CF93DF9300D000D0CDB7DEB785E394E0D6
:103190000E94851D40E150E061E173E085E394E029
:1031A0000E94EA3265E871E188E993E00E94F71B2A
:1031B00085E394E00E94721D40E150E0BC0188E983
:1031C00093E00E94D61B68E771E188E993E00E94D2
:1031D000F71B6CEB72E088E993E00E947D1505E433
:1031E00014E09DE6E92E94E0F92EF8014191519109
:1031F000619171918F012AE030E088E993E00E94AB
:10320000C91B65EE71E088E993E00E94F51BE016AA
:10321000F10659F788E993E00E94B31B62E671E179
:1032200088E993E00E941B1C8CEB92E00E94571DE2
:103230008C0185E394E00E94721D9C838B8360E582
:1032400071E188E993E00E94F71B65E374E088E987
:1032500093E00E94F51B62E471E188E993E00E942B
:10326000F71B6EEB72E088E993E00E94471565E278
:1032700071E188E993E00E94F71B40E150E0B8015A
:1032800088E993E00E94D61B61E271E188E993E04E
:103290000E94F71B6B817C8140E150E088E993E05C
:1032A0000E94D61B65E171E188E993E00E94F71B5B
:1032B0004AE050E06AE370E088E993E00E94DC1B9A
:1032C0008B819C810817190729F16DED70E188E960
:1032D00093E00E941B1CBE016D5F7F4F8CEB92E060
:1032E0000E94301D85E3E82E84E0F82E0EEB12E0FC
:1032F000F70161917F011A830983CE0101960E9433
:1033000063210F5F1F4F083FF2E01F0789F769EC49
:1033100070E108C06DE970E188E993E00E941B1C30
:1033200069E870E188E993E00E941B1C0F900F9000
:103330000F900F90DF91CF911F910F91FF90EF9021
:103340000895CF92DF92EF92FF920F931F93CF9346
:10335000DF936C017A018B01C0E0D0E0CE15DF0570
:1033600081F0D8016D918D01D601ED91FC91019014
:10337000F081E02DC6010995892B11F02196EECF41
:103380007E01C701DF91CF911F910F91FF90EF90C8
:10339000DF90CF900895FC01538D448D252F30E0B0
:1033A000842F90E0821B930B541710F0CF96089552
:1033B00001970895FC01918D828D981761F0828D9F
:1033C000DF01A80FB11D5D968C91928D9F5F9F7359
:1033D000928F90E008958FEF9FEF0895FC01918DFB
:1033E000828D981731F0828DE80FF11D858D90E068
:1033F00008958FEF9FEF0895FC01918D228D892F05
:1034000090E0805C9F4F821B91098F7399270895EC
:1034100088E993E00E94FC1921E0892B09F420E05F
:10342000822F0895FC01848DDF01A80FB11DA35ADE
:10343000BF4F2C91848D90E001968F739927848FD4
:10344000A689B7892C93A089B1898C9183708064F7
:103450008C93938D848D981306C00288F389E02D98
:1034600080818F7D80830895EF92FF920F931F9349
:10347000CF93DF93EC0181E0888F9B8D8C8D981327
:1034800005C0E889F989808185FD26C0F62E0B8D5F
:1034900010E00F5F1F4F0F731127E02E8C8DE81285
:1034A0000CC00FB607FCFACFE889F989808185FF47
:1034B000F5CFCE010E94121AF1CF8B8DFE01E80FDD
:1034C000F11DE35AFF4FF0829FB7F8940B8FEA8902
:1034D000FB89808180620AC09FB7F894EE89FF89DA
:1034E0006083E889F98980818370806480839FBFCD
:1034F00081E090E0DF91CF911F910F91FF90EF90CD
:103500000895CF93DF93EC01888D8823C9F0EA8971
:10351000FB89808185FD05C0A889B9898C9186FDCC
:103520000FC00FB607FCF5CF808185FFF2CFA889C9
:10353000B9898C9185FFEDCFCE010E94121AE7CF99
:10354000DF91CF91089580E090E0892B29F00E94CF
:10355000081A81110C940000089520918003309185
:1035600081032817390771F490912505809124056E
:10357000981741F0E0912505F0E0EC51FB4F808178
:1035800090E008958FEF9FEF089508951F93CF93D4
:10359000DF93DC015C968D919C915D97009739F4E7
:1035A00021E030E013963C932E9312973BC0519646
:1035B000ED91FC91529750962C915097322F309567
:1035C0001FB75E964C915E97742F727041FD6095A7
:1035D000F8944081772311F0422B01C043234083AC
:1035E000EC012197F1F748E0508160FF02C0522BB7
:1035F00001C053235083EC012197F1F766954150A8
:1036000099F78081772319F08323808302C0282BC8
:1036100020831FBF5C968D919C915D970197F1F778
:1036200081E090E0DF91CF911F9108952091800378
:10363000309181032817390771F480912405209176
:10364000250590E0805C9F4F821B910960E470E04B
:103650000E949A33089580E090E0089520918003BD
:103660003091810328173907B9F49091250580918D
:103670002405981789F0E0912505F0E0EC51FB4F07
:1036800080812091250530E02F5F3F4F2F73332736
:103690002093250590E008958FEF9FEF08950895FA
:1036A00080E090E008950E9408356115710579F079
:1036B000FB0101900020E9F73197AF01461B570B42
:1036C000DC01ED91FC910280F381E02D099480E012
:1036D00090E008958F929F92AF92BF92EF92FF92E7
:1036E0000F931F93CF93DF93CDB7DEB7A1970FB69C
:1036F000F894DEBF0FBECDBF7C01FA01CB0119A249
:10370000223008F42AE08E010F5D1F4F822E912C8B
:10371000A12CB12CBF01A50194010E942733F9010E
:10372000CA01015011096A3014F4605D01C0695C7E
:10373000D8016C93232B242B252B61F7B801C701EB
:103740000E94551BA1960FB6F894DEBF0FBECDBFE9
:10375000DF91CF911F910F91FF90EF90BF90AF90AD
:103760009F908F9008956CE173E00C94551B0F931C
:103770001F93CF93DF93EC010E94551B8C01CE0168
:103780000E94B31B800F911FDF91CF911F910F916A
:1037900008952115310541F4DC01ED91FC91019072
:1037A000F081E02D642F09940C946A1B9A01AB01FF
:1037B00060E070E00C94C91B0F931F93CF93DF93CD
:1037C000EC010E94D61B8C01CE010E94B31B800F1E
:1037D000911FDF91CF911F910F910895DC01ED9121
:1037E000FC910190F081E02D09940C94551BEF920F
:1037F000FF920F931F93CF93DF938C017B01C0E067
:10380000D0E0F701EC0FFD1F6491662361F0D80151
:10381000ED91FC910190F081E02DC8010995892B73
:1038200011F02196EECFCE01DF91CF911F910F9134
:10383000FF90EF9008950F931F93CF93DF93EC01C8
:103840000E94F71B8C01CE010E94B31B800F911FB9
:10385000DF91CF911F910F9108951F920F920FB694
:103860000F9211242F933F934F935F936F937F9306
:103870008F939F93AF93BF93EF93FF9388E993E068
:103880000E94121AFF91EF91BF91AF919F918F917A
:103890007F916F915F914F913F912F910F900FBE4C
:1038A0000F901F9018951F920F920FB60F92112430
:1038B0002F938F939F93EF93FF93E091A803F09141
:1038C000A9038081E091AE03F091AF0382FD12C0A5
:1038D00090818091B1038F5F8F732091B203821723
:1038E00051F0E091B103F0E0E856FC4F958F8093E2
:1038F000B10301C08081FF91EF919F918F912F9132
:103900000F900FBE0F901F9018951F920F920FB639
:103910000F9211242F933F934F935F936F937F9355
:103920008F939F93AF93BF93EF93FF93E0918003A7
:10393000F0918103309709F451C0968DA685B78523
:10394000858591FF04C09C91892329F447C09C91EF
:10395000892309F043C0A389B4899C918589809506
:1039600089238C93868997890197F1F7608D718DF2
:10397000A685B785558538E020E0CB010197F1F7A2
:10398000822F90E095958795282F4C91452309F03B
:103990002068315091F7868D81FD20958091240516
:1039A00090E001968F73992730912505381749F0DB
:1039B000A0912405B0E0AC51BB4F2C93809324051B
:1039C00003C0868D8160868F828D938D0197F1F77C
:1039D000A389B4899C918589892B8C93FF91EF9160
:1039E000BF91AF919F918F917F916F915F914F9117
:1039F0003F912F910F900FBE0F901F901895CF936E
:103A0000DF93FC01828D938D892B31F1A09180038E
:103A1000B0918103EA17FB07F9F0109751F0539624
:103A2000CD91DC915497988155968C9180958923FE
:103A30008883868D8E7F868F1092240510922505AF
:103A4000F0938103E0938003A389B4899C918589D5
:103A5000892B8C9381E001C080E0DF91CF910895A4
:103A6000EF92FF920F931F93CF93DF9300D0CDB7C8
:103A7000DEB78C017B01FB0160819A838983CE01D3
:103A800001960E946321F70161810F5F1F4F1A8326
:103A90000983CE0101960E946321C7010F900F9008
:103AA000DF91CF911F910F91FF90EF9008950F93A9
:103AB0001F93CF93DF9300D0CDB7DEB78C011A826E
:103AC00019820E9401338983C80101960E94013343
:103AD0008A8389819A810F900F90DF91CF911F91F6
:103AE0000F910895FC01AC01465C5F4F80E090E0CF
:103AF000208130E0322F22276181262B82279327D5
:103B000032964E175F07A1F70895CF92DF92EF929A
:103B1000FF9220E030E04FEF5FEFD901AA0FBB1F0B
:103B2000AA0FBB1FA80FB91F5096CD90DD90ED9046
:103B3000FC905397C114D104E104F10431F44F3FD8
:103B40006FEF5607F1F4A9011CC021153105C9F02A
:103B50004F3F6FEF5607A9F0FA013496EE0FFF1FA3
:103B6000EE0FFF1FE80FF91FC082D182E282F382BD
:103B700050961D921D921D921C9253979A014FEFE1
:103B80005FEF2F5F3F4F2A3031053CF2FF90EF90FF
:103B9000DF90CF900895EF92FF920F931F93CF93F2
:103BA000DF9300D000D0CDB7DEB78C0168EE72E1B4
:103BB00088E993E00E941B1C80E293E00E94571D5D
:103BC0007C01C8010E947C219C838B8366ED72E19D
:103BD00088E993E00E94F71BB80188E993E00E940E
:103BE000F51B68EC72E188E993E00E94F71B62E242
:103BF00073E088E993E00E9447156BEA72E188E977
:103C000093E00E94F71B40E150E0B70188E993E0A0
:103C10000E94D61B67EA72E188E993E00E94F71BD5
:103C20006B817C8140E150E088E993E00E94D61BE3
:103C30006BE972E188E993E00E94F71B4AE050E0EB
:103C400063E770E088E993E00E94DC1B8B819C8134
:103C5000E816F90641F163E672E188E993E00E9413
:103C60001B1CBE016D5F7F4F80E293E00E94301D00
:103C7000780102E213E0F70161917F011A83098361
:103C8000CE0101960E9463210F5F1F4F0539F3E0BB
:103C90001F0789F76FE472E188E993E00E941B1C1B
:103CA00000E010E00EC063E272E188E993E00E9458
:103CB0001B1C6FE072E188E993E00E941B1C01E08D
:103CC00010E06EEF72E188E993E00E94F71BB80103
:103CD00088E993E00E947D15C8010F900F900F9026
:103CE0000F90DF91CF911F910F91FF90EF9008956A
:103CF000CF93DF93EC01FC01E959FF4F80810E94D3
:103D0000F016892B59F0C95BDF4F81E090E02881E4
:103D100039812130310521F080E002C081E090E05E
:103D2000DF91CF910895CF93DF93EC012D9640E181
:103D300050E0CE010E94EA328FE694E00E94781EA5
:103D4000892B31F069E474E188E993E00E94F71B64
:103D50008FE694E00E94781E892B39F0BE0188E935
:103D600093E0DF91CF910C94B71BDF91CF91089531
:103D7000AF92BF92CF92DF92EF92FF920F931F9379
:103D8000CF93DF93EC015B016A0189017B0181E044
:103D9000E81AF108F701EE0FFF1FE55DFA4E659195
:103DA0007491CA010E94E3328FE694E00E94781E6B
:103DB000892B31F06DE075E188E993E00E94F71BF3
:103DC0008FE694E00E94781E892B29F0B50188E9DE
:103DD00093E00E9447158FE694E00E94781E892B9D
:103DE00031F066E072E088E993E00E94F51B8FE60F
:103DF00094E00E94781E892B29F0B60188E993E0AF
:103E00000E94F51B91E1E916F10408F00BC1F701DE
:103E1000E45BFF4F0C94CD338BA98F938AA98F93CA
:103E200089A98F9388A98F938FEF91E09F938F93A8
:103E30001F930F930E9433358DB79EB708960FB628
:103E4000F8949EBF0FBE8DBFEDC08FA98F938EA932
:103E50008F938DA98F938CA98F938FEF91E09F9370
:103E60008F931F930F930E9433358DB79EB708969B
:103E70000FB6F8949EBF0FBE8DBFD4C08BAD8F938D
:103E80008AAD8F9389AD8F9388AD8F938FEF91E03B
:103E90009F938F931F930F930E9433358DB79EB7D7
:103EA00008960FB6F8949EBF0FBE8DBFBBC08FADF6
:103EB0008F938EAD8F938DAD8F938CAD8F938FEF4E
:103EC00091E09F938F931F930F930E9433358DB78B
:103ED0009EB708960FB6F8949EBF0FBE8DBFA2C0C6
:103EE000C05CDF4F88811F928F938FE193E08EC07B
:103EF000CF5BDF4F8B818F938A818F9389818F93E3
:103F000088818F938FEF91E09F938F931F930F93EF
:103F10000E9433358DB79EB708960FB6F8949EBFB2
:103F20000FBE8DBF7FC0CB5BDF4F6AC0C95BDF4F69
:103F300067C0BE01675B7F4F06C0C55ADF4F60C0D8
:103F4000BE01635A7F4FC8010E942C356BC0CF5908
:103F5000DF4F56C0CD59DF4F8B818F938A818F936E
:103F600089818F9388818F9385E293E09F938F93CC
:103F70001F930F930E9433358DB79EB708960FB6E7
:103F8000F8949EBF0FBE8DBF4DC0C959DF4F38C0DA
:103F9000C759DF4F8B818F938A818F9389818F934C
:103FA00088818F9385E293E09F938F931F930F9364
:103FB0000E9433358DB79EB708960FB6F8949EBF12
:103FC0000FBE8DBF2FC0C359DF4F8B818F938A8166
:103FD0008F9389818F9388818F9385E293E09F935C
:103FE0008F931F930F930E9433358DB79EB708961A
:103FF0000FB6F8949EBF0FBE8DBF14C0CF58DF4FD1
:1040000089818F9388818F9382E293E09F938F932E
:104010001F930F930E9433350F900F900F900F90C6
:104020000F900F908FE694E00E94781E892B31F05C
:1040300066E072E088E993E00E94F51B8FE694E069
:104040000E94781E892B79F0B80188E993E0DF910E
:10405000CF911F910F91FF90EF90DF90CF90BF9085
:10406000AF900C94B71BDF91CF911F910F91FF90F0
:10407000EF90DF90CF90BF90AF900895AF92BF9236
:10408000CF92DF92EF92FF920F931F93CF93DF9324
:10409000CDB7DEB7E0970FB6F894DEBF0FBECDBF49
:1040A000B62EA72E6A018E010F5D1F4F9801AE013B
:1040B0004F5F5F4F7A010E94B81E1F930F93FF92CC
:1040C000EF92AF92BF9289E293E09F938F93DF923A
:1040D000CF920E9433358FE694E00E94781E0FB68F
:1040E000F894DEBF0FBECDBF892B31F064E775E1D8
:1040F00088E993E00E94F71B8FE694E00E94781E07
:10410000892B29F0B70188E993E00E94F51B8FE61F
:1041100094E00E94781E892B31F066E072E088E915
:1041200093E00E94F51B8FE694E00E94781E892B95
:1041300029F0B80188E993E00E94B71B8FE694E06C
:104140000E94781E892B31F06DE475E188E993E0D7
:104150000E94F71B8FE694E00E94781E892B29F0BD
:10416000B60188E993E00E94B71BE0960FB6F89479
:10417000DEBF0FBECDBFDF91CF911F910F91FF909A
:10418000EF90DF90CF90BF90AF900895CF93DF93E3
:10419000EC0140E150E066ED72E00E94EA3281E11C
:1041A000EEE6F1E0DE01509601900D928A95E1F77E
:1041B000FE01B1968FE0DF011D928A95E9F78FE04D
:1041C00090E0A0E0B0E088AB99ABAAABBBAB88EEC7
:1041D00093E0A0E0B0E08CAB9DABAEABBFAB86E9AB
:1041E00090E0A0E0B0E088AF99AFAAAFBBAF85E0A8
:1041F00090E0A0E0B0E08CAF9DAFAEAFBFAF7F96D8
:10420000808331968CE390E0A0E0B0E080839183DE
:10421000A283B383369611821082CE01875B9F4FB3
:1042200027E0EEE8F1E0DC0101900D922A95E1F73C
:10423000FC01379629E0DF011D922A95E9F73996AE
:1042400081E090E091838083329628E030E03183F2
:104250002083329640919E0150919F016091A00170
:104260007091A1014083518362837383349624E06B
:1042700030E031832083329640E051EE60E070E020
:10428000408351836283738334962BE030E0318323
:104290002083329640E855E260E070E0408351832D
:1042A000628373833496408351836283738334962D
:1042B0002DE030E031832083CB5BDF4F998388830F
:1042C000DF91CF910895FF920F931F93CF93DF93C8
:1042D000EC01F62E08811981C8010E940133F816FD
:1042E00021F06F2DC8010E940933CE01DF91CF91DB
:1042F0001F910F91FF900895FC0160E070E080E055
:1043000090E0208130E0522F44276237710519F088
:10431000218130E002C020E030E0242B352B8227C1
:1043200093276E5F7F4F32966437710551F708957A
:10433000EF92FF920F931F93CF93DF93EC017A01DB
:1043400089016C3619F463E172E004C0633629F424
:104350006EE072E0CE010E94931EF80180818823F6
:10436000F1F08FE694E00E94781E892B31F06AE527
:1043700074E188E993E00E94F71B8FE694E00E94C5
:10438000781E892B29F0B80188E993E00E94B71BB9
:1043900048E150E0B801CE01C7960E94EA32F70129
:1043A0008081882359F0B701888199810E94F51B8B
:1043B00067E072E0888199810E94F51B67E373E0F2
:1043C00088819981DF91CF911F910F91FF90EF909C
:1043D0000C94F51BBF92CF92DF92EF92FF920F9356
:1043E0001F93CF93DF93CDB7DEB7E0970FB6F89466
:1043F000DEBF0FBECDBF8C01FC01E15BFF4F8FEF35
:104400009FEF918380836AEF74E1F801808191814D
:104410000E94F71B8FE694E00E947C2140E150E06F
:10442000BC01F801808191810E94D61B62EF74E18A
:10443000F801808191810E94F71B4AE050E063E718
:1044400070E0F801808191810E94DC1BEE24E394EE
:10445000F12C90E3B92ECE0101966C01F6018B2D63
:1044600011928A95E9F7A601B7018FE694E00E94C0
:104470003E20B601F801808191810E94B71BFFEFB9
:10448000EF1AFF0A82E1E816F10441F7F801808192
:1044900091810E94B31B20E932E04AE353E06CE6CD
:1044A000C8010E949821E0960FB6F894DEBF0FBEB7
:1044B000CDBFDF91CF911F910F91FF90EF90DF90D3
:1044C000CF90BF900895CF93DF93EC0163ED74E13B
:1044D000888199810E941B1C6BEC74E18881998111
:1044E0000E941B1C6EEB74E1888199810E941B1C49
:1044F00063EB74E1888199810E941B1C65EA74E179
:10450000888199810E941B1C61E974E188819981ED
:104510000E941B1C65E874E1888199810E941B1C24
:1045200062E774E1888199810E941B1C6EE173E04F
:10453000888199810E94B71B26E232E043E553E06F
:104540006CE6CE01DF91CF910C949821FC017D9611
:1045500028E1DF011D922A95E9F7FC0116AA15AAA8
:104560000895FC0125A936A9232B49F4258D12169F
:1045700034F4C7960E94233521E0892B09F020E00E
:10458000822F0895CF92DF92EF92FF92CF93DF9325
:10459000EC016A017B0189859A85AB85BC8584170E
:1045A0009507A607B70751F06AE274E188E993E03E
:1045B0000E94F71BC701B6010E948F15C986DA86D3
:1045C000EB86FC8681E090E09093850380938403E2
:1045D0000E94B0186D837E838F839887DF91CF917F
:1045E000FF90EF90DF90CF900895EF92FF920F939E
:1045F0001F93CF93DF93EC0163EE74E1888199817F
:104600000E94F71B8CEB92E00E94571D40E150E0A6
:10461000BC01888199810E94D61B6BED74E1888171
:1046200099810E94F71B4AE050E06AE370E08881BC
:1046300099810E94DC1B85E3E82E84E0F82E00E0DF
:1046400010E0F70180899189A289B389892B8A2B8F
:104650008B2BE1F0B801888199810E94471568EDA4
:1046600074E1888199810E94F71BF7014089518983
:10467000628973892AE030E0888199810E94C91B90
:104680006EE173E0888199810E94B71B0F5F1F4F15
:10469000F4E0EF0EF11C0A30110599F66EE173E0BB
:1046A000888199810E94B71B26E232E046E653E0FA
:1046B00060E0CE01DF91CF911F910F91FF90EF90BD
:1046C0000C9498211F920F920FB60F9211242F93E2
:1046D0003F938F939F93AF93BF938091900390915B
:1046E0009103A0919203B09193033091260523E0AA
:1046F000230F2D3720F40196A11DB11D05C026E81A
:10470000230F0296A11DB11D2093260580939003CF
:1047100090939103A0939203B09393038091940399
:1047200090919503A0919603B09197030196A11DD6
:10473000B11D8093940390939503A0939603B09337
:104740009703BF91AF919F918F913F912F910F90C0
:104750000FBE0F901F901895CF93DF93CDB7DEB7A4
:10476000C357D1090FB6F894DEBF0FBECDBF789402
:1047700084B5826084BD84B5816084BD85B5826066
:1047800085BD85B5816085BD80916E008160809317
:104790006E00109281008091810082608093810080
:1047A0008091810081608093810080918000816090
:1047B000809380008091B10084608093B1008091EB
:1047C000B00081608093B00080917A008460809313
:1047D0007A0080917A00826080937A0080917A00DA
:1047E000816080937A0080917A00806880937A005B
:1047F0001092C10060E071EE80E090E00E94BB1575
:104800006FE070E080E090E00E94761868E575E067
:1048100088E993E00E941B1C63E772E088E993E05B
:104820000E941B1C6CE671E088E993E00E941B1C4F
:1048300080E293E00E94571D9A8389839FE6E92EC8
:1048400094E0F92E02E213E0C8010E940133D7017F
:104850008D937D010F5F1F4F0539B3E01B07A1F753
:104860008FE694E00E947C218C016CE571E088E980
:1048700093E00E94F71B60E273E088E993E00E94F6
:104880007D156DE471E088E993E00E94F71B62E01A
:1048900070E088E993E00E947D156CE371E088E99F
:1048A00093E00E94F71B69817A8140E150E088E93A
:1048B00093E00E94DC1B6BE271E088E993E00E94C8
:1048C000F71B40E150E0B80188E993E00E94DC1B4F
:1048D00060E171E088E993E00E94F71B6FE674E005
:1048E00088E993E00E94F51B62EA71E088E993E0B1
:1048F0000E94B71B6BEF70E088E993E00E94F71B02
:104900004AE050E063E770E088E993E00E94DC1B36
:1049100060EF70E088E993E00E94F71B4AE050E006
:1049200063E770E088E993E00E94DC1B89819A814B
:10493000FE0131967F010817190769F06EEC70E0EF
:1049400088E993E00E941B1C1A821982B70180E259
:1049500093E00E94301D6AEB70E088E993E00E94CA
:104960001B1C8FE694E00E947C218C016BE472E0BA
:1049700088E993E00E94F71B6FE674E088E993E012
:104980000E94F51B69E372E088E993E00E94F71B3F
:104990006FE774E088E993E00E94F51B69E272E03A
:1049A00088E993E00E94F71B40E150E0B80188E9F4
:1049B00093E00E94DC1B80E293E00E94571D0817E1
:1049C000190701F16AEE71E088E993E00E941B1C6F
:1049D000C7010E94C62083E7F701AFE6B4E001906B
:1049E0000D928A95E1F740E250E064EA71E08FE7CA
:1049F00094E00E94EA328FE694E00E94CB1D60ECC6
:104A000071E002C067E971E088E993E00E94F71B5A
:104A10006FE774E088E993E00E94F51B62EA71E0B9
:104A200088E993E00E94B71B62E871E088E993E0AF
:104A30000E941B1C88E993E00E94811A6091D204B5
:104A40007091D3048091D4049091D5040E94BB1539
:104A50006FE070E080E090E00E94761866E275E01A
:104A600088E993E00E94F71B6091D2047091D3040F
:104A70008091D4049091D5040E94BC1664E175E045
:104A800088E993E00E94F71B6FE774E088E993E000
:104A90000E94F51B69E075E088E993E00E94F71B2E
:104AA0004AE050E063E770E088E993E00E94DC1B95
:104AB0006EEE74E088E993E00E94F71B6BEB71E007
:104AC00088E993E00E94F51B6BEE74E088E993E0BF
:104AD0000E94F71B69EC71E088E993E00E94B71B24
:104AE00062E08091D6040E9448178091D6040E940B
:104AF000F0168C0168ED74E088E993E00E94F71BE2
:104B0000B80188E993E00E947D15012B61F467EB01
:104B100074E088E993E00E941B1C81E090E0909390
:104B2000B7048093B6048AE390E00E94E7336C01F7
:104B30008091CA049091CB04D60111969C938E93D8
:104B400013961C921E92129715961C921E92149701
:104B500017961C921E92169719961C921E921897E1
:104B60000E94B018F601628773878487958716863E
:104B70001786108A118A729688E2DF011D928A9543
:104B8000E9F7D0928F03C0928E038FE190E00E94EC
:104B9000E7338C014091CE046091CC040E9411183F
:104BA000109387030093860385E590E00E94E73326
:104BB0008C0188E993E0F80191838083D801158204
:104BC000168217821086118612861386148685E057
:104BD000E6E0F1E01D9601900D928A95E1F7EBE099
:104BE0007E2EF8017296DF01272D1D922A95E9F796
:104BF000A8E18A2E3B96DF01282D1D922A95E9F720
:104C0000D801D6961C921E92D597D8961C921E92C9
:104C1000D797B6E19B2E7C96DF01292D1D922A9510
:104C2000E9F77696AA24AA94BA2CB182A082329689
:104C3000118210823296D182C08243E050E06FED43
:104C400071E0C80102960E94EA3210937F0300933C
:104C50007E0385E590E00E94E7338C0120918E036E
:104C600030918F038091860390918703D80111962C
:104C70009C938E93F80115821682178210861996DE
:104C80001D921D921D921C921C9785E0E6E0F1E0BA
:104C90001D9601900D928A95E1F7F8017296DF0159
:104CA0001D927A94E9F73B96DF011D928A94E9F709
:104CB000F80116AA15AA10AE17AAF996DF011D92DF
:104CC0009A94E9F77696B182A08232961182108288
:104CD00032963183208343E050E062EE71E0C801F8
:104CE00002960E94EA3210938903009388038FE1B1
:104CF00090E00E94E7336C014091CA046091D004B7
:104D00000E941118D0928D03C0928C038DE390E025
:104D10000E94E7338C01A0908E03B0908F0380E156
:104D2000F80111928A95E9F7D80150961C92509794
:104D300052961C921E9251970E94B018F801638BF4
:104D4000748B858B968B178A108E118E128E138E14
:104D5000148E158E168E178E10A211A212A213A2F7
:104D600014A215A216A217A210A611A612A613A687
:104D700014A615A616A617A610AA11AA12AA13AA57
:104D800014AA15AA16AAD0AEC7AAB2AEA1AE1093A5
:104D90008B0300938A038FE694E00E94781E892B90
:104DA00031F06AE872E088E993E00E941B1C88E217
:104DB000D7011D928A95E9F786ED91E09A83898360
:104DC0008EE190E09C838B83B701C5010E9484171C
:104DD0004091D8045091D9046091DA047091DB04B9
:104DE00080918603909187030E942D166EE972E0F0
:104DF00088E993E00E941B1C80917E0390917F03C1
:104E00000E940C1480918803909189030E940C14D5
:104E10004091DC045091DD046091DE047091DF0468
:104E200080918C0390918D030E942D1600918A032E
:104E300010918B0361E08091E0040E94481761E0CB
:104E40008091AF040E9448178091B4049091B504FA
:104E5000F801928B818B65E874E088E993E00E9409
:104E6000F71BD80151966D917C91529788E993E098
:104E70000E947D15F80161898091E0040E94191754
:104E800068EA73E088E993E00E941B1C64E673E023
:104E900088E993E00E941B1C8CEB92E00E94571D56
:104EA0009A83898365E3A62E64E0B62E7EEBC72E37
:104EB00072E0D72EC6010E940133D5018D935D01AA
:104EC000BFEFCB1ADB0AE8EFCE16E2E0DE0691F781
:104ED00085E394E00E94721D6C0164E573E088E94B
:104EE00093E00E94F71B6CEB72E088E993E00E946C
:104EF0007D1565E473E088E993E00E94F71B62E0AA
:104F000070E088E993E00E947D1564E373E088E92E
:104F100093E00E94F71B69817A8140E150E088E9C3
:104F200093E00E94DC1B63E273E088E993E00E9457
:104F3000F71B40E150E0B60188E993E00E94DC1BDA
:104F400068E073E088E993E00E94F71B65E374E092
:104F500088E993E00E94F51B62EA71E088E993E03A
:104F60000E94B71B63EF72E088E993E00E94F71B91
:104F70004AE050E06AE370E088E993E00E94DC1BBD
:104F800068EE72E088E993E00E94F71B4AE050E087
:104F90006AE370E088E993E00E94DC1B89819A81D2
:104FA000C816D90669F066EC72E088E993E00E94C1
:104FB0001B1C1A821982B7018CEB92E00E94301DF3
:104FC00062EB72E088E993E00E941B1C55E4C52E59
:104FD00054E0D52ED6014D915D916D917D916D017D
:104FE0002AE030E088E993E00E94C91B65EE71E099
:104FF00088E993E00E94F51BBDE6CB16B4E0DB0622
:1050000049F788E993E00E94B31B8CEB92E00E9481
:10501000571D6C0185E394E00E94721D8C159D055F
:1050200031F06BE873E088E993E00E941B1C85E394
:1050300094E00E94851D6AE773E088E993E00E948E
:105040001B1C65ED73E088E993E00E941B1C86E160
:1050500090E00E94E7336C0126E2A22E21E0B22EFE
:10506000FC01B182A0828EE0828B33E0832E838AA2
:105070004AE0942E948A77247394758A40E150E034
:1050800067EE71E0C60102960E94EA326BEB73E0B4
:1050900088E993E00E94F71B67EE71E088E993E0EE
:1050A0000E94B71B8AE191E0D6018D939C93E09119
:1050B000E204F091E304D182C08286E190E00E9494
:1050C000E7336C01FC01B182A082928A84E0838B79
:1050D00087E0848B758A40E150E060EF71E0C601A3
:1050E00002960E94EA326BEB73E088E993E00E943B
:1050F000F71B60EF71E088E993E00E94B71B80E244
:1051000091E0D6018D939C93E091E204F091E30449
:10511000D382C28286E190E00E94E7336C01FC01F9
:10512000B182A0828DE0828B838A948A158A40E1C5
:1051300050E066EF71E0C60102960E94EA326BEB26
:1051400073E088E993E00E94F71B66EF71E088E95D
:1051500093E00E94B71B8CE291E0D6018D939C9363
:10516000E091E204F091E304D582C4828FE694E0FA
:105170000E94781E892B31F061E374E088E993E0A6
:105180000E94F71B8FE694E00E94781E892B31F075
:1051900068EB74E088E993E00E94B71BC090E204DA
:1051A000D090E3044601B6E08B0E911CF6016190AD
:1051B00071906F015301F2E0AF0EB11CB50188EBA5
:1051C00094E00E942335892BB1F08C149D0471F773
:1051D0008FE694E00E94781E892B31F063E074E042
:1051E00088E993E00E941B1CE091E204F091E30443
:1051F0009081818119C08FE694E00E94781E892BEE
:1052000031F06AE174E088E993E00E94F71B8FE6D1
:1052100094E00E94781E892B29F0B50188E993E07B
:105220000E94B71B962D872DD801DB969C93DB97A8
:10523000DC968C936FE674E088E993E00E94F71B9C
:10524000F80163AD74AD6E5F7F4F88E993E00E9413
:10525000F51B60E574E088E993E00E94F71BD80134
:1052600051966D917C91529788E993E00E947D154B
:10527000D801DB96ED91FC91DC97658981E0682788
:105280008091AF040E94191762E370E080E090E023
:105290000E947618D801DB96ED91FC91DC97658928
:1052A0008091AF040E94191788E993E00E94B31B14
:1052B00001E010E090E3D92EF7012D2D11922A95EF
:1052C000E9F7A701B8018FE694E00E943E20B701FC
:1052D00088E993E00E94B71B0F5F1F4F0231110551
:1052E00059F7AE014F5F5F4F1A0100918E03109185
:1052F0008F030E94B0184B015C01D8011A966D9380
:105300007D938D939C931D971496CD90DC9015976B
:105310007601EE0CFF1CE00EF11E1E968D919D9104
:105320000D90BC91A02DB501A401481B590B6A0B2F
:105330007B0BF70182899389092E000CAA0BBB0B0A
:10534000481759076A077B0708F45FC0B8016E5E0B
:105350007F4FC8010E94BD140197C816D9063CF1C1
:10536000D80115961C921E92149716968D919C91B9
:105370001797019617969C938E93169752968D9138
:105380009C915397181619063CF4E1E0F0E013964F
:10539000FC93EE93129705C0D80113961C921E92AF
:1053A0001297F80186869786A08AB18A2EC0C60118
:1053B0000196D80115969C938E931497892B49F4E6
:1053C00016968D919C911797019617969C938E93A4
:1053D0001697F701848995891816190664F4C60191
:1053E000029662E070E00E949A33D80113969C9373
:1053F0008E93129703C0F80113821282D8011E9671
:105400008D929D92AD92BC925197F80162818081FC
:105410000E9419178091840390918503181619062C
:105420000CF058C0809182039091830300917E0319
:1054300010917F03009719F080179107A9F4F801E4
:10544000EF5AFF4F80819181892B29F069E170E04B
:1054500080E090E004C061E070E080E090E00E94B5
:105460007618C8010E94FF0D8091820390918303FA
:105470000091880310918903009719F08017910714
:1054800049F5D801ED90FC90C7010E94FF1C809166
:10549000800390918103E816F90639F06FE070E01F
:1054A00080E090E00E947618F2CFF801EF5AFF4FAB
:1054B00080819181892B29F069E170E080E090E0A2
:1054C00004C061E070E080E090E00E947618C801BE
:1054D0000E94FF0D8091840390918503892B61F0D8
:1054E000E0918203F0918303EF5AFF4F8081918115
:1054F000181619060CF0F5C500918C0310918D0358
:10550000C8010E94FF1C80918003909181030817BD
:10551000190739F06FE070E080E090E00E947618A3
:10552000F2CFE0918203F0918303EF5AFF4F808125
:105530009181892B29F062E370E080E090E003C064
:1055400060E070E0CB010E94761800918A03109110
:105550008B038FE694E00E94781E892B31F061E482
:105560007AE088E993E00E94F71B0E94B018F801E6
:10557000638B748B858B968B8FE694E00E94781EEC
:10558000892B69F0D80153964D915D916D917C9175
:1055900056972AE030E088E993E00E94C91B8FE625
:1055A00094E00E94781E892B31F06CE37AE088E960
:1055B00093E00E941B1CF801C38CD48CE58CF68C04
:1055C0008091A7049091A804A091A904B091AA0485
:1055D000C80ED91EEA1EFB1EC7A6D0AAE1AAF2AACF
:1055E000278D30A141A152A1211531054105510559
:1055F00041F42091AB043091AC044091AD04509142
:10560000AE04A8EEB3E00E944933C60ED71EE81ED2
:10561000F91EF801C3AAD4AAE5AAF6AA8FE694E077
:105620000E94781E892B31F066E27AE088E993E0E7
:105630000E94F71B8FE694E00E94781E892B49F0A8
:10564000D8019F966D917D918D919C91D2970E94EA
:105650008F158FE694E00E94781E892B31F06FE061
:105660007AE088E993E00E94F71B8FE694E00E94BD
:10567000781E892B39F0F80163A974A985A996A928
:105680000E948F15C090A304D090A404E090A504BC
:10569000F090A6048091A7049091A804A091A90479
:1056A000B091AA04C80ED91EEA1EFB1E2091AB04BD
:1056B0003091AC044091AD045091AE04A8EEB3E03B
:1056C0000E944933C60ED71EE81EF91ED8019B96CC
:1056D000CD92DD92ED92FC929E978FE694E00E942F
:1056E000781E892B31F06CEF79E088E993E00E9415
:1056F000F71B8FE694E00E94781E892B39F0F801A1
:105700006789708D818D928D0E948F158FE694E050
:105710000E94781E892B31F06FED79E088E993E0E3
:105720000E94F71B8FE694E00E94781E892B49F0B7
:10573000D8015B966D917D918D919C915E970E94B1
:105740008F158FE694E00E94781E892B31F068EC6B
:1057500079E088E993E00E94F71B8FE694E00E94CD
:10576000781E892B89F0F80183899489A589B689E7
:10577000C788D08CE18CF28CBC01CD016C197D09FD
:105780008E099F090E948F158FE694E00E94781E73
:10579000892B31F068EA79E088E993E00E94F71BF1
:1057A0008FE694E00E94781E892B89F0F8018389A6
:1057B0009489A589B689C38CD48CE58CF68CBC0100
:1057C000CD016C197D098E099F090E948F158FE606
:1057D00094E00E94781E892B31F060E979E088E935
:1057E00093E00E94F71B8FE694E00E94781E892BBD
:1057F00049F0D8019B966D917D918D919C919E97DA
:105800000E948F158FE694E00E94781E892B31F05C
:1058100064E779E088E993E00E94F71B8FE694E063
:105820000E94781E892B71F020919F043091A00472
:105830004091A1045091A204A8EEB3E00E94493324
:105840000E948F158FE694E00E94781E892B31F01C
:1058500065E579E088E993E00E94F71B8FE694E024
:105860000E94781E892BA1F0F801678D70A181A19B
:1058700092A1611571058105910541F46091AB0418
:105880007091AC048091AD049091AE040E948F158C
:105890008FE694E00E94781E892B31F068E479E06D
:1058A00088E993E00E94F71B8FE694E00E94781E3F
:1058B000892BD1F0D8015F962D913D914D915C914E
:1058C0009297211531054105510541F42091AB0412
:1058D0003091AC044091AD045091AE04A8EEB3E019
:1058E0000E9449330E948F158FE694E00E94781E33
:1058F000892B31F06AE279E088E993E00E94F71B96
:105900008FE694E00E94781E892B51F06091A704E5
:105910007091A8048091A9049091AA040E948F1507
:105920008FE694E00E94781E892B31F066E279E0E0
:1059300088E993E00E941B1CF80183899489A5895A
:10594000B6894789508D618D728D841B950BA60B8E
:10595000B70B4091A3045091A4046091A5047091E9
:10596000A604481759076A077B0708F0BAC38FE6F1
:1059700094E00E94781E892B31F06FE177E088E98E
:1059800093E00E94F71B8FE694E00E94781E892B1B
:1059900059F0D801DB966D917C91DC976E5F7F4F5B
:1059A00088E993E00E94B71B8FE694E00E94781E7E
:1059B000892B31F063EF76E088E993E00E94F71BD2
:1059C0008FE694E00E94781E892B41F0D801DB9687
:1059D000ED91FC91DC9782890E94AB15F80187A9B3
:1059E00090ADDC01ED91FC910084F185E02D0995ED
:1059F000892B09F493C1F80187A990ADDC01ED91E1
:105A0000FC910084F185E02D0995892B09F451C2A0
:105A1000F801F088FFE0FF1508F4A1C0D801DB967B
:105A2000ED91FC91DC978289F81608F098C0F80196
:105A300087A990ADDC01ED91FC910284F385E02D06
:105A40000995F801EF0DF11D80838FE694E00E9427
:105A5000781E892B31F061EF76E088E993E00E94AF
:105A6000F71B8FE694E00E94781E892B31F06AE0E4
:105A700070E0F80180890E94A2158FE694E00E94F0
:105A8000781E892B31F06FEE76E088E993E00E9472
:105A9000F71BD80150968C91F801E80FF11D808119
:105AA00090ED980F9A3020F08F7D8154863078F4F5
:105AB0008FE694E00E94781E892B49F0F8018089D6
:105AC000E80FF11D608188E993E00E94EE1B8FE6EC
:105AD00094E00E94781E892B31F06DEF71E088E927
