:100000000C94A4060C94CC060C94CC060C941B25E2
:100010000C941B250C941B250C94CC060C94D0231B
:100020000C94CC060C94CC060C94CC060C94CC0608
:100030000C94CC060C94CC060C94CC060C94CC06F8
:100040000C94CD2B0C94CC060C94E9240C94C32472
:100050000C94CC060C94CC060C94CC060C94CC06D8
:100060000C94CC060C94CC0643616C6C696E6720D2
:10007000454550524F4D2E75706461746520776907
:1000800074682070726F782D73746174653A200003
:10009000292000465245452052414D202800253058
:1000A000326C693A2530326C693A2530326C692EEF
:1000B000252D336C69002573464154414C3A20008C
:1000C00025734552524F523A200025735741524EE4
:1000D0003A20002573202000616464546167282958
:1000E000207375636365737300616464546167288A
:1000F00029206661696C65643A2044757065006109
:1001000064645461672829206661696C65643A20DB
:1001100046756C6C006164645461672829206162D3
:100120006F727465643A20496E76616C696420630D
:100130006F6465006164645461672829200066610A
:10014000696C65642C207461672069732064757024
:100150006C6963617465006661696C65642C207408
:100160006167206C6973742069732066756C6C001C
:1001700061626F727465642C20696E76616C69646B
:10018000207461672D696420737472696E670073EF
:100190007563636573730041646454616728292043
:1001A000726573756C743A200054616720656E74D3
:1001B000657265643A200064656C657465546167B6
:1001C000496E64657828293A200044656C65746539
:1001D000546167282920726573756C743A20006435
:1001E000656C65746554616728292061626F72745B
:1001F00065640064656C657465416C6C546167731B
:1002000028290064656C657465416C6C5461677382
:1002100028292061626F727465640075706461746E
:100220006553657474696E6728292061626F727402
:1002300065640046726565204D656D6F72793A2080
:100240000053746F726167653A3A4C6F6164282994
:1002500020456E640053746F726167653A3A4C6F63
:100260006164282920636865636B73756D206D690F
:10027000736D617463680053746F72616765207396
:10028000697A656F66285429200053746F7261671C
:10029000652073697A656F66282A6F626A65637480
:1002A0005F72656629200053746F72616765206F05
:1002B000626A6563745F7265662D3E73746F726106
:1002C00067655F6E616D6520270053746F726167AB
:1002D0006520656570726F6D5F61646472657373CC
:1002E000200053746F726167653A3A4C6F616428FD
:1002F0002920426567696E005573696E67207374C3
:100300006F7265642073657474696E67732027006B
:100310005573696E672064656661756C74207365DA
:100320007474696E677320270053657474696E670F
:10033000733A3A4C6F616428292063686B736D20AF
:100340006D69736D61746368004661696C736166A1
:100350006520656E61626C65640053657474696ED6
:1003600067733A3A4C6F6164282920424547494EE9
:10037000004C6F6164696E67207265616465723AF2
:1003800020004C6F6164696E6720726561646572FC
:100390003A200053657474696E67206F75747074C9
:1003A00020737769746368207065722070726F784B
:1003B0002D73746174653A20002C2073776974631F
:1003C000682070696E20002C2070726F78696D69EA
:1003D000747920005374617274696E6720436F6E84
:1003E00074726F6C6C657220776974682000537446
:1003F0006F726167653A3A4C6F6164282920456ED7
:10040000640053746F726167653A3A4C6F61642897
:100410002920636865636B73756D206D69736D6109
:100420007463680053746F726167652073697A65DD
:100430006F66285429200053746F726167652073BA
:10044000697A656F66282A6F626A6563745F726590
:100450006629200053746F72616765206F626A6558
:1004600063745F7265662D3E73746F726167655F5A
:100470006E616D6520270053746F7261676520653A
:100480006570726F6D5F6164647265737320005391
:10049000746F726167653A3A4C6F61642829204233
:1004A0006567696E0054616773206C6F6164656491
:1004B00000546167733A3A4C6F616428292063687D
:1004C00065636B73756D206D69736D61746368002E
:1004D0004D656E753A3A426567696E2829004C6F22
:1004E000674C6576656C28293A200044656275671B
:1004F0002070696E207374617475733A2000496EC0
:10050000697469616C697A65642048572073657203
:1005100069616C20706F72742040200027206F6624
:100520002073697A652000272077697468206368E2
:1005300065636B73756D20273078004C6F6164655F
:10054000642053657474696E67732027002C200043
:100550002C20632B2B2000426F6F74696E67205232
:100560004649442070726F78696D697479207365AB
:100570006E736F722C2000496E697469616C697AC0
:1005800065642048572073657269616C20706F72D2
:1005900074204020353736303000524649442070B0
:1005A000726F78696D6974792073656E736F7220EC
:1005B0007072652D626F6F74005041535300465244
:1005C000455348004147494E470054494D454F5512
:1005D000543A2067656E6572616C0054494D454F11
:1005E00055543A20677261636520706572696F6463
:1005F000003A200053746F726167653A3A7361760E
:1006000065282920454E440053746F726167653A2E
:100610003A73617665282920454550524F4D207523
:100620007064617465206E6F74206E6563657373AA
:100630006172790053746F726167653A3A736176DB
:1006400065282920454E440053746F726167653AEE
:100650003A7361766528292063686B736D206D6934
:10066000736D617463682C2063616C6C696E6720C4
:10067000454550524F4D2E707574282900207369DE
:100680007A656F6628542920002720746F206164E2
:100690006472657373200053746F726167653A3AD0
:1006A00073617665282920270053746F726167652E
:1006B0003A3A73617665282920424547494E0053EE
:1006C000657474696E67733A3A7361766528292098
:1006D000726573756C743A200043616C6C696E6767
:1006E00020532E7361766528290053656C65637409
:1006F00065643A20004E2F41002532692020257381
:1007000020202573002900526561646572732028DA
:100710000020707263732074616720696E70743A90
:1007200020002C20636865636B73756D20286465F9
:1007300063293A20002C2069645F6C656E3A2000C2
:100740002C2069645F656E643A200069645F6265AD
:1007500067696E3A200020707263732074616720AD
:10076000696E70743A20004C6F6164696E67207224
:1007700065616465723A20002C20636865636B7361
:10078000756D2028686578293A20002C2069645FFF
:100790006C656E3A20002C2069645F656E643A20B7
:1007A0000069645F626567696E3A20002070726359
:1007B000732074616720696E70743A200025326975
:1007C0002020252D323873202573002C2073697A60
:1007D00065200053657474696E67732C2063686BC1
:1007E000736D20307800456E746572696E67207293
:1007F000756E206D6F6465002073657474696E6733
:100800002052756E4D6F6465203D3E2030002C20D7
:10081000757074696D6520006E6576657200732071
:1008200061676F002C206379636C656420006E65DE
:1008300076657200732061676F006379636C65523F
:100840006561646572506F776572282920746167ED
:1008500020726561642000556E617574686F7269FD
:100860007A6564206F7220696E76616C69642074A9
:1008700061673A2000417574686F72697A65642017
:100880007461673A200020002070726F6365737393
:100890005461672829207265636569766564206202
:1008A00075666665723A203078200061646D696E05
:1008B0005F737461727475705F74696D656F757460
:1008C0000000000000004D220000322100006164A1
:1008D0006D696E5F74696D656F757400000000006E
:1008E00000000000000000000021230000BE2100E5
:1008F0000070726F78696D6974795F737461746583
:100900005F73746172747570000000000B23000047
:10091000AD2100006C6F675F6C6576656C00000050
:1009200000000000000000000000000000000023A4
:100930002200000C210000656E61626C655F6465D9
:100940006275670000000000000000000000000069
:100950000000F62200009D2100006C6F675F746F3D
:100960005F62740000000000000000000000000052
:100970000000000000382200001C210000746167A4
:100980005F6C6173745F726561645F74696D656FDC
:1009900075740000000000008B230000122200008C
:1009A0007265616465725F6379636C655F686967CE
:1009B000685F6475726174696F6E003D230000DFCB
:1009C0002100007265616465725F6379636C655FC5
:1009D0006C6F775F6475726174696F6E0000572386
:1009E0000000F02100007461675F726561645F73ED
:1009F0006C6565705F696E74657276616C0000008D
:100A000000712300000122000064656661756C744A
:100A10005F72656164657200000000000000000004
:100A200000000000CD2200008D21000068775F7378
:100A3000657269616C5F62617564000000000000AE
:100A400000000000000000B12200007A21000062D6
:100A5000745F626175640000000000000000000027
:100A60000000000000000000000095220000672147
:100A70000000726669645F626175640000000000D6
:100A800000000000000000000000000000792200CB
:100A90000054210000746F6E655F66726571756544
:100AA0006E637900000000000000000000000000FC
:100AB0006322000043210000020000000024002700
:100AC000002A0000000008000201000003040700E3
:100AD0000000000000000053746F726167653A3ACD
:100AE00073617665282920454E440053746F726106
:100AF00067653A3A73617665282920454550524F1B
:100B00004D20757064617465206E6F74206E65632E
:100B10006573736172790053746F726167653A3AF5
:100B200073617665282920454E440053746F7261C5
:100B300067653A3A7361766528292063686B736D3F
:100B4000206D69736D617463682C2063616C6C69DE
:100B50006E6720454550524F4D2E70757428290000
:100B60002073697A656F6628542920002720746FE6
:100B70002061646472657373200053746F726167DF
:100B8000653A3A73617665282920270053746F729D
:100B90006167653A3A73617665282920424547497D
:100BA0004E002532692020252D31306C75202030F3
:100BB00078256C78002C2073697A65200054616771
:100BC000732C2063686B736D2030780025326920A8
:100BD00020257300457869740000000000000000C3
:100BE00000000000B70700000000000000004164A2
:100BF0006420746167000000000000000000E0064F
:100C0000000000000000000044656C6574652074FD
:100C100061670000000000001407000000000000F1
:100C2000000044656C65746520616C6C20746167BC
:100C30007300EC0600000000000000004C697374B3
:100C4000207461677300000000000000CE06000001
:100C50000000000000004C697374205265616465F7
:100C60007273000000005416000000000000000035
:100C700053686F772066726565206D656D000000B2
:100C80009D0A0000000000000000425420636F6DC8
:100C90006D616E640000000000001B130000000086
:100CA0000000000053657474696E677300000000F3
:100CB000000000002214000000000000000053614A
:100CC00076652073657474696E67730000007B132A
:100CD000000000000000000052657374617274002F
:100CE00000000000000000005012000000000000A2
:100CF00000003A2000000000002300260029000028
:100D0000000000250028002B00040404040404044F
:100D100004020202020202030303030303010204AA
:100D2000081020408001020408102001020408106D
:100D300020524649442061646D696E20636F6E7372
:100D40006F6C652C2000363311241FBECFEFD8E026
:100D5000DEBFCDBF14E0A0E0B1E0E8E2F4E702C0FE
:100D600005900D92A631B107D9F725E0A6E1B4E0D0
:100D700001C01D92A03BB207E1F716E0C4EAD6E03D
:100D800004C02197FE010E948D39C33AD107C9F7EB
:100D90000E94172C0C94123A0C940000CF93DF930E
:100DA000EC01888D998D0E94D1286AEA73E0888DC4
:100DB000998D0E947924CE01DF91CF910C94302837
:100DC0000F932FE630E140E050E001E062EB71E08C
:100DD0000E940B280F910895CF92DF92EF92FF921D
:100DE0000F93CF93DF93EC018CEDC82E8FE0D82EBC
:100DF000E12CF12C888D998D0E94D1286AEA73E04C
:100E0000888D998D0E94792400E0A701960168EEF3
:100E100071E0CE010E940B28DF91CF910F91FF90DE
:100E2000EF90DF90CF900895CF92DF92EF92FF92F4
:100E30000F93CF93DF93EC0186E0C82E80E1D82E8C
:100E4000E12CF12C888D998D0E94D1286AEA73E0FB
:100E5000888D998D0E94792400E0A70196016FEF9B
:100E600071E0CE010E940B28DF91CF910F91FF908E
:100E7000EF90DF90CF900895CF92DF92EF92FF92A4
:100E80000F931F93CF93DF93CDB7DEB76B970FB65A
:100E9000F894DEBF0FBECDBF8C016B01FB018081DA
:100EA0008B8F805398012F5B3F4F79018A3030F050
:100EB0008FEF9FEFF7019183808315C04AE050E0E8
:100EC00060E070E0CE014B960E948B346F3F7F4F05
:100ED00079F34AE050E060E070E0C6010E948B3494
:100EE000F70171836083F701208131812B30310557
:100EF00060F54AE1CE010196FC01542F11925A95FA
:100F0000E9F7429FB001439F700D11246C52744F5A
:100F10004AE150E00E94AA35E989FA892B893C8987
:100F2000C9019595879520FF0AC0D801A80FB91F60
:100F30002D913C91E20FF31F0190F081E02D6D891E
:100F40007E89800F911F099503C0C8010E944B281C
:100F50006B960FB6F894DEBF0FBECDBFDF91CF9179
:100F60001F910F91FF90EF90DF90CF900895CF9356
:100F7000DF93EC01CB01770FAA0BBB0B8BA39CA3D8
:100F8000ADA3BEA381E090E09093010180930001A6
:100F90000E94DF2A6F8F78A389A39AA3DF91CF9154
:100FA0000895FC01B79628E1DF011D922A95E9F723
:100FB0007896118210823496118210820895AF9231
:100FC000BF92CF92DF92EF92FF920F931F93CF9336
:100FD000DF93CDB7DEB7A2970FB6F894DEBF0FBE92
:100FE000CDBF8C015C0123E4A20EB11CD5018D9113
:100FF0009C91892B09F45CC0F801828D938D0E942D
:101000001A1CD8015A96ED91FC915B9783A994A97B
:10101000A5A9B6A90097A105B10509F449C0BF93D8
:10102000AF939F938F9389E192E09F938F937E017B
:10103000B9E1EB0EF11CFF92EF920E94F03948E10A
:1010400050E0B7017801E7E2EE0EF11CC7010E9403
:10105000B335F7010FB6F894DEBF0FBECDBF80E009
:1010600090E041919C012F5F3F4F41110EC0F8016C
:10107000E80FF91F4AE047A3F801E20FF31F17A298
:10108000F801FF963183208304C0C901283131055E
:1010900041F7D8015A968D919C915B97FC0113AA58
:1010A00014AA15AA16AA0E948215D5011D921C9297
:1010B0006DE172E0C8014C960E94A139892BA1F024
:1010C000F801808D918DDC01ED91FC910084F1851A
:1010D000E02D0995F801B7966F019801215C3F4F0B
:1010E0007901892BC1F443C0D8015896ED90FC904A
:1010F00059978091360490913704E816F90601F368
:10110000C7010E9495258091360490913704E81616
:10111000F906E9F7D5CF80912E0490912F04892B01
:1011200021F410932F0400932E0460913E057091DA
:101130003F05C8010E94B707F50111821082D8014E
:1011400058968D919C915997DC01ED91FC9100840A
:10115000F185E02D0995892B51F0F60181918A30B6
:1011600031F08D3021F0EE16FF06C1F70AC0F6010E
:1011700081918A30E9F08D30D9F0EE16FF06C1F783
:101180006DC0F801808D918DDC01ED91FC910284A0
:10119000F385E02D0995B82EBBE18B1337C08AE0AB
:1011A000F80187A310A681E090E0D7018D939C936E
:1011B00048E150E0B601CE0101960E94B335C80166
:1011C0000E94D107D801ED91FC910280F381E02DBE
:1011D000C8010995F801E08CF18CD701ED91FC91E3
:1011E0000190F081E02D6AE0C7010995C7010E94D6
:1011F0007524D801ED91FC910680F781E02D41E046
:10120000BE016F5F7F4FC801099528C080912E04F1
:1012100090912F040817190759F4F801808D918DCA
:10122000DC01ED91FC910190F081E02D6B2D099591
:10123000F70180819181F801E80FF91FB7A20196AB
:10124000D7018D939C93BDE0BB1619F0EAE0BE1266
:1012500076CFF801E80FF91F17A271CFA2960FB64B
:10126000F894DEBF0FBECDBFDF91CF911F910F91DC
:10127000FF90EF90DF90CF90BF90AF900895CF9305
:10128000DF93EC01888D998DDC01ED91FC91008458
:10129000F185E02D0995892B51F0888D998DDC0120
:1012A000ED91FC910284F385E02D0995EBCFDF9160
:1012B000CF9108958F929F92AF92BF92CF92DF927B
:1012C000EF92FF92CF93DF930E94DF2A6B017C01A4
:1012D0008DE090E00E946A33D82FC92FC701B60174
:1012E00028EE33E040E050E00E94D3389F938F9384
:1012F0007F936F938CE3882E912CA12CB12CCA0183
:10130000B901A50194010E94D3389F938F937F93D5
:101310006F93C701B60120E63AEE40E050E00E942C
:10132000D338CA01B901A50194010E94D3389F9313
:101330008F937F936F93C701B60120E83EEE46E39B
:1013400050E00E94D3385F934F933F932F938EE9E1
:1013500090E09F938F931F928DE08F93CF93DF93B5
:101360000E94C7358DB79EB746960FB6F8949EBFBC
:101370000FBE8DBF8D2F9C2FDF91CF91FF90EF90EF
:10138000DF90CF90BF90AF909F908F900895EF9295
:10139000FF920F931F93CF93DF938C0186E190E030
:1013A0000E946A33D82FC92F80912004811142C036
:1013B00081E0809320048091000190910101892BAC
:1013C000B1F40E945A097C01FF928F9383ED90E063
:1013D0009F938F93CF93DF930E94F735C7010E94AD
:1013E00002340F900F900F900F900F900F900230DB
:1013F000110581F00330110541F001301105D1F4E0
:10140000CF93DF9386EB90E009C0CF93DF938AEC14
:1014100090E004C0CF93DF9380EC90E09F938F9394
:10142000CF93DF930E94F7350F900F900F900F909E
:101430000F900F908D2F9C2FDF91CF911F910F91C7
:10144000FF90EF9008958AE00E945F29892BE1F4D4
:1014500080915605882339F0809100019091010117
:10146000892B59F413C08BE00E945F29892BA1F3CB
:1014700080912D048111F0CF07C081E020912E04CE
:1014800030912F04232B19F080E0089581E0089516
:10149000CF93C82F0E94230A882359F0CC2399F0B8
:1014A0006AEA73E080913804909139040E947924AB
:1014B00002C0CC2341F06AEA73E08AE394E00E9420
:1014C000792410922004CF910895EF92FF920F9308
:1014D0001F93CF93DF9300D0CDB7DEB77C0120916F
:1014E000AA053091AB052115310511F420EB35E04B
:1014F0008E010F5F1F4F021B130B63E970E08AE33D
:1015000094E00E948D24B8018AE394E00E94261A98
:1015100060E970E08AE394E00E948D24B7018AE3D9
:1015200094E00E947924C8010F900F90DF91CF9131
:101530001F910F91FF90EF900895EF92FF920F93FC
:101540001F93CF93DF93EC018AEA93E00E94650A30
:101550007C0163E372E0888D998D0E948D24088D53
:10156000198DB701C8010E94261AC8010E9475246E
:10157000888D998D0E947524CE01DF91CF911F91A6
:101580000F91FF90EF900C9430288FEF94E00E9421
:10159000EC26882319F08091440508958091570521
:1015A000089541E050E060E070E00C942C1AFB01DB
:1015B000808191811816190644F48281938118164E
:1015C000190634F482E090E0089580E090E00895F8
:1015D00081E090E00895FC017087678361157105D3
:1015E00081F4238534852115310559F08185928553
:1015F0002817390718F416821582089501969287E4
:101600008187A18DB28DCB01880F991FA80FB91FBB
:101610008D919C91181619064CF4CB01019662E04D
:1016200070E00E9446399683858302C01682158237
:1016300085859685A785B089818B928BA38BB48B8A
:1016400008958F929F92AF92BF92CF92DF92EF92C6
:10165000FF921F93CF93DF93EC010E94DF2A6D87E7
:101660007E878F87988B298D3A8DEF80F8848988C3
:101670009A88AB88BC88DC01CB0188199909AA0932
:10168000BB09F701EE0FFF1FE20FF31F808091806F
:10169000092C000CAA08BB0888159905AA05BB05EA
:1016A00088F0B901CE010E94D70A0197E816F90621
:1016B0001CF060E070E003C0B7016F5F7F4FCE01A8
:1016C0000E94EB0AE880F9808B8D9C8DCD88DE88A6
:1016D0008E159F05A1F42D8D3E8D8D819E8128173D
:1016E000390769F48F8D98A18C159D0541F429A1C6
:1016F0003AA18F89988D2817390709F417C2C114A8
:10170000D10439F48F89988D892B09F0AEC16D8190
:101710000AC21C141D040CF0A8C18D819E81892B66
:1017200009F49FC1809102018E1521F08F3F09F0CD
:10173000FDC104C0E8EBFAE014917AC0E092020126
:10174000E8EBFAE014911F3F09F4F0C1113009F4FD
:1017500048C050F1123009F06BC01092B0001092E6
:10176000B1008091B00082608093B0008091B100A0
:1017700081608093B100C7019927FC01E75FF24FB8
:10178000E491F0E0EE0FFF1FE150F34F259134910B
:101790003093590520935805FC01E35EF24FE49124
:1017A000E0935A0512E040C214BC15BC84B58260B7
:1017B00084BD85B5816085BDC7019927FC01E75FC0
:1017C000F24FE491F0E0EE0FFF1FE150F34F25914F
:1017D0003491FC01E35EF24FE491E093170410E0D2
:1017E00023C2109280001092810080918100886055
:1017F0008093810080918100816080938100C70186
:101800009927FC01E75FF24FE491F0E0EE0FFF1F34
:10181000E150F34F25913491FC01E35EF24FE491E6
:10182000E093160461E08E2D0E94042A11E0A7C007
:1018300017FD7CC161E08E2D0E94042A812F8D7FCF
:1018400009F09DC00D2C000CEE08FF0860E072E16D
:101850008AE790E0A70196010E945A3949015A018E
:10186000DA01C9010197A109B1098F3F9105A105CD
:10187000B10509F00CF445C060E472E48FE090E03B
:10188000A70196010E945A39BA01A9014150510994
:10189000610971091230E9F44F3F51056105710585
:1018A00009F00CF461C160E970ED83E090E0A701FC
:1018B00096010E945A39BA01A901415051096109A2
:1018C00071094F3F51056105710509F034F583E059
:1018D0004FC04F3F510561057105B9F0B4F068E4A0
:1018E00078EE81E090E0A70196010E945A39BA0192
:1018F000A9014150510961097109112309F465C118
:101900005CC1AC01BD0181E001C082E0111130C0B9
:1019100095B5987F892B85BD6AC068E478EE81E033
:1019200090E0A70196010E945A39BA01A9014150DD
:101930005109610971094F3F51056105710509F0B0
:101940000CF410C164E274EF80E090E0A70196010E
:101950000E945A39BA01A90141505109610971091E
:101960004F3F51056105710511F008F0FFC085E09A
:101970009091B100987F892B8093B10032C00D2CDB
:10198000000CEE08FF0860E072E18AE790E0A70132
:1019900096010E945A39DA01C9010197A109B109DA
:1019A000009721E0A207B10524F4AC01BD0181E05C
:1019B0000FC068E478EE81E090E0A70196010E94F4
:1019C0005A39BA01A901415051096109710983E0ED
:1019D000113039F490918100987F892B8093810098
:1019E00018C01130B1F0123049F111119FC047BD3C
:1019F0008FEF9FEFDC0180931C0490931D04A09354
:101A00001E04B0931F0480916E00826080936E006C
:101A10008DC050938900409388008FEF9FEFDC01C9
:101A20008093180490931904A0931A04B0931B0494
:101A300080916F00826080936F0078C04093B30004
:101A40008FEF9FEFDC0180935B0590935C05A09383
:101A50005D05B0935E058091700082608093700098
:101A600065C08E2D0E94A52361C0CF88D88C1C1420
:101A70001D040CF05BC08D819E8161E0892B09F40F
:101A80004EC08E2D0E94042A8FEFC816D10409F48F
:101A900044C0F701FF27ED53F54FE491E330F9F02F
:101AA00048F4E130B9F0E230A1F584B5806284BD3C
:101AB000C8BC3CC0E730E9F0E83019F1E43049F542
:101AC00080918000806280938000D0928B00C092D1
:101AD0008A002CC084B5806884BDC7BC27C08091B3
:101AE0008000806880938000D0928900C092880036
:101AF0001DC08091B00080688093B000C092B30098
:101B000015C08091B00080628093B000C092B40094
:101B10000DC020E8C216D1042CF061E004C08E2D67
:101B20000E94042A60E08E2D0E94D5298881998127
:101B30009C8F8B8F8D819E819E8F8D8F8D899E89AD
:101B400098A38F8F8F89988D9AA389A3DF91CF91C6
:101B50001F91FF90EF90DF90CF90BF90AF909F903C
:101B60008F90089584E004CF82E002CF62E17AE7AB
:101B700080E090E0A70196010E945A39BA01A901BC
:101B800041505109610971094F3F510561057105C6
:101B900091F088F0D501C4013AE0B595A7959795E5
:101BA00087953A95D1F7AC01BD01415051096109C2
:101BB000710987E0DDCE86E0DBCE4F3F5105610540
:101BC000710509F098F684E0A1CE4F3F51056105FB
:101BD000710541F138F162E17AE780E090E0A70118
:101BE00096010E945A39BA01A9014150510961096F
:101BF00071094F3F51056105710591F088F0D501DC
:101C0000C4012AE0B595A795979587952A95D1F7B0
:101C1000AC01BD01415051096109710985E078CEDF
:101C200084E076CE83E074CE61E08E2D0E94042A9B
:101C300009CEFF920F931F93CF93DF93EC018B019B
:101C4000F42E0E94C50A9E01332790E08217930765
:101C50005CF1CE010E94C709EC010E94230A88238F
:101C600071F0BE0180913804909139040E948B2458
:101C7000B80180913804909139040E94261ABE015F
:101C80008AE394E00E948B24B8018AE394E00E94E6
:101C9000261A8F2D0E94480ACE01DF91CF911F9105
:101CA0000F91FF900C940234DF91CF911F910F910F
:101CB000FF900895FF920F931F93CF93DF93EC0152
:101CC000F62E08811981C8010E94AD38F81621F05E
:101CD0006F2DC8010E94B538CE01DF91CF911F91C1
:101CE0000F91FF900895CF92DF92EF92FF921F9392
:101CF000CF93DF936A017B01122F0E94C709EC0189
:101D00000E94230A882379F0BE01809138049091C3
:101D100039040E948B24B701A60180913804909168
:101D200039040E94F019BE018AE394E00E948B24DA
:101D3000B701A6018AE394E00E94F019812F0E9466
:101D4000480ACE01DF91CF911F91FF90EF90DF9075
:101D5000CF900C940234CF92DF92EF92FF921F93B8
:101D6000CF93DF93EC01C62E142F0E94C50A9E016B
:101D7000332790E082179307A4F1CE010E94C70990
:101D8000EC010E94230AD12CE12CF12C882381F054
:101D9000BE0180913804909139040E948B242AE07E
:101DA000B701A60180913804909139040E942C2437
:101DB000BE018AE394E00E948B242AE0B701A601C9
:101DC0008AE394E00E942C24812F0E94480ACE01CD
:101DD000DF91CF911F91FF90EF90DF90CF900C9407
:101DE0000234DF91CF911F91FF90EF90DF90CF9061
:101DF0000895CF93DF93FC01C281D38113821282B5
:101E0000DC0160E070E080E090E02C9130E0522F47
:101E100044276835710529F011962C91119730E00F
:101E200002C020E030E0242B352B822793276E5F01
:101E30007F4F12966A35710541F7D383C283DF91D4
:101E4000CF910895FF920F931F93CF93DF93EC01EF
:101E50008B01F42E0E94C50A9E01332790E0821761
:101E600093075CF1CE010E94C709EC010E94230A8E
:101E7000882371F0BE0180913804909139040E944A
:101E80008B24B80180913804909139040E948B24EE
:101E9000BE018AE394E00E948B24B8018AE394E0B7
:101EA0000E948B248F2D0E94480ACE01DF91CF9192
:101EB0001F910F91FF900C940234DF91CF911F91ED
:101EC0000F91FF900895FF920F931F93CF93DF938D
:101ED000EC018B01F42E0E94C50A9E01332790E08D
:101EE000821793075CF1CE010E94C709EC010E94A2
:101EF000230A882371F0BE0180913804909139043F
:101F00000E948B24B80180913804909139040E947A
:101F10008D24BE018AE394E00E948B24B8018AE3F9
:101F200094E00E948D248F2D0E94480ACE01DF91FB
:101F3000CF911F910F91FF900C940234DF91CF91BC
:101F40001F910F91FF9008950F931F93CF93DF93ED
:101F5000EC01AB01FB0180818E010F5B1F4F8D30C7
:101F600021F08A3011F0811108C041E06BE172E08C
:101F700085E090E00E94630F11C0F80160817181DB
:101F80006031710524F48FEF94E00E944626609141
:101F90003E0570913F05CE010E94B7078FEF9FEF7E
:101FA000F8019183808360E070E0CE01DF91CF91F2
:101FB0001F910F910C942214CF93DF93EC01DB015E
:101FC0008C918F7D893589F441E063EF71E084E085
:101FD00090E00E94630F84E1EBEEF4E0DF011D92DC
:101FE0008A95E9F70E943D2B06C063E072E0888D78
:101FF000998D0E94B124888D998D0E94752460E08E
:1020000070E0CE01DF91CF910C94CE06CF92DF929B
:10201000EF92FF920F931F93CF93DF93EC018B010D
:102020004AE050E060E070E0C8010E948B346B0130
:102030007C01CB01181619064CF4F80120812D30D3
:1020400029F02A3019F0653071053CF06FED71E030
:10205000888D998D0E94B12431C0860101501109EB
:1020600040E067EB71E084E090E00E94630F41E0A4
:10207000B80184E090E00E94190EF4E0CF0ED11C6C
:10208000C601880F991F880F991FFC01E952FB4F69
:1020900010821182128213820E943D2B6AEC71E041
:1020A000888D998D0E948D24E88CF98C60E070E019
:1020B000C7010E94261AC7010E947524888D998D38
:1020C0000E94752460E070E0CE01DF91CF911F91F6
:1020D0000F91FF90EF90DF90CF900C94CE068F92EF
:1020E0009F92AF92BF92EF92FF920F931F93CF9365
:1020F000DF938C017B01FB0180818D3009F470C07E
:102100008A3009F46DC0882309F46AC04AE050E0BF
:1021100060E070E0C7010E948B344B015C0140E03D
:1021200064E371E085E090E00E94630F21E0B50177
:10213000A40185E090E00E9436150E944427EBEE52
:10214000F4E0DF0180E090E04D915D916D917D9133
:10215000452B462B472B09F0019624E0AF3FB207F1
:1021600099F781149104A104B10441F441E065E1BF
:1021700071E083E090E00E94630F32C085309105EA
:1021800054F041E06FEF70E083E090E00E94630F55
:10219000C2E0D0E027C041915191619171918416C4
:1021A0009506A606B70609F472C024E0EF3FF207D1
:1021B00091F7880F991F880F991FFC01E551FB4F7C
:1021C00080829182A282B3820E943D2B41E068ED21
:1021D00070E084E090E00E94630FC0E0D0E002C0B5
:1021E000C1E0D0E069EA71E0F801808D918D0E9434
:1021F0008D24B701F801808D918D0E94792467E9C3
:1022000071E0F801808D918D0E948D24BE01F8014E
:10221000808D918D0E94261A60E272E0F801808D17
:10222000918D0E948B24F801808D918DC230D10553
:1022300059F0C330D10559F0219719F06FE871E0DA
:1022400008C060E771E005C067E571E002C06EE3B9
:1022500071E00E948D24F801808D918D0E9475247B
:10226000F801808D918D0E947524C8010E94D107CC
:1022700060E070E0C801DF91CF911F910F91FF9056
:10228000EF90BF90AF909F908F900C94CE0641E05E
:1022900069EE70E083E090E00E94630FC3E0D0E05D
:1022A000A1CF0F931F93CF93DF9300D0CDB7DEB7AD
:1022B0008C018091000190910101892B29F5F80191
:1022C000808191817183608386179707E9F08091FF
:1022D0004205909143050297B9F440E068E670E04A
:1022E00084E090E00E94630FF8016081718141E019
:1022F00084E090E00E94190EF80160811A82198230
:10230000CE0101960E945A0EF801808191810F90B2
:102310000F90DF91CF911F910F91089580EC92E083
:10232000089587E992E008958EE892E0089560E0CC
:1023300070E0CB01089580E391E00895FC012689C7
:10234000378937FF04C060E070E0CB010895220FA9
:10235000331F220F331FFC01E20FF31F62817381D1
:10236000848195810895CF93DF93FC012689378975
:1023700037FF05C060E070E080E090E00EC0EC0147
:102380000190F081E02D0480F581E02D09952E89E2
:102390003F89215031093F8B2E8BDF91CF910895DA
:1023A0002FEF3FEFDC0157963C932E935697FC019D
:1023B0009C012C5E3F4F1382128215821482349648
:1023C000E217F307C1F74115510511F460FF07C08B
:1023D000DC01ED91FC910190F081E02D09940895CC
:1023E0009F92AF92BF92CF92DF92EF92FF920F93A4
:1023F0001F93CF93DF93EC018B01942EE881F98139
:102400000480F581E02D09956B017C018E899F89FF
:1024100097FD3AC0570181E0A822BB24C114D10422
:1024200021F4A114B10469F52FC0992039F0E88195
:10243000F9810280F381E02DCE010995AB2871F07E
:10244000F701F595E795EC0FFD1F0190F081E02D68
:10245000EC0DFD1D0190F081E02D01C0F601C701DA
:1024600095958795B8018C0F9D1FDF91CF911F9196
:102470000F91FF90EF90DF90CF90BF90AF909F9023
:1024800009949920E9F2D3CFDF91CF911F910F9159
:10249000FF90EF90DF90CF90BF90AF909F90089506
:1024A000E0E0F0E009948F929F92AF92BF92CF92BA
:1024B000DF92EF92FF920F931F93CF93DF93CDB7ED
:1024C000DEB7A3970FB6F894DEBF0FBECDBF8C0169
:1024D0005B014A01790183E29E012F5F3F4F690151
:1024E000F901282F11922A95E9F79B012150310912
:1024F000829FB001839F700D11246555774F43E291
:1025000050E0C6010E94AA35B601C4010E94AA3952
:1025100030E1A316B104E4F4EC8DFD8D309719F48D
:102520008E8D80FF15C02E8D3F8DC90195958795A5
:1025300020FF0AC0D801A80FB91F2D913C91E20FCE
:10254000F31F0190F081E02DB701800F911F0995D5
:10255000A3960FB6F894DEBF0FBECDBFDF91CF912B
:102560001F910F91FF90EF90DF90CF90BF90AF90B1
:102570009F908F900895CF93DF93CDB7DEB7A0974C
:102580000FB6F894DEBF0FBECDBFFB010190002057
:10259000E9F7AF01461B570B1A821982FE013396E9
:1025A0008EE1DF011D928A95E9F742505109CE0173
:1025B00001960E94B13929818091210490912204D1
:1025C0002134A1F4BE016F5F7F4FFC01808D918D9E
:1025D0000E94792441E653E160E070E020E08091C0
:1025E0002104909122040E94EE1B1CC0DC01ED919D
:1025F000FC910084F185E02D40E050E0BA0109959E
:1026000080912104909122040E943F09809121042D
:10261000909122040E94D107809123049091240478
:102620000E944B28A0960FB6F894DEBF0FBECDBF18
:10263000DF91CF9108950F93CF93DF93EC018AE060
:102640000E945F29019759F58091210490912204FD
:10265000DC01ED91FC910084F185E02D40E050E03B
:10266000BA01099580912104909122040E943F09AA
:1026700080912104909122040E94D1072BEB32E13A
:1026800040E050E000E067EC72E08091230490911C
:1026900024040E940B28DF91CF910F91089565EFDC
:1026A00076E0888D998D0E94B1246AEA73E0888D66
:1026B000998D0E947924CE01DF91CF910F910C94D6
:1026C0004B28E0912304F0912404808D918D0E9489
:1026D0007924E0912304F09124046AEA73E0808D68
:1026E000918D0E94792460E070E0809123049091A4
:1026F00024040C941B130F9325E139E140E050E0D2
:1027000000E069ED72E00E940B280F9108953F925E
:102710004F925F926F927F928F929F92AF92BF92F1
:10272000CF92DF92EF92FF920F931F93CF93DF939D
:10273000CDB7DEB7CE55D1090FB6F894DEBF0FBEC8
:10274000CDBF3B0163ED77E0C3010E948D248FEF85
:1027500094E00E94F90EAC0160E070E020E1C3015A
:102760000E942C246BEC77E0C3010E948D242AE0A8
:1027700049E550E060E070E0C3010E942C24C301F1
:102780000E94752401E010E083E3382ECE0101960B
:102790005C019BE1492E7E0194E3E90EF11C6E0180
:1027A000EFE4CE0ED11C20E1522E3DEB832E37E01C
:1027B000932EF501832D11928A95E9F7F701842D67
:1027C00011928A95E9F7F601852D11928A95E9F71C
:1027D0009601A701B8018FEF94E00E945312DF9297
:1027E000CF92FF92EF921F930F939F928F92BF927F
:1027F000AF920E94F735B501C3010E9479240F5FA3
:102800001F4F0FB6F894DEBF0FBECDBF00311105CC
:1028100081F6C25ADF4F0FB6F894DEBF0FBECDBFB0
:10282000DF91CF911F910F91FF90EF90DF90CF90AC
:10283000BF90AF909F908F907F906F905F904F90E0
:102840003F9008950F93CF93DF93EC01FC01EF5B72
:10285000FF4F8FEF9FEF91838083688D798D8FEF8E
:1028600094E00E9487136AEA73E0888D998D0E9434
:10287000792427E434E140E050E000E06EEE72E0BD
:10288000CE010E940B28DF91CF910F910895CF9236
:10289000DF92EF92FF920F931F93CF93DF93CDB709
:1028A000DEB7AB970FB6F894DEBF0FBECDBF7C018D
:1028B0008B014AE050E060E070E0C8010E948B3478
:1028C000F701EF5BFF4F718360839B01215031095A
:1028D0002F303105A8F59E012F5F3F4F69012BE195
:1028E000F60111922A95E9F78E01045E1F4F20E14F
:1028F000F80111922A95E9F79801A6018FEF94E06B
:102900000E945312B601F701808D918D0E948B2495
:1029100061EF75E0F701808D918D0E948D24B801E3
:10292000F701808D918D0E94792424EA3FE040E0F8
:1029300050E000E067E073E0C7010E940B2811C07F
:10294000F8018081803321F08D3011F08A3021F43C
:10295000C7010E944B2805C060E070E0C7010E94DB
:102960002214AB960FB6F894DEBF0FBECDBFDF9139
:10297000CF911F910F91FF90EF90DF90CF9008952E
:10298000CF93DF93EC0180E293E0998388831B82ED
:102990001A8240E150E066E573E0CE0104960E94A1
:1029A000B3358EE190E0A0E0B0E08FA798ABA9AB83
:1029B000BAAB88EE93E0A0E0B0E08BAB9CABADABE4
:1029C000BEAB86E990E0A0E0B0E08FAB98AFA9AFD6
:1029D000BAAF8FE090E0A0E0B0E08BAF9CAFADAFBE
:1029E000BEAFFE01FF968CE390E0A0E0B0E08083F4
:1029F0009183A283B383349682E090E091838083B5
:102A0000329685E08083319683E08083319680E042
:102A100091EEA0E0B0E080839183A283B3833496EB
:102A200080839183A283B383349680E895E2A0E00B
:102A3000B0E080839183A283B383349680EF9AE0E1
:102A400091838083329687E090E0918380833296F1
:102A50001082319684E080834BE150E064E273E0C1
:102A6000CE014496DF91CF910C94B335CF92DF9293
:102A7000EF92FF921F93CF93DF93EC016A017B01EA
:102A8000122F0E94C50A9E01332790E082179307F8
:102A90008CF1CE010E94C709EC010E94230A882311
:102AA00081F0BE0180913804909139040E948B24FA
:102AB0002AE0B701A60180913804909139040E9460
:102AC0002C24BE018AE394E00E948B242AE0B70103
:102AD000A6018AE394E00E942C24812F0E94480AD8
:102AE000CE01DF91CF911F91FF90EF90DF90CF90BB
:102AF0000C940234DF91CF911F91FF90EF90DF9003
:102B0000CF900895DC0156961C92FC01369620E188
:102B1000DF011D922A95E9F708950F93CF93DF9374
:102B2000EC018CE291E0998388836A834B832C8348
:102B30000D83FE01369680E1DF011D928A95E9F74B
:102B40001E8A0E94DF2A6F8B788F898F9A8F1B8E47
:102B50001C8E1D8E1E8E1F8E18A219A21AA21BA2D9
:102B60001CA21DA21EA21FA218A619A61AA61BA669
:102B70001CA61DA61EA61FA618AA19AA1AAA1BAA39
:102B80001CAA1DAA1EAA18AE1FAADF91CF910F91F1
:102B900008952F923F924F925F926F927F928F9201
:102BA0009F92AF92BF92CF92DF92EF92FF920F93DC
:102BB0001F93CF93DF93CDB7DEB769970FB6F89425
:102BC000DEBF0FBECDBF7C0167E077E00E948D24A1
:102BD00063E070E0C7010E94261A65E077E0C70154
:102BE0000E94B1248AE9C82E81E0D82E01E010E0CD
:102BF00097E1292E2E0183E0480E511C29EF822EE9
:102C000026E0922E39E1332EFE0131965F011A82C1
:102C10001982F201822D11928A95E9F7F60120813D
:102C20003181F2E0CF0ED11C8091450590E08017F4
:102C3000910719F485E393E002C081E292E03F93AB
:102C40002F939F938F931F930F939F928F921F9217
:102C50003F92BF92AF920E94C735B501C7010E9453
:102C600079240FB6F894DEBF0FBECDBF0F5F1F4FA4
:102C70000430110561F669960FB6F894DEBF0FBEF9
:102C8000CDBFDF91CF911F910F91FF90EF90DF901B
:102C9000CF90BF90AF909F908F907F906F905F90FC
:102CA0004F903F902F9008950F93CF93DF93EC01B7
:102CB000888D998D0E94C9156AEA73E0888D998D77
:102CC0000E94792420E736E140E050E000E067E32D
:102CD00073E0CE010E940B28DF91CF910F910895F0
:102CE000CF92DF92EF92FF920F931F93CF93DF93D8
:102CF000EC018B014AE050E060E070E0C8010E9406
:102D00008B347B016B0121E0C21AD10883E0C81625
:102D1000D104F8F46AEE76E0888D998D0E948D24B6
:102D2000B601660F771FFB01E656FE4F6081718189
:102D3000888D998D0E9479246AEA73E0888D998D37
:102D40000E947924A80168E070E08FEF94E00E946F
:102D500046266AEA73E0888D998D0E947924EF28CF
:102D600031F00D30110519F00A30110559F4CE017A
:102D7000DF91CF911F910F91FF90EF90DF90CF9057
:102D80000C944B2860E070E0CE01DF91CF911F9151
:102D90000F91FF90EF90DF90CF900C9454166F92AC
:102DA0007F928F929F92AF92BF92CF92DF92EF92DB
:102DB000FF920F931F93CF93DF93CDB7DEB78C01B4
:102DC0005B016DB67EB6DC01ED91FC910280F38172
:102DD000E02D099540E0BC0185E090E00E94220FC3
:102DE00040E06CEA77E085E090E00E94630F40E00D
:102DF00061EA77E085E090E00E94630F40E0F8012F
:102E0000638185E090E00E94AB0E40E066E977E0E8
:102E100085E090E00E94630F40E0D80114966C9129
:102E200085E090E00E94AB0EF80144814F5F838102
:102E3000F42EF81A40E06BE877E085E090E00E941D
:102E4000630F40E06F2D85E090E00E94AB0E40E004
:102E500068E777E085E090E00E94630FD5011B965C
:102E6000EC900E94C50A90E0059724F061E08E2D59
:102E70000E947D1A4F2D50E04F5F5F4FEDB7FEB7B8
:102E8000E41BF50B0FB6F894FEBF0FBEEDBF8DB778
:102E90009EB701967C0167E271E00E949839D801E3
:102EA00013968C916501C80ED11C87E4882E83E0AF
:102EB000982EF801848190E096012A193B09821727
:102EC0009307C4F0D6012D916D01F7010190002008
:102ED000E9F71F922F939F928F92CF0101979F93B3
:102EE0008F930E94F0390F900F900F900F900F90DA
:102EF0000F90DFCF40E150E060E070E0C7010E943A
:102F00008B340FB6F8947EBE0FBE6DBEDF91CF91AD
:102F10001F910F91FF90EF90DF90CF90BF90AF90F7
:102F20009F908F907F906F9008950F93CF93DF9332
:102F3000EC0100E02AE043E06DE00E948D1584E49E
:102F400091E09983888340E067E677E084E090E051
:102F50000E94630F41E060EC72E084E090E0DF915A
:102F6000CF910F910C94220F6F927F928F929F922C
:102F7000AF92BF92CF92DF92EF92FF920F931F9387
:102F8000CF93DF93CDB7DEB78C015B016DB67EB614
:102F9000DC01ED91FC910280F381E02D099540E088
:102FA000BC0185E090E00E94220F40E066E577E0FA
:102FB00085E090E00E94630F40E06BE477E085E0FD
:102FC00090E00E94630F40E0F801638185E090E0AB
:102FD0000E94AB0E40E060E477E085E090E00E9464
:102FE000630F40E0D80114966C9185E090E00E9458
:102FF000AB0EF801448150E08381481B51094F5FBB
:103000005F4FF42EFF0C40E065E377E085E090E051
:103010000E94630F40E06F2D85E090E00E94AB0EB0
:1030200040E062E277E085E090E00E94630F41E0DB
:10303000D50118966C9185E090E00E94AB0E4F2D63
:1030400050E04F5F5F4FEDB7FEB7E41BF50B0FB6D7
:10305000F894FEBF0FBEEDBF8DB79EB701967C0101
:1030600067E271E00E949839D80113968C9165014E
:10307000C80ED11C8AE4882E83E0982EF801848142
:1030800090E096012A193B0982179307C4F0D601F4
:103090002D916D01F70101900020E9F71F922F9308
:1030A0009F928F92CF0101979F938F930E94F03947
:1030B0000F900F900F900F900F900F90DFCF40E187
:1030C00050E060E070E0C7010E948B340FB6F894C6
:1030D0007EBE0FBE6DBEDF91CF911F910F91FF900D
:1030E000EF90DF90CF90BF90AF909F908F907F90A8
:1030F0006F9008956F927F928F929F92AF92BF923E
:10310000CF92DF92EF92FF920F931F93CF93DF93B3
:10311000CDB7DEB78C015B016DB67EB6DC01ED91FB
:10312000FC910280F381E02D099540E0BC0185E02F
:1031300090E00E94220F40E061E177E085E090E0BE
:103140000E94630F40E150E060E070E0C5010E9422
:103150008B346B017C010E94C50A90E005973CF01E
:1031600021E0B701A60185E090E00E94730EF8010E
:10317000D38044814D1950E04F5F5F4F8DB79EB7AC
:10318000841B950B0FB6F8949EBF0FBE8DBFADB7D5
:10319000BEB711967D0167E271E0CD010E949839BA
:1031A000F501ED0DF11D6F0187E4882E83E0982E67
:1031B000D80114968C9190E096012A193B09821748
:1031C0009307C4F0F60121916F01F70101900020EF
:1031D000E9F71F922F939F928F92CF0101979F93B0
:1031E0008F930E94F0390F900F900F900F900F90D7
:1031F0000F90DECF40E150E060E070E0C7010E9438
:103200008B340FB6F8947EBE0FBE6DBEDF91CF91AA
:103210001F910F91FF90EF90DF90CF90BF90AF90F4
:103220009F908F907F906F900895CF92DF92EF9252
:10323000FF920F931F93CF93DF9300D0CDB7DEB7EC
:103240006C01FB018081982F9F7D993539F0813386
:1032500029F08D3019F08A3009F096C041E069ED0F
:1032600076E085E090E00E94630F4BE150E06FE470
:1032700073E083E195E00E94B33541E069EA76E0CE
:1032800086E090E00E94630F40E067E976E085E029
:1032900090E00E94630F40E063E075E085E090E01D
:1032A0000E94220F40E069E876E085E090E00E940D
:1032B000630F6091FF047091000540E085E090E0AD
:1032C0000E94190E40E06DE776E085E090E00E94F4
:1032D000630F69E570E085E090E00E94A51B8FEF29
:1032E00094E00E94A42641E0882381F068E076E023
:1032F00085E090E00E94630F41E064EF75E086E0B6
:1033000090E00E94630F00E010E031C068E476E0D6
:1033100085E090E00E94630F8FEF94E00E94F90E29
:1033200090930205809301058091FF049091000520
:103330000FEF14E09C012F5F34407901C701800F2B
:10334000911FF80161918F019A838983CE010196C3
:103350000E945A0EF5E008351F0781F741E064E34B
:1033600076E086E090E00E94630F01E010E040E02C
:103370006FEB76E085E090E00E94630F41E0B801DA
:1033800085E090E00E94190EC6010E944B280F9024
:103390000F90DF91CF911F910F91FF90EF90DF90F1
:1033A000CF900895FC014115510511F460FF11C043
:1033B000268937892F5F3F4F378B268B220F331F8C
:1033C000220F331FE20FF31F4283538364837583FD
:1033D000089541E06FE573E083E090E00C94220FE4
:1033E000CF92DF92EF92FF920F931F93CF93DF93D1
:1033F00077FF21C06A017B01EC01E881F98101902E
:10340000F081E02D6DE209958C0144275527BA0122
:103410004C195D096E097F092AE0CE010E942C2417
:10342000800F911FDF91CF911F910F91FF90EF902F
:10343000DF90CF9008952AE0DF91CF911F910F91F7
:10344000FF90EF90DF90CF900C942C24AB01770F7E
:10345000660B770B0C94F019CF92DF92EF92FF92EC
:103460000F931F93CF93DF93EC016B018B859C85AA
:103470008A01000F111F000F111F8617970799F47B
:10348000E98CFA8CB801665B7E4FE616F70661F1AF
:10349000CE010E94D70A892B31F4B701CE010E94D8
:1034A000D70A892B09F10E94C50A853020F00E94B5
:1034B000C50A0E94C50A1E821D8218861F821A86AE
:1034C0001986DC86CB86065B1E4F1A8F098F60E05B
:1034D00070E0CE01DF91CF911F910F91FF90EF909F
:1034E000DF90CF900C94EB0ADF91CF911F910F9159
:1034F000FF90EF90DF90CF900895CF92DF92EF9200
:10350000FF921F93CF93DF93C82E162F85E090E094
:103510000E94C709EC010E94230AD12CE12CF12C56
:10352000882381F0BE0180913804909139040E9473
:103530008B2420E1B701A6018091380490913904D1
:103540000E942C24BE018AE394E00E948B2420E197
:10355000B701A6018AE394E00E942C24812F0E94E7
:10356000480ACE01DF91CF911F91FF90EF90DF903D
:10357000CF900C9402340F931F93CF93DF93C62FF9
:103580000E94C7098C010E94230AD0E0882371F0B1
:10359000B80180913804909139040E948B24BE01B7
:1035A00080913804909139040E94261AB8018AE368
:1035B00094E00E948B24BE018AE394E00E94261AC4
:1035C00081E00E94480AC801DF91CF911F910F91BD
:1035D0000C940234CF92DF92EF92FF926B017C0148
:1035E000E0914A04F0914B0482E08083C11481EEA3
:1035F000D806E104F104B1F060E079E08DE390E0F9
:10360000A70196010E94D338DA01C9010197A109E7
:10361000B109B695A795979587959C01211580E1ED
:103620003807B8F0E0914A04F0914B04108260E84A
:1036300074E88EE190E0A70196010E94D338DA0188
:10364000C9010197A109B109B695A79597958795E5
:103650009C01E0914604F09147043083E0914804D6
:10366000F0914904208310925204E0914E04F091AD
:103670004F0486E08083E0914C04F0914D048081FA
:1036800080618083E0914C04F0914D0480818860DA
:103690008083E0914C04F0914D04808180688083A8
:1036A000E0914C04F0914D0480818F7D8083FF90E8
:1036B000EF90DF90CF900895CF92DF92EF92FF923C
:1036C000CF93DF93EC016B010E94C50A9E01332763
:1036D00090E08217930794F1CE010E94C709EC0194
:1036E0000E94230AE12CF12C882381F0BE018091F5
:1036F0003804909139040E948B2420E1B701A6017F
:1037000080913804909139040E942C24BE018AE3F0
:1037100094E00E948B2420E1B701A6018AE394E0A3
:103720000E942C2480E00E94480ACE01DF91CF91B4
:10373000FF90EF90DF90CF900C940234DF91CF9107
:10374000FF90EF90DF90CF900895CF92DF92EF92AD
:10375000FF92CF93DF93EC016B010E94C50A9E019B
:10376000332790E08217930794F1CE010E94C70996
:10377000EC010E94230AE12CF12C882381F0BE0188
:1037800080913804909139040E948B242AE0B7017B
:10379000A60180913804909139040E942C24BE0126
:1037A0008AE394E00E948B242AE0B701A6018AE311
:1037B00094E00E942C2481E00E94480ACE01DF910F
:1037C000CF91FF90EF90DF90CF900C940234DF9177
:1037D000CF91FF90EF90DF90CF9008951F93CF93FC
:1037E000DF93EC01122FE881F9810190F081E02D47
:1037F0000995E881F9810190F081E02D4FED57E0C6
:1038000060E070E0CE010995CE010E943F09CE0133
:103810000E94D107112351F08A8D9B8D0E94821541
:10382000CD5BDF4F81E090E099838883DF91CF917A
:103830001F9108954F925F926F927F928F929F9205
:10384000AF92BF92CF92DF92EF92FF920F931F93AE
:10385000CF93DF93EC018FA998AD2091360430917E
:10386000370482179307B1F00E94952564E670E053
:1038700080E090E00E94A52A2FA938AD80913604FF
:10388000909137042817390729F062E070E080E052
:1038900090E0F0CF0E94DF2A2B013C016F8B788FE4
:1038A000898F9A8FC0903605D0903705E090380503
:1038B000F09039058F8C98A0A9A0BAA08C0C9D1C03
:1038C000AE1CBF1C8BA69CA6ADA6BEA62BA13CA180
:1038D0004DA15EA1F0913A05E0913B0510913C05A8
:1038E00000913D05211531054105510521F42F2F8A
:1038F0003E2F412F502FA8EEB3E00E94F538860EE0
:10390000971EA81EB91E8FA698AAA9AABAAA809027
:10391000320590903305A0903405B09035052F2FD7
:103920003E2F412F502F0E94F538C80CD91CEA1C9D
:10393000FB1CDC01CB018C0D9D1DAE1DBF1D8FA39B
:1039400098A7A9A7BAA78B8D9C8DAD8DBE8D481A5F
:10395000590A6A0A7B0A84149504A604B70408F07D
:10396000DDC18FA998ADDC01ED91FC910084F1855A
:10397000E02D0995892B09F4BEC08FA998ADDC0113
:10398000ED91FC910084F185E02D0995892B09F4D6
:10399000C5C11E89103118F48A81181720F0CE0194
:1039A0000E948215EACF8FA998ADDC01ED91FC91C0
:1039B0000284F385E02D0995FE01E10FF11D868358
:1039C0009A8191508E89811104C02E81223039F75D
:1039D00075C1981307C0FE01E90FF11D9681933060
:1039E000F1F609C09817D8F28031C8F6891728F483
:1039F0008F5F8E8BC2CF803190F68E010A5F1F4F92
:103A0000E881F9810280F381E02DCE01099540E043
:103A1000BC0185E090E00E94220F40E068E878E079
:103A200085E090E00E94630F0E94C50A853020F176
:103A300078018A8190E09701201B310B2817390704
:103A4000A4F4F701D1907F010E94C50A90E0059788
:103A500024F060E08D2D0E947D1A40E066E878E059
:103A600085E090E00E94630FE4CF41E06AEA73E0F2
:103A700085E090E00E94220FE881F9810190F081B9
:103A8000E02DB801CE0109956B017C01672B682BF5
:103A9000692B21F440E067E578E01EC1E091300435
:103AA000F09131041682158260E080810E94D52950
:103AB000E0913404F0913504168215821086178245
:103AC0001286118645E050E061E070E0CF010E946F
:103AD0002C1AEBEEF4E08FEF94E04191519161915B
:103AE0007191C416D506E606F70609F4EAC08E17EA
:103AF0009F0799F7CFCFCF88D88CE98CFA8C8B8C25
:103B00009C8CAD8CBE8C26013701481859086A0878
:103B10007B082BA13CA14DA15EA1211531054105DA
:103B2000510541F420913A0530913B0540913C0507
:103B300050913D05A8EEB3E00E94F5386415750577
:103B40008605970528F089288A288B2809F0E6C081
:103B50008FA598A9A9A9BAA9C816D906EA06FB068D
:103B600048F48F8D98A1A9A1BAA1892B8A2B8B2B00
:103B700009F086C040E06AE378E085E090E00E94CA
:103B8000630F0B8D1C8D2D8D3E8D011511052105AB
:103B90003105D9F08F89988DA98DBA8DBC01CD01E1
:103BA000601B710B820B930B28EE33E040E050E07A
:103BB0000E94D338BA01A90120E085E090E00E947C
:103BC000361540E064E378E003C040E06EE278E060
:103BD00085E090E00E94630F40E064E278E085E0D9
:103BE00090E00E94630F0F8D18A129A13AA1011541
:103BF000110521053105D9F08F89988DA98DBA8DD0
:103C0000BC01CD01601B710B820B930B28EE33E0DE
:103C100040E050E00E94D338BA01A90120E085E0DD
:103C200090E00E94361540E06EE178E003C040E08D
:103C300068E178E085E090E00E94630F40E06EE08C
:103C400078E085E090E00E94630F0E945A098C01A1
:103C500041E0BC0185E090E00E94220FC8010E9473
:103C600002346D8181E0682785E00E94D5298F8923
:103C7000988DA98DBA8D8F8F98A3A9A3BAA34EC092
:103C80008BA59CA5ADA5BEA5C816D906EA06FB0660
:103C900008F444C06D8185E0DF91CF911F910F91B1
:103CA000FF90EF90DF90CF90BF90AF909F908F905C
:103CB0007F906F905F904F900C94D529911198CE82
:103CC0008ACE8F89988DA98DBA8D8B8F9C8FAD8F61
:103CD000BE8F40E065E778E084E090E00E94630FEB
:103CE00021E0B701A60184E090E00E943615CBAA3E
:103CF000DCAAEDAAFEAACE01DF91CF911F910F9110
:103D0000FF90EF90DF90CF90BF90AF909F908F90FB
:103D10007F906F905F904F900C948215DF91CF91C0
:103D20001F910F91FF90EF90DF90CF90BF90AF90D9
:103D30009F908F907F906F905F904F900895CF925B
:103D4000DF92EF92FF920F931F93CF93DF93EC01DB
:103D5000009100011091010101301105A9F44BA15E
:103D60005CA16DA17EA180913E0590913F05A0913F
:103D70004005B0914105481759076A077B0721F4B0
:103D800060E08DE00E94D52980912E0490912F044F
:103D9000009721F0C817D90709F063C00E94DF2AF5
:103DA000CF8CD8A0E9A0FAA06C197D098E099F09D3
:103DB00028EE33E040E050E00E94D3388BA19CA174
:103DC000ADA1BEA182179307A407B50718F0012B78
:103DD00009F047C0CE010E94D107E881F981008433
:103DE000F185E02D40E050E0BA01CE0109958091C7
:103DF000000190910101892BA1F140E0BE01645EB8
:103E00007F4F85E090E00E94220F41E068EF77E06D
:103E100085E090E00E94630F41E066EE77E084E089
:103E200090E00E94630F41E06AEA73E084E090E072
:103E30000E94220F8BE00E945F2921E0892B09F06C
:103E400020E020932D0410920101109200018FEFC9
:103E500094E00E94EC26882321F08FE793E00E94F3
:103E6000650AE881F9810680F781E02D40E060E095
:103E700070E0CE01DF91CF911F910F91FF90EF90F5
:103E8000DF90CF900994CF92DF92EF92FF920F9341
:103E90001F93CF93DF936C017A018B01C0E0D0E0D8
:103EA000CE15DF0581F0D8016D918D01D601ED9120
:103EB000FC910190F081E02DC6010995892B11F04C
:103EC0002196EECF7E01C701DF91CF911F910F9117
:103ED000FF90EF90DF90CF900895FC01538D448DBB
:103EE000252F30E0842F90E0821B930B541710F0A5
:103EF000CF96089501970895FC01918D828D9817B2
:103F000061F0828DDF01A80FB11D5D968C91928DBD
:103F10009F5F9F73928F90E008958FEF9FEF0895BA
:103F2000FC01918D828D981731F0828DE80FF11D83
:103F3000858D90E008958FEF9FEF0895FC01918D9E
:103F4000228D892F90E0805C9F4F821B91098F7397
:103F5000992708958AE394E00E949E1F21E0892B0F
:103F600009F420E0822F0895FC01848DDF01A80F61
:103F7000B11DA35ABF4F2C91848D90E001968F7391
:103F80009927848FA689B7892C93A089B1898C91B0
:103F9000837080648C93938D848D981306C00288FF
:103FA000F389E02D80818F7D80830895EF92FF92C9
:103FB0000F931F93CF93DF93EC0181E0888F9B8D4C
:103FC0008C8D981305C0E889F989808185FD26C00C
:103FD000F62E0B8D10E00F5F1F4F0F731127E02E91
:103FE0008C8DE8120CC00FB607FCFACFE889F9896E
:103FF000808185FFF5CFCE010E94B41FF1CF8B8D5C
:10400000FE01E80FF11DE35AFF4FF0829FB7F894CD
:104010000B8FEA89FB89808180620AC09FB7F89480
:10402000EE89FF896083E889F989808183708064E3
:1040300080839FBF81E090E0DF91CF911F910F912E
:10404000FF90EF900895CF93DF93EC01888D882344
:10405000C9F0EA89FB89808185FD05C0A889B989F5
:104060008C9186FD0FC00FB607FCF5CF808185FFD0
:10407000F2CFA889B9898C9185FFEDCFCE010E943E
:10408000B41FE7CFDF91CF91089580E090E0892BB6
:1040900029F00E94AA1F81110C940000089520911C
:1040A0003604309137042817390771F49091A00530
:1040B00080919F05981741F0E091A005F0E0E15A4A
:1040C000FA4F808190E008958FEF9FEF0895089553
:1040D0001F93CF93DF93DC015C968D919C915D974C
:1040E000009739F421E030E013963C932E93129719
:1040F0003BC05196ED91FC91529750962C91509760
:10410000322F30951FB75E964C915E97742F727068
:1041100041FD6095F8944081772311F0422B01C056
:1041200043234083EC012197F1F748E0508160FF81
:1041300002C0522B01C053235083EC012197F1F7A9
:104140006695415099F78081772319F08323808306
:1041500002C0282B20831FBF5C968D919C915D9798
:104160000197F1F781E090E0DF91CF911F910895E1
:1041700020913604309137042817390771F4809163
:104180009F052091A00590E0805C9F4F821B9109C4
:1041900060E470E00E944639089580E090E0089560
:1041A000209136043091370428173907B9F49091DB
:1041B000A00580919F05981789F0E091A005F0E097
:1041C000E15AFA4F80812091A00530E02F5F3F4FE8
:1041D0002F7333272093A00590E008958FEF9FEF72
:1041E0000895089580E090E008950E949339611544
:1041F000710579F0FB0101900020E9F73197AF01DB
:10420000461B570BDC01ED91FC910280F381E02D00
:10421000099480E090E00895CF93DF93EC01CB0107
:104220004AE050E060E070E00E948B34C85ADF4FF3
:104230006883DF91CF910895CF93DF93EC01CB0199
:104240004AE050E060E070E00E948B34C95ADF4FD2
:1042500021E0672B682B692B09F420E02883DF918C
:10426000CF910895CF93DF93EC01CB014AE050E06A
:1042700060E070E00E948B34CB5ADF4F7983688313
:10428000DF91CF910895CF93DF93EC01CB014AE00A
:1042900050E060E070E00E948B34CD5ADF4F7983AC
:1042A0006883DF91CF910895CF93DF93EC01CB0129
:1042B0004AE050E060E070E00E948B34C15BDF4F69
:1042C000688379838A839B83DF91CF910895CF930D
:1042D000DF93EC01CB014AE050E060E070E00E9427
:1042E0008B34C55BDF4F688379838A839B83DF913F
:1042F000CF910895CF93DF93EC01CB014AE050E0DA
:1043000060E070E00E948B34C95BDF4F6883798383
:104310008A839B83DF91CF910895CF93DF93EC0144
:10432000CB014AE050E060E070E00E948B34CA5B51
:10433000DF4F6883DF91CF910895CF93DF93EC0136
:10434000CB014AE050E060E070E00E948B34CB5B30
:10435000DF4F6883DF91CF910895CF93DF93EC0116
:10436000CB014AE050E060E070E00E948B34CD5B0E
:10437000DF4F79836883DF91CF910895CF93DF93E7
:10438000EC01CB014AE050E060E070E00E948B3429
:10439000FE01FF966A3071058105910528F0608362
:1043A00071838283938308C08AE090E0A0E0B0E04C
:1043B00080839183A283B383DF91CF910895CF93BC
:1043C000DF93EC01CB014AE050E060E070E00E9436
:1043D0008B346BAF7CAF8DAF9EAFDF91CF910895E3
:1043E000CF93DF93EC01CB014AE050E060E070E056
:1043F0000E948B346FAB78AF89AF9AAFDF91CF91CA
:104400000895CF93DF93EC01CB014AE050E060E0E8
:1044100070E00E948B346BAB7CAB8DAB9EABDF91BD
:10442000CF910895CF93DF93EC01CB014AE050E0A8
:1044300060E070E00E948B346FA778AB89AB9AABD9
:10444000DF91CF910895885A9F4FFC0180811F9280
:104450008F938BE893E09F938F937F936F930E944A
:10446000F0390F900F900F900F900F900F900895CC
:10447000895A9F4FFC0180811F928F9380E993E0BE
:104480009F938F937F936F930E94F0390F900F90BB
:104490000F900F900F900F900895FC01EB5AFF4F73
:1044A00081818F9380818F9380E993E09F938F9395
:1044B0007F936F930E94F0390F900F900F900F90A1
:1044C0000F900F900895FC01ED5AFF4F81818F935B
:1044D00080818F9380E993E09F938F937F936F9375
:1044E0000E94F0390F900F900F900F900F900F9047
:1044F0000895FC01E15BFF4F83818F9382818F934D
:1045000081818F9380818F9383E993E09F938F9331
:104510007F936F930E94F0398DB79EB708960FB6C0
:10452000F8949EBF0FBE8DBF0895FC01E55BFF4F61
:1045300083818F9382818F9381818F9380818F93E9
:1045400083E993E09F938F937F936F930E94F03959
:104550008DB79EB708960FB6F8949EBF0FBE8DBF5D
:104560000895FC01E95BFF4F83818F9382818F93D4
:1045700081818F9380818F9383E993E09F938F93C1
:104580007F936F930E94F0398DB79EB708960FB650
:10459000F8949EBF0FBE8DBF08958A5B9F4FFC01AC
:1045A0002081822F90E001978330910540F4880F9D
:1045B000991FFC01E656FE4F8081918102C087E978
:1045C00093E09F938F931F922F938DE993E09F9396
:1045D0008F937F936F930E94F0398DB79EB70896A3
:1045E0000FB6F8949EBF0FBE8DBF08958B5B9F4F93
:1045F000FC0180811F928F9385EA93E09F938F93B4
:104600007F936F930E94F0390F900F900F900F904F
:104610000F900F900895FC01ED5BFF4F81818F9308
:1046200080818F9380E993E09F938F937F936F9323
:104630000E94F0390F900F900F900F900F900F90F5
:104640000895FC01FF9623812F9322812F932181CE
:104650002F93FC0187AD8F9389E192E09F938F9315
:104660007F936F930E94F0398DB79EB708960FB66F
:10467000F8949EBF0FBE8DBF0895FC0186AD8F9349
:1046800085AD8F9384AD8F9383AD8F9389E192E055
:104690009F938F937F936F930E94F0398DB79EB74E
:1046A00008960FB6F8949EBF0FBE8DBF0895FC010B
:1046B00082AD8F9381AD8F9380AD8F9387A98F93B8
:1046C00089E192E09F938F937F936F930E94F039DB
:1046D0008DB79EB708960FB6F8949EBF0FBE8DBFDC
:1046E0000895FC0186A98F9385A98F9384A98F9340
:1046F00083A98F9389E192E09F938F937F936F9328
:104700000E94F0398DB79EB708960FB6F8949EBFF9
:104710000FBE8DBF0895FC0182A98F9381A98F934D
:1047200080A98F9387A58F9389E192E09F938F93C0
:104730007F936F930E94F0398DB79EB708960FB69E
:10474000F8949EBF0FBE8DBF08959091020189130A
:1047500024C0E8EBFAE0E4919FEF90930201E1308E
:10476000B9F098F0E230C9F4909170009D7F909379
:10477000700091E09093B0009091B100987F9460A8
:104780009093B1001092B30008C010926E0005C063
:1047900090916F009D7F90936F0060E00C94D529FD
:1047A0001F920F920FB60F9211242F933F934F93A6
:1047B0005F936F937F938F939F93AF93BF93EF9389
:1047C000FF9380915B0590915C05A0915D05B09190
:1047D0005E05892B8A2B8B2B51F190915A05E09124
:1047E0005805F091590580818927808380915B0568
:1047F00090915C05A0915D05B0915E0518161906B3
:104800001A061B06C4F480915B0590915C05A0918B
:104810005D05B0915E050197A109B10980935B0523
:1048200090935C05A0935D05B0935E0504C08091F4
:1048300002010E94A523FF91EF91BF91AF919F913B
:104840008F917F916F915F914F913F912F910F9039
:104850000FBE0F901F9018958F929F92AF92BF92AC
:10486000EF92FF920F931F93CF93DF93CDB7DEB7F5
:10487000A1970FB6F894DEBF0FBECDBF7C01FA0141
:10488000CB0119A2223008F42AE08E010F5D1F4FE0
:10489000822E912CA12CB12CBF01A50194010E9464
:1048A000D338F901CA01015011096A3014F4605D6E
:1048B00001C0695CD8016C93232B242B252B61F755
:1048C000B801C7010E94F720A1960FB6F894DEBF89
:1048D0000FBECDBFDF91CF911F910F91FF90EF9051
:1048E000BF90AF909F908F90089568EA73E00C940A
:1048F000F7200F931F93CF93DF93EC010E94F720D3
:104900008C01CE010E947524800F911FDF91CF9101
:104910001F910F9108950C94F720EF92FF920F933F
:104920001F93CF93DF938C017B01C0E0D0E0F701B0
:10493000EC0FFD1F6491662361F0D801ED91FC91AD
:104940000190F081E02DC8010995892B11F0219685
:10495000EECFCE01DF91CF911F910F91FF90EF909D
:1049600008950F931F93CF93DF93EC010E948D2442
:104970008C01CE010E947524800F911FDF91CF9191
:104980001F910F9108951F920F920FB60F9211244D
:104990002F933F934F935F936F937F938F939F9347
:1049A000AF93BF93EF93FF938AE394E00E94B41F09
:1049B000FF91EF91BF91AF919F918F917F916F91F7
:1049C0005F914F913F912F910F900FBE0F901F90CD
:1049D00018951F920F920FB60F9211242F938F9359
:1049E0009F93EF93FF93E0914A04F0914B048081F1
:1049F000E0915004F091510482FD12C090818091A9
:104A000053048F5F8F7320915404821751F0E0910B
:104A10005304F0E0E65CFB4F958F8093530401C094
:104A20008081FF91EF919F918F912F910F900FBEF9
:104A30000F901F9018951F920F920FB60F9211248E
:104A40002F933F934F935F936F937F938F939F9396
:104A5000AF93BF93EF93FF93E0913604F091370447
:104A6000309709F451C0968DA685B785858591FF4D
:104A700004C09C91892329F447C09C91892309F0A3
:104A800043C0A389B4899C918589809589238C939F
:104A9000868997890197F1F7608D718DA685B78515
:104AA000558538E020E0CB010197F1F7822F90E0A7
:104AB00095958795282F4C91452309F02068315012
:104AC00091F7868D81FD209580919F0590E001965C
:104AD0008F7399273091A005381749F0A0919F0551
:104AE000B0E0A15ABA4F2C9380939F0503C0868DE6
:104AF0008160868F828D938D0197F1F7A389B489A8
:104B00009C918589892B8C93FF91EF91BF91AF91F7
:104B10009F918F917F916F915F914F913F912F91D5
:104B20000F900FBE0F901F901895CF93DF93FC014D
:104B3000828D938D892B31F1A0913604B091370489
:104B4000EA17FB07F9F0109751F05396CD91DC91DD
:104B50005497988155968C91809589238883868D6A
:104B60008E7F868F10929F051092A005F0933704D8
:104B7000E0933604A389B4899C918589892B8C9311
:104B800081E001C080E0DF91CF910895CF93FC01D7
:104B90004281538113821282DC01BC01685D7F4F28
:104BA00080E090E02C9130E0322F22271196CC91BA
:104BB00011972C2B8227932712966A177B0791F760
:104BC00053834283CF910895EF92FF920F931F93E7
:104BD000CF937C010E94C6258C01F70182819381CD
:104BE0000817190731F4C1E0C80101978E3F9F4FA4
:104BF00008F0C0E040E06BEA73E086E090E00E94DD
:104C0000220FF7016281738186E090E00E945C1BB5
:104C100040E06CEC73E086E090E00E94220FB80167
:104C200086E090E00E945C1B40E065ED73E086E06A
:104C300090E00E94220F0E94C50A90E006972CF097
:104C40006C2F86E090E00E94BB1A8C2FCF911F91B1
:104C50000F91FF90EF900895CF93DF93EC018CEBD1
:104C600092E0998388831B821A8240E150E065EECE
:104C700073E0CE0104960E94B335649684E1FE0190
:104C800011928A95E9F7DF91CF910895CF92DF9243
:104C9000EF92FF920F931F93CF93DF93CDB7DEB7C1
:104CA000EE970FB6F894DEBF0FBECDBF8C017A0130
:104CB00023E2CE0101966C01FC01822F11928A95AC
:104CC000E9F7CB010197289FB001299F700D1124AE
:104CD0006555774F43E250E0C6010E94AA35CE01E8
:104CE00084962BE1FC0111922A95E9F7B6010E9406
:104CF000AA39E8A1F9A1309719F48AA180FF15C05B
:104D00002AA13BA1C9019595879520FF0AC0D8012A
:104D1000A80FB91F2D913C91E20FF31F0190F08174
:104D2000E02DB701800F911F0995EE960FB6F8940C
:104D3000DEBF0FBECDBFDF91CF911F910F91FF90CE
:104D4000EF90DF90CF900895EF92FF920F931F9313
:104D5000CF937C010E94F90E8C01F701828193812F
:104D60000817190731F4C1E0C80101978E3F9F4F22
:104D700008F0C0E040E06BEA73E086E090E00E945B
:104D8000220FF7016281738186E090E00E945C1B34
:104D900040E06CEC73E086E090E00E94220FB801E6
:104DA00086E090E00E945C1B40E065ED73E086E0E9
:104DB00090E00E94220F0E94C50A90E006972CF016
:104DC0006C2F86E090E00E94BB1A8C2FCF911F9130
:104DD0000F91FF90EF9008958BE00E945F29892B3F
:104DE00019F080912D04089581E00895833081F0B9
:104DF00028F4813099F08230A1F008958730A9F02D
:104E00008830B9F08430D1F4809180008F7D03C068
:104E1000809180008F7780938000089584B58F778C
:104E200002C084B58F7D84BD08958091B0008F77D6
:104E300003C08091B0008F7D8093B00008953FB78C
:104E4000F8948091A5059091A605A091A705B09131
:104E5000A80526B5A89B05C02F3F19F00196A11DF6
:104E6000B11D3FBFBA2FA92F982F8827820F911D00
:104E7000A11DB11DBC01CD0142E0660F771F881F47
:104E8000991F4A95D1F708952FEF3FEF80E090E00A
:104E9000FC01EE0FFF1FEE0FFF1FE551FB4F40819E
:104EA000518162817381411551056105710531F4AC
:104EB0002F3F4FEF3407D9F49C0119C00097B9F088
:104EC0002F3FAFEF3A0799F0D901AA0FBB1FAA0FE6
:104ED000BB1FA551BB4F4D935D936D937C9313976F
:104EE0001082118212821382C9012FEF3FEF0196C7
:104EF000853091056CF20895CF93DF93EC019A0110
:104F0000AB011B8E1A8E198E188E1F8A1E8A60E0C6
:104F100079E08DE390E00E945A39F901243031059F
:104F200018F0C901039702C081E090E09D8F8C8F3B
:104F30006C85663108F06AC0C90196958795843101
:104F4000910510F0439702C081E090E09F8B8E8B1B
:104F5000369718F0C901059702C081E090E0998F5B
:104F6000888FC901880F991F280F391F36952795FB
:104F7000369527952D30310518F02C50310902C097
:104F800021E030E03B8F2A8F30916800683058F084
:104F900021E06E3008F420E091E0892F01C0880FF5
:104FA0002A95EAF701C084E0832B809368009C85F2
:104FB000983038F09E3040F0963148F020E030E0F4
:104FC00008C02DE630E005C02BE630E002C02CE63C
:104FD00030E03C8B2B8B983030F481E001C0880F9F
:104FE0009A95EAF70EC0292F30E09E3018F4285029
:104FF000310902C02E50310981E001C0880F2A9585
:10500000EAF78D8B8C8D9D8D0197F1F7CE01DF91A5
:10501000CF910C949525CF92DF92EF92FF920F9350
:10502000CF93DF93EC0169017A01FB018081882332
:1050300021F0888D998D0E948B24202FB701A60125
:10504000CE010E94EE1B62EF7CE0888D998DDF918E
:10505000CF910F91FF90EF90DF90CF900C948D2423
:105060000F93CF93DF93EC01E881F9810084F18500
:10507000E02D40E050E0BA0109952CE337E040E034
:1050800050E000E06AEE73E0CE010E940B28DF9151
:10509000CF910F9108952F923F924F925F926F920E
:1050A0007F928F929F92AF92BF92CF92DF92EF92B8
:1050B000FF920F931F93CF93DF93CDB7DEB7AF97D8
:1050C0000FB6F894DEBF0FBECDBF7C0184EDC82EB5
:1050D0008BE0D82E00E010E09AE1292ECE01019657
:1050E0004C0123E1322E2E019DE1490E511C3CEC76
:1050F000632E3BE0732E5E01EBE1AE0EB11CF401BA
:10510000822D11928A95E9F74AE150E0B601C40177
:105110000E94AA351C8E1B8EF201832D11928A9556
:10512000E9F79F928F921F930F937F926F92BF9296
:10513000AF920E94F735B501F701808D918D0E94E5
:1051400079240F5F1F4FFAE1CF0ED11C0FB6F894F0
:10515000DEBF0FBECDBF0B30110589F66AEA73E0E2
:10516000F701808D918D0E947924C7010E9430281B
:10517000AF960FB6F894DEBF0FBECDBFDF91CF91D3
:105180001F910F91FF90EF90DF90CF90BF90AF9065
:105190009F908F907F906F905F904F903F902F9057
:1051A00008955F926F927F928F929F92AF92BF927B
:1051B000CF92DF92EF92FF920F931F93CF93DF93E3
:1051C000CDB7DEB76B970FB6F894DEBF0FBECDBF7D
:1051D0003C016DEB7BE00E948D244091D9045091FD
:1051E000DA0460E070E020E1C3010E942C2465EB4A
:1051F0007BE0C3010E948D242AE042E050E060E0A1
:1052000070E0C3010E942C24C3010E9475248BEE20
:10521000E82E84E0F82E01E010E099E1592E4E01CD
:1052200023E0820E911C22EAC22E2BE0D22ECE0168
:1052300001965C01F70181919191A191B1917F015A
:105240000097A105B10501F11A821982F401252DFB
:1052500011922A95E9F7BF93AF939F938F93BF93D2
:10526000AF939F938F931F930F93DF92CF92BF9231
:10527000AF920E94F735B501C3010E9479240FB6A1
:10528000F894DEBF0FBECDBF0F5F1F4F0630110574
:1052900089F66B960FB6F894DEBF0FBECDBFDF91D7
:1052A000CF911F910F91FF90EF90DF90CF90BF9023
:1052B000AF909F908F907F906F905F900895CF9365
:1052C000DF93282F30E0F901ED53F54F8491F90178
:1052D000E35EF24FD491F901E75FF24FC491CC2322
:1052E00091F081110E94F626EC2FF0E0EE0FFF1FE7
:1052F000EB50F34FA591B491EC91ED2381E090E058
:1053000021F480E002C080E090E0DF91CF91089529
:105310000F931F93CF93DF93EC016091540570912D
:1053200055050E94B707CE010E94D1078E01045E89
:105330001F4F6DE972E0C8010E94A139892B41F12C
:105340006DE172E0C8010E94A139892B49F58AE01C
:105350000E945F29892BE1F461E37DE0888D998DBE
:105360000E948D246AE472E0888D998D0E948B24BE
:1053700060E272E0888D998D0E948B246DEF73E05E
:10538000888D998D0E947924888D998D0E9475242D
:105390004CE357E060E070E020E0CE010E94EE1B9D
:1053A000DF91CF911F910F9108951F93CF93DF93BA
:1053B000282F30E0F901ED53F54F8491F901E35EB8
:1053C000F24FD491F901E75FF24FC491CC23C1F0C1
:1053D000162F81110E94F626EC2FF0E0EE0FFF1F32
:1053E000E150F34FA591B4919FB7F894111104C007
:1053F0008C91D095D82302C0EC91DE2BDC939FBF1B
:10540000DF91CF911F910895CF93DF9390E0FC013E
:10541000E35EF24F2491FC01E75FF24F8491882311
:1054200061F190E0880F991FFC01E754F54FC59199
:10543000D491FC01E150F34FA591B491611109C0E1
:105440009FB7F8948881209582238883EC912E233E
:105450000BC0623061F49FB7F8948881322F309589
:1054600083238883EC912E2B2C939FBF06C08FB78C
:10547000F894E8812E2B28838FBFDF91CF91089578
:105480000F931F93CF93DF93EC01162F042F1B82F2
:105490001A8288EE93E0A0E0B0E08C839D83AE8317
:1054A000BF8384EA91E0998388831F8A1E8A198EBC
:1054B000188E1B8E1A8E1D8E1C8E6E8D6E7F6D7FCC
:1054C0006E8F6695617081E06827842F0E94D529D0
:1054D00061E0802F0E94042A802F90E0FC01E35EAF
:1054E000F24FE491E88BFC01E75FF24FE491F0E0CA
:1054F000EE0FFF1FE150F34F859194919A8B898BAA
:1055000060E0812F0E94042A8E8D81FD04C061E03D
:10551000812F0E94D5291C87812F90E0FC01E35E3A
:10552000F24FE491ED87FC01E75FF24FE491F0E088
:10553000EE0FFF1FEB50F34F859194919F878E875D
:10554000DF91CF911F910F9108958F929F92AF920B
:10555000BF92CF92DF92EF92FF926B017C010E948B
:105560001F274B015C01C114D104E104F104F1F0E7
:105570000E941F27DC01CB0188199909AA09BB09E0
:10558000883E9340A105B10570F321E0C21AD1080D
:10559000E108F10888EE880E83E0981EA11CB11C7A
:1055A000C114D104E104F10419F7DDCFFF90EF90AD
:1055B000DF90CF90BF90AF909F908F9008952FB7BE
:1055C000F8946091A1057091A2058091A305909136
:1055D000A4052FBF0895EF92FF920F931F93CF93CF
:1055E000DF93EC01142F052F7901798368831E82E4
:1055F0001D8218861F821A8619861C861B860E94A9
:10560000DF2A6D877E878F87988B198A1A8A1B8A73
:105610001C8AFE8AED8A188E1F8A8EE491E09A8F8A
:10562000898FFE017B9688E0DF011D928A95E9F75C
:105630000F931F9383E194E09F938F931F9283E0D6
:105640008F93CE0102969F938F930E94C03961E0A1
:1056500088810E94042A8DB79EB708960FB6F894E9
:105660009EBF0FBE8DBF60E08881DF91CF911F91FB
:105670000F91FF90EF900C94D529EF92FF920F932A
:105680001F93CF93DF9300D0CDB7DEB70E9444279E
:105690000091D7041091D80441E06CE87BE086E0EB
:1056A00090E00E94630F17FD04C01093D80400938C
:1056B000D70440E06AE77BE085E090E00E94630F5A
:1056C00040E06BED74E085E090E00E94220F40E046
:1056D0006CE67BE085E090E00E94630F6091D70468
:1056E0007091D80440E085E090E00E94190E40E0FF
:1056F00060E67BE085E090E00E94630F68E270E086
:1057000085E090E00E94A51B87ED94E00E94E425CF
:1057100041E0882351F06BEE7AE085E090E00E9452
:10572000630F41E067ED7AE02BC06BE27BE085E040
:1057300090E00E94630F87ED94E00E94C62590934D
:10574000DA048093D9048091D7049091D80407EDAE
:1057500014E09C01275D34407901C701800F911F3F
:10576000F80161918F019A838983CE0101960E948D
:105770005A0EF4E00F3F1F0781F741E067E17BE03D
:1057800086E090E00E94630F0F900F90DF91CF9121
:105790001F910F91FF90EF9008951F920F920FB6F7
:1057A0000F9211242F933F938F939F93AF93BF93A7
:1057B0008091A1059091A205A091A305B091A405A7
:1057C0003091A90523E0230F2D3720F40196A11D68
:1057D000B11D05C026E8230F0296A11DB11D20931F
:1057E000A9058093A1059093A205A093A305B0936A
:1057F000A4058091A5059091A605A091A705B0915B
:10580000A8050196A11DB11D8093A5059093A6053D
:10581000A093A705B093A805BF91AF919F918F91D9
:105820003F912F910F900FBE0F901F901895CF931F
:10583000DF93CDB7DEB7C955D1090FB6F894DEBFF7
:105840000FBECDBF789484B5826084BD84B581607D
:1058500084BD85B5826085BD85B5816085BD80913B
:105860006E00816080936E001092810080918100B3
:1058700082608093810080918100816080938100AB
:10588000809180008160809380008091B10084606D
:105890008093B1008091B00081608093B0008091CE
:1058A0007A00846080937A0080917A00826080938D
:1058B0007A0080917A00816080937A0080917A00EA
:1058C000806880937A001092C10062E08AE00E94B2
:1058D000042A62E08BE00E94042A61E085E00E94D5
:1058E000042A61E08DE00E94042A61E08DE00E94BC
:1058F000D5298BE00E945F2921E0892B09F020E067
:1059000020932D048FE190E00E946A338C0143E0E4
:1059100062E00E94402A1093390400933804609199
:1059200046057091470580914805909149050E9470
:10593000EA1A40914A0550914B0560914C057091CF
:105940004D0580913804909139040E947C2769E1CB
:1059500070E080E090E00E94A52A41E06AE975E0ED
:1059600084E090E00E94630F41E067E775E084E027
:1059700090E00E94630F8FEF94E00E94EC26882352
:1059800021F083E292E00E94650A41E06AE573E05B
:1059900085E090E00E94630F8BE00E945F2941E068
:1059A000892B19F469E473E084C062EE72E085E04B
:1059B00090E00E94630FCE0101960E94C0149E01E8
:1059C0002F5F3F4F790100E213E0C8010E94AD381C
:1059D000D7018D937D010F5F1F4F0937B3E01B0780
:1059E000A1F7CE0101960E94A426182F40E06AEC90
:1059F00072E086E090E00E94630F41E060E273E0B5
:105A000086E090E00E94190E40E067EA72E086E0CE
:105A100090E00E94630F40E0BE016B5F7F4F86E025
:105A200090E00E94220F41E068E472E086E090E09E
:105A30000E94220F40E06AE872E086E090E00E9457
:105A4000630F69E570E086E090E00E94A51B40E0EE
:105A500067E772E086E090E00E94630F69E570E01E
:105A600086E090E00E94A51B112351F089E5FE011C
:105A70003196AFEFB4E001900D928A95E1F707C03F
:105A800041E065E572E083E090E00E94630F80E210
:105A900093E0909300058093FF0441E061E472E09D
:105AA00086E090E00E94630F111108C041E069E2B6
:105AB00073E083E090E00E94630FB1C48BE00E942A
:105AC0005F29892B09F4ABC440E068EF72E084E001
:105AD00090E00E94630F40E063E175E084E090E0B5
