:100000000C9441060C9469060C9469060C947E17B6
:100010000C947E170C947E170C9469060C942E1683
:100020000C9469060C9469060C9469060C94690694
:100030000C9469060C9469060C9469060C94690684
:100040000C94AF2C0C9469060C944C170C94261746
:100050000C9469060C9469060C9469060C94690664
:100060000C9469060C9469064374726C2063616C8D
:100070006C696E6720454550524F4D2E7570646116
:10008000746520772F73746174653A20002920000D
:10009000465245452052414D2028002530326C699A
:1000A0003A2530326C693A2530326C692E252D3371
:1000B0006C69002573464154414C3A200025734534
:1000C00052524F523A200025735741524E3A200067
:1000D00025732020004D656E75206C697374656E04
:1000E00000616464546167282920737563636573D4
:1000F00073006164645461672829206661696C65D6
:10010000643A20447570650061646454616728290D
:10011000206661696C65643A2046756C6C006164A8
:100120006454616728292061626F727465643A20A3
:10013000496E76616C696420636F64650061646414
:1001400054616728292000746167206973206475F1
:10015000706C696361746500746167206C697374A5
:100160002069732066756C6C00696E76616C6964D9
:10017000207461672D696420737472696E670073FF
:100180007563636573730041646454616728292053
:10019000726573756C743A200054616720656E74E3
:1001A000657265643A200064656C657465546167C6
:1001B000496E64657828293A200064656C65746529
:1001C000546167282920726573756C743A20006445
:1001D000656C65746554616728292061626F72746B
:1001E00065640064656C657465416C6C546167732B
:1001F00028290064656C657465416C6C5461677393
:1002000028292061626F727465640075706461747E
:100210006553657474696E6728292061626F727412
:10022000656400456E746572206F72207363616E41
:10023000206120746167206E756D62657220746F35
:100240002073746F72650046726565204D656D6F31
:1002500072793A200053747267204C6F61642829C8
:1002600020636865636B73756D206D69736D617470
:100270006368005573696E672073746F72656420DC
:1002800073657474696E67732027005573696E67B0
:100290002064656661756C742073657474696E673B
:1002A0007320270053746E67204C6F6164282920E7
:1002B00063686B736D206D69736D6174636800466C
:1002C00061696C7361666520656E61626C6564006E
:1002D00053746E67204C6F6164282920424547495A
:1002E0004E0053657474696E67206F757470742066
:1002F0007377697463683A20002C206F75742070DE
:10030000696E20002C207374617465200053746141
:100310007274696E6720436F6E74726F6C6C657275
:100320002077697468200053747267204C6F616491
:10033000282920636865636B73756D206D69736D23
:10034000617463680054616773206C6F61646564F5
:1003500000546167732E4C6F6164282920636865BF
:10036000636B73756D206D69736D61746368004DA7
:10037000656E752E426567696E282900506173733A
:10038000004652455348004672657368004147492C
:100390004E47004167696E670054494D454F5554BB
:1003A0003A2067656E6572616C0054696D656F75A2
:1003B000743A67656E6572616C0054494D454F55DE
:1003C000543A20737461727475700054696D656F6E
:1003D00075743A6772616365002A202A006D735351
:1003E000696E63654C617374506F776572437963AE
:1003F0006C65282920006D7353696E63654C6173C9
:100400007454616752656164282920006C617374BB
:100410005F706F7765725F6379636C655F6D732082
:10042000007461675F6C6173745F726561645F6DB6
:100430007320002A20436F6E74726F6C6C6572209B
:100440002A00256C7500256C7500256C7500256CDF
:100450007500256C75002569002575002569202823
:1004600025732900256C6900256C6900256C6900DD
:100470002569002569002569002568687500256CD7
:1004800075002A2A2A2A2A00537461727475702012
:10049000737461746500000000000000000000003B
:1004A000000000381400008B150000537461727452
:1004B00075702074696D656F757400000000000030
:1004C0000000000000007A130000101500004164D5
:1004D0006D696E2074696D656F75740000000000B1
:1004E0000000000000000000004E1400009C1500F9
:1004F00000536F66742074696D656F757400000039
:100500000000000000000000000000006A1400006D
:10051000BE150000486172642074696D656F757462
:10052000000000000000000000000000000000BA11
:10053000140000F21500005265616465720000004D
:1005400000000000000000000000000000000000AB
:100550000000FA1300006B150000526561646572BB
:10056000206379636C65206D6178000000000000F5
:10057000000000000036130000D414000052656132
:10058000646572206379636C65206C6F7720286DD9
:10059000732900000000000086140000D015000040
:1005A000546167207265616420736C6565702028F2
:1005B0006D73290000000000000000A0140000E19D
:1005C0001500004C6F67206C6576656C00000000BC
:1005D00000000000000000000000000000005013B8
:1005E0000000EA1400004C6F6720746F2042540032
:1005F00000000000000000000000000000000000FB
:100600000065130000FA1400004465627567206CF1
:100610006F67206C6576656C0000000000000000CC
:1006200000000000231400007B15000048572073D1
:10063000657269616C2062617564000000000000F1
:1006400000000000000000DE13000058150000420A
:10065000542073657269616C2062617564000000EA
:1006600000000000000000000000C213000045155B
:1006700000005265616465722073657269616C2067
:1006800062617564000000000000000000A6130015
:100690000032150000546F6E6520667265710000AF
:1006A000000000000000000000000000000000004A
:1006B000901300002115000041646D696E20706187
:1006C0007373776F72640000000000000000000088
:1006D00000000029130000191300000225326920D0
:1006E00020252D323873202573002C2073697A65FC
:1006F000200053657474696E67732C2063686B7394
:100700006D2030780053656C6563742061207365DB
:100710007474696E6720746F20656469740054791D
:1007200070652061206E65772076616C7565206646
:100730006F722073657474696E67003A20005361AC
:1007400076652073657474696E67733F205B592FFB
:100750006E5D00454550524F4D2075706461746563
:100760006400454550524F4D20757064617465209A
:100770006E6F74206E656365737361727900537474
:100780006E672073617665282920726573756C74B5
:100790003A200043616C6C696E6720532E7361765A
:1007A0006528290025326920202573202025730023
:1007B000526561646572730053656C656374206192
:1007C000207265616465720053656C65637465646D
:1007D0003A2000456E7465722041542B20636F6D82
:1007E0006D616E64004E2F41004C6F6164696E67ED
:1007F000207265616465723A20004261736520521F
:1008000065616465722063616C6C65642070726FF1
:100810006365737354616744617461002074616738
:1008200020726561643A20002070726373207461E5
:100830006720696E70743A200020746167207265C9
:1008400061643A20002C20636865636B73756D20CA
:1008500028646563293A20002C2069645F6C656E0A
:100860003A20002C2069645F656E643A2000696458
:100870005F626567696E3A2000207072637320744E
:10088000616720696E70743A200020726561643A75
:1008900020002C20636865636B73756D2028686584
:1008A00078293A20002C2069645F6C656E3A20003C
:1008B0002C2069645F656E643A200069645F62653C
:1008C00067696E3A2000207072637320746167203C
:1008D000696E70743A200000000000230026002991
:1008E0000000000000250028002B0004040404047C
:1008F00004040402020202020203030303030301CD
:1009000002040810204080010204081020010204A3
:10091000081020524649442061646D696E20636F5F
:100920006E736F6C652C200050617373776F726407
:10093000003A2000456E746572696E672072756EAC
:10094000206D6F6465002073657474696E67205252
:10095000756E4D6F646520746F2030006379636C31
:1009600065526561646572506F776572204C4F57B0
:10097000002C20696E74657276616C20006E65765D
:10098000657200732061676F002C206379636C656A
:100990006420006E6576657200732061676F006386
:1009A00079636C65526561646572506F776572201A
:1009B00074616720726561642000546167206E6F06
:1009C000742076616C69642F617574686F72697ADE
:1009D00065643A2000417574686F72697A656420B5
:1009E0007461673A200020002070726F6365737332
:1009F0005461672072637664206275666665723A38
:100A00002030782000290028002C200052656164E5
:100A100065722E706F6C6C526561646572206E61D8
:100A20006D652C206C656E3A20005245414445525C
:100A3000204C4F4F5020454E4420006379636C6535
:100A40004869676846696E6973684D732000637909
:100A5000636C655F6C6F775F66696E6973685F6D05
:100A6000732000706F7765725F6379636C655F6890
:100A70006967685F6475726174696F6E5F6F7665D0
:100A800072726964652000706F7765724379636C78
:100A900065486967684475726174696F6E20006D9E
:100AA0007353696E63654C617374506F77657243FD
:100AB00079636C6520006C6173745F706F77657229
:100AC0005F6379636C655F6D7320006D7353696E4E
:100AD00063654C617374546167526561642000748E
:100AE00061675F6C6173745F726561645F6D7320D1
:100AF00000524541444552204C4F4F5020424547FB
:100B0000494E2000526561646572206C697374659A
:100B10006E0000000000240027002A0000000008EA
:100B200000020100000304070000000000000000B4
:100B30002532692020257300457869740000000083
:100B400000000000000000005407000000004164A5
:100B50006420746167000000000000000000CD0602
:100B60000000000044656C657465207461670000D6
:100B700000000000A5060000000044656C65746577
:100B800020616C6C2074616773007D0600000000BA
:100B90004C697374207461677300000000000000EA
:100BA0006B06000000004C69737420526561646537
:100BB000727300000000D01B0000000053686F77C4
:100BC0002066726565206D656D000000D10800002B
:100BD0000000425420636F6D6D616E640000000080
:100BE0000000641B0000000053657474696E677335
:100BF0000000000000000000401D000000005361E4
:100C000076652073657474696E6773000000C41B99
:100C100000000000526573746172740000000000EF
:100C200000000000B81A00000000454550524F4D2A
:100C3000207570646174656400454550524F4D20C5
:100C4000757064617465206E6F74206E6563657382
:100C500073617279002532692020252D31306C7541
:100C600020203078256C78002C2073697A6520006C
:100C7000546167732C2063686B736D2030780000BB
:100C8000183411241FBECFEFD8E0DEBFCDBF12E075
:100C9000A0E0B1E0ECE0F6E702C005900D92A43EC2
:100CA000B107D9F724E0A4EEB2E001C01D92AD383F
:100CB000B207E1F716E0C1E4D6E004C02197FE01D7
:100CC0000E947F3AC034D107C9F70E94DC2D0C94F2
:100CD000043B0C940000CF93DF93EC01888D998D39
:100CE0000E94682A61E272E0888D998D0E94D71671
:100CF000CE01DF91CF910C943525CF92DF92EF9208
:100D0000FF920F93CF93DF93EC018BEDC82E8DE014
:100D1000D82EE12CF12C888D998D0E94682A61E2F1
:100D200072E0888D998D0E94D71600E0A701960188
:100D300062EB71E0CE010E94D622DF91CF910F913C
:100D4000FF90EF90DF90CF900895CF92DF92EF92D7
:100D5000FF920F93CF93DF93EC0185E0C82E8EE0D6
:100D6000D82EE12CF12C888D998D0E94682A61E2A1
:100D700072E0888D998D0E94D71600E0A701960138
:100D800069EC71E0CE010E94D622DF91CF910F91E4
:100D9000FF90EF90DF90CF9008950F932FE63EE005
:100DA00040E050E001E063E272E00E94FB220F911C
:100DB0000895CF92DF92EF92FF920F931F93CF93FC
:100DC000DF93CDB7DEB767970FB6F894DEBF0FBEDF
:100DD000CDBF8C016B01FB0180818F8B805398010B
:100DE0002F5B3F4F79018A3030F08FEF9FEFF70193
:100DF0009183808315C04AE050E060E070E0CE014E
:100E000047960E946D356F3F7F4F79F34AE050E07F
:100E100060E070E0C6010E946D35F7017183608368
:100E2000F701208131812B30310560F546E1CE019B
:100E30000196FC01542F11925A95E9F7429FB00197
:100E4000439F700D1124685C744F46E150E00E948E
:100E50008C36E989FA892B893C89C9019595879552
:100E600020FF0AC0D801A80FB91F2D913C91E20FB5
:100E7000F31F0190F081E02D6D897E89800F911F15
:100E8000099503C0C8010E944F2B67960FB6F894CE
:100E9000DEBF0FBECDBFDF91CF911F910F91FF90AD
:100EA000EF90DF90CF900895CF93DF93EC01CB01CB
:100EB000770FAA0BBB0B8BA39CA3ADA3BEA381E0B2
:100EC00090E090930201809301010E94A32C6F8F08
:100ED00078A389A39AA3DF91CF910895FC01B796D7
:100EE00028E1DF011D922A95E9F778961182108298
:100EF0003496118210820895CF93DF93EC01888D90
:100F0000998DDC01ED91FC910084F185E02D09952E
:100F1000892B51F0888D998DDC01ED91FC91028433
:100F2000F385E02D0995EBCFDF91CF9108954F9296
:100F30005F926F927F928F929F92AF92BF92EF9249
:100F4000FF920F931F93CF93DF938C0186E190E084
:100F50000E944C34D82FC92F8091EE02811192C08B
:100F600081E08093EE028091010190910201892B32
:100F700009F065C00E94A32C4B015C018DE090E05C
:100F80000E944C347C01C501B40128EE33E040E0FE
:100F900050E00E94C5399F938F937F936F938CE3AA
:100FA000482E512C612C712CCA01B901A301920168
:100FB0000E94C5399F938F937F936F93C501B401AE
:100FC00020E63AEE40E050E00E94C539CA01B9017E
:100FD000A30192010E94C5399F938F937F936F93D2
:100FE000C501B40120E83EEE46E350E00E94C53959
:100FF0005F934F933F932F938BE990E09F938F9351
:101000001F928DE08F93FF92EF920E94B936FF926C
:10101000EF9280ED90E09F938F931F9286E18F93E4
:10102000CF93DF930E94B936C7010E94E4348DB795
:101030009EB74E960FB6F8949EBF0FBE8DBF02307E
:10104000110581F00330110541F001301105D1F493
:10105000CF93DF9383EB90E009C0CF93DF9387ECCE
:1010600090E004C0CF93DF938DEB90E09F938F933C
:10107000CF93DF930E94E9360F900F900F900F905F
:101080000F900F908D2F9C2FDF91CF911F910F917B
:10109000FF90EF90BF90AF909F908F907F906F9058
:1010A0005F904F9008958AE00E94D52B892BE1F440
:1010B00080917A04882339F0809101019091020196
:1010C000892B59F413C08BE00E94D52B892BA1F3F7
:1010D000809146038111F0CF07C081E02091440345
:1010E00030914503232B19F080E0089581E00895A5
:1010F000CF93C82F0E945308882359F0CC2399F02E
:1011000061E272E080914D0390914E030E94D716E8
:1011100002C0CC2341F061E272E08AE593E00E94D4
:10112000D7161092EE02CF910895EF92FF920F938F
:101130001F93CF93DF9300D0CDB7DEB77C01209112
:101140008704309188042115310511F42DE834E02D
:101150008E010F5F1F4F021B130B60E970E08AE5E1
:1011600093E00E940217A801012E000C660B770B7A
:101170008AE593E00E94F92C6DE870E08AE593E03F
:101180000E940217B7018AE593E00E94D716C801B2
:101190000F900F90DF91CF911F910F91FF90EF90E3
:1011A0000895EF92FF920F931F93CF93DF93EC017B
:1011B00081E292E00E9495088C0167E472E0888DDC
:1011C000998D0E940217E88CF98CA801110F660B0B
:1011D000770BC7010E94F92CC7010E94D316888D96
:1011E000998D0E94D316CE01DF91CF911F910F915F
:1011F000FF90EF900C9435258FE194E00E94071941
:10120000882319F080916804089580917B040895E3
:1012100041E050E060E070E00C942B2DFB018081F8
:1012200091811816190644F48281938118161906C3
:1012300034F482E090E0089580E090E0089581E049
:1012400090E00895CF93DF93EC0178876F83CB0113
:10125000880F991FE98DFA8DE80FF91F8081918120
:10126000181619064CF4CB01019662E070E00E945A
:10127000383A9E838D8302C01E821D820E94A32C59
:101280006D877E878F87988B698B7A8B8B8B9C8BF6
:10129000CE01DF91CF910C944D098F929F92AF9226
:1012A000BF92CF92DF92EF92FF921F93CF93DF9383
:1012B000EC01298D3A8DEF80F8844D855E856F8530
:1012C000788989899A89AB89BC89481B590B6A0B33
:1012D0007B0BF701EE0FFF1FE20FF31F808191815F
:1012E000092E000CAA0BBB0B84179507A607B7079E
:1012F000B8F5B901CE010E940E090197E816F9066A
:1013000024F4B7016F5F7F4F0FC02B853C852115FB
:10131000310541F089859A8501969A8789878217D8
:10132000930780F460E070E0CE01DF91CF911F91D0
:10133000FF90EF90DF90CF90BF90AF909F908F90F5
:101340000C942209CE01DF91CF911F91FF90EF9075
:10135000DF90CF90BF90AF909F908F900C94080932
:101360004B8D5C8D288139818D899E894217530769
:10137000A1F44D8D5E8D2D813E814217530769F496
:101380002F8D38A12817390741F449A15AA12F8977
:10139000388D4217530709F429C2009751F48F89F9
:1013A000988D892B09F0B2C10E94FC086D8188815B
:1013B0001BC2181619060CF0A9C10E94FC088D81E9
:1013C0009E81892B09F49EC1ED88FE8888819981D0
:1013D00020910001281721F02F3F09F007C204C017
:1013E000EBEDF6E0149179C080930001EBEDF6E0AF
:1013F00014911F3F09F4FAC1113009F448C050F1AB
:10140000123009F06AC01092B0001092B100209121
:10141000B00022602093B0002091B10021602093A1
:10142000B1009C013327F901E551F74FE491F0E059
:10143000EE0FFF1FEF51F74F459154915093FA0271
:101440004093F902F901E150F74FE491E093FB0278
:1014500012E04CC214BC15BC24B5226024BD25B5D5
:10146000216025BD9C013327F901E551F74FE49137
:10147000F0E0EE0FFF1FEF51F74F45915491F90146
:10148000E150F74FE491E093E50210E02FC2109293
:1014900080001092810020918100286020938100BB
:1014A000209181002160209381009C013327F90164
:1014B000E551F74FE491F0E0EE0FFF1FEF51F74FCA
:1014C00045915491F901E150F74FE491E093E40222
:1014D00061E00E942D2C11E0A4C017FD87C161E0DE
:1014E0000E942D2C812F8D7F09F09BC06701E12C7C
:1014F000F12C60E072E18AE790E0A70196010E947A
:101500004C3A49015A01BA01A901415051096109F6
:1015100071094F3F51056105710509F008F445C097
:1015200060E472E48FE090E0A70196010E944C3ADB
:10153000BA01A90141505109610971091230E9F458
:101540004F3F51056105710509F008F46FC160E96D
:1015500070ED83E090E0A70196010E944C3ABA0139
:10156000A90141505109610971094F3F51056105B8
:10157000710509F020F583E04DC04F3F510561052D
:101580007105A9F0A0F068E478EE81E090E0A70191
:1015900096010E944C3ABA01A901415051096109D2
:1015A0007109112309F473C16AC181E001C082E0AD
:1015B000111130C095B5987F892B85BD69C068E44D
:1015C00078EE81E090E0A70196010E944C3ABA01C2
:1015D000A90141505109610971094F3F5105610548
:1015E000710509F008F420C164E274EF80E090E036
:1015F000A70196010E944C3ABA01A9014150510934
:10160000610971094F3F51056105710511F008F03D
:101610000FC185E09091B100987F892B8093B10034
:1016200031C06701E12CF12C60E072E18AE790E0C3
:10163000A70196010E944C3ABA01A90141505109F3
:10164000610971094115510581E06807710580F054
:1016500068E478EE81E090E0A70196010E944C3AA0
:10166000BA01A901415051096109710983E001C022
:1016700081E0113039F490918100987F892B80931B
:10168000810018C01130B1F0123049F11111AEC013
:1016900047BD8FEF9FEFDC018093EA029093EB024E
:1016A000A093EC02B093ED0280916E008260809373
:1016B0006E009CC050938900409388008FEF9FEF8D
:1016C000DC018093E6029093E702A093E802B093D6
:1016D000E90280916F00826080936F0087C0409321
:1016E000B3008FEF9FEFDC018093FC029093FD022B
:1016F000A093FE02B093FF028091700082608093FD
:10170000700074C088810E94031670C08F89988D04
:10171000181619060CF06AC00E94FC088D819E8183
:10172000892B09F45AC0EF88F88CC880D98061E011
:101730008C2D0E942D2CE114F10409F449C08FEF87
:10174000E816F10409F446C0F601FF27E45EF44F01
:10175000E491E330F9F048F4E130B9F0E230A1F57A
:1017600084B5806284BDE8BC41C0E730E9F0E83070
:1017700019F1E43049F58091800080628093800007
:10178000F0928B00E0928A0031C084B5806884BDFD
:10179000E7BC2CC080918000806880938000F0922C
:1017A0008900E092880022C08091B0008068809318
:1017B000B000E092B3001AC08091B00080628093C4
:1017C000B000E092B40012C080E8E816F10414F40E
:1017D00060E001C061E08C2D07C0188161E0812FBD
:1017E0000E942D2C60E0812F0E94FE2B0E94FC089D
:1017F000888199819C8F8B8F8D819E819E8F8D8F0B
:101800008D899E8998A38F8F8F89988D9AA389A39C
:10181000DF91CF911F91FF90EF90DF90CF90BF901D
:10182000AF909F908F90089584E0F4CE82E0F2CE46
:1018300062E17AE780E090E0A70196010E944C3ACD
:10184000BA01A90141505109610971094F3F510580
:101850006105710591F088F0D501C4012AE0B595C4
:10186000A795979587952A95D1F7AC01BD01415071
:1018700051096109710987E0CDCE86E0CBCE4F3F9B
:1018800051056105710509F098F684E091CE4F3F4E
:1018900051056105710541F138F162E17AE780E0B7
:1018A00090E0A70196010E944C3ABA01A90141506B
:1018B0005109610971094F3F51056105710591F0A9
:1018C00088F0D501C4013AE0B595A795979587951D
:1018D0003A95D1F7AC01BD01415051096109710937
:1018E00085E068CE84E066CE83E064CE61E00E944D
:1018F0002D2CFCCDCF93DF93EC010E94A32C6D87A0
:101900007E878F87988BCE01DF91CF910C944D0904
:10191000CF92DF92EF92FF921F93CF93DF93EC0170
:101920006A017B01122F0E94FC089E01332790E080
:10193000821793078CF1CE010E949707EC010E9459
:101940005308882381F0BE0180914D0390914E038E
:101950000E9400172AE0B701A60180914D039091E3
:101960004E030E948A16BE018AE593E00E9400178A
:101970002AE0B701A6018AE593E00E948A16812F2A
:101980000E947808CE01DF91CF911F91FF90EF90D8
:10199000DF90CF900C94E434DF91CF911F91FF90B2
:1019A000EF90DF90CF900895FF920F931F93CF9306
:1019B000DF93EC018B01F42E0E94FC089E0133277B
:1019C00090E0821793075CF1CE010E949707EC012B
:1019D0000E945308882371F0BE0180914D039091BD
:1019E0004E030E940017B80180914D0390914E0361
:1019F0000E940017BE018AE593E00E940017B8011B
:101A00008AE593E00E9400178F2D0E947808CE018E
:101A1000DF91CF911F910F91FF900C94E434DF91EF
:101A2000CF911F910F91FF900895CF92DF92EF9287
:101A3000FF921F93CF93DF93EC016B01142F0E9451
:101A4000FC089E01332790E0821793079CF1CE019A
:101A50000E949707EC010E9453080D2C000CEE0821
:101A6000FF08882379F0BE0180914D0390914E03C9
:101A70000E940017B701A60180914D0390914E037B
:101A80000E94F92CBE018AE593E00E940017B7017D
:101A9000A6018AE593E00E94F92C812F0E94780824
:101AA000CE01DF91CF911F91FF90EF90DF90CF900B
:101AB0000C94E434DF91CF911F91FF90EF90DF9071
:101AC000CF900895FF920F931F93CF93DF93EC0174
:101AD0008B01F42E0E94FC089E01332790E08217B0
:101AE00093075CF1CE010E949707EC010E94530816
:101AF000882371F0BE0180914D0390914E030E94A6
:101B00000017B80180914D0390914E030E94021777
:101B1000BE018AE593E00E940017B8018AE593E0D0
:101B20000E9402178F2D0E947808CE01DF91CF917D
:101B30001F910F91FF900C94E434DF91CF911F918E
:101B40000F91FF9008950F931F93CF93DF93EC01B4
:101B5000AB01FB0180818E010F5B1F4F8D3021F0A7
:101B60008A3011F0811108C041E06BE072E085E03D
:101B700090E00E94620D11C0F801608171816231B4
:101B8000710524F48FE194E00E947618609162045C
:101B900070916304CE010E9454078FEF9FEFF8010C
:101BA0009183808360E070E0CE01DF91CF911F913F
:101BB0000F910C94401DCF93DF93EC01DB018C91CE
:101BC0008F7D893589F441E063EE71E084E090E037
:101BD0000E94620D84E1EBE0F4E0DF011D928A9542
:101BE000E9F70E94082B06C063EF71E0888D998D9C
:101BF0000E94F62A888D998D0E94D31660E070E0CD
:101C0000CE01DF91CF910C946B06CF92DF92EF92D1
:101C1000FF920F931F93CF93DF93EC018B014AE068
:101C200050E060E070E0C8010E946D356B017C01FE
:101C3000CB01181619064CF4F80120812D3029F03B
:101C40002A3019F0663071053CF06FEC71E0888D38
:101C5000998D0E94F62A32C086010150110940E098
:101C600067EA71E084E090E00E94620D41E0B80113
:101C700084E090E00E94150DF4E0CF0ED11CC60167
:101C8000880F991F880F991FFC01E950FC4F1082A3
:101C90001182128213820E94082B6AEB71E0888DF8
:101CA000998D0E940217E88CF98C40E050E0BA014F
:101CB000C7010E94F92CC7010E94D316888D998D07
:101CC0000E94D31660E070E0CE01DF91CF911F91AA
:101CD0000F91FF90EF90DF90CF900C946B068F9256
:101CE0009F92AF92BF92EF92FF920F931F93CF9369
:101CF000DF938C017B01FB0180818D3009F471C081
:101D00008A3009F46EC0882309F46BC04AE050E0C1
:101D100060E070E0C7010E946D354B015C0140E05E
:101D20006DE371E085E090E00E94620D21E0B50175
:101D3000A40185E090E00E94880C0E94B723EBE0AC
:101D4000F4E02FE134E0DF0180E090E04D915D911F
:101D50006D917D91452B462B472B09F001962A1753
:101D60003B07A1F781149104A104B10441F441E0BF
:101D70006EE171E083E090E00E94620D32C0853038
:101D8000910554F041E068E071E083E090E00E944A
:101D9000620DC2E0D0E027C04191519161917191F3
:101DA00084169506A606B70609F465C024E0EF314F
:101DB000F20791F7880F991F880F991FFC01E55FC3
:101DC000FB4F80829182A282B3820E94082B41E065
:101DD00061EE70E084E090E00E94620DC0E0D0E02F
:101DE00002C0C1E0D0E069E971E0F801808D918D19
:101DF0000E940217B701F801808D918D0E94D716BD
:101E000067E871E0F801808D918D0E940217AE01A4
:101E10000D2E000C660B770BF801808D918D0E94C2
:101E2000F92C63EE71E0F801808D918D0E9400170E
:101E3000F801808D918DC230D10591F0C330D1056C
:101E400091F0C130D10549F06FE771E00E94F62AA8
:101E500047E050E061E070E018C069E671E005C05D
:101E600068E571E002C067E471E00E94F62A46E08E
:101E700050E0BE010AC041E062EF70E083E090E014
:101E80000E94620DC3E0D0E0AECF8091F10290914C
:101E9000F2020E942B2D61E272E0F801808D918D9B
:101EA0000E94D716C8010E946E0760E070E0C8016A
:101EB000DF91CF911F910F91FF90EF90BF90AF9066
:101EC0009F908F900C946B06AF92BF92CF92DF924F
:101ED000EF92FF920F931F93CF93DF93CDB7DEB7AF
:101EE000A2970FB6F894DEBF0FBECDBF8C015C0188
:101EF00023E4A20EB11CD5018D919C91892B09F48C
:101F00005CC0F801828D938D0E945025D8015A96AD
:101F1000ED91FC915B9783A594A5A5A5B6A5009727
:101F2000A105B10509F449C0BF93AF939F938F9367
:101F300086EE91E09F938F937E01B9E1EB0EF11C49
:101F4000FF92EF920E94E23A48E150E0B701780137
:101F5000E7E2EE0EF11CC7010E94A536F7010FB6AD
:101F6000F894DEBF0FBECDBF80E090E041919C01B0
:101F70002F5F3F4F41110EC0F801E80FF91F4AE0F3
:101F800047A3F801E20FF31F17A2F801FF96318370
:101F9000208304C0C9012831310541F7D8015A9680
:101FA0008D919C915B97FC0113A614A615A616A60D
:101FB0000E94F81ED5011D921C926AEE71E0C801C4
:101FC0004C960E94933A892BA1F0F801808D918D57
:101FD000DC01ED91FC910084F185E02D0995F8017B
:101FE000B7966F019801215C3F4F7901892B29F544
:101FF0007BC0D8015896ED90FC90599780914F0383
:1020000090915003E816F90601F3C7010E94F817F2
:1020100041E065ED70E086E090E00E94620D64E6CC
:1020200070E080E090E00E94692C80914F039091D5
:102030005003E816F906E9F7C8CF80914403909160
:102040004503892B79F51093450300934403809150
:10205000EF029091F00208171907D1F48091420322
:1020600090914303DC01ED91FC910084F185E02D1A
:1020700040E050E0BA0109958091420390914303FA
:102080000E947C0780914203909143030E946E0757
:1020900047E050E061E070E08091F1029091F2023F
:1020A0000E942B2D6091620470916304C8010E940C
:1020B0005407F50111821082D80158968D919C9198
:1020C0005997DC01ED91FC910084F185E02D099593
:1020D000892B51F0F60181918A3031F08D3021F059
:1020E000EE16FF06C1F70AC0F60181918A30E9F0C9
:1020F0008D30D9F0EE16FF06C1F768C0F801808D6B
:10210000918DDC01ED91FC910284F385E02D099520
:10211000B82EBBE18B1332C08AE0F80187A310A66A
:1021200081E090E0D7018D939C9348E150E0B601A7
:10213000CE0101960E94A536C8010E946E07D80103
:10214000ED91FC910280F381E02DC8010995F80121
:10215000E08CF18C6AE0C7010E94F916C7010E9469
:10216000D316D801ED91FC910680F781E02D41E076
:10217000BE016F5F7F4FC801099528C0809144035D
:10218000909145030817190759F4F801808D918D36
:10219000DC01ED91FC910190F081E02D6B2D099512
:1021A000F70180819181F801E80FF91FB7A201962C
:1021B000D7018D939C93BDE0BB1619F0EAE0BE12E7
:1021C0007BCFF801E80FF91F17A276CFA2960FB6C2
:1021D000F894DEBF0FBECDBFDF91CF911F910F915D
:1021E000FF90EF90DF90CF90BF90AF900895FF9257
:1021F0000F931F93CF93DF93EC01F62E0881198183
:10220000C8010E949F39F81621F06F2DC8010E9465
:10221000A739CE01DF91CF911F910F91FF900895C3
:102220000F931F93CF93DF9300D0CDB7DEB78C0110
:102230008091010190910201892B29F5F80180819B
:1022400091817183608386179707E9F08091660416
:10225000909167040297B9F440E068E670E084E08A
:1022600090E00E94620DF8016081718141E084E09C
:1022700090E00E94150DF80160811A821982CE014A
:1022800001960E94F710F801808191810F900F90C4
:10229000DF91CF911F910F910895CF92DF92EF922E
:1022A000FF920F931F93CF93DF936C017A018B0101
:1022B000C0E0D0E0CE15DF0581F0D8016D918D0131
:1022C000D601ED91FC910190F081E02DC6010995B8
:1022D000892B11F02196EECF7E01C701DF91CF91BE
:1022E0001F910F91FF90EF90DF90CF900895FC0128
:1022F000538D448D252F30E0842F90E0821B930B6B
:10230000541710F0CF96089501970895FC01918D10
:10231000828D981761F0828DDF01A80FB11D5D9647
:102320008C91928D9F5F9F73928F90E008958FEFB5
:102330009FEF0895FC01918D828D981731F0828D69
:10234000E80FF11D858D90E008958FEF9FEF0895C0
:10235000FC01918D228D892F90E0805C9F4F821B24
:1023600091098F73992708958AE593E00E94A81137
:1023700021E0892B09F420E0822F0895FC01848D4F
:10238000DF01A80FB11DA35ABF4F2C91848D90E09F
:1023900001968F739927848FA689B7892C93A0897A
:1023A000B1898C91837080648C93938D848D981304
:1023B00006C00288F389E02D80818F7D8083089597
:1023C000EF92FF920F931F93CF93DF93EC0181E085
:1023D000888F9B8D8C8D981305C0E889F989808141
:1023E00085FD26C0F62E0B8D10E00F5F1F4F0F737B
:1023F0001127E02E8C8DE8120CC00FB607FCFACF27
:10240000E889F989808185FFF5CFCE010E94BE1150
:10241000F1CF8B8DFE01E80FF11DE35AFF4FF082E3
:102420009FB7F8940B8FEA89FB89808180620AC08C
:102430009FB7F894EE89FF896083E889F9898081E4
:102440008370806480839FBF81E090E0DF91CF91B3
:102450001F910F91FF90EF900895CF93DF93EC01C0
:10246000888D8823C9F0EA89FB89808185FD05C0B4
:10247000A889B9898C9186FD0FC00FB607FCF5CFEE
:10248000808185FFF2CFA889B9898C9185FFEDCF36
:10249000CE010E94BE11E7CFDF91CF91089580E079
:1024A00090E0892B29F00E94B41181110C94000056
:1024B000089520914F03309150032817390771F484
:1024C0009091410380914003981741F0E0914103BE
:1024D000F0E0E050FD4F808190E008958FEF9FEF96
:1024E000089508951F93CF93DF93DC015C968D913F
:1024F0009C915D97009739F421E030E013963C936E
:102500002E9312973BC05196ED91FC9152975096A5
:102510002C915097322F30951FB75E964C915E9755
:10252000742F727041FD6095F8944081772311F00B
:10253000422B01C043234083EC012197F1F748E08F
:10254000508160FF02C0522B01C053235083EC0125
:102550002197F1F76695415099F78081772319F01B
:102560008323808302C0282B20831FBF5C968D911C
:102570009C915D970197F1F781E090E0DF91CF9119
:102580001F91089520914F03309150032817390768
:1025900071F4809140032091410390E0805C9F4F53
:1025A000821B910960E470E00E94383A089580E04F
:1025B00090E0089520914F03309150032817390778
:1025C000B9F49091410380914003981789F0E0910C
:1025D0004103F0E0E050FD4F80812091410330E065
:1025E0002F5F3F4F2F7333272093410390E00895CF
:1025F0008FEF9FEF0895089580E090E0089582E1C5
:1026000092E008950E94853A6115710579F0FB0109
:1026100001900020E9F73197AF01461B570BDC0111
:10262000ED91FC910280F381E02D099480E090E02F
:102630000895FB0101900020E9F73197AF01461B97
:10264000570B4C30510520F4835A9F4F0C94A536FC
:10265000089582E894E09F938F937F936F930E94F5
:10266000E9360F900F900F900F900895FC0186AD02
:102670008F9385AD8F9384AD8F9383AD8F938EE7CA
:1026800094E09F938F937F936F930E94E9368DB769
:102690009EB708960FB6F8949EBF0FBE8DBF0895E3
:1026A000845A9F4FFC0180811F928F9389E794E0A9
:1026B0009F938F937F936F930E94E9360F900F90B3
:1026C0000F900F900F900F900895855A9F4FFC0127
:1026D00080811F928F9386E794E09F938F937F93DF
:1026E0006F930E94E9360F900F900F900F900F900C
:1026F0000F900895FC01E75AFF4F81818F938081ED
:102700008F9383E794E09F938F937F936F930E94BF
:10271000E9360F900F900F900F900F900F90089543
:10272000FC01E95AFF4F81818F9380818F9380E76D
:1027300094E09F938F937F936F930E94E9360F905D
:102740000F900F900F900F900F900895FC01ED5A8D
:10275000FF4F83818F9382818F9381818F938081BB
:102760008F938CE694E09F938F937F936F930E9457
:10277000E9368DB79EB708960FB6F8949EBF0FBE88
:102780008DBF0895FC01E15BFF4F83818F938281B0
:102790008F9381818F9380818F9388E694E09F93BC
:1027A0008F937F936F930E94E9368DB79EB70896FB
:1027B0000FB6F8949EBF0FBE8DBF0895FC01E55B78
:1027C000FF4F83818F9382818F9381818F9380814B
:1027D0008F9384E694E09F938F937F936F930E94EF
:1027E000E9368DB79EB708960FB6F8949EBF0FBE18
:1027F0008DBF0895865B9F4FFC012081822F90E062
:1028000001978330910540F4880F991FFC01E15D29
:10281000FE4F8081918102C089E192E09F938F9366
:102820001F922F938CE594E09F938F937F936F93E8
:102830000E94E9368DB79EB708960FB6F8949EBFF2
:102840000FBE8DBF0895875B9F4FFC0180811F9253
:102850008F9389E594E09F938F937F936F930E946A
:10286000E9360F900F900F900F900F900F900895F2
:10287000FC01E95BFF4F81818F9380818F9386E517
:1028800094E09F938F937F936F930E94E9360F900C
:102890000F900F900F900F900F900895FC01ED5B3B
:1028A000FF4F83818F9382818F9381818F9380816A
:1028B0008F9382E594E09F938F937F936F930E9411
:1028C000E9368DB79EB708960FB6F8949EBF0FBE37
:1028D0008DBF0895FC01FF9623812F9322812F93B2
:1028E00021812F93FC0187AD8F938EE494E09F9319
:1028F0008F937F936F930E94E9368DB79EB70896AA
:102900000FB6F8949EBF0FBE8DBF0895FC0182AD37
:102910008F9381AD8F9380AD8F9387A98F938AE436
:1029200094E09F938F937F936F930E94E9368DB7C6
:102930009EB708960FB6F8949EBF0FBE8DBF089540
:10294000FC0186A98F9385A98F9384A98F9383A96E
:102950008F9386E494E09F938F937F936F930E946D
:10296000E9368DB79EB708960FB6F8949EBF0FBE96
:102970008DBF0895FC0182A98F9381A98F9380A9AF
:102980008F9387A58F9382E494E09F938F937F9397
:102990006F930E94E9368DB79EB708960FB6F894EC
:1029A0009EBF0FBE8DBF0895CF93DF93EC01CB0187
:1029B0004AE050E060E070E00E946D35DC01CB0140
:1029C0009927AA27BB278BAF9CAFADAFBEAFDF91D6
:1029D000CF910895CF93DF93EC01CB014AE050E013
:1029E00060E070E00E946D35C45ADF4F6883DF916C
:1029F000CF910895CF93DF93EC01CB014AE050E0F3
:102A000060E070E00E946D35C55ADF4F21E0672B12
:102A1000682B692B09F420E02883DF91CF9108957A
:102A2000CF93DF93EC01CB014AE050E060E070E02F
:102A30000E946D35C75ADF4F79836883DF91CF914C
:102A40000895CF93DF93EC01CB014AE050E060E0C2
:102A500070E00E946D35C95ADF4F79836883DF913A
:102A6000CF910895CF93DF93EC01CB014AE050E082
:102A700060E070E00E946D35CD5ADF4F6883798346
:102A80008A839B83DF91CF910895CF93DF93EC01ED
:102A9000CB014AE050E060E070E00E946D35C15B20
:102AA000DF4F688379838A839B83DF91CF91089579
:102AB000CF93DF93EC01CB014AE050E060E070E09F
:102AC0000E946D35C55BDF4F688379838A839B8362
:102AD000DF91CF910895CF93DF93EC01CB014AE0D2
:102AE00050E060E070E00E946D35C65BDF4F6883A8
:102AF000DF91CF910895CF93DF93EC01CB014AE0B2
:102B000050E060E070E00E946D35C75BDF4F688386
:102B1000DF91CF910895CF93DF93EC01CB014AE091
:102B200050E060E070E00E946D35C95BDF4F798353
:102B30006883DF91CF910895CF93DF93EC01CB01B0
:102B40004AE050E060E070E00E946D35FE01ED5B10
:102B5000FF4F6A3071058105910528F0608371830C
:102B60008283938308C08AE090E0A0E0B0E0808395
:102B70009183A283B383DF91CF910895CF93DF93A5
:102B8000EC01CB014AE050E060E070E00E946D355E
:102B9000EF96688379838A839B83DF91CF91089531
:102BA000CF93DF93EC01CB014AE050E060E070E0AE
:102BB0000E946D356FAB78AF89AF9AAFDF91CF913F
:102BC0000895CF93DF93EC01CB014AE050E060E041
:102BD00070E00E946D356BAB7CAB8DAB9EABDF9133
:102BE000CF910895CF93DF93EC01CB014AE050E001
:102BF00060E070E00E946D356FA778AB89AB9AAB4F
:102C0000DF91CF91089590910001891324C0EBEDDD
:102C1000F6E0E4919FEF90930001E130B9F098F075
:102C2000E230C9F4909170009D7F9093700091E024
:102C30009093B0009091B100987F94609093B10010
:102C40001092B30008C010926E0005C090916F0002
:102C50009D7F90936F0060E00C94FE2B1F920F926B
:102C60000FB60F9211242F933F934F935F936F935F
:102C70007F938F939F93AF93BF93EF93FF93809135
:102C8000FC029091FD02A091FE02B091FF02892BFF
:102C90008A2B8B2B51F19091FB02E091F902F0917C
:102CA000FA028081892780838091FC029091FD0245
:102CB000A091FE02B091FF02181619061A061B0613
:102CC000C4F48091FC029091FD02A091FE02B091AB
:102CD000FF020197A109B1098093FC029093FD02C4
:102CE000A093FE02B093FF0204C0809100010E94F5
:102CF0000316FF91EF91BF91AF919F918F917F91BB
:102D00006F915F914F913F912F910F900FBE0F9058
:102D10001F9018958F929F92AF92BF92EF92FF9261
:102D20000F931F93CF93DF93CDB7DEB7A1970FB665
:102D3000F894DEBF0FBECDBF7C01FA01CB0119A212
:102D4000223008F42AE08E010F5D1F4F822E912C55
:102D5000A12CB12CBF01A50194010E94C539F90134
:102D6000CA01015011096A3014F4605D01C0695C48
:102D7000D8016C93232B242B252B61F7B801C701B5
:102D80000E940413A1960FB6F894DEBF0FBECDBF0C
:102D9000DF91CF911F910F91FF90EF90BF90AF9077
:102DA0009F908F9008956FE172E00C9404130F933D
:102DB0001F93CF93DF93EC010E9404138C01CE018B
:102DC0000E94D316800F911FDF91CF911F910F9119
:102DD00008959A01452B39F4DC01ED91FC910190A5
:102DE000F081E02D0994462F50E060E070E00C94F3
:102DF0008A16DC01ED91FC910190F081E02D09949F
:102E00000C940413EF92FF920F931F93CF93DF93D1
:102E10008C017B01C0E0D0E0F701EC0FFD1F649155
:102E2000662361F0D801ED91FC910190F081E02DD5
:102E3000C8010995892B11F02196EECFCE01DF91C3
:102E4000CF911F910F91FF90EF9008951F920F92D5
:102E50000FB60F9211242F933F934F935F936F936D
:102E60007F938F939F93AF93BF93EF93FF938AE5E5
:102E700093E00E94BE11FF91EF91BF91AF919F919E
:102E80008F917F916F915F914F913F912F910F9013
:102E90000FBE0F901F9018951F920F920FB60F92B2
:102EA00011242F938F939F93EF93FF93E0916A03E5
:102EB000F0916B038081E0917003F091710382FDCA
:102EC00012C09081809173038F5F8F732091740380
:102ED000821751F0E0917303F0E0E65AFC4F958FB2
:102EE0008093730301C08081FF91EF919F918F9137
:102EF0002F910F900FBE0F901F9018951F920F9259
:102F00000FB60F9211242F933F934F935F936F93BC
:102F10007F938F939F93AF93BF93EF93FF93E09132
:102F20004F03F0915003309709F451C0968DA68558
:102F3000B785858591FF04C09C91892329F447C0FA
:102F40009C91892309F043C0A389B4899C91858908
:102F5000809589238C93868997890197F1F7608DF5
:102F6000718DA685B785558538E020E0CB010197A6
:102F7000F1F7822F90E095958795282F4C91452366
:102F800009F02068315091F7868D81FD2095809160
:102F9000400390E001968F739927309141033817D1
:102FA00049F0A0914003B0E0A050BD4F2C93809316
:102FB000400303C0868D8160868F828D938D01973B
:102FC000F1F7A389B4899C918589892B8C93FF9112
:102FD000EF91BF91AF919F918F917F916F915F9191
:102FE0004F913F912F910F900FBE0F901F9018950A
:102FF000CF93DF93FC01828D938D892B31F1A091CA
:103000004F03B0915003EA17FB07F9F0109751F006
:103010005396CD91DC915497988155968C918095DB
:1030200089238883868D8E7F868F1092400310922D
:103030004103F0935003E0934F03A389B4899C911B
:103040008589892B8C9381E001C080E0DF91CF914D
:103050000895CF93FC014281538113821282DC01D7
:10306000BC01685D7F4F80E090E02C9130E0322F12
:1030700022271196CC9111972C2B822793271296F9
:103080006A177B0791F753834283CF910895CF93BB
:10309000DF93EC010E9429182A813B818217930754
:1030A00039F49C012150310981E02E3F3F4F08F057
:1030B00080E0DF91CF910895CF93DF93EC018CEB0B
:1030C00092E0998388831B821A8240E150E062E299
:1030D00072E0CE0104960E94A536649684E1FE015A
:1030E00011928A95E9F7DF91CF910895CF92DF92FF
:1030F000EF92FF920F931F93CF93DF93CDB7DEB77D
:10310000EE970FB6F894DEBF0FBECDBF8C017A01EB
:1031100023E2CE0101966C01FC01822F11928A9567
:10312000E9F7CB010197289FB001299F700D112469
:1031300068577B4F43E250E0C6010E948C36CE01B7
:1031400084962BE1FC0111922A95E9F7B6010E94C1
:103150009C3AE8A1F9A1309719F48AA180FF15C023
:103160002AA13BA1C9019595879520FF0AC0D801E6
:10317000A80FB91F2D913C91E20FF31F0190F08130
:10318000E02DB701800F911F0995EE960FB6F894C8
:10319000DEBF0FBECDBFDF91CF911F910F91FF908A
:1031A000EF90DF90CF900895CF93FC01428153813F
:1031B00013821282DC01BC0168597F4F80E090E0ED
:1031C0002C9130E0322F22271196CC9111972C2B85
:1031D0008227932712966A177B0791F753834283BE
:1031E000CF910895CF93DF93EC010E94D4182A81E8
:1031F0003B818217930739F49C012150310981E00A
:103200002E3F3F4F08F080E0DF91CF9108958BE093
:103210000E94D52B892B19F080914603089581E0F7
:1032200008958F929F92AF92BF92CF92DF92EF92CA
:10323000FF920F931F93CF93DF93CDB7DEB7A39782
:103240000FB6F894DEBF0FBECDBF8C015B014A0103
:10325000790183E29E012F5F3F4F6901F901282F19
:1032600011922A95E9F79B0121503109829FB00103
:10327000839F700D112468577B4F43E250E0C601D5
:103280000E948C36B601C4010E949C3A32E1A3161A
:10329000B104E4F4EC8DFD8D309719F48E8D80FF30
:1032A00015C02E8D3F8DC9019595879520FF0AC0C9
:1032B000D801A80FB91F2D913C91E20FF31F019087
:1032C000F081E02DB701800F911F0995A3960FB6ED
:1032D000F894DEBF0FBECDBFDF91CF911F910F914C
:1032E000FF90EF90DF90CF90BF90AF909F908F9026
:1032F0000895CF93DF93EC0180E293E09983888374
:103300001B821A8240E150E066E572E0CE0104962D
:103310000E94A5368EE190E0A0E0B0E08FA798ABC8
:10332000A9ABBAAB88EE93E0A0E0B0E08BAB9CAB6E
:10333000ADABBEAB86E990E0A0E0B0E08FAB98AF5C
:10334000A9AFBAAF8FE090E0A0E0B0E08BAF9CAF48
:10335000ADAFBEAFFE01FF9680839183A283B3839E
:1033600034968CE390E0A0E0B0E080839183A28368
:10337000B383349682E090E091838083329685E037
:103380008083319683E08083319680E091EEA0E0E7
:10339000B0E080839183A283B3833496808391834A
:1033A000A283B383349680E895E2A0E0B0E0808306
:1033B0009183A283B383349680EF9AE091838083D4
:1033C000329687E090E09183808332961082319626
:1033D00084E080834BE150E067E272E0CE014496E6
:1033E0000E94A5364BE050E068E372E0CE01835ABC
:1033F0009F4FDF91CF910C94A53687E492E008951A
:103400008EE392E008958EE391E00895FC01268911
:10341000378937FF04C060E070E0CB010895220FC8
:10342000331F220F331FFC01E20FF31F62817381F0
:10343000848195810895CF93DF93FC012689378994
:1034400037FF05C060E070E080E090E00EC0EC0166
:103450000190F081E02D0480F581E02D09952E8901
:103460003F89215031093F8B2E8BDF91CF910895F9
:103470002FEF3FEFDC0157963C932E935697FC01BC
:103480009C012C5E3F4F1382128215821482349667
:10349000E217F307C1F74115510511F460FF07C0AA
:1034A000DC01ED91FC910190F081E02D09940895EB
:1034B0009F92AF92BF92CF92DF92EF92FF920F93C3
:1034C0001F93CF93DF93EC018B01942EE881F98158
:1034D0000480F581E02D09956B017C018E899F891F
:1034E00097FD3AC0570181E0A822BB24C114D10442
:1034F00021F4A114B10469F52FC0992039F0E881B5
:10350000F9810280F381E02DCE010995AB2871F09D
:10351000F701F595E795EC0FFD1F0190F081E02D87
:10352000EC0DFD1D0190F081E02D01C0F601C701F9
:1035300095958795B8018C0F9D1FDF91CF911F91B5
:103540000F91FF90EF90DF90CF90BF90AF909F9042
:1035500009949920E9F2D3CFDF91CF911F910F9178
:10356000FF90EF90DF90CF90BF90AF909F90089525
:10357000E0E0F0E0099441E06AEF77E082E090E07B
:103580000E94620D60E070E0CB010895CF92DF925F
:10359000EF92FF920F931F93CF93DF93CDB7DEB7D8
:1035A0008C01EDB6FEB6FB0101900020E9F73197E2
:1035B000AF01461B570B8DB79EB7841B950B0FB6FB
:1035C000F8949EBF0FBE8DBF01966C010E94A53678
:1035D0006CE774E0C6010E94933A892B21F4C8017C
:1035E0000E944F2B03C0C8010E9441230FB6F894DC
:1035F000FEBE0FBEEDBEDF91CF911F910F91FF90E8
:10360000EF90DF90CF900895CF93DF93CDB7DEB7E3
:10361000A0970FB6F894DEBF0FBECDBFFB0101909F
:103620000020E9F7AF01461B570B1A821982FE01F1
:1036300033968EE1DF011D928A95E9F742505109D8
:10364000CE0101960E94A33A298180914203909174
:1036500043032134A1F4BE016F5F7F4FFC01808DD5
:10366000918D0E94D7164AEA5BE160E070E020E0AD
:1036700080914203909143030E94AA221CC0DC0166
:10368000ED91FC910084F185E02D40E050E0BA011D
:10369000099580914203909143030E947C07809199
:1036A0004203909143030E946E078091EF02909134
:1036B000F0020E944F2BA0960FB6F894DEBF0FBE0B
:1036C000CDBFDF91CF9108950F93CF93DF93EC019E
:1036D0008AE00E94D52B019759F580914203909181
:1036E0004303DC01ED91FC910084F185E02D40E085
:1036F00050E0BA01099580914203909143030E94E2
:103700007C0780914203909143030E946E0724E05E
:103710003BE140E050E000E063ED77E08091EF02B4
:103720009091F0020E94FB22DF91CF910F910895BA
:1037300065EE77E0888D998D0E94F62A61E272E04D
:10374000888D998D0E94D716CE01DF91CF910F9170
:103750000C944F2BE091EF02F091F002808D918D4F
:103760000E94D716E091EF02F091F00261E272E060
:10377000808D918D0E94D71660E070E08091EF02FD
:103780009091F0020C94641B0F9322EC3CE140E01A
:1037900050E000E06EE377E00E94FB220F91089575
:1037A0002F923F924F925F926F927F928F929F9251
:1037B000AF92BF92CF92DF92EF92FF920F931F933F
:1037C000CF93DF93CDB7DEB769970FB6F894DEBF1E
:1037D0000FBECDBF6C01FC01A08CB18C60EB77E01B
:1037E000C5010E94F62A8FE2E82E81E0F82E01E062
:1037F00010E01E01F3E02F0E311C94EA692E97E0D1
:10380000792ECE0101964C011A821982F10187E1CD
:1038100011928A95E9F7F70120813181F2E0EF0EEC
:10382000F11C8091690490E08017910719F48DE4F0
:1038300092E002C084EE91E03F932F939F938F9389
:103840001F930F937F926F921F9289E18F939F92A4
:103850008F920E94B936B401C5010E94D7160FB6E7
:10386000F894DEBF0FBECDBF0F5F1F4F04301105B0
:1038700059F661E272E0F601808D918D0E94D716B3
:1038800023E63CE140E050E000E068EB77E0C60171
:103890000E94FB2269960FB6F894DEBF0FBECDBF23
:1038A000DF91CF911F910F91FF90EF90DF90CF901C
:1038B000BF90AF909F908F907F906F905F904F9050
:1038C0003F902F900895CF92DF92EF92FF920F9347
:1038D0001F93CF93DF93EC018B014AE050E060E04F
:1038E00070E0C8010E946D357B016B0121E0C21AB6
:1038F000D10883E0C816D104F8F468EC77E0888D2D
:10390000998D0E940217B601660F771FFB01E15DDA
:10391000FE4F60817181888D998D0E94D71661E27A
:1039200072E0888D998D0E94D716A80168E070E03A
:103930008FE194E00E94761861E272E0888D998DA3
:103940000E94D716EF2831F00D30110519F00A301A
:10395000110559F4CE01DF91CF911F910F91FF9086
:10396000EF90DF90CF900C944F2B60E070E0CE0191
:10397000DF91CF911F910F91FF90EF90DF90CF904B
:103980000C94D01BCF92DF92EF92FF920F931F9374
:10399000CF93DF9300D0CDB7DEB76C01FB01808100
:1039A000982F9F7D993539F0813329F08D3019F0AA
:1039B0008A3009F057C041E063E977E085E090E0A4
:1039C0000E94620D4BE150E06FE472E083E394E00B
:1039D0000E94A5368FE194E00E94F218882351F0EE
:1039E00041E062E677E084E090E00E94620D00E052
:1039F00010E02BC08FE194E00E94D4189093220431
:103A00008093210480911F04909120040FE114E021
:103A10009C012F5134407901C701800F911FF8019B
:103A200061918F019A838983CE0101960E94F710DC
:103A3000F4E007381F0781F741E063E577E084E0B1
:103A400090E00E94620D01E010E040E06EE777E058
:103A500085E090E00E94620D41E0B80185E090E0D1
:103A60000E94150DC6010E944F2B0F900F90DF9101
:103A7000CF911F910F91FF90EF90DF90CF9008951D
:103A80002F923F924F925F926F927F928F929F926E
:103A9000AF92BF92CF92DF92EF92FF920F931F935C
:103AA000CF93DF93CDB7DEB7CE55D1090FB6F894DB
:103AB000DEBF0FBECDBF1C01FC01EF5BFF4F8FEFE0
:103AC0009FEF91838083F101608C718C62EF76E0CF
:103AD000C3010E9402178FE194E00E94D418AC0148
:103AE00060E070E020E1C3010E948A166AEE76E091
:103AF000C3010E9402172AE048E650E060E070E04F
:103B0000C3010E948A16C3010E94D31601E010E08F
:103B1000CE0101965C018BE1482E7E0194E3E90E13
:103B2000F11C6E01EFE4CE0ED11C90E1592E2CED6C
:103B3000822E26E0922EF50183E311928A95E9F711
:103B4000F701842D11928A95E9F7F601852D1192DE
:103B50008A95E9F79601A701B8018FE194E00E94E8
:103B60001119DF92CF92FF92EF921F930F939F92C2
:103B70008F92BF92AF920E94E936B501C3010E94B5
:103B8000D7160F5F1F4F0FB6F894DEBF0FBECDBF25
:103B90000231110581F661E272E0F101808D918DB3
:103BA0000E94D71626EF3DE140E050E000E065E0DE
:103BB00077E0C1010E94FB22C25ADF4F0FB6F89492
:103BC000DEBF0FBECDBFDF91CF911F910F91FF9050
:103BD000EF90DF90CF90BF90AF909F908F907F90AD
:103BE0006F905F904F903F902F900895CF92DF920B
:103BF000EF92FF920F931F93CF93DF93CDB7DEB772
:103C0000AB970FB6F894DEBF0FBECDBF7C018B0122
:103C10004AE050E060E070E0C8010E946D35F701B5
:103C2000EF5BFF4F718360839B012150310921318C
:103C30003105A8F59E012F5F3F4F69012BE1F60189
:103C400011922A95E9F78E01045E1F4F20E1F801D9
:103C500011922A95E9F79801A6018FE194E00E945C
:103C60001119B601F701808D918D0E9400176BE349
:103C700077E0F701808D918D0E940217B801F7015E
:103C8000808D918D0E94D71623EA3DE040E050E000
:103C900000E06EE177E0C7010E94FB2211C0F8014D
:103CA0008081803321F08D3011F08A3021F4C701FA
:103CB0000E944F2B05C060E070E0C7010E94401DCC
:103CC000AB960FB6F894DEBF0FBECDBFDF91CF919C
:103CD0001F910F91FF90EF90DF90CF900895EF929A
:103CE000FF920F931F93CF93DF93EC01162F7A016E
:103CF000022F0E94FC089E01332790E08217930751
:103D000074F1CE010E949707EC010E9453088823AA
:103D100079F0BE0180914D0390914E030E940017EF
:103D2000A701612F80914D0390914E030E94E916E7
:103D3000BE018AE593E00E940017A701612F8AE582
:103D400093E00E94E916802F0E947808CE01DF914F
:103D5000CF911F910F91FF90EF900C94E434DF917D
:103D6000CF911F910F91FF90EF9008950F931F93A4
:103D7000CF93DF93EC01162F042F0E94FC089E01C5
:103D8000332790E08217930774F1CE010E949707C2
:103D9000EC010E945308882381F0BE0180914D03FD
:103DA00090914E030E9400174AE050E0612F8091ED
:103DB0004D0390914E030E94E916BE018AE593E0FF
:103DC0000E9400174AE050E0612F8AE593E00E94CC
:103DD000E916802F0E947808CE01DF91CF911F91C4
:103DE0000F910C94E434DF91CF911F910F910895BE
:103DF000DC0156961C92FC01369620E1DF011D92F3
:103E00002A95E9F70895FC014115510511F460FF69
:103E100011C0268937892F5F3F4F378B268B220FA2
:103E2000331F220F331FE20FF31F42835383648338
:103E30007583089541E06FE572E083E090E00C94B3
:103E4000D40C6F927F928F929F92AF92BF92CF923B
:103E5000DF92EF92FF920F931F93CF93DF93CDB733
:103E6000DEB78C015B016DB67EB6DC01ED91FC9195
:103E70000280F381E02D099540E0BC0185E090E0EF
:103E80000E94D40C40E066EC78E085E090E00E946F
:103E9000620D40E06BEB78E085E090E00E94620DFF
:103EA00040E0F801638185E090E00E94B61E40E0AA
:103EB00060EB78E085E090E00E94620D40E0D80180
:103EC00014966C9185E090E00E94B61EF801448142
:103ED0004F5F8381F42EF81A40E065EA78E085E0D0
:103EE00090E00E94620D40E06F2D85E090E00E941E
:103EF000B61E40E062E978E085E090E00E94620D45
:103F000021E040E150E0D5011B966C9185E090E006
:103F10000E946F1E4F2D50E04F5F5F4FEDB7FEB711
:103F2000E41BF50B0FB6F894FEBF0FBEEDBF8DB7C7
:103F30009EB701967C0165E371E00E948A3AD80140
:103F400013968C916501C80ED11C8FE7882E82E0F4
:103F5000982EF801848190E096012A193B09821776
:103F60009307C4F0D6012D916D01F7010190002057
:103F7000E9F71F922F939F928F92CF0101979F9302
:103F80008F930E94E23A0F900F900F900F900F9036
:103F90000F90DFCF40E150E060E070E0C7010E9489
:103FA0006D354B015C01D801ED91FC910280F381EC
:103FB000E02DC801099540E0BC0186E090E00E9438
:103FC000D40C40E06AE878E086E090E00E94620D60
:103FD00040E0B70186E090E00E94D40C40E063EE40
:103FE00071E086E090E00E94D40C21E0B501A401CC
:103FF00086E090E00E94880CC501B4010FB6F894E9
:104000007EBE0FBE6DBEDF91CF911F910F91FF90CD
:10401000EF90DF90CF90BF90AF909F908F907F9068
:104020006F9008956F927F928F929F92AF92BF92FE
:10403000CF92DF92EF92FF920F931F93CF93DF9374
:10404000CDB7DEB78C015B016DB67EB6DC01ED91BC
:10405000FC910280F381E02D099540E0BC0185E0F0
:1040600090E00E94D40C40E069E778E085E090E0C1
:104070000E94620D40E06EE678E085E090E00E94EC
:10408000620D40E0F801638185E090E00E94B61E79
:1040900040E063E678E085E090E00E94620D40E059
:1040A000D80114966C9185E090E00E94B61EF8014C
:1040B000448150E08381481B51094F5F5F4FF42ECC
:1040C000FF0C40E068E578E085E090E00E94620D3A
:1040D00040E06F2D85E090E00E94B61E40E065E470
:1040E00078E085E090E00E94620D41E0D5011896ED
:1040F0006C9185E090E00E94B61E4F2D50E04F5F1E
:104100005F4FEDB7FEB7E41BF50B0FB6F894FEBF9B
:104110000FBEEDBF8DB79EB701967C0165E371E0E0
:104120000E948A3AD80113968C916501C80ED11C61
:1041300082E8882E82E0982EF801848190E0960132
:104140002A193B0982179307C4F0D6012D916D01FE
:10415000F70101900020E9F71F922F939F928F9211
:10416000CF0101979F938F930E94E23A0F900F9097
:104170000F900F900F900F90DFCF40E150E060E084
:1041800070E0C7010E946D354B015C01D801ED91D3
:10419000FC910280F381E02DC801099540E0BC014B
:1041A00086E090E00E94D40C40E069E378E086E08D
:1041B00090E00E94620D40E0B70186E090E00E942E
:1041C000D40C40E063EE71E086E090E00E94D40CF5
:1041D00021E0B501A40186E090E00E94880CC501B1
:1041E000B4010FB6F8947EBE0FBE6DBEDF91CF91C5
:1041F0001F910F91FF90EF90DF90CF90BF90AF9005
:104200009F908F907F906F9008952F923F924F9242
:104210005F926F927F928F929F92AF92BF92CF9256
:10422000DF92EF92FF920F931F93CF93DF93CDB75F
:10423000DEB78C015B016DB67EB6DC01ED91FC91C1
:104240000280F381E02D099540E0BC0185E090E01B
:104250000E94D40C40E068E278E085E090E00E94A3
:10426000620D40E150E060E070E0C5010E946D35F4
:104270001B012C010E94FC0890E005974CF185E0A1
:1042800090E00E9497077C010E945308882379F0F0
:10429000B70180914D0390914E030E940017B20127
:1042A000A10180914D0390914E030E94F92CB7011A
:1042B0008AE593E00E940017B201A1018AE593E02C
:1042C0000E94F92C81E00E947808C7010E94E43422
:1042D000F801D38044814D1950E04F5F5F4F8DB797
:1042E0009EB7841B950B0FB6F8949EBF0FBE8DBF73
:1042F000ADB7BEB711967D0165E371E0CD010E94B7
:104300008A3AF501ED0DF11D6F018FE7882E82E0ED
:10431000982ED80114968C9190E096012A193B09A9
:1043200082179307C4F0F60121916F01F701019004
:104330000020E9F71F922F939F928F92CF01019750
:104340009F938F930E94E23A0F900F900F900F90DF
:104350000F900F90DECF40E150E060E070E0C701C9
:104360000E946D354B015C01D801ED91FC910280FA
:10437000F381E02DC801099540E0BC0186E090E0A2
:104380000E94D40C40E06CE178E086E090E00E946E
:10439000620D40E0B70186E090E00E94D40C40E05E
:1043A00063EE71E086E090E00E94D40C21E0B5015C
:1043B000A40186E090E00E94880CC501B4010FB60C
:1043C000F8947EBE0FBE6DBEDF91CF911F910F910D
:1043D000FF90EF90DF90CF90BF90AF909F908F9025
:1043E0007F906F905F904F903F902F9008950F9324
:1043F000CF93DF93EC018AE391E0998388836A830A
:104400004B832C830D83FE01369680E1DF011D92E4
:104410008A95E9F71E8A0E94A32C6F8B788F898F6B
:104420009A8F1B8E1C8E1D8E1E8E1F8E18A219A297
:104430001AA21BA21CA21DA21EA21FA218A619A688
:104440001AA61BA61CA61DA61EA618AA1FA640E0FB
:1044500069EE77E084E090E00E94620D41E06EE357
:1044600071E084E090E0DF91CF910F910C94D40C37
:10447000CF92DF92EF92FF926B017C01E0916A0391
:10448000F0916B0382E08083C11481EED806E104D1
:10449000F104B1F060E079E08DE390E0A7019601CE
:1044A0000E94C539DA01C9010197A109B109B69580
:1044B000A795979587959C01211580E13807B8F05D
:1044C000E0916A03F0916B03108260E874E88EE17A
:1044D00090E0A70196010E94C539DA01C901019750
:1044E000A109B109B695A795979587959C01E0918B
:1044F0006603F09167033083E0916803F0916903EC
:10450000208310927203E0916E03F0916F0386E0B6
:104510008083E0916C03F0916D03808180618083E2
:10452000E0916C03F0916D03808188608083E0915D
:104530006C03F0916D03808180688083E0916C034F
:10454000F0916D0380818F7D8083FF90EF90DF90ED
:10455000CF9008951F93CF93DF93EC01122FE88142
:10456000F9810190F081E02D0995E881F9810190B0
:10457000F081E02D44E65FE060E070E0CE01099557
:10458000CE010E947C07CE010E946E07112351F0DC
:104590008A8D9B8D0E94F81ECD5BDF4F81E090E0FD
:1045A00099838883DF91CF911F910895CF92DF92F5
:1045B000EF92FF920F93CF93DF93EC0169017A01A1
:1045C000FB018081882321F0888D998D0E9400173E
:1045D000202FB701A601CE010E94AA2261E379E053
:1045E000888D998DDF91CF910F91FF90EF90DF90A3
:1045F000CF900C9402174F925F926F927F928F929E
:104600009F92AF92BF92CF92DF92EF92FF920F9361
:10461000CF93DF93CDB7DEB74C016B0129013A018F
:10462000ADB6BEB6CB010E949C3601962DB73EB703
:10463000281B390B0FB6F8943EBF0FBE2DBF8DB7A8
:104640009EB701967C01B6010E949536A3019201A6
:10465000B701C4010E94D6220FB6F894BEBE0FBEA9
:10466000ADBEDF91CF910F91FF90EF90DF90CF9093
:10467000BF90AF909F908F907F906F905F904F9082
:1046800008950F93CF93DF93EC01E881F9810084C3
:10469000F185E02D40E050E0BA010995CE010E947D
:1046A0007C07CE010E946E0726EC3AE140E050E024
:1046B00000E068E279E0CE010E94FB22DF91CF9119
:1046C0000F9108950F931F93CF93DF93EC016091A7
:1046D0007804709179040E945407CE010E946E07FD
:1046E0008E01045E1F4F6BEF71E0C8010E94933A88
:1046F000892B49F449ED56E060E070E020E0CE01FE
:104700000E94AA222FC06AEE71E0C8010E94933A6B
:10471000892B41F58AE00E94D52B892BE1F463E1D6
:1047200079E0888D998D0E94021767E872E0888D84
:10473000998D0E94001763EE71E0888D998D0E941B
:10474000001765E972E0888D998D0E94D716888DD3
:10475000998D0E94D316CE01DF91CF911F910F91B9
:104760000C944123DF91CF911F910F9108952FEF6A
:104770003FEF80E090E0FC01EE0FFF1FEE0FFF1F08
:10478000E55FFB4F40815181628173814115510585
:104790006105710531F42F3F4FEF3407D9F49C01C7
:1047A00019C00097B9F02F3FAFEF3A0799F0D90140
:1047B000AA0FBB1FAA0FBB1FA55FBB4F4D935D93F5
:1047C0006D937C9313971082118212821382C90118
:1047D0002FEF3FEF0196853091056CF20895CF934E
:1047E000DF93EC019A01AB011B8E1A8E198E188E85
:1047F0001F8A1E8A60E079E08DE390E00E944C3AC7
:10480000F9012430310518F0C901039702C081E095
:1048100090E09D8F8C8F6C85663108F06AC0C9016D
:10482000969587958431910510F0439702C081E0F9
:1048300090E09F8B8E8B369718F0C901059702C0C8
:1048400081E090E0998F888FC901880F991F280F08
:10485000391F36952795369527952D30310518F057
:104860002C50310902C021E030E03B8F2A8F30917B
:104870006800683058F021E06E3008F420E091E0E4
:10488000892F01C0880F2A95EAF701C084E0832BA5
:10489000809368009C85983038F09E3040F09631C7
:1048A00048F020E030E008C02DE630E005C02BE6FF
:1048B00030E002C02CE630E03C8B2B8B983030F49B
:1048C00081E001C0880F9A95EAF70EC0292F30E0E9
:1048D0009E3018F42850310902C02E50310981E071
:1048E00001C0880F2A95EAF78D8B8C8D9D8D0197DD
:1048F000F1F7CE01DF91CF910C94F8170F931F932E
:10490000CF93DF93EC01162F042F1B821A8288EEBF
:1049100093E0A0E0B0E08C839D83AE83BF8382E50B
:1049200091E0998388831F8A1E8A198E188E1B8EA8
:104930001A8E1D8E1C8E6E8D6E7F6D7F6E8F6695AE
:10494000617081E06827842F0E94FE2B61E0802F38
:104950000E942D2C802F90E0FC01E150F74FE49154
:10496000E88BFC01E551F74FE491F0E0EE0FFF1FFB
:10497000EF51F74F859194919A8B898B60E0812F4D
:104980000E942D2C8E8D81FD04C061E0812F0E943C
:10499000FE2B1C87812F90E0FC01E150F74FE49142
:1049A000ED87FC01E551F74FE491F0E0EE0FFF1FBA
:1049B000E952F74F859194919F878E87DF91CF9130
:1049C0001F910F910895EF92FF920F931F93CF9332
:1049D000DF93EC01142F052F7901798368831E8200
:1049E0001D8218861F821A8619861C861B860E94C5
:1049F000A32C6D877E878F87988B198A1A8A1B8ACA
:104A00001C8AFE8AED8A188E1F8A86E691E09A8FAC
:104A1000898FFE017B9688E0DF011D928A95E9F778
:104A20000F931F938BEA92E09F938F931F9283E0E3
:104A30008F93CE0102969F938F930E94B23A61E0CA
:104A400088810E942D2C8DB79EB708960FB6F894DA
:104A50009EBF0FBE8DBF60E08881DF91CF911F9117
:104A60000F91FF90EF900C94FE2B0F93CF93DF9359
:104A7000EC01E881F9810084F185E02D40E050E00F
:104A8000BA01099529ED36E040E050E000E06EEA19
:104A900072E0CE010E94D622DF91CF910F9108954E
:104AA0004F925F926F927F928F929F92AF92BF923E
:104AB000CF92DF92EF92FF921F93CF93DF93EC019F
:104AC0008FA598A920914F03309150038217930727
:104AD00009F0E5C040E061EF7AE086E090E00E94F6
:104AE000620D0E94A32CAB01BC014F8B588F698FC4
:104AF0007A8F21E086E090E00E94880C4F8D58A1CB
:104B000069A17AA18091560490915704A09158040C
:104B1000B0915904840F951FA61FB71F8FA398A7A4
:104B2000A9A7BAA740E06FED7AE086E090E00E9486
:104B3000620D4B8D5C8D6D8D7E8D21E086E090E069
:104B40000E94880C40E06BEC7AE086E090E00E94E6
:104B5000620D4F89588D698D7A8D8B8D9C8DAD8DB1
:104B6000BE8D481B590B6A0B7B0B21E086E090E061
:104B70000E94880C40E066EB7AE086E090E00E94BC
:104B8000620D4F8D58A169A17AA121E086E090E0E5
:104B90000E94880C40E06FE97AE086E090E00E9495
:104BA000620D4F89588D698D7A8D8F8D98A1A9A13D
:104BB000BAA1481B590B6A0B7B0B21E086E090E001
:104BC0000E94880C40E067E87AE086E090E00E946E
:104BD000620D61E0CE010E947A2DAB01BC0121E0A3
:104BE00086E090E00E94880C40E063E67AE086E090
:104BF00090E00E94620D4BA15CA16DA17EA121E01D
:104C000086E090E00E94880C40E06EE47AE086E066
:104C100090E00E94620D4FA158A569A57AA521E0F8
:104C200086E090E00E94880C40E06BE37AE086E04A
:104C300090E00E94620DCFA0D8A4E9A4FAA461E09C
:104C4000CE010E947A2D9B01AC01A8EEB3E00E9438
:104C5000E739AB01BC014C0D5D1D6E1D7F1D21E0D0
:104C600086E090E00E94880C8F89988DA98DBA8D7E
:104C70004B8D5C8D6D8D7E8D841B950BA60BB70BBC
:104C80004091520450915304609154047091550422
:104C9000481759076A077B0708F06AC219C00E94C3
:104CA000F81741E064E07BE086E090E00E94620D4E
:104CB00064E670E080E090E00E94692C2FA538A99E
:104CC00080914F039091500328173907E9F702CFDD
:104CD00040E06CE07AE086E090E00E94620DE881BE
:104CE000F9810280F381E02DCE01099540E0BC01FD
:104CF00086E090E00E94D40C40E069E07AE086E033
:104D000090E00E94620D41E06A8186E090E00E949E
:104D1000B61E8FA598A9DC01ED91FC910084F18568
:104D2000E02D0995892B09F43FC18FA598A9DC01D5
:104D3000ED91FC910084F185E02D0995892B09F412
:104D400017C21E89103118F48A81181720F0CE017D
:104D50000E94F81EEACF8FA598A9DC01ED91FC9185
:104D60000284F385E02D0995FE01E10FF11D868394
:104D700040E067E07AE086E090E00E94620D40E06B
:104D80006E8986E090E00E94B61E40E065E07AE021
:104D900086E090E00E94620D8E89FE01E80FF11D11
:104DA000168180ED810F8A3028F0812F8F7D81540C
:104DB000863060F50E94FC0890E006973CF186E0A2
:104DC00090E00E9497077C010E945308882371F0AD
:104DD000B70180914D0390914E030E940017612FFF
:104DE00080914D0390914E030E94F916B7018AE518
:104DF00093E00E940017612F8AE593E00E94F91664
:104E000080E00E947808C7010E94E43440E061EC31
:104E100072E086E090E00E94D40C8E89FE01E80FDB
:104E2000F11D20E040E150E0668186E090E00E94C4
:104E30006F1E40E061EC72E086E090E00E94D40CCE
:104E40008E89FE01E80FF11D20E04AE050E0668106
:104E500086E090E00E946F1E9A8191508E898111A8
:104E600005C02E81223009F072CFCCC198130DC03D
:104E7000FE01E90FF11D96819330B9F0CE010E9439
:104E8000F81E41E061E272E00BC09817B8F3803180
:104E9000A8F7891760F48F5F8E8B40E063EC72E0B7
:104EA00086E090E00E94D40C40CF803138F741E09A
:104EB00061E272E086E090E00E94D40C7E01B6E0F0
:104EC000EB0EF11CE881F9810280F381E02DCE0127
:104ED000099540E0BC0185E090E00E94D40C40E0E0
:104EE00068EE79E085E090E00E94620D0E94FC0887
:104EF000853010F167018A8190E096012E193F09F3
:104F00002817390794F4F60161916F0120E040E120
:104F100050E085E090E00E946F1E40E066EE79E090
:104F200085E090E00E94620DE6CF41E061E272E030
:104F300085E090E00E94D40CE881F9810190F08135
:104F4000E02DB701CE0109956B017C01672B682B21
:104F5000692B21F440E06AEB79E062C1E0914703FC
:104F6000F09148031682158260E080810E94FE2B3A
:104F700045E050E061E070E080914B0390914C037C
:104F80000E942B2DEBE0F4E08FE194E041915191F0
:104F900061917191C416D506E606F70609F435C18C
:104FA0008E179F0799F7D6CF4F88588C698C7A8CCB
:104FB0008B8D9C8DAD8DBE8D481A590A6A0A7B0A6D
:104FC00061E0CE010E947A2D9B01AC01A8EEB3E016
:104FD0000E94E739DC01CB01B695A7959795879597
:104FE0008F88988CA98CBA8CCFA0D8A4E9A4FAA4F5
:104FF00084159505A605B70570F08B8D9C8DAD8D3C
:10500000BE8D892B8A2B8B2B31F08C149D04AE0422
:10501000BF0408F4ADC061E0CE010E947A2D9B016F
:10502000AC01A8EEB3E00E94E739C60ED71EE81E19
:10503000F91E8C149D04AE04BF0448F48F8D98A112
:10504000A9A1BAA1892B8A2B8B2B09F0C8C040E0FB
:105050006FE979E085E090E00E94620DCB8CDC8CFA
:10506000ED8CFE8CC114D104E104F10409F4AFC04D
:105070008F89988DA98DBA8DBC01CD016C197D09E0
:105080008E099F0928EE33E040E050E00E94C539C8
:10509000BA01A90120E085E090E00E94880C40E080
:1050A00069E979E085E090E00E94620D40E069E8FE
:1050B00079E085E090E00E94620DCF8CD8A0E9A055
:1050C000FAA0C114D104E104F10409F484C08F8969
:1050D000988DA98DBA8DBC01CD016C197D098E0901
:1050E0009F0928EE33E040E050E00E94C539BA0144
:1050F000A90120E085E090E00E94880C40E063E890
:1051000079E085E090E00E94620D40E061E779E09F
:1051100085E090E00E94620D61E0CE010E947A2D50
:10512000AB01BC0121E085E090E00E94880C41E0E9
:105130006CE579E086E090E00E94620D8BA19CA175
:10514000ADA1BEA1892B8A2B8B2B21F062E0CE0171
:105150000E947A2D6D8181E0682785E00E94FE2BF8
:105160008F89988DA98DBA8D8F8F98A3A9A3BAA383
:1051700040E065EC72E086E090E00E94D40C4BA524
:105180005CA56DA57EA521E086E090E00E94880CDC
:1051900040E06AE27AE086E090E00E94620D0E94C0
:1051A000A32CAB01BC0121E086E090E0DF91CF9120
:1051B0001F91FF90EF90DF90CF90BF90AF909F90A6
:1051C0008F907F906F905F904F900C94880C40E090
:1051D00063E979E067CF40E06DE779E092CF4F89EE
:1051E000588D698D7A8D8FA198A5A9A5BAA5481764
:1051F00059076A077B0708F4BBCF6D8185E00E94E1
:10520000FE2BB6CF911147CE33CE8F89988DA98DC5
:10521000BA8D8B8F9C8FAD8FBE8F40E065ED79E0AE
:1052200084E090E00E94620D21E0B701A60184E0D5
:1052300090E00E94880CCBA6DCA6EDA6FEA6CE01CF
:105240000E94F81E95CFCF93DF93EC010E946E076A
:10525000E881F9810084F185E02D40E050E0BA0159
:10526000CE0109958091010190910201892BB1F144
:10527000BE01645E7F4F40E085E090E00E94D40C68
:1052800041E066E479E085E090E00E94620D41E053
:1052900064E379E084E090E00E94620D41E061E225
:1052A00072E084E090E00E94D40C8BE00E94D52B49
:1052B00021E0892B09F020E020934603109202019F
:1052C000109201018FE194E00E940719882331F0C8
:1052D00087ED92E0DF91CF910C949508DF91CF910B
:1052E0000895CF92DF92EF92FF920F931F93CF9387
:1052F000DF93EC010E94A32C28EE33E040E050E065
:105300000E94C539643F714081059105A8F58091DF
:10531000440390914503892B79F500914203109144
:1053200043030C171D0741F5D8015A968D919C91A6
:105330005B970E945025D8015A96ED91FC915B979E
:1053400083A594A5A5A5B6A5892B8A2B8B2B09F43B
:1053500068C0F801ED5BFF4F80819181892B09F0D6
:1053600060C0C801DF91CF911F910F91FF90EF9026
:10537000DF90CF900C94232900910101109102013C
:1053800001301105A9F44BA15CA16DA17EA1809112
:10539000620490916304A0916404B091650448177D
:1053A00059076A077B0721F460E08DE00E94FE2B1D
:1053B0008091440390914503009719F0C817D907CD
:1053C000F1F40E94A32CCF8CD8A0E9A0FAA06C190C
:1053D0007D098E099F0928EE33E040E050E00E94ED
:1053E000C5398BA19CA1ADA1BEA182179307A407CB
:1053F000B50710F0012B19F4CE010E942329E88192
:10540000F9810680F781E02D40E060E070E0CE0198
:10541000DF91CF911F910F91FF90EF90DF90CF9090
:105420000994DF91CF911F910F91FF90EF90DF9042
:10543000CF900895833081F028F4813099F0823044
:10544000A1F008958730A9F08830B9F08430D1F404
:10545000809180008F7D03C0809180008F77809342
:105460008000089584B58F7702C084B58F7D84BD98
:1054700008958091B0008F7703C08091B0008F7D38
:105480008093B00008953FB7F894809156039091AF
:105490005703A0915803B091590326B5A89B05C0A6
:1054A0002F3F19F00196A11DB11D3FBFBA2FA92FA3
:1054B000982F8827820F911DA11DB11DBC01CD0120
:1054C00042E0660F771F881F991F4A95D1F708950C
:1054D0005F926F927F928F929F92AF92BF92CF9284
:1054E000DF92EF92FF920F931F93CF93DF93CDB78D
:1054F000DEB76B970FB6F894DEBF0FBECDBF3C0191
:1055000060E77CE00E9402174091F9035091FA0392
:1055100060E070E020E1C3010E948A1668E67CE04A
:10552000C3010E9402172AE042E050E060E070E010
:10553000C3010E948A16C3010E94D3168BE0E82E95
:1055400084E0F82E01E010E099E1592E4E0123E0AD
:10555000820E911C25E5C22E2CE0D22ECE010196A2
:105560005C01F70181919191A191B1917F01009727
:10557000A105B10501F11A821982F401252D1192BC
:105580002A95E9F7BF93AF939F938F93BF93AF9300
:105590009F938F931F930F93DF92CF92BF92AF92FF
:1055A0000E94E936B501C3010E94D7160FB6F894E0
:1055B000DEBF0FBECDBF0F5F1F4F0630110589F64E
:1055C0006B960FB6F894DEBF0FBECDBFDF91CF91C3
:1055D0001F910F91FF90EF90DF90CF90BF90AF9011
:1055E0009F908F907F906F905F9008950F931F937F
:1055F000CF93DF93EC010E9402178C01CE010E9431
:10560000D316800F911FDF91CF911F910F910895B5
:10561000EF92FF920F931F93CF93DF9300D0CDB7FC
:10562000DEB70E94B72387EF93E00E9447188823D4
:1056300021F041E069E37CE025C087EF93E00E9420
:1056400029189093FA038093F9038091F7039091BE
:10565000F80307EF13E09C01275F33407901C7018E
:10566000800F911FF80161918F019A838983CE0188
:1056700001960E94F710F4E00F311F0781F741E017
:105680006AE27CE084E090E00E94620D0F900F904F
:10569000DF91CF911F910F91FF90EF9008952F927E
:1056A0003F924F925F926F927F928F929F92AF92B2
:1056B000BF92CF92DF92EF92FF920F931F93CF93FF
:1056C000DF93CDB7DEB7AB970FB6F894DEBF0FBE52
:1056D000CDBF7C0188E3C82E8BE0D82E00E010E01F
:1056E00096E1292ECE0101964C0123E1322E2E01A6
:1056F00099E1490E511C30E3632E3BE0732E5E01AD
:10570000E7E1AE0EB11CF401822D11928A95E9F702
:1057100046E150E0B601C4010E948C36188E1F8A03
:10572000F201832D11928A95E9F79F928F921F9330
:105730000F937F926F92BF92AF920E94E936B501AC
:10574000F701808D918D0E94D7160F5F1F4FF6E1F4
:10575000CF0ED11C0FB6F894DEBF0FBECDBF0B30FD
:10576000110589F661E272E0F701808D918D0E944A
:10577000D716C7010E943525AB960FB6F894DEBF49
:105780000FBECDBFDF91CF911F910F91FF90EF9092
:10579000DF90CF90BF90AF909F908F907F906F9051
:1057A0005F904F903F902F900895CF93DF93282FD5
:1057B00030E0F901E45EF44F8491F901E150F74FD4
:1057C000D491F901E551F74FC491CC2391F08111A7
:1057D0000E941A2AEC2FF0E0EE0FFF1FE952F74F5C
:1057E000A591B491EC91ED2381E090E021F480E06B
:1057F00002C080E090E0DF91CF9108951F93CF9396
:10580000DF93282F30E0F901E45EF44F8491F90131
:10581000E150F74FD491F901E551F74FC491CC23F2
:10582000C1F0162F81110E941A2AEC2FF0E0EE0F22
:10583000FF1FEF51F74FA591B4919FB7F894111145
:1058400004C08C91D095D82302C0EC91DE2BDC9360
:105850009FBFDF91CF911F910895CF93DF9390E089
:10586000FC01E150F74F2491FC01E551F74F849181
:10587000882361F190E0880F991FFC01EE5EF44FE0
:10588000C591D491FC01EF51F74FA591B4916111ED
:1058900009C09FB7F8948881209582238883EC9172
:1058A0002E230BC0623061F49FB7F8948881322FA9
:1058B000309583238883EC912E2B2C939FBF06C0B9
:1058C0008FB7F894E8812E2B28838FBFDF91CF917B
:1058D00008958F929F92AF92BF92CF92DF92EF92F4
:1058E000FF926B017C010E94432A4B015C01C114B1
:1058F000D104E104F104F1F00E94432ADC01CB0160
:1059000088199909AA09BB09883E9340A105B105E8
:1059100070F321E0C21AD108E108F10888EE880E80
:1059200083E0981EA11CB11CC114D104E104F10450
:1059300019F7DDCFFF90EF90DF90CF90BF90AF9041
:105940009F908F9008952FB7F894609152037091B3
:10595000530380915403909155032FBF08951F92D4
:105960000F920FB60F9211242F933F938F939F9313
:10597000AF93BF938091520390915303A09154032E
:10598000B09155033091510323E0230F2D3720F4BC
:105990000196A11DB11D05C026E8230F0296A11D89
:1059A000B11D209351038093520390935303A0930E
:1059B0005403B09355038091560390915703A091DF
:1059C0005803B09159030196A11DB11D8093560350
:1059D00090935703A0935803B0935903BF91AF918D
:1059E0009F918F913F912F910F900FBE0F901F901D
:1059F0001895CF92DF92EF92FF920F931F93CF9360
:105A0000DF9377FF1DC06A017B01EC016DE20E940C
:105A1000F9168C0144275527BA014C195D096E0906
:105A20007F092AE0CE010E948A16800F911FDF9124
:105A3000CF911F910F91FF90EF90DF90CF9008953D
:105A40002AE0DF91CF911F910F91FF90EF90DF90AF
:105A5000CF900C948A16CF92DF92EF92FF920F9321
:105A60001F93CF93DF93EC017B018B859C858A018B
:105A7000000F111F000F111F8617970799F4C98C8B
:105A8000DA8CB8016E597E4FC616D70651F1CE0199
:105A90000E940E09892B31F4B601CE010E940E0935
:105AA000892BF9F01E821D8218861F821A8619869C
:105AB000FC86EB860E591E4F1A8F098F0E94FC0838
:105AC000853010F00E94FC0860E070E0CE01DF91AC
:105AD000CF911F910F91FF90EF90DF90CF900C949A
