:100000000C94B6050C94DE050C94DE050C94822746
:100010000C9482270C9482270C94DE050C940A26FB
:100020000C94DE050C94DE050C94DE050C94DE05C4
:100030000C94DE050C94DE050C94DE050C94DE05B4
:100040000C944E290C94DE050C9450270C942A270E
:100050000C94DE050C94DE050C94DE050C94DE0594
:100060000C94DE050C94DE051F0834083A08450898
:100070004F0856085A087B087F0883086B0D760DD9
:10008000810D8C0D970DB40DBB0DC20DC70DD20D9A
:10009000DD0DE80DEF0DF60D010EE91002111B113B
:1000A00034114F116A116D1170119811B311CE11E5
:1000B000E911EC11F211FA1143616C6C696E672061
:1000C000454550524F4D2E757064617465207769B7
:1000D00074682070726F78696D6974795F73746188
:1000E00074653A2000292000465245452052414D72
:1000F0002028006164645461672829207375636354
:1001000065737300616464546167282920666169BE
:100110006C65643A2044757065006164645461677D
:100120002829206661696C65643A2046756C6C000C
:1001300061646454616728292061626F7274656428
:100140003A20496E76616C696420636F6465006172
:100150006464546167282920006661696C65642CB9
:1001600020746167206973206475706C69636174C1
:1001700065006661696C65642C20746167206C6938
:1001800073742069732066756C6C0061626F7274A1
:1001900065642C20696E76616C6964207461672DDA
:1001A000696420737472696E670073756363657345
:1001B0007300416464546167282920726573756C0B
:1001C000743A200054616720656E74657265643A04
:1001D000200064656C657465546167496E64657878
:1001E00028293A200044656C6574655461672829A4
:1001F00020726573756C743A200064656C65746573
:1002000054616728292061626F72746564006465B7
:100210006C657465416C6C54616773282900646572
:100220006C657465416C6C54616773282920616248
:100230006F7274656400757064617465536574747D
:10024000696E6728292063616C6C20746F20532EBF
:1002500075706461746553657474696E67282920CC
:100260006661696C6564007570646174655365747A
:1002700074696E6728292061626F72746564004634
:10028000726565204D656D6F72793A200053746F09
:10029000726167653A3A4C6F6164282920454E4483
:1002A0000053746F726167653A3A4C6F6164282934
:1002B00020636865636B73756D206D69736D617420
:1002C00063680053746F726167653A3A4C6F61649A
:1002D000282920424547494E0053657474696E676A
:1002E000733A3A4C6F61642829207573696E6720F0
:1002F00073746F7265642073657474696E677320BC
:10030000270053657474696E67733A3A4C6F616481
:100310002829207573696E672064656661756C7441
:100320002073657474696E67732027005365747455
:10033000696E67733A3A4C6F616428292063686B71
:10034000736D206D69736D61746368206F722066D0
:1003500061696C736166650053657474696E677377
:100360003A3A4C6F616428292063686B736D206D85
:1003700069736D61746368004661696C7361666579
:1003800020656E61626C65642C20736B69707069A6
:100390006E672073746F7265642073657474696E20
:1003A00067730053657474696E67733A3A4C6F6192
:1003B00064282920424547494E004C6F6164696EAC
:1003C00067207265616465723A20004C6F616469F0
:1003D0006E67207265616465723A200053657474BB
:1003E000696E67206F7574707574207377697463B4
:1003F00068207065722070726F78696D6974795FBA
:1004000073746174653A20005374617274696E6725
:1004100020436F6E74726F6C6C65722077697468BC
:1004200020726561646572200053746F7261676544
:100430003A3A4C6F6164282920454E440053746F4A
:10044000726167653A3A4C6F616428292063686578
:10045000636B73756D206D69736D617463680053B0
:10046000746F726167653A3A4C6F61642829204263
:100470004547494E00546167733A3A4C6F616428AE
:100480002920636865636B73756D206D69736D6199
:100490007463682C206372656174696E67206E6591
:1004A00077207461672D7365740054616773206CE5
:1004B0006F61646564004D656E753A3A42656769BF
:1004C0006E2829004C6F674C6576656C28293A20A8
:1004D0000044656275672070696E2073746174757D
:1004E000733A2000496E697469616C697A656420A9
:1004F00048572073657269616C20706F7274204078
:10050000200027206F662073697A652000272077F6
:1005100069746820636865636B73756D2027307834
:10052000004C6F616465642053657474696E677311
:100530002027002C2000426F6F74696E672052469E
:1005400049442070726F78696D6974792073656EA3
:10055000736F722C2000496E697469616C697A65E9
:10056000642048572073657269616C20706F7274E3
:1005700020402035373630300052464944207072D2
:100580006F78696D6974792073656E736F7220700E
:1005900072652D626F6F74006C6F675F6C65766556
:1005A0006C006C6F675F746F5F62740061646D698B
:1005B0006E5F737461727475705F74696D656F7569
:1005C0007400746F6E655F6672657175656E6379D0
:1005D00000726669645F626175640062745F626183
:1005E00075640068775F73657269616C5F626175DD
:1005F000640064656661756C745F726561646572E0
:1006000000656E61626C655F64656275670070723B
:100610006F78696D6974795F73746174655F737401
:1006200061727475700061646D696E5F74696D6587
:100630006F7574007265616465725F6379636C6580
:100640005F686967685F6475726174696F6E007274
:1006500065616465725F6379636C655F6C6F775F1A
:100660006475726174696F6E007461675F72656151
:10067000645F736C6565705F696E74657276616CDA
:10068000007461675F6C6173745F726561645F744D
:10069000696D656F7574003A200053656C6563740D
:1006A00065643A20004572726F723A2043616C6C47
:1006B00065642070726F636573735461674461741D
:1006C000612829206F6E2062617365205265616424
:1006D000657220636C617373004C6F6164696E674F
:1006E000207265616465723A200052444D363330A1
:1006F000302074616720726561643A200052444D75
:100700003633303020707263732074616720696EF5
:1007100070743A20005237393431452074616720B3
:10072000726561643A20002C20636865636B7375A1
:100730006D2028646563293A20002C2069645F6C71
:10074000656E3A20002C2069645F656E643A200073
:1007500069645F626567696E3A20005237393431E7
:100760004520707263732074616720696E70743AFB
:100770002000574C31323520726561643A20002CDC
:1007800020636865636B73756D20287261772068DC
:100790006578206279746573293A20002C20696499
:1007A0005F6C656E3A20002C2069645F656E643A68
:1007B000200069645F626567696E3A2000574C31BA
:1007C000323520707263732074616720696E7074B3
:1007D0003A2000810669064F06340626060E0601F9
:1007E00006F205E305DB05D105C205AC05A20598B7
:1007F000052C2073697A65200053657474696E67EF
:10080000732C2063686B736D20307800456E7465BF
:1008100072696E672072756E206D6F64650020735B
:10082000657474696E672072756E5F6D6F646520A4
:100830003D3E2030006379636C655265616465728A
:10084000506F77657228292073657474696E67200C
:1008500072656164657220706F776572204C4F57C6
:10086000002C20757074696D6520006E6576657268
:1008700000732061676F002C206379636C656420CE
:10088000006E6576657200732061676F006379633F
:100890006C65526561646572506F776572282920B6
:1008A000746167207265616420006379636C6552CE
:1008B0006561646572506F7765722829207365746D
:1008C00074696E672072656164657220706F776508
:1008D00072204849474800556E617574686F7269A7
:1008E0007A6564206F7220696E76616C6964207429
:1008F00061673A2000417574686F72697A65642097
:100900007461673A200054616720726573756C7476
:100910002066726F6D2070726F63657373546167C8
:100920004461746128293A20005265616465723A15
:100930003A70726F6365737354616728292072651A
:100940006365697665642062756666657220772FD7
:100950007265616465723A2000290028002C20002D
:100960005265616465723A3A706F6C6C526561648D
:1009700065722829206E616D652C206C656E3A20A9
:1009800000524541444552204C4F4F5020454E4463
:1009900020006D735F7265616465725F6379636C7B
:1009A000655F746F74616C3A20006D7353696E6398
:1009B000654C617374526561646572506F776572DE
:1009C0004379636C6528293A20006D7353696E631F
:1009D000654C6173745461675265616428293A20DB
:1009E000006C6173745F7265616465725F706F77CC
:1009F00065725F6379636C655F6D733A20006C614B
:100A000073745F7461675F726561645F6D733A20D0
:100A100000524541444552204C4F4F5020424547DB
:100A2000494E200000000000240027002A0000009A
:100A3000000800020100000304070000000000009D
:100A400000002E20002C2073697A65200054616715
:100A5000732C2063686B736D203078002900526519
:100A600061646572732028004E2F4100392E2042A8
:100A70005420636F6D6D616E6400382E2052657373
:100A80007461727400372E204C6973742072656132
:100A90006465727300362E2053686F772066726526
:100AA00065206D656D6F727900352E205365747405
:100AB000696E677300342E2044656C65746520612F
:100AC0006C6C207461677300332E2044656C657410
:100AD000652074616700322E204164642074616770
:100AE00000312E204C697374207461677300302EBE
:100AF0002045786974004D656E75003A200000004D
:100B00000000230026002900000000002500280026
:100B10002B0004040404040404040202020202027E
:100B200003030303030301020408102040800102B1
:100B30000408102001020408102052464944206194
:100B4000646D696E20636F6E736F6C652C2000534B
:100B5000657474696E67733A3A7361766528292003
:100B6000726573756C743A200002C32F11241FBE86
:100B7000CFEFD8E0DEBFCDBF14E0A0E0B1E0EAECFB
:100B8000FCE602C005900D92A030B107D9F725E030
:100B9000A0E0B4E001C01D92A33AB207E1F715E06E
:100BA000C6EBD5E004C02197FE010E943333C53B5C
:100BB000D107C9F70E9498290C9463360C94000061
:100BC000FC01B79628E1DF011D922A95E9F7789696
:100BD000118210823496118210820895AF92BF92D2
:100BE000CF92DF92EF92FF920F931F93CF93DF93F9
:100BF000CDB7DEB7A1970FB6F894DEBF0FBECDBF5D
:100C00008C015C0123E4A20EB11CD5018D919C9155
:100C1000892B09F45CC0F801828D938D0E94551ACE
:100C2000D8015A96ED91FC915B9783AD94ADA5AD3B
:100C3000B6AD0097A105B10509F449C0BF93AF93C4
:100C40009F938F9380E991E09F938F937E01B9E109
:100C5000EB0EF11CFF92EF920E94B03348E150E09E
:100C6000B7017801E7E2EE0EF11CC7010E94503295
:100C7000F7010FB6F894DEBF0FBECDBF80E090E065
:100C800041919C012F5F3F4F41110EC0F801E80FC9
:100C9000F91F4AE047A3F801E20FF31F17A2F8017A
:100CA000FF963183208304C0C9012831310541F703
:100CB000D8015A968D919C915B97FC0113AE14AEAE
:100CC00015AE16AE0E94F617D5011D921C9264E96E
:100CD00071E0C8014C960E946833892B21F5F80118
:100CE000E08CF18CC7010E94FC2780911D0490913B
:100CF0001E04E816F90639F062E070E080E090E04A
:100D00000E94F123F2CFD5018D919C91892B29F47A
:100D100061E070E080E090E004C06AE070E080E0B4
:100D200090E00E94F123F801808D918DDC01ED911E
:100D3000FC910084F185E02D0995F801B7966F01CB
:100D40009801215C3F4F7901892B09F441C08091C2
:100D5000130490911404892B21F41093140400932C
:100D6000130480912A0590912B05A0912C05B09138
:100D70002D05F80183A394A3A5A3B6A381E090E079
:100D800090931604809315040E944229D8015F961F
:100D90006D937D938D939C939297F50111821082B0
:100DA000D80158968D919C915997DC01ED91FC9159
:100DB0000084F185E02D0995892B51F0F601819190
:100DC0008A3031F08D3021F0EE16FF06C1F70AC0EF
:100DD000F60181918A30E9F08D30D9F0EE15FF05EA
:100DE000C1F768C0F801808D918DDC01ED91FC9117
:100DF0000284F385E02D0995B82EBBE18B1332C038
:100E00008AE0F80187A310A681E090E0D7018D93D6
:100E10009C9348E150E0B601CE0101960E94503209
:100E2000C8010E94E005D801ED91FC910280F38198
:100E3000E02DC8010995F801E08CF18C6AE0C7014A
:100E40000E946626C7010E940227D801ED91FC91FD
:100E50000680F781E02D41E0BE016F5F7F4FC80142
:100E6000099528C08091130490911404081719075C
:100E700059F4F801808D918DDC01ED91FC91019088
:100E8000F081E02D6B2D0995F70180819181F801AA
:100E9000E80FF91FB7A20196D7018D939C93BDE08F
:100EA000BB1619F0EAE0BE127BCFF801E80FF91F7C
:100EB00017A276CFA1960FB6F894DEBF0FBECDBFB6
:100EC000DF91CF911F910F91FF90EF90DF90CF9026
:100ED000BF90AF900895CF93DF93EC01888D998DEB
:100EE000DC01ED91FC910084F185E02D0995892BC1
:100EF00051F0888D998DDC01ED91FC910284F38590
:100F0000E02D0995EBCFDF91CF9108958AE00E9403
:100F10001622892BE1F480914305882339F08091D2
:100F2000150490911604892B59F413C08BE00E948C
:100F30001622892BA1F380910A048111F0CF07C0FA
:100F400081E02091130430911404232B19F080E0E8
:100F5000089581E00895EF92FF920F931F93CF932E
:100F6000DF9300D0CDB7DEB77C0120919D05309195
:100F70009E052115310511F423EA35E08E010F5F3E
:100F80001F4F021B130B68EE70E08FE194E00E948C
:100F90006D26B8018FE194E00E945A1865EE70E06A
:100FA0008FE194E00E946D26B7018FE194E00E94EA
:100FB0000627C8010F900F90DF91CF911F910F91DD
:100FC000FF90EF900895CF92DF92EF92FF920F93F0
:100FD0001F93CF93DF931F92CDB7DEB77C016B01D8
:100FE000DB018C918983805387010F5B1F4F8A300F
:100FF00030F08FEF9FEFF8019183808315C04AE0B6
:1010000050E060E070E0CE0101960E942A316F3F0F
:101010007F4F79F34AE050E060E070E0C6010E9443
:101020002A31D8016D937C93D801ED91FC91EA307F
:10103000F10508F06CC0EC5CFF4F0C943333F70102
:1010400013A214A215A216A281E090E090931604B8
:10105000809315040E944229D7015F966D937D937A
:101060008D939C93929756C020E030E0A90160E0F8
:1010700070E011C026EE3EE040E050E001E067E99C
:1010800071E0C7010E94F61F45C02AE73EE040E03C
:1010900050E06DEC71E0C7010E944B213BC02CE495
:1010A0003EE040E050E067EE71E0F5CFC7010E94FE
:1010B000262130C08DEE93E00E94AB076C016FE7F4
:1010C00072E0F701808D918D0E946D26D7015896B0
:1010D0000D911C915997B601C8010E945A18C80178
:1010E0000E940227F701808D918D0E940227C7017F
:1010F0000E941B200FC0C7010E9486200BC0E0E0A9
:10110000F0E0099507C0C7010E949E2203C0C701F5
:101110000E9436200F90DF91CF911F910F91FF9089
:10112000EF90DF90CF90089586EE94E00E94012921
:1011300020914405892B29F0253018F485E090E0B2
:101140000895822F90E00895CF93DF93CDB7DEB757
:1011500064970FB6F894DEBF0FBECDBFAE014F5FF0
:101160005F4F24E1FA0111922A95E9F726ED31E06B
:101170003A8329832EE130E03C832B8360E070E0EA
:101180000E94921864960FB6F894DEBF0FBECDBFD2
:10119000DF91CF910895CF93DF93CDB7DEB76497FA
:1011A0000FB6F894DEBF0FBECDBFAE014F5F5F4FED
:1011B00024E1FA0111922A95E9F726E430E03A8316
:1011C00029833C832B8360E070E00E949218649630
:1011D0000FB6F894DEBF0FBECDBFDF91CF9108955B
:1011E000CF93DF93CDB7DEB764970FB6F894DEBF29
:1011F0000FBECDBFAE014F5F5F4F24E1FA011192E8
:101200002A95E9F724EF31E03A8329833C832B8345
:1012100060E070E00E94921864960FB6F894DEBF0A
:101220000FBECDBFDF91CF910895CF93DF93CDB7A0
:10123000DEB764970FB6F894DEBF0FBECDBFAE0128
:101240004F5F5F4F24E1FA0111922A95E9F760E0C0
:1012500070E00E94921864960FB6F894DEBF0FBE3D
:10126000CDBFDF91CF910895FC0170876783611531
:10127000710581F481859285019692878187238506
:1012800034851216130634F4281739071CF4168215
:1012900015820895DB01AA0FBB1FAE0FBF1F599621
:1012A0008D919C915A97181619064CF4CB01019612
:1012B00062E070E00E9400339683858302C016824C
:1012C000158285859685A785B089818B928BA38BA6
:1012D000B48B089580E090E0FB0121913191BF0132
:1012E0001216130624F401968A309105A9F7089581
:1012F0008F929F92AF92BF92CF92DF92EF92FF9226
:10130000CF93DF93EC010E9442296D877E878F8700
:10131000988BEF80F88489889A88AB88BC88DC0138
:10132000CB0188199909AA09BB09F701EE0FFF1F24
:10133000EC0FFD1F818C928C092C000CAA08BB08B5
:1013400088159905AA05BB0598F0BE01675E7F4F19
:10135000CE010E946A090197E816F9061CF060E0C8
:1013600070E003C0B7016F5F7F4FCE010E94340968
:101370008D889E888114910441F48F89988D892BE2
:1013800009F0B8C16D81888119C2181419040CF0D4
:10139000B1C18D819E81892B09F49FC1888199817A
:1013A00020910001281721F02F3F09F079C204C0D5
:1013B000E9E6FBE0C49179C080930001E9E6FBE037
:1013C000C491CF3F09F46CC2C13009F448C050F158
:1013D000C23009F06AC01092B0001092B1002091A2
:1013E000B00022602093B0002091B10021602093D2
:1013F000B1009C013327F901EE5EF44FE491F0E077
:10140000EE0FFF1FE85FF44F4591549150934C0548
:1014100040934B05F901EA5DF44FE491E0934D05EB
:10142000C2E03AC214BC15BC24B5226024BD25B567
:10143000216025BD9C013327F901EE5EF44FE49154
:10144000F0E0EE0FFF1FE85FF44F45915491F90172
:10145000EA5DF44FE491E0930104C0E01DC21092F4
:1014600080001092810020918100286020938100EB
:10147000209181002160209381009C013327F90194
:10148000EE5EF44FE491F0E0EE0FFF1FE85FF44FE3
:1014900045915491F901EA5DF44FE491E093000421
:1014A00061E00E941323C1E0A6C0C7FDF9C161E05D
:1014B0000E9413238C2F8D7F09F09DC0092C000CF6
:1014C000AA08BB0860E072E18AE790E0A5019401F8
:1014D0000E94143369017A01DA01C9010197A10957
:1014E000B1098F3F9105A105B10509F00CF445C084
:1014F00060E472E48FE090E0A50194010E9414334F
:10150000BA01A9014150510961097109C230E9F4D8
:101510004F3F51056105710509F00CF45DC160E9AB
:1015200070ED83E090E0A50194010E941433BA01AC
:10153000A90141505109610971094F3F51056105E8
:10154000710509F034F583E04FC04F3F5105610547
:101550007105B9F0B4F068E478EE81E090E0A5019F
:1015600094010E941433BA01A90141505109610943
:101570007109CC2309F432C187C1AC01BD0181E0FE
:1015800001C082E0C11130C095B5987F892B85BD1F
:101590006AC068E478EE81E090E0A50194010E94C1
:1015A0001433BA01A90141505109610971094F3F32
:1015B00051056105710509F00CF40CC164E274EF8A
:1015C00080E090E0A50194010E941433BA01A901C2
:1015D00041505109610971094F3F5105610571057C
:1015E00011F008F02AC185E09091B100987F892B15
:1015F0008093B10032C0092C000CAA08BB0860E03F
:1016000072E18AE790E0A50194010E941433DA01A7
:10161000C9010197A109B109009721E0A207B1050D
:1016200024F4AC01BD0181E00FC068E478EE81E0F4
:1016300090E0A50194010E941433BA01A901415020
:1016400051096109710983E0C13039F49091810039
:10165000987F892B8093810018C0C130B1F0C230CF
:1016600049F1C1111DC147BD8FEF9FEFDC01809390
:10167000060490930704A0930804B0930904809192
:101680006E00826080936E000BC15093890040937E
:1016900088008FEF9FEFDC01809302049093030496
:1016A000A0930404B093050480916F00826080933E
:1016B0006F00F6C04093B3008FEF9FEFDC01809383
:1016C0004E0590934F05A0935005B093510580911E
:1016D0007000826080937000E3C08881DF91CF91B9
:1016E000FF90EF90DF90CF90BF90AF909F908F9042
:1016F0000C94DF25EF88F88C1E141F040CF0D0C06A
:101700008D819E81892B09F452C00990D881C02D0A
:1017100061E08C2F0E9413238FEFE816F10409F487
:1017200044C0FE01FF27E25DF54FE491E330F9F09C
:1017300048F4E130B9F0E230A1F584B5806284BDAF
:10174000E8BCAEC0E730E9F0E83019F1E43049F523
:1017500080918000806280938000F0928B00E09204
:101760008A009EC084B5806884BDE7BC99C0809122
:101770008000806880938000F0928900E092880069
:101780008FC08091B00080688093B000E092B30079
:1017900087C08091B00080628093B000E092B40076
:1017A0007FC020E8E216F1043CF061E006C0C88189
:1017B00061E08C2F0E94132360E08C2FDF91CF918A
:1017C000FF90EF90DF90CF90BF90AF909F908F9061
:1017D0000C94E42284E008CF82E006CF4F3F51050D
:1017E0006105710541F138F162E17AE780E090E04E
:1017F000A50194010E941433BA01A9014150510975
:10180000610971094F3F51056105710591F088F03B
:10181000D701C6013AE0B595A795979587953A9572
:10182000D1F7AC01BD01415051096109710985E051
:10183000ABCE84E0A9CE83E0A7CE62E17AE780E078
:1018400090E0A50194010E941433BA01A90141500E
:101850005109610971094F3F51056105710591F009
:1018600088F0D701C6012AE0B595A7959795879589
:101870002A95D1F7AC01BD014150510961097109A7
:1018800087E0B2CE86E0B0CE4F3F510561057105CD
:1018900009F098F684E076CE61E00E9413230ECE24
:1018A000DF91CF91FF90EF90DF90CF90BF90AF90FE
:1018B0009F908F900895FF920F931F93CF93DF9384
:1018C000EC01F62E08811981C8010E946732F816D2
:1018D00021F06F2DC8010E946F32CE01DF91CF91B0
:1018E0001F910F91FF900895CF93DF93FC01C28168
:1018F000D38113821282DC0160E070E080E090E02E
:101900002C9130E0522F44276E35710529F0119645
:101910002C91119730E002C020E030E0242B352BD1
:10192000822793276E5F7F4F12966036710541F7CD
:10193000D383C283DF91CF910895EF92FF921F93DB
:10194000CF93DF937C01EB01142F0E9494088E1536
:101950009F058CF10E948607882389F0BE01809143
:101960004505909146050E9491261123D1F06DEE18
:1019700073E080914505909146050E940627BE01BF
:101980008FE194E00E9491261123A9F06DEE73E09F
:101990008FE194E0DF91CF911F91FF90EF900C9435
:1019A0000627BE018FE194E0DF91CF911F91FF9058
:1019B000EF900C949126DF91CF911F91FF90EF90C3
:1019C0000895EF92FF921F93CF93DF937C01EB0179
:1019D000142F0E9494088E159F058CF10E94860793
:1019E000882389F0BE0180914505909146050E94AB
:1019F0006D261123D1F06DEE73E080914505909135
:101A000046050E940627BE018FE194E00E946D26E4
:101A10001123A9F06DEE73E08FE194E0DF91CF9197
:101A20001F91FF90EF900C940627BE018FE194E088
:101A3000DF91CF911F91FF90EF900C946D26DF9175
:101A4000CF911F91FF90EF900895AF92BF92CF92E8
:101A5000DF92EF92FF920F931F93CF93DF93CDB757
:101A6000DEB7A0970FB6F894DEBF0FBECDBF6C01F6
:101A70008B01FB01808196012F5B3F4F59018D3017
:101A800021F08A3011F0811106C041E067E672E072
:101A900084E090E0E6C0F901E080F180F1E0EF1A27
:101AA000F108F701EE0FFF1FED52F84F65917491A9
:101AB000CE0101960E9449322FE0E216F10408F0AF
:101AC000CBC0F701E25CFF4F4AE050E060E070E01D
:101AD000C8010C9433330E942A3160931A05709325
:101AE0001B0580931C0590931D058FC00E942A3111
:101AF00060931E0570931F05809320059093210528
:101B000084C00E942A31609322057093230580933C
:101B100024059093250579C00E942A3160932605FB
:101B20007093270580932805909329056EC00E9425
:101B30002A316A3071058105910548F060932A05C4
:101B400070932B0580932C0590932D055EC08AE041
:101B500090E0A0E0B0E080932A0590932B05A0933D
:101B60002C05B0932D0551C00E942A3170932F058A
:101B700060932E054AC00E942A317093310560930C
:101B8000300543C00E942A31609332053EC00E9456
:101B90002A31609333057093340580933505909313
:101BA000360533C00E942A3160933705709338059B
:101BB0008093390590933A0528C00E942A3160939A
:101BC0003B0570933C0580933D0590933E051DC0F9
:101BD0000E942A317093400560933F0516C00E9411
:101BE0002A3170934205609341050FC00E942A314B
:101BF00021E0672B682B692B09F420E02093430533
:101C000004C00E942A316093440540E250E06EEF28
:101C100071E08AEF94E00E94503286EE94E00E94D8
:101C2000B72880912A0590912B05A0912C05B091A1
:101C30002D05F60183A394A3A5A3B6A381E090E0AC
:101C400090931604809315040E944229F601678F31
:101C500070A381A392A307C041E066E372E082E033
:101C600090E00E94E10C8FEF9FEFF501918380835C
:101C7000C6010E942621A0960FB6F894DEBF0FBEC3
:101C8000CDBFDF91CF911F910F91FF90EF90DF902B
:101C9000CF90BF90AF900895CF93DF93EC01DB011D
:101CA0008C918F7D893589F441E06EE072E084E0AB
:101CB00090E00E94E10C84E1E0EDF4E0DF011D9290
:101CC0008A95E9F70E94DC2106C06EE172E0888DFA
:101CD000998D0E941827888D998D0E94022720E0F7
:101CE00030E0A90160E070E0CE010E944B21DF915D
:101CF000CF910895CF92DF92EF92FF920F931F93AF
:101D0000CF93DF93EC018B014AE050E060E070E09C
:101D1000C8010E942A316B017C01CB0118161906FB
:101D20004CF4F80120812D3029F02A3019F065306B
:101D300071053CF06AEF71E0888D998D0E9418273B
:101D400030C086010150110940E062ED71E084E08D
:101D500090E00E94E10CB80184E090E00E946018DD
:101D6000F4E0CF0ED11CC601880F991F880F991F70
:101D7000FC01E454FB4F10821182128213820E94F4
:101D8000DC2165EE71E0888D998D0E946D26E88CCE
:101D9000F98C60E070E0C7010E945A18C7010E94E8
:101DA0000227888D998D0E94022720E030E0A9014A
:101DB00060E070E0CE010E944B21DF91CF911F9136
:101DC0000F91FF90EF90DF90CF9008958F929F92A8
:101DD000AF92BF92EF92FF920F931F93CF93DF9337
:101DE0008C017B01FB0180818D3009F472C08A3047
:101DF00009F46FC0882309F46CC04AE050E060E049
:101E000070E0C7010E942A314B015C0140E06FE4A1
:101E100071E084E090E00E94E10C21E0B501A401B2
:101E200084E090E00E94D9148CEB94E00E942D286D
:101E3000E0EDF4E024EE34E0DF0180E090E04D914D
:101E40005D916D917D91452B462B472B09F00196B5
:101E50002A173B07A1F781149104A104B10441F4AE
:101E600041E060E371E083E090E00E94E10C31C06A
:101E70008530910554F041E06AE171E083E090E043
:101E80000E94E10CC2E0D0E026C0419151916191E5
:101E9000719184169506A606B70609F475C02E172B
:101EA0003F0799F7880F991F880F991FFC01E0538E
:101EB000FB4F80829182A282B3820E94DC2141E0AA
:101EC00063EF70E084E090E00E94E10CC0E0D0E0BD
:101ED00002C0C1E0D0E064EC71E0F801808D918D2A
:101EE0000E946D26B701F801808D918D0E94062712
:101EF00062EB71E0F801808D918D0E946D26BE012C
:101F0000F801808D918D0E945A186EE072E0F80100
:101F1000808D918D0E949126F801808D918DC23027
:101F2000D10559F0C330D10559F0219719F06AEA6B
:101F300071E008C06BE871E005C062E771E002C0C3
:101F400069E571E00E946D26F801808D918D0E94F7
:101F50000227F801808D918D0E940227C8010E94FE
:101F6000E00520E030E0A90160E070E0C8010E94D7
:101F70004B21DF91CF911F910F91FF90EF90BF9078
:101F8000AF909F908F90089541E064E071E083E00E
:101F900090E00E94E10CC3E0D0E09DCF0F931F932F
:101FA000CF93DF9300D0CDB7DEB78C0180911504BD
:101FB00090911604892B21F5F8018081918171831C
:101FC000608386179707E1F080912E0590912F0589
:101FD0000297B1F440E068EB70E084E090E00E948A
:101FE000E10CF8016081718184E090E00E9460184A
:101FF000F80160811A821982CE0101960E945B0C61
:10200000F801808191810F900F90DF91CF911F9106
:102010000F91089582E892E008958CE792E0089588
:102020008DEB92E0089586E291E00895FC01268907
:10203000378937FF04C060E070E0CB010895220FBC
:10204000331F220F331FFC01E20FF31F62817381E4
:10205000848195810895CF93DF93FC012689378988
:1020600037FF05C060E070E080E090E00EC0EC015A
:102070000190F081E02D0480F581E02D09952E89F5
:102080003F89215031093F8B2E8BDF91CF910895ED
:102090002FEF3FEFDC0157963C932E935697FC01B0
:1020A0009C012C5E3F4F138212821582148234965B
:1020B000E217F307C1F74115510511F460FF07C09E
:1020C000DC01ED91FC910190F081E02D09940895DF
:1020D0009F92AF92BF92CF92DF92EF92FF920F93B7
:1020E0001F93CF93DF93EC018B01942EE881F9814C
:1020F0000480F581E02D09956B017C018E899F8913
:1021000097FD3AC0570181E0A822BB24C114D10435
:1021100021F4A114B10469F52FC0992039F0E881A8
:10212000F9810280F381E02DCE010995AB2871F091
:10213000F701F595E795EC0FFD1F0190F081E02D7B
:10214000EC0DFD1D0190F081E02D01C0F601C701ED
:1021500095958795B8018C0F9D1FDF91CF911F91A9
:102160000F91FF90EF90DF90CF90BF90AF909F9036
:1021700009949920E9F2D3CFDF91CF911F910F916C
:10218000FF90EF90DF90CF90BF90AF909F90089519
:10219000EF92FF920F931F93CF93DF93EC01CA014D
:1021A000122F032F7B0121E0E21AF108F701EE0F55
:1021B000FF1FED52F84F659174910E9449328FE0F4
:1021C000E816F10408F029C1F701E35BFF4F0C9416
:1021D00033338FA98F938EA98F938DA98F938CA959
:1021E0008F9380E991E09F938F930F931F930E94A9
:1021F000B0338DB79EB708960FB6F8949EBF0FBE4A
:102200008DBF0BC18BAD8F938AAD8F9389AD8F93AB
:1022100088AD8F9380E991E09F938F930F931F93E5
:102220000E94B0338DB79EB708960FB6F8949EBF44
:102230000FBE8DBFF2C08FAD8F938EAD8F938DADDE
:102240008F938CAD8F9380E991E09F938F930F9341
:102250001F930E94B0338DB79EB708960FB6F894BF
:102260009EBF0FBE8DBFD9C0C05CDF4F8B818F93E7
:102270008A818F9389818F9388818F9380E991E000
:102280009F938F930F931F930E94B0338DB79EB788
:1022900008960FB6F8949EBF0FBE8DBFBEC0CC5B34
:1022A000DF4F8B818F938A818F9389818F93888170
:1022B0008F9380E991E09F938F930F931F930E94D8
:1022C000B0338DB79EB708960FB6F8949EBF0FBE79
:1022D0008DBFA3C0C85BDF4F81C0C65BDF4F7EC030
:1022E000C45BDF4F2881822F90E0019783309105F6
:1022F00040F4880F991FFC01E858FE4F80819181BE
:1023000002C086EC92E09F938F931F922F938FECE5
:1023100092E09F938F930F931F930E94B0338DB7DA
:102320009EB708960FB6F8949EBF0FBE8DBF75C0BE
:10233000C35BDF4F8B818F938A818F9389818F93CA
:1023400088818F938FE493E09F938F930F931F93D4
:102350000E94B0338DB79EB708960FB6F8949EBF13
:102360000FBE8DBF5AC0CF5ADF4F8B818F938A81AA
:102370008F9389818F9388818F938FE493E09F93CC
:102380008F930F931F930E94B0338DB79EB708961B
:102390000FB6F8949EBF0FBE8DBF3FC0CB5ADF4F24
:1023A0008B818F938A818F9389818F9388818F937B
:1023B0008FE493E09F938F930F931F930E94B0330A
:1023C0008DB79EB708960FB6F8949EBF0FBE8DBF0F
:1023D00024C0C75ADF4F02C0C55ADF4F89818F938F
:1023E000888104C0C35ADF4F88811F928F938CEC81
:1023F00092E007C0C25ADF4F88811F928F9387ED0A
:1024000092E09F938F930F931F930E94B0330F908E
:102410000F900F900F900F900F90DF91CF911F9121
:102420000F91FF90EF90089541E065EA76E082E039
:1024300090E00E94E10C60E070E0CB010895E09133
:102440004705F0914805808D918D0E940627E09107
:102450004705F09148056DEE73E0808D918D0E94E7
:10246000062780914705909148050C949E22CF93B2
:10247000DF93CDB7DEB7A0970FB6F894DEBF0FBEDF
:10248000CDBFFB0101900020E9F7AF01461B570BC0
:102490001A821982FE0133968EE1DF011D928A9520
:1024A000E9F742505109CE0101960E94713329810A
:1024B0008091490590914A052134A1F4BE016F5FD6
:1024C0007F4FFC01808D918D0E9406274FE152E1E4
:1024D00060E070E020E08091490590914A050E94FB
:1024E0002D1A1CC0DC01ED91FC910084F185E02DDA
:1024F00040E050E0BA0109958091490590914A0564
:102500000E946B078091490590914A050E94E00561
:1025100080914705909148050E943620A0960FB6FD
:10252000F894DEBF0FBECDBFDF91CF910895AF927B
:10253000BF92CF92DF92EF92FF920F931F93CF93B0
:10254000DF93CDB7DEB7A0970FB6F894DEBF0FBE0E
:10255000CDBF8C017B014AE050E060E070E0C70134
:102560000E942A316B015B0121E0A21AB10883E0CD
:10257000A816B104C0F56AE976E0F801808D918D66
:102580000E946D26B501660F771FFB01E858FE4FCC
:1025900060817181F801808D918D0E9406276DEE1A
:1025A00073E0F801808D918D0E940627E1EEF7E03F
:1025B00065917491CE0101960E9449324AE050E043
:1025C00060E070E0C7010E942A316093320540E26A
:1025D00050E06EEF71E08AEF94E00E94503286EE98
:1025E00094E00E94B7286DEE73E0F801808D918D24
:1025F0000E940627CD2841F0FDE0EF16F10421F0FE
:102600002AE0E216F10421F4C8010E94362003C03A
:10261000C8010E948620A0960FB6F894DEBF0FBEB8
:10262000CDBFDF91CF911F910F91FF90EF90DF9081
:10263000CF90BF90AF900895EF92FF920F931F93AA
:10264000CF93DF93CDB7DEB7E0970FB6F894DEBF38
:102650000FBECDBF7C018B014AE050E060E070E02E
:10266000C8010E942A31F701EF5BFF4F718360833D
:102670009B01215031092F30310560F59E012F5DFE
:102680003F4FAE014F5F5F4F86EE94E00E94C8104F
:10269000BE016F5F7F4FF701808D918D0E94912663
:1026A00067E976E0F701808D918D0E946D26BE016D
:1026B0006F5D7F4FF701808D918D0E94062725E287
:1026C0003DE040E050E000E06CED72E0C7010E94A8
:1026D000F61F0FC0F8018081803321F08D3011F09A
:1026E0008A3021F4C7010E94362003C0C7010E942E
:1026F0002621E0960FB6F894DEBF0FBECDBFDF9166
:10270000CF911F910F91FF90EF9008953F924F92BC
:102710005F926F927F928F929F92AF92BF92CF9271
:10272000DF92EF92FF920F931F93CF93DF93CDB77A
:10273000DEB7C056D1090FB6F894DEBF0FBECDBFCD
:102740002B0169EF77E0C2010E946D2686EE94E0CE
:102750000E94740C40E150E0BC01C2010E94FC26C2
:1027600061EF77E0C2010E946D264AE050E06FE51C
:1027700070E0C2010E94FC26C2010E94022701E013
:1027800010E08EE2382E3E0183E0680E711C6E016F
:1027900091E5C90ED11C7E01E1E3EE0EF11C99EF2B
:1027A000892E92E0992ECE0101965C011A8219823F
:1027B000F301832D11928A95E9F79601A701B801DB
:1027C00086EE94E00E94C810DF92CF92FF92EF92C3
:1027D0001F930F939F928F92BF92AF920E94B0333C
:1027E000B501C2010E9406270F5F1F4F0FB6F89474
:1027F000DEBF0FBECDBF00311105C1F6C05ADF4F9D
:102800000FB6F894DEBF0FBECDBFDF91CF911F9101
:102810000F91FF90EF90DF90CF90BF90AF909F907F
:102820008F907F906F905F904F903F900895CF93DF
:10283000DF93EC0140E150E065E072E004960E9415
:10284000503280E293E0998388838EE190E0A0E0AB
:10285000B0E08CAB9DABAEABBFAB88EE93E0A0E03D
:10286000B0E088AF99AFAAAFBBAF86E990E0A0E037
:10287000B0E08CAF9DAFAEAFBFAFFE01E05CFF4FED
:102880008FE090E0A0E0B0E080839183A283B383E7
:1028900034968CE390E0A0E0B0E080839183A28343
:1028A000B383349681E090E09183808332961182E5
:1028B0001082329683E08083319680E091EEA0E032
:1028C000B0E080839183A283B383349680E895E25D
:1028D000A0E0B0E080839183A283B38334968083A9
:1028E0009183A283B383349680EF9AE091838083AF
:1028F000329687E090E09183808332961082319601
:1029000084E0808340E250E06CEA72E0CE014496BD
:10291000DF91CF910C945032CF92DF92EF92FF92E1
:10292000CF937C01C62EC42F0E9494088E159F055C
:10293000D4F10E948607D12CE12CF12C882399F048
:102940002AE0B701A60180914505909146050E94B5
:10295000A626CC23E1F06DEE73E0809145059091C1
:1029600046050E9406272AE0B701A6018FE194E000
:102970000E94A626CC23B9F06DEE73E08FE194E0BF
:10298000CF91FF90EF90DF90CF900C9406272AE034
:10299000B701A6018FE194E0CF91FF90EF90DF9017
:1029A000CF900C94A626CF91FF90EF90DF90CF9020
:1029B0000895CF92DF92EF92FF920F931F93CF93E0
:1029C0008C016A017B01C22F0E9494088017910735
:1029D000F4F10E9486078823A1F02AE030E0B701D5
:1029E000A60180914505909146050E94EF26CC23D3
:1029F000F9F06DEE73E080914505909146050E94D7
:102A000006272AE030E0B701A6018FE194E00E949A
:102A1000EF26CC23E1F06DEE73E08FE194E0CF91EF
:102A20001F910F91FF90EF90DF90CF900C940627AD
:102A30002AE030E0B701A6018FE194E0CF911F9129
:102A40000F91FF90EF90DF90CF900C94EF26CF91F5
:102A50001F910F91FF90EF90DF90CF9008950F930B
:102A6000CF93DF93EC018AE391E0998388836A83B3
:102A70004B832C830D83FE01369680E1DF011D928E
:102A80008A95E9F71E8A0E9442296F8B788F898F79
:102A90009A8F1B8E1C8E1D8E1E8E1F8E18A219A241
:102AA0001AA21BA21CA21DA21EA21FA218A619A632
:102AB0001AA61BA61CA61DA61EA61FA618AA19AA02
:102AC0001AAA1BAA1CAA1DAA1EAA1FAA18AE19AED2
:102AD0001AAE1BAE1CAE1DAE1EAEDF91CF910F9194
:102AE00008950F93CF93DF93EC0101E02AE043E0D8
:102AF0006EE00E942F1582E491E09983888340E084
:102B000069ED76E084E090E00E94E10C41E06DEB3D
:102B100072E084E090E0DF91CF910F910C949D0CD6
:102B20006F927F928F929F92AF92BF92CF92DF92DD
:102B3000EF92FF920F931F93CF93DF93CDB7DEB742
:102B40008C016B016DB67EB640E06DEB77E085E001
:102B500090E00E94E10C40E062EB77E085E090E0DD
:102B60000E94E10C40E0F801638185E090E00E9462
:102B70008C1440E067EA77E085E090E00E94E10C89
:102B800040E0F801648185E090E00E948C14F80137
:102B900044814F5F8381F42EF81A40E06CE977E0BE
:102BA00085E090E00E94E10C40E06F2D85E090E030
:102BB0000E948C1440E06FE777E085E090E00E948F
:102BC000E10C40E060E170E0F60183850E940719A6
:102BD00040E067E073E085E090E00E949D0C41E0FA
:102BE00060E170E0F60184850E9407194F2D50E0E6
:102BF0004F5F5F4F8DB79EB7841B950B0FB6F89450
:102C00009EBF0FBE8DBFEDB7FEB731967F0165E267
:102C100071E0CF010E945F33F80183815601A80E55
:102C2000B11C89E0882E83E0982EF801848190E021
:102C300095012C193D0982179307C4F0F5012191E4
:102C40005F01F70101900020E9F71F922F939F92F7
:102C50008F92CF0101979F938F930E94B0330F9073
:102C60000F900F900F900F900F90DFCF40E150E04A
:102C700060E070E0C7010E942A314B015C0140E036
:102C800062E777E086E090E00E94E10C40E0B70167
:102C900086E090E00E949D0C40E06EE072E086E0ED
:102CA00090E00E949D0C21E0B501A40186E090E037
:102CB0000E94D914C501B4010FB6F8947EBE0FBEB0
:102CC0006DBEDF91CF911F910F91FF90EF90DF903C
:102CD000CF90BF90AF909F908F907F906F9008950E
:102CE0006F927F928F929F92AF92BF92CF92DF921C
:102CF000EF92FF920F931F93CF93DF93CDB7DEB781
:102D00008C015B016DB67EB640E06BE577E085E057
:102D100090E00E94E10C40E060E577E085E090E023
:102D20000E94E10C40E0F801638185E090E00E94A0
:102D30008C1440E065E477E085E090E00E94E10CCF
:102D400040E0F801648185E090E00E948C14F80175
:102D5000448150E08381481B51094F5F5F4FF42E3F
:102D6000FF0C40E06AE377E085E090E00E94E10C30
:102D700040E06F2D85E090E00E948C1440E067E217
:102D800077E085E090E00E94E10C41E0F50160858C
:102D900085E090E00E948C144F2D50E04F5F5F4F14
:102DA0008DB79EB7841B950B0FB6F8949EBF0FBED0
:102DB0008DBFEDB7FEB731967F0165E271E0CF01BF
:102DC0000E945F33F80183816501C80ED11C8CE03D
:102DD000882E83E0982EF801848190E096012A19CC
:102DE0003B0982179307C4F0F60121916F01F701A7
:102DF00001900020E9F71F922F939F928F92CF01AD
:102E000001979F938F930E94B0330F900F900F9074
:102E10000F900F900F90DFCF40E150E060E070E046
:102E2000C7010E942A314B015C0140E065E177E077
:102E300086E090E00E94E10C40E0B70186E090E07F
:102E40000E949D0C40E06EE072E086E090E00E94FF
:102E50009D0C21E0B501A40186E090E00E94D91408
:102E6000C501B4010FB6F8947EBE0FBE6DBEDF91F2
:102E7000CF911F910F91FF90EF90DF90CF90BF9077
:102E8000AF909F908F907F906F9008952F923F9278
:102E90004F925F926F927F928F929F92AF92BF926A
:102EA000CF92DF92EF92FF920F931F93CF93DF9316
:102EB000CDB7DEB76C015B016DB67EB640E06DEF5D
:102EC00076E085E090E00E94E10C40E150E060E0B7
:102ED00070E0C5010E942A311B012C010E94940858
:102EE000059724F0C201B1010E945B19F601F3803D
:102EF00044814F1950E04F5F5F4F8DB79EB7841BE1
:102F0000950B0FB6F8949EBF0FBE8DBF0DB71EB7C1
:102F10000F5F1F4F65E271E0C8010E945F33F5014A
:102F2000EF0DF11D7F0189E0882E83E0982EF601D8
:102F3000848190E097012A193B0982179307C4F016
:102F4000F70121917F01F80101900020E9F71F921C
:102F50002F939F928F92CF0101979F938F930E94FF
:102F6000B0330F900F900F900F900F900F90DFCF16
:102F700040E150E060E070E0C8010E942A316B013E
:102F80007C0140E06AEE76E086E090E00E94E10C91
:102F900040E0B80186E090E00E949D0C40E06EE0C9
:102FA00072E086E090E00E949D0C21E0B701A6014E
:102FB00086E090E00E94D914C701B6010FB6F894DC
:102FC0007EBE0FBE6DBEDF91CF911F910F91FF901E
:102FD000EF90DF90CF90BF90AF909F908F907F90B9
:102FE0006F905F904F903F902F900895CF93DF9315
:102FF000EC0141E061E173E086E090E00E949D0C0D
:103000001E8A269680E1FE0111928A95E9F7DF91EA
:10301000CF910895FC014115510511F460FF11C0D5
:10302000268937892F5F3F4F378B268B220F331F1F
:10303000220F331FE20FF31F428353836483758390
:10304000089541E065E273E083E090E00C949D0C0C
:10305000CF92DF92EF92FF920F931F93CF93DF9364
:1030600077FF1DC06A017B01EC016DE20E946626BC
:103070008C0144275527BA014C195D096E097F0957
:103080002AE0CE010E94A626800F911FDF91CF91EA
:103090001F910F91FF90EF90DF90CF9008952AE05D
:1030A000DF91CF911F910F91FF90EF90DF90CF9024
:1030B0000C94A626AB01770F660B770B0C9428189F
:1030C0000F931F93CF93DF938C01EB010E94940821
:1030D0008017910714F10E948607882379F0BE01BA
:1030E00080914505909146050E945A186DEE73E057
:1030F00080914505909146050E940627BE018FE10B
:1031000094E00E945A186DEE73E08FE194E0DF9135
:10311000CF911F910F910C940627DF91CF911F91B2
:103120000F910895CF92DF92EF92FF920F931F932A
:10313000CF93DF93EC016B017A018B859C858E0127
:10314000075E1F4F86179707A1F44AE050E0B801C9
:10315000C7010E945233892B61F1B701CE010E9451
:103160006A09892B31F4B801CE010E946A09892BC2
:1031700001F11E821D8218861F821A861986DC863E
:10318000CB86D701F801CE018D962D913D912193EB
:103190003193E817F907C9F760E070E0CE01DF91DD
:1031A000CF911F910F91FF90EF90DF90CF900C94F3
:1031B0003409DF91CF911F910F91FF90EF90DF9035
:1031C000CF900895CF93DF93CDB7DEB764970FB656
:1031D000F894DEBF0FBECDBFAE014F5F5F4F24E15D
:1031E000FA0111922A95E9F724EF31E03A83298315
:1031F0003C832B8363E070E00E94921864960FB6C4
:10320000F894DEBF0FBECDBFDF91CF910895CF926E
:10321000DF92EF92FF921F93CF93DF93C82EEB01C3
:10322000142F0E9494080597F4F10E948607D12C70
:10323000E12CF12C882399F09E01B701A601809121
:103240004505909146050E94EF261123F1F06DEEA1
:1032500073E080914505909146050E9406279E01E6
:10326000B701A6018FE194E00E94EF261123D9F067
:103270006DEE73E08FE194E0DF91CF911F91FF90AD
:10328000EF90DF90CF900C9406279E01B701A60126
:103290008FE194E0DF91CF911F91FF90EF90DF904D
:1032A000CF900C94EF26DF91CF911F91FF90EF907C
:1032B000DF90CF900895CF92DF92EF92FF926B0153
:1032C0007C010E948607882381F0B701A6018091C6
:1032D0004505909146050E9428186DEE73E0809197
:1032E0004505909146050E940627B701A6018FE18A
:1032F00094E00E9428186DEE73E08FE194E0FF9057
:10330000EF90DF90CF900C940627CF92DF92EF9250
:10331000FF926B017C01E0912F04F091300482E078
:103320008083C11481EED806E104F104B1F060E0BD
:1033300079E08DE390E0A70196010E948D32DA01D9
:10334000C9010197A109B109B695A79597958795E8
:103350009C01211580E13807B8F0E0912F04F0912D
:103360003004108260E874E88EE190E0A7019601D5
:103370000E948D32DA01C9010197A109B109B69500
:10338000A795979587959C01E0912B04F0912C04CB
:103390003083E0912D04F0912E04208310923704A5
:1033A000E0913304F091340486E08083E0913104AD
:1033B000F0913204808180618083E0913104F0914A
:1033C0003204808188608083E0913104F09132047E
:1033D000808180688083E0913104F09132048081A3
:1033E0008F7D8083FF90EF90DF90CF9008950F93B3
:1033F0001F93CF93DF938C01EB010E9494088017F9
:10340000910734F10E948607882389F04AE050E052
:10341000BE0180914505909146050E94FC266DEE07
:1034200073E080914505909146050E9406274AE089
:1034300050E0BE018FE194E00E94FC266DEE73E047
:103440008FE194E0DF91CF911F910F910C940627AB
:10345000DF91CF911F910F9108951F93CF93DF9329
:10346000EC01122FE881F9810190F081E02D09959E
:10347000E881F9810190F081E02D4EEE55E060E0A9
:1034800070E0CE010995CE010E946B07CE010E942B
:10349000E005112331F0CD5BDF4F81E090E09983AF
:1034A0008883DF91CF911F9108954F925F926F9221
:1034B0007F928F929F92AF92BF92CF92DF92EF92C4
:1034C000FF920F931F93CF93DF93CDB7DEB764972F
:1034D0000FB6F894DEBF0FBECDBF8C017C018FE329
:1034E000E80EF11CD7018D919C910E94FC27F701F9
:1034F0002081318180911D0490911E042817390785
:1035000039F062E070E080E090E00E94F123EFCFBC
:1035100064E170E080E090E00E94F12340E061E12E
:103520007AE086E090E00E94E10C0E944229AB0123
:10353000BC01D80157964D935D936D937C935A9738
:1035400021E086E090E00E94D9144090220550903E
:1035500023056090240570902505F801878C90A0C4
:10356000A1A0B2A0840C951CA61CB71C83AA94AA87
:10357000A5AAB6AA23A134A145A156A1C0902605AB
:10358000D0902705F0912805E091290521153105F6
:103590004105510519F496014F2F5E2FA8EEB3E0B7
:1035A0000E94AF32860E971EA81EB91ED801D7966C
:1035B0008D929D92AD92BC92DA9780911E0590916A
:1035C0001F05A0912005B0912105480E591E6A1EC5
:1035D0007B1EA8EEB3E096014F2F5E2F0E94AF3204
:1035E000DC01CB01840D951DA61DB71DF80187A731
:1035F00090ABA1ABB2AB40E06EEF79E086E090E03B
:103600000E94E10CD8015B964D915D916D917C918A
:103610005E9721E086E090E00E94D91440E061EEE0
:1036200079E086E090E00E94E10CF801478D50A11E
:1036300061A172A121E086E090E00E94D91440E0EF
:103640006AEC79E086E090E00E94E10CD8015796A0
:103650004D915D916D917C915A975B968D919D9165
:103660000D90BC91A02D481B590B6A0B7B0B21E0E0
:1036700086E090E00E94D91440E06AEA79E086E0B2
:1036800090E00E94E10CF8014789508D618D728DA8
:10369000878D90A1A1A1B2A1481B590B6A0B7B0B8E
:1036A00021E086E090E00E94D91440E062E979E0F0
:1036B00086E090E00E94E10CD8019F964D915D91CB
:1036C0006D917C91D29721E086E090E00E94D91420
:1036D000F8018789908DA18DB28D438D548D658DB4
:1036E000768D841B950BA60BB70B40911E05509150
:1036F0001F056091200570912105481759076A0739
:103700007B0708F074C240E060E679E086E090E074
:103710000E94E10CD801ED91FC910280F381E02D33
:10372000C801099540E0BC0186E090E00E949D0C34
:1037300040E06DE579E086E090E00E94E10C41E038
:10374000F801628186E090E00E948C14D7018D918F
:103750009C91DC01ED91FC910084F185E02D0995AF
:10376000892B09F42BC1F70180819181DC01ED9156
:10377000FC910084F185E02D0995892B09F437C26D
:10378000F801D688FFE0FD1528F0D80112968C913B
:10379000D81620F0C8010E94F617E5CFF701808106
:1037A0009181DC01ED91FC910284F385E02D099576
:1037B000F801ED0DF11D868340E06BE579E085E0D1
:1037C00090E00E94E10C40E0F801668985E090E01D
:1037D0000E948C1440E069E579E085E090E00E9469
:1037E000E10CD80156968C91F801E80FF11DD680B6
:1037F00080ED8D0D8A3028F08D2D8F7D815486309F
:10380000A0F40E949408059784F00E9486078823FC
:1038100039F06D2D80914505909146050E946626F0
:103820006D2D8FE194E00E94662640E065E473E030
:1038300085E090E00E949D0CF8018689E80FF11D5B
:1038400040E060E170E086810E94071940E065E495
:1038500073E085E090E00E949D0CD80156968C9113
:10386000F801E80FF11D40E06AE070E086810E94F7
:103870000719F801928191508689811105C026812E
:10388000223009F087CF0CC298130DC0F801E90F60
:10389000F11D96819330C9F0C8010E94F61741E0EE
:1038A0006DEE73E00DC09817B8F38031A8F7891753
:1038B00070F48F5FD80156968C9340E067E073E018
:1038C00085E090E00E949D0C4ECF803128F741E0CA
:1038D0006DEE73E085E090E00E949D0C40E069E2AF
:1038E00079E085E090E00E94E10CD801ED91FC9137
:1038F0000280F381E02DC801099541E0BC0185E01B
:1039000090E00E949D0CD801ED91FC910190F08116
:10391000E02DB8016A5F7F4FC80109956B017C01FA
:1039200040E066E079E085E090E00E94E10C21E073
:10393000B701A60185E090E00E94D914C114D1041A
:10394000E104F10421F440E067ED78E0B8C1E091D2
:103950001704F09118041682158260E080810E949D
:10396000E422E0911B04F0911C041682158210865B
:10397000178212861186AE014F5F5F4F84E1DA0134
:103980001D928A95E9F786E490E09A83898361E045
:1039900070E0CF010E949218E0EDF4E084EE94E034
:1039A0004191519161917191C416D506E606F706D1
:1039B00009F479C18E179F0799F7C5CFD80157969B
:1039C000CD90DD90ED90FC905A975B968D909D90F8
:1039D000AD90BC905E9726013701481859086A08D7
:1039E0007B0893962D913D914D915C919697211571
:1039F00031054105510541F42091260530912705F7
:103A00004091280550912905A8EEB3E00E94AF32FD
:103A1000641575058605970528F089288A288B285E
:103A200009F0E5C0F80187A990ADA1ADB2ADC81607
:103A3000D906EA06FB0650F4F801878D90A1A1A1F2
:103A4000B2A1892B8A2B8B2B09F011C140E06DE8C4
:103A500078E084E090E00E94E10CD8015B96CD9084
:103A6000DD90ED90FC905E97C114D104E104F10467
:103A700009F4F5C057968D919D910D90BC91A02DA4
:103A8000BC01CD016C197D098E099F0928EE33E038
:103A900040E050E00E948D32BA01A90120E084E0AC
:103AA00090E00E94D91440E067E878E084E090E07C
:103AB0000E94E10C40E067E778E084E090E00E943B
:103AC000E10CF801C78CD0A0E1A0F2A0C114D10490
:103AD000E104F10409F4C7C08789908DA18DB28DEE
:103AE000BC01CD016C197D098E099F0928EE33E0D8
:103AF00040E050E00E948D32BA01A90120E084E04C
:103B000090E00E94D91440E061E778E084E090E022
:103B10000E94E10C40E061E678E084E090E00E94E1
:103B2000E10C0E9442296B017C01198228EE33E0EE
:103B300040E050E00E948D328CE3882E912CA12C25
:103B4000B12CCA01B901A50194010E948D329F9345
:103B50008F937F936F93C701B60120E63AEE40E062
:103B600050E00E948D32CA01B901A50194010E9462
:103B70008D329F938F937F936F93C701B60120E897
:103B80003EEE46E350E00E948D325F934F933F93A9
:103B90002F9387E493E09F938F93CE0101967C014E
:103BA0009F938F930E94B03341E0B70184E090E08F
:103BB0000E949D0C41E065E378E086E090E00E9481
:103BC000E10CD80115966C9181E0682785E00E9490
:103BD000E422F8018789908DA18DB28D878F90A303
:103BE000A1A3B2A30FB6F894DEBF0FBECDBF40E0D5
:103BF00063E573E086E090E00E949D0CF80143AD20
:103C000054AD65AD76AD21E086E090E00E94D91418
:103C100040E061E879E086E090E00E94E10C0E94DB
:103C20004229AB01BC0121E086E090E00E94D9145A
:103C300064960FB6F894DEBF0FBECDBFDF91CF9173
:103C40001F910F91FF90EF90DF90CF90BF90AF90BA
:103C50009F908F907F906F905F904F90089540E07D
:103C600061E878E023CF40E06BE678E04FCFF801E1
:103C700083A994A9A5A9B6A9C816D906EA06FB0680
:103C800008F4B5CF41E06AEA78E086E090E00E946F
:103C9000E10CD80115966C9185E00E94E422A7CF33
:103CA000911107CEF3CDF8018789908DA18DB28D4A
:103CB000838F948FA58FB68F40E065EF78E084E026
:103CC00090E00E94E10C21E0B701A60184E090E0C1
:103CD0000E94D914F801C3AED4AEE5AEF6AEC80169
:103CE0000E94F61784CFCF92DF92EF92FF920F934C
:103CF0001F93CF93DF93EC010091150410911604EC
:103D000001301105A9F44BA15CA16DA17EA18091A8
:103D10002A0590912B05A0912C05B0912D054817EF
:103D200059076A077B0721F460E08DE00E94E422D6
:103D30008091130490911404009721F0C817D907BB
:103D400009F059C00E944229CF8CD8A0E9A0FAA05E
:103D50006C197D098E099F0928EE33E040E050E0A0
:103D60000E948D328BA19CA1ADA1BEA182179307A9
:103D7000A407B50710F0012BF1F5CE010E94E00574
:103D8000E881F9810084F185E02D40E050E0BA013E
:103D9000CE0109958091150490911604892B59F153
:103DA00040E0BE01645E7F4F85E090E00E949D0C84
:103DB00041E06EE178E085E090E00E94E10C41E0B6
:103DC0006CE078E084E090E00E94E10C41E06DEE70
:103DD00073E084E090E00E949D0C10921604109213
:103DE000150486EE94E00E940129892B21F08EE6CD
:103DF00093E00E94AB07E881F9810680F781E02D0E
:103E000040E060E070E0CE01DF91CF911F910F9113
:103E1000FF90EF90DF90CF9009944091BE045091B5
:103E2000BF041092BF041092BE04ECEBF4E066EE07
:103E300074E080E090E0208130E0322F2227A181E1
:103E40002A2B8227932732966E177F07A1F750936C
:103E5000BF044093BE040895833081F028F481307C
:103E600099F08230A1F008958730A9F08830B9F038
:103E70008430D1F4809180008F7D03C080918000D8
:103E80008F7780938000089584B58F7702C084B5C2
:103E90008F7D84BD08958091B0008F7703C080919D
:103EA000B0008F7D8093B00008950E940D1F209177
:103EB000BE043091BF048217930739F49C0121504E
:103EC000310981E02E3F3F4F08F080E00895CF9305
:103ED000DF93EC019A01AB011B8E1A8E198E188E9E
:103EE0001F8A1E8A60E079E08DE390E00E9414331F
:103EF000F9012430310518F0C901039702C081E0AF
:103F000090E09D8F8C8F6C85663108F06AC0C90186
:103F1000969587958431910510F0439702C081E012
:103F200090E09F8B8E8B369718F0C901059702C0E1
:103F300081E090E0998F888FC901880F991F280F21
:103F4000391F36952795369527952D30310518F070
:103F50002C50310902C021E030E03B8F2A8F309194
:103F60006800683058F021E06E3008F420E091E0FD
:103F7000892F01C0880F2A95EAF701C084E0832BBE
:103F8000809368009C85983038F09E3040F09631E0
:103F900048F020E030E008C02DE630E005C02BE618
:103FA00030E002C02CE630E03C8B2B8B983030F4B4
:103FB00081E001C0880F9A95EAF70EC0292F30E002
:103FC0009E3018F42850310902C02E50310981E08A
:103FD00001C0880F2A95EAF78D8B8C8D9D8D0197F6
:103FE000F1F7CE01DF91CF910C94FC27CF92DF92B5
:103FF000EF92FF920F93CF93DF93EC0169017A0167
:10400000FB018081882321F0888D998D0E94912663
:10401000202FB701A601CE010E942D1A6BEF7AE086
:10402000888D998DDF91CF910F91FF90EF90DF9068
:10403000CF900C946D260F93CF93DF93EC01E88122
:10404000F9810084F185E02D40E050E0BA01099546
:1040500023EE37E040E050E000E06AE773E0CE0195
:104060000E94F61FDF91CF910F910895CF93DF93B8
:10407000EC0166EF7AE0888D998D0E9418276EEE2C
:104080007AE0888D998D0E94182761EE7AE0888DFC
:10409000998D0E94182766ED7AE0888D998D0E948F
:1040A000182768EC7AE0888D998D0E94182765EBB7
:1040B0007AE0888D998D0E94182769EA7AE0888DC8
:1040C000998D0E94182765E97AE0888D998D0E9464
:1040D000182765E87AE0888D998D0E9418276AE78D
:1040E0007AE0888D998D0E9418276CE67AE0888D99
:1040F000998D0E9418276DEE73E0888D998D0E942E
:104100000627CE01DF91CF910C941B202F923F9276
:104110004F925F926F927F928F929F92AF92BF92D7
:10412000CF92DF92EF92FF920F931F93CF93DF9383
:10413000CDB7DEB768970FB6F894DEBF0FBECDBF20
:104140005C01FC01E08CF18C6EE57AE0C7010E9415
:104150006D2663E070E0C7010E945A186CE57AE0B2
:10416000C7010E94182788E7C82E81E0D82E01E0F9
:1041700010E096E1292E2E01F3E04F0E511C2FE89E
:10418000622E23E0722E38E1332ECE0101964C01CF
:104190001A821982F201822D11928A95E9F7F601AD
:1041A00020813181F2E0CF0ED11C8091320590E068
:1041B0008017910719F48DE893E002C08FE092E038
:1041C0003F932F939F938F931F930F937F926F92A1
:1041D0001F923F929F928F920E948033B401C70139
:1041E0000E9406270F5F1F4F0FB6F894DEBF0FBE69
:1041F000CDBF0430110561F66DEE73E0F501808DE1
:10420000918D0E94062727E932E140E050E000E06E
:104210006AE973E0C5010E94F61F68960FB6F8942C
:10422000DEBF0FBECDBFDF91CF911F910F91FF90E9
:10423000EF90DF90CF90BF90AF909F908F907F9046
:104240006F905F904F903F902F9008950F93CF9372
:10425000DF93EC01FC01EF5BFF4F8FEF9FEF91834A
:104260008083688D798D86EE94E00E9486136DEED2
:1042700073E0888D998D0E9406272CE133E140E0A0
:1042800050E000E06AEA73E0CE010E94F61FDF9181
:10429000CF910F9108958F929F92AF92BF92CF923C
:1042A000DF92EF92FF920F931F93CF93DF93EC0176
:1042B0006B0149015A016DE47AE0888D998D0E9465
:1042C0006D266091BE047091BF0440E150E0888D7E
:1042D000998D0E94FC2665E47AE0888D998D0E9474
:1042E0006D26088D198D4AE050E06AE270E0C80141
:1042F0000E94FC26C8010E9402278CEBE82E84E075
:10430000F82E01E010E0F70184899589A689B78924
:10431000892B8A2B8B2BE1F0B801888D998D0E9417
:104320005A1862E47AE0888D998D0E946D26F70113
:1043300044895589668977892AE030E0888D998D8E
:104340000E94EF266DEE73E0888D998D0E940627FE
:104350000F5F1F4FF4E0EF0EF11C0630110599F6C8
:104360006DEE73E0888D998D0E940627811491046B
:10437000A1F000E0A5019401B601CE010E94F61F54
:10438000DF91CF911F910F91FF90EF90DF90CF9031
:10439000BF90AF909F908F900895CE01DF91CF9105
:1043A0001F910F91FF90EF90DF90CF90BF90AF9053
:1043B0009F908F900C941B20EF92FF920F931F936E
:1043C000CF93DF9300D0CDB7DEB78CEB94E00E94A3
:1043D0002D280E94551F811120C00E940D1F90930F
:1043E000BF048093BE048091BC049091BD040CEB8B
:1043F00014E09C012C5B34407901C701800F911FB0
:10440000F80161918F019A838983CE0101960E9400
:104410005B0CF4E0063E1F0781F70F900F90DF91D1
:10442000CF911F910F91FF90EF900895CF93DF935D
:10443000282F30E0F901E25DF54F8491F901EA5D42
:10444000F44FD491F901EE5EF44FC491CC2391F076
:1044500081110E942C1FEC2FF0E0EE0FFF1FE250A5
:10446000F54FA591B491EC91ED2381E090E021F41A
:1044700080E002C080E090E0DF91CF9108950F933B
:104480001F93CF93DF93EC018091410590914205FA
:10449000092E000CAA0BBB0B8BA39CA3ADA3BEA340
:1044A00081E090E090931604809315040E944229C5
:1044B0006F8F78A389A39AA3CE010E94E0058E0195
:1044C000045E1F4F69E872E0C8010E946833892BBF
:1044D00041F164E971E0C8010E946833892B49F514
:1044E0008AE00E941622892BE1F46AE37BE0888D42
:1044F000998D0E946D2668E372E0888D998D0E94E7
:1045000091266EE072E0888D998D0E94912663EC71
:1045100073E0888D998D0E940627888D998D0E9461
:10452000022743EE57E060E070E020E0CE010E94F9
:104530002D1ADF91CF911F910F9108950F93CF9373
:10454000DF93EC018AE00E941622019759F58091D1
:10455000490590914A05DC01ED91FC910084F185BB
:10456000E02D40E050E0BA01099580914905909115
:104570004A050E946B078091490590914A050E9467
:10458000E00527E332E140E050E000E069ED73E050
:1045900080914705909148050E94F61FDF91CF91C9
:1045A0000F91089568E67AE0888D998D0E9418270A
:1045B0006DEE73E0888D998D0E940627CE01DF9104
:1045C000CF910F910C9436201F93CF93DF93282F18
:1045D00030E0F901E25DF54F8491F901EA5DF44FB5
:1045E000D491F901EE5EF44FC491CC23C1F0162FA3
:1045F00081110E942C1FEC2FF0E0EE0FFF1FE85FEF
:10460000F44FA591B4919FB7F894111104C08C9107
:10461000D095D82302C0EC91DE2BDC939FBFDF91B5
:10462000CF911F910895CF93DF9390E0FC01EA5D55
:10463000F44F2491FC01EE5EF44F8491882361F1E4
:1046400090E0880F991FFC01EC5DF54FC591D49166
:10465000FC01E85FF44FA591B491611109C09FB7C7
:10466000F8948881209582238883EC912E230BC0B7
:10467000623061F49FB7F8948881322F309583239C
:104680008883EC912E2B2C939FBF06C08FB7F89494
:10469000E8812E2B28838FBFDF91CF9108950F9350
:1046A0001F93CF93DF93EC01162F042F1B821A82E6
:1046B00088EE93E0A0E0B0E08C839D83AE83BF835F
:1046C00082E891E0998388831F8A1E8A198E188E4A
:1046D0001B8E1A8E1D8E1C8E6E8D6E7F6D7F6E8F63
:1046E0006695617081E06827842F0E94E42261E072
:1046F000802F0E941323802F90E0FC01EA5DF44F8D
:10470000E491E88BFC01EE5EF44FE491F0E0EE0FF3
:10471000FF1FE85FF44F859194919A8B898B60E03D
:10472000812F0E9413238E8D81FD04C061E0812FB3
:104730000E94E4221C87812F90E0FC01EA5DF44F87
:10474000E491ED87FC01EE5EF44FE491F0E0EE0FB2
:10475000FF1FE250F54F859194919F878E87DF91DF
:10476000CF911F910F910895EF92FF920F931F9396
:10477000CF93DF93EC018A017901798368831E82EC
:104780001D8218861F821A8619861C861B860E9427
:1047900042296D877E878F87988B198A1A8A1B8A90
:1047A0001C8AFE8AED8A188E1F8AFE01799684E1A2
:1047B000DF011D928A95E9F743E050E0B801CE0190
:1047C00002960E94503261E088810E94132360E0CB
:1047D0008881DF91CF911F910F91FF90EF900C9402
:1047E000E4228F929F92AF92BF92CF92DF92EF928C
:1047F000FF926B017C010E941D294B015C01C114D9
:10480000D104E104F104F1F00E941D29DC01CB0187
:1048100088199909AA09BB09883E9340A105B105E9
:1048200070F321E0C21AD108E108F10888EE880E81
:1048300083E0981EA11CB11CC114D104E104F10451
:1048400019F7DDCFFF90EF90DF90CF90BF90AF9042
:104850009F908F900895CF92DF92EF92FF920F93E7
:104860001F93CF93DF936C017A018B01C0E0D0E0FE
:10487000CE15DF0581F0D8016D918D01D601ED9146
:10488000FC910190F081E02DC6010995892B11F072
:104890002196EECF7E01C701DF91CF911F910F913D
:1048A000FF90EF90DF90CF900895FC01538D448DE1
:1048B000252F30E0842F90E0821B930B541710F0CB
:1048C000CF96089501970895FC01918D828D9817D8
:1048D00061F0828DDF01A80FB11D5D968C91928DE4
:1048E0009F5F9F73928F90E008958FEF9FEF0895E1
:1048F000FC01918D828D981731F0828DE80FF11DAA
:10490000858D90E008958FEF9FEF0895FC01918DC4
:10491000228D892F90E0805C9F4F821B91098F73BD
:10492000992708958FE194E00E94862421E0892B45
:1049300009F420E0822F0895FC01848DDF01A80F87
:10494000B11DA35ABF4F2C91848D90E001968F73B7
:104950009927848FA689B7892C93A089B1898C91D6
:10496000837080648C93938D848D981306C0028825
:10497000F389E02D80818F7D80830895EF92FF92EF
:104980000F931F93CF93DF93EC0181E0888F9B8D72
:104990008C8D981305C0E889F989808185FD26C032
:1049A000F62E0B8D10E00F5F1F4F0F731127E02EB7
:1049B0008C8DE8120CC00FB607FCFACFE889F98994
:1049C000808185FFF5CFCE010E949C24F1CF8B8D95
:1049D000FE01E80FF11DE35AFF4FF0829FB7F894F4
:1049E0000B8FEA89FB89808180620AC09FB7F894A7
:1049F000EE89FF896083E889F9898081837080640A
:104A000080839FBF81E090E0DF91CF911F910F9154
:104A1000FF90EF900895CF93DF93EC01888D88236A
:104A2000C9F0EA89FB89808185FD05C0A889B9891B
:104A30008C9186FD0FC00FB607FCF5CF808185FFF6
:104A4000F2CFA889B9898C9185FFEDCFCE010E9464
:104A50009C24E7CFDF91CF91089580E090E0892BEF
:104A600029F00E94922481110C9400000895209155
:104A70001D0430911E042817390771F49091930595
:104A800080919205981741F0E0919305F0E0EE5A7D
:104A9000FA4F808190E008958FEF9FEF0895089579
:104AA0001F93CF93DF93DC015C968D919C915D9772
:104AB000009739F421E030E013963C932E9312973F
:104AC0003BC05196ED91FC91529750962C91509786
:104AD000322F30951FB75E964C915E97742F72708F
:104AE00041FD6095F8944081772311F0422B01C07D
:104AF00043234083EC012197F1F748E0508160FFA8
:104B000002C0522B01C053235083EC012197F1F7CF
:104B10006695415099F78081772319F0832380832C
:104B200002C0282B20831FBF5C968D919C915D97BE
:104B30000197F1F781E090E0DF91CF911F91089507
:104B400020911D0430911E042817390771F48091BB
:104B500092052091930590E0805C9F4F821B910904
:104B600060E470E00E940033089580E090E00895D2
:104B700020911D0430911E0428173907B9F4909133
:104B8000930580919205981789F0E0919305F0E0E4
:104B9000EE5AFA4F80812091930530E02F5F3F4F0E
:104BA0002F7333272093930590E008958FEF9FEFA5
:104BB0000895089580E090E008950E944D3390910B
:104BC0000001891324C0E9E6FBE0E4919FEF909394
:104BD0000001E130B9F098F0E230C9F49091700032
:104BE0009D7F9093700091E09093B0009091B10000
:104BF000987F94609093B1001092B30008C0109217
:104C00006E0005C090916F009D7F90936F0060E0F3
:104C10000C94E4221F920F920FB60F9211242F933F
:104C20003F934F935F936F937F938F939F93AF9334
:104C3000BF93EF93FF9380914E0590914F05A09104
:104C40005005B0915105892B8A2B8B2B51F19091F6
:104C50004D05E0914B05F0914C05808189278083BB
:104C600080914E0590914F05A0915005B09151054E
:104C7000181619061A061B06C4F480914E05909169
:104C80004F05A0915005B09151050197A109B109B7
:104C900080934E0590934F05A0935005B093510516
:104CA00004C0809100010E94DF25FF91EF91BF9128
:104CB000AF919F918F917F916F915F914F913F91B4
:104CC0002F910F900FBE0F901F901895DC01ED9162
:104CD000FC910190F081E02D0994EF92FF920F93E7
:104CE0001F93CF93DF938C017B01C0E0D0E0F701ED
:104CF000EC0FFD1F6491662361F0D801ED91FC91EA
:104D00000190F081E02DC8010995892B11F02196C1
:104D1000EECFCE01DF91CF911F910F91FF90EF90D9
:104D200008956115710579F0FB0101900020E9F704
:104D30003197AF01461B570BDC01ED91FC910280CE
:104D4000F381E02D099480E090E008958F929F9286
:104D5000AF92BF92EF92FF920F931F93CF93DF9387
:104D6000CDB7DEB7A1970FB6F894DEBF0FBECDBFAB
:104D70007C01FA01CB0119A2223008F42AE08E014D
:104D80000F5D1F4F822E912CA12CB12CBF01A501CC
:104D900094010E948D32F901CA01015011096A3053
:104DA00014F4605D01C0695CD8016C93232B242B43
:104DB000252B61F7B801C7010E949126A1960FB675
:104DC000F894DEBF0FBECDBFDF91CF911F910F9141
:104DD000FF90EF90BF90AF909F908F900895211516
:104DE000310541F4DC01ED91FC910190F081E02D61
:104DF000642F09940C94A6269A01AB0160E070E040
:104E00000C94EF266BEE73E00C9491260F931F9396
:104E1000CF93DF93EC010E9491268C01CE010E947A
:104E20000227800F911FDF91CF911F910F9108955D
:104E30000F931F93CF93DF93EC010E946D268C019B
:104E4000CE010E940227800F911FDF91CF911F9109
:104E50000F9108951F920F920FB60F9211242F9366
:104E60003F934F935F936F937F938F939F93AF93F2
:104E7000BF93EF93FF938FE194E00E949C24FF91F6
:104E8000EF91BF91AF919F918F917F916F915F91C2
:104E90004F913F912F910F900FBE0F901F9018953B
:104EA0001F920F920FB60F9211242F938F939F93FF
:104EB000EF93FF93E0912F04F09130048081E09113
:104EC0003504F091360482FD12C09081809138043F
:104ED0008F5F8F7320913904821751F0E09138046D
:104EE000F0E0E15EFB4F958F8093380401C0808134
:104EF000FF91EF919F918F912F910F900FBE0F9087
:104F00001F9018951F920F920FB60F9211242F9396
:104F10003F934F935F936F937F938F939F93AF9341
:104F2000BF93EF93FF93E0911D04F0911E0430971F
:104F300009F451C0968DA685B785858591FF04C07B
:104F40009C91892329F447C09C91892309F043C08F
:104F5000A389B4899C918589809589238C938689BE
:104F600097890197F1F7608D718DA685B785558575
:104F700038E020E0CB010197F1F7822F90E0959582
:104F80008795282F4C91452309F02068315091F7DF
:104F9000868D81FD20958091920590E001968F731A
:104FA000992730919305381749F0A0919205B0E008
:104FB000AE5ABA4F2C938093920503C0868D8160C0
:104FC000868F828D938D0197F1F7A389B4899C9187
:104FD0008589892B8C93FF91EF91BF91AF919F9120
:104FE0008F917F916F915F914F913F912F910F9092
:104FF0000FBE0F901F901895CF93DF93FC01828D09
:10500000938D892B31F1A0911D04B0911E04EA17F4
:10501000FB07F9F0109751F05396CD91DC9154971E
:10502000988155968C91809589238883868D8E7F73
:10503000868F1092920510929305F0931E04E093D0
:105040001D04A389B4899C918589892B8C9381E067
:1050500001C080E0DF91CF910895CF92DF92EF926F
:10506000FF9220E030E04FEF5FEFD901AA0FBB1FA6
:10507000AA0FBB1FA80FB91F5496CD90DD90ED90DD
:10508000FC905797C114D104E104F10431F44F3F6F
:105090006FEF5607F1F4A9011CC021153105C9F0C5
:1050A0004F3F6FEF5607A9F0FA013596EE0FFF1F3D
:1050B000EE0FFF1FE80FF91FC082D182E282F38258
:1050C00054961D921D921D921C9257979A014FEF74
:1050D0005FEF2F5F3F4F253031053CF2FF90EF909F
:1050E000DF90CF9008950F931F93CF93DF93EC0140
:1050F0008C010C5F1F4F40E150E06EEE73E0C80181
:105100000E9450328CEB92E099838883FE01749662
:1051100084E1DF011D928A95E9F7F9A7E8A78C8160
:1051200081110BC040E150E063EF73E0C801DF91F3
:10513000CF911F910F910C945032DF91CF911F911D
:105140000F910895CF93DF93EC010E94740C2A8194
:105150003B818217930739F49C012150310981E08A
:105160002E3F3F4F08F080E0DF91CF910895CF921E
:10517000DF92EF92FF920F931F93CF93DF9300D0B4
:10518000CDB7DEB78C010E94A228811120C0C801D2
:105190000E94740CF80193838283E080F18068019F
:1051A000FFE5CF0ED11CE01AF10AC701800F911F55
:1051B000F80161918F019A838983CE0101960E9443
:1051C0005B0C0C151D0589F701E010E002C000E042
:1051D00010E040E06FE47BE084E090E00E94E10CAE
:1051E000B80184E090E00E946018C8010F900F9011
:1051F000DF91CF911F910F91FF90EF90DF90CF90B3
:105200000895CF93DF93EC018BE00E941622892B47
:1052100079F080910A0481110BC0C65BDF4F81E0F9
:1052200090E0288139812130310521F080E002C0F1
:1052300081E090E0DF91CF9108953FB7F89480919D
:10524000990590919A05A0919B05B0919C0526B572
:10525000A89B05C02F3F19F00196A11DB11D3FBFAE
:10526000BA2FA92F982F8827820F911DA11DB11D3C
:10527000BC01CD0142E0660F771F881F991F4A9538
:10528000D1F708952FB7F894609195057091960520
:1052900080919705909198052FBF08951F920F92C6
:1052A0000FB60F9211242F933F938F939F93AF9339
:1052B000BF938091950590919605A0919705B09127
:1052C00098053091940523E0230F2D3720F40196A3
:1052D000A11DB11D05C026E8230F0296A11DB11D19
:1052E000209394058093950590939605A093970538
:1052F000B09398058091990590919A05A0919B058E
:10530000B0919C050196A11DB11D809399059093C4
:105310009A05A0939B05B0939C05BF91AF919F9177
:105320008F913F912F910F900FBE0F901F90189566
:10533000CF93DF93CDB7DEB764970FB6F894DEBF97
:105340000FBECDBF789484B5826084BD84B5816082
:1053500084BD85B5826085BD85B5816085BD809140
:105360006E00816080936E001092810080918100B8
:1053700082608093810080918100816080938100B0
:10538000809180008160809380008091B100846072
:105390008093B1008091B00081608093B0008091D3
:1053A0007A00846080937A0080917A008260809392
:1053B0007A0080917A00816080937A0080917A00EF
:1053C000806880937A001092C10062E08AE00E94B7
:1053D000132362E08CE00E94132362E08BE00E94C2
:1053E000132361E085E00E94132361E08DE00E94B9
:1053F00013238BE00E94162221E0892B09F020E084
:1054000020930A0460E071EE80E090E00E9485192C
:1054100040913705509138056091390570913A05F2
:1054200080914505909146050E94671F69E170E0F3
:1054300080E090E00E94F12341E069E775E081E0BF
:1054400090E00E94E10C86EE94E00E940129892BF5
:1054500031F066E575E08FE194E00E94182786EE52
:1054600094E00E940129892B21F081E192E00E94C1
:10547000AB0741E063EA73E085E090E00E94E10C55
:105480008CE00E94162241E0892B29F468E773E042
:1054900084E090E05DC063EC72E085E090E00E9403
:1054A000E10C56EEE52E54E0F52E00E213E0C801C3
:1054B0000E946732D7018D937D010F5F1F4F0F3719
:1054C000B3E01B07A1F780E293E09093E704809399
:1054D000E60486EE94E00E94A228811107C041E014
:1054E00061EA72E083E090E00E94E10C60E273E028
:1054F00086E090E00E94601840E06AEE74E086E08A
:1055000090E00E949D0C41E066E372E086E090E04E
:105510000E949D0C6FE570E086E090E00E94F71914
:105520006FE570E086E090E00E94F71941E06DE8D9
:1055300072E086E090E00E94E10C86EE94E00E942A
:10554000A228811107C041E068E573E083E090E0A4
:105550000E94E10C86EE94E00E94A228882329F0A4
:105560008CE00E941622892B41F541E06CE273E049
:1055700083E090E00E94E10C8FE590E00E9409300A
:105580008C010E9417148FE5F801A6EEB4E001909B
:105590000D928A95E1F740E250E06CEA72E08AEF02
:1055A00094E00E94503280E293E09093E70480936D
:1055B000E60440E062E073E003C040E069ED72E0C1
:1055C00084E090E00E94E10C40E06AEF74E084E047
:1055D00090E00E949D0C41E066E372E084E090E080
:1055E0000E949D0C40913705509138056091390516
:1055F00070913A0580914505909146050E94671F7C
:105600008FE194E00E940B25609133057091340581
:1056100080913505909136050E94851969E170E009
:1056200080E090E00E94F12340E066E375E084E0D2
:1056300090E00E94E10C40E068E372E084E090E0DA
:105640000E949D0C40E063E375E084E090E00E94DE
:10565000E10C41E066E472E084E090E00E949D0C81
:1056600040E061E275E085E090E00E94E10C40E0FE
:105670006AEF74E085E090E00E949D0C40E06DE0F0
:1056800075E085E090E00E94E10C86EE94E00E94D7
:10569000740C8C010E9494080597A4F00E94860760
:1056A000882349F040E150E0B80180914505909190
:1056B00046050E94FC2640E150E0B8018FE194E0ED
:1056C0000E94FC2640E062E075E085E090E00E94E8
:1056D000E10C6FE570E085E090E00E94F71940E092
:1056E00064EE74E084E090E00E94E10CC090330529
:1056F000D0903405E0903505F09036050E9494086E
:10570000049724F0C701B6010E945B1940E061EDE7
:1057100074E084E090E00E94E10C00910A040E9491
:1057200094080497FCF00E94860710E0882379F023
:10573000B80180914505909146050E945A186DEE7A
:1057400073E080914505909146050E940627B801B7
:105750008FE194E00E945A186DEE73E08FE194E0BF
:105760000E94062740E064EC74E084E090E00E9430
:10577000E10C0E949408BC0184E090E00E94601853
:1057800041E06DEE73E084E090E00E949D0C6FE1DB
:1057900074E086EE94E00E9486136DEE73E08FE174
:1057A00094E00E9406270E948607882381F060917A
:1057B00045057091460586EE94E00E9486136DEED5
:1057C00073E080914505909146050E94062786EE7C
:1057D00094E00E940129892B21F08CE592E00E943F
:1057E000AB078DE290E00E9409308C0120E030E0B0
:1057F00040E752E068E070E00E94B4231093180480
:10580000009317048DE290E00E9409308C0120E0A3
:1058100030E043E752E067E070E00E94B423109369
:105820001A04009319048DE290E00E9409308C0163
:1058300020E030E046E752E066E070E00E94B423EA
:1058400010931C0400931B048DE290E00E94093029
:105850008C0120913F053091400549E752E069E015
:1058600070E00E94B42310931204009311048FE19E
:1058700090E00E9409308C0144E164E00E944F23D3
:1058800010930E0400930D04809132058230E9F0EC
:105890008330D9F581E490E00E9409307C0100E07A
:1058A0002AE043E06DE00E942F1583E191E0D701EB
:1058B0008D939C9340E06BEC73E084E090E00E9459
:1058C000E10C41E062E872E01AC081E490E00E94DD
:1058D00009307C0101E027E044E06AE00E942F15D6
:1058E0008BE091E0F7019183808340E06AEB73E005
:1058F00084E090E00E94E10C41E06CE772E084E01B
:1059000090E00E949D0C870108C081E490E00E9415
:1059100009307C010E947115870110930C040093DB
:105920000B0480910D0490910E04F801FF96918371
:10593000808388E090E00E9409307C01C0901104CF
:10594000D090120480912E0590912F058230910500
:1059500029F480E090E00E94673290E0F7019183A3
:1059600080831383028387E194E095838483D782C5
:10597000C682F0921004E0920F0485E490E00E9449
:1059800009307C0194E1A92EF7013296DF012A2D1E
:105990001D922A95E9F7CC24CA94DC2CD70157969E
:1059A000DC92CE9256973BE1832E31E0932E1196F6
:1059B0009C928E928FE194E059969C938E93589787
:1059C0005B961C930E935A97F701178E10A211A2A3
:1059D00012A293961D921D921D921C92969748E1D9
:1059E000B42EB796DF012B2D1D922A95E9F77896F4
:1059F000118210823296D182C08232961182108238
:105A000043E050E069E872E0C7014C960E945032D2
:105A1000F0924805E092470585E490E00E94093045
:105A20008C0180910B0490910C04209145053091DC
:105A30004605F8013296DF011D92AA94E9F7F801B4
:105A4000D78AC68A91828082318F208F938F828FEE
:105A5000178E10A211A212A213A214A215A216A2AE
:105A6000B796DF011D92BA94E9F7789611821082F9
:105A70003296D182C08232961182108243E050E089
:105A800064E971E0C8014C960E94503210934A05B7
:105A90000093490586EE94E00E940129892B21F0AC
:105AA0008CE892E00E94AB0700910F041091100463
:105AB00040E06CED73E084E090E00E94E10CF801BE
:105AC0006081718184E090E00E946018D8016C913F
:105AD0008DE00E94E422F801808191810480F581AB
