:100000000C9472050C949A050C949A050C94BD24DA
:100010000C94BD240C94BD240C949A050C9472236A
:100020000C949A050C949A050C949A050C949A05D4
:100030000C949A050C949A050C949A050C949A05C4
:100040000C9485260C949A050C948B240C946524AE
:100050000C949A050C949A050C949A050C949A05A4
:100060000C949A050C949A057F0C8A0C950CA00CA4
:10007000AB0CC80CCF0CD60CDB0CE60CF10CFC0C5A
:10008000030D0A0DDD0FF60F0F10281043105E1040
:10009000611064108C10A710C210DD10E010E61083
:1000A000F913001406141D14331446144A1473145F
:1000B000771443616C6C696E6720454550524F4D13
:1000C0002E75706461746520776974682070726F32
:1000D00078696D6974795F73746174653A20002979
:1000E0002000465245452052414D2028004D656E66
:1000F000753A3A67657454616746726F6D53636110
:100100006E6E6572282920666F756E642074616753
:100110002000636865636B53657269616C506F7230
:100120007420454F4C20696E64783A2000636865FE
:10013000636B53657269616C506F72742829207209
:1001400063766420627974653A2000616464546166
:100150006728292061626F727465643A20496E765F
:10016000616C696420636F646500616464546167F5
:100170002829207375636365737300616464546137
:10018000672829206661696C65643A20447570654A
:10019000006164645461672829206661696C656444
:1001A0003A2046756C6C00616464546167282920AC
:1001B000006661696C65642C207461672069732036
:1001C0006475706C6963617465006661696C65640F
:1001D0002C20746167206C697374206973206675C4
:1001E0006C6C0061626F727465642C20696E76615C
:1001F0006C6964207461672D696420737472696E20
:100200006700737563636573730041646454616769
:10021000282920726573756C743A20005461672038
:10022000656E74657265643A200064656C6574651A
:10023000546167496E64657828293A200044656CEA
:10024000657465546167282920726573756C743A0A
:10025000200064656C6574655461672829206162BB
:100260006F72746564004D656E753A3A64656C65CD
:10027000746554616728290064656C657465416C18
:100280006C5461677328290064656C657465416C02
:100290006C5461677328292061626F727465640011
:1002A00075706461746553657474696E672829207C
:1002B00063616C6C20746F20532E7570646174657B
:1002C00053657474696E672829206661696C65647A
:1002D0000075706461746553657474696E6728296C
:1002E0002061626F72746564004D656E753A3A758F
:1002F000706461746553657474696E6728293A2067
:100300000053746F726167653A3A4C6F61642829D3
:1003100020636865636B73756D206D69736D6174BF
:1003200063680053657474696E67733A3A4C6F6121
:10033000642829207573696E67206C6F6164656439
:100340002073657474696E67732027005365747435
:10035000696E67733A3A4C6F616428292075736936
:100360006E672064656661756C742073657474696A
:100370006E677320270053657474696E67733A3A29
:100380004C6F616428292063686B736D206D6973FD
:100390006D61746368004661696C736166652065B0
:1003A0006E61626C65642C20736B697070696E6736
:1003B0002073746F7265642073657474696E6773FB
:1003C000004C6F6164696E67207265616465723AA2
:1003D00020004C6F6164696E6720726561646572AC
:1003E0003A200053657474696E67206F7574707578
:1003F0007420737769746368207065722070726FFF
:1004000078696D6974795F73746174653A2000531B
:1004100074617274696E6720436F6E74726F6C6C76
:100420006572207769746820726561646572200066
:1004300053746F726167653A3A4C6F616428292082
:10044000636865636B73756D206D69736D6174634B
:100450006800546167733A3A4C6F616428292063DD
:100460006865636B73756D206D69736D6174636826
:100470002C206372656174696E67206E65772074E5
:1004800061672D7365740054616773206C6F6164DC
:10049000656420004D656E753A3A426567696E285D
:1004A0002900496E697469616C697A6564207365B5
:1004B0007269616C20706F72742077697468206C47
:1004C0006F616465642073657474696E673A2000B7
:1004D00027206F662073697A65200027207769746A
:1004E0006820636865636B73756D20273078004CF6
:1004F0006F616465642053657474696E6773202747
:1005000000496E697469616C697A65642064656626
:1005100061756C742073657269616C20706F7274A0
:1005200020402035373630302062617564004465E4
:100530006275672070696E207374617475733A20F8
:10054000002C2000426F6F74696E67205246494448
:100550002070726F78696D6974792073656E736F3E
:10056000722C20006C6F675F746F5F62740061644F
:100570006D696E5F737461727475705F74696D65B7
:100580006F757400746F6E655F6672657175656E08
:10059000637900726669645F626175640062745FAA
:1005A000626175640068775F73657269616C5F6230
:1005B0006175640064656661756C745F7265616421
:1005C000657200656E61626C655F64656275670087
:1005D00070726F78696D6974795F73746174655F47
:1005E000737461727475700061646D696E5F7469B3
:1005F0006D656F7574007265616465725F637963C0
:100600006C655F686967685F6475726174696F6E55
:10061000007265616465725F6379636C655F6C6FBE
:10062000775F6475726174696F6E007461675F7281
:100630006561645F736C6565705F696E7465727621
:10064000616C007461675F6C6173745F7265616493
:100650005F74696D656F7574004D656E753A3A62C9
:10066000797465546F41736369694368724E756D3F
:10067000207263766420627974653A20004D656E5D
:10068000753A3A6D656E7541646454616728290056
:100690004D656E753A3A6D656E7544656C65746549
:1006A0005461672829004D656E753A3A6D656E751F
:1006B00044656C657465416C6C54616773282900EE
:1006C00046726565204D656D6F72793A20004D6503
:1006D0006E753A3A6D656E7553686F7746726565EB
:1006E0004D656D6F72792829004D656E753A3A6DCA
:1006F000656E755265626F6F742829006D656E7541
:1007000053656C65637465644D61696E4974656DAC
:1007100020627974657320746F206E756D3A2000C5
:100720006D656E7553656C65637465644D61696E66
:100730004974656D207263766420646174613A2047
:10074000003A20006D656E7553656C656374656471
:1007500053657474696E67207365742073656C6586
:10076000637465645F6D656E755F6974656D207433
:100770006F3A20004D656E753A3A6D656E7553653A
:100780006C656374656453657474696E67282900C9
:1007900053656C65637465643A20004C6F616469ED
:1007A0006E67207265616465723A200043062B060D
:1007B0001106F605E805D005C305B405A5059D0598
:1007C000930584056E0564052C2073697A65200005
:1007D00053657474696E67732C2063686B736D2046
:1007E00030780000000000240027002A00000000EC
:1007F00008000201000003040700000000000000E0
:100800000020746F2061646472657373200053610B
:1008100076696E67207461677320776974682063F6
:100820006865636B73756D203078002E20002C2076
:1008300073697A652000546167732C2063686B7359
:100840006D203078004D656E753A3A6D656E754C69
:10085000697374546167732829004D656E753A3A5F
:100860006D656E7553657474696E67732829002908
:1008700000526561646572732028004D656E753A9B
:100880003A6D656E754C6973745265616465727317
:10089000282900382E205265737461727400372E37
:1008A000204C697374207265616465727300362E22
:1008B0002053686F772066726565206D656D6F7275
:1008C0007900352E2053657474696E677300342E79
:1008D0002044656C65746520616C6C20746167737D
:1008E00000332E2044656C657465207461670032A6
:1008F0002E204164642074616700312E204C69739E
:1009000074207461677300302E2045786974004D3F
:10091000656E75004D656E753A3A6D656E754D6123
:10092000696E2829003A20004D656E753A3A627565
:1009300066666572526561647928293A2000000074
:1009400000002300260029000000000025002800E8
:100950002B00040404040404040402020202020240
:100960000303030303030102040810204080010273
:100970000408102001020408102052464944206156
:10098000646D696E20636F6E736F6C652C200075EB
:10099000706461746541646D696E54696D656F75ED
:1009A0007428293A20004D656E753A3A636C65618A
:1009B0007253657269616C506F72742829004D65BD
:1009C0006E753A3A726561644C696E655769746810
:1009D00043616C6C6261636B282900456E746572BB
:1009E000696E672072756E206D6F64650020736597
:1009F0007474696E672072756E5F6D6F6465203DFB
:100A00003E2030004D656E753A3A657869744164F0
:100A10006D696E2829004D454E55204C4F4F502092
:100A2000454E44004D454E55204C4F4F50204245B9
:100A300047494E3A20004D656E753A3A72657365C6
:100A400074496E7075744275666665722829002C4B
:100A500020757074696D6520006E6576657200732F
:100A60002061676F002C206379636C656420006EE1
:100A70006576657200732061676F006379636C65EA
:100A8000526561646572506F7765722829207461C0
:100A90006720726561642000556E617574686F72BD
:100AA000697A6564206F7220696E76616C69642072
:100AB0007461673A2000417574686F72697A656481
:100AC000207461673A200053657474696E67733AE5
:100AD0003A73617665282920726573756C743A20C3
:100AE0000002682C11241FBECFEFD8E0DEBFCDBFBF
:100AF00013E0A0E0B1E0E6EFF5E602C005900D924C
:100B0000A83CB107D9F725E0A8ECB3E001C01D92DD
:100B1000AA36B207E1F715E0C2E7D5E004C0219795
:100B2000FE010E94D82FC137D107C9F70E94CF26F6
:100B30000C94F9320C940000CF92DF92EF92FF9266
:100B40000F931F93CF93DF93CDB7DEB768970FB6A0
:100B5000F894DEBF0FBECDBF8C016C0183E4C80EDC
:100B6000D11CD6018D919C91892B09F488C0F80184
:100B7000828D938D0E94161ED8015A96ED91FC919C
:100B80005B9783AD94ADA5ADB6AD892B8A2B8B2B2E
:100B900009F475C082EB94E00E943826892B31F06D
:100BA0006DEE70E08BEE93E00E942F2482EB94E0D8
:100BB0000E943826892B91F0D8015A96ED91FC912C
:100BC0005B9743AD54AD65AD76AD2AE08BEE93E017
:100BD0000E94CE238BEE93E00E941724D8015A96F0
:100BE000ED91FC915B9786AD8F9385AD8F9384AD2E
:100BF0008F9383AD8F9380E991E09F938F93FE0154
:100C000031967F01FF93EF930E94463048E150E018
:100C1000B7017801F7E2EF0EF11CC7010E94F52E33
:100C2000F7010FB6F894DEBF0FBECDBF80E090E0B5
:100C300041919C012F5F3F4F41110EC0F801E80F19
:100C4000F91F4AE047A3F801E20FF31F17A2F801CA
:100C5000FF963183208304C0C9012831310541F753
:100C6000D8015A968D919C915B97FC0113AE14AEFE
:100C700015AE16AE0E949815D6011D921C9264E91D
:100C800071E0C8014C960E940D30892B21F5F801C6
:100C9000E08CF18CC7010E9437258091E903909187
:100CA000EA03E816F90639F062E070E080E090E0CF
:100CB0000E94571CF2CFD6018D919C91892B29F46B
:100CC00061E070E080E090E004C06AE070E080E005
:100CD00090E00E94571CF801808D918DDC01ED9110
:100CE000FC910084F185E02D0995892B09F459C008
:100CF0001093D4030093D3034091F6045091F7046A
:100D00006091F8047091F904C8010E940817F60177
:100D100011821082C801CF966C01D80158968D912E
:100D20009C915997DC01ED91FC910084F185E02DB7
:100D30000995892BB1F1C8010E94DC17811131C0DE
:100D4000F801808D918DDC01ED91FC910284F38599
:100D5000E02D0995F82E82EB94E00E943826892B2D
:100D600031F06DE271E08BEE93E00E942F2482EB74
:100D700094E00E943826892B41F06F2D0F2C000C37
:100D8000770B8BEE93E00E944318BBE1FB123FC050
:100D90008AE0F80187A310A681E090E0D6018D9348
:100DA0009C93C8010E94DC17882309F46EC0B80127
:100DB000695D7F4F48E150E0CE0101960E94F52E1B
:100DC000C8010E94D71DD801ED91FC910280F381EA
:100DD000E02DC8010995F801E08CF18CD701ED9167
:100DE000FC910190F081E02D6AE0C7010995C701EF
:100DF0000E941724D801ED91FC910680F781E02D27
:100E000041E0BE016F5F7F4FC80109953EC0F80108
:100E1000808D918DDC01ED91FC910190F081E02DB0
:100E20006F2D0995F60180819181F801E80FF91F76
:100E3000F7A20196D6018D939C93BDE0FB1619F0A5
:100E4000EAE0FE126ACF82EB94E00E943826892BFA
:100E500031F062E171E08BEE93E00E942F2482EB8F
:100E600094E00E943826892B49F0D6016D917C913F
:100E7000615071098BEE93E00E944318D601ED9109
:100E8000FC91E00FF11F17A248CF68960FB6F894B7
:100E9000DEBF0FBECDBFDF91CF911F910F91FF90AD
:100EA000EF90DF90CF9008958AE00E94D01A892BAE
:100EB000E1F480910F05882339F08091E10390914E
:100EC000E203892B59F413C08BE00E94D01A892BBE
:100ED000A1F38091D2038111F0CF07C081E020916E
:100EE000D3033091D403232B19F080E0089581E0DF
:100EF0000895EF92FF920F931F93CF93DF9300D04B
:100F0000CDB7DEB77C0120916405309165052115D0
:100F1000310511F42AE635E08E010F5F1F4F021BE9
:100F2000130B62EE70E08BEE93E00E942F24B80169
:100F30008BEE93E00E94C71C6FED70E08BEE93E0A8
:100F40000E942F24B7018BEE93E00E941B24C8015E
:100F50000F900F90DF91CF911F910F91FF90EF9025
:100F60000895CF93DF93CDB7DEB764970FB6F894AB
:100F7000DEBF0FBECDBFAE014F5F5F4F24E1FA0170
:100F800011922A95E9F726ED31E03A8329832EE183
:100F900030E03C832B8360E070E00E94F01C64969C
:100FA0000FB6F894DEBF0FBECDBFDF91CF9108958D
:100FB000CF93DF93CDB7DEB764970FB6F894DEBF5B
:100FC0000FBECDBFAE014F5F5F4F24E1FA0111921A
:100FD0002A95E9F726E430E03A8329833C832B8382
:100FE00060E070E00E94F01C64960FB6F894DEBFDB
:100FF0000FBECDBFDF91CF910895CF93DF93CDB7D3
:10100000DEB764970FB6F894DEBF0FBECDBFAE015A
:101010004F5F5F4F24E1FA0111922A95E9F724EF1F
:1010200031E03A8329833C832B8360E070E00E94A7
:10103000F01C64960FB6F894DEBF0FBECDBFDF91F3
:10104000CF910895CF93DF93CDB7DEB764970FB6F6
:10105000F894DEBF0FBECDBFAE014F5F5F4F24E1FE
:10106000FA0111922A95E9F760E070E00E94F01C05
:1010700064960FB6F894DEBF0FBECDBFDF91CF915F
:101080000895FC01708767836115710581F481857E
:1010900092850196928781872385348512161306DF
:1010A00034F4281739071CF4168215820895DB01E1
:1010B000AA0FBB1FAE0FBF1F59968D919C915A97D7
:1010C000181619064CF4CB01019662E070E00E94FC
:1010D000A52F9683858302C0168215828585968505
:1010E000A785B089818B928BA38BB48B089580E008
:1010F00090E0FB0121913191BF011216130624F4F7
:1011000001968A309105A9F708958F929F92AF9228
:10111000BF92CF92DF92EF92FF92CF93DF93EC01D9
:101120000E9479266D877E878F87988BEF80F88461
:1011300089889A88AB88BC88DC01CB018819990919
:10114000AA09BB09F701EE0FFF1FEC0FFD1F818CF1
:10115000928C092C000CAA08BB0888159905AA05D1
:10116000BB0598F0BE01675E7F4FCE010E947708F5
:101170000197E816F9061CF060E070E003C0B701C3
:101180006F5F7F4FCE010E9441088D889E88811439
:10119000910441F48F89988D892B09F0B8C16D8134
:1011A000888119C2181419040CF0B1C18D819E8177
:1011B000892B09F49FC1888199812091000128170A
:1011C00021F02F3F09F079C204C0E1EEFAE0C491AA
:1011D00079C080930001E1EEFAE0C491CF3F09F4B9
:1011E0006CC2C13009F448C050F1C23009F06AC085
:1011F0001092B0001092B1002091B00022602093B4
:10120000B0002091B10021602093B1009C013327F0
:10121000F901EE5AF64FE491F0E0EE0FFF1FE85BA4
:10122000F64F459154915093130540931205F901DF
:10123000EA59F64FE491E0931405C2E03AC214BCB7
:1012400015BC24B5226024BD25B5216025BD9C01B7
:101250003327F901EE5AF64FE491F0E0EE0FFF1F4D
:10126000E85BF64F45915491F901EA59F64FE49144
:10127000E093C903C0E01DC210928000109281006B
:1012800020918100286020938100209181002160BD
:10129000209381009C013327F901EE5AF64FE49127
:1012A000F0E0EE0FFF1FE85BF64F45915491F90116
:1012B000EA59F64FE491E093C80361E00E94791B7C
:1012C000C1E0A6C0C7FDF9C161E00E94791B8C2F67
:1012D0008D7F09F09DC0092C000CAA08BB0860E0B6
:1012E00072E18AE790E0A50194010E94B92F69019B
:1012F0007A01DA01C9010197A109B1098F3F91056E
:10130000A105B10509F00CF445C060E472E48FE07A
:1013100090E0A50194010E94B92FBA01A9014150A2
:10132000510961097109C230E9F44F3F5105610566
:10133000710509F00CF45DC160E970ED83E090E0A7
:10134000A50194010E94B92FBA01A9014150510988
:10135000610971094F3F51056105710509F034F5C7
:1013600083E04FC04F3F510561057105B9F0B4F0FE
:1013700068E478EE81E090E0A50194010E94B92F25
:10138000BA01A9014150510961097109CC2309F43D
:1013900032C187C1AC01BD0181E001C082E0C11151
:1013A00030C095B5987F892B85BD6AC068E478EE1A
:1013B00081E090E0A50194010E94B92FBA01A90132
:1013C00041505109610971094F3F5105610571058E
:1013D00009F00CF40CC164E274EF80E090E0A50128
:1013E00094010E94B92FBA01A90141505109610924
:1013F00071094F3F51056105710511F008F02AC1CF
:1014000085E09091B100987F892B8093B10032C024
:10141000092C000CAA08BB0860E072E18AE790E0A2
:10142000A50194010E94B92FDA01C9010197A10910
:10143000B109009721E0A207B10524F4AC01BD0178
:1014400081E00FC068E478EE81E090E0A5019401AE
:101450000E94B92FBA01A9014150510961097109CE
:1014600083E0C13039F490918100987F892B80937B
:10147000810018C0C130B1F0C23049F1C1111DC1A5
:1014800047BD8FEF9FEFDC018093CE039093CF0396
:10149000A093D003B093D10380916E0082608093BB
:1014A0006E000BC150938900409388008FEF9FEF2F
:1014B000DC018093CA039093CB03A093CC03B09339
:1014C000CD0380916F00826080936F00F6C04093DF
:1014D000B3008FEF9FEFDC01809315059093160505
:1014E000A0931705B09318058091700082608093D7
:1014F0007000E3C08881DF91CF91FF90EF90DF9083
:10150000CF90BF90AF909F908F900C944723EF881F
:10151000F88C1E141F040CF0D0C08D819E81892B85
:1015200009F452C00990D881C02D61E08C2F0E942F
:10153000791B8FEFE816F10409F444C0FE01FF2780
:10154000E351F84FE491E330F9F048F4E130B9F0B9
:10155000E230A1F584B5806284BDE8BCAEC0E7305E
:10156000E9F0E83019F1E43049F5809180008062BB
:1015700080938000F0928B00E0928A009EC084B538
:10158000806884BDE7BC99C08091800080688093AA
:101590008000F0928900E09288008FC08091B000B6
:1015A00080688093B000E092B30087C08091B00063
:1015B00080628093B000E092B4007FC020E8E21621
:1015C000F1043CF061E006C0C88161E08C2F0E940C
:1015D000791B60E08C2FDF91CF91FF90EF90DF902F
:1015E000CF90BF90AF909F908F900C944A1B84E057
:1015F00008CF82E006CF4F3F51056105710541F1EB
:1016000038F162E17AE780E090E0A50194010E9460
:10161000B92FBA01A90141505109610971094F3F20
:1016200051056105710591F088F0D701C6013AE0D6
:10163000B595A795979587953A95D1F7AC01BD01DA
:10164000415051096109710985E0ABCE84E0A9CE12
:1016500083E0A7CE62E17AE780E090E0A501940103
:101660000E94B92FBA01A9014150510961097109BC
:101670004F3F51056105710591F088F0D701C60112
:101680002AE0B595A795979587952A95D1F7AC014E
:10169000BD01415051096109710987E0B2CE86E070
:1016A000B0CE4F3F51056105710509F098F684E011
:1016B00076CE61E00E94791B0ECEDF91CF91FF9034
:1016C000EF90DF90CF90BF90AF909F908F90089554
:1016D000FF920F931F93CF93DF93EC01F62E0881B7
:1016E0001981C8010E940C2FF81621F06F2DC80136
:1016F0000E94142FCE01DF91CF911F910F91FF9087
:101700000895CF93FC014281538113821282DC0140
:10171000BC01625A7F4F80E090E02C9130E0322F84
:1017200022271196CC9111972C2B82279327129662
:101730006A177B0791F753834283CF9108951F93D4
:10174000CF93DF93EC01162F0E945407882389F072
:10175000BE0180911005909111050E942D24112346
:10176000C1F065EB73E080911005909111050E9426
:101770001B24BE018BEE93E00E942D24112389F0DF
:1017800065EB73E08BEE93E0DF91CF911F910C94AA
:101790001B24BE018BEE93E0DF91CF911F910C943F
:1017A0002D24DF91CF911F9108951F93CF93DF9345
:1017B000EC01162F0E945407882389F0BE01809106
:1017C0001005909111050E942F241123C1F065EBA3
:1017D00073E080911005909111050E941B24BE01B9
:1017E0008BEE93E00E942F24112389F065EB73E0C8
:1017F0008BEE93E0DF91CF911F910C941B24BE01DF
:101800008BEE93E0DF91CF911F910C942F24DF9109
:10181000CF911F910895AF92BF92CF92DF92EF9236
:10182000FF920F931F93CF93DF93CDB7DEB7A097AF
:101830000FB6F894DEBF0FBECDBF6C018B0182EBFB
:1018400094E00E943826892B31F069EE72E08BEE2D
:1018500093E00E942F2482EB94E00E9438269601A8
:101860002F5B3F4F5901892B39F0F901608171815C
:101870008BEE93E00E94C71C82EB94E00E94382616
:10188000892B31F067E971E08BEE93E00E942D2403
:1018900082EB94E00E943826892B29F0B8018BEE68
:1018A00093E00E941B24F80180818D3021F08A3062
:1018B00011F0811104C061E081ED92E0D0C0F5012A
:1018C000E080F180F1E0EF1AF108F701EE0FFF1F61
:1018D000E455F84F65917491CE0101960E94EE2E69
:1018E0002EE0E216F10408F0B7C0F701EC5CFF4F00
:1018F0004AE050E060E070E0C8010C94D82F0E94EC
:10190000CF2D6093E6047093E7048093E8049093EE
:10191000E9048AC00E94CF2D6093EA047093EB041F
:101920008093EC049093ED047FC00E94CF2D6093D0
:10193000EE047093EF048093F0049093F10474C06C
:101940000E94CF2D6093F2047093F3048093F4040B
:101950009093F50469C00E94CF2D6A30710581050E
:10196000910548F06093F6047093F7048093F804AF
:101970009093F90459C08AE090E0A0E0B0E0809331
:10198000F6049093F704A093F804B093F9044CC0C4
:101990000E94CF2D7093FB046093FA0445C00E940F
:1019A000CF2D7093FD046093FC043EC00E94CF2DA8
:1019B0006093FE0439C00E94CF2D6093FF047093A2
:1019C000000580930105909302052EC00E94CF2D43
:1019D00060930305709304058093050590930605B5
:1019E00023C00E94CF2D6093070570930805809354
:1019F000090590930A0518C00E94CF2D70930C051D
:101A000060930B0511C00E94CF2D70930E0560935B
:101A10000D050AC00E94CF2D21E0672B682B692B92
:101A200009F420E020930F0540E250E06AE971E0FC
:101A300086EC94E00E94F52E82EB94E00E94F22561
:101A40004091F6045091F7046091F8047091F90404
:101A5000C6010E94081705C061E080EA92E00E947A
:101A6000D50B8FEF9FEFF50191838083C6010E9414
:101A70009719A0960FB6F894DEBF0FBECDBFDF91C9
:101A8000CF911F910F91FF90EF90DF90CF90BF907B
:101A9000AF900895CF93DF93EC01DB018C918F7DA4
:101AA000893579F461E088E792E00E94D50B84E102
:101AB000ECE9F4E0DF011D928A95E9F70E94661ACD
:101AC00006C068E872E0888D998D0E945324888D45
:101AD000998D0E94172420E030E0A90160E070E0B9
:101AE000CE010E94C819DF91CF910895CF92DF9265
:101AF000EF92FF920F931F93CF93DF93EC018B0133
:101B000082EB94E00E943826892B31F066E672E081
:101B10008BEE93E00E9453244AE050E060E070E0D6
:101B2000C8010E94CF2D6B017C01CB01181619064C
:101B30004CF4F80120812D3029F02A3019F065305D
:101B400071053CF062E572E0888D998D0E94532406
:101B500028C086010150110960E08AE292E00E94EB
:101B6000D50BC8010E94CD1CF4E0CF0ED11CC601DC
:101B7000880F991F880F991FFC01E857FB4F1082AF
:101B80001182128213820E94661A6DE372E0888DC0
:101B9000998D0E942F2460E070E0888D998D0E94BD
:101BA0004318888D998D0E94172420E030E0A90108
:101BB00060E070E0CE010E94C819DF91CF911F91C3
:101BC0000F91FF90EF90DF90CF9008958F929F92AA
:101BD000AF92BF92EF92FF920F931F93CF93DF9339
:101BE0008C017B01FB0180818D3009F468C08A3053
:101BF00009F465C0882309F462C04AE050E060E05F
:101C000070E0C7010E94CF2D4B015C0160E087EAC4
:101C100091E00E94D50B41E0C501B4010E94E51599
:101C200088E894E00E946825ECE9F4E0DF0180E0B8
:101C300090E04D915D916D917D91452B462B472B09
:101C400009F0019624E0A03BB20799F781149104B2
:101C5000A104B10431F461E08BE491E00E94D50B62
:101C60002EC08530910544F061E081E991E00E9449
:101C7000D50BC2E0D0E025C04191519161917191A5
:101C800084169506A606B70609F474C024E0E03B66
:101C9000F20791F7880F991F880F991FFC01E456EE
:101CA000FB4F80829182A282B3820E94661A61E019
:101CB0008AE691E00E94D50BC0E0D0E002C0C1E00E
:101CC000D0E06CE172E0F801808D918D0E942F24AC
:101CD000B701F801808D918D0E941B246AE072E0AB
:101CE000F801808D918D0E942F24BE01F801808D16
:101CF000918D0E94C71C67E971E0F801808D918D7C
:101D00000E942D24F801808D918DC230D10559F0AB
:101D1000C330D10559F0219719F062E072E008C094
:101D200063EE71E005C06AEC71E002C061EB71E046
:101D30000E942F24F801808D918D0E941724F801B4
:101D4000808D918D0E941724C8010E94D71D20E02C
:101D500030E0A90160E070E0C8010E94C819DF917D
:101D6000CF911F910F91FF90EF90BF90AF909F90F8
:101D70008F90089561E08BE791E00E94D50BC3E05E
:101D8000D0E09FCF0F931F93CF93DF9300D0CDB7B9
:101D9000DEB78C018091E1039091E203892B01F57C
:101DA000F801808191817183608386179707C1F064
:101DB0008091FA049091FB04029791F460E082EB29
:101DC00090E00E94D50BF801808191810E94CD1C8A
:101DD000F80160811A821982CE0101960E94680B77
:101DE000F801808191810F900F90DF91CF911F9129
:101DF0000F91089586E192E0089580E192E00895C0
:101E000083E592E0089560E070E0CB01089586E2FA
:101E100091E00895FC012689378937FF04C060E00E
:101E200070E0CB010895220F331F220F331FFC01F6
:101E3000E20FF31F62817381848195810895CF93AE
:101E4000DF93FC012689378937FF05C060E070E029
:101E500080E090E00EC0EC010190F081E02D048064
:101E6000F581E02D09952E893F89215031093F8B5D
:101E70002E8BDF91CF9108952FEF3FEFDC01579626
:101E80003C932E935697FC019C012C5E3F4F13828E
:101E90001282158214823496E217F307C1F74115B6
:101EA000510511F460FF07C0DC01ED91FC91019038
:101EB000F081E02D099408959F92AF92BF92CF9246
:101EC000DF92EF92FF920F931F93CF93DF93EC017A
:101ED0008B01942EE881F9810480F581E02D09952C
:101EE0006B017C018E899F8997FD3AC0570181E083
:101EF000A822BB24C114D10421F4A114B10469F5B2
:101F00002FC0992039F0E881F9810280F381E02D1A
:101F1000CE010995AB2871F0F701F595E795EC0F27
:101F2000FD1F0190F081E02DEC0DFD1D0190F08171
:101F3000E02D01C0F601C70195958795B8018C0F7A
:101F40009D1FDF91CF911F910F91FF90EF90DF9038
:101F5000CF90BF90AF909F9009949920E9F2D3CF92
:101F6000DF91CF911F910F91FF90EF90DF90CF9075
:101F7000BF90AF909F900895EF92FF920F931F93A1
:101F8000CF93DF93EC01CA01122F032F7B0121E0D5
:101F9000E21AF108F701EE0FFF1FE455F84F6591C3
:101FA00074910E94EE2E8EE0E816F10408F021C133
:101FB000F701EE5BFF4F0C94D82F8FA98F938EA95A
:101FC0008F938DA98F938CA98F9380E991E09F9334
:101FD0008F930F931F930E9446308DB79EB708963C
:101FE0000FB6F8949EBF0FBE8DBF03C18BAD8F930C
:101FF0008AAD8F9389AD8F9388AD8F9380E991E0FF
:102000009F938F930F931F930E9446308DB79EB777
:1020100008960FB6F8949EBF0FBE8DBFEAC08FAD75
:102020008F938EAD8F938DAD8F938CAD8F9380E911
:1020300091E09F938F930F931F930E9446308DB72B
:102040009EB708960FB6F8949EBF0FBE8DBFD1C045
:10205000C05CDF4F8B818F938A818F9389818F93AF
:1020600088818F9380E991E09F938F930F931F93C3
:102070000E9446308DB79EB708960FB6F8949EBF63
:102080000FBE8DBFB6C0CC5BDF4F8B818F938A8133
:102090008F9389818F9388818F9380E991E09F93BB
:1020A0008F930F931F930E9446308DB79EB708966B
:1020B0000FB6F8949EBF0FBE8DBF9BC0C85BDF4FAD
:1020C00081C0C65BDF4F7EC0C45BDF4F2881822F9B
:1020D00090E001978330910540F4880F991FFC012F
:1020E000EA5BFE4F8081918102C08CE592E09F9374
:1020F0008F931F922F9385E692E09F938F930F9378
:102100001F930E9446308DB79EB708960FB6F8947D
:102110009EBF0FBE8DBF6DC0C35BDF4F8B818F93A2
:102120008A818F9389818F9388818F9383EA93E04B
:102130009F938F930F931F930E9446308DB79EB746
:1021400008960FB6F8949EBF0FBE8DBF52C0CF5AEF
:10215000DF4F8B818F938A818F9389818F938881C1
:102160008F9383EA93E09F938F930F931F930E9423
:1021700046308DB79EB708960FB6F8949EBF0FBE37
:102180008DBF37C0CB5ADF4F8B818F938A818F935E
:1021900089818F9388818F9383EA93E09F938F93B4
:1021A0000F931F930E9446308DB79EB708960FB6C7
:1021B000F8949EBF0FBE8DBF1CC0C75ADF4F02C030
:1021C000C55ADF4F89818F93888104C0C35ADF4F7E
:1021D00088811F928F9382E692E09F938F930F9353
:1021E0001F930E9446300F900F900F900F900F900A
:1021F0000F90DF91CF911F910F91FF90EF90089575
:102200006F927F928F929F92AF92BF92CF92DF9206
:10221000EF92FF920F931F93CF93DF93CDB7DEB76B
:102220006C014B016DB67EB6FC01F38044814F5FBB
:102230004F1950E04F5F5F4F8DB79EB7841B950BD2
:102240000FB6F8949EBF0FBE8DBF0DB71EB70F5FC0
:102250001F4F65E271E0C8010E940430F401EF0DE8
:10226000F11D7F018DE6A82E82E0B82EF601848153
:1022700090E097012819390982179307C4F0F701F4
:1022800021917F01F80101900020E9F71F922F931F
:10229000BF92AF92CF0101979F938F930E944630D8
:1022A0000F900F900F900F900F900F90DFCF40E1A5
:1022B00050E060E070E0C8010E94CF2D0FB6F894A6
:1022C0007EBE0FBE6DBEDF91CF911F910F91FF902B
:1022D000EF90DF90CF90BF90AF909F908F907F90C6
:1022E0006F9008956F927F928F929F92AF92BF925C
:1022F000CF92DF92EF92FF920F931F93CF93DF93D2
:10230000CDB7DEB76C014B016DB67EB6FC01038123
:10231000448150E010E0401B510B4F5F5F4F440F72
:1023200050E04F5F5F4F8DB79EB7841B950B0FB684
:10233000F8949EBF0FBE8DBFEDB7FEB731967F01FB
:1023400065E271E0CF010E940430080D191D80E79D
:10235000A82E82E0B82EF601848190E09801281919
:10236000390982179307C4F0F80121918F01F70111
:1023700001900020E9F71F922F93BF92AF92CF01F7
:1023800001979F938F930E9446300F900F900F906C
:102390000F900F900F90DFCF40E150E060E070E0D1
:1023A000C7010E94CF2D0FB6F8947EBE0FBE6DBE42
:1023B000DF91CF911F910F91FF90EF90DF90CF9021
:1023C000BF90AF909F908F907F906F9008956F9285
:1023D0007F928F929F92AF92BF92CF92DF92EF92B5
:1023E000FF920F931F93CF93DF93CDB7DEB76C01AE
:1023F0004B016DB67EB6FC01F38044814F1950E06D
:102400004F5F5F4F8DB79EB7841B950B0FB6F89447
:102410009EBF0FBE8DBF0DB71EB70F5F1F4F65E28A
:1024200071E0C8010E940430F401EF0DF11D7F013D
:102430008DE6A82E82E0B82EF601848190E0970107
:102440002819390982179307C4F0F70121917F01F8
:10245000F80101900020E9F71F922F93BF92AF92ED
:10246000CF0101979F938F930E9446300F900F905A
:102470000F900F900F900F90DFCF40E150E060E0A1
:1024800070E0C8010E94CF2D0FB6F8947EBE0FBE3B
:102490006DBEDF91CF911F910F91FF90EF90DF9074
:1024A000CF90BF90AF909F908F907F906F90089546
:1024B000AF92BF92CF92DF92EF92FF920F931F9352
:1024C000CF93DF93CDB7DEB7A0970FB6F894DEBFFA
:1024D0000FBECDBF8C017B014AE050E060E070E0B0
:1024E000C7010E94CF2D6B015B0121E0A21AB10848
:1024F00083E0A816B104C0F560E977E0F801808DAB
:10250000918D0E942F24B501660F771FFB01EA5BB6
:10251000FE4F60817181F801808D918D0E941B2496
:1025200065EB73E0F801808D918D0E941B24EAEB2E
:10253000F7E065917491CE0101960E94EE2E4AE07B
:1025400050E060E070E0C7010E94CF2D6093FE0470
:1025500040E250E06AE971E086EC94E00E94F52EDA
:1025600082EB94E00E94F22565EB73E0F801808D28
:10257000918D0E941B24CD2841F0FDE0EF16F1045F
:1025800021F02AE0E216F10421F4C8010E94951816
:1025900003C0C8010E94EB18A0960FB6F894DEBFE6
:1025A0000FBECDBFDF91CF911F910F91FF90EF90A4
:1025B000DF90CF90BF90AF900895CF92DF92EF92CF
:1025C000FF920F931F93CF93DF93CDB7DEB7E097C2
:1025D0000FB6F894DEBF0FBECDBF7C016B0182EB5E
:1025E00094E00E943826892B31F064E777E08BEE87
:1025F00093E00E9453244AE050E060E070E0C6019E
:102600000E94CF2D87010F5B1F4FF80171836083FC
:1026100082EB94E00E943826892B31F064E477E065
:102620008BEE93E00E942F2482EB94E00E943826E8
:10263000892B39F0F801608171818BEE93E00E9463
:102640004318F80160817181CB0101970E9760F505
:102650009E012F5D3F4FAE014F5F5F4F82EB94E0D5
:102660000E94BC0FBE016F5F7F4FF701808D918D7F
:102670000E942D2461E477E0F701808D918D0E9406
:102680002F24BE016F5D7F4FF701808D918D0E94D9
:102690001B242BE03CE040E050E000E065E772E006
:1026A000C7010E9455180FC0F6018081803321F0C8
:1026B0008D3011F08A3021F4C7010E94951803C0B3
:1026C000C7010E949719E0960FB6F894DEBF0FBEBF
:1026D000CDBFDF91CF911F910F91FF90EF90DF90D1
:1026E000CF900895CF92DF92EF92FF920F931F93B6
:1026F000CF93DF931F92CDB7DEB77C016B0182EBE6
:1027000094E00E943826892B31F060E277E08BEE6E
:1027100093E00E942F2482EB94E00E943826892BBC
:1027200029F0B6018BEE93E00E941B24D6018C9118
:10273000898382EB94E00E943826892B31F069E589
:1027400076E08BEE93E00E942F2482EB94E00E94CF
:102750003826892B41F06981062E000C770B8BEE11
:1027600093E00E9443188981805387010F5B1F4FBC
:102770008A3030F08FEF9FEFF8019183808315C08E
:102780004AE050E060E070E0CE0101960E94CF2D5B
:102790006F3F7F4F79F34AE050E060E070E0C601A0
:1027A0000E94CF2DD8016D937C9382EB94E00E9420
:1027B0003826892B31F06CEF76E08BEE93E00E94A7
:1027C0002F2482EB94E00E943826892B39F0F801FF
:1027D000608171818BEE93E00E944318D801ED91E6
:1027E000FC91E930F10508F092C0E05BFF4F0C94DA
:1027F000D82F40E050E0BA01C7010E9408178AC0F4
:1028000020E030E0A90160E070E029C082EB94E0B4
:102810000E943826892B31F06DE776E08BEE93E04D
:102820000E94532426EE3DE040E050E001E062E9E2
:1028300072E0C7010E9455186DC082EB94E00E94BF
:102840003826892B31F060E976E08BEE93E00E9428
:10285000532426E73DE040E050E068EC72E0C70119
:102860000E94C81957C082EB94E00E943826892B39
:1028700031F066EA76E08BEE93E00E9453242AE47E
:102880003DE040E050E062EE72E0E9CFC7010E9417
:10289000971940C082EB94E00E943826892B31F0D2
:1028A0006EEC76E08BEE93E00E94532485EB93E090
:1028B0000E9479078C0160EC76E0F701808D918DA4
:1028C0000E942F24B801D70158968D919C91599759
:1028D0000E944318F701808D918D0E941724C70133
:1028E0000E947A1817C0C7010E94EB1813C082EB30
:1028F00094E00E943826892B31F069EE76E08BEE69
:1029000093E00E945324E0E0F0E0099503C0C70182
:102910000E9495180F90DF91CF911F910F91FF901A
:10292000EF90DF90CF9008953F924F925F926F9219
:102930007F928F929F92AF92BF92CF92DF92EF924F
:10294000FF920F931F93CF93DF93CDB7DEB7C0569F
:10295000D1090FB6F894DEBF0FBECDBF2B0160EDDD
:1029600077E0C2010E942F2482EB94E00E94810B49
:10297000AC0160E070E020E1C2010E94CE2368EC6F
:1029800077E0C2010E942F242AE04EE550E060E08B
:1029900070E0C2010E94CE23C2010E94172401E010
:1029A00010E08EE2382E3E0183E0680E711C6E014D
:1029B00091E5C90ED11C7E01E1E3EE0EF11C99EF09
:1029C000892E92E0992ECE0101965C011A8219821D
:1029D000F301832D11928A95E9F79601A701B801B9
:1029E00082EB94E00E94BC0FDF92CF92FF92EF92B5
:1029F0001F930F939F928F92BF92AF920E94463087
:102A0000B501C2010E941B240F5F1F4F0FB6F8943F
:102A1000DEBF0FBECDBF0F301105C1F6C05ADF4F6C
:102A20000FB6F894DEBF0FBECDBFDF91CF911F91DF
:102A30000F91FF90EF90DF90CF90BF90AF909F905D
:102A40008F907F906F905F904F903F900895CF93BD
:102A5000DF93EC0140E150E061EA71E004960E94EE
:102A6000F52E80E293E0998388838EE190E0A0E0E8
:102A7000B0E08CAB9DABAEABBFAB88EE93E0A0E01B
:102A8000B0E088AF99AFAAAFBBAF86E990E0A0E015
:102A9000B0E08CAF9DAFAEAFBFAFFE01E05CFF4FCB
:102AA0008FE090E0A0E0B0E080839183A283B383C5
:102AB00034968CE390E0A0E0B0E080839183A28321
:102AC000B383349681E090E09183808332961182C3
:102AD000108232961082319680E091EEA0E0B0E054
:102AE00080839183A283B383349680E895E2A0E04B
:102AF000B0E080839183A283B383349680839183F3
:102B0000A283B383349680EF9AE0918380833296D8
:102B100087E090E0918380833296108240E250E01B
:102B200062E472E0CE014496DF91CF910C94F52ED1
:102B3000DC0156961C92FC01369620E1DF011D92C5
:102B40002A95E9F708950F93CF93DF93EC018AE379
:102B500091E0998388836A834B832C830D83FE01E4
:102B6000369680E1DF011D928A95E9F71E8A0E9460
:102B700079266F8B788F898F9A8F1B8E1C8E1D8E76
:102B80001E8E1F8E18A219A21AA21BA21CA21DA281
:102B90001EA21FA218A619A61AA61BA61CA61DA631
:102BA0001EA61FA618AA19AA1AAA1BAA1CAA1DAA01
:102BB0001EAA1FAA18AE19AE1AAE1BAE1CAE1DAED1
:102BC0001EAEDF91CF910F910895CF92DF92EF92D9
:102BD000FF92CF936B017C01C42F0E94540788237E
:102BE00099F02AE0B701A601809110059091110596
:102BF0000E94CE23CC23E1F065EB73E080911005B9
:102C0000909111050E941B242AE0B701A6018BEECA
:102C100093E00E94CE23CC23B9F065EB73E08BEEFA
:102C200093E0CF91FF90EF90DF90CF900C941B2416
:102C30002AE0B701A6018BEE93E0CF91FF90EF90D1
:102C4000DF90CF900C94CE23CF91FF90EF90DF9048
:102C5000CF9008950F93CF93DF93EC0101E02AE02A
:102C600043E06EE00E94A31582E491E0998388839B
:102C700060E08BE997E00E94D50B61E083E592E08C
:102C8000DF91CF910F910C949F0BFC0141155105E1
:102C900011F460FF11C0268937892F5F3F4F378BB2
:102CA000268B220F331F220F331FE20FF31F4283A5
:102CB000538364837583089561E087E093E00C9407
:102CC0009F0B40918A0450918B0410928B041092B8
:102CD0008A04E8E8F4E062EB74E080E090E02081B0
:102CE00030E0322F2227A1812A2B82279327329688
:102CF0006E177F07A1F750938B0440938A040895C1
:102D0000833081F028F4813099F08230A1F0089569
:102D10008730A9F08830B9F08430D1F480918000F8
:102D20008F7D03C0809180008F778093800008950D
:102D300084B58F7702C084B58F7D84BD089580915E
:102D4000B0008F7703C08091B0008F7D8093B0007A
:102D50000895CF92DF92EF92FF921F93CF93DF936C
:102D6000EC016A017B01122F82EB94E00E9438266D
:102D7000892B31F06EEB79E08BEE93E00E945324C7
:102D8000E881F9810190F081E02DB701A601CE0123
:102D90000995E881F9810190F081E02D4CE955E039
:102DA00060E070E0CE01099582EB94E00E94382645
:102DB000892B31F066EA79E08BEE93E00E94532490
:102DC000888D998DDC01ED91FC910084F185E02DD9
:102DD0000995892B51F0888D998DDC01ED91FC913D
:102DE0000284F385E02D0995EBCFCE010E94D71D1B
:102DF000112331F0CD5BDF4F81E090E09983888330
:102E0000DF91CF911F91FF90EF90DF90CF900895C9
:102E1000CF92DF92EF92FF92CF93DF93EC016A01A2
:102E20007B018BA19CA1ADA1BEA184179507A6072C
:102E3000B70751F060E08FE899E00E94D50B41E0C0
:102E4000C701B6010E94E515CBA2DCA2EDA2FEA24D
:102E500081E090E09093E2038093E1030E94792661
:102E60006F8F78A389A39AA3DF91CF91FF90EF9002
:102E7000DF90CF9008950E94611620918A043091CE
:102E80008B048217930739F49C012150310981E0AA
:102E90002E3F3F4F08F080E00895CF93DF93EC0181
:102EA0009A01AB011B8E1A8E198E188E1F8A1E8AEC
:102EB00060E079E08DE390E00E94B92FF9012430C1
:102EC000310518F0C901039702C081E090E09D8FA1
:102ED0008C8F6C85663108F06AC0C901969587951C
:102EE0008431910510F0439702C081E090E09F8B00
:102EF0008E8B369718F0C901059702C081E090E0EB
:102F0000998F888FC901880F991F280F391F36950F
:102F10002795369527952D30310518F02C5031091D
:102F200002C021E030E03B8F2A8F3091680068308A
:102F300058F021E06E3008F420E091E0892F01C0C4
:102F4000880F2A95EAF701C084E0832B80936800FC
:102F50009C85983038F09E3040F0963148F020E063
:102F600030E008C02DE630E005C02BE630E002C0BE
:102F70002CE630E03C8B2B8B983030F481E001C0A4
:102F8000880F9A95EAF70EC0292F30E09E3018F48A
:102F90002850310902C02E50310981E001C0880F4C
:102FA0002A95EAF78D8B8C8D9D8D0197F1F7CE01D7
:102FB000DF91CF910C943725FF920F931F93CF93FE
:102FC000DF93EC0182EB94E00E943826892B31F0EC
:102FD00067E273E08BEE93E00E942D24A79618E140
:102FE000FC2E0D2F82EB94E00E943826892B41F0B5
:102FF0006881062E000C770B8BEE93E00E94C71CB5
:1030000082EB94E00E943826892B31F064E372E071
:103010008BEE93E00E942D2489918A3031F08D301F
:1030200021F01150F9F6C0E001C0C1E082EB94E05C
:103030000E943826892B31F065EB73E08BEE93E02C
:103040000E941B24CC23C1F082EB94E00E9438261E
:10305000892B31F068E279E08BEE93E00E942F2417
:1030600082EB94E00E943826892B31F06F2D702F6F
:103070008BEE93E00E941B248C2FDF91CF911F9148
:103080000F91FF9008950F931F93CF93DF93EC015F
:103090000E94C71C8C01CE010E941724800F911F33
:1030A000DF91CF911F910F910895CF92DF92EF9210
:1030B000FF920F93CF93DF93EC0169017A01FB013B
:1030C0008081882321F0888D998D0E942D24202FC6
:1030D000B701A601CE010E94A91665E279E0888DAC
:1030E000998DDF91CF910F91FF90EF90DF90CF906E
:1030F0000C942F240F93CF93DF93EC01E881F98197
:103100000084F185E02D40E050E0BA01099522E706
:1031100033E140E050E000E06CE373E0CE010E9458
:103120005518DF91CF910F910895CF93DF93EC0164
:1031300082EB94E00E943826892B31F064E179E03B
:103140008BEE93E00E9453246FE079E0888D998D97
:103150000E94532467E079E0888D998D0E94532462
:103160006AEF78E0888D998D0E9453246FEE78E0A5
:10317000888D998D0E94532461EE78E0888D998D19
:103180000E9453246EEC78E0888D998D0E94532420
:1031900062EC78E0888D998D0E9453246EEA78E085
:1031A000888D998D0E9453246EE978E0888D998DE1
:1031B0000E94532463E978E0888D998D0E945324FE
:1031C00065EB73E0888D998D0E941B24CE01DF9101
:1031D000CF910C947A182F923F924F925F926F92F8
:1031E0007F928F929F92AF92BF92CF92DF92EF9297
:1031F000FF920F931F93CF93DF93CDB7DEB76897FE
:103200000FB6F894DEBF0FBECDBF5C0182EB94E039
:103210000E943826892B31F06BE778E08BEE93E043
:103220000E945324F501E08CF18C61E778E0C7013E
:103230000E942F2463E070E0C7010E94C71C6FE664
:1032400078E0C7010E94532486E4C82E81E0D82E7E
:1032500001E010E096E1292E2E01F3E04F0E511C03
:1032600021E5622E23E0722E38E1332ECE01019645
:103270004C011A821982F201822D11928A95E9F786
:10328000F60120813181F2E0CF0ED11C8091FE0445
:1032900090E08017910719F48FE493E002C088E969
:1032A00091E03F932F939F938F931F930F937F9260
:1032B0006F921F923F929F928F920E941630B4019C
:1032C000C7010E941B240F5F1F4F0FB6F894DEBF8B
:1032D0000FBECDBF0430110561F665EB73E0F5015B
:1032E000808D918D0E941B2428E532E140E050E062
:1032F00000E06CE573E0C5010E94551868960FB6B2
:10330000F894DEBF0FBECDBFDF91CF911F910F911B
:10331000FF90EF90DF90CF90BF90AF909F908F90F5
:103320007F906F905F904F903F902F9008950F93F4
:10333000CF93DF93EC0182EB94E00E943826892B37
:1033400031F06AE578E08BEE93E00E945324FE01B1
:10335000EF5BFF4F8FEF9FEF91838083688D798DB7
:1033600082EB94E00E94941465EB73E0888D998D54
:103370000E941B242DED32E140E050E000E06CE6BD
:1033800073E0CE010E945518DF91CF910F910895FF
:103390008F929F92AF92BF92CF92DF92EF92FF9265
:1033A0000F931F93CF93DF93EC016B0149015A01F7
:1033B00082EB94E00E943826892B31F065E478E0B6
:1033C0008BEE93E00E94532466E378E0888D998D1C
:1033D0000E942F2440918A0450918B0460E070E099
:1033E00020E1888D998D0E94CE236EE278E0888D51
:1033F000998D0E942F24088D198D2AE04AE250E011
:1034000060E070E0C8010E94CE23C8010E9417242A
:1034100088E8E82E84E0F82E01E010E0F7018489C6
:103420009589A689B789892B8A2B8B2BD9F0B8016E
:10343000888D998D0E94C71C6BE278E0888D998DEC
:103440000E942F24F70144895589668977892AE0EB
:10345000888D998D0E94CE2365EB73E0888D998DC0
:103460000E941B240F5F1F4FF4E0EF0EF11C06308B
:103470001105A1F665EB73E0888D998D0E941B24E0
:1034800081149104A1F000E0A5019401B601CE01E0
:103490000E945518DF91CF911F910F91FF90EF90EF
:1034A000DF90CF90BF90AF909F908F900895CE0106
:1034B000DF91CF911F910F91FF90EF90DF90CF9010
:1034C000BF90AF909F908F900C947A18EF92FF92DC
:1034D0000F931F93CF93DF9300D0CDB7DEB788E86B
:1034E00094E00E94682560E08EE098E00E94D50B91
:1034F0000E9461160E94F71D60E081E098E00E9442
:10350000D50B80918804909189040E94CD1C0CE910
:1035100014E080EBE82E84E0F82EF80161917191BF
:10352000819191918F0140E00E94E51560E084E374
:1035300092E00E949F0BE016F10679F761E085EBBF
:1035400093E00E949F0B0E943B17811120C00E94B4
:10355000611690938B0480938A04809188049091E3
:10356000890408E814E09C01285834407901C70117
:10357000800F911FF80161918F019A838983CE0199
:1035800001960E94680BF4E0023B1F0781F70F9041
:103590000F90DF91CF911F910F91FF90EF900895C1
:1035A000CF93DF93282F30E0F901E351F84F849156
:1035B000F901EA59F64FD491F901EE5AF64FC49148
:1035C000CC2391F081110E948016EC2FF0E0EE0FD9
:1035D000FF1FE25CF64FA591B491EC91ED2381E0E1
:1035E00090E021F480E002C080E090E0DF91CF9194
:1035F00008950F931F93CF93DF93EC0140910D0536
:1036000050910E05052E000C660B770B0E940817D3
:10361000CE010E94D71D8E01045E1F4F6DE172E046
:10362000C8010E940D30892B41F164E971E0C801A5
:103630000E940D30892B49F58AE00E94D01A892B0F
:10364000E1F46AE779E0888D998D0E942F246AEA77
:1036500071E0888D998D0E942D2467E971E0888D35
:10366000998D0E942D2465E873E0888D998D0E94C4
:103670001B24888D998D0E94172442E753E160E056
:1036800070E020E0CE010E94A916DF91CF911F913A
:103690000F9108951F93CF93DF93282F30E0F90106
:1036A000E351F84F8491F901EA59F64FD491F901A9
:1036B000EE5AF64FC491CC23C1F0162F81110E940F
:1036C0008016EC2FF0E0EE0FFF1FE85BF64FA591A0
:1036D000B4919FB7F894111104C08C91D095D82360
:1036E00002C0EC91DE2BDC939FBFDF91CF911F9145
:1036F0000895CF93DF9390E0FC01EA59F64F2491AF
:10370000FC01EE5AF64F8491882361F190E0880F16
:10371000991FFC01ED51F84FC591D491FC01E85B74
:10372000F64FA591B491611109C09FB7F8948881B3
:10373000209582238883EC912E230BC0623061F4A4
:103740009FB7F8948881322F309583238883EC913A
:103750002E2B2C939FBF06C08FB7F894E8812E2B99
:1037600028838FBFDF91CF9108950F931F93CF933D
:10377000DF93EC01162F042F1B821A8288EE93E050
:10378000A0E0B0E08C839D83AE83BF8380E591E0B1
:10379000998388831F8A1E8A198E188E1B8E1A8E13
:1037A0001D8E1C8E6E8D6E7F6D7F6E8F6695617027
:1037B00081E06827842F0E944A1B61E0802F0E94CD
:1037C000791B802F90E0FC01EA59F64FE491E88BD9
:1037D000FC01EE5AF64FE491F0E0EE0FFF1FE85BBC
:1037E000F64F859194919A8B898B60E0812F0E948E
:1037F000791B8E8D81FD04C061E0812F0E944A1BE0
:103800001C87812F90E0FC01EA59F64FE491ED8787
:10381000FC01EE5AF64FE491F0E0EE0FFF1FE25C80
:10382000F64F859194919F878E87DF91CF911F915D
:103830000F910895EF92FF920F931F93CF93DF9311
:10384000EC018A017901798368831E821D821886C2
:103850001F821A8619861C861B860E9479266D8710
:103860007E878F87988B198A1A8A1B8A1C8AFE8A00
:10387000ED8A188E1F8AFE01799684E1DF011D9280
:103880008A95E9F743E050E0B801CE0102960E9424
:10389000F52E61E088810E94791B60E08881DF91CC
:1038A000CF911F910F91FF90EF900C944A1B8F9234
:1038B0009F92AF92BF92CF92DF92EF92FF926B01F5
:1038C0007C010E9454264B015C01C114D104E10427
:1038D000F104F1F00E945426DC01CB01881999090A
:1038E000AA09BB09883E9340A105B10570F321E008
:1038F000C21AD108E108F10888EE880E83E0981E0C
:10390000A11CB11CC114D104E104F10419F7DDCFED
:10391000FF90EF90DF90CF90BF90AF909F908F90EF
:103920000895CF92DF92EF92FF920F931F93CF9360
:10393000DF9377FF21C06A017B01EC01E881F98107
:103940000190F081E02D6DE209958C014427552707
:10395000BA014C195D096E097F092AE0CE010E9467
:10396000CE23800F911FDF91CF911F910F91FF9078
:10397000EF90DF90CF9008952AE0DF91CF911F91D3
:103980000F91FF90EF90DF90CF900C94CE23AB017E
:10399000770F660B770B0C94911CCF93DF93EC01A0
:1039A0000E945407882379F0BE0180911005909100
:1039B00011050E94C71C65EB73E080911005909182
:1039C00011050E941B24BE018BEE93E00E94C71CD0
:1039D00065EB73E08BEE93E0DF91CF910C941B24A9
:1039E000CF92DF92EF92FF920F931F93CF93DF93CB
:1039F000EC016B017A018B859C858E01075E1F4F60
:103A000086179707A1F44AE050E0B801C7010E9469
:103A1000F72F892B61F1B701CE010E947708892B1E
:103A200031F4B801CE010E947708892B01F11E8282
:103A30001D8218861F821A861986DC86CB86D701DE
:103A4000F801CE018D962D913D9121933193E81788
:103A5000F907C9F760E070E0CE01DF91CF911F91C7
:103A60000F91FF90EF90DF90CF900C944108DF9181
:103A7000CF911F910F91FF90EF90DF90CF9008951D
:103A8000CF93DF93CDB7DEB764970FB6F894DEBF60
:103A90000FBECDBFAE014F5F5F4F24E1FA0111921F
:103AA0002A95E9F724EF31E03A8329833C832B837D
:103AB00063E070E00E94F01C64960FB6F894DEBFDD
:103AC0000FBECDBFDF91CF910895CF92DF92EF92DD
:103AD000FF926B017C01E091FB03F091FC0382E01B
:103AE0008083C11481EED806E104F104B1F060E0F6
:103AF00079E08DE390E0A70196010E94322FDA0170
:103B0000C9010197A109B109B695A7959795879520
:103B10009C01211580E13807B8F0E091FB03F0919A
:103B2000FC03108260E874E88EE190E0A701960142
:103B30000E94322FDA01C9010197A109B109B69596
:103B4000A795979587959C01E091F703F091F8036D
:103B50003083E091F903F091FA032083109203047B
:103B6000E091FF03F091000486E08083E091FD0383
:103B7000F091FE03808180618083E091FD03F091EC
:103B8000FE03808188608083E091FD03F091FE0355
:103B9000808180688083E091FD03F091FE03808145
:103BA0008F7D8083FF90EF90DF90CF900895CF932B
:103BB000DF93EC0182EB94E00E943826892B31F0F0
:103BC00066E37AE08BEE93E00E945324FE01B79601
:103BD00088E1DF011D928A95E9F7789611821082BB
:103BE000CD5BDF4F19821882DF91CF910895CF927C
:103BF000DF92EF92FF926C010E945407E12CF12CAE
:103C0000882349F020E1B701A60180911005909129
:103C100011050E94CE2320E1B701A6018BEE93E0AF
:103C2000FF90EF90DF90CF900C94CE234F925F9255
:103C30006F927F928F929F92AF92BF92CF92DF92BC
:103C4000EF92FF920F931F93CF93DF93CDB7DEB721
:103C500068970FB6F894DEBF0FBECDBF8C015C0134
:103C60002FE3A20EB11CD5018D919C910E943725A6
:103C7000F501208131818091E9039091EA032817B1
:103C8000390739F062E070E080E090E00E94571C54
:103C9000EFCF64E170E080E090E00E94571C0E944A
:103CA00079266D8B7E8B8F8B988FD80157966D936D
:103CB0007D938D939C935A97C090EE04D090EF041F
:103CC000E090F004F090F1045F964D905D906D905F
:103CD0007C9092974C0C5D1C6E1C7F1CF80143AAD3
:103CE00054AA65AA76AA23A134A145A156A1F091B0
:103CF000F204E091F3049090F4048090F50421150F
:103D000031054105510521F42F2F3E2F492D582D06
:103D1000A8EEB3E00E94542F460E571E681E791E6F
:103D2000D801D7964D925D926D927C92DA97409031
:103D3000EA045090EB046090EC047090ED04A8EE5F
:103D4000B3E02F2F3E2F492D582D0E94542FC40C25
:103D5000D51CE61CF71CDC01CB018C0D9D1DAE1D96
:103D6000BF1DF80187A790ABA1ABB2AB838D948D3B
:103D7000A58DB68D2D893E894F89588D281B390B0D
:103D80004A0B5B0B421653066406750608F0D8C151
:103D9000D5018D919C91DC01ED91FC910084F18520
:103DA000E02D0995892B09F494C0F501808191815A
:103DB000DC01ED91FC910084F185E02D0995892BC2
:103DC00009F4BEC1F801F688FFE0FF1528F0D8011C
:103DD00012968C91F81620F0C8010E949815E5CF34
:103DE000F50180819181DC01ED91FC910284F385E4
:103DF000E02D0995F801EF0DF11D8683F801868904
:103E000092819150811104C02681223029F77AC114
:103E1000891307C0F801E80FF11D96819330E1F690
:103E20000BC09817C8F28031B8F6891738F48F5F45
:103E3000D80156968C93B9CF803170F6D801ED91A8
:103E4000FC910190F081E02DB8016A5F7F4FC801BD
:103E500009956B017C01672B682B692B21F460E0CD
:103E600088E99AE05EC1E091E303F091E4031682F1
:103E7000158260E080810E944A1BE091E703F09187
:103E8000E803168215821086178212861186AE010B
:103E90004F5F5F4F84E1DA011D928A95E9F786E46E
:103EA00090E09A83898361E070E0CF010E94F01C6A
:103EB000ECE9F4E081919191A191B191C816D906F4
:103EC000EA06FB0609F421C1B4E0E03BFB0791F7E9
:103ED000C6CFD8015796CD90DD90ED90FC905A97C3
:103EE0005B968D909D90AD90BC905E9726013701BA
:103EF000481859086A087B0893962D913D914D9179
:103F00005C919697211531054105510541F42091A9
:103F1000F2043091F3044091F4045091F504A8EEBA
:103F2000B3E00E94542F641575058605970528F0A7
:103F300089288A288B2809F003C1F80187A990AD48
:103F4000A1ADB2ADC816D906EA06FB0650F4F801D9
:103F5000878D90A1A1A1B2A1892B8A2B8B2B09F06F
:103F6000C2C060E08BE79AE00E94D50BD8015B9657
:103F7000CD90DD90ED90FC905E97C114D104E104EA
:103F8000F104D9F057968D919D910D90BC91A02D83
:103F9000BC01CD016C197D098E099F0928EE33E023
:103FA00040E050E00E94322FCA01B90140E00E9477
:103FB000E51560E085E79AE003C060E08FE69AE0EF
:103FC0000E94D50B60E085E69AE00E94D50BF801CF
:103FD000C78CD0A0E1A0F2A0C114D104E104F10487
:103FE000C9F08789908DA18DB28DBC01CD016C196E
:103FF0007D098E099F0928EE33E040E050E00E94E1
:10400000322FCA01B90140E00E94E51560E08FE55A
:104010009AE003C060E089E59AE00E94D50B60E079
:104020008FE49AE00E94D50B0E9479266B017C01F7
:10403000198228EE33E040E050E00E94322F8CE3FA
:10404000882E912CA12CB12CCA01B901A501940193
:104050000E94322F9F938F937F936F93C701B60176
:1040600020E63AEE40E050E00E94322FCA01B9014A
:10407000A50194010E94322F9F938F937F936F939A
:10408000C701B60120E83EEE46E350E00E94322F21
:104090005F934F933F932F938BE993E09F938F937D
:1040A0009E012F5F3F4F79013F932F930E9446302F
:1040B00061E0C7010E949F0BD80115966C9181E0C9
:1040C000682785E00E944A1BF8018789908DA18DA1
:1040D000B28D878F90A3A1A3B2A30FB6F894DEBFD1
:1040E0000FBECDBF2DC0F80183A994A9A5A9B6A97B
:1040F000C816D906EA06FB0618F1658185E00E941C
:104100004A1B1EC0911193CE85CEF8018789908DF0
:10411000A18DB28D838F948FA58FB68F60E086EBD3
:104120009AE00E94D50B41E0C701B6010E94E51557
:10413000F801C3AED4AEE5AEF6AEC8010E94981544
:1041400068960FB6F894DEBF0FBECDBFDF91CF915A
:104150001F910F91FF90EF90DF90CF90BF90AF90A5
:104160009F908F907F906F905F904F900895CF9227
:10417000DF92EF92FF920F931F93CF93DF93EC01A7
:1041800082EB94E00E943826892B31F064E27AE0D9
:104190008BEE93E00E942F2482EB94E00E9438265D
:1041A000892B39F0BE01645E7F4F8BEE93E00E9455
:1041B0001B240091E1031091E20301301105A9F4E1
:1041C0004BA15CA16DA17EA18091F6049091F704B2
:1041D000A091F804B091F904481759076A077B07C2
:1041E00021F460E08DE00E944A1B0E947926CF8C6A
:1041F000D8A0E9A0FAA06C197D098E099F0928EEC4
:1042000033E040E050E00E94322F8BA19CA1ADA191
:10421000BEA182179307A407B50718F0012B09F078
:1042200046C082EB94E00E943826892B31F064E08E
:104230007AE08BEE93E00E945324CE010E94D71DBA
:10424000E881F9810084F185E02D40E050E0BA0179
:10425000CE0109958091E1039091E203892B39F118
:1042600060E0CE014C960E949F0B61E08DEE99E0DC
:104270000E94D50B61E085EB93E00E949F0B61E00B
:104280008BED99E00E94D50B61E085EB93E00E94F5
:104290009F0B1092E2031092E10382EB94E00E94E4
:1042A0003826892B21F087EA93E00E947907E8817C
:1042B000F9810680F781E02D40E060E070E0CE01FA
:1042C000099582EB94E00E943826892B71F066E113
:1042D0007AE08BEE93E0DF91CF911F910F91FF90E9
:1042E000EF90DF90CF900C945324DF91CF911F91EA
:1042F0000F91FF90EF90DF90CF900895CF92DF92D3
:10430000EF92FF920F931F93CF93DF936C017A018B
:104310008B01C0E0D0E0CE15DF0581F0D8016D91B2
:104320008D01D601ED91FC910190F081E02DC60147
:104330000995892B11F02196EECF7E01C701DF91FF
:10434000CF911F910F91FF90EF90DF90CF90089544
:10435000FC01538D448D252F30E0842F90E0821B8B
:10436000930B541710F0CF96089501970895FC0110
:10437000918D828D981761F0828DDF01A80FB11D9C
:104380005D968C91928D9F5F9F73928F90E00895C0
:104390008FEF9FEF0895FC01918D828D981731F07A
:1043A000828DE80FF11D858D90E008958FEF9FEFCE
:1043B0000895FC01918D228D892F90E0805C9F4FA4
:1043C000821B91098F73992708958BEE93E00E94C9
:1043D000D92121E0892B09F420E0822F0895FC01E6
:1043E000848DDF01A80FB11DA35ABF4F2C91848D7E
:1043F00090E001968F739927848FA689B7892C93B3
:10440000A089B1898C91837080648C93938D848D05
:10441000981306C00288F389E02D80818F7D808308
:104420000895EF92FF920F931F93CF93DF93EC01C8
:1044300081E0888F9B8D8C8D981305C0E889F98960
:10444000808185FD26C0F62E0B8D10E00F5F1F4F7B
:104450000F731127E02E8C8DE8120CC00FB607FCED
:10446000FACFE889F989808185FFF5CFCE010E94D6
:10447000EF21F1CF8B8DFE01E80FF11DE35AFF4FC5
:10448000F0829FB7F8940B8FEA89FB898081806264
:104490000AC09FB7F894EE89FF896083E889F9899B
:1044A00080818370806480839FBF81E090E0DF9192
:1044B000CF911F910F91FF90EF900895CF93DF93CD
:1044C000EC01888D8823C9F0EA89FB89808185FD0C
:1044D00005C0A889B9898C9186FD0FC00FB607FC6D
:1044E000F5CF808185FFF2CFA889B9898C9185FFAE
:1044F000EDCFCE010E94EF21E7CFDF91CF9108955C
:1045000080E090E0892B29F00E94E52181110C9434
:10451000000008952091E9033091EA032817390734
:1045200071F490915A0580915905981741F0E091E6
:104530005A05F0E0E75EFA4F808190E008958FEF32
:104540009FEF089508951F93CF93DF93DC015C964E
:104550008D919C915D97009739F421E030E013969E
:104560003C932E9312973BC05196ED91FC9152973C
:1045700050962C915097322F30951FB75E964C91E4
:104580005E97742F727041FD6095F8944081772397
:1045900011F0422B01C043234083EC012197F1F736
:1045A00048E0508160FF02C0522B01C0532350836A
:1045B000EC012197F1F76695415099F780817723B7
:1045C00019F08323808302C0282B20831FBF5C96B1
:1045D0008D919C915D970197F1F781E090E0DF91DB
:1045E000CF911F9108952091E9033091EA03281794
:1045F000390771F48091590520915A0590E0805C4B
:104600009F4F821B910960E470E00E94A52F0895DE
:1046100080E090E008952091E9033091EA032817A3
:104620003907B9F490915A0580915905981789F086
:10463000E0915A05F0E0E75EFA4F808120915A053B
:1046400030E02F5F3F4F2F73332720935A0590E0C0
:1046500008958FEF9FEF0895089580E090E008950A
:104660000E94F22F6115710579F0FB010190002085
:10467000E9F73197AF01461B570BDC01ED91FC9137
:104680000280F381E02D099480E090E008959091FC
:104690000001891324C0E1EEFAE0E4919FEF9093CA
:1046A0000001E130B9F098F0E230C9F49091700067
:1046B0009D7F9093700091E09093B0009091B10035
:1046C000987F94609093B1001092B30008C010924C
:1046D0006E0005C090916F009D7F90936F0060E029
:1046E0000C944A1B1F920F920FB60F9211242F9316
:1046F0003F934F935F936F937F938F939F93AF936A
:10470000BF93EF93FF938091150590911605A091AB
:104710001705B0911805892B8A2B8B2B51F190919D
:104720001405E0911205F09113058081892780839B
:104730008091150590911605A0911705B091180567
:10474000181619061A061B06C4F4809115059091D7
:104750001605A0911705B09118050197A109B10997
:104760008093150590931605A0931705B09318052F
:1047700004C0809100010E944723FF91EF91BF91F7
:10478000AF919F918F917F916F915F914F913F91E9
:104790002F910F900FBE0F901F9018958F929F92A0
:1047A000AF92BF92EF92FF920F931F93CF93DF933D
:1047B000CDB7DEB7A1970FB6F894DEBF0FBECDBF61
:1047C0007C01FA01CB0119A2223008F42AE08E0103
:1047D0000F5D1F4F822E912CA12CB12CBF01A50182
:1047E00094010E94322FF901CA01015011096A3067
:1047F00014F4605D01C0695CD8016C93232B242BF9
:10480000252B61F7B801C7010E943223A1960FB68C
:10481000F894DEBF0FBECDBFDF91CF911F910F91F6
:10482000FF90EF90BF90AF909F908F90089563EBB3
:1048300073E00C9432230F931F93CF93DF93EC011B
:104840000E9432238C01CE010E941724800F911FF9
:10485000DF91CF911F910F9108950C943223EF9225
:10486000FF920F931F93CF93DF938C017B01C0E0E6
:10487000D0E0F701EC0FFD1F6491662361F0D801D1
:10488000ED91FC910190F081E02DC8010995892BF3
:1048900011F02196EECFCE01DF91CF911F910F91B4
:1048A000FF90EF9008950F931F93CF93DF93EC0148
:1048B0000E942F248C01CE010E941724800F911F8B
:1048C000DF91CF911F910F9108951F920F920FB614
:1048D0000F9211242F933F934F935F936F937F9386
:1048E0008F939F93AF93BF93EF93FF938BEE93E0E0
:1048F0000E94EF21FF91EF91BF91AF919F918F9116
:104900007F916F915F914F913F912F910F900FBECB
:104910000F901F9018951F920F920FB60F921124AF
:104920002F938F939F93EF93FF93E091FB03F0916D
:10493000FC038081E0910104F091020482FD12C029
:104940009081809104048F5F8F73209105048217FA
:1049500051F0E0910404F0E0E551FC4F958F809315
:10496000040401C08081FF91EF919F918F912F915D
:104970000F900FBE0F901F9018951F920F920FB6B9
:104980000F9211242F933F934F935F936F937F93D5
:104990008F939F93AF93BF93EF93FF93E091E903BE
:1049A000F091EA03309709F451C0968DA685B7853A
:1049B000858591FF04C09C91892329F447C09C916F
:1049C000892309F043C0A389B4899C918589809586
:1049D00089238C93868997890197F1F7608D718D72
:1049E000A685B785558538E020E0CB010197F1F722
:1049F000822F90E095958795282F4C91452309F0BB
:104A00002068315091F7868D81FD20958091590560
:104A100090E001968F73992730915A05381749F025
:104A2000A0915905B0E0A75EBA4F2C938093590529
:104A300003C0868D8160868F828D938D0197F1F7FB
:104A4000A389B4899C918589892B8C93FF91EF91DF
:104A5000BF91AF919F918F917F916F915F914F9196
:104A60003F912F910F900FBE0F901F901895CF93ED
:104A7000DF93FC01828D938D892B31F1A091E903A5
:104A8000B091EA03EA17FB07F9F0109751F053963B
:104A9000CD91DC915497988155968C91809589237E
:104AA0008883868D8E7F868F1092590510925A05C5
:104AB000F093EA03E093E903A389B4899C91858983
:104AC000892B8C9381E001C080E0DF91CF91089524
:104AD000CF92DF92EF92FF9220E030E04FEF5FEF56
:104AE000D901AA0FBB1FAA0FBB1FA80FB91F54964D
:104AF000CD90DD90ED90FC905797C114D104E10466
:104B0000F10431F44F3F6FEF5607F1F4A9011CC0D7
:104B100021153105C9F04F3F6FEF5607A9F0FA0193
:104B20003596EE0FFF1FEE0FFF1FE80FF91FC08233
:104B3000D182E282F38254961D921D921D921C92A4
:104B400057979A014FEF5FEF2F5F3F4F25303105A9
:104B50003CF2FF90EF90DF90CF9008950F931F935A
:104B6000CF93DF93EC018C010C5F1F4F40E150E0CD
:104B700066EB73E0C8010E94F52E8CEB92E09983FE
:104B80008883FE01749684E1DF011D928A95E9F71E
:104B9000F9A7E8A78C8181110BC040E150E06BEBD5
:104BA00073E0C801DF91CF911F910F910C94F52E06
:104BB000DF91CF911F910F910895CF93DF93EC0177
:104BC0000E94810B2A813B818217930739F49C0153
:104BD0002150310981E02E3F3F4F08F080E0DF9106
:104BE000CF910895CF92DF92EF92FF920F931F9390
:104BF000CF93DF9300D0CDB7DEB78C010E94DD25C7
:104C0000811120C0C8010E94810BF8019383828327
:104C1000E080F1806801FEE5CF0ED11CE01AF10AB8
:104C2000C701800F911FF80161918F019A838983D9
:104C3000CE0101960E94680B0C151D0589F701E055
:104C400010E002C000E010E060E087EC9AE00E9413
:104C5000D50BC8010E94CD1CC8010F900F90DF91A9
:104C6000CF911F910F91FF90EF90DF90CF9008951B
:104C7000CF93DF93EC018BE00E94D01A892B79F05F
:104C80008091D20381110BC0C65BDF4F81E090E0C1
:104C9000288139812130310521F080E002C081E096
:104CA00090E0DF91CF9108953FB7F894809160052F
:104CB00090916105A0916205B091630526B5A89B0E
:104CC00005C02F3F19F00196A11DB11D3FBFBA2F9E
:104CD000A92F982F8827820F911DA11DB11DBC01FE
:104CE000CD0142E0660F771F881F991F4A95D1F7C3
:104CF00008952FB7F89460915C0570915D058091DF
:104D00005E0590915F052FBF08951F920F920FB619
:104D10000F9211242F933F938F939F93AF93BF9341
:104D200080915C0590915D05A0915E05B0915F0555
:104D300030915B0523E0230F2D3720F40196A11D50
:104D4000B11D05C026E8230F0296A11DB11D2093B9
:104D50005B0580935C0590935D05A0935E05B09321
:104D60005F058091600590916105A0916205B09109
:104D700063050196A11DB11D8093600590936105A7
:104D8000A0936205B0936305BF91AF919F918F91FE
:104D90003F912F910F900FBE0F901F901895CF93BA
:104DA000DF93CDB7DEB764970FB6F894DEBF0FBEC2
:104DB000CDBF789484B5826084BD84B5816084BDA4
:104DC00085B5826085BD85B5816085BD80916E00A9
:104DD000816080936E0010928100809181008260DA
:104DE0008093810080918100816080938100809117
:104DF00080008160809380008091B1008460809306
:104E0000B1008091B00081608093B00080917A0001
:104E1000846080937A0080917A00826080937A0027
:104E200080917A00816080937A0080917A00806816
:104E300080937A001092C10062E08AE00E94791BA0
:104E400062E08CE00E94791B62E08BE00E94791B9B
:104E500061E085E00E94791B61E08DE00E94791B92
:104E60008BE00E94D01A21E0892B09F020E02093EA
:104E7000D20360E071EE80E090E00E94651D4091F9
:104E80000305509104056091050570910605809118
:104E90001005909111050E944D176FE070E080E0C1
:104EA00090E00E94571C60E084E495E00E94D50BDE
:104EB00060E08AEA91E00E949F0B60E081E495E067
:104EC0000E94D50B61E088EB91E00E949F0B60E0AF
:104ED0008EE295E00E94D50B0091D2030E94540708
:104EE00010E0882379F0B8018091100590911105A8
:104EF0000E94C71C65EB73E080911005909111052D
:104F00000E941B24B8018BEE93E00E94C71C65EB46
:104F100073E08BEE93E00E941B2482EB94E00E94EE
:104F20003826892B31F061E075E08BEE93E00E942A
:104F3000532482EB94E00E943826892B21F08EECDA
:104F400091E00E9479078CE00E94D01A892B21F40D
:104F500061E086E993E021C062EBE62E64E0F62E84
:104F600000E213E0C8010E940C2FD7018D937D0150
:104F70000F5F1F4F0E37B3E01B07A1F780E293E0EE
:104F80009093B3048093B20482EB94E00E94DD25F9
:104F9000811105C061E081E093E00E94D50B82EBB6
:104FA00094E00E94DD25882309F4CCC38CE00E94A4
:104FB000D01A892B09F4C6C360E083E293E00E9413
:104FC000D50B02EB14E060E0C80144960E949F0BF1
:104FD00061E08EEE91E00E949F0B4091030550919D
:104FE000040560910505709106058091100590916A
:104FF00011050E944D178BEE93E00E945E22609196
:10500000FF047091000580910105909102050E94B6
:10501000651D6FE070E080E090E00E94571C60E04A
:105020008FEE94E00E94D50B60E086EC94E00E9445
:105030009F0B60E08BED94E00E94D50B82EB94E037
:105040000E94810B0E94F71D60E080ED94E00E94B9
:10505000D50B0E945407882399F02AE04EE550E0D2
:1050600060E070E080911005909111050E94CE23C0
:1050700065EB73E080911005909111050E941B244F
:105080002AE04EE550E060E070E08BEE93E00E9495
:10509000CE2365EB73E08BEE93E00E941B2460E06F
:1050A00082EA94E00E94D50BC090FF04D0900005E6
:1050B000E0900105F09002050E945407882381F0DA
:1050C000B701A60180911005909111050E94911CD5
:1050D00065EB73E080911005909111050E941B24EF
:1050E000B701A6018BEE93E00E94911C65EB73E083
:1050F0008BEE93E00E941B2461E085EB93E00E941D
:105100009F0B6BEE73E082EB94E00E94941465EBCE
:1051100073E08BEE93E00E941B240E9454078823C7
:1051200081F0609110057091110582EB94E00E946E
:10513000941465EB73E080911005909111050E9425
:105140001B2482EB94E00E943826892B21F080EF0B
:1051500091E00E9479078DE290E00E94AE2C8C01D4
:1051600020E030E044E052E068E070E00E941A1C69
:105170001093E4030093E3038DE290E00E94AE2CD1
:105180008C0120E030E047E052E067E070E00E94F0
:105190001A1C1093E6030093E5038DE290E00E9451
:1051A000AE2C8C0120E030E04AE052E066E070E096
:1051B0000E941A1C1093E8030093E7038DE290E02D
:1051C0000E94AE2C8C0120910B0530910C054DE016
:1051D00052E069E070E00E941A1C1093E003009313
:1051E000DF038FE190E00E94AE2C8C0144E164E08B
:1051F0000E94B51B1093D8030093D7038091FE043F
:105200008230D9F08330A9F581E490E00E94AE2C81
:105210007C0100E02AE043E06DE00E94A31583E1F9
:1052200091E0D7018D939C9360E082ED93E00E9422
:10523000D50B61E086E192E018C081E490E00E9425
:10524000AE2C7C0101E027E044E06AE00E94A31557
:105250008BE091E0F7019183808360E081EC93E043
:105260000E94D50B61E080E192E00E949F0B8701D4
:1052700008C081E490E00E94AE2C7C010E942A16B6
:1052800087011093D6030093D5038091D7039091A3
:10529000D803F801FF969183808388E090E00E9414
:1052A000AE2C7C01C090DF03D090E0038091FA0423
:1052B0009091FB048230910529F480E090E00E94F7
:1052C0000C2F90E0F701918380831383028383EE98
:1052D00093E095838483D782C682F092DE03E092C6
:1052E000DD0385E490E00E94AE2C7C0124E1A22E37
:1052F000FC013296DF012A2D1D922A95E9F7CC2474
:10530000CA94DC2CDC015796DC92CE9256974BE186
:10531000842E41E0942E11969C928E928BEE93E017
:1053200059969C938E9358975B961C930E935A971D
:10533000F701178E10A211A212A293961D921D9230
:105340001D921C92969758E1B52EB796DF012B2D32
:105350001D922A95E9F77896118210823296D182B1
:10536000C08232961182108243E050E06DE172E01B
:10537000C7014C960E94F52EF092DC03E092DB030D
:1053800085E490E00E94AE2C8C018091D503909131
:10539000D6032091100530911105F8013296DF01F6
:1053A0001D92AA94E9F7F801D78AC68A9182808271
:1053B000318F208F938F828F178E10A211A212A28D
:1053C00013A214A215A216A2B796DF011D92BA94D9
:1053D000E9F77896118210823296D182C082329695
:1053E0001182108243E050E064E971E0C8014C96FC
:1053F0000E94F52E1093DA030093D90382EB94E018
:105400000E943826892B21F080E292E00E947907E1
:105410000091DD031091DE0360E083EE93E00E94D3
:10542000D50BF801808191810E94CD1CD8016C912F
:105430008DE00E944A1BF801808191810480F581F2
:10544000E02D892B19F08281938102C080819181A6
:105450000E94B10760E08FE094E00E94D50BD80174
:1054600012968D919C911397DC01ED91FC91028035
:10547000F381E02D099561E00E949F0BD8011296FF
:10548000ED91FC911397658181E0682785E00E948A
:105490004A1B62E370E080E090E00E94571CD80154
:1054A0001296ED91FC911397658185E00E944A1B4D
:1054B00040910705509108056091090570910A0512
:1054C0008091D7039091D8030E944D1798E8E92E58
:1054D00094E0F92E0CEB12E0C8010E940C2FF701AA
:1054E00081937F010F5F1F4F063EF2E01F07A1F778
:1054F0008CEB92E090938904809388040E943B1780
:10550000811105C061E080E394E00E94D50B60E06A
:1055100087E894E00E94D50B82EB94E00E94382645
:10552000892BB1F461E085EB93E00E949F0B0E9410
:105530003B17811125C061E082E594E00E94D50B04
:105540008AE290E00E94AE2C8C010E94AE251AC027
:105550000CE914E080EBE82E84E0F82ED8016D9180
:105560007D918D919D918D0140E00E94E51560E057
:1055700084E392E00E949F0BE016F10679F7D2CF08
:1055800008E814E0C8010E94682561E084E994E01D
:105590000E94D50B8091DB039091DC030E94F91AE5
:1055A0008091D9039091DA030E94F91A82EB94E07A
:1055B0000E943826892B21F086E392E00E94790729
:1055C00061E085EB93E00E949F0BFE0131961F0185
:1055D0008091E3039091E4030E9485088091E503A4
:1055E0009091E6030E9485088091E7039091E8037B
:1055F0000E9485088091DF039091E0030E94850856
:105600008091E1039091E2031816190614F5209198
:10561000D3033091D4038091DB039091DC032115F7
:10562000310519F02817390711F40E94B72020918D
:10563000D3033091D4038091D9039091DA032115DB
:10564000310521F02817390709F079C00E94B720E9
:1056500076C0892B09F073C00091DD031091DE0341
:10566000D80112968D919C9113970E94161ED80115
:105670001296ED91FC911397438C548C658C768C2B
:10568000C788D08CE18CF28C411451046104710400
:10569000B1F4878D90A1A1A1B2A10097A105B10598
:1056A00071F0A7019601281B390B4A0B5B0BDA013D
:1056B000C901813D9740A105B10508F074C04601BC
:1056C000570184189508A608B7082091E604309180
:1056D000E7044091E8045091E904A8EEB3E00E9489
:1056E000542F681579058A059B0550F4278D30A144
:1056F00041A152A1211531054105510509F041C0D3
:1057000045284628472881F0C7A4D0A8E1A8F2A8D8
:10571000C814D904EA04FB0408F0A8C06815790588
:105720008A059B0508F069C08091E1039091E2032E
:10573000892B29F4D8016C918DE00E944A1B0E94AC
:10574000802246CF61E086E793E00E94D50B8EE58C
:1057500090E00E94AE2C8C010E94271540E250E0A0
:1057600062E472E0C80144960E94F52E80E293E064
:10577000F8019183808360E08CE493E00E94D50B74
:1057800022CCC21AD30AE40AF50AC814D904EA04DE
:10579000FB0408F0B5CF41EDC41647E0D406E104A0
:1057A000F10408F4ADCFD8011496ED91FC91159752
:1057B000808191810E94FD07D8011496ED91FC91A2
:1057C0001597828193810E942208F8018681978132
:1057D0000E94401D60E070E0C8010E94C20ED80126
:1057E0001296ED91FC91139723E030E040E050E0F9
:1057F00023A334A345A356A397CFD8018D919C91A1
:1058000011971496ED91FC911597892B61F0828187
:1058100093810E94D807D8011496ED91FC911597B9
:10582000808191810BC0808191810E94D807D8012D
:105830001496ED91FC911597828193810E94220824
:10584000F80186819781D101E4E11D92EA95E9F79B
:1058500026E430E03A8329833C832B83A10160E076
:1058600070E00E94F01C61E070E0B6CFD8011496A1
:10587000ED91FC91159782819381F10124E11192C0
:105880002A95E9F748EE53E05A834983A10160E085
:1058900070E00E94F01CD8011496ED91FC911597D0
:1058A000808191810E942208F801868197810E945F
:1058B000220861E070E0C8010E94C20ED801129671
:1058C000ED91FC91139713A214A215A216A22CCF4E
:1058D000CF93DF93EBEEF3E01382128288EE93E036
:1058E000A0E0B0E084839583A683B78382E891E04B
:1058F0009183808385EC90E09587848784EC90E0A9
:105900009787868780EC90E0918B808B81EC90E08C
:10591000938B828B82EC90E0958B848B86EC90E06D
:10592000978B868B118E128E138E148E88E894E0DE
:105930000E94AE2582EB94E00E9427158FE190E053
:105940000E94AE2CEC0143E062E00E94B51BD093B4
:105950001105C0931005DF91CF9108950F931F9308
:10596000CF93DF938230910510F482E090E0E091D4
:105970006605F091670520E030E0A0E0B0E03097E8
:1059800019F1408151810281138148175907C8F0EC
:105990008417950769F4109731F012960C931297BB
:1059A00013961C9327C0009366051093670522C0C9
:1059B0002115310519F04217530718F49A01BD015A
:1059C000EF01DF01F801DBCF21153105F9F0281BCC
:1059D000390B2430310580F48A819B816115710572
:1059E00021F0FB019383828304C090936705809329
:1059F0006605FE01329644C0FE01E20FF31F81935B
:105A0000919322503109398328833AC0209164054B
:105A100030916505232B41F420910301309104015D
:105A200030936505209364052091010130910201B6
:105A30002115310541F42DB73EB740910501509134
:105A40000601241B350BE0916405F0916505E21712
:105A5000F307A0F42E1B3F0B2817390778F0AC0191
:105A60004E5F5F4F2417350748F04E0F5F1F50936E
:105A70006505409364058193919302C0E0E0F0E0F6
:105A8000CF01DF91CF911F910F910895CF93DF93B5
:105A9000009709F481C0FC01329713821282A09111
:105AA0006605B0916705109781F420813181820FDE
:105AB000931F20916405309165052817390751F52A
:105AC000F0936505E093640567C0ED0120E030E0E8
:105AD000CE17DF0740F44A815B819E0141155105D5
