:100000000C9433030C945B030C945B030C947B06FD
:100010000C947B060C947B060C945B030C945B03A2
:100020000C945B030C945B030C945B030C945B03D8
:100030000C945B030C945B030C945B030C945B03C8
:100040000C9426050C945B030C9449060C9423062F
:100050000C945B030C945B030C945B030C945B03A8
:100060000C945B030C945B033011DC10E910F61068
:10007000031110111D1143616C6C696E67204545B9
:1000800050524F4D2E7570646174652077697468A5
:100090002070726F78696D6974795F7374617465CB
:1000A0003A200053657269616C4D656E753A3A731A
:1000B0006574757020746167735B325D3A2000531C
:1000C000657269616C4D656E753A3A7365747570E9
:1000D00020627566665F696E6465783A20005365D4
:1000E0007269616C4D656E753A3A7365747570200E
:1000F000696E7075745F6D6F64653A200053657248
:1001000069616C4D656E752041646D696E20436F49
:100110006E736F6C650D0A00362E2070726F7869F1
:100120006D6974795F737461746500352E20524572
:10013000414445525F504F5745525F434F4E5452D2
:100140004F4C5F50494E00342E2052454144455299
:100150005F4359434C455F484947485F44555241C6
:1001600054494F4E00332E205245414445525F437F
:1001700059434C455F4C4F575F4455524154494F8A
:100180004E00322E205441475F524541445F494E54
:1001900054455256414C00312E205441475F4C414A
:1001A00053545F524541445F54494D454F555400A7
:1001B000302E2052657475726E20746F206D6169E7
:1001C0006E206D656E750053657474696E6773009B
:1001D00046726565204D656D6F72793A2000446501
:1001E0006C6574652054616700456E7465722061AA
:1001F00020746167206E756D6265722028756E735C
:1002000069676E6564206C6F6E672920746F207358
:10021000746F72653A200041646420546167004540
:10022000786974696E672061646D696E20636F6EB2
:10023000736F6C650D0A0D0A006D656E7553656C04
:1002400065637465644D61696E4974656D2072659E
:1002500063656976656420627974653A200070721E
:100260006F78696D6974795F73746174653A2000A1
:100270005245414445525F504F5745525F434F4EA0
:1002800054524F4C5F50494E3A200052454144452C
:10029000525F4359434C455F484947485F44555274
:1002A0004154494F4E3A20005245414445525F4324
:1002B00059434C455F4C4F575F4455524154494F49
:1002C0004E3A20005441475F524541445F494E54E5
:1002D000455256414C3A20005441475F4C415354DB
:1002E0005F524541445F54494D454F55543A2000B3
:1002F0006D656E7553656C65637465645365747480
:10030000696E6720726563656976656420627974D9
:10031000653A200072756E43616C6C6261636B7349
:100320002829206E6F20636F6E646974696F6E2078
:100330007761732073656C65637465640072756EB4
:1003400043616C6C6261636B73282920696E707500
:1003500074417661696C61626C6520666F72206DB4
:10036000656E7553656C6563746564536574746913
:100370006E670072756E43616C6C6261636B7328AB
:100380002920696E707574417661696C61626C6573
:1003900020666F72206D656E7553656C656374655C
:1003A000644D61696E4974656D0054616720656EC6
:1003B00074657265643A200072756E43616C6C629C
:1003C00061636B7328292063616C6C20746F2061FA
:1003D0006464546167537472696E672862756666F7
:1003E00029206661696C65640072756E43616C6C8E
:1003F0006261636B73282920696E70757441766140
:10040000696C61626C6520666F72206D656E754106
:10041000646454616700596F7520656E7465726518
:10042000643A20006765744C696E652829206279FA
:10043000742C20627566663A2000636865636B53AE
:10044000657269616C506F727428292075736572CA
:1004500020696E7075742077697468206E6F206DE6
:1004600061746368696E6720696E707574206D6F62
:1004700064653A2000636865636B53657269616CFB
:10048000506F72742829206D61746368496E7075AD
:10049000744D6F646528276C696E65272920697320
:1004A000205452554500636865636B5365726961FA
:1004B0006C506F72742829206D61746368496E7086
:1004C00075744D6F646528276368617227292069F8
:1004D0007320545255450061646D696E54696D65B1
:1004E0006F757428292073657474696E672072753E
:1004F0006E5F6D6F646520746F2030202772756E9B
:100500002700207365636F6E64732061676F0063FB
:1005100079636C65526561646572506F77657228A6
:1005200029207570646174696E67206C6173745FF3
:100530007265616465725F706F7765725F6379631E
:100540006C652C206C617374207461672072656126
:10055000643A200000000000240027002A00000068
:100560000008000201000003040700000000000072
:100570000000352E2053657474696E677300342E45
:100580002053686F772066726565206D656D6F72A8
:100590007900332E2044656C6574652074616700B2
:1005A000322E204164642074616700312E204C6932
:1005B0007374207461677300302E2045786974006D
:1005C0004D656E750073657441646D696E5769742D
:1005D0006854696D656F75742829207365636F6E43
:1005E00064733A2000736574496E7075744D6F645E
:1005F00065282920746F3A20007365744375727200
:10060000656E7446756E6374696F6E282920746F09
:100610003A20004C65643A3A696E74657276616C92
:10062000735B5D3A200000000000230026002900D3
:1006300000000000250028002B000404040404042A
:100640000404020202020202030303030303010281
:100650000408102040800102040810200102040850
:10066000102062114C1111241FBECFEFD8E0DEBF65
:10067000CDBF11E0A0E0B1E0E2E2FEE202C00590F1
:100680000D92A43BB107D9F723E0A4EBB1E001C080
:100690001D92A839B207E1F713E0C2E3D3E004C02A
:1006A0002197FE010E940D14C133D107C9F70E94A2
:1006B000EC0A0C9404170C940000CF92DF92EF9296
:1006C000FF920F931F93CF93DF936C017A018B01FD
:1006D000C0E0D0E0CE15DF0581F0D8016D918D012D
:1006E000D601ED91FC910190F081E02DC6010995B4
:1006F000892B11F02196EECF7E01C701DF91CF91BA
:100700001F910F91FF90EF90DF90CF900895FC0123
:10071000538D448D252F30E0842F90E0821B930B66
:10072000541710F0CF96089501970895FC01918D0C
:10073000828D981761F0828DDF01A80FB11D5D9643
:100740008C91928D9F5F9F73928F90E008958FEFB1
:100750009FEF0895FC01918D828D981731F0828D65
:10076000E80FF11D858D90E008958FEF9FEF0895BC
:10077000FC01918D228D892F90E0805C9F4F821B20
:1007800091098F739927089581E092E00E94B80340
:1007900021E0892B09F420E0822F0895FC01848D4B
:1007A000DF01A80FB11DA35ABF4F2C91848D90E09B
:1007B00001968F739927848FA689B7892C93A08976
:1007C000B1898C91837080648C93938D848D981300
:1007D00006C00288F389E02D80818F7D8083089593
:1007E000EF92FF920F931F93CF93DF93EC0181E081
:1007F000888F9B8D8C8D981305C0E889F98980813D
:1008000085FD26C0F62E0B8D10E00F5F1F4F0F7376
:100810001127E02E8C8DE8120CC00FB607FCFACF22
:10082000E889F989808185FFF5CFCE010E94CE034A
:10083000F1CF8B8DFE01E80FF11DE35AFF4FF082DF
:100840009FB7F8940B8FEA89FB89808180620AC088
:100850009FB7F894EE89FF896083E889F9898081E0
:100860008370806480839FBF81E090E0DF91CF91AF
:100870001F910F91FF90EF900895CF93DF93EC01BC
:10088000888D8823C9F0EA89FB89808185FD05C0B0
:10089000A889B9898C9186FD0FC00FB607FCF5CFEA
:1008A000808185FFF2CFA889B9898C9185FFEDCF32
:1008B000CE010E94CE03E7CFDF91CF91089580E073
:1008C00090E0892B29F00E94C40381110C94000050
:1008D00008952091FF01309100022817390771F423
:1008E0009091FD018091FE01981741F0E091FD018A
:1008F000F0E0EC54FE4F808190E008958FEF9FEF81
:10090000089508951F93CF93DF93DC015C968D913A
:100910009C915D97009739F421E030E013963C9369
:100920002E9312973BC05196ED91FC9152975096A1
:100930002C915097322F30951FB75E964C915E9751
:10094000742F727041FD6095F8944081772311F007
:10095000422B01C043234083EC012197F1F748E08B
:10096000508160FF02C0522B01C053235083EC0121
:100970002197F1F76695415099F78081772319F017
:100980008323808302C0282B20831FBF5C968D9118
:100990009C915D970197F1F781E090E0DF91CF9115
:1009A0001F9108952091FF01309100022817390707
:1009B00071F48091FE012091FD0190E0805C9F4FD9
:1009C000821B910960E470E00E94F913089580E0B1
:1009D00090E008952091FF01309100022817390717
:1009E000B9F49091FD018091FE01981789F0E09192
:1009F000FD01F0E0EC54FE4F80812091FD0130E0DC
:100A00002F5F3F4F2F7333272093FD0190E0089510
:100A10008FEF9FEF0895089580E090E008956115AD
:100A2000710579F0FB0101900020E9F73197AF01E2
:100A3000461B570BDC01ED91FC910280F381E02D08
:100A4000099480E090E008950E9427141F920F926D
:100A50000FB60F9211242F933F938F939F93AF93D1
:100A6000BF938091F5019091F601A091F701B091AB
:100A7000F8013091F40123E0230F2D3720F4019683
:100A8000A11DB11D05C026E8230F0296A11DB11DB1
:100A90002093F4018093F5019093F601A093F70160
:100AA000B093F8018091F9019091FA01A091FB01B6
:100AB000B091FC010196A11DB11D8093F9019093A5
:100AC000FA01A093FB01B093FC01BF91AF919F91FC
:100AD0008F913F912F910F900FBE0F901F901895FF
:100AE0008F929F92AF92BF92EF92FF920F931F93BC
:100AF000CF93DF93CDB7DEB7A1970FB6F894DEBFE3
:100B00000FBECDBF7C01FA01CB0119A2223008F43F
:100B10002AE08E010F5D1F4F822E912CA12CB12C4B
:100B2000BF01A50194010E948613F901CA01015079
:100B300011096A3014F4605D01C0695CD8016C93DE
:100B4000232B242B252B61F7B801C7010E940F0529
:100B5000A1960FB6F894DEBF0FBECDBFDF91CF9147
:100B60001F910F91FF90EF90BF90AF909F908F904B
:100B700008956EE471E00C940F050F931F93CF93CB
:100B8000DF93EC010E940F058C01CE010E94B90594
:100B9000800F911FDF91CF911F910F9108950C94B9
:100BA0000F05EF92FF920F931F93CF93DF938C016A
:100BB0007B01C0E0D0E0F701EC0FFD1F64916623DC
:100BC00061F0D801ED91FC910190F081E02DC80118
:100BD0000995892B11F02196EECFCE01DF91CF91AF
:100BE0001F910F91FF90EF9008950F931F93CF9354
:100BF000DF93EC010E94D1058C01CE010E94B90562
:100C0000800F911FDF91CF911F910F910895CF9386
:100C1000DF93EC0166E770E081E092E00E94D1058D
:100C2000BE0181E092E00E947D0880E090E00E9499
:100C30006013C81729F06C2F80E090E00E946813C1
:100C4000DF91CF9108951F920F920FB60F9211244A
:100C50002F933F934F935F936F937F938F939F93C4
:100C6000AF93BF93EF93FF9381E092E00E94CE0396
:100C7000FF91EF91BF91AF919F918F917F916F9174
:100C80005F914F913F912F910F900FBE0F901F904A
:100C900018951F920F920FB60F9211242F938F93D6
:100CA0009F93EF93FF93E0911102F09112028081E4
:100CB000E0911702F091180282FD12C0908180919C
:100CC0001A028F5F8F7320911B02821751F0E091FF
:100CD0001A02F0E0EF5FFD4F958F80931A0201C07A
:100CE0008081FF91EF919F918F912F910F900FBE77
:100CF0000F901F9018951F920F920FB60F9211240C
:100D00002F933F934F935F936F937F938F939F9313
:100D1000AF93BF93EF93FF93E091FF01F091000237
:100D2000309709F451C0968DA685B785858591FFCA
:100D300004C09C91892329F447C09C91892309F020
:100D400043C0A389B4899C918589809589238C931C
:100D5000868997890197F1F7608D718DA685B78592
:100D6000558538E020E0CB010197F1F7822F90E024
:100D700095958795282F4C91452309F0206831508F
:100D800091F7868D81FD20958091FE0190E001967E
:100D90008F7399273091FD01381749F0A091FE011A
:100DA000B0E0AC54BE4F2C938093FE0103C0868DFF
:100DB0008160868F828D938D0197F1F7A389B48925
:100DC0009C918589892B8C93FF91EF91BF91AF9175
:100DD0009F918F917F916F915F914F913F912F9153
:100DE0000F900FBE0F901F901895E091FF01F091AA
:100DF0000002E817F90769F4A389B4899C918589F1
:100E0000809589238C93109200021092FF0181E05B
:100E1000089580E00895CF93DF93EC017D836C8388
:100E20006115710529F48E819F8101969F838E83C0
:100E3000FB013896EE0FFF1FEC0FFD1F80819181A3
:100E40001816190644F4CB01019662E070E00E9486
:100E5000F9139B838A830E94BD0A6A877B878C87EC
:100E60009D87DF91CF910895CF93DF9390E0FC01B0
:100E7000E25BF94F2491FC01E65CF94F84918823F1
:100E800061F190E0880F991FFC01EC5AFA4FC5916F
:100E9000D491FC01E05DF94FA591B491611109C0B5
:100EA0009FB7F8948881209582238883EC912E2324
:100EB0000BC0623061F49FB7F8948881322F30956F
:100EC00083238883EC912E2B2C939FBF06C08FB772
:100ED000F894E8812E2B28838FBFDF91CF9108955E
:100EE0003FB7F8948091F9019091FA01A091FB012C
:100EF000B091FC0126B5A89B05C02F3F19F00196C3
:100F0000A11DB11D3FBFBA2FA92F982F8827820F8F
:100F1000911DA11DB11DBC01CD0142E0660F771FDF
:100F2000881F991F4A95D1F70895CF93DF93EC015D
:100F30008A8D9B8D892BF1F08091FF0190910002A9
:100F4000C817D907B9F0009711F00E94F5068E8DE9
:100F50008E7F8E8F1092FE011092FD01D0930002C1
:100F6000C093FF01EB89FC8990818D89892B808357
:100F700081E001C080E0DF91CF910895CF92DF92B0
:100F8000EF92FF920F931F93CF93DF9377FF21C0D0
:100F90006A017B01EC01E881F9810190F081E02D8B
:100FA0006DE209958C0144275527BA014C195D095A
:100FB0006E097F092AE0CE010E947005800F911F03
:100FC000DF91CF911F910F91FF90EF90DF90CF9025
:100FD00008952AE0DF91CF911F910F91FF90EF903C
:100FE000DF90CF900C947005EF92FF920F931F93B8
:100FF000CF93DF93EC018B0161E088810E9434077D
:101000001B821A821D821C821F821E8219861886EC
:10101000F8018E01005F1F4FD80181E090E021911F
:1010200031912D933D931216130614F49F878E87EA
:1010300001968531910599F763E176E081E092E0D0
:101040000E94D1054E855F85052E000C660B770B3F
:1010500081E092E00E94BE076BE971E081E092E0DE
:101060000E94CF057E0188E3E80EF11C65E671E081
:1010700081E092E00E94CF05F801419151918F01EA
:10108000052E000C660B770B81E092E00E94BE07F4
:101090000E151F0559F760E571E081E092E00E94AE
:1010A000BD0560E070E0CE01DF91CF911F910F91FF
:1010B000FF90EF900C940B070F931F93CF93DF9348
:1010C000EC018B0188859985892B51F442E050E031
:1010D000BE01605F7F4FC8010E942C14892B41F034
:1010E000B801CE01DF91CF911F910F910C94F407BD
:1010F000DF91CF911F910F9108950F931F93CF937D
:10110000DF93EC01AB01770F660B770B0E94BE07F4
:101110008C01CE010E94B905800F911FDF91CF9104
:101120001F910F9108951092B7021092B6024AE0F3
:1011300050E060E070E08CEA92E00C944214CF92B0
:10114000DF92EF92FF920E9470076B017C010E9478
:101150007007DC01CB018C199D09AE09BF09883EDF
:101160009340A105B10598F3FF90EF90DF90CF90E9
:101170000895FC01138E128E118E108E178A168A16
:101180008DE991E0958F848F9485963108F04EC05B
:101190002DEB30E0378B268B2BE931E0318F208F20
:1011A0002CE231E0338F228F30916800983058F074
:1011B00021E09E3008F420E091E0892F01C0880FE3
:1011C0002A95EAF701C084E0832B80936800848528
:1011D000883038F08E3040F0863148F020E030E042
:1011E00008C02DE630E005C02BE630E002C02CE65A
:1011F00030E0348B238B883030F491E001C0990FBC
:101200008A95EAF70EC0282F30E08E3018F4285067
:10121000310902C02E50310991E001C0990F2A9581
:10122000EAF7958B848D958D0197F1F7CF010C949A
:10123000950744E150E0BC0181E193E00E94421433
:1012400069EF75E081E092E00E94D10561E173E011
:1012500081E092E00C94BD0540E150E0BC018FEECE
:1012600092E00E94421465EE75E081E092E00E94F7
:10127000D1056FEE72E081E092E00C94BD0540E193
:1012800050E060E571E08FEF92E00E94421410920E
:10129000100310920F038AE591E00C942C09209121
:1012A0000F0330911003232B61F42091FF022223BE
:1012B00049F0BC0181E193E00E94391421E0892BBF
:1012C00009F020E0822F0895CF93DF93C5EED2E09E
:1012D00060EC75E0888199810E94F50568EB75E006
:1012E000888199810E94F5056BEA75E08881998172
:1012F0000E94F50560EA75E0888199810E94F505F4
:1013000062E975E0888199810E94F5056EE775E0D4
:10131000888199810E94F50562E775E0888199814D
:101320000E94F50560E571E0888199810E94BD0504
:101330008AE591E00E942C098CE691E0DF91CF9143
:101340000C941909CF92DF92EF92FF92CF93DF9323
:101350006BEA71E08091E5029091E6020E94BD0582
:10136000C5E2D3E0C12CD12C760188819981AA8174
:10137000BB81892B8A2B8B2B19F1B701A601809198
:10138000E5029091E6020E94BE0760EB71E0809159
:10139000E5029091E6020E94CF05488159816A8159
:1013A0007B812AE08091E5029091E6020E9470051F
:1013B00060E571E08091E5029091E6020E94BD0532
:1013C00024968FEFC81AD80AE80AF80A85E0C816EA
:1013D000D104E104F10449F660E571E08091E50291
:1013E0009091E602DF91CF91FF90EF90DF90CF9048
:1013F0000C94BD05CF93DF93682F81E092E00E94AB
:10140000F003EC0181E092E00E94B9058C0F9D1F72
:10141000DF91CF91089590E0FC01E25AFA4F2491B8
:10142000FC01E25BF94F3491FC01E65CF94FE49179
:10143000EE2309F43CC0222339F1233091F038F433
:101440002130A9F0223001F584B58F7D12C02730FC
:1014500091F02830A1F02430B9F4809180008F7D84
:1014600003C0809180008F77809380000DC084B589
:101470008F7784BD09C08091B0008F7703C08091C1
:10148000B0008F7D8093B000F0E0EE0FFF1FE05DB5
:10149000F94FA591B4919FB7F894611104C08C9154
:1014A0003095382302C0EC913E2B3C939FBF0895AA
:1014B0000F931F93CF93DF93EC01162F042F1B8202
:1014C0001A8288EE93E0A0E0B0E08C839D83AE8327
:1014D000BF838CE291E0998388831F8A1E8A198ECC
:1014E000188E1B8E1A8E1D8E1C8E6E8D6E7F6D7FDC
:1014F0006E8F6695617081E06827842F0E940B0AC9
:1015000061E0802F0E943407802F90E0FC01E25BB5
:10151000F94FE491E88BFC01E65CF94FE491F0E0CF
:10152000EE0FFF1FE05DF94F859194919A8B898BA7
:1015300060E0812F0E9434078E8D81FD04C061E040
:10154000812F0E940B0A1C87812F90E0FC01E25B37
:10155000F94FE491ED87FC01E65CF94FE491F0E08E
:10156000EE0FFF1FEA5DF94F859194919F878E875B
:10157000DF91CF911F910F9108952FB7F89460914B
:10158000F5017091F6018091F7019091F8012FBF5C
:1015900008950F931F93CF93DF938C0165EC75E053
:1015A00081E092E00E94D105B80181E092E00E94C2
:1015B0007D08C5EED2E01987088781E090E09B8323
:1015C0008A830E94BD0A6C837D838E839F83DF9113
:1015D000CF911F910F910895CF93DF93CDB7DEB7D1
:1015E000AD970FB6F894DEBF0FBECDBF789484B52B
:1015F000826084BD84B5816084BD85B5826085BD0F
:1016000085B5816085BD80916E00816080936E009C
:10161000109281008091810082608093810080918E
:10162000810081608093810080918000816080933F
:1016300080008091B10084608093B1008091B000FF
:1016400081608093B00080917A00846080937A00FA
:1016500080917A00826080937A0080917A00816024
:1016600080937A0080917A00806880937A0010924B
:10167000C100E0911102F091120282E08083E091BA
:101680000D02F0910E021082E0910F02F091100213
:101690008FEC808310921902E0911502F0911602EE
:1016A00086E08083E0911302F091140280818061D2
:1016B0008083E0911302F09114028081886080831E
:1016C000E0911302F0911402808180688083E091A0
:1016D0001302F091140280818F7D80838E010F5F51
:1016E0001F4F88E2D8011D928A95E9F785EE91E0B7
:1016F0009A8389838FE090E09C838B83B8018AE58D
:1017000093E00E94F4078BE393E00E94B9086DEF29
:1017100070E08091E5029091E6020E94F5056EED81
:1017200070E081E092E00E94D1056FEE72E081E00E
:1017300092E00E94BD056FEB70E081E092E00E94B4
:10174000D10560910F037091100381E092E00E9437
:101750007D0863EA70E081E092E00E94D10540914B
:101760002D0350912E0360912F03709130032AE0D6
:1017700081E092E00E94700581E092E00E94B9054C
:1017800082E090E00E94C90A0E943F0981E591E051
:101790000E94190986EC92E00E94B9086091A802A3
:1017A0008DE00E940B0A61E08091A6020E940B0A64
:1017B000B8EEAB2EB3E0BB2E86E4882E912C1E0132
:1017C000B9E22B0E311C0E94BD0A40915E0350917C
:1017D0005F03C0906403D0906503E0906603F090CF
:1017E00067032B013C014C185D086E087F087301EC
:1017F0006201FA01EE0FFF1FE659FC4F2081318193
:101800002901330F66087708C414D504E604F704E9
:10181000D8F060936403709365038093660390939C
:101820006703209168033091690321503109421701
:1018300053071CF060E070E003C0BA016F5F7F4F98
:101840008AE593E00E940B0760915C0380915A0344
:101850000E940B0A8091E7029091E802181619067F
:101860000CF01DC18BE393E00E9495070E949F0836
:101870008091E7029091E802019779F42091ED02BE
:101880003091EE028091AA029091AB02281739079D
:1018900021F460E08DE00E940B0A0E94BD0A2091B5
:1018A000E7023091E802232BB9F1C090E902D09011
:1018B000EA02E090EB02F090EC026C197D098E09CF
:1018C0009F0928EE33E040E050E00E9486138091AB
:1018D000ED029091EE02092E000CAA0BBB0B8217B1
:1018E0009307A407B507C0F467ED74E081E092E0C8
:1018F0000E94F5058091390390913A03D801E8E2FE
:101900001D92EA95E9F7BC82AB82B8010E945C089F
:101910001092E8021092E7028091E5029091E602AF
:10192000DC01ED91FC910084F185E02D0995892B76
:1019300009F4A8C08091AA029091AB020E94C90A42
:101940008091E5029091E602DC01ED91FC91028428
:10195000F385E02D0995F82E6FEE72E08AE591E0AF
:101960000E943914892B49F466EA74E081E092E020
:101970000E94F505F092FF0285C06FEE72E08FE5E0
:1019800091E00E943914892B09F062C065E774E088
:1019900081E092E00E94F50564E274E081E092E06B
:1019A0000E94D1056F2D81E092E00E94F00364E671
:1019B00071E081E092E00E94CF056FEF72E081E07C
:1019C00092E00E94BD0580910F0390911003FC01ED
:1019D000EB51FD4FF28E01969093100380930F030D
:1019E0008091E5029091E602DC01ED91FC9101907D
:1019F000F081E02D6F2D0995BDE0FB1243C060E53D
:101A000071E08091E5029091E6020E94BD0566E1D9
:101A100074E08091E5029091E6020E94D1056FEF9B
:101A200072E08091E5029091E6020E94BD0560E5BA
:101A300071E08091E5029091E6020E94BD0510924E
:101A4000100310920F038AE591E00E942C091AC03E
:101A50006AE374E081E092E00E94F5058091E5027E
:101A60009091E602DC01ED91FC910190F081E02D76
:101A70006F2D099560E571E08091E5029091E60295
:101A80000E94BD0580910F0390911003892B09F0EE
:101A90003FC28091FF02882309F43AC23CC286EC1F
:101AA00092E00E9495070E94BD0A2B013C018091A3
:101AB000BA029091BB02A091BC02B091BD02730129
:101AC0006201C81AD90AEA0AFB0A8091A002909121
:101AD000A102092E000CAA0BBB0B8C159D05AE05AF
:101AE000BF0508F08FC18091C2029091C302DC0152
:101AF000ED91FC910084F185E02D0995892B09F485
:101B0000FBC0E090B602F090B7028091C2029091C3
:101B1000C302DC01ED91FC910284F385E02D09956F
:101B2000F701E455FD4F808365E971E081E092E0C3
:101B30000E94CF054091B6025091B702052E000CCD
:101B4000660B770B81E092E00E94BE0767E971E0C7
:101B500081E092E00E94CF05E091B602F091B702D9
:101B6000E455FD4F408150E060E070E020E181E00D
:101B700092E00E94700569E971E081E092E00E94C4
:101B8000CF05E091B602F091B702E455FD4F4081D8
:101B900050E060E070E02AE081E092E00E94700591
:101BA0008091B6029091B702009729F42091AC027F
:101BB0002230A1F09EC08930910569F48091B50270
:101BC0008330C1F00E94930860E571E081E092E00B
:101BD0000E94BD0517C18930910564F40196909368
:101BE000B7028093B6026BE971E081E092E00E9457
:101BF000CF0508C160E571E081E092E00E94BD057B
:101C0000E090AC02EDB7FEB7FDA7ECA71AA619A6A7
:101C10001BA6F12C6701F8E0CF0ED11C20E1E20EEB
:101C2000F11CD6012C9111963C91B2E0CB0ED11C47
:101C3000F10101900020E9F73F932F932DE931E066
:101C40003F932F93CF0101979F938F930E9451143D
:101C50000F900F900F900F900F900F90EC14FD04C9
:101C600001F7B10181E092E00E94BD0540E150E042
:101C700060E070E0C1010E943E12AB01BC0181E056
:101C800092E00E94BE0781E092E00E94B90543E025
:101C900050E060E070E0C1010E9442148091C402F3
:101CA0009091C502D801E8E21D92EA95E9F7BA825F
:101CB000A982B8010E945C088091A8029091A902B3
:101CC00021E030E03093A9022093A802019721F08F
:101CD00081E090E00E9407060FB6F894DEBF0FBEC9
:101CE000CDBF4092BA025092BB026092BC02709289
:101CF000BD020E94930886C08091A4029091A50223
:101D0000092E000CAA0BBB0B8C159D05AE05BF055B
:101D100008F078C00E94BD0A6B017C014090BE02B1
:101D20005090BF026090C0027090C1028091A202E8
:101D30009091A302092E000CAA0BBB0B840D951DDC
:101D4000A61DB71D4091A4025091A502052E000CBE
:101D5000660B770B480F591F6A1F7B1F4C145D04DD
:101D60006E047F0438F4C816D906EA06FB0610F4A0
:101D700060E00BC08C159D05AE05BF0558F4C41678
:101D8000D506E606F70630F461E08091A6020E94CF
:101D90000B0A38C04C155D056E057F0598F56FE0A0
:101DA00075E081E092E00E94D1058091BA029091A5
:101DB000BB02A091BC02B091BD0226013701481AB6
:101DC000590A6A0A7B0AC301B20128EE33E040E0F7
:101DD00050E00E948613BA01A9012AE081E092E056
:101DE0000E94700562E075E081E092E00E94F505D6
:101DF0000E94BD0A6093BE027093BF028093C0022E
:101E00009093C1020E94BD0AC090BA02D090BB025A
:101E1000E090BC02F090BD02AB01BC014C195D0921
:101E20006E097F0920919E0230919F022A9DC00178
:101E30002B9D900D3A9D900D1124092E000CAA0B9C
:101E4000BB0B84179507A607B70738F5D801E8E25A
:101E50001D92EA95E9F754EF452E552453945A8282
:101E600049825C824B82B8018091C4029091C50284
:101E70000E945C081092B9021092B8028091A802E8
:101E80009091A9021092A9021092A802892BC9F17F
:101E900080E090E00E94070634C08091A8029091F3
:101EA000A9028130910521F49093B9028093B80280
:101EB0002091A2023091A3028091A4029091A502E8
:101EC000280F391F8091A0029091A102820F931FC9
:101ED000092E000CAA0BBB0B84179507A607B707A2
:101EE00080F4D801E8E21D92EA95E9F79A828982A6
:101EF0009C828B82B8018091C4029091C5020E949D
:101F00005C086091B8028DE00E940B0A0E949F0855
:101F10000E945F0458CC80EA91E00E944F09882318
:101F200009F45CC069EE73E081E092E00E94F5057F
:101F30008091FF028D30A9F440E150E067E671E046
:101F40008FEE92E00E9442141092100310920F0341
:101F500060E571E08091E5029091E6020E94BD0586
:101F600098C16AEA73E08091E5029091E6020E94CE
:101F7000D1056FEF72E08091E5029091E6020E9438
:101F8000BD0560E571E08091E5029091E6020E9456
:101F9000BD054AE050E060E070E08FEF92E00E9403
:101FA0003E12E5E2F3E020E030E0C190D190E19014
:101FB000F190CD28CE28CF2809F065C1220F331F1C
:101FC000220F331FF901EB5DFC4F60837183828325
:101FD000938380E591E00E94190952C18CE691E05B
:101FE0000E944F09882309F4C3C063E773E081E0CE
:101FF00092E00E94F505F090FF0269E372E081E053
:1020000092E00E94D1058F2D0E94FA09B2E3FB16DF
:1020100009F467C0BF1548F0E0E3FE1609F454C0A8
:10202000F1E3FF1609F42CC11BC174E3472EF4142D
:1020300009F473C0F41408F46DC065E3562EF5106E
:102040000FC18AE591E00E942C0980E091E00E9496
:10205000190967EC71E08091E5029091E6020E9417
:10206000F50560EB71E08091E5029091E6020E9437
:10207000F50567E971E08091E5029091E6020E9422
:10208000F50562E871E08091E5029091E6020E9418
:10209000F50565E671E08091E5029091E6020E9407
:1020A000F50567E471E08091E5029091E6020E94F7
:1020B000F5056BE271E08091E5029091E6020E94E5
:1020C000F50568E171E045C06FE172E08091E502DD
:1020D0009091E6020E94F50580E090E00E94C90A16
:1020E000CFC08FE591E00E942C098DE091E00E9425
:1020F000190967E172E08091E5029091E6020E9481
:10210000F50569EE71E08091E5029091E6020E948A
:10211000D105AFC06EED71E01CC060ED71E0809143
:10212000E5029091E6020E94D10580919203909180
:102130009303B801681B790B8091E5029091E60248
:102140000E947D088091E5029091E6020E94B90507
:1021500090C08091E5029091E6020E94F50560E54D
:1021600071E08091E5029091E6020E94BD0581C078
:1021700081E891E00E944F09882309F474C06DE35F
:1021800073E081E092E00E94F505F090FF0260EFBD
:1021900072E081E092E00E94D1058F2D0E94FA0941
:1021A0008F2D90E0FC01F097E730F10508F058C062
:1021B000EC5CFF4F0C940D1468ED72E08091E50229
:1021C0009091E6020E94D10560919E0270919F025B
:1021D00040C064EC72E08091E5029091E6020E94BA
:1021E000D1056091A0027091A10233C068EA72E04B
:1021F0008091E5029091E6020E94D1056091A202D1
:102200007091A30226C06BE872E08091E502909184
:10221000E6020E94D1056091A4027091A50219C046
:1022200060E772E08091E5029091E6020E94D1059C
:102230006091A6027091A7020CC06EE572E08091D9
:10224000E5029091E6020E94D1056091A80270918A
:10225000A9028091E5029091E6020E947D0809C0E2
:102260000E94640906C064E173E081E092E00E948C
:10227000F5050E943F0981E591E00E94190948CEC9
:102280000E94A209F6CF2F5F3F4F2530310509F09C
:102290008CCE68EB73E0E9CFCF93DF93CCE2D1E053
:1022A000D093C702C093C60286EC92E00E94F50666
:1022B000D0933C03C0933B038BE393E0DF91CF913A
:1022C0000C94F5060F931F93CF93DF93E1E0F2E0B8
:1022D0001382128288EE93E0A0E0B0E084839583BD
:1022E000A683B7838EE391E09183808385EC90E0B1
:1022F0009587848784EC90E09787868780EC90E0D0
:10230000918B808B81EC90E0938B828B82EC90E0C0
:10231000958B848B86EC90E0978B868B118E128E3A
:10232000138E148ECEE9D2E089E190E09983888300
:1023300088EE93E09B838A8386E990E09D838C837B
:1023400088E893E19F838E8386E090E09987888771
:1023500080E090E00E94601390E09B878A878FE086
:1023600090E09D878C870AE513E089E090E0D80132
:102370008D939C93F801128613861486158643E08C
:1023800062E08BE393E00E94580A85EE92E02BE333
:1023900033E0DC012D933C9325E0E8E1F1E0AFEE82
:1023A000B2E001900D922A95E1F7E4EFF2E02BE024
:1023B000DF011D922A95E9F720E1EFEFF2E0DF015E
:1023C0001D922A95E9F7FC0113A612A6109212039A
:1023D00010921103E3E1F3E082E1DF011D928A959F
:1023E000E9F7E5E2F3E084E1DF011D928A95E9F780
:1023F0008DEC9BEAA4E3B2E180839183A283B38353
:1024000084E392E1ADECBBEA8093290390932A0325
:10241000A0932B03B0932C038CE69DE7AEE8BFE9B5
:1024200080932D0390932E03A0932F03B09330033A
:1024300010933A030093390344E065E086EC92E0A0
:102440000E94580AECEAF2E08AE0DF011D928A95C8
:10245000E9F7138612868A859B8595878487168679
:102460001786108A118A86EC92E0978B868B118FE3
:10247000008FDF91CF911F910F910895A0E0B0E000
:10248000E4E4F2E10C94B4135C016B017A01611590
:10249000710519F0FB0191838083E114F10429F0A7
:1024A000C7010297839708F0E5C0E5012196F50181
:1024B0001081812F90E00E945413892B11F05E014E
:1024C000F4CF1D3229F42196F501118101E007C0F6
:1024D0001B3221F4E5012296F501118100E0E1149F
:1024E000F10409F1F0E1EF16F10429F43FC010E323
:1024F000E114F10421F128E0E216F10401F154F4B1
:10250000E2E0EE16F10421F5812C912CA12CB0E42F
:10251000BB2E3EC0FAE0EF16F10439F020E1E216DE
:10252000F104B1F430C0103319F1FAE0EF2EF12CC0
:10253000ACEC8A2E982CA82CACE0BA2E29C078E0FE
:10254000E72EF12C812C912CA12CE0E1BE2E20C095
:1025500060E070E080E090E897010F2C000C440BE5
:10256000550B0E94861349015A0112C0103359F4C9
:1025700088818F7D883509F0BACF19812296026053
:1025800080E1E82EF12C812C912CA12C68E0B62E54
:1025900040E060E070E0CB0127010F2C000C6608E2
:1025A0007708FE0150ED352E310E29E0231570F429
:1025B0002FEB210F2A3118F439EC332E06C02FE906
:1025C000210F2A3118F529EA322E310E232D30E061
:1025D0002E153F05DCF447FD16C086169706A806A3
:1025E000B90670F0A30192010E947613630D711D6C
:1025F000811D911D61307105810520E8920710F061
:102600004FEF01C041E021961081CBCF202F2170E8
:10261000C114D10471F0442329F02197F601D1832C
:10262000C08307C001FF19C02297F601D183C08380
:1026300014C047FF12C0222329F060E070E080E060
:1026400090E804C06FEF7FEF8FEF9FE722E230E06A
:10265000309397032093960309C0222381F090952D
:102660008095709561957F4F8F4F9F4F462F372FE5
:10267000282F12C040E030E020E090E00DC097FF2E
:10268000F5CF82E290E090939703809396036FEFEB
:102690007FEF8FEF9FE7EACF642F732F822FCDB7A5
:1026A000DEB7E1E10C94D01391110C945D138032EC
:1026B00019F089508550C8F70895992788270895FB
:1026C000F999FECF92BD81BDF89A992780B50895FA
:1026D000262FF999FECF1FBA92BD81BD20BD0FB63E
:1026E000F894FA9AF99A0FBE01960895DB018F9338
:1026F0009F930E94A813BF91AF91A29F800D911D3F
:10270000A39F900DB29F900D11240895A1E21A2E5F
:10271000AA1BBB1BFD010DC0AA1FBB1FEE1FFF1F85
:10272000A217B307E407F50720F0A21BB30BE40BD5
:10273000F50B661F771F881F991F1A9469F760951C
:102740007095809590959B01AC01BD01CF010895D6
:102750000E94EA13A59F900DB49F900DA49F800D39
:10276000911D112408952F923F924F925F926F9284
:102770007F928F929F92AF92BF92CF92DF92EF9211
:10278000FF920F931F93CF93DF93CDB7DEB7CA1B92
:10279000DB0B0FB6F894DEBF0FBECDBF09942A88BD
:1027A000398848885F846E847D848C849B84AA8465
:1027B000B984C884DF80EE80FD800C811B81AA81F2
:1027C000B981CE0FD11D0FB6F894DEBF0FBECDBFBD
:1027D000ED010895A29FB001B39FC001A39F700DAA
:1027E000811D1124911DB29F700D811D1124911D19
:1027F000089597FB072E16F4009407D077FD09D0B3
:102800000E94131407FC05D03EF4909581959F4FCC
:102810000895709561957F4F0895EE0FFF1F059005
:10282000F491E02D0994AA1BBB1B51E107C0AA1F1C
:10283000BB1FA617B70710F0A61BB70B881F991F61
:102840005A95A9F780959095BC01CD01089581E036
:1028500090E0F8940C940417FB01DC0104C08D9106
:102860000190801921F441505040C8F7881B990B02
:102870000895FB01DC018D91019080190110D9F3BD
:10288000990B0895FB01DC014150504048F0019044
:102890000D920020C9F701C01D9241505040E0F751
:1028A0000895AEE0B0E0E7E5F4E10C94C1130D89C2
:1028B0001E8986E08C831A8309838FEF9FE79E83AE
:1028C0008D83AE01475E5F4F6F89788DCE01019693
:1028D0000E947314EF81F885E00FF11F10822E968D
:1028E000E4E00C94DD13ABE0B0E0E9E7F4E10C9434
:1028F000B3136C017B018A01FC011782168283816C
:1029000081FFCCC1CE0101963C01F6019381F70114
:1029100093FD859193FF81917F01882309F4BAC1CA
:10292000853239F493FD859193FF81917F01853242
:1029300029F4B60190E00E946A16E7CF912C212C71
:10294000312CFFE1F315D8F08B3279F038F4803276
:1029500079F08332A1F4232D20611DC08D3261F006
:10296000803369F4232D216016C0832D8260382EB8
:10297000E32DE4603E2E2AC0F32DF8601DC037FC25
:102980002DC020ED280F2A3040F08E32B9F436FCED
:1029900081C1232D2064322E19C036FE06C08AE084
:1029A000989E200D1124922E11C0EAE02E9E200D3B
:1029B0001124222EF32DF0623F2E08C08C3621F414
:1029C000832D8068382E02C0883641F4F70193FDCC
:1029D000859193FF81917F018111B3CF982F9F7DC6
:1029E0009554933028F40C5F1F4F9FE399830DC0DB
:1029F000833631F0833771F0833509F059C021C037
:102A0000F801808189830E5F1F4F88248394912C65
:102A1000530113C02801F2E04F0E511CF801A080B1
:102A2000B18036FE03C0692D70E002C06FEF7FEF0A
:102A3000C5010E945F164C018201F32DFF773F2EE6
:102A400016C0280122E0420E511CF801A080B1807E
:102A500036FE03C0692D70E002C06FEF7FEFC50145
:102A60000E9454164C01F32DF0683F2E820133FC76
:102A70001BC0822D90E088169906B0F4B60180E262
:102A800090E00E946A162A94F4CFF50137FC8591F4
:102A900037FE81915F01B60190E00E946A16211015
:102AA0002A9421E0821A91088114910471F7E8C0F8
:102AB000843611F0893641F5F80137FE07C0608190
:102AC0007181828193810C5F1F4F08C06081718189
:102AD000072E000C880B990B0E5F1F4FF32DFF760E
:102AE0003F2E97FF09C090958095709561957F4F17
:102AF0008F4F9F4FF0683F2E2AE030E0A3010E94E5
:102B0000A616882E861845C0853731F4232D2F7ED2
:102B1000B22E2AE030E025C0932D997FB92E8F3652
:102B2000C1F018F4883579F0B5C0803719F08837CE
:102B300021F0B0C0E92FE061BE2EB4FE0DC0FB2D28
:102B4000F460BF2E09C034FE0AC0292F2660B22EC1
:102B500006C028E030E005C020E130E002C020E1FE
:102B600032E0F801B7FE07C06081718182819381F4
:102B70000C5F1F4F06C06081718180E090E00E5FA6
:102B80001F4FA3010E94A616882E8618FB2DFF77E3
:102B90003F2E36FE0DC0232D2E7FA22E891458F411
:102BA00034FE0BC032FC09C0832D8E7EA82E05C0DA
:102BB000B82CA32C03C0B82C01C0B92CA4FE0FC0A4
:102BC000FE01E80DF11D8081803321F49A2D997E5C
:102BD000A92E09C0A2FE06C0B394B39404C08A2DE6
:102BE000867809F0B394A3FC11C0A0FE06C0B2140D
:102BF00088F4280C922C9B180EC0B21460F4B60115
:102C000080E290E00E946A16B394F7CFB21418F4F1
:102C10002B1802C0982C212CA4FE10C0B60180E312
:102C200090E00E946A16A2FE17C0A1FC03C088E7CC
:102C300090E002C088E590E0B6010CC08A2D86784D
:102C400059F0A1FE02C08BE201C080E2A7FC8DE238
:102C5000B60190E00E946A16891438F4B60180E348
:102C600090E00E946A169A94F7CF8A94F301E80DD7
:102C7000F11D8081B60190E00E946A168110F5CFA7
:102C8000222009F442CEB60180E290E00E946A164A
:102C90002A94F6CFF6018681978102C08FEF9FEFCD
:102CA0002B96E2E10C94CF13FC010590615070402B
:102CB0000110D8F7809590958E0F9F1F0895FC0105
:102CC0006150704001900110D8F7809590958E0F5B
:102CD0009F1F08950F931F93CF93DF93FB012381D1
:102CE00021FD03C08FEF9FEF2CC022FF16C046814D
:102CF0005781248135814217530744F4A081B18163
:102D00009D012F5F3F4F318320838C932681378134
:102D10002F5F3F4F3783268314C08B01EC01FB01EB
:102D20000084F185E02D0995892BE1F6D8011696EE
:102D30008D919C911797019617969C938E93169759
:102D4000CE01DF91CF911F910F910895FA01AA272B
:102D5000283051F1203181F1E8946F936E7F6E5FDE
:102D60007F4F8F4F9F4FAF4FB1E03ED0B4E03CD08C
:102D7000670F781F891F9A1FA11D680F791F8A1F6F
:102D8000911DA11D6A0F711D811D911DA11D20D0D6
:102D900009F468943F912AE0269F11243019305D90
:102DA0003193DEF6CF010895462F4770405D419381
:102DB000B3E00FD0C9F7F6CF462F4F70405D4A33CE
:102DC00018F0495D31FD4052419302D0A9F7EACF96
:102DD000B4E0A6959795879577956795BA95C9F7C5
:102DE00000976105710508959B01AC010A2E0694B8
:102DF0005795479537952795BA95C9F7620F731F71
:102E0000841F951FA01D089513E0C2E3D3E004C002
:102E1000FE010E940D142196C333D107C9F7F8941F
:022E2000FFCFE2
:102E22006D656E7553657474696E6773006D656E5A
:102E320075416464546167006D656E750000000041
:102E420000000000000000000000000082045D039A
:102E52000C058104D204EA04690400000000F003B6
:102E62005D0387033D04B8039603AA039E020D0A7D
:102E7200006D656E754D61696E0063686172006C0C
:102E8200696E65002C20006D656E75006D656E754E
:102E920053656C65637465644D61696E4974656DF3
:102EA200006D656E7553656C656374656453657416
:102EB20074696E6700280029003A002C002578000A
:102EC2006D656E7541646454616700546167730097
:042ED2002E200000AE
:00000001FF
